{
  "contractName": "AccessSmartContract",
  "abi": [
    {
      "inputs": [
        {
          "internalType": "address",
          "name": "projectNFTAddress",
          "type": "address"
        }
      ],
      "stateMutability": "nonpayable",
      "type": "constructor"
    },
    {
      "inputs": [
        {
          "internalType": "uint256",
          "name": "tokenId",
          "type": "uint256"
        },
        {
          "internalType": "address",
          "name": "ownerAddress",
          "type": "address"
        },
        {
          "internalType": "uint256",
          "name": "payAmount",
          "type": "uint256"
        }
      ],
      "name": "buyProject",
      "outputs": [
        {
          "internalType": "address",
          "name": "",
          "type": "address"
        }
      ],
      "stateMutability": "nonpayable",
      "type": "function"
    }
  ],
  "bytecode": "0x608060405234801561001057600080fd5b506040516106b53803806106b583398101604081905261002f91610054565b600080546001600160a01b0319166001600160a01b0392909216919091179055610084565b60006020828403121561006657600080fd5b81516001600160a01b038116811461007d57600080fd5b9392505050565b610622806100936000396000f3fe608060405234801561001057600080fd5b506004361061002b5760003560e01c806304e9dae514610030575b600080fd5b61004361003e366004610471565b61005f565b6040516001600160a01b03909116815260200160405180910390f35b6000805460405163c457fb3760e01b8152600481018690526001600160a01b039091169063c457fb3790602401602060405180830381865afa1580156100a9573d6000803e3d6000fd5b505050506040513d601f19601f820116820180604052508101906100cd91906104b5565b5061010760405180604001604052806017815260200176029ba30b93a34b73390313abc903337b9103a37b5b2b71604d1b8152508561037b565b6101356040518060400160405280600c81526020016b02bb4ba341030b6b7bab73a160a51b8152508361037b565b6101646040518060400160405280600d81526020016c0233937b69030b2323932b9b99609d1b815250846103c4565b60005460405163305a127f60e21b8152600481018690526001600160a01b0385811660248301529091169063c16849fc90604401602060405180830381865afa1580156101b5573d6000803e3d6000fd5b505050506040513d601f19601f820116820180604052508101906101d991906104b5565b8210156102375760405162461bcd60e51b815260206004820152602260248201527f4e65656420746f207061792062757920707269636520746f2062757920746f6b60448201526132b760f11b606482015260840160405180910390fd5b6102586040518060600160405280602981526020016105a260299139610409565b60005460405162396e2160e41b815260048101869052602481018490526001600160a01b03858116604483015290911690630396e21090606401600060405180830381600087803b1580156102ac57600080fd5b505af11580156102c0573d6000803e3d6000fd5b505050506102e56040518060600160405280602281526020016105cb60229139610409565b6001600160a01b03831660009081526001602081815260408084208885529091528220805460ff1916909117905561032042627a9b806104ce565b6040516001600160601b0319606087901b16602082015260348101879052909150819060029060009060540160408051601f198184030181529181528151602092830120835290820192909252016000205550919392505050565b6103c0828260405160240161039192919061053b565b60408051601f198184030181529190526020810180516001600160e01b0316632d839cb360e21b17905261044f565b5050565b6103c082826040516024016103da92919061055d565b60408051601f198184030181529190526020810180516001600160e01b031663319af33360e01b17905261044f565b61044c8160405160240161041d9190610587565b60408051601f198184030181529190526020810180516001600160e01b031663104c13eb60e21b17905261044f565b50565b80516a636f6e736f6c652e6c6f6790602083016000808383865afa5050505050565b60008060006060848603121561048657600080fd5b8335925060208401356001600160a01b03811681146104a457600080fd5b929592945050506040919091013590565b6000602082840312156104c757600080fd5b5051919050565b808201808211156104ef57634e487b7160e01b600052601160045260246000fd5b92915050565b6000815180845260005b8181101561051b576020818501810151868301820152016104ff565b506000602082860101526020601f19601f83011685010191505092915050565b60408152600061054e60408301856104f5565b90508260208301529392505050565b60408152600061057060408301856104f5565b905060018060a01b03831660208301529392505050565b60208152600061059a60208301846104f5565b939250505056fe436865636b73207061737365642c2077696c6c2063616c6c207472616e73666572207061796d656e7450617965642063726561746f72732c2077696c6c20736574206f776e657273686970a2646970667358221220137023967fceae219027f0fc4f372590654fb2c519200352c0088e0efc4922e964736f6c63430008130033",
  "immutableReferences": {},
  "source": "// SPDX-License-Identifier: MIT\npragma solidity ^0.8.18;\n\nimport './ProjectNFT.sol';\nimport \"truffle/Console.sol\";\n\ncontract AccessSmartContract {\n    ProjectNFT private projectNFT;\n\n    // Maps owner address to bought tokens\n    mapping(address => mapping(uint256 => bool)) private _addressToTokens;\n\n    // Maps ownership to expiration date\n    // Key is hash of tuple (address, uint256) for address of owner and tokenId\n    // See https://stackoverflow.com/questions/56292828/can-i-use-tuple-as-a-key-in-mapping\n    mapping(bytes32 => uint256) private _ownershipExpirationTime;\n    \n    constructor(address projectNFTAddress){\n        projectNFT = ProjectNFT(projectNFTAddress);\n    }\n\n    function buyProject(uint256 tokenId, address ownerAddress, uint256 payAmount) public returns (address) {\n        // TODO require token exists;\n        projectNFT.getTokenPrice(tokenId); //check if token exists\n\n        console.log(\"Starting buy for token \", tokenId);\n\n        console.log(\"With amount \", payAmount);\n\n        console.log(\"From address \", ownerAddress);\n\n        require(payAmount >= projectNFT.getTokenBuyPrice(tokenId,ownerAddress), \n            'Need to pay buy price to buy token');\n\n        console.log(\"Checks passed, will call transfer payment\");\n\n        // Pay projects owner\n        projectNFT.transferPayment(tokenId, payAmount, ownerAddress);\n\n        console.log(\"Payed creators, will set ownership\");\n\n        // Set ownership\n        _addressToTokens[ownerAddress][tokenId] = true;\n\n        // Set expiration time\n        uint256 expirationTime = block.timestamp + 60*60*24*31*3; // add 3 months\n        _ownershipExpirationTime[keccak256(abi.encodePacked(ownerAddress, tokenId))] = expirationTime;\n\n        return ownerAddress;\n    }\n}\n",
  "sourcePath": "/home/matteo/Projects/Uni/blockchain-project/contracts/AccessSmartContract.sol",
  "compiler": {
    "name": "solc",
    "version": "0.8.19+commit.7dd6d404.Emscripten.clang"
  },
  "schemaVersion": "3.4.13",
  "updatedAt": "2023-06-28T15:24:59.138Z",
  "networkType": "ethereum",
  "devdoc": {
    "kind": "dev",
    "methods": {},
    "version": 1
  },
  "userdoc": {
    "kind": "user",
    "methods": {},
    "version": 1
  }
}