{
  "contractName": "AccessSmartContract",
  "abi": [
    {
      "inputs": [
        {
          "internalType": "address",
          "name": "projectNFTAddress",
          "type": "address"
        }
      ],
      "stateMutability": "nonpayable",
      "type": "constructor"
    },
    {
      "inputs": [
        {
          "internalType": "uint256",
          "name": "tokenId",
          "type": "uint256"
        },
        {
          "internalType": "address",
          "name": "ownerAddress",
          "type": "address"
        }
      ],
      "name": "buyProject",
      "outputs": [
        {
          "internalType": "string",
          "name": "",
          "type": "string"
        }
      ],
      "stateMutability": "payable",
      "type": "function",
      "payable": true
    },
    {
      "inputs": [
        {
          "internalType": "uint256",
          "name": "tokenId",
          "type": "uint256"
        },
        {
          "internalType": "address",
          "name": "ownerAddress",
          "type": "address"
        }
      ],
      "name": "getTokenDetails",
      "outputs": [
        {
          "internalType": "string",
          "name": "",
          "type": "string"
        }
      ],
      "stateMutability": "view",
      "type": "function",
      "constant": true
    }
  ],
  "bytecode": "0x608060405234801561001057600080fd5b50604051610ca4380380610ca4833981810160405281019061003291906100db565b806000806101000a81548173ffffffffffffffffffffffffffffffffffffffff021916908373ffffffffffffffffffffffffffffffffffffffff16021790555050610108565b600080fd5b600073ffffffffffffffffffffffffffffffffffffffff82169050919050565b60006100a88261007d565b9050919050565b6100b88161009d565b81146100c357600080fd5b50565b6000815190506100d5816100af565b92915050565b6000602082840312156100f1576100f0610078565b5b60006100ff848285016100c6565b91505092915050565b610b8d806101176000396000f3fe6080604052600436106100295760003560e01c806318531fe11461002e5780631fc47b371461006b575b600080fd5b34801561003a57600080fd5b50610055600480360381019061005091906105d9565b61009b565b60405161006291906106a9565b60405180910390f35b610085600480360381019061008091906105d9565b61025e565b60405161009291906106a9565b60405180910390f35b6060600160008373ffffffffffffffffffffffffffffffffffffffff1673ffffffffffffffffffffffffffffffffffffffff168152602001908152602001600020600084815260200190815260200160002060009054906101000a900460ff1661013a576040517f08c379a00000000000000000000000000000000000000000000000000000000081526004016101319061073d565b60405180910390fd5b426002600084866040516020016101529291906107c6565b60405160208183030381529060405280519060200120815260200190815260200160002054116101b7576040517f08c379a00000000000000000000000000000000000000000000000000000000081526004016101ae9061083e565b60405180910390fd5b60008054906101000a900473ffffffffffffffffffffffffffffffffffffffff1673ffffffffffffffffffffffffffffffffffffffff1663118c66c7846040518263ffffffff1660e01b8152600401610210919061086d565b600060405180830381865afa15801561022d573d6000803e3d6000fd5b505050506040513d6000823e3d601f19601f8201168201806040525081019061025691906109ae565b905092915050565b606060008054906101000a900473ffffffffffffffffffffffffffffffffffffffff1673ffffffffffffffffffffffffffffffffffffffff1663c457fb37846040518263ffffffff1660e01b81526004016102b9919061086d565b602060405180830381865afa1580156102d6573d6000803e3d6000fd5b505050506040513d601f19601f820116820180604052508101906102fa9190610a0c565b5060008054906101000a900473ffffffffffffffffffffffffffffffffffffffff1673ffffffffffffffffffffffffffffffffffffffff166351bbee6f846040518263ffffffff1660e01b8152600401610354919061086d565b602060405180830381865afa158015610371573d6000803e3d6000fd5b505050506040513d601f19601f820116820180604052508101906103959190610a0c565b34146103d6576040517f08c379a00000000000000000000000000000000000000000000000000000000081526004016103cd90610aab565b60405180910390fd5b60008054906101000a900473ffffffffffffffffffffffffffffffffffffffff1673ffffffffffffffffffffffffffffffffffffffff1663096e9be784346040518363ffffffff1660e01b8152600401610431929190610acb565b600060405180830381600087803b15801561044b57600080fd5b505af115801561045f573d6000803e3d6000fd5b5050505060018060008473ffffffffffffffffffffffffffffffffffffffff1673ffffffffffffffffffffffffffffffffffffffff168152602001908152602001600020600085815260200190815260200160002060006101000a81548160ff0219169083151502179055506000627a9b80426104dc9190610b23565b9050806002600085876040516020016104f69291906107c6565b60405160208183030381529060405280519060200120815260200190815260200160002081905550610528848461009b565b91505092915050565b6000604051905090565b600080fd5b600080fd5b6000819050919050565b61055881610545565b811461056357600080fd5b50565b6000813590506105758161054f565b92915050565b600073ffffffffffffffffffffffffffffffffffffffff82169050919050565b60006105a68261057b565b9050919050565b6105b68161059b565b81146105c157600080fd5b50565b6000813590506105d3816105ad565b92915050565b600080604083850312156105f0576105ef61053b565b5b60006105fe85828601610566565b925050602061060f858286016105c4565b9150509250929050565b600081519050919050565b600082825260208201905092915050565b60005b83811015610653578082015181840152602081019050610638565b60008484015250505050565b6000601f19601f8301169050919050565b600061067b82610619565b6106858185610624565b9350610695818560208601610635565b61069e8161065f565b840191505092915050565b600060208201905081810360008301526106c38184610670565b905092915050565b7f4164647265737320646f6573206e6f74206f776e20746869732070726f6a656360008201527f7400000000000000000000000000000000000000000000000000000000000000602082015250565b6000610727602183610624565b9150610732826106cb565b604082019050919050565b600060208201905081810360008301526107568161071a565b9050919050565b60008160601b9050919050565b60006107758261075d565b9050919050565b60006107878261076a565b9050919050565b61079f61079a8261059b565b61077c565b82525050565b6000819050919050565b6107c06107bb82610545565b6107a5565b82525050565b60006107d2828561078e565b6014820191506107e282846107af565b6020820191508190509392505050565b7f4f776e6572736869702069732065787069726564000000000000000000000000600082015250565b6000610828601483610624565b9150610833826107f2565b602082019050919050565b600060208201905081810360008301526108578161081b565b9050919050565b61086781610545565b82525050565b6000602082019050610882600083018461085e565b92915050565b600080fd5b600080fd5b7f4e487b7100000000000000000000000000000000000000000000000000000000600052604160045260246000fd5b6108ca8261065f565b810181811067ffffffffffffffff821117156108e9576108e8610892565b5b80604052505050565b60006108fc610531565b905061090882826108c1565b919050565b600067ffffffffffffffff82111561092857610927610892565b5b6109318261065f565b9050602081019050919050565b600061095161094c8461090d565b6108f2565b90508281526020810184848401111561096d5761096c61088d565b5b610978848285610635565b509392505050565b600082601f83011261099557610994610888565b5b81516109a584826020860161093e565b91505092915050565b6000602082840312156109c4576109c361053b565b5b600082015167ffffffffffffffff8111156109e2576109e1610540565b5b6109ee84828501610980565b91505092915050565b600081519050610a068161054f565b92915050565b600060208284031215610a2257610a2161053b565b5b6000610a30848285016109f7565b91505092915050565b7f4e65656420746f207061792062757920707269636520746f2062757920746f6b60008201527f656e000000000000000000000000000000000000000000000000000000000000602082015250565b6000610a95602283610624565b9150610aa082610a39565b604082019050919050565b60006020820190508181036000830152610ac481610a88565b9050919050565b6000604082019050610ae0600083018561085e565b610aed602083018461085e565b9392505050565b7f4e487b7100000000000000000000000000000000000000000000000000000000600052601160045260246000fd5b6000610b2e82610545565b9150610b3983610545565b9250828201905080821115610b5157610b50610af4565b5b9291505056fea2646970667358221220ff8729ebae40db02d55f3d2952ef063b789df6cf66d19f2d45be2dc97c33fbda64736f6c63430008130033",
  "immutableReferences": {},
  "source": "// SPDX-License-Identifier: MIT\npragma solidity ^0.8.18;\n\nimport './ProjectNFT.sol';\n\ncontract AccessSmartContract {\n    ProjectNFT private projectNFT;\n\n    // Maps owner address to bought tokens\n    mapping(address => mapping(uint256 => bool)) private _addressToTokens;\n\n    // Maps ownership to expiration date\n    // Key is hash of tuple (address, uint256) for address of owner and tokenId\n    // See https://stackoverflow.com/questions/56292828/can-i-use-tuple-as-a-key-in-mapping\n    mapping(bytes32 => uint256) private _ownershipExpirationTime;\n    \n    constructor(address projectNFTAddress){\n        projectNFT = ProjectNFT(projectNFTAddress);\n    }\n\n    function buyProject(uint256 tokenId, address ownerAddress) public payable returns (string memory) {\n        // TODO require token exists;\n        projectNFT.getTokenPrice(tokenId); //check if token exists\n\n        require(msg.value == projectNFT.getTokenBuyPrice(tokenId), 'Need to pay buy price to buy token');\n\n        // Pay projects owner\n        projectNFT.transferPayment(tokenId, msg.value);\n\n        // Set ownership\n        _addressToTokens[ownerAddress][tokenId] = true;\n\n        // Set expiration time\n        uint256 expirationTime = block.timestamp + 60*60*24*31*3; // add 3 months\n        _ownershipExpirationTime[keccak256(abi.encodePacked(ownerAddress, tokenId))] = expirationTime;\n\n        return getTokenDetails(tokenId, ownerAddress);\n    }\n\n    function getTokenDetails(uint256 tokenId, address ownerAddress) public view returns (string memory){\n        // Requires to be owner and not expired\n        require(_addressToTokens[ownerAddress][tokenId], 'Address does not own this project');\n        require(_ownershipExpirationTime[keccak256(abi.encodePacked(ownerAddress, tokenId))] > block.timestamp, 'Ownership is expired');\n\n        return projectNFT.getProjectHash(tokenId);\n    }\n}",
  "sourcePath": "/home/matteo/Projects/Uni/blockchain-project/contracts/AccessSmartContract.sol",
  "compiler": {
    "name": "solc",
    "version": "0.8.19+commit.7dd6d404.Emscripten.clang"
  },
  "schemaVersion": "3.4.13",
  "updatedAt": "2023-06-25T09:46:48.166Z",
  "networkType": "ethereum",
  "devdoc": {
    "kind": "dev",
    "methods": {},
    "version": 1
  },
  "userdoc": {
    "kind": "user",
    "methods": {},
    "version": 1
  }
}