{
  "contractName": "AccessSmartContract",
  "abi": [
    {
      "inputs": [
        {
          "internalType": "address",
          "name": "projectNFTAddress",
          "type": "address"
        }
      ],
      "stateMutability": "nonpayable",
      "type": "constructor"
    },
    {
      "inputs": [
        {
          "internalType": "uint256",
          "name": "tokenId",
          "type": "uint256"
        },
        {
          "internalType": "address",
          "name": "ownerAddress",
          "type": "address"
        }
      ],
      "name": "buyProject",
      "outputs": [
        {
          "internalType": "address",
          "name": "",
          "type": "address"
        }
      ],
      "stateMutability": "payable",
      "type": "function",
      "payable": true
    }
  ],
  "bytecode": "0x608060405234801561001057600080fd5b506040516107d93803806107d9833981810160405281019061003291906100db565b806000806101000a81548173ffffffffffffffffffffffffffffffffffffffff021916908373ffffffffffffffffffffffffffffffffffffffff16021790555050610108565b600080fd5b600073ffffffffffffffffffffffffffffffffffffffff82169050919050565b60006100a88261007d565b9050919050565b6100b88161009d565b81146100c357600080fd5b50565b6000815190506100d5816100af565b92915050565b6000602082840312156100f1576100f0610078565b5b60006100ff848285016100c6565b91505092915050565b6106c2806101176000396000f3fe60806040526004361061001e5760003560e01c80631fc47b3714610023575b600080fd5b61003d600480360381019061003891906103bb565b610053565b60405161004a919061040a565b60405180910390f35b60008060009054906101000a900473ffffffffffffffffffffffffffffffffffffffff1673ffffffffffffffffffffffffffffffffffffffff1663c457fb37846040518263ffffffff1660e01b81526004016100af9190610434565b602060405180830381865afa1580156100cc573d6000803e3d6000fd5b505050506040513d601f19601f820116820180604052508101906100f09190610464565b5060008054906101000a900473ffffffffffffffffffffffffffffffffffffffff1673ffffffffffffffffffffffffffffffffffffffff1663c16849fc84846040518363ffffffff1660e01b815260040161014c929190610491565b602060405180830381865afa158015610169573d6000803e3d6000fd5b505050506040513d601f19601f8201168201806040525081019061018d9190610464565b34146101ce576040517f08c379a00000000000000000000000000000000000000000000000000000000081526004016101c59061053d565b60405180910390fd5b60008054906101000a900473ffffffffffffffffffffffffffffffffffffffff1673ffffffffffffffffffffffffffffffffffffffff16630396e2108434856040518463ffffffff1660e01b815260040161022b9392919061055d565b600060405180830381600087803b15801561024557600080fd5b505af1158015610259573d6000803e3d6000fd5b5050505060018060008473ffffffffffffffffffffffffffffffffffffffff1673ffffffffffffffffffffffffffffffffffffffff168152602001908152602001600020600085815260200190815260200160002060006101000a81548160ff0219169083151502179055506000627a9b80426102d691906105c3565b9050806002600085876040516020016102f0929190610660565b604051602081830303815290604052805190602001208152602001908152602001600020819055508291505092915050565b600080fd5b6000819050919050565b61033a81610327565b811461034557600080fd5b50565b60008135905061035781610331565b92915050565b600073ffffffffffffffffffffffffffffffffffffffff82169050919050565b60006103888261035d565b9050919050565b6103988161037d565b81146103a357600080fd5b50565b6000813590506103b58161038f565b92915050565b600080604083850312156103d2576103d1610322565b5b60006103e085828601610348565b92505060206103f1858286016103a6565b9150509250929050565b6104048161037d565b82525050565b600060208201905061041f60008301846103fb565b92915050565b61042e81610327565b82525050565b60006020820190506104496000830184610425565b92915050565b60008151905061045e81610331565b92915050565b60006020828403121561047a57610479610322565b5b60006104888482850161044f565b91505092915050565b60006040820190506104a66000830185610425565b6104b360208301846103fb565b9392505050565b600082825260208201905092915050565b7f4e65656420746f207061792062757920707269636520746f2062757920746f6b60008201527f656e000000000000000000000000000000000000000000000000000000000000602082015250565b60006105276022836104ba565b9150610532826104cb565b604082019050919050565b600060208201905081810360008301526105568161051a565b9050919050565b60006060820190506105726000830186610425565b61057f6020830185610425565b61058c60408301846103fb565b949350505050565b7f4e487b7100000000000000000000000000000000000000000000000000000000600052601160045260246000fd5b60006105ce82610327565b91506105d983610327565b92508282019050808211156105f1576105f0610594565b5b92915050565b60008160601b9050919050565b600061060f826105f7565b9050919050565b600061062182610604565b9050919050565b6106396106348261037d565b610616565b82525050565b6000819050919050565b61065a61065582610327565b61063f565b82525050565b600061066c8285610628565b60148201915061067c8284610649565b602082019150819050939250505056fea2646970667358221220839f53c23a3101852cb09dd520b4e998585c9af43073c91d01aabd71192331b264736f6c63430008130033",
  "immutableReferences": {},
  "source": "// SPDX-License-Identifier: MIT\npragma solidity ^0.8.18;\n\nimport './ProjectNFT.sol';\n\ncontract AccessSmartContract {\n    ProjectNFT private projectNFT;\n\n    // Maps owner address to bought tokens\n    mapping(address => mapping(uint256 => bool)) private _addressToTokens;\n\n    // Maps ownership to expiration date\n    // Key is hash of tuple (address, uint256) for address of owner and tokenId\n    // See https://stackoverflow.com/questions/56292828/can-i-use-tuple-as-a-key-in-mapping\n    mapping(bytes32 => uint256) private _ownershipExpirationTime;\n    \n    constructor(address projectNFTAddress){\n        projectNFT = ProjectNFT(projectNFTAddress);\n    }\n\n    function buyProject(uint256 tokenId, address ownerAddress) public payable returns (address) {\n        // TODO require token exists;\n        projectNFT.getTokenPrice(tokenId); //check if token exists\n\n        require(msg.value == projectNFT.getTokenBuyPrice(tokenId,ownerAddress), 'Need to pay buy price to buy token');\n\n        // Pay projects owner\n        projectNFT.transferPayment(tokenId, msg.value, ownerAddress);\n\n        // Set ownership\n        _addressToTokens[ownerAddress][tokenId] = true;\n\n        // Set expiration time\n        uint256 expirationTime = block.timestamp + 60*60*24*31*3; // add 3 months\n        _ownershipExpirationTime[keccak256(abi.encodePacked(ownerAddress, tokenId))] = expirationTime;\n\n        return ownerAddress;\n    }\n}\n",
  "sourcePath": "/home/matteo/Projects/Uni/blockchain-project/contracts/AccessSmartContract.sol",
  "compiler": {
    "name": "solc",
    "version": "0.8.19+commit.7dd6d404.Emscripten.clang"
  },
  "schemaVersion": "3.4.13",
  "updatedAt": "2023-06-27T11:14:54.104Z",
  "networkType": "ethereum",
  "devdoc": {
    "kind": "dev",
    "methods": {},
    "version": 1
  },
  "userdoc": {
    "kind": "user",
    "methods": {},
    "version": 1
  }
}