{
  "contractName": "AccessSmartContract",
  "abi": [
    {
      "inputs": [
        {
          "internalType": "address",
          "name": "projectNFTAddress",
          "type": "address"
        }
      ],
      "stateMutability": "nonpayable",
      "type": "constructor"
    },
    {
      "inputs": [
        {
          "internalType": "uint256",
          "name": "tokenId",
          "type": "uint256"
        },
        {
          "internalType": "address",
          "name": "ownerAddress",
          "type": "address"
        },
        {
          "internalType": "uint256",
          "name": "price",
          "type": "uint256"
        }
      ],
      "name": "buyProject",
      "outputs": [
        {
          "internalType": "string",
          "name": "",
          "type": "string"
        }
      ],
      "stateMutability": "nonpayable",
      "type": "function"
    },
    {
      "inputs": [
        {
          "internalType": "uint256",
          "name": "tokenId",
          "type": "uint256"
        },
        {
          "internalType": "address",
          "name": "ownerAddress",
          "type": "address"
        }
      ],
      "name": "getTokenDetails",
      "outputs": [
        {
          "internalType": "string",
          "name": "",
          "type": "string"
        }
      ],
      "stateMutability": "view",
      "type": "function",
      "constant": true
    }
  ],
  "bytecode": "0x608060405234801561001057600080fd5b50604051610a33380380610a33833981810160405281019061003291906100db565b806000806101000a81548173ffffffffffffffffffffffffffffffffffffffff021916908373ffffffffffffffffffffffffffffffffffffffff16021790555050610108565b600080fd5b600073ffffffffffffffffffffffffffffffffffffffff82169050919050565b60006100a88261007d565b9050919050565b6100b88161009d565b81146100c357600080fd5b50565b6000815190506100d5816100af565b92915050565b6000602082840312156100f1576100f0610078565b5b60006100ff848285016100c6565b91505092915050565b61091c806101176000396000f3fe608060405234801561001057600080fd5b50600436106100365760003560e01c806304e9dae51461003b57806318531fe11461006b575b600080fd5b6100556004803603810190610050919061043c565b61009b565b604051610062919061051f565b60405180910390f35b61008560048036038101906100809190610541565b610207565b604051610092919061051f565b60405180910390f35b606060008054906101000a900473ffffffffffffffffffffffffffffffffffffffff1673ffffffffffffffffffffffffffffffffffffffff1663c457fb37856040518263ffffffff1660e01b81526004016100f69190610590565b602060405180830381865afa158015610113573d6000803e3d6000fd5b505050506040513d601f19601f8201168201806040525081019061013791906105c0565b5060018060008573ffffffffffffffffffffffffffffffffffffffff1673ffffffffffffffffffffffffffffffffffffffff168152602001908152602001600020600086815260200190815260200160002060006101000a81548160ff0219169083151502179055506000627a9b80426101b1919061061c565b9050806002600086886040516020016101cb9291906106b9565b604051602081830303815290604052805190602001208152602001908152602001600020819055506101fd8585610207565b9150509392505050565b6060600160008373ffffffffffffffffffffffffffffffffffffffff1673ffffffffffffffffffffffffffffffffffffffff168152602001908152602001600020600084815260200190815260200160002060009054906101000a900460ff166102a6576040517f08c379a000000000000000000000000000000000000000000000000000000000815260040161029d90610757565b60405180910390fd5b426002600084866040516020016102be9291906106b9565b60405160208183030381529060405280519060200120815260200190815260200160002054116102ed57600080fd5b60008054906101000a900473ffffffffffffffffffffffffffffffffffffffff1673ffffffffffffffffffffffffffffffffffffffff1663118c66c7846040518263ffffffff1660e01b81526004016103469190610590565b600060405180830381865afa158015610363573d6000803e3d6000fd5b505050506040513d6000823e3d601f19601f8201168201806040525081019061038c919061089d565b905092915050565b6000604051905090565b600080fd5b600080fd5b6000819050919050565b6103bb816103a8565b81146103c657600080fd5b50565b6000813590506103d8816103b2565b92915050565b600073ffffffffffffffffffffffffffffffffffffffff82169050919050565b6000610409826103de565b9050919050565b610419816103fe565b811461042457600080fd5b50565b60008135905061043681610410565b92915050565b6000806000606084860312156104555761045461039e565b5b6000610463868287016103c9565b935050602061047486828701610427565b9250506040610485868287016103c9565b9150509250925092565b600081519050919050565b600082825260208201905092915050565b60005b838110156104c95780820151818401526020810190506104ae565b60008484015250505050565b6000601f19601f8301169050919050565b60006104f18261048f565b6104fb818561049a565b935061050b8185602086016104ab565b610514816104d5565b840191505092915050565b6000602082019050818103600083015261053981846104e6565b905092915050565b600080604083850312156105585761055761039e565b5b6000610566858286016103c9565b925050602061057785828601610427565b9150509250929050565b61058a816103a8565b82525050565b60006020820190506105a56000830184610581565b92915050565b6000815190506105ba816103b2565b92915050565b6000602082840312156105d6576105d561039e565b5b60006105e4848285016105ab565b91505092915050565b7f4e487b7100000000000000000000000000000000000000000000000000000000600052601160045260246000fd5b6000610627826103a8565b9150610632836103a8565b925082820190508082111561064a576106496105ed565b5b92915050565b60008160601b9050919050565b600061066882610650565b9050919050565b600061067a8261065d565b9050919050565b61069261068d826103fe565b61066f565b82525050565b6000819050919050565b6106b36106ae826103a8565b610698565b82525050565b60006106c58285610681565b6014820191506106d582846106a2565b6020820191508190509392505050565b7f4164647265737320646f6573206e6f74206f776e20746869732070726f6a656360008201527f7400000000000000000000000000000000000000000000000000000000000000602082015250565b600061074160218361049a565b915061074c826106e5565b604082019050919050565b6000602082019050818103600083015261077081610734565b9050919050565b600080fd5b600080fd5b7f4e487b7100000000000000000000000000000000000000000000000000000000600052604160045260246000fd5b6107b9826104d5565b810181811067ffffffffffffffff821117156107d8576107d7610781565b5b80604052505050565b60006107eb610394565b90506107f782826107b0565b919050565b600067ffffffffffffffff82111561081757610816610781565b5b610820826104d5565b9050602081019050919050565b600061084061083b846107fc565b6107e1565b90508281526020810184848401111561085c5761085b61077c565b5b6108678482856104ab565b509392505050565b600082601f83011261088457610883610777565b5b815161089484826020860161082d565b91505092915050565b6000602082840312156108b3576108b261039e565b5b600082015167ffffffffffffffff8111156108d1576108d06103a3565b5b6108dd8482850161086f565b9150509291505056fea26469706673582212209fb92d44a41745858d560afb5a6407e3ee368b3789a6ed0adb4617071770569a64736f6c63430008130033",
  "immutableReferences": {},
  "source": "// SPDX-License-Identifier: MIT\npragma solidity ^0.8.18;\n\nimport './ProjectNFT.sol';\n\ncontract AccessSmartContract {\n    ProjectNFT private projectNFT;\n\n    // Maps owner address to bought tokens\n    mapping(address => mapping(uint256 => bool)) private _addressToTokens;\n\n    // Maps ownership to expiration date\n    // Key is hash of tuple (address, uint256) for address of owner and tokenId\n    // See https://stackoverflow.com/questions/56292828/can-i-use-tuple-as-a-key-in-mapping\n    mapping(bytes32 => uint256) private _ownershipExpirationTime;\n    \n    constructor(address projectNFTAddress){\n        projectNFT = ProjectNFT(projectNFTAddress);\n    }\n\n    function buyProject(uint256 tokenId, address ownerAddress, uint256 price) public returns (string memory) {\n        // TODO require token exists;\n        projectNFT.getTokenPrice(tokenId); //check if token exists\n\n        // TODO require price to pay is equal to total price of token\n\n        // TODO pay buy price\n\n        // Set ownership\n        _addressToTokens[ownerAddress][tokenId] = true;\n\n        // Set expiration time\n        uint256 expirationTime = block.timestamp + 60*60*24*31*3; // add 3 months\n        _ownershipExpirationTime[keccak256(abi.encodePacked(ownerAddress, tokenId))] = expirationTime;\n\n        return getTokenDetails(tokenId, ownerAddress);\n    }\n\n    function getTokenDetails(uint256 tokenId, address ownerAddress) public view returns (string memory){\n        // Requires to be owner and not expired\n        require(_addressToTokens[ownerAddress][tokenId], 'Address does not own this project');\n        require(_ownershipExpirationTime[keccak256(abi.encodePacked(ownerAddress, tokenId))] > block.timestamp);\n\n        return projectNFT.getProjectHash(tokenId);\n    }\n}",
  "sourcePath": "/home/matteo/Projects/Uni/blockchain-project/contracts/AccessSmartContract.sol",
  "compiler": {
    "name": "solc",
    "version": "0.8.19+commit.7dd6d404.Emscripten.clang"
  },
  "schemaVersion": "3.4.13",
  "updatedAt": "2023-06-22T13:04:34.142Z",
  "networkType": "ethereum",
  "devdoc": {
    "kind": "dev",
    "methods": {},
    "version": 1
  },
  "userdoc": {
    "kind": "user",
    "methods": {},
    "version": 1
  }
}