{
  "contractName": "AccessSmartContract",
  "abi": [
    {
      "inputs": [
        {
          "internalType": "address",
          "name": "projectNFTAddress",
          "type": "address"
        }
      ],
      "stateMutability": "nonpayable",
      "type": "constructor"
    },
    {
      "inputs": [
        {
          "internalType": "uint256",
          "name": "tokenId",
          "type": "uint256"
        },
        {
          "internalType": "address",
          "name": "ownerAddress",
          "type": "address"
        },
        {
          "internalType": "uint256",
          "name": "payAmount",
          "type": "uint256"
        }
      ],
      "name": "buyProject",
      "outputs": [
        {
          "internalType": "address",
          "name": "",
          "type": "address"
        }
      ],
      "stateMutability": "nonpayable",
      "type": "function"
    }
  ],
  "bytecode": "0x608060405234801561001057600080fd5b506040516103f03803806103f083398101604081905261002f91610054565b600080546001600160a01b0319166001600160a01b0392909216919091179055610084565b60006020828403121561006657600080fd5b81516001600160a01b038116811461007d57600080fd5b9392505050565b61035d806100936000396000f3fe608060405234801561001057600080fd5b506004361061002b5760003560e01c806304e9dae514610030575b600080fd5b61004361003e3660046102a3565b61005f565b6040516001600160a01b03909116815260200160405180910390f35b6000805460405163c457fb3760e01b8152600481018690526001600160a01b039091169063c457fb3790602401602060405180830381865afa1580156100a9573d6000803e3d6000fd5b505050506040513d601f19601f820116820180604052508101906100cd91906102e7565b5060005460405163305a127f60e21b8152600481018690526001600160a01b0385811660248301529091169063c16849fc90604401602060405180830381865afa15801561011f573d6000803e3d6000fd5b505050506040513d601f19601f8201168201806040525081019061014391906102e7565b8210156101a15760405162461bcd60e51b815260206004820152602260248201527f4e65656420746f207061792062757920707269636520746f2062757920746f6b60448201526132b760f11b606482015260840160405180910390fd5b60005460405162396e2160e41b815260048101869052602481018490526001600160a01b03858116604483015290911690630396e21090606401600060405180830381600087803b1580156101f557600080fd5b505af1158015610209573d6000803e3d6000fd5b505050506001600160a01b03831660009081526001602081815260408084208885529091528220805460ff1916909117905561024842627a9b80610300565b6040516001600160601b0319606087901b16602082015260348101879052909150819060029060009060540160408051601f198184030181529181528151602092830120835290820192909252016000205550919392505050565b6000806000606084860312156102b857600080fd5b8335925060208401356001600160a01b03811681146102d657600080fd5b929592945050506040919091013590565b6000602082840312156102f957600080fd5b5051919050565b8082018082111561032157634e487b7160e01b600052601160045260246000fd5b9291505056fea2646970667358221220b44851294b47ce49361a6f6b3cbd295c626423f16f21589f081bda79dc14495264736f6c63430008130033",
  "immutableReferences": {},
  "source": "// SPDX-License-Identifier: MIT\npragma solidity ^0.8.18;\n\nimport './ProjectNFT.sol';\n\ncontract AccessSmartContract {\n    ProjectNFT private projectNFT;\n\n    // Maps owner address to bought tokens\n    mapping(address => mapping(uint256 => bool)) private _addressToTokens;\n\n    // Maps ownership to expiration date\n    // Key is hash of tuple (address, uint256) for address of owner and tokenId\n    // See https://stackoverflow.com/questions/56292828/can-i-use-tuple-as-a-key-in-mapping\n    mapping(bytes32 => uint256) private _ownershipExpirationTime;\n    \n    constructor(address projectNFTAddress){\n        projectNFT = ProjectNFT(projectNFTAddress);\n    }\n\n    function buyProject(uint256 tokenId, address ownerAddress, uint256 payAmount) public returns (address) {\n        // TODO require token exists;\n        projectNFT.getTokenPrice(tokenId); //check if token exists\n\n        require(payAmount >= projectNFT.getTokenBuyPrice(tokenId,ownerAddress), \n            'Need to pay buy price to buy token');\n\n        // Pay projects owner\n        projectNFT.transferPayment(tokenId, payAmount, ownerAddress);\n\n        // Set ownership\n        _addressToTokens[ownerAddress][tokenId] = true;\n\n        // Set expiration time\n        uint256 expirationTime = block.timestamp + 60*60*24*31*3; // add 3 months\n        _ownershipExpirationTime[keccak256(abi.encodePacked(ownerAddress, tokenId))] = expirationTime;\n\n        return ownerAddress;\n    }\n}\n",
  "sourcePath": "/Users/leonardovicentini/Desktop/Magistrale/Blockchain/blockchain-project/contracts/AccessSmartContract.sol",
  "compiler": {
    "name": "solc",
    "version": "0.8.19+commit.7dd6d404.Emscripten.clang"
  },
  "schemaVersion": "3.4.13",
  "updatedAt": "2023-06-27T14:44:06.185Z",
  "devdoc": {
    "kind": "dev",
    "methods": {},
    "version": 1
  },
  "userdoc": {
    "kind": "user",
    "methods": {},
    "version": 1
  }
}