{
  "contractName": "ATestnetConsumer",
  "abi": [
    {
      "inputs": [],
      "stateMutability": "nonpayable",
      "type": "constructor"
    },
    {
      "anonymous": false,
      "inputs": [
        {
          "indexed": true,
          "internalType": "bytes32",
          "name": "id",
          "type": "bytes32"
        }
      ],
      "name": "ChainlinkCancelled",
      "type": "event"
    },
    {
      "anonymous": false,
      "inputs": [
        {
          "indexed": true,
          "internalType": "bytes32",
          "name": "id",
          "type": "bytes32"
        }
      ],
      "name": "ChainlinkFulfilled",
      "type": "event"
    },
    {
      "anonymous": false,
      "inputs": [
        {
          "indexed": true,
          "internalType": "bytes32",
          "name": "id",
          "type": "bytes32"
        }
      ],
      "name": "ChainlinkRequested",
      "type": "event"
    },
    {
      "anonymous": false,
      "inputs": [
        {
          "indexed": true,
          "internalType": "address",
          "name": "from",
          "type": "address"
        },
        {
          "indexed": true,
          "internalType": "address",
          "name": "to",
          "type": "address"
        }
      ],
      "name": "OwnershipTransferRequested",
      "type": "event"
    },
    {
      "anonymous": false,
      "inputs": [
        {
          "indexed": true,
          "internalType": "address",
          "name": "from",
          "type": "address"
        },
        {
          "indexed": true,
          "internalType": "address",
          "name": "to",
          "type": "address"
        }
      ],
      "name": "OwnershipTransferred",
      "type": "event"
    },
    {
      "anonymous": false,
      "inputs": [
        {
          "indexed": true,
          "internalType": "bytes32",
          "name": "requestId",
          "type": "bytes32"
        },
        {
          "indexed": true,
          "internalType": "bool",
          "name": "success",
          "type": "bool"
        }
      ],
      "name": "RequestConfirmMintingFulfilled",
      "type": "event"
    },
    {
      "inputs": [],
      "name": "acceptOwnership",
      "outputs": [],
      "stateMutability": "nonpayable",
      "type": "function"
    },
    {
      "inputs": [],
      "name": "base_url",
      "outputs": [
        {
          "internalType": "string",
          "name": "",
          "type": "string"
        }
      ],
      "stateMutability": "view",
      "type": "function"
    },
    {
      "inputs": [],
      "name": "owner",
      "outputs": [
        {
          "internalType": "address",
          "name": "",
          "type": "address"
        }
      ],
      "stateMutability": "view",
      "type": "function"
    },
    {
      "inputs": [
        {
          "internalType": "address",
          "name": "to",
          "type": "address"
        }
      ],
      "name": "transferOwnership",
      "outputs": [],
      "stateMutability": "nonpayable",
      "type": "function"
    },
    {
      "inputs": [
        {
          "internalType": "address",
          "name": "_oracle",
          "type": "address"
        },
        {
          "internalType": "string",
          "name": "_jobId",
          "type": "string"
        },
        {
          "internalType": "uint256",
          "name": "_tokenId",
          "type": "uint256"
        }
      ],
      "name": "requestConfirmMinting",
      "outputs": [],
      "stateMutability": "nonpayable",
      "type": "function"
    },
    {
      "inputs": [
        {
          "internalType": "bytes32",
          "name": "_requestId",
          "type": "bytes32"
        },
        {
          "internalType": "bool",
          "name": "_success",
          "type": "bool"
        }
      ],
      "name": "fulfillConfirmMinting",
      "outputs": [],
      "stateMutability": "nonpayable",
      "type": "function"
    },
    {
      "inputs": [],
      "name": "getChainlinkToken",
      "outputs": [
        {
          "internalType": "address",
          "name": "",
          "type": "address"
        }
      ],
      "stateMutability": "view",
      "type": "function"
    },
    {
      "inputs": [],
      "name": "withdrawLink",
      "outputs": [],
      "stateMutability": "nonpayable",
      "type": "function"
    },
    {
      "inputs": [
        {
          "internalType": "bytes32",
          "name": "_requestId",
          "type": "bytes32"
        },
        {
          "internalType": "uint256",
          "name": "_payment",
          "type": "uint256"
        },
        {
          "internalType": "bytes4",
          "name": "_callbackFunctionId",
          "type": "bytes4"
        },
        {
          "internalType": "uint256",
          "name": "_expiration",
          "type": "uint256"
        }
      ],
      "name": "cancelRequest",
      "outputs": [],
      "stateMutability": "nonpayable",
      "type": "function"
    }
  ],
  "bytecode": "0x6080604052600160045560405180606001604052806021815260200162002ad460219139600890816200003391906200055c565b503480156200004157600080fd5b50338060008073ffffffffffffffffffffffffffffffffffffffff168273ffffffffffffffffffffffffffffffffffffffff1603620000b7576040517f08c379a0000000000000000000000000000000000000000000000000000000008152600401620000ae90620006a4565b60405180910390fd5b81600660006101000a81548173ffffffffffffffffffffffffffffffffffffffff021916908373ffffffffffffffffffffffffffffffffffffffff160217905550600073ffffffffffffffffffffffffffffffffffffffff168173ffffffffffffffffffffffffffffffffffffffff16146200013f576200013e816200016d60201b60201c565b5b5050506200016773779877a7b0d9e8603169ddbd7836e478b46247896200029e60201b60201c565b62000738565b3373ffffffffffffffffffffffffffffffffffffffff168173ffffffffffffffffffffffffffffffffffffffff1603620001de576040517f08c379a0000000000000000000000000000000000000000000000000000000008152600401620001d59062000716565b60405180910390fd5b80600760006101000a81548173ffffffffffffffffffffffffffffffffffffffff021916908373ffffffffffffffffffffffffffffffffffffffff1602179055508073ffffffffffffffffffffffffffffffffffffffff16600660009054906101000a900473ffffffffffffffffffffffffffffffffffffffff1673ffffffffffffffffffffffffffffffffffffffff167fed8889f560326eb138920d842192f0eb3dd22b4f139c87a2c57538e05bae127860405160405180910390a350565b80600260006101000a81548173ffffffffffffffffffffffffffffffffffffffff021916908373ffffffffffffffffffffffffffffffffffffffff16021790555050565b600081519050919050565b7f4e487b7100000000000000000000000000000000000000000000000000000000600052604160045260246000fd5b7f4e487b7100000000000000000000000000000000000000000000000000000000600052602260045260246000fd5b600060028204905060018216806200036457607f821691505b6020821081036200037a57620003796200031c565b5b50919050565b60008190508160005260206000209050919050565b60006020601f8301049050919050565b600082821b905092915050565b600060088302620003e47fffffffffffffffffffffffffffffffffffffffffffffffffffffffffffffffff82620003a5565b620003f08683620003a5565b95508019841693508086168417925050509392505050565b6000819050919050565b6000819050919050565b60006200043d62000437620004318462000408565b62000412565b62000408565b9050919050565b6000819050919050565b62000459836200041c565b62000471620004688262000444565b848454620003b2565b825550505050565b600090565b6200048862000479565b620004958184846200044e565b505050565b5b81811015620004bd57620004b16000826200047e565b6001810190506200049b565b5050565b601f8211156200050c57620004d68162000380565b620004e18462000395565b81016020851015620004f1578190505b62000509620005008562000395565b8301826200049a565b50505b505050565b600082821c905092915050565b6000620005316000198460080262000511565b1980831691505092915050565b60006200054c83836200051e565b9150826002028217905092915050565b6200056782620002e2565b67ffffffffffffffff811115620005835762000582620002ed565b5b6200058f82546200034b565b6200059c828285620004c1565b600060209050601f831160018114620005d45760008415620005bf578287015190505b620005cb85826200053e565b8655506200063b565b601f198416620005e48662000380565b60005b828110156200060e57848901518255600182019150602085019450602081019050620005e7565b868310156200062e57848901516200062a601f8916826200051e565b8355505b6001600288020188555050505b505050505050565b600082825260208201905092915050565b7f43616e6e6f7420736574206f776e657220746f207a65726f0000000000000000600082015250565b60006200068c60188362000643565b9150620006998262000654565b602082019050919050565b60006020820190508181036000830152620006bf816200067d565b9050919050565b7f43616e6e6f74207472616e7366657220746f2073656c66000000000000000000600082015250565b6000620006fe60178362000643565b91506200070b82620006c6565b602082019050919050565b600060208201905081810360008301526200073181620006ef565b9050919050565b61238c80620007486000396000f3fe608060405234801561001057600080fd5b50600436106100935760003560e01c80638da5cb5b116100665780638da5cb5b146100fa5780638dc654a214610118578063a7f15a6114610122578063ec65d0f81461013e578063f2fde38b1461015a57610093565b8063165d35e11461009857806326cfc439146100b657806333a1bb26146100d257806379ba5097146100f0575b600080fd5b6100a0610176565b6040516100ad91906113b6565b60405180910390f35b6100d060048036038101906100cb919061158d565b610185565b005b6100da6102c4565b6040516100e7919061167b565b60405180910390f35b6100f8610352565b005b6101026104e9565b60405161010f91906113b6565b60405180910390f35b610120610513565b005b61013c6004803603810190610137919061170b565b610660565b005b610158600480360381019061015391906117a3565b61079a565b005b610174600480360381019061016f919061180a565b6107b4565b005b60006101806107c8565b905090565b61018d6107f2565b60006101a961019b84610884565b3063a7f15a6160e01b6108ad565b90506102296040518060400160405280600381526020017f75726c000000000000000000000000000000000000000000000000000000000081525060086009600086815260200190815260200160002060405160200161020a92919061193a565b604051602081830303815290604052836108de9092919063ffffffff16565b6102926040518060400160405280600481526020017f626f647900000000000000000000000000000000000000000000000000000000815250836040516020016102739190611a63565b604051602081830303815290604052836108de9092919063ffffffff16565b6102bd8482600a670de0b6b3a764000060016102ae9190611ace565b6102b89190611b3f565b610911565b5050505050565b600880546102d190611866565b80601f01602080910402602001604051908101604052809291908181526020018280546102fd90611866565b801561034a5780601f1061031f5761010080835404028352916020019161034a565b820191906000526020600020905b81548152906001019060200180831161032d57829003601f168201915b505050505081565b600760009054906101000a900473ffffffffffffffffffffffffffffffffffffffff1673ffffffffffffffffffffffffffffffffffffffff163373ffffffffffffffffffffffffffffffffffffffff16146103e2576040517f08c379a00000000000000000000000000000000000000000000000000000000081526004016103d990611bbc565b60405180910390fd5b6000600660009054906101000a900473ffffffffffffffffffffffffffffffffffffffff16905033600660006101000a81548173ffffffffffffffffffffffffffffffffffffffff021916908373ffffffffffffffffffffffffffffffffffffffff1602179055506000600760006101000a81548173ffffffffffffffffffffffffffffffffffffffff021916908373ffffffffffffffffffffffffffffffffffffffff1602179055503373ffffffffffffffffffffffffffffffffffffffff168173ffffffffffffffffffffffffffffffffffffffff167f8be0079c531659141344cd1fd0a4f28419497f9722a3daafe3b4186f6b6457e060405160405180910390a350565b6000600660009054906101000a900473ffffffffffffffffffffffffffffffffffffffff16905090565b61051b6107f2565b60006105256107c8565b90508073ffffffffffffffffffffffffffffffffffffffff1663a9059cbb338373ffffffffffffffffffffffffffffffffffffffff166370a08231306040518263ffffffff1660e01b815260040161057d91906113b6565b602060405180830381865afa15801561059a573d6000803e3d6000fd5b505050506040513d601f19601f820116820180604052508101906105be9190611bf1565b6040518363ffffffff1660e01b81526004016105db929190611c2d565b6020604051808303816000875af11580156105fa573d6000803e3d6000fd5b505050506040513d601f19601f8201168201806040525081019061061e9190611c6b565b61065d576040517f08c379a000000000000000000000000000000000000000000000000000000000815260040161065490611ce4565b60405180910390fd5b50565b816005600082815260200190815260200160002060009054906101000a900473ffffffffffffffffffffffffffffffffffffffff1673ffffffffffffffffffffffffffffffffffffffff163373ffffffffffffffffffffffffffffffffffffffff1614610702576040517f08c379a00000000000000000000000000000000000000000000000000000000081526004016106f990611d76565b60405180910390fd5b6005600082815260200190815260200160002060006101000a81549073ffffffffffffffffffffffffffffffffffffffff0219169055807f7cc135e0cebb02c3480ae5d74d377283180a2601f8f644edf7987b009316c63a60405160405180910390a2811515837f04410a8f46410a54b8611dcb6d68f3f1d79a593863f1e9fadd02188b497f39c760405160405180910390a3505050565b6107a26107f2565b6107ae848484846109dd565b50505050565b6107bc6107f2565b6107c581610af0565b50565b6000600260009054906101000a900473ffffffffffffffffffffffffffffffffffffffff16905090565b600660009054906101000a900473ffffffffffffffffffffffffffffffffffffffff1673ffffffffffffffffffffffffffffffffffffffff163373ffffffffffffffffffffffffffffffffffffffff1614610882576040517f08c379a000000000000000000000000000000000000000000000000000000000815260040161087990611de2565b60405180910390fd5b565b600080829050600081510361089f576000801b9150506108a8565b60208301519150505b919050565b6108b56112ee565b6108bd6112ee565b6108d485858584610c1e909392919063ffffffff16565b9150509392505050565b6108f5828460800151610cce90919063ffffffff16565b61090c818460800151610cce90919063ffffffff16565b505050565b60008060045490506001816109269190611e02565b6004819055506000634042994660e01b60008087600001513089604001518760018c6080015160000151604051602401610967989796959493929190611ea9565b604051602081830303815290604052907bffffffffffffffffffffffffffffffffffffffffffffffffffffffff19166020820180517bffffffffffffffffffffffffffffffffffffffffffffffffffffffff838183161783525050505090506109d286838684610cf3565b925050509392505050565b60006005600086815260200190815260200160002060009054906101000a900473ffffffffffffffffffffffffffffffffffffffff1690506005600086815260200190815260200160002060006101000a81549073ffffffffffffffffffffffffffffffffffffffff0219169055847fe1fe3afa0f7f761ff0a8b89086790efd5140d2907ebd5b7ff6bfcb5e075fd4c560405160405180910390a28073ffffffffffffffffffffffffffffffffffffffff16636ee4d553868686866040518563ffffffff1660e01b8152600401610ab79493929190611f2e565b600060405180830381600087803b158015610ad157600080fd5b505af1158015610ae5573d6000803e3d6000fd5b505050505050505050565b3373ffffffffffffffffffffffffffffffffffffffff168173ffffffffffffffffffffffffffffffffffffffff1603610b5e576040517f08c379a0000000000000000000000000000000000000000000000000000000008152600401610b5590611fbf565b60405180910390fd5b80600760006101000a81548173ffffffffffffffffffffffffffffffffffffffff021916908373ffffffffffffffffffffffffffffffffffffffff1602179055508073ffffffffffffffffffffffffffffffffffffffff16600660009054906101000a900473ffffffffffffffffffffffffffffffffffffffff1673ffffffffffffffffffffffffffffffffffffffff167fed8889f560326eb138920d842192f0eb3dd22b4f139c87a2c57538e05bae127860405160405180910390a350565b610c266112ee565b610c368560800151610100610e88565b508385600001818152505082856020019073ffffffffffffffffffffffffffffffffffffffff16908173ffffffffffffffffffffffffffffffffffffffff16815250508185604001907bffffffffffffffffffffffffffffffffffffffffffffffffffffffff191690817bffffffffffffffffffffffffffffffffffffffffffffffffffffffff191681525050849050949350505050565b610cdb8260038351610ef2565b610cee818361107790919063ffffffff16565b505050565b60003084604051602001610d08929190612077565b604051602081830303815290604052805190602001209050846005600083815260200190815260200160002060006101000a81548173ffffffffffffffffffffffffffffffffffffffff021916908373ffffffffffffffffffffffffffffffffffffffff160217905550807fb5e6e01e79f91267dc17b4e6314d5d4d03593d2ceee0fbb452b750bd70ea5af960405160405180910390a2600260009054906101000a900473ffffffffffffffffffffffffffffffffffffffff1673ffffffffffffffffffffffffffffffffffffffff16634000aea08685856040518463ffffffff1660e01b8152600401610dfe939291906120a3565b6020604051808303816000875af1158015610e1d573d6000803e3d6000fd5b505050506040513d601f19601f82011682018060405250810190610e419190611c6b565b610e80576040517f08c379a0000000000000000000000000000000000000000000000000000000008152600401610e7790612153565b60405180910390fd5b949350505050565b610e9061135b565b6000602083610e9f9190612173565b14610ecb57602082610eb19190612173565b6020610ebd91906121a4565b82610ec89190611e02565b91505b81836020018181525050604051808452600081528281016020016040525082905092915050565b60178167ffffffffffffffff1611610f2957610f238160058460ff16901b60ff16178461109990919063ffffffff16565b50611072565b60ff8167ffffffffffffffff1611610f7f57610f58601860058460ff16901b178461109990919063ffffffff16565b50610f798167ffffffffffffffff166001856110b99092919063ffffffff16565b50611071565b61ffff8167ffffffffffffffff1611610fd657610faf601960058460ff16901b178461109990919063ffffffff16565b50610fd08167ffffffffffffffff166002856110b99092919063ffffffff16565b50611070565b63ffffffff8167ffffffffffffffff161161102f57611008601a60058460ff16901b178461109990919063ffffffff16565b506110298167ffffffffffffffff166004856110b99092919063ffffffff16565b5061106f565b61104c601b60058460ff16901b178461109990919063ffffffff16565b5061106d8167ffffffffffffffff166008856110b99092919063ffffffff16565b505b5b5b5b505050565b61107f61135b565b611091838460000151518485516110db565b905092915050565b6110a161135b565b6110b183846000015151846111ca565b905092915050565b6110c161135b565b6110d2848560000151518585611220565b90509392505050565b6110e361135b565b82518211156110f157600080fd5b846020015182856111029190611e02565b111561113757611136856002611127886020015188876111229190611e02565b6112ae565b6111319190611ace565b6112ca565b5b6000808651805187602083010193508088870111156111565787860182525b60208701925050505b6020841061119d57805182526020826111789190611e02565b91506020816111879190611e02565b905060208461119691906121a4565b935061115f565b60006001856020036101000a03905080198251168184511681811785525050508692505050949350505050565b6111d261135b565b836020015183106111f8576111f784600286602001516111f29190611ace565b6112ca565b5b83518051602085830101848153818603611213576001820183525b5050508390509392505050565b61122861135b565b846020015184836112399190611e02565b11156112615761126085600286856112519190611e02565b61125b9190611ace565b6112ca565b5b6000600183610100611273919061230b565b61127d91906121a4565b905085518386820101858319825116178152815185880111156112a05784870182525b505085915050949350505050565b6000818311156112c0578290506112c4565b8190505b92915050565b6000826000015190506112dd8383610e88565b506112e88382611077565b50505050565b6040518060a0016040528060008019168152602001600073ffffffffffffffffffffffffffffffffffffffff16815260200160007bffffffffffffffffffffffffffffffffffffffffffffffffffffffff191681526020016000815260200161135561135b565b81525090565b604051806040016040528060608152602001600081525090565b600073ffffffffffffffffffffffffffffffffffffffff82169050919050565b60006113a082611375565b9050919050565b6113b081611395565b82525050565b60006020820190506113cb60008301846113a7565b92915050565b6000604051905090565b600080fd5b600080fd5b6113ee81611395565b81146113f957600080fd5b50565b60008135905061140b816113e5565b92915050565b600080fd5b600080fd5b6000601f19601f8301169050919050565b7f4e487b7100000000000000000000000000000000000000000000000000000000600052604160045260246000fd5b6114648261141b565b810181811067ffffffffffffffff821117156114835761148261142c565b5b80604052505050565b60006114966113d1565b90506114a2828261145b565b919050565b600067ffffffffffffffff8211156114c2576114c161142c565b5b6114cb8261141b565b9050602081019050919050565b82818337600083830152505050565b60006114fa6114f5846114a7565b61148c565b90508281526020810184848401111561151657611515611416565b5b6115218482856114d8565b509392505050565b600082601f83011261153e5761153d611411565b5b813561154e8482602086016114e7565b91505092915050565b6000819050919050565b61156a81611557565b811461157557600080fd5b50565b60008135905061158781611561565b92915050565b6000806000606084860312156115a6576115a56113db565b5b60006115b4868287016113fc565b935050602084013567ffffffffffffffff8111156115d5576115d46113e0565b5b6115e186828701611529565b92505060406115f286828701611578565b9150509250925092565b600081519050919050565b600082825260208201905092915050565b60005b8381101561163657808201518184015260208101905061161b565b60008484015250505050565b600061164d826115fc565b6116578185611607565b9350611667818560208601611618565b6116708161141b565b840191505092915050565b600060208201905081810360008301526116958184611642565b905092915050565b6000819050919050565b6116b08161169d565b81146116bb57600080fd5b50565b6000813590506116cd816116a7565b92915050565b60008115159050919050565b6116e8816116d3565b81146116f357600080fd5b50565b600081359050611705816116df565b92915050565b60008060408385031215611722576117216113db565b5b6000611730858286016116be565b9250506020611741858286016116f6565b9150509250929050565b60007fffffffff0000000000000000000000000000000000000000000000000000000082169050919050565b6117808161174b565b811461178b57600080fd5b50565b60008135905061179d81611777565b92915050565b600080600080608085870312156117bd576117bc6113db565b5b60006117cb878288016116be565b94505060206117dc87828801611578565b93505060406117ed8782880161178e565b92505060606117fe87828801611578565b91505092959194509250565b6000602082840312156118205761181f6113db565b5b600061182e848285016113fc565b91505092915050565b7f4e487b7100000000000000000000000000000000000000000000000000000000600052602260045260246000fd5b6000600282049050600182168061187e57607f821691505b60208210810361189157611890611837565b5b50919050565b600081905092915050565b60008190508160005260206000209050919050565b600081546118c481611866565b6118ce8186611897565b945060018216600081146118e957600181146118fe57611931565b60ff1983168652811515820286019350611931565b611907856118a2565b60005b838110156119295781548189015260018201915060208101905061190a565b838801955050505b50505092915050565b600061194682856118b7565b915061195282846118b7565b91508190509392505050565b7f7b00000000000000000000000000000000000000000000000000000000000000600082015250565b6000611994600183611897565b915061199f8261195e565b600182019050919050565b7f5c22746f6b656e49645c223a0000000000000000000000000000000000000000600082015250565b60006119e0600c83611897565b91506119eb826119aa565b600c82019050919050565b6000819050919050565b611a11611a0c82611557565b6119f6565b82525050565b7f7d00000000000000000000000000000000000000000000000000000000000000600082015250565b6000611a4d600183611897565b9150611a5882611a17565b600182019050919050565b6000611a6e82611987565b9150611a79826119d3565b9150611a858284611a00565b602082019150611a9482611a40565b915081905092915050565b7f4e487b7100000000000000000000000000000000000000000000000000000000600052601160045260246000fd5b6000611ad982611557565b9150611ae483611557565b9250828202611af281611557565b91508282048414831517611b0957611b08611a9f565b5b5092915050565b7f4e487b7100000000000000000000000000000000000000000000000000000000600052601260045260246000fd5b6000611b4a82611557565b9150611b5583611557565b925082611b6557611b64611b10565b5b828204905092915050565b7f4d7573742062652070726f706f736564206f776e657200000000000000000000600082015250565b6000611ba6601683611607565b9150611bb182611b70565b602082019050919050565b60006020820190508181036000830152611bd581611b99565b9050919050565b600081519050611beb81611561565b92915050565b600060208284031215611c0757611c066113db565b5b6000611c1584828501611bdc565b91505092915050565b611c2781611557565b82525050565b6000604082019050611c4260008301856113a7565b611c4f6020830184611c1e565b9392505050565b600081519050611c65816116df565b92915050565b600060208284031215611c8157611c806113db565b5b6000611c8f84828501611c56565b91505092915050565b7f556e61626c6520746f207472616e736665720000000000000000000000000000600082015250565b6000611cce601283611607565b9150611cd982611c98565b602082019050919050565b60006020820190508181036000830152611cfd81611cc1565b9050919050565b7f536f75726365206d75737420626520746865206f7261636c65206f662074686560008201527f2072657175657374000000000000000000000000000000000000000000000000602082015250565b6000611d60602883611607565b9150611d6b82611d04565b604082019050919050565b60006020820190508181036000830152611d8f81611d53565b9050919050565b7f4f6e6c792063616c6c61626c65206279206f776e657200000000000000000000600082015250565b6000611dcc601683611607565b9150611dd782611d96565b602082019050919050565b60006020820190508181036000830152611dfb81611dbf565b9050919050565b6000611e0d82611557565b9150611e1883611557565b9250828201905080821115611e3057611e2f611a9f565b5b92915050565b611e3f8161169d565b82525050565b611e4e8161174b565b82525050565b600081519050919050565b600082825260208201905092915050565b6000611e7b82611e54565b611e858185611e5f565b9350611e95818560208601611618565b611e9e8161141b565b840191505092915050565b600061010082019050611ebf600083018b6113a7565b611ecc602083018a611c1e565b611ed96040830189611e36565b611ee660608301886113a7565b611ef36080830187611e45565b611f0060a0830186611c1e565b611f0d60c0830185611c1e565b81810360e0830152611f1f8184611e70565b90509998505050505050505050565b6000608082019050611f436000830187611e36565b611f506020830186611c1e565b611f5d6040830185611e45565b611f6a6060830184611c1e565b95945050505050565b7f43616e6e6f74207472616e7366657220746f2073656c66000000000000000000600082015250565b6000611fa9601783611607565b9150611fb482611f73565b602082019050919050565b60006020820190508181036000830152611fd881611f9c565b9050919050565b6000819050919050565b6000612004611fff611ffa84611375565b611fdf565b611375565b9050919050565b600061201682611fe9565b9050919050565b60006120288261200b565b9050919050565b60008160601b9050919050565b60006120478261202f565b9050919050565b60006120598261203c565b9050919050565b61207161206c8261201d565b61204e565b82525050565b60006120838285612060565b6014820191506120938284611a00565b6020820191508190509392505050565b60006060820190506120b860008301866113a7565b6120c56020830185611c1e565b81810360408301526120d78184611e70565b9050949350505050565b7f756e61626c6520746f207472616e73666572416e6443616c6c20746f206f726160008201527f636c650000000000000000000000000000000000000000000000000000000000602082015250565b600061213d602383611607565b9150612148826120e1565b604082019050919050565b6000602082019050818103600083015261216c81612130565b9050919050565b600061217e82611557565b915061218983611557565b92508261219957612198611b10565b5b828206905092915050565b60006121af82611557565b91506121ba83611557565b92508282039050818111156121d2576121d1611a9f565b5b92915050565b60008160011c9050919050565b6000808291508390505b600185111561222f5780860481111561220b5761220a611a9f565b5b600185161561221a5780820291505b8081029050612228856121d8565b94506121ef565b94509492505050565b6000826122485760019050612304565b816122565760009050612304565b816001811461226c5760028114612276576122a5565b6001915050612304565b60ff84111561228857612287611a9f565b5b8360020a91508482111561229f5761229e611a9f565b5b50612304565b5060208310610133831016604e8410600b84101617156122da5782820a9050838111156122d5576122d4611a9f565b5b612304565b6122e784848460016121e5565b925090508184048111156122fe576122fd611a9f565b5b81810290505b9392505050565b600061231682611557565b915061232183611557565b925061234e7fffffffffffffffffffffffffffffffffffffffffffffffffffffffffffffffff8484612238565b90509291505056fea26469706673582212205d688cd516f524e5dfa121e844c6a5cd5a9631c82d2eb44312dccf6c8871b3b064736f6c63430008130033687474703a2f2f6c6f63616c686f73743a333030302f6170692f76312f6e667473",
  "immutableReferences": {},
  "source": "// SPDX-License-Identifier: MIT\npragma solidity ^0.8.7;\n\nimport \"@chainlink/contracts/src/v0.8/ChainlinkClient.sol\";\nimport \"@chainlink/contracts/src/v0.8/ConfirmedOwner.sol\";\nimport \"@openzeppelin/contracts/utils/Strings.sol\";\n\n\n\n/**\n * THIS IS AN EXAMPLE CONTRACT THAT USES UN-AUDITED CODE.\n * DO NOT USE THIS CODE IN PRODUCTION.\n */\n\ncontract ATestnetConsumer is ChainlinkClient, ConfirmedOwner {\n    using Chainlink for Chainlink.Request;\n\n    uint256 private constant ORACLE_PAYMENT = (1 * LINK_DIVISIBILITY) / 10; // 0.1 * 10**18\n    string public base_url = \"http://localhost:3000/api/v1/nfts\";\n    mapping(uint256 => string) private _tokenIdToHash;\n\n    event RequestConfirmMintingFulfilled(\n        bytes32 indexed requestId,\n        bool indexed success\n    );\n\n    /**\n     *  Sepolia\n     *@dev LINK address in Sepolia network: 0x779877A7B0D9E8603169DdbD7836e478b4624789\n     * @dev Check https://docs.chain.link/docs/link-token-contracts/ for LINK address for the right network\n     */\n    constructor() ConfirmedOwner(msg.sender) {\n        setChainlinkToken(0x779877A7B0D9E8603169DdbD7836e478b4624789);\n    }\n\n    function requestConfirmMinting(\n        address _oracle,\n        string memory _jobId,\n        uint256 _tokenId\n    ) public onlyOwner {\n        Chainlink.Request memory req = buildChainlinkRequest(\n            stringToBytes32(_jobId),\n            address(this),\n            this.fulfillConfirmMinting.selector\n        );\n\n        req.add(\"url\", string(abi.encodePacked(base_url, _tokenIdToHash[_tokenId])));\n        //req.add(\"method\", \"PUT\"); already in TOML of the node\n        //req.add(\"headers\", \"Content-Type: application/json\"); omit for now\n        req.add(\n            \"body\",\n            string(\n                abi.encodePacked(\n                    \"{\",\n                    '\\\\\"tokenId\\\\\":',\n                    _tokenId,\n                    \"}\"\n                )\n            )\n        );\n        sendChainlinkRequestTo(_oracle, req, ORACLE_PAYMENT);\n    }\n\n    function fulfillConfirmMinting(\n        bytes32 _requestId,\n        bool _success\n    ) public recordChainlinkFulfillment(_requestId) {\n        emit RequestConfirmMintingFulfilled(_requestId, _success);\n        if (_success) {\n            // Handle successful response from centralized server\n        } else {\n            // Handle unsuccessful response from centralized server\n        }\n    }\n\n    function getChainlinkToken() public view returns (address) {\n        return chainlinkTokenAddress();\n    }\n\n    function withdrawLink() public onlyOwner {\n        LinkTokenInterface link = LinkTokenInterface(chainlinkTokenAddress());\n        require(\n            link.transfer(msg.sender, link.balanceOf(address(this))),\n            \"Unable to transfer\"\n        );\n    }\n\n    function cancelRequest(\n        bytes32 _requestId,\n        uint256 _payment,\n        bytes4 _callbackFunctionId,\n        uint256 _expiration\n    ) public onlyOwner {\n        cancelChainlinkRequest(\n            _requestId,\n            _payment,\n            _callbackFunctionId,\n            _expiration\n        );\n    }\n\n    function stringToBytes32(\n        string memory source\n    ) private pure returns (bytes32 result) {\n        bytes memory tempEmptyStringTest = bytes(source);\n        if (tempEmptyStringTest.length == 0) {\n            return 0x0;\n        }\n\n        assembly {\n            // solhint-disable-line no-inline-assembly\n            result := mload(add(source, 32))\n        }\n    }\n}\n",
  "sourcePath": "/home/matteo/Projects/Uni/blockchain-project/contracts/client.sol",
  "compiler": {
    "name": "solc",
    "version": "0.8.19+commit.7dd6d404.Emscripten.clang"
  },
  "schemaVersion": "3.4.13",
  "updatedAt": "2023-06-24T13:33:00.008Z",
  "devdoc": {
    "kind": "dev",
    "methods": {
      "constructor": {
        "details": "LINK address in Sepolia network: 0x779877A7B0D9E8603169DdbD7836e478b4624789Check https://docs.chain.link/docs/link-token-contracts/ for LINK address for the right network"
      }
    },
    "version": 1
  },
  "userdoc": {
    "kind": "user",
    "methods": {
      "acceptOwnership()": {
        "notice": "Allows an ownership transfer to be completed by the recipient."
      },
      "constructor": {
        "notice": "Sepolia"
      },
      "owner()": {
        "notice": "Get the current owner"
      },
      "transferOwnership(address)": {
        "notice": "Allows an owner to begin transferring ownership to a new address, pending."
      }
    },
    "notice": "THIS IS AN EXAMPLE CONTRACT THAT USES UN-AUDITED CODE. DO NOT USE THIS CODE IN PRODUCTION.",
    "version": 1
  }
}