{
  "contractName": "ATestnetConsumer",
  "abi": [
    {
      "inputs": [],
      "stateMutability": "nonpayable",
      "type": "constructor"
    },
    {
      "anonymous": false,
      "inputs": [
        {
          "indexed": true,
          "internalType": "bytes32",
          "name": "id",
          "type": "bytes32"
        }
      ],
      "name": "ChainlinkCancelled",
      "type": "event"
    },
    {
      "anonymous": false,
      "inputs": [
        {
          "indexed": true,
          "internalType": "bytes32",
          "name": "id",
          "type": "bytes32"
        }
      ],
      "name": "ChainlinkFulfilled",
      "type": "event"
    },
    {
      "anonymous": false,
      "inputs": [
        {
          "indexed": true,
          "internalType": "bytes32",
          "name": "id",
          "type": "bytes32"
        }
      ],
      "name": "ChainlinkRequested",
      "type": "event"
    },
    {
      "anonymous": false,
      "inputs": [
        {
          "indexed": true,
          "internalType": "address",
          "name": "from",
          "type": "address"
        },
        {
          "indexed": true,
          "internalType": "address",
          "name": "to",
          "type": "address"
        }
      ],
      "name": "OwnershipTransferRequested",
      "type": "event"
    },
    {
      "anonymous": false,
      "inputs": [
        {
          "indexed": true,
          "internalType": "address",
          "name": "from",
          "type": "address"
        },
        {
          "indexed": true,
          "internalType": "address",
          "name": "to",
          "type": "address"
        }
      ],
      "name": "OwnershipTransferred",
      "type": "event"
    },
    {
      "anonymous": false,
      "inputs": [
        {
          "indexed": true,
          "internalType": "bytes32",
          "name": "requestId",
          "type": "bytes32"
        },
        {
          "indexed": false,
          "internalType": "uint256",
          "name": "tokenId",
          "type": "uint256"
        },
        {
          "indexed": false,
          "internalType": "string",
          "name": "success",
          "type": "string"
        }
      ],
      "name": "RequestConfirmMintingFulfilled",
      "type": "event"
    },
    {
      "inputs": [
        {
          "internalType": "uint256",
          "name": "",
          "type": "uint256"
        }
      ],
      "name": "_tokenIdToMinted",
      "outputs": [
        {
          "internalType": "bool",
          "name": "",
          "type": "bool"
        }
      ],
      "stateMutability": "view",
      "type": "function"
    },
    {
      "inputs": [],
      "name": "acceptOwnership",
      "outputs": [],
      "stateMutability": "nonpayable",
      "type": "function"
    },
    {
      "inputs": [],
      "name": "base_url_part_1",
      "outputs": [
        {
          "internalType": "string",
          "name": "",
          "type": "string"
        }
      ],
      "stateMutability": "view",
      "type": "function"
    },
    {
      "inputs": [],
      "name": "base_url_part_2",
      "outputs": [
        {
          "internalType": "string",
          "name": "",
          "type": "string"
        }
      ],
      "stateMutability": "view",
      "type": "function"
    },
    {
      "inputs": [],
      "name": "owner",
      "outputs": [
        {
          "internalType": "address",
          "name": "",
          "type": "address"
        }
      ],
      "stateMutability": "view",
      "type": "function"
    },
    {
      "inputs": [
        {
          "internalType": "address",
          "name": "to",
          "type": "address"
        }
      ],
      "name": "transferOwnership",
      "outputs": [],
      "stateMutability": "nonpayable",
      "type": "function"
    },
    {
      "inputs": [
        {
          "internalType": "address",
          "name": "_oracle",
          "type": "address"
        },
        {
          "internalType": "string",
          "name": "_jobId",
          "type": "string"
        },
        {
          "internalType": "uint256",
          "name": "_tokenId",
          "type": "uint256"
        },
        {
          "internalType": "string",
          "name": "_host_machine_ip",
          "type": "string"
        }
      ],
      "name": "requestConfirmMinting",
      "outputs": [],
      "stateMutability": "nonpayable",
      "type": "function"
    },
    {
      "inputs": [
        {
          "internalType": "bytes32",
          "name": "_requestId",
          "type": "bytes32"
        },
        {
          "internalType": "uint256",
          "name": "_tokenId",
          "type": "uint256"
        },
        {
          "internalType": "string",
          "name": "_success",
          "type": "string"
        }
      ],
      "name": "fulfillConfirmMinting",
      "outputs": [],
      "stateMutability": "nonpayable",
      "type": "function"
    },
    {
      "inputs": [],
      "name": "getChainlinkToken",
      "outputs": [
        {
          "internalType": "address",
          "name": "",
          "type": "address"
        }
      ],
      "stateMutability": "view",
      "type": "function"
    },
    {
      "inputs": [],
      "name": "withdrawLink",
      "outputs": [],
      "stateMutability": "nonpayable",
      "type": "function"
    },
    {
      "inputs": [
        {
          "internalType": "bytes32",
          "name": "_requestId",
          "type": "bytes32"
        },
        {
          "internalType": "uint256",
          "name": "_payment",
          "type": "uint256"
        },
        {
          "internalType": "bytes4",
          "name": "_callbackFunctionId",
          "type": "bytes4"
        },
        {
          "internalType": "uint256",
          "name": "_expiration",
          "type": "uint256"
        }
      ],
      "name": "cancelRequest",
      "outputs": [],
      "stateMutability": "nonpayable",
      "type": "function"
    },
    {
      "inputs": [
        {
          "internalType": "bytes32",
          "name": "_bytes32",
          "type": "bytes32"
        }
      ],
      "name": "bytes32ToString",
      "outputs": [
        {
          "internalType": "string",
          "name": "",
          "type": "string"
        }
      ],
      "stateMutability": "pure",
      "type": "function"
    },
    {
      "inputs": [
        {
          "internalType": "uint256",
          "name": "tokenId",
          "type": "uint256"
        }
      ],
      "name": "checkTokenIdToHash",
      "outputs": [],
      "stateMutability": "view",
      "type": "function"
    }
  ],
  "bytecode": "0x608060405260016004556040518060400160405280600781526020017f687474703a2f2f00000000000000000000000000000000000000000000000000815250600890816200004f9190620005fc565b506040518060400160405280601281526020017f3a333030302f6170692f76312f6e6674732f000000000000000000000000000081525060099081620000969190620005fc565b50348015620000a457600080fd5b50338060008073ffffffffffffffffffffffffffffffffffffffff168273ffffffffffffffffffffffffffffffffffffffff16036200011a576040517f08c379a0000000000000000000000000000000000000000000000000000000008152600401620001119062000744565b60405180910390fd5b81600660006101000a81548173ffffffffffffffffffffffffffffffffffffffff021916908373ffffffffffffffffffffffffffffffffffffffff160217905550600073ffffffffffffffffffffffffffffffffffffffff168173ffffffffffffffffffffffffffffffffffffffff1614620001a257620001a1816200020d60201b60201c565b5b505050620001ca73779877a7b0d9e8603169ddbd7836e478b46247896200033e60201b60201c565b6040518060600160405280602e81526020016200351c602e9139600b6000600f81526020019081526020016000209081620002069190620005fc565b50620007d8565b3373ffffffffffffffffffffffffffffffffffffffff168173ffffffffffffffffffffffffffffffffffffffff16036200027e576040517f08c379a00000000000000000000000000000000000000000000000000000000081526004016200027590620007b6565b60405180910390fd5b80600760006101000a81548173ffffffffffffffffffffffffffffffffffffffff021916908373ffffffffffffffffffffffffffffffffffffffff1602179055508073ffffffffffffffffffffffffffffffffffffffff16600660009054906101000a900473ffffffffffffffffffffffffffffffffffffffff1673ffffffffffffffffffffffffffffffffffffffff167fed8889f560326eb138920d842192f0eb3dd22b4f139c87a2c57538e05bae127860405160405180910390a350565b80600260006101000a81548173ffffffffffffffffffffffffffffffffffffffff021916908373ffffffffffffffffffffffffffffffffffffffff16021790555050565b600081519050919050565b7f4e487b7100000000000000000000000000000000000000000000000000000000600052604160045260246000fd5b7f4e487b7100000000000000000000000000000000000000000000000000000000600052602260045260246000fd5b600060028204905060018216806200040457607f821691505b6020821081036200041a5762000419620003bc565b5b50919050565b60008190508160005260206000209050919050565b60006020601f8301049050919050565b600082821b905092915050565b600060088302620004847fffffffffffffffffffffffffffffffffffffffffffffffffffffffffffffffff8262000445565b62000490868362000445565b95508019841693508086168417925050509392505050565b6000819050919050565b6000819050919050565b6000620004dd620004d7620004d184620004a8565b620004b2565b620004a8565b9050919050565b6000819050919050565b620004f983620004bc565b620005116200050882620004e4565b84845462000452565b825550505050565b600090565b6200052862000519565b62000535818484620004ee565b505050565b5b818110156200055d57620005516000826200051e565b6001810190506200053b565b5050565b601f821115620005ac57620005768162000420565b620005818462000435565b8101602085101562000591578190505b620005a9620005a08562000435565b8301826200053a565b50505b505050565b600082821c905092915050565b6000620005d160001984600802620005b1565b1980831691505092915050565b6000620005ec8383620005be565b9150826002028217905092915050565b620006078262000382565b67ffffffffffffffff8111156200062357620006226200038d565b5b6200062f8254620003eb565b6200063c82828562000561565b600060209050601f8311600181146200067457600084156200065f578287015190505b6200066b8582620005de565b865550620006db565b601f198416620006848662000420565b60005b82811015620006ae5784890151825560018201915060208501945060208101905062000687565b86831015620006ce5784890151620006ca601f891682620005be565b8355505b6001600288020188555050505b505050505050565b600082825260208201905092915050565b7f43616e6e6f7420736574206f776e657220746f207a65726f0000000000000000600082015250565b60006200072c601883620006e3565b91506200073982620006f4565b602082019050919050565b600060208201905081810360008301526200075f816200071d565b9050919050565b7f43616e6e6f74207472616e7366657220746f2073656c66000000000000000000600082015250565b60006200079e601783620006e3565b9150620007ab8262000766565b602082019050919050565b60006020820190508181036000830152620007d1816200078f565b9050919050565b612d3480620007e86000396000f3fe608060405234801561001057600080fd5b50600436106100cf5760003560e01c80638dc654a21161008c578063d78e585711610066578063d78e5857146101dc578063ec65d0f8146101f8578063edd768ea14610214578063f2fde38b14610230576100cf565b80638dc654a2146101865780639201de5514610190578063c3170580146101c0576100cf565b8063165d35e1146100d457806319f6cf4b146100f25780631c6cf2b414610110578063584bb8621461012e57806379ba50971461015e5780638da5cb5b14610168575b600080fd5b6100dc61024c565b6040516100e99190611b01565b60405180910390f35b6100fa61025b565b6040516101079190611bac565b60405180910390f35b6101186102e9565b6040516101259190611bac565b60405180910390f35b61014860048036038101906101439190611c18565b610377565b6040516101559190611c60565b60405180910390f35b610166610397565b005b61017061052e565b60405161017d9190611b01565b60405180910390f35b61018e610558565b005b6101aa60048036038101906101a59190611cb1565b6106a5565b6040516101b79190611bac565b60405180910390f35b6101da60048036038101906101d59190611e13565b610840565b005b6101f660048036038101906101f19190611c18565b610a34565b005b610212600480360381019061020d9190611eda565b610b1c565b005b61022e60048036038101906102299190611f6d565b610b36565b005b61024a6004803603810190610245919061200c565b610cde565b005b6000610256610cf2565b905090565b6009805461026890612068565b80601f016020809104026020016040519081016040528092919081815260200182805461029490612068565b80156102e15780601f106102b6576101008083540402835291602001916102e1565b820191906000526020600020905b8154815290600101906020018083116102c457829003601f168201915b505050505081565b600880546102f690612068565b80601f016020809104026020016040519081016040528092919081815260200182805461032290612068565b801561036f5780601f106103445761010080835404028352916020019161036f565b820191906000526020600020905b81548152906001019060200180831161035257829003601f168201915b505050505081565b600a6020528060005260406000206000915054906101000a900460ff1681565b600760009054906101000a900473ffffffffffffffffffffffffffffffffffffffff1673ffffffffffffffffffffffffffffffffffffffff163373ffffffffffffffffffffffffffffffffffffffff1614610427576040517f08c379a000000000000000000000000000000000000000000000000000000000815260040161041e906120e5565b60405180910390fd5b6000600660009054906101000a900473ffffffffffffffffffffffffffffffffffffffff16905033600660006101000a81548173ffffffffffffffffffffffffffffffffffffffff021916908373ffffffffffffffffffffffffffffffffffffffff1602179055506000600760006101000a81548173ffffffffffffffffffffffffffffffffffffffff021916908373ffffffffffffffffffffffffffffffffffffffff1602179055503373ffffffffffffffffffffffffffffffffffffffff168173ffffffffffffffffffffffffffffffffffffffff167f8be0079c531659141344cd1fd0a4f28419497f9722a3daafe3b4186f6b6457e060405160405180910390a350565b6000600660009054906101000a900473ffffffffffffffffffffffffffffffffffffffff16905090565b610560610d1c565b600061056a610cf2565b90508073ffffffffffffffffffffffffffffffffffffffff1663a9059cbb338373ffffffffffffffffffffffffffffffffffffffff166370a08231306040518263ffffffff1660e01b81526004016105c29190611b01565b602060405180830381865afa1580156105df573d6000803e3d6000fd5b505050506040513d601f19601f82011682018060405250810190610603919061211a565b6040518363ffffffff1660e01b8152600401610620929190612156565b6020604051808303816000875af115801561063f573d6000803e3d6000fd5b505050506040513d601f19601f8201168201806040525081019061066391906121ab565b6106a2576040517f08c379a000000000000000000000000000000000000000000000000000000000815260040161069990612224565b60405180910390fd5b50565b606060005b60208160ff161080156106fc5750600060f81b838260ff16602081106106d3576106d2612244565b5b1a60f81b7effffffffffffffffffffffffffffffffffffffffffffffffffffffffffffff191614155b1561071457808061070c906122af565b9150506106aa565b60008160ff1667ffffffffffffffff81111561073357610732611ce8565b5b6040519080825280601f01601f1916602001820160405280156107655781602001600182028036833780820191505090505b509050600091505b60208260ff161080156107bf5750600060f81b848360ff166020811061079657610795612244565b5b1a60f81b7effffffffffffffffffffffffffffffffffffffffffffffffffffffffffffff191614155b1561083657838260ff16602081106107da576107d9612244565b5b1a60f81b818360ff16815181106107f4576107f3612244565b5b60200101907effffffffffffffffffffffffffffffffffffffffffffffffffffffffffffff1916908160001a905350818061082e906122af565b92505061076d565b8092505050919050565b826005600082815260200190815260200160002060009054906101000a900473ffffffffffffffffffffffffffffffffffffffff1673ffffffffffffffffffffffffffffffffffffffff163373ffffffffffffffffffffffffffffffffffffffff16146108e2576040517f08c379a00000000000000000000000000000000000000000000000000000000081526004016108d99061234a565b60405180910390fd5b6005600082815260200190815260200160002060006101000a81549073ffffffffffffffffffffffffffffffffffffffff0219169055807f7cc135e0cebb02c3480ae5d74d377283180a2601f8f644edf7987b009316c63a60405160405180910390a2837f7a73de75efee46115c6d09a814001f3d21ca4e6170d88c9d12e3b60e41509d3d848460405161097792919061236a565b60405180910390a260405160200161098e906123f1565b60405160208183030381529060405280519060200120826040516020016109b59190612437565b6040516020818303038152906040528051906020012003610a01576001600a600085815260200190815260200160002060006101000a81548160ff021916908315150217905550610a2e565b6000600a600085815260200190815260200160002060006101000a81548160ff0219169083151502179055505b50505050565b6000600b60008381526020019081526020016000208054610a5490612068565b80601f0160208091040260200160405190810160405280929190818152602001828054610a8090612068565b8015610acd5780601f10610aa257610100808354040283529160200191610acd565b820191906000526020600020905b815481529060010190602001808311610ab057829003601f168201915b505050505090506000815111610b18576040517f08c379a0000000000000000000000000000000000000000000000000000000008152600401610b0f906124c0565b60405180910390fd5b5050565b610b24610d1c565b610b3084848484610dae565b50505050565b610b3e610d1c565b610b4782610a34565b6000610b63610b5585610ec1565b3063c317058060e01b610eea565b9050610be86040518060400160405280600381526020017f75726c00000000000000000000000000000000000000000000000000000000008152506008846009600b6000898152602001908152602001600020604051602001610bc99493929190612578565b60405160208183030381529060405283610f1b9092919063ffffffff16565b610c596040518060400160405280600481526020017f626f647900000000000000000000000000000000000000000000000000000000815250610c2a85610f4e565b604051602001610c3a919061264e565b60405160208183030381529060405283610f1b9092919063ffffffff16565b610cab6040518060400160405280600781526020017f746f6b656e496400000000000000000000000000000000000000000000000000815250610c9b85610f4e565b83610f1b9092919063ffffffff16565b610cd68582600a670de0b6b3a76400006001610cc7919061267b565b610cd191906126ec565b61101c565b505050505050565b610ce6610d1c565b610cef816110e8565b50565b6000600260009054906101000a900473ffffffffffffffffffffffffffffffffffffffff16905090565b600660009054906101000a900473ffffffffffffffffffffffffffffffffffffffff1673ffffffffffffffffffffffffffffffffffffffff163373ffffffffffffffffffffffffffffffffffffffff1614610dac576040517f08c379a0000000000000000000000000000000000000000000000000000000008152600401610da390612769565b60405180910390fd5b565b60006005600086815260200190815260200160002060009054906101000a900473ffffffffffffffffffffffffffffffffffffffff1690506005600086815260200190815260200160002060006101000a81549073ffffffffffffffffffffffffffffffffffffffff0219169055847fe1fe3afa0f7f761ff0a8b89086790efd5140d2907ebd5b7ff6bfcb5e075fd4c560405160405180910390a28073ffffffffffffffffffffffffffffffffffffffff16636ee4d553868686866040518563ffffffff1660e01b8152600401610e8894939291906127a7565b600060405180830381600087803b158015610ea257600080fd5b505af1158015610eb6573d6000803e3d6000fd5b505050505050505050565b6000808290506000815103610edc576000801b915050610ee5565b60208301519150505b919050565b610ef2611a39565b610efa611a39565b610f1185858584611216909392919063ffffffff16565b9150509392505050565b610f328284608001516112c690919063ffffffff16565b610f498184608001516112c690919063ffffffff16565b505050565b606060006001610f5d846112eb565b01905060008167ffffffffffffffff811115610f7c57610f7b611ce8565b5b6040519080825280601f01601f191660200182016040528015610fae5781602001600182028036833780820191505090505b509050600082602001820190505b600115611011578080600190039150507f3031323334353637383961626364656600000000000000000000000000000000600a86061a8153600a8581611005576110046126bd565b5b04945060008503610fbc575b819350505050919050565b600080600454905060018161103191906127ec565b6004819055506000634042994660e01b60008087600001513089604001518760018c6080015160000151604051602401611072989796959493929190612875565b604051602081830303815290604052907bffffffffffffffffffffffffffffffffffffffffffffffffffffffff19166020820180517bffffffffffffffffffffffffffffffffffffffffffffffffffffffff838183161783525050505090506110dd8683868461143e565b925050509392505050565b3373ffffffffffffffffffffffffffffffffffffffff168173ffffffffffffffffffffffffffffffffffffffff1603611156576040517f08c379a000000000000000000000000000000000000000000000000000000000815260040161114d90612946565b60405180910390fd5b80600760006101000a81548173ffffffffffffffffffffffffffffffffffffffff021916908373ffffffffffffffffffffffffffffffffffffffff1602179055508073ffffffffffffffffffffffffffffffffffffffff16600660009054906101000a900473ffffffffffffffffffffffffffffffffffffffff1673ffffffffffffffffffffffffffffffffffffffff167fed8889f560326eb138920d842192f0eb3dd22b4f139c87a2c57538e05bae127860405160405180910390a350565b61121e611a39565b61122e85608001516101006115d3565b508385600001818152505082856020019073ffffffffffffffffffffffffffffffffffffffff16908173ffffffffffffffffffffffffffffffffffffffff16815250508185604001907bffffffffffffffffffffffffffffffffffffffffffffffffffffffff191690817bffffffffffffffffffffffffffffffffffffffffffffffffffffffff191681525050849050949350505050565b6112d3826003835161163d565b6112e681836117c290919063ffffffff16565b505050565b600080600090507a184f03e93ff9f4daa797ed6e38ed64bf6a1f0100000000000000008310611349577a184f03e93ff9f4daa797ed6e38ed64bf6a1f010000000000000000838161133f5761133e6126bd565b5b0492506040810190505b6d04ee2d6d415b85acef81000000008310611386576d04ee2d6d415b85acef8100000000838161137c5761137b6126bd565b5b0492506020810190505b662386f26fc1000083106113b557662386f26fc1000083816113ab576113aa6126bd565b5b0492506010810190505b6305f5e10083106113de576305f5e10083816113d4576113d36126bd565b5b0492506008810190505b61271083106114035761271083816113f9576113f86126bd565b5b0492506004810190505b60648310611426576064838161141c5761141b6126bd565b5b0492506002810190505b600a8310611435576001810190505b80915050919050565b60003084604051602001611453929190612a1f565b604051602081830303815290604052805190602001209050846005600083815260200190815260200160002060006101000a81548173ffffffffffffffffffffffffffffffffffffffff021916908373ffffffffffffffffffffffffffffffffffffffff160217905550807fb5e6e01e79f91267dc17b4e6314d5d4d03593d2ceee0fbb452b750bd70ea5af960405160405180910390a2600260009054906101000a900473ffffffffffffffffffffffffffffffffffffffff1673ffffffffffffffffffffffffffffffffffffffff16634000aea08685856040518463ffffffff1660e01b815260040161154993929190612a4b565b6020604051808303816000875af1158015611568573d6000803e3d6000fd5b505050506040513d601f19601f8201168201806040525081019061158c91906121ab565b6115cb576040517f08c379a00000000000000000000000000000000000000000000000000000000081526004016115c290612afb565b60405180910390fd5b949350505050565b6115db611aa6565b60006020836115ea9190612b1b565b14611616576020826115fc9190612b1b565b60206116089190612b4c565b8261161391906127ec565b91505b81836020018181525050604051808452600081528281016020016040525082905092915050565b60178167ffffffffffffffff16116116745761166e8160058460ff16901b60ff1617846117e490919063ffffffff16565b506117bd565b60ff8167ffffffffffffffff16116116ca576116a3601860058460ff16901b17846117e490919063ffffffff16565b506116c48167ffffffffffffffff166001856118049092919063ffffffff16565b506117bc565b61ffff8167ffffffffffffffff1611611721576116fa601960058460ff16901b17846117e490919063ffffffff16565b5061171b8167ffffffffffffffff166002856118049092919063ffffffff16565b506117bb565b63ffffffff8167ffffffffffffffff161161177a57611753601a60058460ff16901b17846117e490919063ffffffff16565b506117748167ffffffffffffffff166004856118049092919063ffffffff16565b506117ba565b611797601b60058460ff16901b17846117e490919063ffffffff16565b506117b88167ffffffffffffffff166008856118049092919063ffffffff16565b505b5b5b5b505050565b6117ca611aa6565b6117dc83846000015151848551611826565b905092915050565b6117ec611aa6565b6117fc8384600001515184611915565b905092915050565b61180c611aa6565b61181d84856000015151858561196b565b90509392505050565b61182e611aa6565b825182111561183c57600080fd5b8460200151828561184d91906127ec565b1115611882576118818560026118728860200151888761186d91906127ec565b6119f9565b61187c919061267b565b611a15565b5b6000808651805187602083010193508088870111156118a15787860182525b60208701925050505b602084106118e857805182526020826118c391906127ec565b91506020816118d291906127ec565b90506020846118e19190612b4c565b93506118aa565b60006001856020036101000a03905080198251168184511681811785525050508692505050949350505050565b61191d611aa6565b8360200151831061194357611942846002866020015161193d919061267b565b611a15565b5b8351805160208583010184815381860361195e576001820183525b5050508390509392505050565b611973611aa6565b8460200151848361198491906127ec565b11156119ac576119ab856002868561199c91906127ec565b6119a6919061267b565b611a15565b5b60006001836101006119be9190612cb3565b6119c89190612b4c565b905085518386820101858319825116178152815185880111156119eb5784870182525b505085915050949350505050565b600081831115611a0b57829050611a0f565b8190505b92915050565b600082600001519050611a2883836115d3565b50611a3383826117c2565b50505050565b6040518060a0016040528060008019168152602001600073ffffffffffffffffffffffffffffffffffffffff16815260200160007bffffffffffffffffffffffffffffffffffffffffffffffffffffffff1916815260200160008152602001611aa0611aa6565b81525090565b604051806040016040528060608152602001600081525090565b600073ffffffffffffffffffffffffffffffffffffffff82169050919050565b6000611aeb82611ac0565b9050919050565b611afb81611ae0565b82525050565b6000602082019050611b166000830184611af2565b92915050565b600081519050919050565b600082825260208201905092915050565b60005b83811015611b56578082015181840152602081019050611b3b565b60008484015250505050565b6000601f19601f8301169050919050565b6000611b7e82611b1c565b611b888185611b27565b9350611b98818560208601611b38565b611ba181611b62565b840191505092915050565b60006020820190508181036000830152611bc68184611b73565b905092915050565b6000604051905090565b600080fd5b600080fd5b6000819050919050565b611bf581611be2565b8114611c0057600080fd5b50565b600081359050611c1281611bec565b92915050565b600060208284031215611c2e57611c2d611bd8565b5b6000611c3c84828501611c03565b91505092915050565b60008115159050919050565b611c5a81611c45565b82525050565b6000602082019050611c756000830184611c51565b92915050565b6000819050919050565b611c8e81611c7b565b8114611c9957600080fd5b50565b600081359050611cab81611c85565b92915050565b600060208284031215611cc757611cc6611bd8565b5b6000611cd584828501611c9c565b91505092915050565b600080fd5b600080fd5b7f4e487b7100000000000000000000000000000000000000000000000000000000600052604160045260246000fd5b611d2082611b62565b810181811067ffffffffffffffff82111715611d3f57611d3e611ce8565b5b80604052505050565b6000611d52611bce565b9050611d5e8282611d17565b919050565b600067ffffffffffffffff821115611d7e57611d7d611ce8565b5b611d8782611b62565b9050602081019050919050565b82818337600083830152505050565b6000611db6611db184611d63565b611d48565b905082815260208101848484011115611dd257611dd1611ce3565b5b611ddd848285611d94565b509392505050565b600082601f830112611dfa57611df9611cde565b5b8135611e0a848260208601611da3565b91505092915050565b600080600060608486031215611e2c57611e2b611bd8565b5b6000611e3a86828701611c9c565b9350506020611e4b86828701611c03565b925050604084013567ffffffffffffffff811115611e6c57611e6b611bdd565b5b611e7886828701611de5565b9150509250925092565b60007fffffffff0000000000000000000000000000000000000000000000000000000082169050919050565b611eb781611e82565b8114611ec257600080fd5b50565b600081359050611ed481611eae565b92915050565b60008060008060808587031215611ef457611ef3611bd8565b5b6000611f0287828801611c9c565b9450506020611f1387828801611c03565b9350506040611f2487828801611ec5565b9250506060611f3587828801611c03565b91505092959194509250565b611f4a81611ae0565b8114611f5557600080fd5b50565b600081359050611f6781611f41565b92915050565b60008060008060808587031215611f8757611f86611bd8565b5b6000611f9587828801611f58565b945050602085013567ffffffffffffffff811115611fb657611fb5611bdd565b5b611fc287828801611de5565b9350506040611fd387828801611c03565b925050606085013567ffffffffffffffff811115611ff457611ff3611bdd565b5b61200087828801611de5565b91505092959194509250565b60006020828403121561202257612021611bd8565b5b600061203084828501611f58565b91505092915050565b7f4e487b7100000000000000000000000000000000000000000000000000000000600052602260045260246000fd5b6000600282049050600182168061208057607f821691505b60208210810361209357612092612039565b5b50919050565b7f4d7573742062652070726f706f736564206f776e657200000000000000000000600082015250565b60006120cf601683611b27565b91506120da82612099565b602082019050919050565b600060208201905081810360008301526120fe816120c2565b9050919050565b60008151905061211481611bec565b92915050565b6000602082840312156121305761212f611bd8565b5b600061213e84828501612105565b91505092915050565b61215081611be2565b82525050565b600060408201905061216b6000830185611af2565b6121786020830184612147565b9392505050565b61218881611c45565b811461219357600080fd5b50565b6000815190506121a58161217f565b92915050565b6000602082840312156121c1576121c0611bd8565b5b60006121cf84828501612196565b91505092915050565b7f556e61626c6520746f207472616e736665720000000000000000000000000000600082015250565b600061220e601283611b27565b9150612219826121d8565b602082019050919050565b6000602082019050818103600083015261223d81612201565b9050919050565b7f4e487b7100000000000000000000000000000000000000000000000000000000600052603260045260246000fd5b7f4e487b7100000000000000000000000000000000000000000000000000000000600052601160045260246000fd5b600060ff82169050919050565b60006122ba826122a2565b915060ff82036122cd576122cc612273565b5b600182019050919050565b7f536f75726365206d75737420626520746865206f7261636c65206f662074686560008201527f2072657175657374000000000000000000000000000000000000000000000000602082015250565b6000612334602883611b27565b915061233f826122d8565b604082019050919050565b6000602082019050818103600083015261236381612327565b9050919050565b600060408201905061237f6000830185612147565b81810360208301526123918184611b73565b90509392505050565b600081905092915050565b7f7375636365737300000000000000000000000000000000000000000000000000600082015250565b60006123db60078361239a565b91506123e6826123a5565b600782019050919050565b60006123fc826123ce565b9150819050919050565b600061241182611b1c565b61241b818561239a565b935061242b818560208601611b38565b80840191505092915050565b60006124438284612406565b915081905092915050565b7f4861736820666f722070726f766964656420746f6b656e496420697320656d7060008201527f7479000000000000000000000000000000000000000000000000000000000000602082015250565b60006124aa602283611b27565b91506124b58261244e565b604082019050919050565b600060208201905081810360008301526124d98161249d565b9050919050565b60008190508160005260206000209050919050565b6000815461250281612068565b61250c818661239a565b94506001821660008114612527576001811461253c5761256f565b60ff198316865281151582028601935061256f565b612545856124e0565b60005b8381101561256757815481890152600182019150602081019050612548565b838801955050505b50505092915050565b600061258482876124f5565b91506125908286612406565b915061259c82856124f5565b91506125a882846124f5565b915081905095945050505050565b7f7b22746f6b656e4964223a000000000000000000000000000000000000000000600082015250565b60006125ec600b8361239a565b91506125f7826125b6565b600b82019050919050565b7f7d00000000000000000000000000000000000000000000000000000000000000600082015250565b600061263860018361239a565b915061264382612602565b600182019050919050565b6000612659826125df565b91506126658284612406565b91506126708261262b565b915081905092915050565b600061268682611be2565b915061269183611be2565b925082820261269f81611be2565b915082820484148315176126b6576126b5612273565b5b5092915050565b7f4e487b7100000000000000000000000000000000000000000000000000000000600052601260045260246000fd5b60006126f782611be2565b915061270283611be2565b925082612712576127116126bd565b5b828204905092915050565b7f4f6e6c792063616c6c61626c65206279206f776e657200000000000000000000600082015250565b6000612753601683611b27565b915061275e8261271d565b602082019050919050565b6000602082019050818103600083015261278281612746565b9050919050565b61279281611c7b565b82525050565b6127a181611e82565b82525050565b60006080820190506127bc6000830187612789565b6127c96020830186612147565b6127d66040830185612798565b6127e36060830184612147565b95945050505050565b60006127f782611be2565b915061280283611be2565b925082820190508082111561281a57612819612273565b5b92915050565b600081519050919050565b600082825260208201905092915050565b600061284782612820565b612851818561282b565b9350612861818560208601611b38565b61286a81611b62565b840191505092915050565b60006101008201905061288b600083018b611af2565b612898602083018a612147565b6128a56040830189612789565b6128b26060830188611af2565b6128bf6080830187612798565b6128cc60a0830186612147565b6128d960c0830185612147565b81810360e08301526128eb818461283c565b90509998505050505050505050565b7f43616e6e6f74207472616e7366657220746f2073656c66000000000000000000600082015250565b6000612930601783611b27565b915061293b826128fa565b602082019050919050565b6000602082019050818103600083015261295f81612923565b9050919050565b6000819050919050565b600061298b61298661298184611ac0565b612966565b611ac0565b9050919050565b600061299d82612970565b9050919050565b60006129af82612992565b9050919050565b60008160601b9050919050565b60006129ce826129b6565b9050919050565b60006129e0826129c3565b9050919050565b6129f86129f3826129a4565b6129d5565b82525050565b6000819050919050565b612a19612a1482611be2565b6129fe565b82525050565b6000612a2b82856129e7565b601482019150612a3b8284612a08565b6020820191508190509392505050565b6000606082019050612a606000830186611af2565b612a6d6020830185612147565b8181036040830152612a7f818461283c565b9050949350505050565b7f756e61626c6520746f207472616e73666572416e6443616c6c20746f206f726160008201527f636c650000000000000000000000000000000000000000000000000000000000602082015250565b6000612ae5602383611b27565b9150612af082612a89565b604082019050919050565b60006020820190508181036000830152612b1481612ad8565b9050919050565b6000612b2682611be2565b9150612b3183611be2565b925082612b4157612b406126bd565b5b828206905092915050565b6000612b5782611be2565b9150612b6283611be2565b9250828203905081811115612b7a57612b79612273565b5b92915050565b60008160011c9050919050565b6000808291508390505b6001851115612bd757808604811115612bb357612bb2612273565b5b6001851615612bc25780820291505b8081029050612bd085612b80565b9450612b97565b94509492505050565b600082612bf05760019050612cac565b81612bfe5760009050612cac565b8160018114612c145760028114612c1e57612c4d565b6001915050612cac565b60ff841115612c3057612c2f612273565b5b8360020a915084821115612c4757612c46612273565b5b50612cac565b5060208310610133831016604e8410600b8410161715612c825782820a905083811115612c7d57612c7c612273565b5b612cac565b612c8f8484846001612b8d565b92509050818404811115612ca657612ca5612273565b5b81810290505b9392505050565b6000612cbe82611be2565b9150612cc983611be2565b9250612cf67fffffffffffffffffffffffffffffffffffffffffffffffffffffffffffffffff8484612be0565b90509291505056fea26469706673582212205ac4660d78077892da1aa4a0666d33ec38ac91a661a5122024c68d4ebc18d3ae64736f6c63430008130033516d6576797041427a6d334442337372636a6262324b435a74665155346e53645365367236776971714176526933",
  "immutableReferences": {},
  "source": "// SPDX-License-Identifier: MIT\npragma solidity ^0.8.7;\n\nimport \"@chainlink/contracts/src/v0.8/ChainlinkClient.sol\";\nimport \"@chainlink/contracts/src/v0.8/ConfirmedOwner.sol\";\nimport \"@openzeppelin/contracts/utils/Strings.sol\";\n\n\n\n/**\n * THIS IS AN EXAMPLE CONTRACT THAT USES UN-AUDITED CODE.\n * DO NOT USE THIS CODE IN PRODUCTION.\n */\n\ncontract ATestnetConsumer is ChainlinkClient, ConfirmedOwner {\n    using Chainlink for Chainlink.Request;\n\n    uint256 private constant ORACLE_PAYMENT = (1 * LINK_DIVISIBILITY) / 10; // 0.1 * 10**18\n   \n    string public base_url_part_1 = \"http://\";\n    string public base_url_part_2 = \":3000/api/v1/nfts/\";\n\n    mapping(uint256 => bool) public _tokenIdToMinted;\n\n    mapping(uint256 => string) private _tokenIdToHash;\n\n    event RequestConfirmMintingFulfilled(\n        bytes32 indexed requestId,\n        uint256 tokenId,\n        string success\n    );\n\n    /**\n     *  Sepolia\n     *@dev LINK address in Sepolia network: 0x779877A7B0D9E8603169DdbD7836e478b4624789\n     * @dev Check https://docs.chain.link/docs/link-token-contracts/ for LINK address for the right network\n     */\n    constructor() ConfirmedOwner(msg.sender) {\n        setChainlinkToken(0x779877A7B0D9E8603169DdbD7836e478b4624789);\n        _tokenIdToHash[15] = \"QmevypABzm3DB3srcjbb2KCZtfQU4nSdSe6r6wiqqAvRi3\";\n    }\n\n    //called inside the mint function of the NFT contract\n    //we need a modifier to check if the caller is the NFT contract (now it's only the owner of the contract)\n    function requestConfirmMinting(\n        address _oracle,\n        string memory _jobId,\n        uint256 _tokenId,\n        string memory _host_machine_ip\n    ) public onlyOwner {\n\n        checkTokenIdToHash(_tokenId);\n\n        Chainlink.Request memory req = buildChainlinkRequest(\n            stringToBytes32(_jobId),\n            address(this),\n            this.fulfillConfirmMinting.selector\n        );\n\n        req.add(\"url\", string(abi.encodePacked(base_url_part_1, _host_machine_ip, base_url_part_2, _tokenIdToHash[_tokenId])));\n        //req.add(\"method\", \"PUT\"); already in TOML of the node\n        //req.add(\"headers\", \"Content-Type: application/json\"); omit for now\n        req.add(\n            \"body\",\n            string(abi.encodePacked('{\"tokenId\":',Strings.toString(_tokenId),'}'))\n        );\n        req.add(\"tokenId\", Strings.toString(_tokenId));\n\n        sendChainlinkRequestTo(_oracle, req, ORACLE_PAYMENT);\n    }\n\n    function fulfillConfirmMinting(\n        bytes32 _requestId,\n        uint256 _tokenId,\n        string memory _success\n    ) public recordChainlinkFulfillment(_requestId) {\n\n        //this event must be checked by the NFT contract in order to have the minting confirmed\n        emit RequestConfirmMintingFulfilled(_requestId, _tokenId ,_success);\n\n        if(keccak256(abi.encodePacked(_success)) == keccak256(abi.encodePacked(\"success\"))){\n            _tokenIdToMinted[_tokenId] = true;\n\n        //(once we do the merge of projectNFT and this skeleton contract)\n        //here we could make the reuturn statement of the Mint function of the ProjectNFT contract\n        // like return newItemId;\n\n\n        }\n        else{\n            _tokenIdToMinted[_tokenId] = false;\n\n        //if something goes wrong, since we must return a uint256 in the Mint function of the ProjectNFT contract\n        //we could return 0, (tokenIds start from 1)\n\n        }\n        \n    }\n\n    function getChainlinkToken() public view returns (address) {\n        return chainlinkTokenAddress();\n    }\n\n    function withdrawLink() public onlyOwner {\n        LinkTokenInterface link = LinkTokenInterface(chainlinkTokenAddress());\n        require(\n            link.transfer(msg.sender, link.balanceOf(address(this))),\n            \"Unable to transfer\"\n        );\n    }\n\n    function cancelRequest(\n        bytes32 _requestId,\n        uint256 _payment,\n        bytes4 _callbackFunctionId,\n        uint256 _expiration\n    ) public onlyOwner {\n        cancelChainlinkRequest(\n            _requestId,\n            _payment,\n            _callbackFunctionId,\n            _expiration\n        );\n    }\n\n    function bytes32ToString(bytes32 _bytes32) public pure returns (string memory) {\n        uint8 i = 0;\n        while(i < 32 && _bytes32[i] != 0) {\n            i++;\n        }\n        bytes memory bytesArray = new bytes(i);\n        for (i = 0; i < 32 && _bytes32[i] != 0; i++) {\n            bytesArray[i] = _bytes32[i];\n        }\n        return string(bytesArray);\n    }\n\n    function stringToBytes32(\n        string memory source\n    ) private pure returns (bytes32 result) {\n        bytes memory tempEmptyStringTest = bytes(source);\n        if (tempEmptyStringTest.length == 0) {\n            return 0x0;\n        }\n\n        assembly {\n            // solhint-disable-line no-inline-assembly\n            result := mload(add(source, 32))\n        }\n    }\n\n    function checkTokenIdToHash(uint256 tokenId) public view {\n        bytes memory hashBytes = bytes(_tokenIdToHash[tokenId]);\n        require(hashBytes.length > 0, \"Hash for provided tokenId is empty\");\n    }\n}\n",
  "sourcePath": "/home/matteo/Projects/Uni/blockchain-project/contracts/client.sol",
  "compiler": {
    "name": "solc",
    "version": "0.8.19+commit.7dd6d404.Emscripten.clang"
  },
  "schemaVersion": "3.4.13",
  "updatedAt": "2023-06-25T12:53:10.910Z",
  "devdoc": {
    "kind": "dev",
    "methods": {
      "constructor": {
        "details": "LINK address in Sepolia network: 0x779877A7B0D9E8603169DdbD7836e478b4624789Check https://docs.chain.link/docs/link-token-contracts/ for LINK address for the right network"
      }
    },
    "version": 1
  },
  "userdoc": {
    "kind": "user",
    "methods": {
      "acceptOwnership()": {
        "notice": "Allows an ownership transfer to be completed by the recipient."
      },
      "constructor": {
        "notice": "Sepolia"
      },
      "owner()": {
        "notice": "Get the current owner"
      },
      "transferOwnership(address)": {
        "notice": "Allows an owner to begin transferring ownership to a new address, pending."
      }
    },
    "notice": "THIS IS AN EXAMPLE CONTRACT THAT USES UN-AUDITED CODE. DO NOT USE THIS CODE IN PRODUCTION.",
    "version": 1
  }
}