{
  "contractName": "Client2",
  "abi": [
    {
      "inputs": [],
      "stateMutability": "nonpayable",
      "type": "constructor"
    },
    {
      "anonymous": false,
      "inputs": [
        {
          "indexed": true,
          "internalType": "bytes32",
          "name": "id",
          "type": "bytes32"
        }
      ],
      "name": "ChainlinkCancelled",
      "type": "event"
    },
    {
      "anonymous": false,
      "inputs": [
        {
          "indexed": true,
          "internalType": "bytes32",
          "name": "id",
          "type": "bytes32"
        }
      ],
      "name": "ChainlinkFulfilled",
      "type": "event"
    },
    {
      "anonymous": false,
      "inputs": [
        {
          "indexed": true,
          "internalType": "bytes32",
          "name": "id",
          "type": "bytes32"
        }
      ],
      "name": "ChainlinkRequested",
      "type": "event"
    },
    {
      "anonymous": false,
      "inputs": [
        {
          "indexed": true,
          "internalType": "address",
          "name": "from",
          "type": "address"
        },
        {
          "indexed": true,
          "internalType": "address",
          "name": "to",
          "type": "address"
        }
      ],
      "name": "OwnershipTransferRequested",
      "type": "event"
    },
    {
      "anonymous": false,
      "inputs": [
        {
          "indexed": true,
          "internalType": "address",
          "name": "from",
          "type": "address"
        },
        {
          "indexed": true,
          "internalType": "address",
          "name": "to",
          "type": "address"
        }
      ],
      "name": "OwnershipTransferred",
      "type": "event"
    },
    {
      "anonymous": false,
      "inputs": [
        {
          "indexed": true,
          "internalType": "bytes32",
          "name": "requestId",
          "type": "bytes32"
        },
        {
          "indexed": false,
          "internalType": "uint256",
          "name": "tokenId",
          "type": "uint256"
        },
        {
          "indexed": false,
          "internalType": "string",
          "name": "success",
          "type": "string"
        }
      ],
      "name": "RequestUpdateFulfilled",
      "type": "event"
    },
    {
      "inputs": [],
      "name": "acceptOwnership",
      "outputs": [],
      "stateMutability": "nonpayable",
      "type": "function"
    },
    {
      "inputs": [],
      "name": "base_url_part_1",
      "outputs": [
        {
          "internalType": "string",
          "name": "",
          "type": "string"
        }
      ],
      "stateMutability": "view",
      "type": "function"
    },
    {
      "inputs": [],
      "name": "base_url_part_2",
      "outputs": [
        {
          "internalType": "string",
          "name": "",
          "type": "string"
        }
      ],
      "stateMutability": "view",
      "type": "function"
    },
    {
      "inputs": [],
      "name": "owner",
      "outputs": [
        {
          "internalType": "address",
          "name": "",
          "type": "address"
        }
      ],
      "stateMutability": "view",
      "type": "function"
    },
    {
      "inputs": [
        {
          "internalType": "address",
          "name": "to",
          "type": "address"
        }
      ],
      "name": "transferOwnership",
      "outputs": [],
      "stateMutability": "nonpayable",
      "type": "function"
    },
    {
      "inputs": [
        {
          "internalType": "address",
          "name": "_oracle",
          "type": "address"
        },
        {
          "internalType": "string",
          "name": "_jobId",
          "type": "string"
        },
        {
          "internalType": "uint256",
          "name": "_tokenId",
          "type": "uint256"
        },
        {
          "internalType": "string",
          "name": "_key",
          "type": "string"
        },
        {
          "internalType": "address",
          "name": "_assignee",
          "type": "address"
        },
        {
          "internalType": "string",
          "name": "_host_machine_ip",
          "type": "string"
        }
      ],
      "name": "requestUpdate",
      "outputs": [],
      "stateMutability": "nonpayable",
      "type": "function"
    },
    {
      "inputs": [
        {
          "internalType": "bytes32",
          "name": "_requestId",
          "type": "bytes32"
        },
        {
          "internalType": "uint256",
          "name": "_tokenId",
          "type": "uint256"
        },
        {
          "internalType": "string",
          "name": "_success",
          "type": "string"
        }
      ],
      "name": "fulfillRequestUpdate",
      "outputs": [],
      "stateMutability": "nonpayable",
      "type": "function"
    },
    {
      "inputs": [],
      "name": "getChainlinkToken",
      "outputs": [
        {
          "internalType": "address",
          "name": "",
          "type": "address"
        }
      ],
      "stateMutability": "view",
      "type": "function"
    },
    {
      "inputs": [],
      "name": "withdrawLink",
      "outputs": [],
      "stateMutability": "nonpayable",
      "type": "function"
    },
    {
      "inputs": [
        {
          "internalType": "bytes32",
          "name": "_requestId",
          "type": "bytes32"
        },
        {
          "internalType": "uint256",
          "name": "_payment",
          "type": "uint256"
        },
        {
          "internalType": "bytes4",
          "name": "_callbackFunctionId",
          "type": "bytes4"
        },
        {
          "internalType": "uint256",
          "name": "_expiration",
          "type": "uint256"
        }
      ],
      "name": "cancelRequest",
      "outputs": [],
      "stateMutability": "nonpayable",
      "type": "function"
    },
    {
      "inputs": [
        {
          "internalType": "bytes32",
          "name": "_bytes32",
          "type": "bytes32"
        }
      ],
      "name": "bytes32ToString",
      "outputs": [
        {
          "internalType": "string",
          "name": "",
          "type": "string"
        }
      ],
      "stateMutability": "pure",
      "type": "function"
    }
  ],
  "bytecode": "0x608060405260016004556040518060400160405280600781526020017f687474703a2f2f00000000000000000000000000000000000000000000000000815250600890816200004f9190620005fc565b506040518060400160405280601281526020017f3a333030302f6170692f76312f6e6674732f000000000000000000000000000081525060099081620000969190620005fc565b50348015620000a457600080fd5b50338060008073ffffffffffffffffffffffffffffffffffffffff168273ffffffffffffffffffffffffffffffffffffffff16036200011a576040517f08c379a0000000000000000000000000000000000000000000000000000000008152600401620001119062000744565b60405180910390fd5b81600660006101000a81548173ffffffffffffffffffffffffffffffffffffffff021916908373ffffffffffffffffffffffffffffffffffffffff160217905550600073ffffffffffffffffffffffffffffffffffffffff168173ffffffffffffffffffffffffffffffffffffffff1614620001a257620001a1816200020d60201b60201c565b5b505050620001ca73779877a7b0d9e8603169ddbd7836e478b46247896200033e60201b60201c565b6040518060600160405280602e815260200162003808602e9139600a6000600f81526020019081526020016000209081620002069190620005fc565b50620007d8565b3373ffffffffffffffffffffffffffffffffffffffff168173ffffffffffffffffffffffffffffffffffffffff16036200027e576040517f08c379a00000000000000000000000000000000000000000000000000000000081526004016200027590620007b6565b60405180910390fd5b80600760006101000a81548173ffffffffffffffffffffffffffffffffffffffff021916908373ffffffffffffffffffffffffffffffffffffffff1602179055508073ffffffffffffffffffffffffffffffffffffffff16600660009054906101000a900473ffffffffffffffffffffffffffffffffffffffff1673ffffffffffffffffffffffffffffffffffffffff167fed8889f560326eb138920d842192f0eb3dd22b4f139c87a2c57538e05bae127860405160405180910390a350565b80600260006101000a81548173ffffffffffffffffffffffffffffffffffffffff021916908373ffffffffffffffffffffffffffffffffffffffff16021790555050565b600081519050919050565b7f4e487b7100000000000000000000000000000000000000000000000000000000600052604160045260246000fd5b7f4e487b7100000000000000000000000000000000000000000000000000000000600052602260045260246000fd5b600060028204905060018216806200040457607f821691505b6020821081036200041a5762000419620003bc565b5b50919050565b60008190508160005260206000209050919050565b60006020601f8301049050919050565b600082821b905092915050565b600060088302620004847fffffffffffffffffffffffffffffffffffffffffffffffffffffffffffffffff8262000445565b62000490868362000445565b95508019841693508086168417925050509392505050565b6000819050919050565b6000819050919050565b6000620004dd620004d7620004d184620004a8565b620004b2565b620004a8565b9050919050565b6000819050919050565b620004f983620004bc565b620005116200050882620004e4565b84845462000452565b825550505050565b600090565b6200052862000519565b62000535818484620004ee565b505050565b5b818110156200055d57620005516000826200051e565b6001810190506200053b565b5050565b601f821115620005ac57620005768162000420565b620005818462000435565b8101602085101562000591578190505b620005a9620005a08562000435565b8301826200053a565b50505b505050565b600082821c905092915050565b6000620005d160001984600802620005b1565b1980831691505092915050565b6000620005ec8383620005be565b9150826002028217905092915050565b620006078262000382565b67ffffffffffffffff8111156200062357620006226200038d565b5b6200062f8254620003eb565b6200063c82828562000561565b600060209050601f8311600181146200067457600084156200065f578287015190505b6200066b8582620005de565b865550620006db565b601f198416620006848662000420565b60005b82811015620006ae5784890151825560018201915060208501945060208101905062000687565b86831015620006ce5784890151620006ca601f891682620005be565b8355505b6001600288020188555050505b505050505050565b600082825260208201905092915050565b7f43616e6e6f7420736574206f776e657220746f207a65726f0000000000000000600082015250565b60006200072c601883620006e3565b91506200073982620006f4565b602082019050919050565b600060208201905081810360008301526200075f816200071d565b9050919050565b7f43616e6e6f74207472616e7366657220746f2073656c66000000000000000000600082015250565b60006200079e601783620006e3565b9150620007ab8262000766565b602082019050919050565b60006020820190508181036000830152620007d1816200078f565b9050919050565b61302080620007e86000396000f3fe608060405234801561001057600080fd5b50600436106100a95760003560e01c80638da5cb5b116100715780638da5cb5b1461012e5780638dc654a21461014c5780639201de5514610156578063ec65d0f814610186578063f2fde38b146101a2578063f3ebb3f1146101be576100a9565b8063150318bc146100ae578063165d35e1146100ca57806319f6cf4b146100e85780631c6cf2b41461010657806379ba509714610124575b600080fd5b6100c860048036038101906100c39190611df0565b6101da565b005b6100d2610463565b6040516100df9190611ee0565b60405180910390f35b6100f0610472565b6040516100fd9190611f7a565b60405180910390f35b61010e610500565b60405161011b9190611f7a565b60405180910390f35b61012c61058e565b005b610136610725565b6040516101439190611ee0565b60405180910390f35b61015461074f565b005b610170600480360381019061016b9190611fd2565b61089c565b60405161017d9190611f7a565b60405180910390f35b6101a0600480360381019061019b9190612057565b610a37565b005b6101bc60048036038101906101b791906120be565b610a51565b005b6101d860048036038101906101d391906120eb565b610a65565b005b6101e2610bf8565b6040516020016101f1906121b1565b604051602081830303815290604052805190602001208360405160200161021891906121f7565b60405160208183030381529060405280519060200120148061028357506040516020016102449061225a565b604051602081830303815290604052805190602001208360405160200161026b91906121f7565b60405160208183030381529060405280519060200120145b6102c2576040517f08c379a00000000000000000000000000000000000000000000000000000000081526004016102b9906122e1565b60405180910390fd5b60006102de6102d087610c8a565b3063f3ebb3f160e01b610cb3565b90506103516040518060400160405280600381526020017f75726c0000000000000000000000000000000000000000000000000000000000815250600884600989604051602001610332949392919061241a565b60405160208183030381529060405283610ce49092919063ffffffff16565b6103dc6040518060400160405280600481526020017f626f647900000000000000000000000000000000000000000000000000000000815250856103ac8673ffffffffffffffffffffffffffffffffffffffff166014610d17565b6040516020016103bd929190612540565b60405160208183030381529060405283610ce49092919063ffffffff16565b61042e6040518060400160405280600781526020017f746f6b656e49640000000000000000000000000000000000000000000000000081525061041e87610f53565b83610ce49092919063ffffffff16565b6104598782600a670de0b6b3a7640000600161044a91906125b4565b6104549190612625565b611021565b5050505050505050565b600061046d6110ed565b905090565b6009805461047f90612330565b80601f01602080910402602001604051908101604052809291908181526020018280546104ab90612330565b80156104f85780601f106104cd576101008083540402835291602001916104f8565b820191906000526020600020905b8154815290600101906020018083116104db57829003601f168201915b505050505081565b6008805461050d90612330565b80601f016020809104026020016040519081016040528092919081815260200182805461053990612330565b80156105865780601f1061055b57610100808354040283529160200191610586565b820191906000526020600020905b81548152906001019060200180831161056957829003601f168201915b505050505081565b600760009054906101000a900473ffffffffffffffffffffffffffffffffffffffff1673ffffffffffffffffffffffffffffffffffffffff163373ffffffffffffffffffffffffffffffffffffffff161461061e576040517f08c379a0000000000000000000000000000000000000000000000000000000008152600401610615906126a2565b60405180910390fd5b6000600660009054906101000a900473ffffffffffffffffffffffffffffffffffffffff16905033600660006101000a81548173ffffffffffffffffffffffffffffffffffffffff021916908373ffffffffffffffffffffffffffffffffffffffff1602179055506000600760006101000a81548173ffffffffffffffffffffffffffffffffffffffff021916908373ffffffffffffffffffffffffffffffffffffffff1602179055503373ffffffffffffffffffffffffffffffffffffffff168173ffffffffffffffffffffffffffffffffffffffff167f8be0079c531659141344cd1fd0a4f28419497f9722a3daafe3b4186f6b6457e060405160405180910390a350565b6000600660009054906101000a900473ffffffffffffffffffffffffffffffffffffffff16905090565b610757610bf8565b60006107616110ed565b90508073ffffffffffffffffffffffffffffffffffffffff1663a9059cbb338373ffffffffffffffffffffffffffffffffffffffff166370a08231306040518263ffffffff1660e01b81526004016107b99190611ee0565b602060405180830381865afa1580156107d6573d6000803e3d6000fd5b505050506040513d601f19601f820116820180604052508101906107fa91906126d7565b6040518363ffffffff1660e01b8152600401610817929190612713565b6020604051808303816000875af1158015610836573d6000803e3d6000fd5b505050506040513d601f19601f8201168201806040525081019061085a9190612774565b610899576040517f08c379a0000000000000000000000000000000000000000000000000000000008152600401610890906127ed565b60405180910390fd5b50565b606060005b60208160ff161080156108f35750600060f81b838260ff16602081106108ca576108c961280d565b5b1a60f81b7effffffffffffffffffffffffffffffffffffffffffffffffffffffffffffff191614155b1561090b57808061090390612849565b9150506108a1565b60008160ff1667ffffffffffffffff81111561092a57610929611c8f565b5b6040519080825280601f01601f19166020018201604052801561095c5781602001600182028036833780820191505090505b509050600091505b60208260ff161080156109b65750600060f81b848360ff166020811061098d5761098c61280d565b5b1a60f81b7effffffffffffffffffffffffffffffffffffffffffffffffffffffffffffff191614155b15610a2d57838260ff16602081106109d1576109d061280d565b5b1a60f81b818360ff16815181106109eb576109ea61280d565b5b60200101907effffffffffffffffffffffffffffffffffffffffffffffffffffffffffffff1916908160001a9053508180610a2590612849565b925050610964565b8092505050919050565b610a3f610bf8565b610a4b84848484611117565b50505050565b610a59610bf8565b610a628161122a565b50565b826005600082815260200190815260200160002060009054906101000a900473ffffffffffffffffffffffffffffffffffffffff1673ffffffffffffffffffffffffffffffffffffffff163373ffffffffffffffffffffffffffffffffffffffff1614610b07576040517f08c379a0000000000000000000000000000000000000000000000000000000008152600401610afe906128e4565b60405180910390fd5b6005600082815260200190815260200160002060006101000a81549073ffffffffffffffffffffffffffffffffffffffff0219169055807f7cc135e0cebb02c3480ae5d74d377283180a2601f8f644edf7987b009316c63a60405160405180910390a2837f17254c46a3d11aa22a23897eefb6c8e2d58e04c0e9326924d2db0f07f1c2f3be8484604051610b9c929190612904565b60405180910390a2604051602001610bb390612980565b6040516020818303038152906040528051906020012082604051602001610bda91906121f7565b60405160208183030381529060405280519060200120505050505050565b600660009054906101000a900473ffffffffffffffffffffffffffffffffffffffff1673ffffffffffffffffffffffffffffffffffffffff163373ffffffffffffffffffffffffffffffffffffffff1614610c88576040517f08c379a0000000000000000000000000000000000000000000000000000000008152600401610c7f906129e1565b60405180910390fd5b565b6000808290506000815103610ca5576000801b915050610cae565b60208301519150505b919050565b610cbb611b7b565b610cc3611b7b565b610cda85858584611358909392919063ffffffff16565b9150509392505050565b610cfb82846080015161140890919063ffffffff16565b610d1281846080015161140890919063ffffffff16565b505050565b606060006002836002610d2a91906125b4565b610d349190612a01565b67ffffffffffffffff811115610d4d57610d4c611c8f565b5b6040519080825280601f01601f191660200182016040528015610d7f5781602001600182028036833780820191505090505b5090507f300000000000000000000000000000000000000000000000000000000000000081600081518110610db757610db661280d565b5b60200101907effffffffffffffffffffffffffffffffffffffffffffffffffffffffffffff1916908160001a9053507f780000000000000000000000000000000000000000000000000000000000000081600181518110610e1b57610e1a61280d565b5b60200101907effffffffffffffffffffffffffffffffffffffffffffffffffffffffffffff1916908160001a90535060006001846002610e5b91906125b4565b610e659190612a01565b90505b6001811115610f05577f3031323334353637383961626364656600000000000000000000000000000000600f861660108110610ea757610ea661280d565b5b1a60f81b828281518110610ebe57610ebd61280d565b5b60200101907effffffffffffffffffffffffffffffffffffffffffffffffffffffffffffff1916908160001a905350600485901c945080610efe90612a35565b9050610e68565b5060008414610f49576040517f08c379a0000000000000000000000000000000000000000000000000000000008152600401610f4090612aaa565b60405180910390fd5b8091505092915050565b606060006001610f628461142d565b01905060008167ffffffffffffffff811115610f8157610f80611c8f565b5b6040519080825280601f01601f191660200182016040528015610fb35781602001600182028036833780820191505090505b509050600082602001820190505b600115611016578080600190039150507f3031323334353637383961626364656600000000000000000000000000000000600a86061a8153600a858161100a576110096125f6565b5b04945060008503610fc1575b819350505050919050565b60008060045490506001816110369190612a01565b6004819055506000634042994660e01b60008087600001513089604001518760018c6080015160000151604051602401611077989796959493929190612b3d565b604051602081830303815290604052907bffffffffffffffffffffffffffffffffffffffffffffffffffffffff19166020820180517bffffffffffffffffffffffffffffffffffffffffffffffffffffffff838183161783525050505090506110e286838684611580565b925050509392505050565b6000600260009054906101000a900473ffffffffffffffffffffffffffffffffffffffff16905090565b60006005600086815260200190815260200160002060009054906101000a900473ffffffffffffffffffffffffffffffffffffffff1690506005600086815260200190815260200160002060006101000a81549073ffffffffffffffffffffffffffffffffffffffff0219169055847fe1fe3afa0f7f761ff0a8b89086790efd5140d2907ebd5b7ff6bfcb5e075fd4c560405160405180910390a28073ffffffffffffffffffffffffffffffffffffffff16636ee4d553868686866040518563ffffffff1660e01b81526004016111f19493929190612bc2565b600060405180830381600087803b15801561120b57600080fd5b505af115801561121f573d6000803e3d6000fd5b505050505050505050565b3373ffffffffffffffffffffffffffffffffffffffff168173ffffffffffffffffffffffffffffffffffffffff1603611298576040517f08c379a000000000000000000000000000000000000000000000000000000000815260040161128f90612c53565b60405180910390fd5b80600760006101000a81548173ffffffffffffffffffffffffffffffffffffffff021916908373ffffffffffffffffffffffffffffffffffffffff1602179055508073ffffffffffffffffffffffffffffffffffffffff16600660009054906101000a900473ffffffffffffffffffffffffffffffffffffffff1673ffffffffffffffffffffffffffffffffffffffff167fed8889f560326eb138920d842192f0eb3dd22b4f139c87a2c57538e05bae127860405160405180910390a350565b611360611b7b565b6113708560800151610100611715565b508385600001818152505082856020019073ffffffffffffffffffffffffffffffffffffffff16908173ffffffffffffffffffffffffffffffffffffffff16815250508185604001907bffffffffffffffffffffffffffffffffffffffffffffffffffffffff191690817bffffffffffffffffffffffffffffffffffffffffffffffffffffffff191681525050849050949350505050565b611415826003835161177f565b611428818361190490919063ffffffff16565b505050565b600080600090507a184f03e93ff9f4daa797ed6e38ed64bf6a1f010000000000000000831061148b577a184f03e93ff9f4daa797ed6e38ed64bf6a1f0100000000000000008381611481576114806125f6565b5b0492506040810190505b6d04ee2d6d415b85acef810000000083106114c8576d04ee2d6d415b85acef810000000083816114be576114bd6125f6565b5b0492506020810190505b662386f26fc1000083106114f757662386f26fc1000083816114ed576114ec6125f6565b5b0492506010810190505b6305f5e1008310611520576305f5e1008381611516576115156125f6565b5b0492506008810190505b612710831061154557612710838161153b5761153a6125f6565b5b0492506004810190505b60648310611568576064838161155e5761155d6125f6565b5b0492506002810190505b600a8310611577576001810190505b80915050919050565b60003084604051602001611595929190612d0b565b604051602081830303815290604052805190602001209050846005600083815260200190815260200160002060006101000a81548173ffffffffffffffffffffffffffffffffffffffff021916908373ffffffffffffffffffffffffffffffffffffffff160217905550807fb5e6e01e79f91267dc17b4e6314d5d4d03593d2ceee0fbb452b750bd70ea5af960405160405180910390a2600260009054906101000a900473ffffffffffffffffffffffffffffffffffffffff1673ffffffffffffffffffffffffffffffffffffffff16634000aea08685856040518463ffffffff1660e01b815260040161168b93929190612d37565b6020604051808303816000875af11580156116aa573d6000803e3d6000fd5b505050506040513d601f19601f820116820180604052508101906116ce9190612774565b61170d576040517f08c379a000000000000000000000000000000000000000000000000000000000815260040161170490612de7565b60405180910390fd5b949350505050565b61171d611be8565b600060208361172c9190612e07565b146117585760208261173e9190612e07565b602061174a9190612e38565b826117559190612a01565b91505b81836020018181525050604051808452600081528281016020016040525082905092915050565b60178167ffffffffffffffff16116117b6576117b08160058460ff16901b60ff16178461192690919063ffffffff16565b506118ff565b60ff8167ffffffffffffffff161161180c576117e5601860058460ff16901b178461192690919063ffffffff16565b506118068167ffffffffffffffff166001856119469092919063ffffffff16565b506118fe565b61ffff8167ffffffffffffffff16116118635761183c601960058460ff16901b178461192690919063ffffffff16565b5061185d8167ffffffffffffffff166002856119469092919063ffffffff16565b506118fd565b63ffffffff8167ffffffffffffffff16116118bc57611895601a60058460ff16901b178461192690919063ffffffff16565b506118b68167ffffffffffffffff166004856119469092919063ffffffff16565b506118fc565b6118d9601b60058460ff16901b178461192690919063ffffffff16565b506118fa8167ffffffffffffffff166008856119469092919063ffffffff16565b505b5b5b5b505050565b61190c611be8565b61191e83846000015151848551611968565b905092915050565b61192e611be8565b61193e8384600001515184611a57565b905092915050565b61194e611be8565b61195f848560000151518585611aad565b90509392505050565b611970611be8565b825182111561197e57600080fd5b8460200151828561198f9190612a01565b11156119c4576119c38560026119b4886020015188876119af9190612a01565b611b3b565b6119be91906125b4565b611b57565b5b6000808651805187602083010193508088870111156119e35787860182525b60208701925050505b60208410611a2a5780518252602082611a059190612a01565b9150602081611a149190612a01565b9050602084611a239190612e38565b93506119ec565b60006001856020036101000a03905080198251168184511681811785525050508692505050949350505050565b611a5f611be8565b83602001518310611a8557611a848460028660200151611a7f91906125b4565b611b57565b5b83518051602085830101848153818603611aa0576001820183525b5050508390509392505050565b611ab5611be8565b84602001518483611ac69190612a01565b1115611aee57611aed8560028685611ade9190612a01565b611ae891906125b4565b611b57565b5b6000600183610100611b009190612f9f565b611b0a9190612e38565b90508551838682010185831982511617815281518588011115611b2d5784870182525b505085915050949350505050565b600081831115611b4d57829050611b51565b8190505b92915050565b600082600001519050611b6a8383611715565b50611b758382611904565b50505050565b6040518060a0016040528060008019168152602001600073ffffffffffffffffffffffffffffffffffffffff16815260200160007bffffffffffffffffffffffffffffffffffffffffffffffffffffffff1916815260200160008152602001611be2611be8565b81525090565b604051806040016040528060608152602001600081525090565b6000604051905090565b600080fd5b600080fd5b600073ffffffffffffffffffffffffffffffffffffffff82169050919050565b6000611c4182611c16565b9050919050565b611c5181611c36565b8114611c5c57600080fd5b50565b600081359050611c6e81611c48565b92915050565b600080fd5b600080fd5b6000601f19601f8301169050919050565b7f4e487b7100000000000000000000000000000000000000000000000000000000600052604160045260246000fd5b611cc782611c7e565b810181811067ffffffffffffffff82111715611ce657611ce5611c8f565b5b80604052505050565b6000611cf9611c02565b9050611d058282611cbe565b919050565b600067ffffffffffffffff821115611d2557611d24611c8f565b5b611d2e82611c7e565b9050602081019050919050565b82818337600083830152505050565b6000611d5d611d5884611d0a565b611cef565b905082815260208101848484011115611d7957611d78611c79565b5b611d84848285611d3b565b509392505050565b600082601f830112611da157611da0611c74565b5b8135611db1848260208601611d4a565b91505092915050565b6000819050919050565b611dcd81611dba565b8114611dd857600080fd5b50565b600081359050611dea81611dc4565b92915050565b60008060008060008060c08789031215611e0d57611e0c611c0c565b5b6000611e1b89828a01611c5f565b965050602087013567ffffffffffffffff811115611e3c57611e3b611c11565b5b611e4889828a01611d8c565b9550506040611e5989828a01611ddb565b945050606087013567ffffffffffffffff811115611e7a57611e79611c11565b5b611e8689828a01611d8c565b9350506080611e9789828a01611c5f565b92505060a087013567ffffffffffffffff811115611eb857611eb7611c11565b5b611ec489828a01611d8c565b9150509295509295509295565b611eda81611c36565b82525050565b6000602082019050611ef56000830184611ed1565b92915050565b600081519050919050565b600082825260208201905092915050565b60005b83811015611f35578082015181840152602081019050611f1a565b60008484015250505050565b6000611f4c82611efb565b611f568185611f06565b9350611f66818560208601611f17565b611f6f81611c7e565b840191505092915050565b60006020820190508181036000830152611f948184611f41565b905092915050565b6000819050919050565b611faf81611f9c565b8114611fba57600080fd5b50565b600081359050611fcc81611fa6565b92915050565b600060208284031215611fe857611fe7611c0c565b5b6000611ff684828501611fbd565b91505092915050565b60007fffffffff0000000000000000000000000000000000000000000000000000000082169050919050565b61203481611fff565b811461203f57600080fd5b50565b6000813590506120518161202b565b92915050565b6000806000806080858703121561207157612070611c0c565b5b600061207f87828801611fbd565b945050602061209087828801611ddb565b93505060406120a187828801612042565b92505060606120b287828801611ddb565b91505092959194509250565b6000602082840312156120d4576120d3611c0c565b5b60006120e284828501611c5f565b91505092915050565b60008060006060848603121561210457612103611c0c565b5b600061211286828701611fbd565b935050602061212386828701611ddb565b925050604084013567ffffffffffffffff81111561214457612143611c11565b5b61215086828701611d8c565b9150509250925092565b600081905092915050565b7f6275796572000000000000000000000000000000000000000000000000000000600082015250565b600061219b60058361215a565b91506121a682612165565b600582019050919050565b60006121bc8261218e565b9150819050919050565b60006121d182611efb565b6121db818561215a565b93506121eb818560208601611f17565b80840191505092915050565b600061220382846121c6565b915081905092915050565b7f6d616e7566616374757265720000000000000000000000000000000000000000600082015250565b6000612244600c8361215a565b915061224f8261220e565b600c82019050919050565b600061226582612237565b9150819050919050565b7f6b6579206d757374206265206275796572206f72206d616e756661637475726560008201527f7200000000000000000000000000000000000000000000000000000000000000602082015250565b60006122cb602183611f06565b91506122d68261226f565b604082019050919050565b600060208201905081810360008301526122fa816122be565b9050919050565b7f4e487b7100000000000000000000000000000000000000000000000000000000600052602260045260246000fd5b6000600282049050600182168061234857607f821691505b60208210810361235b5761235a612301565b5b50919050565b60008190508160005260206000209050919050565b6000815461238381612330565b61238d818661215a565b945060018216600081146123a857600181146123bd576123f0565b60ff19831686528115158202860193506123f0565b6123c685612361565b60005b838110156123e8578154818901526001820191506020810190506123c9565b838801955050505b50505092915050565b6000819050919050565b61241461240f82611dba565b6123f9565b82525050565b60006124268287612376565b915061243282866121c6565b915061243e8285612376565b915061244a8284612403565b60208201915081905095945050505050565b7f7b22000000000000000000000000000000000000000000000000000000000000600082015250565b600061249260028361215a565b915061249d8261245c565b600282019050919050565b7f3a00000000000000000000000000000000000000000000000000000000000000600082015250565b60006124de60018361215a565b91506124e9826124a8565b600182019050919050565b7f7d00000000000000000000000000000000000000000000000000000000000000600082015250565b600061252a60018361215a565b9150612535826124f4565b600182019050919050565b600061254b82612485565b915061255782856121c6565b9150612562826124d1565b915061256e82846121c6565b91506125798261251d565b91508190509392505050565b7f4e487b7100000000000000000000000000000000000000000000000000000000600052601160045260246000fd5b60006125bf82611dba565b91506125ca83611dba565b92508282026125d881611dba565b915082820484148315176125ef576125ee612585565b5b5092915050565b7f4e487b7100000000000000000000000000000000000000000000000000000000600052601260045260246000fd5b600061263082611dba565b915061263b83611dba565b92508261264b5761264a6125f6565b5b828204905092915050565b7f4d7573742062652070726f706f736564206f776e657200000000000000000000600082015250565b600061268c601683611f06565b915061269782612656565b602082019050919050565b600060208201905081810360008301526126bb8161267f565b9050919050565b6000815190506126d181611dc4565b92915050565b6000602082840312156126ed576126ec611c0c565b5b60006126fb848285016126c2565b91505092915050565b61270d81611dba565b82525050565b60006040820190506127286000830185611ed1565b6127356020830184612704565b9392505050565b60008115159050919050565b6127518161273c565b811461275c57600080fd5b50565b60008151905061276e81612748565b92915050565b60006020828403121561278a57612789611c0c565b5b60006127988482850161275f565b91505092915050565b7f556e61626c6520746f207472616e736665720000000000000000000000000000600082015250565b60006127d7601283611f06565b91506127e2826127a1565b602082019050919050565b60006020820190508181036000830152612806816127ca565b9050919050565b7f4e487b7100000000000000000000000000000000000000000000000000000000600052603260045260246000fd5b600060ff82169050919050565b60006128548261283c565b915060ff820361286757612866612585565b5b600182019050919050565b7f536f75726365206d75737420626520746865206f7261636c65206f662074686560008201527f2072657175657374000000000000000000000000000000000000000000000000602082015250565b60006128ce602883611f06565b91506128d982612872565b604082019050919050565b600060208201905081810360008301526128fd816128c1565b9050919050565b60006040820190506129196000830185612704565b818103602083015261292b8184611f41565b90509392505050565b7f7375636365737300000000000000000000000000000000000000000000000000600082015250565b600061296a60078361215a565b915061297582612934565b600782019050919050565b600061298b8261295d565b9150819050919050565b7f4f6e6c792063616c6c61626c65206279206f776e657200000000000000000000600082015250565b60006129cb601683611f06565b91506129d682612995565b602082019050919050565b600060208201905081810360008301526129fa816129be565b9050919050565b6000612a0c82611dba565b9150612a1783611dba565b9250828201905080821115612a2f57612a2e612585565b5b92915050565b6000612a4082611dba565b915060008203612a5357612a52612585565b5b600182039050919050565b7f537472696e67733a20686578206c656e67746820696e73756666696369656e74600082015250565b6000612a94602083611f06565b9150612a9f82612a5e565b602082019050919050565b60006020820190508181036000830152612ac381612a87565b9050919050565b612ad381611f9c565b82525050565b612ae281611fff565b82525050565b600081519050919050565b600082825260208201905092915050565b6000612b0f82612ae8565b612b198185612af3565b9350612b29818560208601611f17565b612b3281611c7e565b840191505092915050565b600061010082019050612b53600083018b611ed1565b612b60602083018a612704565b612b6d6040830189612aca565b612b7a6060830188611ed1565b612b876080830187612ad9565b612b9460a0830186612704565b612ba160c0830185612704565b81810360e0830152612bb38184612b04565b90509998505050505050505050565b6000608082019050612bd76000830187612aca565b612be46020830186612704565b612bf16040830185612ad9565b612bfe6060830184612704565b95945050505050565b7f43616e6e6f74207472616e7366657220746f2073656c66000000000000000000600082015250565b6000612c3d601783611f06565b9150612c4882612c07565b602082019050919050565b60006020820190508181036000830152612c6c81612c30565b9050919050565b6000819050919050565b6000612c98612c93612c8e84611c16565b612c73565b611c16565b9050919050565b6000612caa82612c7d565b9050919050565b6000612cbc82612c9f565b9050919050565b60008160601b9050919050565b6000612cdb82612cc3565b9050919050565b6000612ced82612cd0565b9050919050565b612d05612d0082612cb1565b612ce2565b82525050565b6000612d178285612cf4565b601482019150612d278284612403565b6020820191508190509392505050565b6000606082019050612d4c6000830186611ed1565b612d596020830185612704565b8181036040830152612d6b8184612b04565b9050949350505050565b7f756e61626c6520746f207472616e73666572416e6443616c6c20746f206f726160008201527f636c650000000000000000000000000000000000000000000000000000000000602082015250565b6000612dd1602383611f06565b9150612ddc82612d75565b604082019050919050565b60006020820190508181036000830152612e0081612dc4565b9050919050565b6000612e1282611dba565b9150612e1d83611dba565b925082612e2d57612e2c6125f6565b5b828206905092915050565b6000612e4382611dba565b9150612e4e83611dba565b9250828203905081811115612e6657612e65612585565b5b92915050565b60008160011c9050919050565b6000808291508390505b6001851115612ec357808604811115612e9f57612e9e612585565b5b6001851615612eae5780820291505b8081029050612ebc85612e6c565b9450612e83565b94509492505050565b600082612edc5760019050612f98565b81612eea5760009050612f98565b8160018114612f005760028114612f0a57612f39565b6001915050612f98565b60ff841115612f1c57612f1b612585565b5b8360020a915084821115612f3357612f32612585565b5b50612f98565b5060208310610133831016604e8410600b8410161715612f6e5782820a905083811115612f6957612f68612585565b5b612f98565b612f7b8484846001612e79565b92509050818404811115612f9257612f91612585565b5b81810290505b9392505050565b6000612faa82611dba565b9150612fb583611dba565b9250612fe27fffffffffffffffffffffffffffffffffffffffffffffffffffffffffffffffff8484612ecc565b90509291505056fea2646970667358221220ce5b77886a25cafead114b618f931c7a1251148343adba9b5236a3d168fc7a7d64736f6c63430008130033516d6576797041427a6d334442337372636a6262324b435a74665155346e53645365367236776971714176526933",
  "immutableReferences": {},
  "source": "// SPDX-License-Identifier: MIT\npragma solidity ^0.8.7;\n\nimport \"@chainlink/contracts/src/v0.8/ChainlinkClient.sol\";\nimport \"@chainlink/contracts/src/v0.8/ConfirmedOwner.sol\";\nimport \"@openzeppelin/contracts/utils/Strings.sol\";\n\n\n\n/**\n * THIS IS AN EXAMPLE CONTRACT THAT USES UN-AUDITED CODE.\n * DO NOT USE THIS CODE IN PRODUCTION.\n */\n\ncontract Client2 is ChainlinkClient, ConfirmedOwner {\n    using Chainlink for Chainlink.Request;\n\n    uint256 private constant ORACLE_PAYMENT = (1 * LINK_DIVISIBILITY) / 10; // 0.1 * 10**18\n   \n    string public base_url_part_1 = \"http://\";\n    string public base_url_part_2 = \":3000/api/v1/nfts/\";\n\n    mapping(uint256 => string) private _tokenIdToHash;\n\n    event RequestUpdateFulfilled(\n        bytes32 indexed requestId,\n        uint256 tokenId,\n        string success\n    );\n\n    /**\n     *  Sepolia\n     *@dev LINK address in Sepolia network: 0x779877A7B0D9E8603169DdbD7836e478b4624789\n     * @dev Check https://docs.chain.link/docs/link-token-contracts/ for LINK address for the right network\n     */\n    constructor() ConfirmedOwner(msg.sender) {\n        setChainlinkToken(0x779877A7B0D9E8603169DdbD7836e478b4624789);\n        _tokenIdToHash[15] = \"QmevypABzm3DB3srcjbb2KCZtfQU4nSdSe6r6wiqqAvRi3\";\n    }\n\n    function requestUpdate(\n        address _oracle,\n        string memory _jobId,\n        uint256 _tokenId,\n        string memory _key,\n        address _assignee,\n        string memory _host_machine_ip\n    ) public onlyOwner {\n\n        //_key must be \"buyer\" or \"manufacturer\"\n        require(\n            keccak256(abi.encodePacked(_key)) == keccak256(abi.encodePacked(\"buyer\")) ||\n            keccak256(abi.encodePacked(_key)) == keccak256(abi.encodePacked(\"manufacturer\")),\n            \"key must be buyer or manufacturer\"\n        );\n\n        //require(_tokenId < tokenCounter, 'TokenId does not exist');\n\n        Chainlink.Request memory req = buildChainlinkRequest(\n            stringToBytes32(_jobId),\n            address(this),\n            this.fulfillRequestUpdate.selector\n        );\n\n        req.add(\"url\", string(abi.encodePacked(base_url_part_1, _host_machine_ip, base_url_part_2, _tokenId)));\n        //req.add(\"method\", \"PUT\"); already in TOML of the node\n        //req.add(\"headers\", \"Content-Type: application/json\"); omit for now\n        \n        req.add(\n            \"body\",\n            string(abi.encodePacked('{\"', _key, ':', Strings.toHexString(uint256(uint160(_assignee)), 20),'}'))\n            //string(abi.encodePacked('{\"', _key, ':', _assignee,'}')) //to be tested\n        );\n        req.add(\"tokenId\", Strings.toString(_tokenId));\n\n        sendChainlinkRequestTo(_oracle, req, ORACLE_PAYMENT);\n    }\n\n    function fulfillRequestUpdate(\n        bytes32 _requestId,\n        uint256 _tokenId,\n        string memory _success\n    ) public recordChainlinkFulfillment(_requestId) {\n\n        emit RequestUpdateFulfilled(_requestId, _tokenId ,_success);\n\n        if(keccak256(abi.encodePacked(_success)) == keccak256(abi.encodePacked(\"success\"))){\n            //TODO\n        }\n        else{\n            //TODO\n        }   \n    }\n\n    function getChainlinkToken() public view returns (address) {\n        return chainlinkTokenAddress();\n    }\n\n    function withdrawLink() public onlyOwner {\n        LinkTokenInterface link = LinkTokenInterface(chainlinkTokenAddress());\n        require(\n            link.transfer(msg.sender, link.balanceOf(address(this))),\n            \"Unable to transfer\"\n        );\n    }\n\n    function cancelRequest(\n        bytes32 _requestId,\n        uint256 _payment,\n        bytes4 _callbackFunctionId,\n        uint256 _expiration\n    ) public onlyOwner {\n        cancelChainlinkRequest(\n            _requestId,\n            _payment,\n            _callbackFunctionId,\n            _expiration\n        );\n    }\n\n    function bytes32ToString(bytes32 _bytes32) public pure returns (string memory) {\n        uint8 i = 0;\n        while(i < 32 && _bytes32[i] != 0) {\n            i++;\n        }\n        bytes memory bytesArray = new bytes(i);\n        for (i = 0; i < 32 && _bytes32[i] != 0; i++) {\n            bytesArray[i] = _bytes32[i];\n        }\n        return string(bytesArray);\n    }\n\n    function stringToBytes32(\n        string memory source\n    ) private pure returns (bytes32 result) {\n        bytes memory tempEmptyStringTest = bytes(source);\n        if (tempEmptyStringTest.length == 0) {\n            return 0x0;\n        }\n\n        assembly {\n            // solhint-disable-line no-inline-assembly\n            result := mload(add(source, 32))\n        }\n    }\n}\n\n\n\n\n\n\n\n\n",
  "sourcePath": "/home/matteo/Projects/Uni/blockchain-project/contracts/client2.sol",
  "compiler": {
    "name": "solc",
    "version": "0.8.19+commit.7dd6d404.Emscripten.clang"
  },
  "schemaVersion": "3.4.13",
  "updatedAt": "2023-06-25T12:53:10.916Z",
  "devdoc": {
    "kind": "dev",
    "methods": {
      "constructor": {
        "details": "LINK address in Sepolia network: 0x779877A7B0D9E8603169DdbD7836e478b4624789Check https://docs.chain.link/docs/link-token-contracts/ for LINK address for the right network"
      }
    },
    "version": 1
  },
  "userdoc": {
    "kind": "user",
    "methods": {
      "acceptOwnership()": {
        "notice": "Allows an ownership transfer to be completed by the recipient."
      },
      "constructor": {
        "notice": "Sepolia"
      },
      "owner()": {
        "notice": "Get the current owner"
      },
      "transferOwnership(address)": {
        "notice": "Allows an owner to begin transferring ownership to a new address, pending."
      }
    },
    "notice": "THIS IS AN EXAMPLE CONTRACT THAT USES UN-AUDITED CODE. DO NOT USE THIS CODE IN PRODUCTION.",
    "version": 1
  }
}