{
  "contractName": "Counter",
  "abi": [
    {
      "inputs": [],
      "name": "incrementCounter",
      "outputs": [],
      "stateMutability": "nonpayable",
      "type": "function"
    },
    {
      "inputs": [],
      "name": "decrementCounter",
      "outputs": [],
      "stateMutability": "nonpayable",
      "type": "function"
    },
    {
      "inputs": [],
      "name": "getCount",
      "outputs": [
        {
          "internalType": "uint256",
          "name": "",
          "type": "uint256"
        }
      ],
      "stateMutability": "view",
      "type": "function"
    },
    {
      "inputs": [],
      "name": "reset",
      "outputs": [],
      "stateMutability": "nonpayable",
      "type": "function"
    }
  ],
  "bytecode": "0x608060405234801561001057600080fd5b50610106806100206000396000f3fe6080604052348015600f57600080fd5b506004361060465760003560e01c80635b34b96614604b578063a87d942c146053578063d826f88f146068578063f5c5ad83146070575b600080fd5b60516076565b005b60005460405190815260200160405180910390f35b605160008055565b60516087565b600054608290600560aa565b600055565b60056000546082919060c0565b634e487b7160e01b600052601160045260246000fd5b8082018082111560ba5760ba6094565b92915050565b8181038181111560ba5760ba609456fea26469706673582212202d8f4d7baea72701f42598bd7d8e593f29d30b4bae4c2fbcb772f57e5eb479e364736f6c63430008130033",
  "immutableReferences": {},
  "source": "// SPDX-License-Identifier: MIT\npragma solidity ^0.8.19;\n\ncontract Counter {\n\n    uint256 private count;\n\n    function incrementCounter() public {\n        count = count + 5;\n    }\n\n    function decrementCounter() public {\n        count = count - 5;\n    }\n    \n    function getCount() public view returns (uint256) {\n        return count;\n    }\n\n    function reset() public {\n        count = 0;\n    }\n}",
  "sourcePath": "/home/matteo/Projects/Uni/blockchain-project/contracts/Counter.sol",
  "compiler": {
    "name": "solc",
    "version": "0.8.19+commit.7dd6d404.Emscripten.clang"
  },
  "schemaVersion": "3.4.13",
  "updatedAt": "2023-06-27T15:33:15.362Z",
  "devdoc": {
    "kind": "dev",
    "methods": {},
    "version": 1
  },
  "userdoc": {
    "kind": "user",
    "methods": {},
    "version": 1
  }
}