{
  "contractName": "Counter",
  "abi": [
    {
      "inputs": [],
      "name": "incrementCounter",
      "outputs": [],
      "stateMutability": "nonpayable",
      "type": "function"
    },
    {
      "inputs": [],
      "name": "decrementCounter",
      "outputs": [],
      "stateMutability": "nonpayable",
      "type": "function"
    },
    {
      "inputs": [],
      "name": "getCount",
      "outputs": [
        {
          "internalType": "uint256",
          "name": "",
          "type": "uint256"
        }
      ],
      "stateMutability": "view",
      "type": "function"
    },
    {
      "inputs": [],
      "name": "reset",
      "outputs": [],
      "stateMutability": "nonpayable",
      "type": "function"
    }
  ],
  "bytecode": "0x608060405234801561001057600080fd5b506101ce806100206000396000f3fe608060405234801561001057600080fd5b506004361061004c5760003560e01c80635b34b96614610051578063a87d942c1461005b578063d826f88f14610079578063f5c5ad8314610083575b600080fd5b61005961008d565b005b6100636100a4565b60405161007091906100e6565b60405180910390f35b6100816100ad565b005b61008b6100b6565b005b600560005461009c9190610130565b600081905550565b60008054905090565b60008081905550565b60056000546100c59190610164565b600081905550565b6000819050919050565b6100e0816100cd565b82525050565b60006020820190506100fb60008301846100d7565b92915050565b7f4e487b7100000000000000000000000000000000000000000000000000000000600052601160045260246000fd5b600061013b826100cd565b9150610146836100cd565b925082820190508082111561015e5761015d610101565b5b92915050565b600061016f826100cd565b915061017a836100cd565b925082820390508181111561019257610191610101565b5b9291505056fea2646970667358221220b2d5c34d1a200808f461577a63dc5646eebaf19d919e870afe7ab1623271330764736f6c63430008130033",
  "immutableReferences": {},
  "source": "// SPDX-License-Identifier: MIT\npragma solidity ^0.8.19;\n\ncontract Counter {\n\n    uint256 private count;\n\n    function incrementCounter() public {\n        count = count + 5;\n    }\n\n    function decrementCounter() public {\n        count = count - 5;\n    }\n    \n    function getCount() public view returns (uint256) {\n        return count;\n    }\n\n    function reset() public {\n        count = 0;\n    }\n}",
  "sourcePath": "/Users/leonardovicentini/Desktop/Magistrale/Blockchain/blockchain-project/contracts/Counter.sol",
  "compiler": {
    "name": "solc",
    "version": "0.8.19+commit.7dd6d404.Emscripten.clang"
  },
  "schemaVersion": "3.4.13",
  "updatedAt": "2023-06-25T13:55:31.056Z",
  "networkType": "ethereum",
  "devdoc": {
    "kind": "dev",
    "methods": {},
    "version": 1
  },
  "userdoc": {
    "kind": "user",
    "methods": {},
    "version": 1
  }
}