{
  "contractName": "CustomChainlinkClient",
  "abi": [
    {
      "inputs": [
        {
          "internalType": "string",
          "name": "hostMachineIp",
          "type": "string"
        },
        {
          "internalType": "address",
          "name": "oracle",
          "type": "address"
        },
        {
          "internalType": "string",
          "name": "jobId_1",
          "type": "string"
        },
        {
          "internalType": "string",
          "name": "jobId_2",
          "type": "string"
        }
      ],
      "stateMutability": "nonpayable",
      "type": "constructor"
    },
    {
      "anonymous": false,
      "inputs": [
        {
          "indexed": true,
          "internalType": "bytes32",
          "name": "id",
          "type": "bytes32"
        }
      ],
      "name": "ChainlinkCancelled",
      "type": "event"
    },
    {
      "anonymous": false,
      "inputs": [
        {
          "indexed": true,
          "internalType": "bytes32",
          "name": "id",
          "type": "bytes32"
        }
      ],
      "name": "ChainlinkFulfilled",
      "type": "event"
    },
    {
      "anonymous": false,
      "inputs": [
        {
          "indexed": true,
          "internalType": "bytes32",
          "name": "id",
          "type": "bytes32"
        }
      ],
      "name": "ChainlinkRequested",
      "type": "event"
    },
    {
      "anonymous": false,
      "inputs": [
        {
          "indexed": true,
          "internalType": "address",
          "name": "from",
          "type": "address"
        },
        {
          "indexed": true,
          "internalType": "address",
          "name": "to",
          "type": "address"
        }
      ],
      "name": "OwnershipTransferRequested",
      "type": "event"
    },
    {
      "anonymous": false,
      "inputs": [
        {
          "indexed": true,
          "internalType": "address",
          "name": "from",
          "type": "address"
        },
        {
          "indexed": true,
          "internalType": "address",
          "name": "to",
          "type": "address"
        }
      ],
      "name": "OwnershipTransferred",
      "type": "event"
    },
    {
      "anonymous": false,
      "inputs": [
        {
          "indexed": true,
          "internalType": "uint256",
          "name": "tokenId",
          "type": "uint256"
        },
        {
          "indexed": false,
          "internalType": "string",
          "name": "success",
          "type": "string"
        }
      ],
      "name": "RequestConfirmMintingFulfilled",
      "type": "event"
    },
    {
      "anonymous": false,
      "inputs": [
        {
          "indexed": true,
          "internalType": "uint256",
          "name": "tokenId",
          "type": "uint256"
        },
        {
          "indexed": false,
          "internalType": "string",
          "name": "success",
          "type": "string"
        }
      ],
      "name": "RequestUpdateFulfilled",
      "type": "event"
    },
    {
      "inputs": [],
      "name": "_base_url_1",
      "outputs": [
        {
          "internalType": "string",
          "name": "",
          "type": "string"
        }
      ],
      "stateMutability": "view",
      "type": "function"
    },
    {
      "inputs": [],
      "name": "_base_url_2",
      "outputs": [
        {
          "internalType": "string",
          "name": "",
          "type": "string"
        }
      ],
      "stateMutability": "view",
      "type": "function"
    },
    {
      "inputs": [],
      "name": "acceptOwnership",
      "outputs": [],
      "stateMutability": "nonpayable",
      "type": "function"
    },
    {
      "inputs": [],
      "name": "owner",
      "outputs": [
        {
          "internalType": "address",
          "name": "",
          "type": "address"
        }
      ],
      "stateMutability": "view",
      "type": "function"
    },
    {
      "inputs": [
        {
          "internalType": "address",
          "name": "to",
          "type": "address"
        }
      ],
      "name": "transferOwnership",
      "outputs": [],
      "stateMutability": "nonpayable",
      "type": "function"
    },
    {
      "inputs": [
        {
          "internalType": "bytes32",
          "name": "_requestId",
          "type": "bytes32"
        },
        {
          "internalType": "uint256",
          "name": "_tokenId",
          "type": "uint256"
        },
        {
          "internalType": "string",
          "name": "_success",
          "type": "string"
        }
      ],
      "name": "fulfillConfirmMinting",
      "outputs": [],
      "stateMutability": "nonpayable",
      "type": "function"
    },
    {
      "inputs": [
        {
          "internalType": "uint256",
          "name": "_tokenId",
          "type": "uint256"
        },
        {
          "internalType": "string",
          "name": "_key",
          "type": "string"
        },
        {
          "internalType": "address",
          "name": "_assignee",
          "type": "address"
        }
      ],
      "name": "requestUpdate",
      "outputs": [],
      "stateMutability": "nonpayable",
      "type": "function"
    },
    {
      "inputs": [
        {
          "internalType": "bytes32",
          "name": "_requestId",
          "type": "bytes32"
        },
        {
          "internalType": "uint256",
          "name": "_tokenId",
          "type": "uint256"
        },
        {
          "internalType": "string",
          "name": "_success",
          "type": "string"
        }
      ],
      "name": "fulfillRequestUpdate",
      "outputs": [],
      "stateMutability": "nonpayable",
      "type": "function"
    },
    {
      "inputs": [],
      "name": "getChainlinkToken",
      "outputs": [
        {
          "internalType": "address",
          "name": "",
          "type": "address"
        }
      ],
      "stateMutability": "view",
      "type": "function"
    },
    {
      "inputs": [],
      "name": "withdrawLink",
      "outputs": [],
      "stateMutability": "nonpayable",
      "type": "function"
    },
    {
      "inputs": [
        {
          "internalType": "bytes32",
          "name": "_requestId",
          "type": "bytes32"
        },
        {
          "internalType": "uint256",
          "name": "_payment",
          "type": "uint256"
        },
        {
          "internalType": "bytes4",
          "name": "_callbackFunctionId",
          "type": "bytes4"
        },
        {
          "internalType": "uint256",
          "name": "_expiration",
          "type": "uint256"
        }
      ],
      "name": "cancelRequest",
      "outputs": [],
      "stateMutability": "nonpayable",
      "type": "function"
    }
  ],
  "bytecode": "0x600160045560c06040526007608090815266687474703a2f2f60c81b60a0526008906200002d90826200030e565b506040805180820190915260128152713a333030302f6170692f76312f6e6674732f60701b60208201526009906200006690826200030e565b503480156200007457600080fd5b5060405162001f9138038062001f91833981016040819052620000979162000489565b3380600081620000ee5760405162461bcd60e51b815260206004820152601860248201527f43616e6e6f7420736574206f776e657220746f207a65726f000000000000000060448201526064015b60405180910390fd5b600680546001600160a01b0319166001600160a01b0384811691909117909155811615620001215762000121816200019b565b5050506200014973779877a7b0d9e8603169ddbd7836e478b46247896200024760201b60201c565b600a6200015785826200030e565b50600b80546001600160a01b0319166001600160a01b038516179055600c6200018183826200030e565b50600d6200019082826200030e565b50505050506200053c565b336001600160a01b03821603620001f55760405162461bcd60e51b815260206004820152601760248201527f43616e6e6f74207472616e7366657220746f2073656c660000000000000000006044820152606401620000e5565b600780546001600160a01b0319166001600160a01b03838116918217909255600654604051919216907fed8889f560326eb138920d842192f0eb3dd22b4f139c87a2c57538e05bae127890600090a350565b600280546001600160a01b0319166001600160a01b0392909216919091179055565b634e487b7160e01b600052604160045260246000fd5b600181811c908216806200029457607f821691505b602082108103620002b557634e487b7160e01b600052602260045260246000fd5b50919050565b601f8211156200030957600081815260208120601f850160051c81016020861015620002e45750805b601f850160051c820191505b818110156200030557828155600101620002f0565b5050505b505050565b81516001600160401b038111156200032a576200032a62000269565b62000342816200033b84546200027f565b84620002bb565b602080601f8311600181146200037a5760008415620003615750858301515b600019600386901b1c1916600185901b17855562000305565b600085815260208120601f198616915b82811015620003ab578886015182559484019460019091019084016200038a565b5085821015620003ca5787850151600019600388901b60f8161c191681555b5050505050600190811b01905550565b600082601f830112620003ec57600080fd5b81516001600160401b038082111562000409576200040962000269565b604051601f8301601f19908116603f0116810190828211818310171562000434576200043462000269565b816040528381526020925086838588010111156200045157600080fd5b600091505b8382101562000475578582018301518183018401529082019062000456565b600093810190920192909252949350505050565b60008060008060808587031215620004a057600080fd5b84516001600160401b0380821115620004b857600080fd5b620004c688838901620003da565b602088015190965091506001600160a01b0382168214620004e657600080fd5b604087015191945080821115620004fc57600080fd5b6200050a88838901620003da565b935060608701519150808211156200052157600080fd5b506200053087828801620003da565b91505092959194509250565b611a45806200054c6000396000f3fe608060405234801561001057600080fd5b50600436106100995760003560e01c8063165d35e11461009e57806351bb446f146100bc57806379ba5097146100d15780637d8eeac9146100db5780638da5cb5b146100e35780638dc654a2146100f4578063c3170580146100fc578063e29a5e8e1461010f578063ec65d0f814610122578063f2fde38b14610135578063f3ebb3f114610148575b600080fd5b6100a661015b565b6040516100b3919061136c565b60405180910390f35b6100c461016a565b6040516100b391906113d0565b6100d96101f8565b005b6100c46102ab565b6006546001600160a01b03166100a6565b6100d96102b8565b6100d961010a366004611485565b6103fc565b6100d961011d3660046114f0565b6104a3565b6100d9610130366004611546565b61074c565b6100d9610143366004611592565b610766565b6100d9610156366004611485565b610777565b6000610165610810565b905090565b60098054610177906115ad565b80601f01602080910402602001604051908101604052809291908181526020018280546101a3906115ad565b80156101f05780601f106101c5576101008083540402835291602001916101f0565b820191906000526020600020905b8154815290600101906020018083116101d357829003601f168201915b505050505081565b6007546001600160a01b031633146102505760405162461bcd60e51b815260206004820152601660248201527526bab9ba10313290383937b837b9b2b21037bbb732b960511b60448201526064015b60405180910390fd5b600680546001600160a01b0319808216339081179093556007805490911690556040516001600160a01b03909116919082907f8be0079c531659141344cd1fd0a4f28419497f9722a3daafe3b4186f6b6457e090600090a350565b60088054610177906115ad565b6102c061081f565b60006102ca610810565b9050806001600160a01b031663a9059cbb33836001600160a01b03166370a08231306040518263ffffffff1660e01b8152600401610308919061136c565b602060405180830381865afa158015610325573d6000803e3d6000fd5b505050506040513d601f19601f8201168201806040525081019061034991906115e1565b6040516001600160e01b031960e085901b1681526001600160a01b03909216600483015260248201526044016020604051808303816000875af1158015610394573d6000803e3d6000fd5b505050506040513d601f19601f820116820180604052508101906103b891906115fa565b6103f95760405162461bcd60e51b81526020600482015260126024820152712ab730b13632903a37903a3930b739b332b960711b6044820152606401610247565b50565b60008381526005602052604090205483906001600160a01b031633146104345760405162461bcd60e51b81526004016102479061161c565b60008181526005602052604080822080546001600160a01b03191690555182916000805160206119f083398151915291a2827f6129a239e5984bc053e8951cfba690c7a08b8022ad7a5a7579033a9952b248fe8360405161049591906113d0565b60405180910390a250505050565b6104ab61081f565b60405164313abcb2b960d91b602082015260250160405160208183030381529060405280519060200120826040516020016104e69190611664565b60405160208183030381529060405280519060200120148061055d57506040516b36b0b73ab330b1ba3ab932b960a11b6020820152602c0160405160208183030381529060405280519060200120826040516020016105459190611664565b60405160208183030381529060405280519060200120145b6105955760405162461bcd60e51b815260206004820152600960248201526857726f6e67206b657960b81b6044820152606401610247565b600061063b61062d600d80546105aa906115ad565b80601f01602080910402602001604051908101604052809291908181526020018280546105d6906115ad565b80156106235780601f106105f857610100808354040283529160200191610623565b820191906000526020600020905b81548152906001019060200180831161060657829003601f168201915b5050505050610874565b3063f3ebb3f160e01b610893565b9050610696604051806040016040528060038152602001621d5c9b60ea1b8152506008600a600961066b896108b8565b60405160200161067e949392919061171d565b60408051601f1981840301815291905283919061094a565b6106dc60405180604001604052806004815260200163626f647960e01b815250846106cb856001600160a01b0316601461096d565b60405160200161067e929190611756565b610710604051806040016040528060078152602001661d1bdad95b925960ca1b815250610708866108b8565b83919061094a565b600b54610745906001600160a01b031682600a610736670de0b6b3a764000060016117c8565b61074091906117f5565b610b11565b5050505050565b61075461081f565b61076084848484610ba4565b50505050565b61076e61081f565b6103f981610c76565b60008381526005602052604090205483906001600160a01b031633146107af5760405162461bcd60e51b81526004016102479061161c565b60008181526005602052604080822080546001600160a01b03191690555182916000805160206119f083398151915291a2827feaa591fcda712a906726d0782957af336b2f5168567d3d30445ab864b1c368988360405161049591906113d0565b6002546001600160a01b031690565b6006546001600160a01b031633146108725760405162461bcd60e51b815260206004820152601660248201527527b7363c9031b0b63630b1363290313c9037bbb732b960511b6044820152606401610247565b565b80516000908290820361088a5750600092915050565b50506020015190565b61089b61131d565b6108a361131d565b6108af81868686610d1a565b95945050505050565b606060006108c583610d60565b60010190506000816001600160401b038111156108e4576108e46113e3565b6040519080825280601f01601f19166020018201604052801561090e576020820181803683370190505b5090508181016020015b600019016f181899199a1a9b1b9c1cb0b131b232b360811b600a86061a8153600a850494508461091857509392505050565b60808301516109599083610e36565b60808301516109689082610e36565b505050565b6060600061097c8360026117c8565b610987906002611809565b6001600160401b0381111561099e5761099e6113e3565b6040519080825280601f01601f1916602001820160405280156109c8576020820181803683370190505b509050600360fc1b816000815181106109e3576109e361181c565b60200101906001600160f81b031916908160001a905350600f60fb1b81600181518110610a1257610a1261181c565b60200101906001600160f81b031916908160001a9053506000610a368460026117c8565b610a41906001611809565b90505b6001811115610ab9576f181899199a1a9b1b9c1cb0b131b232b360811b85600f1660108110610a7557610a7561181c565b1a60f81b828281518110610a8b57610a8b61181c565b60200101906001600160f81b031916908160001a90535060049490941c93610ab281611832565b9050610a44565b508315610b085760405162461bcd60e51b815260206004820181905260248201527f537472696e67733a20686578206c656e67746820696e73756666696369656e746044820152606401610247565b90505b92915050565b600454600090610b22816001611809565b600455835160408086015160808701515191516000936320214ca360e11b93610b5a9386938493923092918a91600191602401611849565b60408051601f198184030181529190526020810180516001600160e01b03166001600160e01b0319909316929092179091529050610b9a86838684610e4d565b9695505050505050565b60008481526005602052604080822080546001600160a01b0319811690915590516001600160a01b039091169186917fe1fe3afa0f7f761ff0a8b89086790efd5140d2907ebd5b7ff6bfcb5e075fd4c59190a2604051636ee4d55360e01b815260048101869052602481018590526001600160e01b031984166044820152606481018390526001600160a01b03821690636ee4d55390608401600060405180830381600087803b158015610c5757600080fd5b505af1158015610c6b573d6000803e3d6000fd5b505050505050505050565b336001600160a01b03821603610cc85760405162461bcd60e51b815260206004820152601760248201527621b0b73737ba103a3930b739b332b9103a379039b2b63360491b6044820152606401610247565b600780546001600160a01b0319166001600160a01b03838116918217909255600654604051919216907fed8889f560326eb138920d842192f0eb3dd22b4f139c87a2c57538e05bae127890600090a350565b610d2261131d565b610d328560800151610100610fa6565b50508284526001600160a01b03821660208501526001600160e01b031981166040850152835b949350505050565b60008072184f03e93ff9f4daa797ed6e38ed64bf6a1f0160401b8310610d9f5772184f03e93ff9f4daa797ed6e38ed64bf6a1f0160401b830492506040015b6904ee2d6d415b85acef8160201b8310610dc9576904ee2d6d415b85acef8160201b830492506020015b662386f26fc100008310610de757662386f26fc10000830492506010015b6305f5e1008310610dff576305f5e100830492506008015b6127108310610e1357612710830492506004015b60648310610e25576064830492506002015b600a8310610b0b5760010192915050565b610e438260038351610ffe565b6109688282611105565b6040516001600160601b03193060601b1660208201526034810184905260009060540160408051808303601f1901815282825280516020918201206000818152600590925291812080546001600160a01b0319166001600160a01b038a1617905590925082917fb5e6e01e79f91267dc17b4e6314d5d4d03593d2ceee0fbb452b750bd70ea5af99190a2600254604051630200057560e51b81526001600160a01b0390911690634000aea090610f0b908890879087906004016118b1565b6020604051808303816000875af1158015610f2a573d6000803e3d6000fd5b505050506040513d601f19601f82011682018060405250810190610f4e91906115fa565b610d585760405162461bcd60e51b815260206004820152602360248201527f756e61626c6520746f207472616e73666572416e6443616c6c20746f206f7261604482015262636c6560e81b6064820152608401610247565b610fae611352565b610fb96020836118d8565b15610fe157610fc96020836118d8565b610fd49060206118ec565b610fde9083611809565b91505b506020828101829052604080518085526000815290920101905290565b6017816001600160401b031611611022576107608360e0600585901b16831761111f565b60ff816001600160401b03161161105e57611048836018611fe0600586901b161761111f565b50610760836001600160401b0383166001611137565b61ffff816001600160401b03161161109b57611085836019611fe0600586901b161761111f565b50610760836001600160401b0383166002611137565b63ffffffff816001600160401b0316116110da576110c483601a611fe0600586901b161761111f565b50610760836001600160401b0383166004611137565b6110ef83601b611fe0600586901b161761111f565b50610760836001600160401b0383166008611137565b61110d611352565b610b0883846000015151848551611150565b611127611352565b610b08838460000151518461122d565b61113f611352565b610d5884856000015151858561127b565b611158611352565b825182111561116657600080fd5b60208501516111758386611809565b11156111a8576111a885611198876020015187866111939190611809565b6112ef565b6111a39060026117c8565b611306565b6000808651805187602083010193508088870111156111c75787860182525b505050602084015b6020841061120757805182526111e6602083611809565b91506111f3602082611809565b90506112006020856118ec565b93506111cf565b51815160001960208690036101000a019081169019919091161790525083949350505050565b611235611352565b836020015183106112555761125584856020015160026111a391906117c8565b8351805160208583010184815350808503611271576001810182525b5093949350505050565b611283611352565b60208501516112928584611809565b11156112a6576112a6856111988685611809565b600060016112b6846101006119e3565b6112c091906118ec565b90508551838682010185831982511617815250805184870111156112e45783860181525b509495945050505050565b600081831115611300575081610b0b565b50919050565b81516113128383610fa6565b506107608382611105565b6040805160a08101825260008082526020820181905291810182905260608101919091526080810161134d611352565b905290565b604051806040016040528060608152602001600081525090565b6001600160a01b0391909116815260200190565b60005b8381101561139b578181015183820152602001611383565b50506000910152565b600081518084526113bc816020860160208601611380565b601f01601f19169290920160200192915050565b602081526000610b0860208301846113a4565b634e487b7160e01b600052604160045260246000fd5b600082601f83011261140a57600080fd5b81356001600160401b0380821115611424576114246113e3565b604051601f8301601f19908116603f0116810190828211818310171561144c5761144c6113e3565b8160405283815286602085880101111561146557600080fd5b836020870160208301376000602085830101528094505050505092915050565b60008060006060848603121561149a57600080fd5b833592506020840135915060408401356001600160401b038111156114be57600080fd5b6114ca868287016113f9565b9150509250925092565b80356001600160a01b03811681146114eb57600080fd5b919050565b60008060006060848603121561150557600080fd5b8335925060208401356001600160401b0381111561152257600080fd5b61152e868287016113f9565b92505061153d604085016114d4565b90509250925092565b6000806000806080858703121561155c57600080fd5b843593506020850135925060408501356001600160e01b03198116811461158257600080fd5b9396929550929360600135925050565b6000602082840312156115a457600080fd5b610b08826114d4565b600181811c908216806115c157607f821691505b60208210810361130057634e487b7160e01b600052602260045260246000fd5b6000602082840312156115f357600080fd5b5051919050565b60006020828403121561160c57600080fd5b81518015158114610b0857600080fd5b60208082526028908201527f536f75726365206d75737420626520746865206f7261636c65206f6620746865604082015267081c995c5d595cdd60c21b606082015260800190565b60008251611676818460208701611380565b9190910192915050565b8054600090600181811c908083168061169a57607f831692505b602080841082036116bb57634e487b7160e01b600052602260045260246000fd5b8180156116cf57600181146116e457611711565b60ff1986168952841515850289019650611711565b60008881526020902060005b868110156117095781548b8201529085019083016116f0565b505084890196505b50505050505092915050565b600061173b61173561172f8489611680565b87611680565b85611680565b835161174b818360208801611380565b019695505050505050565b613d9160f11b81528251600090611774816002850160208801611380565b62111d1160e91b6002918401918201528351611797816005840160208801611380565b61227d60f01b60059290910191820152600701949350505050565b634e487b7160e01b600052601160045260246000fd5b8082028115828204841417610b0b57610b0b6117b2565b634e487b7160e01b600052601260045260246000fd5b600082611804576118046117df565b500490565b80820180821115610b0b57610b0b6117b2565b634e487b7160e01b600052603260045260246000fd5b600081611841576118416117b2565b506000190190565b6001600160a01b0389811682526020820189905260408201889052861660608201526001600160e01b03198516608082015260a0810184905260c0810183905261010060e082018190526000906118a2838201856113a4565b9b9a5050505050505050505050565b60018060a01b03841681528260208201526060604082015260006108af60608301846113a4565b6000826118e7576118e76117df565b500690565b81810381811115610b0b57610b0b6117b2565b600181815b8085111561193a578160001904821115611920576119206117b2565b8085161561192d57918102915b93841c9390800290611904565b509250929050565b60008261195157506001610b0b565b8161195e57506000610b0b565b8160018114611974576002811461197e5761199a565b6001915050610b0b565b60ff84111561198f5761198f6117b2565b50506001821b610b0b565b5060208310610133831016604e8410600b84101617156119bd575081810a610b0b565b6119c783836118ff565b80600019048211156119db576119db6117b2565b029392505050565b6000610b08838361194256fe7cc135e0cebb02c3480ae5d74d377283180a2601f8f644edf7987b009316c63aa264697066735822122058a80d8ef0c85f917bcdf989a9a171088aa95e979fa8a3df5a62f96fa3e6668564736f6c63430008130033",
  "immutableReferences": {},
  "source": "// SPDX-License-Identifier: MIT\npragma solidity ^0.8.18;\n\nimport \"@openzeppelin/contracts/utils/Strings.sol\";\n\nimport \"@chainlink/contracts/src/v0.8/ChainlinkClient.sol\";\nimport \"@chainlink/contracts/src/v0.8/ConfirmedOwner.sol\";\n\ncontract CustomChainlinkClient is ChainlinkClient, ConfirmedOwner {\n    using Chainlink for Chainlink.Request;\n         \n    string public _base_url_1 = \"http://\";\n    string public _base_url_2 = \":3000/api/v1/nfts/\";\n\n    uint256 private constant ORACLE_PAYMENT = (1 * LINK_DIVISIBILITY) / 10; // 0.1 * 10**18\n\n    string _host_machine_ip;\n    address _oracle;\n    string _jobId_1;\n    string _jobId_2;\n    \n    event RequestConfirmMintingFulfilled(\n        uint256 indexed tokenId,\n        string success\n    );\n\n    event RequestUpdateFulfilled(\n        uint256 indexed tokenId,\n        string success\n    );\n\n    constructor(string memory hostMachineIp, address oracle, string memory jobId_1, string memory jobId_2) ConfirmedOwner(msg.sender) {\n\n        // Set LINK token address for Sepolia network \n        setChainlinkToken(0x779877A7B0D9E8603169DdbD7836e478b4624789);\n        _host_machine_ip = hostMachineIp;\n        _oracle = oracle;\n        _jobId_1 = jobId_1;\n        _jobId_2 = jobId_2;\n    }\n    \n    //called inside the mint function\n    //internal modifier is used to allow the function to be called only from the contract itself\n    function requestConfirmMinting(uint256 _tokenId, string memory _hash) internal onlyOwner {\n\n        Chainlink.Request memory req = buildChainlinkRequest(\n            stringToBytes32(_jobId_1),\n            address(this),\n            this.fulfillConfirmMinting.selector\n        );\n\n        req.add(\"url\", string(abi.encodePacked(_base_url_1, _host_machine_ip, _base_url_2, _hash)));\n        //req.add(\"method\", \"PUT\"); already in TOML of the node\n        //req.add(\"headers\", \"Content-Type: application/json\"); omit for now\n        req.add(\n            \"body\",\n            string(abi.encodePacked('{\"tokenId\":',Strings.toString(_tokenId),'}'))\n        );\n        req.add(\"tokenId\", Strings.toString(_tokenId));\n\n        sendChainlinkRequestTo(_oracle, req, ORACLE_PAYMENT);\n\n    }\n\n    function fulfillConfirmMinting(\n        bytes32 _requestId,\n        uint256 _tokenId,\n        string memory _success\n    ) public recordChainlinkFulfillment(_requestId) {\n\n        emit RequestConfirmMintingFulfilled(_tokenId ,_success);\n    }\n\n    function requestUpdate(\n        uint256 _tokenId,\n        string memory _key,\n        address _assignee\n    ) public onlyOwner {\n\n        //_key must be \"buyer\" or \"manufacturer\"\n        require(\n            keccak256(abi.encodePacked(_key)) == keccak256(abi.encodePacked(\"buyer\")) ||\n            keccak256(abi.encodePacked(_key)) == keccak256(abi.encodePacked(\"manufacturer\")),\n            \"Wrong key\"\n        );\n\n        Chainlink.Request memory req = buildChainlinkRequest(\n            stringToBytes32(_jobId_2),\n            address(this),\n            this.fulfillRequestUpdate.selector\n        );\n\n        req.add(\"url\", string(abi.encodePacked(_base_url_1, _host_machine_ip, _base_url_2, Strings.toString(_tokenId))));\n        //req.add(\"method\", \"PUT\"); already in TOML of the node\n        //req.add(\"headers\", \"Content-Type: application/json\"); omit for now\n        req.add(\n            \"body\",\n            string(abi.encodePacked('{\"', _key, '\":\"', Strings.toHexString(uint256(uint160(_assignee)), 20),'\"}'))\n            //tring(abi.encodePacked('{\"', _key, '\":\"', _assignee,'\"}')) //to be tested\n        );\n        req.add(\"tokenId\", Strings.toString(_tokenId));\n\n        sendChainlinkRequestTo(_oracle, req, ORACLE_PAYMENT);\n    }\n\n    function fulfillRequestUpdate(\n        bytes32 _requestId,\n        uint256 _tokenId,\n        string memory _success\n    ) public recordChainlinkFulfillment(_requestId) {\n\n        emit RequestUpdateFulfilled(_tokenId ,_success);\n    }\n\n    function getChainlinkToken() public view returns (address) {\n        return chainlinkTokenAddress();\n    }\n\n    function withdrawLink() public onlyOwner {\n        LinkTokenInterface link = LinkTokenInterface(chainlinkTokenAddress());\n        require(link.transfer(msg.sender, link.balanceOf(address(this))), \"Unable to transfer\");\n    }\n\n    function cancelRequest(\n        bytes32 _requestId,\n        uint256 _payment,\n        bytes4 _callbackFunctionId,\n        uint256 _expiration\n    ) public onlyOwner {\n        cancelChainlinkRequest(\n            _requestId,\n            _payment,\n            _callbackFunctionId,\n            _expiration\n        );\n    }\n\n    function stringToBytes32(\n        string memory source\n    ) private pure returns (bytes32 result) {\n        bytes memory tempEmptyStringTest = bytes(source);\n        if (tempEmptyStringTest.length == 0) {\n            return 0x0;\n        }\n        assembly {\n            // solhint-disable-line no-inline-assembly\n            result := mload(add(source, 32))\n        }\n    }\n}\n",
  "sourcePath": "/Users/leonardovicentini/Desktop/Magistrale/Blockchain/blockchain-project/contracts/CustomChainlinkClient.sol",
  "compiler": {
    "name": "solc",
    "version": "0.8.19+commit.7dd6d404.Emscripten.clang"
  },
  "schemaVersion": "3.4.13",
  "updatedAt": "2023-06-27T14:44:06.190Z",
  "devdoc": {
    "kind": "dev",
    "methods": {},
    "version": 1
  },
  "userdoc": {
    "kind": "user",
    "methods": {
      "acceptOwnership()": {
        "notice": "Allows an ownership transfer to be completed by the recipient."
      },
      "owner()": {
        "notice": "Get the current owner"
      },
      "transferOwnership(address)": {
        "notice": "Allows an owner to begin transferring ownership to a new address, pending."
      }
    },
    "version": 1
  }
}