{
  "contractName": "CustomChainlinkClient",
  "abi": [
    {
      "inputs": [
        {
          "internalType": "string",
          "name": "hostMachineIp",
          "type": "string"
        },
        {
          "internalType": "address",
          "name": "oracle",
          "type": "address"
        },
        {
          "internalType": "string",
          "name": "jobId",
          "type": "string"
        }
      ],
      "stateMutability": "nonpayable",
      "type": "constructor"
    },
    {
      "anonymous": false,
      "inputs": [
        {
          "indexed": true,
          "internalType": "bytes32",
          "name": "id",
          "type": "bytes32"
        }
      ],
      "name": "ChainlinkCancelled",
      "type": "event"
    },
    {
      "anonymous": false,
      "inputs": [
        {
          "indexed": true,
          "internalType": "bytes32",
          "name": "id",
          "type": "bytes32"
        }
      ],
      "name": "ChainlinkFulfilled",
      "type": "event"
    },
    {
      "anonymous": false,
      "inputs": [
        {
          "indexed": true,
          "internalType": "bytes32",
          "name": "id",
          "type": "bytes32"
        }
      ],
      "name": "ChainlinkRequested",
      "type": "event"
    },
    {
      "anonymous": false,
      "inputs": [
        {
          "indexed": true,
          "internalType": "address",
          "name": "from",
          "type": "address"
        },
        {
          "indexed": true,
          "internalType": "address",
          "name": "to",
          "type": "address"
        }
      ],
      "name": "OwnershipTransferRequested",
      "type": "event"
    },
    {
      "anonymous": false,
      "inputs": [
        {
          "indexed": true,
          "internalType": "address",
          "name": "from",
          "type": "address"
        },
        {
          "indexed": true,
          "internalType": "address",
          "name": "to",
          "type": "address"
        }
      ],
      "name": "OwnershipTransferred",
      "type": "event"
    },
    {
      "anonymous": false,
      "inputs": [
        {
          "indexed": true,
          "internalType": "uint256",
          "name": "tokenId",
          "type": "uint256"
        },
        {
          "indexed": false,
          "internalType": "string",
          "name": "success",
          "type": "string"
        }
      ],
      "name": "RequestConfirmMintingFulfilled",
      "type": "event"
    },
    {
      "anonymous": false,
      "inputs": [
        {
          "indexed": true,
          "internalType": "uint256",
          "name": "tokenId",
          "type": "uint256"
        },
        {
          "indexed": false,
          "internalType": "string",
          "name": "success",
          "type": "string"
        }
      ],
      "name": "RequestUpdateFulfilled",
      "type": "event"
    },
    {
      "inputs": [],
      "name": "_base_url_1",
      "outputs": [
        {
          "internalType": "string",
          "name": "",
          "type": "string"
        }
      ],
      "stateMutability": "view",
      "type": "function"
    },
    {
      "inputs": [],
      "name": "_base_url_2",
      "outputs": [
        {
          "internalType": "string",
          "name": "",
          "type": "string"
        }
      ],
      "stateMutability": "view",
      "type": "function"
    },
    {
      "inputs": [],
      "name": "acceptOwnership",
      "outputs": [],
      "stateMutability": "nonpayable",
      "type": "function"
    },
    {
      "inputs": [],
      "name": "owner",
      "outputs": [
        {
          "internalType": "address",
          "name": "",
          "type": "address"
        }
      ],
      "stateMutability": "view",
      "type": "function"
    },
    {
      "inputs": [
        {
          "internalType": "address",
          "name": "to",
          "type": "address"
        }
      ],
      "name": "transferOwnership",
      "outputs": [],
      "stateMutability": "nonpayable",
      "type": "function"
    },
    {
      "inputs": [
        {
          "internalType": "bytes32",
          "name": "_requestId",
          "type": "bytes32"
        },
        {
          "internalType": "uint256",
          "name": "_tokenId",
          "type": "uint256"
        },
        {
          "internalType": "string",
          "name": "_success",
          "type": "string"
        }
      ],
      "name": "fulfillConfirmMinting",
      "outputs": [],
      "stateMutability": "nonpayable",
      "type": "function"
    },
    {
      "inputs": [
        {
          "internalType": "uint256",
          "name": "_tokenId",
          "type": "uint256"
        },
        {
          "internalType": "string",
          "name": "_key",
          "type": "string"
        },
        {
          "internalType": "address",
          "name": "_assignee",
          "type": "address"
        }
      ],
      "name": "requestUpdate",
      "outputs": [],
      "stateMutability": "nonpayable",
      "type": "function"
    },
    {
      "inputs": [
        {
          "internalType": "bytes32",
          "name": "_requestId",
          "type": "bytes32"
        },
        {
          "internalType": "uint256",
          "name": "_tokenId",
          "type": "uint256"
        },
        {
          "internalType": "string",
          "name": "_success",
          "type": "string"
        }
      ],
      "name": "fulfillRequestUpdate",
      "outputs": [],
      "stateMutability": "nonpayable",
      "type": "function"
    },
    {
      "inputs": [],
      "name": "getChainlinkToken",
      "outputs": [
        {
          "internalType": "address",
          "name": "",
          "type": "address"
        }
      ],
      "stateMutability": "view",
      "type": "function"
    },
    {
      "inputs": [],
      "name": "withdrawLink",
      "outputs": [],
      "stateMutability": "nonpayable",
      "type": "function"
    },
    {
      "inputs": [
        {
          "internalType": "bytes32",
          "name": "_requestId",
          "type": "bytes32"
        },
        {
          "internalType": "uint256",
          "name": "_payment",
          "type": "uint256"
        },
        {
          "internalType": "bytes4",
          "name": "_callbackFunctionId",
          "type": "bytes4"
        },
        {
          "internalType": "uint256",
          "name": "_expiration",
          "type": "uint256"
        }
      ],
      "name": "cancelRequest",
      "outputs": [],
      "stateMutability": "nonpayable",
      "type": "function"
    }
  ],
  "bytecode": "0x608060405260016004556040518060400160405280600781526020017f687474703a2f2f00000000000000000000000000000000000000000000000000815250600890816200004f91906200064c565b506040518060400160405280601281526020017f3a333030302f6170692f76312f6e6674732f0000000000000000000000000000815250600990816200009691906200064c565b50348015620000a457600080fd5b506040516200391d3803806200391d8339818101604052810190620000ca9190620008fc565b338060008073ffffffffffffffffffffffffffffffffffffffff168273ffffffffffffffffffffffffffffffffffffffff16036200013f576040517f08c379a00000000000000000000000000000000000000000000000000000000081526004016200013690620009f7565b60405180910390fd5b81600660006101000a81548173ffffffffffffffffffffffffffffffffffffffff021916908373ffffffffffffffffffffffffffffffffffffffff160217905550600073ffffffffffffffffffffffffffffffffffffffff168173ffffffffffffffffffffffffffffffffffffffff1614620001c757620001c6816200025d60201b60201c565b5b505050620001ef73779877a7b0d9e8603169ddbd7836e478b46247896200038e60201b60201c565b82600a90816200020091906200064c565b5081600b60006101000a81548173ffffffffffffffffffffffffffffffffffffffff021916908373ffffffffffffffffffffffffffffffffffffffff16021790555080600c90816200025391906200064c565b5050505062000a8b565b3373ffffffffffffffffffffffffffffffffffffffff168173ffffffffffffffffffffffffffffffffffffffff1603620002ce576040517f08c379a0000000000000000000000000000000000000000000000000000000008152600401620002c59062000a69565b60405180910390fd5b80600760006101000a81548173ffffffffffffffffffffffffffffffffffffffff021916908373ffffffffffffffffffffffffffffffffffffffff1602179055508073ffffffffffffffffffffffffffffffffffffffff16600660009054906101000a900473ffffffffffffffffffffffffffffffffffffffff1673ffffffffffffffffffffffffffffffffffffffff167fed8889f560326eb138920d842192f0eb3dd22b4f139c87a2c57538e05bae127860405160405180910390a350565b80600260006101000a81548173ffffffffffffffffffffffffffffffffffffffff021916908373ffffffffffffffffffffffffffffffffffffffff16021790555050565b600081519050919050565b7f4e487b7100000000000000000000000000000000000000000000000000000000600052604160045260246000fd5b7f4e487b7100000000000000000000000000000000000000000000000000000000600052602260045260246000fd5b600060028204905060018216806200045457607f821691505b6020821081036200046a57620004696200040c565b5b50919050565b60008190508160005260206000209050919050565b60006020601f8301049050919050565b600082821b905092915050565b600060088302620004d47fffffffffffffffffffffffffffffffffffffffffffffffffffffffffffffffff8262000495565b620004e0868362000495565b95508019841693508086168417925050509392505050565b6000819050919050565b6000819050919050565b60006200052d620005276200052184620004f8565b62000502565b620004f8565b9050919050565b6000819050919050565b62000549836200050c565b62000561620005588262000534565b848454620004a2565b825550505050565b600090565b6200057862000569565b620005858184846200053e565b505050565b5b81811015620005ad57620005a16000826200056e565b6001810190506200058b565b5050565b601f821115620005fc57620005c68162000470565b620005d18462000485565b81016020851015620005e1578190505b620005f9620005f08562000485565b8301826200058a565b50505b505050565b600082821c905092915050565b6000620006216000198460080262000601565b1980831691505092915050565b60006200063c83836200060e565b9150826002028217905092915050565b6200065782620003d2565b67ffffffffffffffff811115620006735762000672620003dd565b5b6200067f82546200043b565b6200068c828285620005b1565b600060209050601f831160018114620006c45760008415620006af578287015190505b620006bb85826200062e565b8655506200072b565b601f198416620006d48662000470565b60005b82811015620006fe57848901518255600182019150602085019450602081019050620006d7565b868310156200071e57848901516200071a601f8916826200060e565b8355505b6001600288020188555050505b505050505050565b6000604051905090565b600080fd5b600080fd5b600080fd5b600080fd5b6000601f19601f8301169050919050565b6200076d8262000751565b810181811067ffffffffffffffff821117156200078f576200078e620003dd565b5b80604052505050565b6000620007a462000733565b9050620007b2828262000762565b919050565b600067ffffffffffffffff821115620007d557620007d4620003dd565b5b620007e08262000751565b9050602081019050919050565b60005b838110156200080d578082015181840152602081019050620007f0565b60008484015250505050565b6000620008306200082a84620007b7565b62000798565b9050828152602081018484840111156200084f576200084e6200074c565b5b6200085c848285620007ed565b509392505050565b600082601f8301126200087c576200087b62000747565b5b81516200088e84826020860162000819565b91505092915050565b600073ffffffffffffffffffffffffffffffffffffffff82169050919050565b6000620008c48262000897565b9050919050565b620008d681620008b7565b8114620008e257600080fd5b50565b600081519050620008f681620008cb565b92915050565b6000806000606084860312156200091857620009176200073d565b5b600084015167ffffffffffffffff81111562000939576200093862000742565b5b620009478682870162000864565b93505060206200095a86828701620008e5565b925050604084015167ffffffffffffffff8111156200097e576200097d62000742565b5b6200098c8682870162000864565b9150509250925092565b600082825260208201905092915050565b7f43616e6e6f7420736574206f776e657220746f207a65726f0000000000000000600082015250565b6000620009df60188362000996565b9150620009ec82620009a7565b602082019050919050565b6000602082019050818103600083015262000a1281620009d0565b9050919050565b7f43616e6e6f74207472616e7366657220746f2073656c66000000000000000000600082015250565b600062000a5160178362000996565b915062000a5e8262000a19565b602082019050919050565b6000602082019050818103600083015262000a848162000a42565b9050919050565b612e828062000a9b6000396000f3fe608060405234801561001057600080fd5b50600436106100a95760003560e01c80638dc654a2116100715780638dc654a214610130578063c31705801461013a578063e29a5e8e14610156578063ec65d0f814610172578063f2fde38b1461018e578063f3ebb3f1146101aa576100a9565b8063165d35e1146100ae57806351bb446f146100cc57806379ba5097146100ea5780637d8eeac9146100f45780638da5cb5b14610112575b600080fd5b6100b66101c6565b6040516100c39190611c31565b60405180910390f35b6100d46101d5565b6040516100e19190611cdc565b60405180910390f35b6100f2610263565b005b6100fc6103fa565b6040516101099190611cdc565b60405180910390f35b61011a610488565b6040516101279190611c31565b60405180910390f35b6101386104b2565b005b610154600480360381019061014f9190611eb3565b6105ff565b005b610170600480360381019061016b9190611f4e565b610742565b005b61018c60048036038101906101879190612015565b610a75565b005b6101a860048036038101906101a3919061207c565b610a8f565b005b6101c460048036038101906101bf9190611eb3565b610aa3565b005b60006101d0610be6565b905090565b600980546101e2906120d8565b80601f016020809104026020016040519081016040528092919081815260200182805461020e906120d8565b801561025b5780601f106102305761010080835404028352916020019161025b565b820191906000526020600020905b81548152906001019060200180831161023e57829003601f168201915b505050505081565b600760009054906101000a900473ffffffffffffffffffffffffffffffffffffffff1673ffffffffffffffffffffffffffffffffffffffff163373ffffffffffffffffffffffffffffffffffffffff16146102f3576040517f08c379a00000000000000000000000000000000000000000000000000000000081526004016102ea90612155565b60405180910390fd5b6000600660009054906101000a900473ffffffffffffffffffffffffffffffffffffffff16905033600660006101000a81548173ffffffffffffffffffffffffffffffffffffffff021916908373ffffffffffffffffffffffffffffffffffffffff1602179055506000600760006101000a81548173ffffffffffffffffffffffffffffffffffffffff021916908373ffffffffffffffffffffffffffffffffffffffff1602179055503373ffffffffffffffffffffffffffffffffffffffff168173ffffffffffffffffffffffffffffffffffffffff167f8be0079c531659141344cd1fd0a4f28419497f9722a3daafe3b4186f6b6457e060405160405180910390a350565b60088054610407906120d8565b80601f0160208091040260200160405190810160405280929190818152602001828054610433906120d8565b80156104805780601f1061045557610100808354040283529160200191610480565b820191906000526020600020905b81548152906001019060200180831161046357829003601f168201915b505050505081565b6000600660009054906101000a900473ffffffffffffffffffffffffffffffffffffffff16905090565b6104ba610c10565b60006104c4610be6565b90508073ffffffffffffffffffffffffffffffffffffffff1663a9059cbb338373ffffffffffffffffffffffffffffffffffffffff166370a08231306040518263ffffffff1660e01b815260040161051c9190611c31565b602060405180830381865afa158015610539573d6000803e3d6000fd5b505050506040513d601f19601f8201168201806040525081019061055d919061218a565b6040518363ffffffff1660e01b815260040161057a9291906121c6565b6020604051808303816000875af1158015610599573d6000803e3d6000fd5b505050506040513d601f19601f820116820180604052508101906105bd9190612227565b6105fc576040517f08c379a00000000000000000000000000000000000000000000000000000000081526004016105f3906122a0565b60405180910390fd5b50565b826005600082815260200190815260200160002060009054906101000a900473ffffffffffffffffffffffffffffffffffffffff1673ffffffffffffffffffffffffffffffffffffffff163373ffffffffffffffffffffffffffffffffffffffff16146106a1576040517f08c379a000000000000000000000000000000000000000000000000000000000815260040161069890612332565b60405180910390fd5b6005600082815260200190815260200160002060006101000a81549073ffffffffffffffffffffffffffffffffffffffff0219169055807f7cc135e0cebb02c3480ae5d74d377283180a2601f8f644edf7987b009316c63a60405160405180910390a2827f6129a239e5984bc053e8951cfba690c7a08b8022ad7a5a7579033a9952b248fe836040516107349190611cdc565b60405180910390a250505050565b61074a610c10565b604051602001610759906123a9565b604051602081830303815290604052805190602001208260405160200161078091906123ef565b6040516020818303038152906040528051906020012014806107eb57506040516020016107ac90612452565b60405160208183030381529060405280519060200120826040516020016107d391906123ef565b60405160208183030381529060405280519060200120145b61082a576040517f08c379a0000000000000000000000000000000000000000000000000000000008152600401610821906124b3565b60405180910390fd5b60006108d06108c2600c805461083f906120d8565b80601f016020809104026020016040519081016040528092919081815260200182805461086b906120d8565b80156108b85780601f1061088d576101008083540402835291602001916108b8565b820191906000526020600020905b81548152906001019060200180831161089b57829003601f168201915b5050505050610ca2565b3063f3ebb3f160e01b610ccb565b90506109446040518060400160405280600381526020017f75726c00000000000000000000000000000000000000000000000000000000008152506008600a600988604051602001610925949392919061258c565b60405160208183030381529060405283610cfc9092919063ffffffff16565b6109cf6040518060400160405280600481526020017f626f6479000000000000000000000000000000000000000000000000000000008152508461099f8573ffffffffffffffffffffffffffffffffffffffff166014610d2f565b6040516020016109b09291906126b2565b60405160208183030381529060405283610cfc9092919063ffffffff16565b610a216040518060400160405280600781526020017f746f6b656e496400000000000000000000000000000000000000000000000000815250610a1186610f6b565b83610cfc9092919063ffffffff16565b610a6e600b60009054906101000a900473ffffffffffffffffffffffffffffffffffffffff1682600a670de0b6b3a76400006001610a5f9190612726565b610a699190612797565b611039565b5050505050565b610a7d610c10565b610a8984848484611105565b50505050565b610a97610c10565b610aa081611218565b50565b826005600082815260200190815260200160002060009054906101000a900473ffffffffffffffffffffffffffffffffffffffff1673ffffffffffffffffffffffffffffffffffffffff163373ffffffffffffffffffffffffffffffffffffffff1614610b45576040517f08c379a0000000000000000000000000000000000000000000000000000000008152600401610b3c90612332565b60405180910390fd5b6005600082815260200190815260200160002060006101000a81549073ffffffffffffffffffffffffffffffffffffffff0219169055807f7cc135e0cebb02c3480ae5d74d377283180a2601f8f644edf7987b009316c63a60405160405180910390a2827feaa591fcda712a906726d0782957af336b2f5168567d3d30445ab864b1c3689883604051610bd89190611cdc565b60405180910390a250505050565b6000600260009054906101000a900473ffffffffffffffffffffffffffffffffffffffff16905090565b600660009054906101000a900473ffffffffffffffffffffffffffffffffffffffff1673ffffffffffffffffffffffffffffffffffffffff163373ffffffffffffffffffffffffffffffffffffffff1614610ca0576040517f08c379a0000000000000000000000000000000000000000000000000000000008152600401610c9790612814565b60405180910390fd5b565b6000808290506000815103610cbd576000801b915050610cc6565b60208301519150505b919050565b610cd3611b69565b610cdb611b69565b610cf285858584611346909392919063ffffffff16565b9150509392505050565b610d138284608001516113f690919063ffffffff16565b610d2a8184608001516113f690919063ffffffff16565b505050565b606060006002836002610d429190612726565b610d4c9190612834565b67ffffffffffffffff811115610d6557610d64611d88565b5b6040519080825280601f01601f191660200182016040528015610d975781602001600182028036833780820191505090505b5090507f300000000000000000000000000000000000000000000000000000000000000081600081518110610dcf57610dce612868565b5b60200101907effffffffffffffffffffffffffffffffffffffffffffffffffffffffffffff1916908160001a9053507f780000000000000000000000000000000000000000000000000000000000000081600181518110610e3357610e32612868565b5b60200101907effffffffffffffffffffffffffffffffffffffffffffffffffffffffffffff1916908160001a90535060006001846002610e739190612726565b610e7d9190612834565b90505b6001811115610f1d577f3031323334353637383961626364656600000000000000000000000000000000600f861660108110610ebf57610ebe612868565b5b1a60f81b828281518110610ed657610ed5612868565b5b60200101907effffffffffffffffffffffffffffffffffffffffffffffffffffffffffffff1916908160001a905350600485901c945080610f1690612897565b9050610e80565b5060008414610f61576040517f08c379a0000000000000000000000000000000000000000000000000000000008152600401610f589061290c565b60405180910390fd5b8091505092915050565b606060006001610f7a8461141b565b01905060008167ffffffffffffffff811115610f9957610f98611d88565b5b6040519080825280601f01601f191660200182016040528015610fcb5781602001600182028036833780820191505090505b509050600082602001820190505b60011561102e578080600190039150507f3031323334353637383961626364656600000000000000000000000000000000600a86061a8153600a858161102257611021612768565b5b04945060008503610fd9575b819350505050919050565b600080600454905060018161104e9190612834565b6004819055506000634042994660e01b60008087600001513089604001518760018c608001516000015160405160240161108f98979695949392919061299f565b604051602081830303815290604052907bffffffffffffffffffffffffffffffffffffffffffffffffffffffff19166020820180517bffffffffffffffffffffffffffffffffffffffffffffffffffffffff838183161783525050505090506110fa8683868461156e565b925050509392505050565b60006005600086815260200190815260200160002060009054906101000a900473ffffffffffffffffffffffffffffffffffffffff1690506005600086815260200190815260200160002060006101000a81549073ffffffffffffffffffffffffffffffffffffffff0219169055847fe1fe3afa0f7f761ff0a8b89086790efd5140d2907ebd5b7ff6bfcb5e075fd4c560405160405180910390a28073ffffffffffffffffffffffffffffffffffffffff16636ee4d553868686866040518563ffffffff1660e01b81526004016111df9493929190612a24565b600060405180830381600087803b1580156111f957600080fd5b505af115801561120d573d6000803e3d6000fd5b505050505050505050565b3373ffffffffffffffffffffffffffffffffffffffff168173ffffffffffffffffffffffffffffffffffffffff1603611286576040517f08c379a000000000000000000000000000000000000000000000000000000000815260040161127d90612ab5565b60405180910390fd5b80600760006101000a81548173ffffffffffffffffffffffffffffffffffffffff021916908373ffffffffffffffffffffffffffffffffffffffff1602179055508073ffffffffffffffffffffffffffffffffffffffff16600660009054906101000a900473ffffffffffffffffffffffffffffffffffffffff1673ffffffffffffffffffffffffffffffffffffffff167fed8889f560326eb138920d842192f0eb3dd22b4f139c87a2c57538e05bae127860405160405180910390a350565b61134e611b69565b61135e8560800151610100611703565b508385600001818152505082856020019073ffffffffffffffffffffffffffffffffffffffff16908173ffffffffffffffffffffffffffffffffffffffff16815250508185604001907bffffffffffffffffffffffffffffffffffffffffffffffffffffffff191690817bffffffffffffffffffffffffffffffffffffffffffffffffffffffff191681525050849050949350505050565b611403826003835161176d565b61141681836118f290919063ffffffff16565b505050565b600080600090507a184f03e93ff9f4daa797ed6e38ed64bf6a1f0100000000000000008310611479577a184f03e93ff9f4daa797ed6e38ed64bf6a1f010000000000000000838161146f5761146e612768565b5b0492506040810190505b6d04ee2d6d415b85acef810000000083106114b6576d04ee2d6d415b85acef810000000083816114ac576114ab612768565b5b0492506020810190505b662386f26fc1000083106114e557662386f26fc1000083816114db576114da612768565b5b0492506010810190505b6305f5e100831061150e576305f5e100838161150457611503612768565b5b0492506008810190505b612710831061153357612710838161152957611528612768565b5b0492506004810190505b60648310611556576064838161154c5761154b612768565b5b0492506002810190505b600a8310611565576001810190505b80915050919050565b60003084604051602001611583929190612b6d565b604051602081830303815290604052805190602001209050846005600083815260200190815260200160002060006101000a81548173ffffffffffffffffffffffffffffffffffffffff021916908373ffffffffffffffffffffffffffffffffffffffff160217905550807fb5e6e01e79f91267dc17b4e6314d5d4d03593d2ceee0fbb452b750bd70ea5af960405160405180910390a2600260009054906101000a900473ffffffffffffffffffffffffffffffffffffffff1673ffffffffffffffffffffffffffffffffffffffff16634000aea08685856040518463ffffffff1660e01b815260040161167993929190612b99565b6020604051808303816000875af1158015611698573d6000803e3d6000fd5b505050506040513d601f19601f820116820180604052508101906116bc9190612227565b6116fb576040517f08c379a00000000000000000000000000000000000000000000000000000000081526004016116f290612c49565b60405180910390fd5b949350505050565b61170b611bd6565b600060208361171a9190612c69565b146117465760208261172c9190612c69565b60206117389190612c9a565b826117439190612834565b91505b81836020018181525050604051808452600081528281016020016040525082905092915050565b60178167ffffffffffffffff16116117a45761179e8160058460ff16901b60ff16178461191490919063ffffffff16565b506118ed565b60ff8167ffffffffffffffff16116117fa576117d3601860058460ff16901b178461191490919063ffffffff16565b506117f48167ffffffffffffffff166001856119349092919063ffffffff16565b506118ec565b61ffff8167ffffffffffffffff16116118515761182a601960058460ff16901b178461191490919063ffffffff16565b5061184b8167ffffffffffffffff166002856119349092919063ffffffff16565b506118eb565b63ffffffff8167ffffffffffffffff16116118aa57611883601a60058460ff16901b178461191490919063ffffffff16565b506118a48167ffffffffffffffff166004856119349092919063ffffffff16565b506118ea565b6118c7601b60058460ff16901b178461191490919063ffffffff16565b506118e88167ffffffffffffffff166008856119349092919063ffffffff16565b505b5b5b5b505050565b6118fa611bd6565b61190c83846000015151848551611956565b905092915050565b61191c611bd6565b61192c8384600001515184611a45565b905092915050565b61193c611bd6565b61194d848560000151518585611a9b565b90509392505050565b61195e611bd6565b825182111561196c57600080fd5b8460200151828561197d9190612834565b11156119b2576119b18560026119a28860200151888761199d9190612834565b611b29565b6119ac9190612726565b611b45565b5b6000808651805187602083010193508088870111156119d15787860182525b60208701925050505b60208410611a1857805182526020826119f39190612834565b9150602081611a029190612834565b9050602084611a119190612c9a565b93506119da565b60006001856020036101000a03905080198251168184511681811785525050508692505050949350505050565b611a4d611bd6565b83602001518310611a7357611a728460028660200151611a6d9190612726565b611b45565b5b83518051602085830101848153818603611a8e576001820183525b5050508390509392505050565b611aa3611bd6565b84602001518483611ab49190612834565b1115611adc57611adb8560028685611acc9190612834565b611ad69190612726565b611b45565b5b6000600183610100611aee9190612e01565b611af89190612c9a565b90508551838682010185831982511617815281518588011115611b1b5784870182525b505085915050949350505050565b600081831115611b3b57829050611b3f565b8190505b92915050565b600082600001519050611b588383611703565b50611b6383826118f2565b50505050565b6040518060a0016040528060008019168152602001600073ffffffffffffffffffffffffffffffffffffffff16815260200160007bffffffffffffffffffffffffffffffffffffffffffffffffffffffff1916815260200160008152602001611bd0611bd6565b81525090565b604051806040016040528060608152602001600081525090565b600073ffffffffffffffffffffffffffffffffffffffff82169050919050565b6000611c1b82611bf0565b9050919050565b611c2b81611c10565b82525050565b6000602082019050611c466000830184611c22565b92915050565b600081519050919050565b600082825260208201905092915050565b60005b83811015611c86578082015181840152602081019050611c6b565b60008484015250505050565b6000601f19601f8301169050919050565b6000611cae82611c4c565b611cb88185611c57565b9350611cc8818560208601611c68565b611cd181611c92565b840191505092915050565b60006020820190508181036000830152611cf68184611ca3565b905092915050565b6000604051905090565b600080fd5b600080fd5b6000819050919050565b611d2581611d12565b8114611d3057600080fd5b50565b600081359050611d4281611d1c565b92915050565b6000819050919050565b611d5b81611d48565b8114611d6657600080fd5b50565b600081359050611d7881611d52565b92915050565b600080fd5b600080fd5b7f4e487b7100000000000000000000000000000000000000000000000000000000600052604160045260246000fd5b611dc082611c92565b810181811067ffffffffffffffff82111715611ddf57611dde611d88565b5b80604052505050565b6000611df2611cfe565b9050611dfe8282611db7565b919050565b600067ffffffffffffffff821115611e1e57611e1d611d88565b5b611e2782611c92565b9050602081019050919050565b82818337600083830152505050565b6000611e56611e5184611e03565b611de8565b905082815260208101848484011115611e7257611e71611d83565b5b611e7d848285611e34565b509392505050565b600082601f830112611e9a57611e99611d7e565b5b8135611eaa848260208601611e43565b91505092915050565b600080600060608486031215611ecc57611ecb611d08565b5b6000611eda86828701611d33565b9350506020611eeb86828701611d69565b925050604084013567ffffffffffffffff811115611f0c57611f0b611d0d565b5b611f1886828701611e85565b9150509250925092565b611f2b81611c10565b8114611f3657600080fd5b50565b600081359050611f4881611f22565b92915050565b600080600060608486031215611f6757611f66611d08565b5b6000611f7586828701611d69565b935050602084013567ffffffffffffffff811115611f9657611f95611d0d565b5b611fa286828701611e85565b9250506040611fb386828701611f39565b9150509250925092565b60007fffffffff0000000000000000000000000000000000000000000000000000000082169050919050565b611ff281611fbd565b8114611ffd57600080fd5b50565b60008135905061200f81611fe9565b92915050565b6000806000806080858703121561202f5761202e611d08565b5b600061203d87828801611d33565b945050602061204e87828801611d69565b935050604061205f87828801612000565b925050606061207087828801611d69565b91505092959194509250565b60006020828403121561209257612091611d08565b5b60006120a084828501611f39565b91505092915050565b7f4e487b7100000000000000000000000000000000000000000000000000000000600052602260045260246000fd5b600060028204905060018216806120f057607f821691505b602082108103612103576121026120a9565b5b50919050565b7f4d7573742062652070726f706f736564206f776e657200000000000000000000600082015250565b600061213f601683611c57565b915061214a82612109565b602082019050919050565b6000602082019050818103600083015261216e81612132565b9050919050565b60008151905061218481611d52565b92915050565b6000602082840312156121a05761219f611d08565b5b60006121ae84828501612175565b91505092915050565b6121c081611d48565b82525050565b60006040820190506121db6000830185611c22565b6121e860208301846121b7565b9392505050565b60008115159050919050565b612204816121ef565b811461220f57600080fd5b50565b600081519050612221816121fb565b92915050565b60006020828403121561223d5761223c611d08565b5b600061224b84828501612212565b91505092915050565b7f556e61626c6520746f207472616e736665720000000000000000000000000000600082015250565b600061228a601283611c57565b915061229582612254565b602082019050919050565b600060208201905081810360008301526122b98161227d565b9050919050565b7f536f75726365206d75737420626520746865206f7261636c65206f662074686560008201527f2072657175657374000000000000000000000000000000000000000000000000602082015250565b600061231c602883611c57565b9150612327826122c0565b604082019050919050565b6000602082019050818103600083015261234b8161230f565b9050919050565b600081905092915050565b7f6275796572000000000000000000000000000000000000000000000000000000600082015250565b6000612393600583612352565b915061239e8261235d565b600582019050919050565b60006123b482612386565b9150819050919050565b60006123c982611c4c565b6123d38185612352565b93506123e3818560208601611c68565b80840191505092915050565b60006123fb82846123be565b915081905092915050565b7f6d616e7566616374757265720000000000000000000000000000000000000000600082015250565b600061243c600c83612352565b915061244782612406565b600c82019050919050565b600061245d8261242f565b9150819050919050565b7f57726f6e67206b65790000000000000000000000000000000000000000000000600082015250565b600061249d600983611c57565b91506124a882612467565b602082019050919050565b600060208201905081810360008301526124cc81612490565b9050919050565b60008190508160005260206000209050919050565b600081546124f5816120d8565b6124ff8186612352565b9450600182166000811461251a576001811461252f57612562565b60ff1983168652811515820286019350612562565b612538856124d3565b60005b8381101561255a5781548189015260018201915060208101905061253b565b838801955050505b50505092915050565b6000819050919050565b61258661258182611d48565b61256b565b82525050565b600061259882876124e8565b91506125a482866124e8565b91506125b082856124e8565b91506125bc8284612575565b60208201915081905095945050505050565b7f7b22000000000000000000000000000000000000000000000000000000000000600082015250565b6000612604600283612352565b915061260f826125ce565b600282019050919050565b7f3a00000000000000000000000000000000000000000000000000000000000000600082015250565b6000612650600183612352565b915061265b8261261a565b600182019050919050565b7f7d00000000000000000000000000000000000000000000000000000000000000600082015250565b600061269c600183612352565b91506126a782612666565b600182019050919050565b60006126bd826125f7565b91506126c982856123be565b91506126d482612643565b91506126e082846123be565b91506126eb8261268f565b91508190509392505050565b7f4e487b7100000000000000000000000000000000000000000000000000000000600052601160045260246000fd5b600061273182611d48565b915061273c83611d48565b925082820261274a81611d48565b91508282048414831517612761576127606126f7565b5b5092915050565b7f4e487b7100000000000000000000000000000000000000000000000000000000600052601260045260246000fd5b60006127a282611d48565b91506127ad83611d48565b9250826127bd576127bc612768565b5b828204905092915050565b7f4f6e6c792063616c6c61626c65206279206f776e657200000000000000000000600082015250565b60006127fe601683611c57565b9150612809826127c8565b602082019050919050565b6000602082019050818103600083015261282d816127f1565b9050919050565b600061283f82611d48565b915061284a83611d48565b9250828201905080821115612862576128616126f7565b5b92915050565b7f4e487b7100000000000000000000000000000000000000000000000000000000600052603260045260246000fd5b60006128a282611d48565b9150600082036128b5576128b46126f7565b5b600182039050919050565b7f537472696e67733a20686578206c656e67746820696e73756666696369656e74600082015250565b60006128f6602083611c57565b9150612901826128c0565b602082019050919050565b60006020820190508181036000830152612925816128e9565b9050919050565b61293581611d12565b82525050565b61294481611fbd565b82525050565b600081519050919050565b600082825260208201905092915050565b60006129718261294a565b61297b8185612955565b935061298b818560208601611c68565b61299481611c92565b840191505092915050565b6000610100820190506129b5600083018b611c22565b6129c2602083018a6121b7565b6129cf604083018961292c565b6129dc6060830188611c22565b6129e9608083018761293b565b6129f660a08301866121b7565b612a0360c08301856121b7565b81810360e0830152612a158184612966565b90509998505050505050505050565b6000608082019050612a39600083018761292c565b612a4660208301866121b7565b612a53604083018561293b565b612a6060608301846121b7565b95945050505050565b7f43616e6e6f74207472616e7366657220746f2073656c66000000000000000000600082015250565b6000612a9f601783611c57565b9150612aaa82612a69565b602082019050919050565b60006020820190508181036000830152612ace81612a92565b9050919050565b6000819050919050565b6000612afa612af5612af084611bf0565b612ad5565b611bf0565b9050919050565b6000612b0c82612adf565b9050919050565b6000612b1e82612b01565b9050919050565b60008160601b9050919050565b6000612b3d82612b25565b9050919050565b6000612b4f82612b32565b9050919050565b612b67612b6282612b13565b612b44565b82525050565b6000612b798285612b56565b601482019150612b898284612575565b6020820191508190509392505050565b6000606082019050612bae6000830186611c22565b612bbb60208301856121b7565b8181036040830152612bcd8184612966565b9050949350505050565b7f756e61626c6520746f207472616e73666572416e6443616c6c20746f206f726160008201527f636c650000000000000000000000000000000000000000000000000000000000602082015250565b6000612c33602383611c57565b9150612c3e82612bd7565b604082019050919050565b60006020820190508181036000830152612c6281612c26565b9050919050565b6000612c7482611d48565b9150612c7f83611d48565b925082612c8f57612c8e612768565b5b828206905092915050565b6000612ca582611d48565b9150612cb083611d48565b9250828203905081811115612cc857612cc76126f7565b5b92915050565b60008160011c9050919050565b6000808291508390505b6001851115612d2557808604811115612d0157612d006126f7565b5b6001851615612d105780820291505b8081029050612d1e85612cce565b9450612ce5565b94509492505050565b600082612d3e5760019050612dfa565b81612d4c5760009050612dfa565b8160018114612d625760028114612d6c57612d9b565b6001915050612dfa565b60ff841115612d7e57612d7d6126f7565b5b8360020a915084821115612d9557612d946126f7565b5b50612dfa565b5060208310610133831016604e8410600b8410161715612dd05782820a905083811115612dcb57612dca6126f7565b5b612dfa565b612ddd8484846001612cdb565b92509050818404811115612df457612df36126f7565b5b81810290505b9392505050565b6000612e0c82611d48565b9150612e1783611d48565b9250612e447fffffffffffffffffffffffffffffffffffffffffffffffffffffffffffffffff8484612d2e565b90509291505056fea2646970667358221220a44dde619c2d58c92b5a62f45ea1ddbe056ce29e295624f09f6aeddb4c3f6d9e64736f6c63430008130033",
  "immutableReferences": {},
  "source": "// SPDX-License-Identifier: MIT\npragma solidity ^0.8.18;\n\nimport \"@openzeppelin/contracts/utils/Strings.sol\";\n\nimport \"@chainlink/contracts/src/v0.8/ChainlinkClient.sol\";\nimport \"@chainlink/contracts/src/v0.8/ConfirmedOwner.sol\";\n\ncontract CustomChainlinkClient is ChainlinkClient, ConfirmedOwner {\n    using Chainlink for Chainlink.Request;\n         \n    string public _base_url_1 = \"http://\";\n    string public _base_url_2 = \":3000/api/v1/nfts/\";\n\n    uint256 private constant ORACLE_PAYMENT = (1 * LINK_DIVISIBILITY) / 10; // 0.1 * 10**18\n\n    string _host_machine_ip;\n    address _oracle;\n    string _jobId;\n    \n    event RequestConfirmMintingFulfilled(\n        uint256 indexed tokenId,\n        string success\n    );\n\n    event RequestUpdateFulfilled(\n        uint256 indexed tokenId,\n        string success\n    );\n\n    constructor(string memory hostMachineIp, address oracle, string memory jobId) ConfirmedOwner(msg.sender) {\n\n        // Set LINK token address for Sepolia network \n        setChainlinkToken(0x779877A7B0D9E8603169DdbD7836e478b4624789);\n        _host_machine_ip = hostMachineIp;\n        _oracle = oracle;\n        _jobId = jobId;\n\n    }\n    \n    //called inside the mint function\n    //internal modifier is used to allow the function to be called only from the contract itself\n    function requestConfirmMinting(uint256 _tokenId, string memory _hash) internal onlyOwner {\n\n        Chainlink.Request memory req = buildChainlinkRequest(\n            stringToBytes32(_jobId),\n            address(this),\n            this.fulfillConfirmMinting.selector\n        );\n\n        req.add(\"url\", string(abi.encodePacked(_base_url_1, _host_machine_ip, _base_url_2, _hash)));\n        //req.add(\"method\", \"PUT\"); already in TOML of the node\n        //req.add(\"headers\", \"Content-Type: application/json\"); omit for now\n        req.add(\n            \"body\",\n            string(abi.encodePacked('{\"tokenId\":',Strings.toString(_tokenId),'}'))\n        );\n        req.add(\"tokenId\", Strings.toString(_tokenId));\n\n        sendChainlinkRequestTo(_oracle, req, ORACLE_PAYMENT);\n\n    }\n\n    function fulfillConfirmMinting(\n        bytes32 _requestId,\n        uint256 _tokenId,\n        string memory _success\n    ) public recordChainlinkFulfillment(_requestId) {\n\n        emit RequestConfirmMintingFulfilled(_tokenId ,_success);\n    }\n\n    function requestUpdate(\n        uint256 _tokenId,\n        string memory _key,\n        address _assignee\n    ) public onlyOwner {\n\n        //_key must be \"buyer\" or \"manufacturer\"\n        require(\n            keccak256(abi.encodePacked(_key)) == keccak256(abi.encodePacked(\"buyer\")) ||\n            keccak256(abi.encodePacked(_key)) == keccak256(abi.encodePacked(\"manufacturer\")),\n            \"Wrong key\"\n        );\n\n        Chainlink.Request memory req = buildChainlinkRequest(\n            stringToBytes32(_jobId),\n            address(this),\n            this.fulfillRequestUpdate.selector\n        );\n\n        req.add(\"url\", string(abi.encodePacked(_base_url_1, _host_machine_ip, _base_url_2, _tokenId)));\n        //req.add(\"method\", \"PUT\"); already in TOML of the node\n        //req.add(\"headers\", \"Content-Type: application/json\"); omit for now\n        \n        req.add(\n            \"body\",\n            string(abi.encodePacked('{\"', _key, ':', Strings.toHexString(uint256(uint160(_assignee)), 20),'}'))\n            //string(abi.encodePacked('{\"', _key, ':', _assignee,'}')) //to be tested\n        );\n        req.add(\"tokenId\", Strings.toString(_tokenId));\n\n        sendChainlinkRequestTo(_oracle, req, ORACLE_PAYMENT);\n    }\n\n    function fulfillRequestUpdate(\n        bytes32 _requestId,\n        uint256 _tokenId,\n        string memory _success\n    ) public recordChainlinkFulfillment(_requestId) {\n\n        emit RequestUpdateFulfilled(_tokenId ,_success);\n    }\n\n    function getChainlinkToken() public view returns (address) {\n        return chainlinkTokenAddress();\n    }\n\n    function withdrawLink() public onlyOwner {\n        LinkTokenInterface link = LinkTokenInterface(chainlinkTokenAddress());\n        require(link.transfer(msg.sender, link.balanceOf(address(this))), \"Unable to transfer\");\n    }\n\n    function cancelRequest(\n        bytes32 _requestId,\n        uint256 _payment,\n        bytes4 _callbackFunctionId,\n        uint256 _expiration\n    ) public onlyOwner {\n        cancelChainlinkRequest(\n            _requestId,\n            _payment,\n            _callbackFunctionId,\n            _expiration\n        );\n    }\n\n    function stringToBytes32(\n        string memory source\n    ) private pure returns (bytes32 result) {\n        bytes memory tempEmptyStringTest = bytes(source);\n        if (tempEmptyStringTest.length == 0) {\n            return 0x0;\n        }\n        assembly {\n            // solhint-disable-line no-inline-assembly\n            result := mload(add(source, 32))\n        }\n    }\n}\n",
  "sourcePath": "/Users/leonardovicentini/Desktop/Magistrale/Blockchain/blockchain-project/contracts/CustomChainlinkClient.sol",
  "compiler": {
    "name": "solc",
    "version": "0.8.19+commit.7dd6d404.Emscripten.clang"
  },
  "schemaVersion": "3.4.13",
  "updatedAt": "2023-06-26T22:14:21.755Z",
  "devdoc": {
    "kind": "dev",
    "methods": {},
    "version": 1
  },
  "userdoc": {
    "kind": "user",
    "methods": {
      "acceptOwnership()": {
        "notice": "Allows an ownership transfer to be completed by the recipient."
      },
      "owner()": {
        "notice": "Get the current owner"
      },
      "transferOwnership(address)": {
        "notice": "Allows an owner to begin transferring ownership to a new address, pending."
      }
    },
    "version": 1
  }
}