{
  "contractName": "DesignerNFT",
  "abi": [
    {
      "inputs": [
        {
          "internalType": "string",
          "name": "_projectId",
          "type": "string"
        },
        {
          "internalType": "address",
          "name": "_owner",
          "type": "address"
        },
        {
          "internalType": "address[]",
          "name": "_components",
          "type": "address[]"
        }
      ],
      "stateMutability": "nonpayable",
      "type": "constructor"
    },
    {
      "anonymous": false,
      "inputs": [
        {
          "indexed": true,
          "internalType": "address",
          "name": "owner",
          "type": "address"
        },
        {
          "indexed": true,
          "internalType": "address",
          "name": "approved",
          "type": "address"
        },
        {
          "indexed": true,
          "internalType": "uint256",
          "name": "tokenId",
          "type": "uint256"
        }
      ],
      "name": "Approval",
      "type": "event"
    },
    {
      "anonymous": false,
      "inputs": [
        {
          "indexed": true,
          "internalType": "address",
          "name": "owner",
          "type": "address"
        },
        {
          "indexed": true,
          "internalType": "address",
          "name": "operator",
          "type": "address"
        },
        {
          "indexed": false,
          "internalType": "bool",
          "name": "approved",
          "type": "bool"
        }
      ],
      "name": "ApprovalForAll",
      "type": "event"
    },
    {
      "anonymous": false,
      "inputs": [
        {
          "indexed": false,
          "internalType": "uint256",
          "name": "_fromTokenId",
          "type": "uint256"
        },
        {
          "indexed": false,
          "internalType": "uint256",
          "name": "_toTokenId",
          "type": "uint256"
        }
      ],
      "name": "BatchMetadataUpdate",
      "type": "event"
    },
    {
      "anonymous": false,
      "inputs": [
        {
          "indexed": false,
          "internalType": "uint256",
          "name": "_tokenId",
          "type": "uint256"
        }
      ],
      "name": "MetadataUpdate",
      "type": "event"
    },
    {
      "anonymous": false,
      "inputs": [
        {
          "indexed": true,
          "internalType": "address",
          "name": "from",
          "type": "address"
        },
        {
          "indexed": true,
          "internalType": "address",
          "name": "to",
          "type": "address"
        },
        {
          "indexed": true,
          "internalType": "uint256",
          "name": "tokenId",
          "type": "uint256"
        }
      ],
      "name": "Transfer",
      "type": "event"
    },
    {
      "inputs": [
        {
          "internalType": "address",
          "name": "to",
          "type": "address"
        },
        {
          "internalType": "uint256",
          "name": "tokenId",
          "type": "uint256"
        }
      ],
      "name": "approve",
      "outputs": [],
      "stateMutability": "nonpayable",
      "type": "function"
    },
    {
      "inputs": [
        {
          "internalType": "address",
          "name": "owner",
          "type": "address"
        }
      ],
      "name": "balanceOf",
      "outputs": [
        {
          "internalType": "uint256",
          "name": "",
          "type": "uint256"
        }
      ],
      "stateMutability": "view",
      "type": "function"
    },
    {
      "inputs": [
        {
          "internalType": "uint256",
          "name": "tokenId",
          "type": "uint256"
        }
      ],
      "name": "getApproved",
      "outputs": [
        {
          "internalType": "address",
          "name": "",
          "type": "address"
        }
      ],
      "stateMutability": "view",
      "type": "function"
    },
    {
      "inputs": [],
      "name": "getComponents",
      "outputs": [
        {
          "internalType": "address[]",
          "name": "",
          "type": "address[]"
        }
      ],
      "stateMutability": "view",
      "type": "function"
    },
    {
      "inputs": [],
      "name": "getOwner",
      "outputs": [
        {
          "internalType": "address",
          "name": "",
          "type": "address"
        }
      ],
      "stateMutability": "view",
      "type": "function"
    },
    {
      "inputs": [],
      "name": "getProjectId",
      "outputs": [
        {
          "internalType": "string",
          "name": "",
          "type": "string"
        }
      ],
      "stateMutability": "view",
      "type": "function"
    },
    {
      "inputs": [
        {
          "internalType": "address",
          "name": "owner",
          "type": "address"
        },
        {
          "internalType": "address",
          "name": "operator",
          "type": "address"
        }
      ],
      "name": "isApprovedForAll",
      "outputs": [
        {
          "internalType": "bool",
          "name": "",
          "type": "bool"
        }
      ],
      "stateMutability": "view",
      "type": "function"
    },
    {
      "inputs": [],
      "name": "name",
      "outputs": [
        {
          "internalType": "string",
          "name": "",
          "type": "string"
        }
      ],
      "stateMutability": "view",
      "type": "function"
    },
    {
      "inputs": [
        {
          "internalType": "uint256",
          "name": "tokenId",
          "type": "uint256"
        }
      ],
      "name": "ownerOf",
      "outputs": [
        {
          "internalType": "address",
          "name": "",
          "type": "address"
        }
      ],
      "stateMutability": "view",
      "type": "function"
    },
    {
      "inputs": [
        {
          "internalType": "address",
          "name": "from",
          "type": "address"
        },
        {
          "internalType": "address",
          "name": "to",
          "type": "address"
        },
        {
          "internalType": "uint256",
          "name": "tokenId",
          "type": "uint256"
        }
      ],
      "name": "safeTransferFrom",
      "outputs": [],
      "stateMutability": "nonpayable",
      "type": "function"
    },
    {
      "inputs": [
        {
          "internalType": "address",
          "name": "from",
          "type": "address"
        },
        {
          "internalType": "address",
          "name": "to",
          "type": "address"
        },
        {
          "internalType": "uint256",
          "name": "tokenId",
          "type": "uint256"
        },
        {
          "internalType": "bytes",
          "name": "data",
          "type": "bytes"
        }
      ],
      "name": "safeTransferFrom",
      "outputs": [],
      "stateMutability": "nonpayable",
      "type": "function"
    },
    {
      "inputs": [
        {
          "internalType": "address",
          "name": "operator",
          "type": "address"
        },
        {
          "internalType": "bool",
          "name": "approved",
          "type": "bool"
        }
      ],
      "name": "setApprovalForAll",
      "outputs": [],
      "stateMutability": "nonpayable",
      "type": "function"
    },
    {
      "inputs": [
        {
          "internalType": "address[]",
          "name": "_components",
          "type": "address[]"
        }
      ],
      "name": "setComponents",
      "outputs": [],
      "stateMutability": "nonpayable",
      "type": "function"
    },
    {
      "inputs": [
        {
          "internalType": "address",
          "name": "_owner",
          "type": "address"
        }
      ],
      "name": "setOwner",
      "outputs": [],
      "stateMutability": "nonpayable",
      "type": "function"
    },
    {
      "inputs": [
        {
          "internalType": "string",
          "name": "_projectId",
          "type": "string"
        }
      ],
      "name": "setProjectId",
      "outputs": [],
      "stateMutability": "nonpayable",
      "type": "function"
    },
    {
      "inputs": [
        {
          "internalType": "bytes4",
          "name": "interfaceId",
          "type": "bytes4"
        }
      ],
      "name": "supportsInterface",
      "outputs": [
        {
          "internalType": "bool",
          "name": "",
          "type": "bool"
        }
      ],
      "stateMutability": "view",
      "type": "function"
    },
    {
      "inputs": [],
      "name": "symbol",
      "outputs": [
        {
          "internalType": "string",
          "name": "",
          "type": "string"
        }
      ],
      "stateMutability": "view",
      "type": "function"
    },
    {
      "inputs": [
        {
          "internalType": "uint256",
          "name": "tokenId",
          "type": "uint256"
        }
      ],
      "name": "tokenURI",
      "outputs": [
        {
          "internalType": "string",
          "name": "",
          "type": "string"
        }
      ],
      "stateMutability": "view",
      "type": "function"
    },
    {
      "inputs": [
        {
          "internalType": "address",
          "name": "from",
          "type": "address"
        },
        {
          "internalType": "address",
          "name": "to",
          "type": "address"
        },
        {
          "internalType": "uint256",
          "name": "tokenId",
          "type": "uint256"
        }
      ],
      "name": "transferFrom",
      "outputs": [],
      "stateMutability": "nonpayable",
      "type": "function"
    },
    {
      "inputs": [
        {
          "internalType": "string",
          "name": "tokenURI",
          "type": "string"
        }
      ],
      "name": "mint",
      "outputs": [
        {
          "internalType": "uint256",
          "name": "",
          "type": "uint256"
        }
      ],
      "stateMutability": "nonpayable",
      "type": "function"
    }
  ],
  "bytecode": "0x60806040523480156200001157600080fd5b5060405162003901380380620039018339818101604052810190620000379190620004fb565b6040518060400160405280600b81526020017f44657369676e65724e46540000000000000000000000000000000000000000008152506040518060400160405280600481526020017f444e4654000000000000000000000000000000000000000000000000000000008152508160009081620000b49190620007e0565b508060019081620000c69190620007e0565b505050620000da836200010560201b60201c565b620000eb826200011a60201b60201c565b620000fc816200015e60201b60201c565b505050620008c7565b8060079081620001169190620007e0565b5050565b80600860006101000a81548173ffffffffffffffffffffffffffffffffffffffff021916908373ffffffffffffffffffffffffffffffffffffffff16021790555050565b8060099080519060200190620001769291906200017a565b5050565b828054828255906000526020600020908101928215620001f6579160200282015b82811115620001f55782518260006101000a81548173ffffffffffffffffffffffffffffffffffffffff021916908373ffffffffffffffffffffffffffffffffffffffff160217905550916020019190600101906200019b565b5b50905062000205919062000209565b5090565b5b80821115620002245760008160009055506001016200020a565b5090565b6000604051905090565b600080fd5b600080fd5b600080fd5b600080fd5b6000601f19601f8301169050919050565b7f4e487b7100000000000000000000000000000000000000000000000000000000600052604160045260246000fd5b620002918262000246565b810181811067ffffffffffffffff82111715620002b357620002b262000257565b5b80604052505050565b6000620002c862000228565b9050620002d6828262000286565b919050565b600067ffffffffffffffff821115620002f957620002f862000257565b5b620003048262000246565b9050602081019050919050565b60005b838110156200033157808201518184015260208101905062000314565b60008484015250505050565b6000620003546200034e84620002db565b620002bc565b90508281526020810184848401111562000373576200037262000241565b5b6200038084828562000311565b509392505050565b600082601f830112620003a0576200039f6200023c565b5b8151620003b28482602086016200033d565b91505092915050565b600073ffffffffffffffffffffffffffffffffffffffff82169050919050565b6000620003e882620003bb565b9050919050565b620003fa81620003db565b81146200040657600080fd5b50565b6000815190506200041a81620003ef565b92915050565b600067ffffffffffffffff8211156200043e576200043d62000257565b5b602082029050602081019050919050565b600080fd5b60006200046b620004658462000420565b620002bc565b905080838252602082019050602084028301858111156200049157620004906200044f565b5b835b81811015620004be5780620004a9888262000409565b84526020840193505060208101905062000493565b5050509392505050565b600082601f830112620004e057620004df6200023c565b5b8151620004f284826020860162000454565b91505092915050565b60008060006060848603121562000517576200051662000232565b5b600084015167ffffffffffffffff81111562000538576200053762000237565b5b620005468682870162000388565b9350506020620005598682870162000409565b925050604084015167ffffffffffffffff8111156200057d576200057c62000237565b5b6200058b86828701620004c8565b9150509250925092565b600081519050919050565b7f4e487b7100000000000000000000000000000000000000000000000000000000600052602260045260246000fd5b60006002820490506001821680620005e857607f821691505b602082108103620005fe57620005fd620005a0565b5b50919050565b60008190508160005260206000209050919050565b60006020601f8301049050919050565b600082821b905092915050565b600060088302620006687fffffffffffffffffffffffffffffffffffffffffffffffffffffffffffffffff8262000629565b62000674868362000629565b95508019841693508086168417925050509392505050565b6000819050919050565b6000819050919050565b6000620006c1620006bb620006b5846200068c565b62000696565b6200068c565b9050919050565b6000819050919050565b620006dd83620006a0565b620006f5620006ec82620006c8565b84845462000636565b825550505050565b600090565b6200070c620006fd565b62000719818484620006d2565b505050565b5b8181101562000741576200073560008262000702565b6001810190506200071f565b5050565b601f82111562000790576200075a8162000604565b620007658462000619565b8101602085101562000775578190505b6200078d620007848562000619565b8301826200071e565b50505b505050565b600082821c905092915050565b6000620007b56000198460080262000795565b1980831691505092915050565b6000620007d08383620007a2565b9150826002028217905092915050565b620007eb8262000595565b67ffffffffffffffff81111562000807576200080662000257565b5b620008138254620005cf565b6200082082828562000745565b600060209050601f83116001811462000858576000841562000843578287015190505b6200084f8582620007c2565b865550620008bf565b601f198416620008688662000604565b60005b8281101562000892578489015182556001820191506020850194506020810190506200086b565b86831015620008b25784890151620008ae601f891682620007a2565b8355505b6001600288020188555050505b505050505050565b61302a80620008d76000396000f3fe608060405234801561001057600080fd5b506004361061012c5760003560e01c806370a08231116100ad578063b88d4fde11610071578063b88d4fde1461032f578063c87b56dd1461034b578063d85d3d271461037b578063e985e9c5146103ab578063f856ba57146103db5761012c565b806370a0823114610289578063893d20e8146102b957806395d89b41146102d757806399d50d5d146102f5578063a22cb465146103135761012c565b806313af4035116100f457806313af4035146101e957806323b872dd1461020557806342842e0e146102215780635eb0ac1a1461023d5780636352211e146102595761012c565b806301ffc9a71461013157806306fdde0314610161578063081812fc1461017f578063095ea7b3146101af5780631270e10c146101cb575b600080fd5b61014b60048036038101906101469190611d24565b6103f7565b6040516101589190611d6c565b60405180910390f35b610169610458565b6040516101769190611e17565b60405180910390f35b61019960048036038101906101949190611e6f565b6104ea565b6040516101a69190611edd565b60405180910390f35b6101c960048036038101906101c49190611f24565b610530565b005b6101d3610647565b6040516101e09190611e17565b60405180910390f35b61020360048036038101906101fe9190611f64565b6106d9565b005b61021f600480360381019061021a9190611f91565b61071d565b005b61023b60048036038101906102369190611f91565b61077d565b005b6102576004803603810190610252919061212c565b61079d565b005b610273600480360381019061026e9190611e6f565b6107b7565b6040516102809190611edd565b60405180910390f35b6102a3600480360381019061029e9190611f64565b61083d565b6040516102b09190612184565b60405180910390f35b6102c16108f4565b6040516102ce9190611edd565b60405180910390f35b6102df61091e565b6040516102ec9190611e17565b60405180910390f35b6102fd6109b0565b60405161030a919061225d565b60405180910390f35b61032d600480360381019061032891906122ab565b610a3e565b005b610349600480360381019061034491906123a0565b610a54565b005b61036560048036038101906103609190611e6f565b610ab6565b6040516103729190611e17565b60405180910390f35b610395600480360381019061039091906124c4565b610bc8565b6040516103a29190612184565b60405180910390f35b6103c560048036038101906103c0919061250d565b610c27565b6040516103d29190611d6c565b60405180910390f35b6103f560048036038101906103f091906124c4565b610cbb565b005b6000634906490660e01b7bffffffffffffffffffffffffffffffffffffffffffffffffffffffff1916827bffffffffffffffffffffffffffffffffffffffffffffffffffffffff19161480610451575061045082610cce565b5b9050919050565b6060600080546104679061257c565b80601f01602080910402602001604051908101604052809291908181526020018280546104939061257c565b80156104e05780601f106104b5576101008083540402835291602001916104e0565b820191906000526020600020905b8154815290600101906020018083116104c357829003601f168201915b5050505050905090565b60006104f582610db0565b6004600083815260200190815260200160002060009054906101000a900473ffffffffffffffffffffffffffffffffffffffff169050919050565b600061053b826107b7565b90508073ffffffffffffffffffffffffffffffffffffffff168373ffffffffffffffffffffffffffffffffffffffff16036105ab576040517f08c379a00000000000000000000000000000000000000000000000000000000081526004016105a29061261f565b60405180910390fd5b8073ffffffffffffffffffffffffffffffffffffffff166105ca610dfb565b73ffffffffffffffffffffffffffffffffffffffff1614806105f957506105f8816105f3610dfb565b610c27565b5b610638576040517f08c379a000000000000000000000000000000000000000000000000000000000815260040161062f906126b1565b60405180910390fd5b6106428383610e03565b505050565b6060600780546106569061257c565b80601f01602080910402602001604051908101604052809291908181526020018280546106829061257c565b80156106cf5780601f106106a4576101008083540402835291602001916106cf565b820191906000526020600020905b8154815290600101906020018083116106b257829003601f168201915b5050505050905090565b80600860006101000a81548173ffffffffffffffffffffffffffffffffffffffff021916908373ffffffffffffffffffffffffffffffffffffffff16021790555050565b61072e610728610dfb565b82610ebc565b61076d576040517f08c379a000000000000000000000000000000000000000000000000000000000815260040161076490612743565b60405180910390fd5b610778838383610f51565b505050565b61079883838360405180602001604052806000815250610a54565b505050565b80600990805190602001906107b3929190611c11565b5050565b6000806107c38361124a565b9050600073ffffffffffffffffffffffffffffffffffffffff168173ffffffffffffffffffffffffffffffffffffffff1603610834576040517f08c379a000000000000000000000000000000000000000000000000000000000815260040161082b906127af565b60405180910390fd5b80915050919050565b60008073ffffffffffffffffffffffffffffffffffffffff168273ffffffffffffffffffffffffffffffffffffffff16036108ad576040517f08c379a00000000000000000000000000000000000000000000000000000000081526004016108a490612841565b60405180910390fd5b600360008373ffffffffffffffffffffffffffffffffffffffff1673ffffffffffffffffffffffffffffffffffffffff168152602001908152602001600020549050919050565b6000600860009054906101000a900473ffffffffffffffffffffffffffffffffffffffff16905090565b60606001805461092d9061257c565b80601f01602080910402602001604051908101604052809291908181526020018280546109599061257c565b80156109a65780601f1061097b576101008083540402835291602001916109a6565b820191906000526020600020905b81548152906001019060200180831161098957829003601f168201915b5050505050905090565b60606009805480602002602001604051908101604052809291908181526020018280548015610a3457602002820191906000526020600020905b8160009054906101000a900473ffffffffffffffffffffffffffffffffffffffff1673ffffffffffffffffffffffffffffffffffffffff16815260200190600101908083116109ea575b5050505050905090565b610a50610a49610dfb565b8383611287565b5050565b610a65610a5f610dfb565b83610ebc565b610aa4576040517f08c379a0000000000000000000000000000000000000000000000000000000008152600401610a9b90612743565b60405180910390fd5b610ab0848484846113f3565b50505050565b6060610ac182610db0565b6000600660008481526020019081526020016000208054610ae19061257c565b80601f0160208091040260200160405190810160405280929190818152602001828054610b0d9061257c565b8015610b5a5780601f10610b2f57610100808354040283529160200191610b5a565b820191906000526020600020905b815481529060010190602001808311610b3d57829003601f168201915b505050505090506000610b6b61144f565b90506000815103610b80578192505050610bc3565b600082511115610bb5578082604051602001610b9d92919061289d565b60405160208183030381529060405292505050610bc3565b610bbe84611466565b925050505b919050565b600080610bd3610647565b9050600081604051602001610be891906128c1565b60405160208183030381529060405280519060200120905060008160001c9050610c1233826114ce565b610c1c81866116eb565b809350505050919050565b6000600560008473ffffffffffffffffffffffffffffffffffffffff1673ffffffffffffffffffffffffffffffffffffffff16815260200190815260200160002060008373ffffffffffffffffffffffffffffffffffffffff1673ffffffffffffffffffffffffffffffffffffffff16815260200190815260200160002060009054906101000a900460ff16905092915050565b8060079081610cca9190612a84565b5050565b60007f80ac58cd000000000000000000000000000000000000000000000000000000007bffffffffffffffffffffffffffffffffffffffffffffffffffffffff1916827bffffffffffffffffffffffffffffffffffffffffffffffffffffffff19161480610d9957507f5b5e139f000000000000000000000000000000000000000000000000000000007bffffffffffffffffffffffffffffffffffffffffffffffffffffffff1916827bffffffffffffffffffffffffffffffffffffffffffffffffffffffff1916145b80610da95750610da88261178f565b5b9050919050565b610db9816117f9565b610df8576040517f08c379a0000000000000000000000000000000000000000000000000000000008152600401610def906127af565b60405180910390fd5b50565b600033905090565b816004600083815260200190815260200160002060006101000a81548173ffffffffffffffffffffffffffffffffffffffff021916908373ffffffffffffffffffffffffffffffffffffffff160217905550808273ffffffffffffffffffffffffffffffffffffffff16610e76836107b7565b73ffffffffffffffffffffffffffffffffffffffff167f8c5be1e5ebec7d5bd14f71427d1e84f3dd0314c0f7b2291e5b200ac8c7c3b92560405160405180910390a45050565b600080610ec8836107b7565b90508073ffffffffffffffffffffffffffffffffffffffff168473ffffffffffffffffffffffffffffffffffffffff161480610f0a5750610f098185610c27565b5b80610f4857508373ffffffffffffffffffffffffffffffffffffffff16610f30846104ea565b73ffffffffffffffffffffffffffffffffffffffff16145b91505092915050565b8273ffffffffffffffffffffffffffffffffffffffff16610f71826107b7565b73ffffffffffffffffffffffffffffffffffffffff1614610fc7576040517f08c379a0000000000000000000000000000000000000000000000000000000008152600401610fbe90612bc8565b60405180910390fd5b600073ffffffffffffffffffffffffffffffffffffffff168273ffffffffffffffffffffffffffffffffffffffff1603611036576040517f08c379a000000000000000000000000000000000000000000000000000000000815260040161102d90612c5a565b60405180910390fd5b611043838383600161183a565b8273ffffffffffffffffffffffffffffffffffffffff16611063826107b7565b73ffffffffffffffffffffffffffffffffffffffff16146110b9576040517f08c379a00000000000000000000000000000000000000000000000000000000081526004016110b090612bc8565b60405180910390fd5b6004600082815260200190815260200160002060006101000a81549073ffffffffffffffffffffffffffffffffffffffff02191690556001600360008573ffffffffffffffffffffffffffffffffffffffff1673ffffffffffffffffffffffffffffffffffffffff168152602001908152602001600020600082825403925050819055506001600360008473ffffffffffffffffffffffffffffffffffffffff1673ffffffffffffffffffffffffffffffffffffffff16815260200190815260200160002060008282540192505081905550816002600083815260200190815260200160002060006101000a81548173ffffffffffffffffffffffffffffffffffffffff021916908373ffffffffffffffffffffffffffffffffffffffff160217905550808273ffffffffffffffffffffffffffffffffffffffff168473ffffffffffffffffffffffffffffffffffffffff167fddf252ad1be2c89b69c2b068fc378daa952ba7f163c4a11628f55a4df523b3ef60405160405180910390a46112458383836001611840565b505050565b60006002600083815260200190815260200160002060009054906101000a900473ffffffffffffffffffffffffffffffffffffffff169050919050565b8173ffffffffffffffffffffffffffffffffffffffff168373ffffffffffffffffffffffffffffffffffffffff16036112f5576040517f08c379a00000000000000000000000000000000000000000000000000000000081526004016112ec90612cc6565b60405180910390fd5b80600560008573ffffffffffffffffffffffffffffffffffffffff1673ffffffffffffffffffffffffffffffffffffffff16815260200190815260200160002060008473ffffffffffffffffffffffffffffffffffffffff1673ffffffffffffffffffffffffffffffffffffffff16815260200190815260200160002060006101000a81548160ff0219169083151502179055508173ffffffffffffffffffffffffffffffffffffffff168373ffffffffffffffffffffffffffffffffffffffff167f17307eab39ab6107e8899845ad3d59bd9653f200f220920489ca2b5937696c31836040516113e69190611d6c565b60405180910390a3505050565b6113fe848484610f51565b61140a84848484611846565b611449576040517f08c379a000000000000000000000000000000000000000000000000000000000815260040161144090612d58565b60405180910390fd5b50505050565b606060405180602001604052806000815250905090565b606061147182610db0565b600061147b61144f565b9050600081511161149b57604051806020016040528060008152506114c6565b806114a5846119cd565b6040516020016114b692919061289d565b6040516020818303038152906040525b915050919050565b600073ffffffffffffffffffffffffffffffffffffffff168273ffffffffffffffffffffffffffffffffffffffff160361153d576040517f08c379a000000000000000000000000000000000000000000000000000000000815260040161153490612dc4565b60405180910390fd5b611546816117f9565b15611586576040517f08c379a000000000000000000000000000000000000000000000000000000000815260040161157d90612e30565b60405180910390fd5b61159460008383600161183a565b61159d816117f9565b156115dd576040517f08c379a00000000000000000000000000000000000000000000000000000000081526004016115d490612e30565b60405180910390fd5b6001600360008473ffffffffffffffffffffffffffffffffffffffff1673ffffffffffffffffffffffffffffffffffffffff16815260200190815260200160002060008282540192505081905550816002600083815260200190815260200160002060006101000a81548173ffffffffffffffffffffffffffffffffffffffff021916908373ffffffffffffffffffffffffffffffffffffffff160217905550808273ffffffffffffffffffffffffffffffffffffffff16600073ffffffffffffffffffffffffffffffffffffffff167fddf252ad1be2c89b69c2b068fc378daa952ba7f163c4a11628f55a4df523b3ef60405160405180910390a46116e7600083836001611840565b5050565b6116f4826117f9565b611733576040517f08c379a000000000000000000000000000000000000000000000000000000000815260040161172a90612ec2565b60405180910390fd5b806006600084815260200190815260200160002090816117539190612a84565b507ff8e1a15aba9398e019f0b49df1a4fde98ee17ae345cb5f6b5e2c27f5033e8ce7826040516117839190612184565b60405180910390a15050565b60007f01ffc9a7000000000000000000000000000000000000000000000000000000007bffffffffffffffffffffffffffffffffffffffffffffffffffffffff1916827bffffffffffffffffffffffffffffffffffffffffffffffffffffffff1916149050919050565b60008073ffffffffffffffffffffffffffffffffffffffff1661181b8361124a565b73ffffffffffffffffffffffffffffffffffffffff1614159050919050565b50505050565b50505050565b60006118678473ffffffffffffffffffffffffffffffffffffffff16611a9b565b156119c0578373ffffffffffffffffffffffffffffffffffffffff1663150b7a02611890610dfb565b8786866040518563ffffffff1660e01b81526004016118b29493929190612f37565b6020604051808303816000875af19250505080156118ee57506040513d601f19601f820116820180604052508101906118eb9190612f98565b60015b611970573d806000811461191e576040519150601f19603f3d011682016040523d82523d6000602084013e611923565b606091505b506000815103611968576040517f08c379a000000000000000000000000000000000000000000000000000000000815260040161195f90612d58565b60405180910390fd5b805181602001fd5b63150b7a0260e01b7bffffffffffffffffffffffffffffffffffffffffffffffffffffffff1916817bffffffffffffffffffffffffffffffffffffffffffffffffffffffff1916149150506119c5565b600190505b949350505050565b6060600060016119dc84611abe565b01905060008167ffffffffffffffff8111156119fb576119fa611fe9565b5b6040519080825280601f01601f191660200182016040528015611a2d5781602001600182028036833780820191505090505b509050600082602001820190505b600115611a90578080600190039150507f3031323334353637383961626364656600000000000000000000000000000000600a86061a8153600a8581611a8457611a83612fc5565b5b04945060008503611a3b575b819350505050919050565b6000808273ffffffffffffffffffffffffffffffffffffffff163b119050919050565b600080600090507a184f03e93ff9f4daa797ed6e38ed64bf6a1f0100000000000000008310611b1c577a184f03e93ff9f4daa797ed6e38ed64bf6a1f0100000000000000008381611b1257611b11612fc5565b5b0492506040810190505b6d04ee2d6d415b85acef81000000008310611b59576d04ee2d6d415b85acef81000000008381611b4f57611b4e612fc5565b5b0492506020810190505b662386f26fc100008310611b8857662386f26fc100008381611b7e57611b7d612fc5565b5b0492506010810190505b6305f5e1008310611bb1576305f5e1008381611ba757611ba6612fc5565b5b0492506008810190505b6127108310611bd6576127108381611bcc57611bcb612fc5565b5b0492506004810190505b60648310611bf95760648381611bef57611bee612fc5565b5b0492506002810190505b600a8310611c08576001810190505b80915050919050565b828054828255906000526020600020908101928215611c8a579160200282015b82811115611c895782518260006101000a81548173ffffffffffffffffffffffffffffffffffffffff021916908373ffffffffffffffffffffffffffffffffffffffff16021790555091602001919060010190611c31565b5b509050611c979190611c9b565b5090565b5b80821115611cb4576000816000905550600101611c9c565b5090565b6000604051905090565b600080fd5b600080fd5b60007fffffffff0000000000000000000000000000000000000000000000000000000082169050919050565b611d0181611ccc565b8114611d0c57600080fd5b50565b600081359050611d1e81611cf8565b92915050565b600060208284031215611d3a57611d39611cc2565b5b6000611d4884828501611d0f565b91505092915050565b60008115159050919050565b611d6681611d51565b82525050565b6000602082019050611d816000830184611d5d565b92915050565b600081519050919050565b600082825260208201905092915050565b60005b83811015611dc1578082015181840152602081019050611da6565b60008484015250505050565b6000601f19601f8301169050919050565b6000611de982611d87565b611df38185611d92565b9350611e03818560208601611da3565b611e0c81611dcd565b840191505092915050565b60006020820190508181036000830152611e318184611dde565b905092915050565b6000819050919050565b611e4c81611e39565b8114611e5757600080fd5b50565b600081359050611e6981611e43565b92915050565b600060208284031215611e8557611e84611cc2565b5b6000611e9384828501611e5a565b91505092915050565b600073ffffffffffffffffffffffffffffffffffffffff82169050919050565b6000611ec782611e9c565b9050919050565b611ed781611ebc565b82525050565b6000602082019050611ef26000830184611ece565b92915050565b611f0181611ebc565b8114611f0c57600080fd5b50565b600081359050611f1e81611ef8565b92915050565b60008060408385031215611f3b57611f3a611cc2565b5b6000611f4985828601611f0f565b9250506020611f5a85828601611e5a565b9150509250929050565b600060208284031215611f7a57611f79611cc2565b5b6000611f8884828501611f0f565b91505092915050565b600080600060608486031215611faa57611fa9611cc2565b5b6000611fb886828701611f0f565b9350506020611fc986828701611f0f565b9250506040611fda86828701611e5a565b9150509250925092565b600080fd5b7f4e487b7100000000000000000000000000000000000000000000000000000000600052604160045260246000fd5b61202182611dcd565b810181811067ffffffffffffffff821117156120405761203f611fe9565b5b80604052505050565b6000612053611cb8565b905061205f8282612018565b919050565b600067ffffffffffffffff82111561207f5761207e611fe9565b5b602082029050602081019050919050565b600080fd5b60006120a86120a384612064565b612049565b905080838252602082019050602084028301858111156120cb576120ca612090565b5b835b818110156120f457806120e08882611f0f565b8452602084019350506020810190506120cd565b5050509392505050565b600082601f83011261211357612112611fe4565b5b8135612123848260208601612095565b91505092915050565b60006020828403121561214257612141611cc2565b5b600082013567ffffffffffffffff8111156121605761215f611cc7565b5b61216c848285016120fe565b91505092915050565b61217e81611e39565b82525050565b60006020820190506121996000830184612175565b92915050565b600081519050919050565b600082825260208201905092915050565b6000819050602082019050919050565b6121d481611ebc565b82525050565b60006121e683836121cb565b60208301905092915050565b6000602082019050919050565b600061220a8261219f565b61221481856121aa565b935061221f836121bb565b8060005b8381101561225057815161223788826121da565b9750612242836121f2565b925050600181019050612223565b5085935050505092915050565b6000602082019050818103600083015261227781846121ff565b905092915050565b61228881611d51565b811461229357600080fd5b50565b6000813590506122a58161227f565b92915050565b600080604083850312156122c2576122c1611cc2565b5b60006122d085828601611f0f565b92505060206122e185828601612296565b9150509250929050565b600080fd5b600067ffffffffffffffff82111561230b5761230a611fe9565b5b61231482611dcd565b9050602081019050919050565b82818337600083830152505050565b600061234361233e846122f0565b612049565b90508281526020810184848401111561235f5761235e6122eb565b5b61236a848285612321565b509392505050565b600082601f83011261238757612386611fe4565b5b8135612397848260208601612330565b91505092915050565b600080600080608085870312156123ba576123b9611cc2565b5b60006123c887828801611f0f565b94505060206123d987828801611f0f565b93505060406123ea87828801611e5a565b925050606085013567ffffffffffffffff81111561240b5761240a611cc7565b5b61241787828801612372565b91505092959194509250565b600067ffffffffffffffff82111561243e5761243d611fe9565b5b61244782611dcd565b9050602081019050919050565b600061246761246284612423565b612049565b905082815260208101848484011115612483576124826122eb565b5b61248e848285612321565b509392505050565b600082601f8301126124ab576124aa611fe4565b5b81356124bb848260208601612454565b91505092915050565b6000602082840312156124da576124d9611cc2565b5b600082013567ffffffffffffffff8111156124f8576124f7611cc7565b5b61250484828501612496565b91505092915050565b6000806040838503121561252457612523611cc2565b5b600061253285828601611f0f565b925050602061254385828601611f0f565b9150509250929050565b7f4e487b7100000000000000000000000000000000000000000000000000000000600052602260045260246000fd5b6000600282049050600182168061259457607f821691505b6020821081036125a7576125a661254d565b5b50919050565b7f4552433732313a20617070726f76616c20746f2063757272656e74206f776e6560008201527f7200000000000000000000000000000000000000000000000000000000000000602082015250565b6000612609602183611d92565b9150612614826125ad565b604082019050919050565b60006020820190508181036000830152612638816125fc565b9050919050565b7f4552433732313a20617070726f76652063616c6c6572206973206e6f7420746f60008201527f6b656e206f776e6572206f7220617070726f76656420666f7220616c6c000000602082015250565b600061269b603d83611d92565b91506126a68261263f565b604082019050919050565b600060208201905081810360008301526126ca8161268e565b9050919050565b7f4552433732313a2063616c6c6572206973206e6f7420746f6b656e206f776e6560008201527f72206f7220617070726f76656400000000000000000000000000000000000000602082015250565b600061272d602d83611d92565b9150612738826126d1565b604082019050919050565b6000602082019050818103600083015261275c81612720565b9050919050565b7f4552433732313a20696e76616c696420746f6b656e2049440000000000000000600082015250565b6000612799601883611d92565b91506127a482612763565b602082019050919050565b600060208201905081810360008301526127c88161278c565b9050919050565b7f4552433732313a2061646472657373207a65726f206973206e6f74206120766160008201527f6c6964206f776e65720000000000000000000000000000000000000000000000602082015250565b600061282b602983611d92565b9150612836826127cf565b604082019050919050565b6000602082019050818103600083015261285a8161281e565b9050919050565b600081905092915050565b600061287782611d87565b6128818185612861565b9350612891818560208601611da3565b80840191505092915050565b60006128a9828561286c565b91506128b5828461286c565b91508190509392505050565b60006128cd828461286c565b915081905092915050565b60008190508160005260206000209050919050565b60006020601f8301049050919050565b600082821b905092915050565b60006008830261293a7fffffffffffffffffffffffffffffffffffffffffffffffffffffffffffffffff826128fd565b61294486836128fd565b95508019841693508086168417925050509392505050565b6000819050919050565b600061298161297c61297784611e39565b61295c565b611e39565b9050919050565b6000819050919050565b61299b83612966565b6129af6129a782612988565b84845461290a565b825550505050565b600090565b6129c46129b7565b6129cf818484612992565b505050565b5b818110156129f3576129e86000826129bc565b6001810190506129d5565b5050565b601f821115612a3857612a09816128d8565b612a12846128ed565b81016020851015612a21578190505b612a35612a2d856128ed565b8301826129d4565b50505b505050565b600082821c905092915050565b6000612a5b60001984600802612a3d565b1980831691505092915050565b6000612a748383612a4a565b9150826002028217905092915050565b612a8d82611d87565b67ffffffffffffffff811115612aa657612aa5611fe9565b5b612ab0825461257c565b612abb8282856129f7565b600060209050601f831160018114612aee5760008415612adc578287015190505b612ae68582612a68565b865550612b4e565b601f198416612afc866128d8565b60005b82811015612b2457848901518255600182019150602085019450602081019050612aff565b86831015612b415784890151612b3d601f891682612a4a565b8355505b6001600288020188555050505b505050505050565b7f4552433732313a207472616e736665722066726f6d20696e636f72726563742060008201527f6f776e6572000000000000000000000000000000000000000000000000000000602082015250565b6000612bb2602583611d92565b9150612bbd82612b56565b604082019050919050565b60006020820190508181036000830152612be181612ba5565b9050919050565b7f4552433732313a207472616e7366657220746f20746865207a65726f2061646460008201527f7265737300000000000000000000000000000000000000000000000000000000602082015250565b6000612c44602483611d92565b9150612c4f82612be8565b604082019050919050565b60006020820190508181036000830152612c7381612c37565b9050919050565b7f4552433732313a20617070726f766520746f2063616c6c657200000000000000600082015250565b6000612cb0601983611d92565b9150612cbb82612c7a565b602082019050919050565b60006020820190508181036000830152612cdf81612ca3565b9050919050565b7f4552433732313a207472616e7366657220746f206e6f6e20455243373231526560008201527f63656976657220696d706c656d656e7465720000000000000000000000000000602082015250565b6000612d42603283611d92565b9150612d4d82612ce6565b604082019050919050565b60006020820190508181036000830152612d7181612d35565b9050919050565b7f4552433732313a206d696e7420746f20746865207a65726f2061646472657373600082015250565b6000612dae602083611d92565b9150612db982612d78565b602082019050919050565b60006020820190508181036000830152612ddd81612da1565b9050919050565b7f4552433732313a20746f6b656e20616c7265616479206d696e74656400000000600082015250565b6000612e1a601c83611d92565b9150612e2582612de4565b602082019050919050565b60006020820190508181036000830152612e4981612e0d565b9050919050565b7f45524337323155524953746f726167653a2055524920736574206f66206e6f6e60008201527f6578697374656e7420746f6b656e000000000000000000000000000000000000602082015250565b6000612eac602e83611d92565b9150612eb782612e50565b604082019050919050565b60006020820190508181036000830152612edb81612e9f565b9050919050565b600081519050919050565b600082825260208201905092915050565b6000612f0982612ee2565b612f138185612eed565b9350612f23818560208601611da3565b612f2c81611dcd565b840191505092915050565b6000608082019050612f4c6000830187611ece565b612f596020830186611ece565b612f666040830185612175565b8181036060830152612f788184612efe565b905095945050505050565b600081519050612f9281611cf8565b92915050565b600060208284031215612fae57612fad611cc2565b5b6000612fbc84828501612f83565b91505092915050565b7f4e487b7100000000000000000000000000000000000000000000000000000000600052601260045260246000fdfea2646970667358221220f79bc4a7482fd4a8cd8b64f7c076c6534f8f483459c73bf735b7dc94d2602e7f64736f6c63430008130033",
  "immutableReferences": {},
  "source": "// SPDX-License-Identifier: MIT\npragma solidity ^0.8.19;\n\nimport \"./BaseNFT.sol\";\n\ncontract DesignerNFT is BaseNFT {\n    \n    constructor(string memory _projectId, address _owner, address[] memory _components) ERC721(\"DesignerNFT\", \"DNFT\") {\n        setProjectId(_projectId);\n        setOwner(_owner);\n        setComponents(_components);\n    }\n\n\n\n    function mint(string memory tokenURI) public returns (uint256) {\n        string memory projectId = getProjectId();\n        bytes32 hash = keccak256(abi.encodePacked(projectId));\n        uint256 newTokenId = uint256(hash);\n        //_safeMint(to, newTokenId);\n        _mint(msg.sender, newTokenId);\n        _setTokenURI(newTokenId, tokenURI);\n        return newTokenId;\n    }\n\n\n}\n\n",
  "sourcePath": "/home/matteo/Projects/Uni/blockchain-project/contracts/DesignerNFT.sol",
  "compiler": {
    "name": "solc",
    "version": "0.8.19+commit.7dd6d404.Emscripten.clang"
  },
  "schemaVersion": "3.4.13",
  "updatedAt": "2023-06-03T17:22:43.144Z",
  "devdoc": {
    "events": {
      "Approval(address,address,uint256)": {
        "details": "Emitted when `owner` enables `approved` to manage the `tokenId` token."
      },
      "ApprovalForAll(address,address,bool)": {
        "details": "Emitted when `owner` enables or disables (`approved`) `operator` to manage all of its assets."
      },
      "BatchMetadataUpdate(uint256,uint256)": {
        "details": "This event emits when the metadata of a range of tokens is changed. So that the third-party platforms such as NFT market could timely update the images and related attributes of the NFTs."
      },
      "MetadataUpdate(uint256)": {
        "details": "This event emits when the metadata of a token is changed. So that the third-party platforms such as NFT market could timely update the images and related attributes of the NFT."
      },
      "Transfer(address,address,uint256)": {
        "details": "Emitted when `tokenId` token is transferred from `from` to `to`."
      }
    },
    "kind": "dev",
    "methods": {
      "approve(address,uint256)": {
        "details": "See {IERC721-approve}."
      },
      "balanceOf(address)": {
        "details": "See {IERC721-balanceOf}."
      },
      "getApproved(uint256)": {
        "details": "See {IERC721-getApproved}."
      },
      "isApprovedForAll(address,address)": {
        "details": "See {IERC721-isApprovedForAll}."
      },
      "name()": {
        "details": "See {IERC721Metadata-name}."
      },
      "ownerOf(uint256)": {
        "details": "See {IERC721-ownerOf}."
      },
      "safeTransferFrom(address,address,uint256)": {
        "details": "See {IERC721-safeTransferFrom}."
      },
      "safeTransferFrom(address,address,uint256,bytes)": {
        "details": "See {IERC721-safeTransferFrom}."
      },
      "setApprovalForAll(address,bool)": {
        "details": "See {IERC721-setApprovalForAll}."
      },
      "supportsInterface(bytes4)": {
        "details": "See {IERC165-supportsInterface}"
      },
      "symbol()": {
        "details": "See {IERC721Metadata-symbol}."
      },
      "tokenURI(uint256)": {
        "details": "See {IERC721Metadata-tokenURI}."
      },
      "transferFrom(address,address,uint256)": {
        "details": "See {IERC721-transferFrom}."
      }
    },
    "version": 1
  },
  "userdoc": {
    "kind": "user",
    "methods": {},
    "version": 1
  }
}