{
  "contractName": "DesignerNFT",
  "abi": [
    {
      "inputs": [],
      "stateMutability": "nonpayable",
      "type": "constructor"
    },
    {
      "anonymous": false,
      "inputs": [
        {
          "indexed": true,
          "internalType": "address",
          "name": "owner",
          "type": "address"
        },
        {
          "indexed": true,
          "internalType": "address",
          "name": "approved",
          "type": "address"
        },
        {
          "indexed": true,
          "internalType": "uint256",
          "name": "tokenId",
          "type": "uint256"
        }
      ],
      "name": "Approval",
      "type": "event"
    },
    {
      "anonymous": false,
      "inputs": [
        {
          "indexed": true,
          "internalType": "address",
          "name": "owner",
          "type": "address"
        },
        {
          "indexed": true,
          "internalType": "address",
          "name": "operator",
          "type": "address"
        },
        {
          "indexed": false,
          "internalType": "bool",
          "name": "approved",
          "type": "bool"
        }
      ],
      "name": "ApprovalForAll",
      "type": "event"
    },
    {
      "anonymous": false,
      "inputs": [
        {
          "indexed": false,
          "internalType": "uint256",
          "name": "_fromTokenId",
          "type": "uint256"
        },
        {
          "indexed": false,
          "internalType": "uint256",
          "name": "_toTokenId",
          "type": "uint256"
        }
      ],
      "name": "BatchMetadataUpdate",
      "type": "event"
    },
    {
      "anonymous": false,
      "inputs": [
        {
          "indexed": false,
          "internalType": "uint256",
          "name": "_tokenId",
          "type": "uint256"
        }
      ],
      "name": "MetadataUpdate",
      "type": "event"
    },
    {
      "anonymous": false,
      "inputs": [
        {
          "indexed": true,
          "internalType": "address",
          "name": "from",
          "type": "address"
        },
        {
          "indexed": true,
          "internalType": "address",
          "name": "to",
          "type": "address"
        },
        {
          "indexed": true,
          "internalType": "uint256",
          "name": "tokenId",
          "type": "uint256"
        }
      ],
      "name": "Transfer",
      "type": "event"
    },
    {
      "inputs": [
        {
          "internalType": "address",
          "name": "to",
          "type": "address"
        },
        {
          "internalType": "uint256",
          "name": "tokenId",
          "type": "uint256"
        }
      ],
      "name": "approve",
      "outputs": [],
      "stateMutability": "nonpayable",
      "type": "function"
    },
    {
      "inputs": [
        {
          "internalType": "address",
          "name": "owner",
          "type": "address"
        }
      ],
      "name": "balanceOf",
      "outputs": [
        {
          "internalType": "uint256",
          "name": "",
          "type": "uint256"
        }
      ],
      "stateMutability": "view",
      "type": "function",
      "constant": true
    },
    {
      "inputs": [
        {
          "internalType": "uint256",
          "name": "tokenId",
          "type": "uint256"
        }
      ],
      "name": "getApproved",
      "outputs": [
        {
          "internalType": "address",
          "name": "",
          "type": "address"
        }
      ],
      "stateMutability": "view",
      "type": "function",
      "constant": true
    },
    {
      "inputs": [],
      "name": "getComponents",
      "outputs": [
        {
          "internalType": "address[]",
          "name": "",
          "type": "address[]"
        }
      ],
      "stateMutability": "view",
      "type": "function",
      "constant": true
    },
    {
      "inputs": [],
      "name": "getOwner",
      "outputs": [
        {
          "internalType": "address",
          "name": "",
          "type": "address"
        }
      ],
      "stateMutability": "view",
      "type": "function",
      "constant": true
    },
    {
      "inputs": [],
      "name": "getProjectId",
      "outputs": [
        {
          "internalType": "string",
          "name": "",
          "type": "string"
        }
      ],
      "stateMutability": "view",
      "type": "function",
      "constant": true
    },
    {
      "inputs": [
        {
          "internalType": "address",
          "name": "owner",
          "type": "address"
        },
        {
          "internalType": "address",
          "name": "operator",
          "type": "address"
        }
      ],
      "name": "isApprovedForAll",
      "outputs": [
        {
          "internalType": "bool",
          "name": "",
          "type": "bool"
        }
      ],
      "stateMutability": "view",
      "type": "function",
      "constant": true
    },
    {
      "inputs": [],
      "name": "name",
      "outputs": [
        {
          "internalType": "string",
          "name": "",
          "type": "string"
        }
      ],
      "stateMutability": "view",
      "type": "function",
      "constant": true
    },
    {
      "inputs": [
        {
          "internalType": "uint256",
          "name": "tokenId",
          "type": "uint256"
        }
      ],
      "name": "ownerOf",
      "outputs": [
        {
          "internalType": "address",
          "name": "",
          "type": "address"
        }
      ],
      "stateMutability": "view",
      "type": "function",
      "constant": true
    },
    {
      "inputs": [
        {
          "internalType": "address",
          "name": "from",
          "type": "address"
        },
        {
          "internalType": "address",
          "name": "to",
          "type": "address"
        },
        {
          "internalType": "uint256",
          "name": "tokenId",
          "type": "uint256"
        }
      ],
      "name": "safeTransferFrom",
      "outputs": [],
      "stateMutability": "nonpayable",
      "type": "function"
    },
    {
      "inputs": [
        {
          "internalType": "address",
          "name": "from",
          "type": "address"
        },
        {
          "internalType": "address",
          "name": "to",
          "type": "address"
        },
        {
          "internalType": "uint256",
          "name": "tokenId",
          "type": "uint256"
        },
        {
          "internalType": "bytes",
          "name": "data",
          "type": "bytes"
        }
      ],
      "name": "safeTransferFrom",
      "outputs": [],
      "stateMutability": "nonpayable",
      "type": "function"
    },
    {
      "inputs": [
        {
          "internalType": "address",
          "name": "operator",
          "type": "address"
        },
        {
          "internalType": "bool",
          "name": "approved",
          "type": "bool"
        }
      ],
      "name": "setApprovalForAll",
      "outputs": [],
      "stateMutability": "nonpayable",
      "type": "function"
    },
    {
      "inputs": [
        {
          "internalType": "address[]",
          "name": "_components",
          "type": "address[]"
        }
      ],
      "name": "setComponents",
      "outputs": [],
      "stateMutability": "nonpayable",
      "type": "function"
    },
    {
      "inputs": [
        {
          "internalType": "address",
          "name": "_owner",
          "type": "address"
        }
      ],
      "name": "setOwner",
      "outputs": [],
      "stateMutability": "nonpayable",
      "type": "function"
    },
    {
      "inputs": [
        {
          "internalType": "string",
          "name": "_projectId",
          "type": "string"
        }
      ],
      "name": "setProjectId",
      "outputs": [],
      "stateMutability": "nonpayable",
      "type": "function"
    },
    {
      "inputs": [
        {
          "internalType": "bytes4",
          "name": "interfaceId",
          "type": "bytes4"
        }
      ],
      "name": "supportsInterface",
      "outputs": [
        {
          "internalType": "bool",
          "name": "",
          "type": "bool"
        }
      ],
      "stateMutability": "view",
      "type": "function",
      "constant": true
    },
    {
      "inputs": [],
      "name": "symbol",
      "outputs": [
        {
          "internalType": "string",
          "name": "",
          "type": "string"
        }
      ],
      "stateMutability": "view",
      "type": "function",
      "constant": true
    },
    {
      "inputs": [],
      "name": "tokenCounter",
      "outputs": [
        {
          "internalType": "uint256",
          "name": "",
          "type": "uint256"
        }
      ],
      "stateMutability": "view",
      "type": "function",
      "constant": true
    },
    {
      "inputs": [
        {
          "internalType": "uint256",
          "name": "tokenId",
          "type": "uint256"
        }
      ],
      "name": "tokenURI",
      "outputs": [
        {
          "internalType": "string",
          "name": "",
          "type": "string"
        }
      ],
      "stateMutability": "view",
      "type": "function",
      "constant": true
    },
    {
      "inputs": [
        {
          "internalType": "address",
          "name": "from",
          "type": "address"
        },
        {
          "internalType": "address",
          "name": "to",
          "type": "address"
        },
        {
          "internalType": "uint256",
          "name": "tokenId",
          "type": "uint256"
        }
      ],
      "name": "transferFrom",
      "outputs": [],
      "stateMutability": "nonpayable",
      "type": "function"
    },
    {
      "inputs": [
        {
          "internalType": "address",
          "name": "sender",
          "type": "address"
        },
        {
          "internalType": "string",
          "name": "uri",
          "type": "string"
        },
        {
          "internalType": "uint256",
          "name": "price",
          "type": "uint256"
        }
      ],
      "name": "mintToken",
      "outputs": [
        {
          "internalType": "uint256",
          "name": "",
          "type": "uint256"
        }
      ],
      "stateMutability": "nonpayable",
      "type": "function"
    },
    {
      "inputs": [],
      "name": "getTokenCounter",
      "outputs": [
        {
          "internalType": "uint256",
          "name": "",
          "type": "uint256"
        }
      ],
      "stateMutability": "view",
      "type": "function",
      "constant": true
    },
    {
      "inputs": [
        {
          "internalType": "uint256",
          "name": "tokenId",
          "type": "uint256"
        }
      ],
      "name": "getTokenPrice",
      "outputs": [
        {
          "internalType": "uint256",
          "name": "",
          "type": "uint256"
        }
      ],
      "stateMutability": "view",
      "type": "function",
      "constant": true
    },
    {
      "inputs": [
        {
          "internalType": "uint256",
          "name": "tokenId",
          "type": "uint256"
        },
        {
          "internalType": "uint256",
          "name": "price",
          "type": "uint256"
        }
      ],
      "name": "setTokenPrice",
      "outputs": [],
      "stateMutability": "nonpayable",
      "type": "function"
    }
  ],
  "bytecode": "0x60806040523480156200001157600080fd5b506040518060400160405280600b81526020017f44657369676e65724e46540000000000000000000000000000000000000000008152506040518060400160405280600481526020017f444e46540000000000000000000000000000000000000000000000000000000081525081600090816200008f91906200032c565b508060019081620000a191906200032c565b5050506001600a8190555062000413565b600081519050919050565b7f4e487b7100000000000000000000000000000000000000000000000000000000600052604160045260246000fd5b7f4e487b7100000000000000000000000000000000000000000000000000000000600052602260045260246000fd5b600060028204905060018216806200013457607f821691505b6020821081036200014a5762000149620000ec565b5b50919050565b60008190508160005260206000209050919050565b60006020601f8301049050919050565b600082821b905092915050565b600060088302620001b47fffffffffffffffffffffffffffffffffffffffffffffffffffffffffffffffff8262000175565b620001c0868362000175565b95508019841693508086168417925050509392505050565b6000819050919050565b6000819050919050565b60006200020d620002076200020184620001d8565b620001e2565b620001d8565b9050919050565b6000819050919050565b6200022983620001ec565b62000241620002388262000214565b84845462000182565b825550505050565b600090565b6200025862000249565b620002658184846200021e565b505050565b5b818110156200028d57620002816000826200024e565b6001810190506200026b565b5050565b601f821115620002dc57620002a68162000150565b620002b18462000165565b81016020851015620002c1578190505b620002d9620002d08562000165565b8301826200026a565b50505b505050565b600082821c905092915050565b60006200030160001984600802620002e1565b1980831691505092915050565b60006200031c8383620002ee565b9150826002028217905092915050565b6200033782620000b2565b67ffffffffffffffff811115620003535762000352620000bd565b5b6200035f82546200011b565b6200036c82828562000291565b600060209050601f831160018114620003a457600084156200038f578287015190505b6200039b85826200030e565b8655506200040b565b601f198416620003b48662000150565b60005b82811015620003de57848901518255600182019150602085019450602081019050620003b7565b86831015620003fe5784890151620003fa601f891682620002ee565b8355505b6001600288020188555050505b505050505050565b6133c580620004236000396000f3fe608060405234801561001057600080fd5b50600436106101585760003560e01c806370a08231116100c3578063c457fb371161007c578063c457fb37146103c5578063c87b56dd146103f5578063d082e38114610425578063e985e9c514610443578063eb685c4714610473578063f856ba571461048f57610158565b806370a0823114610303578063893d20e81461033357806395d89b411461035157806399d50d5d1461036f578063a22cb4651461038d578063b88d4fde146103a957610158565b806323b872dd1161011557806323b872dd1461023157806342842e0e1461024d5780635eb0ac1a14610269578063611b2fed146102855780636352211e146102b55780636e02007d146102e557610158565b806301ffc9a71461015d57806306fdde031461018d578063081812fc146101ab578063095ea7b3146101db5780631270e10c146101f757806313af403514610215575b600080fd5b61017760048036038101906101729190611ed5565b6104ab565b6040516101849190611f1d565b60405180910390f35b61019561050c565b6040516101a29190611fc8565b60405180910390f35b6101c560048036038101906101c09190612020565b61059e565b6040516101d2919061208e565b60405180910390f35b6101f560048036038101906101f091906120d5565b6105e4565b005b6101ff6106fb565b60405161020c9190611fc8565b60405180910390f35b61022f600480360381019061022a9190612115565b61078d565b005b61024b60048036038101906102469190612142565b6107d1565b005b61026760048036038101906102629190612142565b610831565b005b610283600480360381019061027e91906122dd565b610851565b005b61029f600480360381019061029a91906123db565b61086b565b6040516102ac9190612459565b60405180910390f35b6102cf60048036038101906102ca9190612020565b610935565b6040516102dc919061208e565b60405180910390f35b6102ed6109bb565b6040516102fa9190612459565b60405180910390f35b61031d60048036038101906103189190612115565b6109c5565b60405161032a9190612459565b60405180910390f35b61033b610a7c565b604051610348919061208e565b60405180910390f35b610359610aa6565b6040516103669190611fc8565b60405180910390f35b610377610b38565b6040516103849190612532565b60405180910390f35b6103a760048036038101906103a29190612580565b610bc6565b005b6103c360048036038101906103be9190612661565b610bdc565b005b6103df60048036038101906103da9190612020565b610c3e565b6040516103ec9190612459565b60405180910390f35b61040f600480360381019061040a9190612020565b610c5b565b60405161041c9190611fc8565b60405180910390f35b61042d610d6d565b60405161043a9190612459565b60405180910390f35b61045d600480360381019061045891906126e4565b610d73565b60405161046a9190611f1d565b60405180910390f35b61048d60048036038101906104889190612724565b610e07565b005b6104a960048036038101906104a49190612764565b610e6c565b005b6000634906490660e01b7bffffffffffffffffffffffffffffffffffffffffffffffffffffffff1916827bffffffffffffffffffffffffffffffffffffffffffffffffffffffff19161480610505575061050482610e7f565b5b9050919050565b60606000805461051b906127dc565b80601f0160208091040260200160405190810160405280929190818152602001828054610547906127dc565b80156105945780601f1061056957610100808354040283529160200191610594565b820191906000526020600020905b81548152906001019060200180831161057757829003601f168201915b5050505050905090565b60006105a982610f61565b6004600083815260200190815260200160002060009054906101000a900473ffffffffffffffffffffffffffffffffffffffff169050919050565b60006105ef82610935565b90508073ffffffffffffffffffffffffffffffffffffffff168373ffffffffffffffffffffffffffffffffffffffff160361065f576040517f08c379a00000000000000000000000000000000000000000000000000000000081526004016106569061287f565b60405180910390fd5b8073ffffffffffffffffffffffffffffffffffffffff1661067e610fac565b73ffffffffffffffffffffffffffffffffffffffff1614806106ad57506106ac816106a7610fac565b610d73565b5b6106ec576040517f08c379a00000000000000000000000000000000000000000000000000000000081526004016106e390612911565b60405180910390fd5b6106f68383610fb4565b505050565b60606007805461070a906127dc565b80601f0160208091040260200160405190810160405280929190818152602001828054610736906127dc565b80156107835780601f1061075857610100808354040283529160200191610783565b820191906000526020600020905b81548152906001019060200180831161076657829003601f168201915b5050505050905090565b80600860006101000a81548173ffffffffffffffffffffffffffffffffffffffff021916908373ffffffffffffffffffffffffffffffffffffffff16021790555050565b6107e26107dc610fac565b8261106d565b610821576040517f08c379a0000000000000000000000000000000000000000000000000000000008152600401610818906129a3565b60405180910390fd5b61082c838383611102565b505050565b61084c83838360405180602001604052806000815250610bdc565b505050565b8060099080519060200190610867929190611dc2565b5050565b600080600b8460405161087e91906129ff565b908152602001604051809103902054146108cd576040517f08c379a00000000000000000000000000000000000000000000000000000000081526004016108c490612a62565b60405180910390fd5b6000600a5490506108de85826113fb565b6108e88185611618565b6001600a546108f79190612ab1565b600a8190555080600b8560405161090e91906129ff565b90815260200160405180910390208190555061092a8184610e07565b809150509392505050565b600080610941836116bc565b9050600073ffffffffffffffffffffffffffffffffffffffff168173ffffffffffffffffffffffffffffffffffffffff16036109b2576040517f08c379a00000000000000000000000000000000000000000000000000000000081526004016109a990612b31565b60405180910390fd5b80915050919050565b6000600a54905090565b60008073ffffffffffffffffffffffffffffffffffffffff168273ffffffffffffffffffffffffffffffffffffffff1603610a35576040517f08c379a0000000000000000000000000000000000000000000000000000000008152600401610a2c90612bc3565b60405180910390fd5b600360008373ffffffffffffffffffffffffffffffffffffffff1673ffffffffffffffffffffffffffffffffffffffff168152602001908152602001600020549050919050565b6000600860009054906101000a900473ffffffffffffffffffffffffffffffffffffffff16905090565b606060018054610ab5906127dc565b80601f0160208091040260200160405190810160405280929190818152602001828054610ae1906127dc565b8015610b2e5780601f10610b0357610100808354040283529160200191610b2e565b820191906000526020600020905b815481529060010190602001808311610b1157829003601f168201915b5050505050905090565b60606009805480602002602001604051908101604052809291908181526020018280548015610bbc57602002820191906000526020600020905b8160009054906101000a900473ffffffffffffffffffffffffffffffffffffffff1673ffffffffffffffffffffffffffffffffffffffff1681526020019060010190808311610b72575b5050505050905090565b610bd8610bd1610fac565b83836116f9565b5050565b610bed610be7610fac565b8361106d565b610c2c576040517f08c379a0000000000000000000000000000000000000000000000000000000008152600401610c23906129a3565b60405180910390fd5b610c3884848484611865565b50505050565b6000600c6000838152602001908152602001600020549050919050565b6060610c6682610f61565b6000600660008481526020019081526020016000208054610c86906127dc565b80601f0160208091040260200160405190810160405280929190818152602001828054610cb2906127dc565b8015610cff5780601f10610cd457610100808354040283529160200191610cff565b820191906000526020600020905b815481529060010190602001808311610ce257829003601f168201915b505050505090506000610d106118c1565b90506000815103610d25578192505050610d68565b600082511115610d5a578082604051602001610d42929190612be3565b60405160208183030381529060405292505050610d68565b610d63846118d8565b925050505b919050565b600a5481565b6000600560008473ffffffffffffffffffffffffffffffffffffffff1673ffffffffffffffffffffffffffffffffffffffff16815260200190815260200160002060008373ffffffffffffffffffffffffffffffffffffffff1673ffffffffffffffffffffffffffffffffffffffff16815260200190815260200160002060009054906101000a900460ff16905092915050565b610e11338361106d565b610e50576040517f08c379a0000000000000000000000000000000000000000000000000000000008152600401610e4790612c53565b60405180910390fd5b80600c6000848152602001908152602001600020819055505050565b8060079081610e7b9190612e1f565b5050565b60007f80ac58cd000000000000000000000000000000000000000000000000000000007bffffffffffffffffffffffffffffffffffffffffffffffffffffffff1916827bffffffffffffffffffffffffffffffffffffffffffffffffffffffff19161480610f4a57507f5b5e139f000000000000000000000000000000000000000000000000000000007bffffffffffffffffffffffffffffffffffffffffffffffffffffffff1916827bffffffffffffffffffffffffffffffffffffffffffffffffffffffff1916145b80610f5a5750610f5982611940565b5b9050919050565b610f6a816119aa565b610fa9576040517f08c379a0000000000000000000000000000000000000000000000000000000008152600401610fa090612b31565b60405180910390fd5b50565b600033905090565b816004600083815260200190815260200160002060006101000a81548173ffffffffffffffffffffffffffffffffffffffff021916908373ffffffffffffffffffffffffffffffffffffffff160217905550808273ffffffffffffffffffffffffffffffffffffffff1661102783610935565b73ffffffffffffffffffffffffffffffffffffffff167f8c5be1e5ebec7d5bd14f71427d1e84f3dd0314c0f7b2291e5b200ac8c7c3b92560405160405180910390a45050565b60008061107983610935565b90508073ffffffffffffffffffffffffffffffffffffffff168473ffffffffffffffffffffffffffffffffffffffff1614806110bb57506110ba8185610d73565b5b806110f957508373ffffffffffffffffffffffffffffffffffffffff166110e18461059e565b73ffffffffffffffffffffffffffffffffffffffff16145b91505092915050565b8273ffffffffffffffffffffffffffffffffffffffff1661112282610935565b73ffffffffffffffffffffffffffffffffffffffff1614611178576040517f08c379a000000000000000000000000000000000000000000000000000000000815260040161116f90612f63565b60405180910390fd5b600073ffffffffffffffffffffffffffffffffffffffff168273ffffffffffffffffffffffffffffffffffffffff16036111e7576040517f08c379a00000000000000000000000000000000000000000000000000000000081526004016111de90612ff5565b60405180910390fd5b6111f483838360016119eb565b8273ffffffffffffffffffffffffffffffffffffffff1661121482610935565b73ffffffffffffffffffffffffffffffffffffffff161461126a576040517f08c379a000000000000000000000000000000000000000000000000000000000815260040161126190612f63565b60405180910390fd5b6004600082815260200190815260200160002060006101000a81549073ffffffffffffffffffffffffffffffffffffffff02191690556001600360008573ffffffffffffffffffffffffffffffffffffffff1673ffffffffffffffffffffffffffffffffffffffff168152602001908152602001600020600082825403925050819055506001600360008473ffffffffffffffffffffffffffffffffffffffff1673ffffffffffffffffffffffffffffffffffffffff16815260200190815260200160002060008282540192505081905550816002600083815260200190815260200160002060006101000a81548173ffffffffffffffffffffffffffffffffffffffff021916908373ffffffffffffffffffffffffffffffffffffffff160217905550808273ffffffffffffffffffffffffffffffffffffffff168473ffffffffffffffffffffffffffffffffffffffff167fddf252ad1be2c89b69c2b068fc378daa952ba7f163c4a11628f55a4df523b3ef60405160405180910390a46113f683838360016119f1565b505050565b600073ffffffffffffffffffffffffffffffffffffffff168273ffffffffffffffffffffffffffffffffffffffff160361146a576040517f08c379a000000000000000000000000000000000000000000000000000000000815260040161146190613061565b60405180910390fd5b611473816119aa565b156114b3576040517f08c379a00000000000000000000000000000000000000000000000000000000081526004016114aa906130cd565b60405180910390fd5b6114c16000838360016119eb565b6114ca816119aa565b1561150a576040517f08c379a0000000000000000000000000000000000000000000000000000000008152600401611501906130cd565b60405180910390fd5b6001600360008473ffffffffffffffffffffffffffffffffffffffff1673ffffffffffffffffffffffffffffffffffffffff16815260200190815260200160002060008282540192505081905550816002600083815260200190815260200160002060006101000a81548173ffffffffffffffffffffffffffffffffffffffff021916908373ffffffffffffffffffffffffffffffffffffffff160217905550808273ffffffffffffffffffffffffffffffffffffffff16600073ffffffffffffffffffffffffffffffffffffffff167fddf252ad1be2c89b69c2b068fc378daa952ba7f163c4a11628f55a4df523b3ef60405160405180910390a46116146000838360016119f1565b5050565b611621826119aa565b611660576040517f08c379a00000000000000000000000000000000000000000000000000000000081526004016116579061315f565b60405180910390fd5b806006600084815260200190815260200160002090816116809190612e1f565b507ff8e1a15aba9398e019f0b49df1a4fde98ee17ae345cb5f6b5e2c27f5033e8ce7826040516116b09190612459565b60405180910390a15050565b60006002600083815260200190815260200160002060009054906101000a900473ffffffffffffffffffffffffffffffffffffffff169050919050565b8173ffffffffffffffffffffffffffffffffffffffff168373ffffffffffffffffffffffffffffffffffffffff1603611767576040517f08c379a000000000000000000000000000000000000000000000000000000000815260040161175e906131cb565b60405180910390fd5b80600560008573ffffffffffffffffffffffffffffffffffffffff1673ffffffffffffffffffffffffffffffffffffffff16815260200190815260200160002060008473ffffffffffffffffffffffffffffffffffffffff1673ffffffffffffffffffffffffffffffffffffffff16815260200190815260200160002060006101000a81548160ff0219169083151502179055508173ffffffffffffffffffffffffffffffffffffffff168373ffffffffffffffffffffffffffffffffffffffff167f17307eab39ab6107e8899845ad3d59bd9653f200f220920489ca2b5937696c31836040516118589190611f1d565b60405180910390a3505050565b611870848484611102565b61187c848484846119f7565b6118bb576040517f08c379a00000000000000000000000000000000000000000000000000000000081526004016118b29061325d565b60405180910390fd5b50505050565b606060405180602001604052806000815250905090565b60606118e382610f61565b60006118ed6118c1565b9050600081511161190d5760405180602001604052806000815250611938565b8061191784611b7e565b604051602001611928929190612be3565b6040516020818303038152906040525b915050919050565b60007f01ffc9a7000000000000000000000000000000000000000000000000000000007bffffffffffffffffffffffffffffffffffffffffffffffffffffffff1916827bffffffffffffffffffffffffffffffffffffffffffffffffffffffff1916149050919050565b60008073ffffffffffffffffffffffffffffffffffffffff166119cc836116bc565b73ffffffffffffffffffffffffffffffffffffffff1614159050919050565b50505050565b50505050565b6000611a188473ffffffffffffffffffffffffffffffffffffffff16611c4c565b15611b71578373ffffffffffffffffffffffffffffffffffffffff1663150b7a02611a41610fac565b8786866040518563ffffffff1660e01b8152600401611a6394939291906132d2565b6020604051808303816000875af1925050508015611a9f57506040513d601f19601f82011682018060405250810190611a9c9190613333565b60015b611b21573d8060008114611acf576040519150601f19603f3d011682016040523d82523d6000602084013e611ad4565b606091505b506000815103611b19576040517f08c379a0000000000000000000000000000000000000000000000000000000008152600401611b109061325d565b60405180910390fd5b805181602001fd5b63150b7a0260e01b7bffffffffffffffffffffffffffffffffffffffffffffffffffffffff1916817bffffffffffffffffffffffffffffffffffffffffffffffffffffffff191614915050611b76565b600190505b949350505050565b606060006001611b8d84611c6f565b01905060008167ffffffffffffffff811115611bac57611bab61219a565b5b6040519080825280601f01601f191660200182016040528015611bde5781602001600182028036833780820191505090505b509050600082602001820190505b600115611c41578080600190039150507f3031323334353637383961626364656600000000000000000000000000000000600a86061a8153600a8581611c3557611c34613360565b5b04945060008503611bec575b819350505050919050565b6000808273ffffffffffffffffffffffffffffffffffffffff163b119050919050565b600080600090507a184f03e93ff9f4daa797ed6e38ed64bf6a1f0100000000000000008310611ccd577a184f03e93ff9f4daa797ed6e38ed64bf6a1f0100000000000000008381611cc357611cc2613360565b5b0492506040810190505b6d04ee2d6d415b85acef81000000008310611d0a576d04ee2d6d415b85acef81000000008381611d0057611cff613360565b5b0492506020810190505b662386f26fc100008310611d3957662386f26fc100008381611d2f57611d2e613360565b5b0492506010810190505b6305f5e1008310611d62576305f5e1008381611d5857611d57613360565b5b0492506008810190505b6127108310611d87576127108381611d7d57611d7c613360565b5b0492506004810190505b60648310611daa5760648381611da057611d9f613360565b5b0492506002810190505b600a8310611db9576001810190505b80915050919050565b828054828255906000526020600020908101928215611e3b579160200282015b82811115611e3a5782518260006101000a81548173ffffffffffffffffffffffffffffffffffffffff021916908373ffffffffffffffffffffffffffffffffffffffff16021790555091602001919060010190611de2565b5b509050611e489190611e4c565b5090565b5b80821115611e65576000816000905550600101611e4d565b5090565b6000604051905090565b600080fd5b600080fd5b60007fffffffff0000000000000000000000000000000000000000000000000000000082169050919050565b611eb281611e7d565b8114611ebd57600080fd5b50565b600081359050611ecf81611ea9565b92915050565b600060208284031215611eeb57611eea611e73565b5b6000611ef984828501611ec0565b91505092915050565b60008115159050919050565b611f1781611f02565b82525050565b6000602082019050611f326000830184611f0e565b92915050565b600081519050919050565b600082825260208201905092915050565b60005b83811015611f72578082015181840152602081019050611f57565b60008484015250505050565b6000601f19601f8301169050919050565b6000611f9a82611f38565b611fa48185611f43565b9350611fb4818560208601611f54565b611fbd81611f7e565b840191505092915050565b60006020820190508181036000830152611fe28184611f8f565b905092915050565b6000819050919050565b611ffd81611fea565b811461200857600080fd5b50565b60008135905061201a81611ff4565b92915050565b60006020828403121561203657612035611e73565b5b60006120448482850161200b565b91505092915050565b600073ffffffffffffffffffffffffffffffffffffffff82169050919050565b60006120788261204d565b9050919050565b6120888161206d565b82525050565b60006020820190506120a3600083018461207f565b92915050565b6120b28161206d565b81146120bd57600080fd5b50565b6000813590506120cf816120a9565b92915050565b600080604083850312156120ec576120eb611e73565b5b60006120fa858286016120c0565b925050602061210b8582860161200b565b9150509250929050565b60006020828403121561212b5761212a611e73565b5b6000612139848285016120c0565b91505092915050565b60008060006060848603121561215b5761215a611e73565b5b6000612169868287016120c0565b935050602061217a868287016120c0565b925050604061218b8682870161200b565b9150509250925092565b600080fd5b7f4e487b7100000000000000000000000000000000000000000000000000000000600052604160045260246000fd5b6121d282611f7e565b810181811067ffffffffffffffff821117156121f1576121f061219a565b5b80604052505050565b6000612204611e69565b905061221082826121c9565b919050565b600067ffffffffffffffff8211156122305761222f61219a565b5b602082029050602081019050919050565b600080fd5b600061225961225484612215565b6121fa565b9050808382526020820190506020840283018581111561227c5761227b612241565b5b835b818110156122a5578061229188826120c0565b84526020840193505060208101905061227e565b5050509392505050565b600082601f8301126122c4576122c3612195565b5b81356122d4848260208601612246565b91505092915050565b6000602082840312156122f3576122f2611e73565b5b600082013567ffffffffffffffff81111561231157612310611e78565b5b61231d848285016122af565b91505092915050565b600080fd5b600067ffffffffffffffff8211156123465761234561219a565b5b61234f82611f7e565b9050602081019050919050565b82818337600083830152505050565b600061237e6123798461232b565b6121fa565b90508281526020810184848401111561239a57612399612326565b5b6123a584828561235c565b509392505050565b600082601f8301126123c2576123c1612195565b5b81356123d284826020860161236b565b91505092915050565b6000806000606084860312156123f4576123f3611e73565b5b6000612402868287016120c0565b935050602084013567ffffffffffffffff81111561242357612422611e78565b5b61242f868287016123ad565b92505060406124408682870161200b565b9150509250925092565b61245381611fea565b82525050565b600060208201905061246e600083018461244a565b92915050565b600081519050919050565b600082825260208201905092915050565b6000819050602082019050919050565b6124a98161206d565b82525050565b60006124bb83836124a0565b60208301905092915050565b6000602082019050919050565b60006124df82612474565b6124e9818561247f565b93506124f483612490565b8060005b8381101561252557815161250c88826124af565b9750612517836124c7565b9250506001810190506124f8565b5085935050505092915050565b6000602082019050818103600083015261254c81846124d4565b905092915050565b61255d81611f02565b811461256857600080fd5b50565b60008135905061257a81612554565b92915050565b6000806040838503121561259757612596611e73565b5b60006125a5858286016120c0565b92505060206125b68582860161256b565b9150509250929050565b600067ffffffffffffffff8211156125db576125da61219a565b5b6125e482611f7e565b9050602081019050919050565b60006126046125ff846125c0565b6121fa565b9050828152602081018484840111156126205761261f612326565b5b61262b84828561235c565b509392505050565b600082601f83011261264857612647612195565b5b81356126588482602086016125f1565b91505092915050565b6000806000806080858703121561267b5761267a611e73565b5b6000612689878288016120c0565b945050602061269a878288016120c0565b93505060406126ab8782880161200b565b925050606085013567ffffffffffffffff8111156126cc576126cb611e78565b5b6126d887828801612633565b91505092959194509250565b600080604083850312156126fb576126fa611e73565b5b6000612709858286016120c0565b925050602061271a858286016120c0565b9150509250929050565b6000806040838503121561273b5761273a611e73565b5b60006127498582860161200b565b925050602061275a8582860161200b565b9150509250929050565b60006020828403121561277a57612779611e73565b5b600082013567ffffffffffffffff81111561279857612797611e78565b5b6127a4848285016123ad565b91505092915050565b7f4e487b7100000000000000000000000000000000000000000000000000000000600052602260045260246000fd5b600060028204905060018216806127f457607f821691505b602082108103612807576128066127ad565b5b50919050565b7f4552433732313a20617070726f76616c20746f2063757272656e74206f776e6560008201527f7200000000000000000000000000000000000000000000000000000000000000602082015250565b6000612869602183611f43565b91506128748261280d565b604082019050919050565b600060208201905081810360008301526128988161285c565b9050919050565b7f4552433732313a20617070726f76652063616c6c6572206973206e6f7420746f60008201527f6b656e206f776e6572206f7220617070726f76656420666f7220616c6c000000602082015250565b60006128fb603d83611f43565b91506129068261289f565b604082019050919050565b6000602082019050818103600083015261292a816128ee565b9050919050565b7f4552433732313a2063616c6c6572206973206e6f7420746f6b656e206f776e6560008201527f72206f7220617070726f76656400000000000000000000000000000000000000602082015250565b600061298d602d83611f43565b915061299882612931565b604082019050919050565b600060208201905081810360008301526129bc81612980565b9050919050565b600081905092915050565b60006129d982611f38565b6129e381856129c3565b93506129f3818560208601611f54565b80840191505092915050565b6000612a0b82846129ce565b915081905092915050565b7f546f6b656e2055524920616c7265616479207573656400000000000000000000600082015250565b6000612a4c601683611f43565b9150612a5782612a16565b602082019050919050565b60006020820190508181036000830152612a7b81612a3f565b9050919050565b7f4e487b7100000000000000000000000000000000000000000000000000000000600052601160045260246000fd5b6000612abc82611fea565b9150612ac783611fea565b9250828201905080821115612adf57612ade612a82565b5b92915050565b7f4552433732313a20696e76616c696420746f6b656e2049440000000000000000600082015250565b6000612b1b601883611f43565b9150612b2682612ae5565b602082019050919050565b60006020820190508181036000830152612b4a81612b0e565b9050919050565b7f4552433732313a2061646472657373207a65726f206973206e6f74206120766160008201527f6c6964206f776e65720000000000000000000000000000000000000000000000602082015250565b6000612bad602983611f43565b9150612bb882612b51565b604082019050919050565b60006020820190508181036000830152612bdc81612ba0565b9050919050565b6000612bef82856129ce565b9150612bfb82846129ce565b91508190509392505050565b7f43616c6c6572206973206e6f74206f776e6572206e6f7220617070726f766564600082015250565b6000612c3d602083611f43565b9150612c4882612c07565b602082019050919050565b60006020820190508181036000830152612c6c81612c30565b9050919050565b60008190508160005260206000209050919050565b60006020601f8301049050919050565b600082821b905092915050565b600060088302612cd57fffffffffffffffffffffffffffffffffffffffffffffffffffffffffffffffff82612c98565b612cdf8683612c98565b95508019841693508086168417925050509392505050565b6000819050919050565b6000612d1c612d17612d1284611fea565b612cf7565b611fea565b9050919050565b6000819050919050565b612d3683612d01565b612d4a612d4282612d23565b848454612ca5565b825550505050565b600090565b612d5f612d52565b612d6a818484612d2d565b505050565b5b81811015612d8e57612d83600082612d57565b600181019050612d70565b5050565b601f821115612dd357612da481612c73565b612dad84612c88565b81016020851015612dbc578190505b612dd0612dc885612c88565b830182612d6f565b50505b505050565b600082821c905092915050565b6000612df660001984600802612dd8565b1980831691505092915050565b6000612e0f8383612de5565b9150826002028217905092915050565b612e2882611f38565b67ffffffffffffffff811115612e4157612e4061219a565b5b612e4b82546127dc565b612e56828285612d92565b600060209050601f831160018114612e895760008415612e77578287015190505b612e818582612e03565b865550612ee9565b601f198416612e9786612c73565b60005b82811015612ebf57848901518255600182019150602085019450602081019050612e9a565b86831015612edc5784890151612ed8601f891682612de5565b8355505b6001600288020188555050505b505050505050565b7f4552433732313a207472616e736665722066726f6d20696e636f72726563742060008201527f6f776e6572000000000000000000000000000000000000000000000000000000602082015250565b6000612f4d602583611f43565b9150612f5882612ef1565b604082019050919050565b60006020820190508181036000830152612f7c81612f40565b9050919050565b7f4552433732313a207472616e7366657220746f20746865207a65726f2061646460008201527f7265737300000000000000000000000000000000000000000000000000000000602082015250565b6000612fdf602483611f43565b9150612fea82612f83565b604082019050919050565b6000602082019050818103600083015261300e81612fd2565b9050919050565b7f4552433732313a206d696e7420746f20746865207a65726f2061646472657373600082015250565b600061304b602083611f43565b915061305682613015565b602082019050919050565b6000602082019050818103600083015261307a8161303e565b9050919050565b7f4552433732313a20746f6b656e20616c7265616479206d696e74656400000000600082015250565b60006130b7601c83611f43565b91506130c282613081565b602082019050919050565b600060208201905081810360008301526130e6816130aa565b9050919050565b7f45524337323155524953746f726167653a2055524920736574206f66206e6f6e60008201527f6578697374656e7420746f6b656e000000000000000000000000000000000000602082015250565b6000613149602e83611f43565b9150613154826130ed565b604082019050919050565b600060208201905081810360008301526131788161313c565b9050919050565b7f4552433732313a20617070726f766520746f2063616c6c657200000000000000600082015250565b60006131b5601983611f43565b91506131c08261317f565b602082019050919050565b600060208201905081810360008301526131e4816131a8565b9050919050565b7f4552433732313a207472616e7366657220746f206e6f6e20455243373231526560008201527f63656976657220696d706c656d656e7465720000000000000000000000000000602082015250565b6000613247603283611f43565b9150613252826131eb565b604082019050919050565b600060208201905081810360008301526132768161323a565b9050919050565b600081519050919050565b600082825260208201905092915050565b60006132a48261327d565b6132ae8185613288565b93506132be818560208601611f54565b6132c781611f7e565b840191505092915050565b60006080820190506132e7600083018761207f565b6132f4602083018661207f565b613301604083018561244a565b81810360608301526133138184613299565b905095945050505050565b60008151905061332d81611ea9565b92915050565b60006020828403121561334957613348611e73565b5b60006133578482850161331e565b91505092915050565b7f4e487b7100000000000000000000000000000000000000000000000000000000600052601260045260246000fdfea2646970667358221220c4aefb8bb06181800f70449f0ea7cc51ede9ffb65736dda2c6c9c22a52a4a2b564736f6c63430008130033",
  "immutableReferences": {},
  "source": "// SPDX-License-Identifier: MIT\npragma solidity ^0.8.19;\n\nimport \"./BaseNFT.sol\";\n\ncontract DesignerNFT is BaseNFT {\n    uint256 public tokenCounter;\n    \n    mapping(string => uint256) private tokenURIToTokenId;\n    mapping(uint256 => uint256) private tokenIdToPrice;\n\n    constructor () ERC721 (\"DesignerNFT\", \"DNFT\"){\n        tokenCounter = 1;\n    }\n\n    function mintToken(address sender, string memory uri, uint256 price) public returns (uint256) {\n        //require that the token URI hasn't been used before\n        require(tokenURIToTokenId[uri] == 0, \"Token URI already used\");\n\n        uint256 newItemId = tokenCounter;\n\n        _mint(sender, newItemId);\n        _setTokenURI(newItemId, uri);\n\n        tokenCounter = tokenCounter + 1;\n        tokenURIToTokenId[uri] = newItemId;\n\n        setTokenPrice(newItemId, price);\n\n        return newItemId;\n\n    }\n\n    function getTokenCounter() public view returns (uint256) {\n        return tokenCounter;\n    }\n\n    function getTokenPrice(uint256 tokenId) public view returns (uint256) {\n        return tokenIdToPrice[tokenId];\n    }\n\n    function setTokenPrice(uint256 tokenId, uint256 price) public {\n        require(_isApprovedOrOwner(msg.sender, tokenId), \"Caller is not owner nor approved\");\n        tokenIdToPrice[tokenId] = price;\n    }\n}\n",
  "sourcePath": "/Users/lucavian/Desktop/blockchain-project/contracts/DesignerNFT.sol",
  "compiler": {
    "name": "solc",
    "version": "0.8.19+commit.7dd6d404.Emscripten.clang"
  },
  "schemaVersion": "3.4.14",
  "updatedAt": "2023-06-12T12:42:56.375Z",
  "networkType": "ethereum",
  "devdoc": {
    "events": {
      "Approval(address,address,uint256)": {
        "details": "Emitted when `owner` enables `approved` to manage the `tokenId` token."
      },
      "ApprovalForAll(address,address,bool)": {
        "details": "Emitted when `owner` enables or disables (`approved`) `operator` to manage all of its assets."
      },
      "BatchMetadataUpdate(uint256,uint256)": {
        "details": "This event emits when the metadata of a range of tokens is changed. So that the third-party platforms such as NFT market could timely update the images and related attributes of the NFTs."
      },
      "MetadataUpdate(uint256)": {
        "details": "This event emits when the metadata of a token is changed. So that the third-party platforms such as NFT market could timely update the images and related attributes of the NFT."
      },
      "Transfer(address,address,uint256)": {
        "details": "Emitted when `tokenId` token is transferred from `from` to `to`."
      }
    },
    "kind": "dev",
    "methods": {
      "approve(address,uint256)": {
        "details": "See {IERC721-approve}."
      },
      "balanceOf(address)": {
        "details": "See {IERC721-balanceOf}."
      },
      "getApproved(uint256)": {
        "details": "See {IERC721-getApproved}."
      },
      "isApprovedForAll(address,address)": {
        "details": "See {IERC721-isApprovedForAll}."
      },
      "name()": {
        "details": "See {IERC721Metadata-name}."
      },
      "ownerOf(uint256)": {
        "details": "See {IERC721-ownerOf}."
      },
      "safeTransferFrom(address,address,uint256)": {
        "details": "See {IERC721-safeTransferFrom}."
      },
      "safeTransferFrom(address,address,uint256,bytes)": {
        "details": "See {IERC721-safeTransferFrom}."
      },
      "setApprovalForAll(address,bool)": {
        "details": "See {IERC721-setApprovalForAll}."
      },
      "supportsInterface(bytes4)": {
        "details": "See {IERC165-supportsInterface}"
      },
      "symbol()": {
        "details": "See {IERC721Metadata-symbol}."
      },
      "tokenURI(uint256)": {
        "details": "See {IERC721Metadata-tokenURI}."
      },
      "transferFrom(address,address,uint256)": {
        "details": "See {IERC721-transferFrom}."
      }
    },
    "version": 1
  },
  "userdoc": {
    "kind": "user",
    "methods": {},
    "version": 1
  }
}