{
  "contractName": "Master",
  "abi": [
    {
      "inputs": [
        {
          "internalType": "address",
          "name": "projectNFTAddress",
          "type": "address"
        },
        {
          "internalType": "address",
          "name": "accessContractAddress",
          "type": "address"
        }
      ],
      "stateMutability": "nonpayable",
      "type": "constructor"
    },
    {
      "anonymous": false,
      "inputs": [
        {
          "indexed": false,
          "internalType": "address",
          "name": "buyer",
          "type": "address"
        },
        {
          "indexed": false,
          "internalType": "uint256",
          "name": "tokenId",
          "type": "uint256"
        }
      ],
      "name": "NewBuyer",
      "type": "event"
    },
    {
      "anonymous": false,
      "inputs": [
        {
          "indexed": false,
          "internalType": "address",
          "name": "owner",
          "type": "address"
        },
        {
          "indexed": false,
          "internalType": "uint256",
          "name": "tokenId",
          "type": "uint256"
        }
      ],
      "name": "NewToken",
      "type": "event"
    },
    {
      "inputs": [
        {
          "internalType": "uint256",
          "name": "price",
          "type": "uint256"
        },
        {
          "internalType": "uint256",
          "name": "royaltyPrice",
          "type": "uint256"
        },
        {
          "internalType": "string",
          "name": "projectHash",
          "type": "string"
        },
        {
          "internalType": "uint256[]",
          "name": "components",
          "type": "uint256[]"
        }
      ],
      "name": "mintToken",
      "outputs": [],
      "stateMutability": "nonpayable",
      "type": "function"
    },
    {
      "inputs": [
        {
          "internalType": "uint256",
          "name": "tokenId",
          "type": "uint256"
        }
      ],
      "name": "buyToken",
      "outputs": [],
      "stateMutability": "nonpayable",
      "type": "function"
    }
  ],
  "bytecode": "0x608060405234801561001057600080fd5b5060405161082f38038061082f8339818101604052810190610032919061011d565b816000806101000a81548173ffffffffffffffffffffffffffffffffffffffff021916908373ffffffffffffffffffffffffffffffffffffffff16021790555080600160006101000a81548173ffffffffffffffffffffffffffffffffffffffff021916908373ffffffffffffffffffffffffffffffffffffffff160217905550505061015d565b600080fd5b600073ffffffffffffffffffffffffffffffffffffffff82169050919050565b60006100ea826100bf565b9050919050565b6100fa816100df565b811461010557600080fd5b50565b600081519050610117816100f1565b92915050565b60008060408385031215610134576101336100ba565b5b600061014285828601610108565b925050602061015385828601610108565b9150509250929050565b6106c38061016c6000396000f3fe608060405234801561001057600080fd5b50600436106100365760003560e01c80632cbb195c1461003b5780632d296bf114610057575b600080fd5b6100556004803603810190610050919061033e565b610073565b005b610071600480360381019061006c91906103e5565b610162565b005b60008060009054906101000a900473ffffffffffffffffffffffffffffffffffffffff1673ffffffffffffffffffffffffffffffffffffffff1663cb9d7415338989898989896040518863ffffffff1660e01b81526004016100db979695949392919061053b565b6020604051808303816000875af11580156100fa573d6000803e3d6000fd5b505050506040513d601f19601f8201168201806040525081019061011e91906105b5565b90507f275a11e033325e9b28a23131fcc7e243a49bb38beb686051976dd8c8899d9a3c33826040516101519291906105e2565b60405180910390a150505050505050565b6000600160009054906101000a900473ffffffffffffffffffffffffffffffffffffffff1673ffffffffffffffffffffffffffffffffffffffff16631fc47b3783336040518363ffffffff1660e01b81526004016101c192919061060b565b6020604051808303816000875af11580156101e0573d6000803e3d6000fd5b505050506040513d601f19601f820116820180604052508101906102049190610660565b90507f144b3e2e4fd7dd40eb36ed87220ac31dbf840e8fcac4c2307981b514c3d28aaa81836040516102379291906105e2565b60405180910390a15050565b600080fd5b600080fd5b6000819050919050565b6102608161024d565b811461026b57600080fd5b50565b60008135905061027d81610257565b92915050565b600080fd5b600080fd5b600080fd5b60008083601f8401126102a8576102a7610283565b5b8235905067ffffffffffffffff8111156102c5576102c4610288565b5b6020830191508360018202830111156102e1576102e061028d565b5b9250929050565b60008083601f8401126102fe576102fd610283565b5b8235905067ffffffffffffffff81111561031b5761031a610288565b5b6020830191508360208202830111156103375761033661028d565b5b9250929050565b6000806000806000806080878903121561035b5761035a610243565b5b600061036989828a0161026e565b965050602061037a89828a0161026e565b955050604087013567ffffffffffffffff81111561039b5761039a610248565b5b6103a789828a01610292565b9450945050606087013567ffffffffffffffff8111156103ca576103c9610248565b5b6103d689828a016102e8565b92509250509295509295509295565b6000602082840312156103fb576103fa610243565b5b60006104098482850161026e565b91505092915050565b600073ffffffffffffffffffffffffffffffffffffffff82169050919050565b600061043d82610412565b9050919050565b61044d81610432565b82525050565b61045c8161024d565b82525050565b600082825260208201905092915050565b82818337600083830152505050565b6000601f19601f8301169050919050565b600061049f8385610462565b93506104ac838584610473565b6104b583610482565b840190509392505050565b600082825260208201905092915050565b600080fd5b82818337505050565b60006104eb83856104c0565b93507f07ffffffffffffffffffffffffffffffffffffffffffffffffffffffffffffff83111561051e5761051d6104d1565b5b60208302925061052f8385846104d6565b82840190509392505050565b600060a082019050610550600083018a610444565b61055d6020830189610453565b61056a6040830188610453565b818103606083015261057d818688610493565b905081810360808301526105928184866104df565b905098975050505050505050565b6000815190506105af81610257565b92915050565b6000602082840312156105cb576105ca610243565b5b60006105d9848285016105a0565b91505092915050565b60006040820190506105f76000830185610444565b6106046020830184610453565b9392505050565b60006040820190506106206000830185610453565b61062d6020830184610444565b9392505050565b61063d81610432565b811461064857600080fd5b50565b60008151905061065a81610634565b92915050565b60006020828403121561067657610675610243565b5b60006106848482850161064b565b9150509291505056fea2646970667358221220ea90161c863d6cf291df764f496915467eff27d3418a2f49e2021728f59af90064736f6c63430008130033",
  "immutableReferences": {},
  "source": "// SPDX-License-Identifier: MIT\npragma solidity ^0.8.19;\n\nimport './ProjectNFT.sol';\nimport './AccessSmartContract.sol';\n\ncontract Master {\n  ProjectNFT private projectNFT;\n  AccessSmartContract private accessContract;\n\n  event NewToken(address owner, uint256 tokenId);\n  event NewBuyer(address buyer, uint256 tokenId);\n\n  constructor(address projectNFTAddress, address accessContractAddress) {\n    projectNFT = ProjectNFT(projectNFTAddress);\n    accessContract = AccessSmartContract(accessContractAddress);\n  }\n\n  function mintToken(\n    uint256 price,\n    uint256 royaltyPrice,\n    string calldata projectHash,\n    uint256[] calldata components\n  ) public {\n    //TODO: check if the caller is authorized?\n\n    uint256 tokenId = projectNFT.mintToken(msg.sender, price, royaltyPrice, projectHash, components);\n\n    emit NewToken(msg.sender, tokenId);\n  }\n\n  function buyToken(uint256 tokenId) public {\n    address buyerAddress = accessContract.buyProject(tokenId, msg.sender);\n\n    emit NewBuyer(buyerAddress, tokenId);\n  }\n}\n",
  "sourcePath": "/home/matteo/Projects/Uni/blockchain-project/contracts/Master.sol",
  "compiler": {
    "name": "solc",
    "version": "0.8.19+commit.7dd6d404.Emscripten.clang"
  },
  "schemaVersion": "3.4.13",
  "updatedAt": "2023-06-27T11:14:54.100Z",
  "networkType": "ethereum",
  "devdoc": {
    "kind": "dev",
    "methods": {},
    "version": 1
  },
  "userdoc": {
    "kind": "user",
    "methods": {},
    "version": 1
  }
}