{
  "contractName": "Master",
  "abi": [
    {
      "inputs": [
        {
          "internalType": "address",
          "name": "projectNFTAddress",
          "type": "address"
        },
        {
          "internalType": "address",
          "name": "accessContractAddress",
          "type": "address"
        }
      ],
      "stateMutability": "nonpayable",
      "type": "constructor"
    },
    {
      "anonymous": false,
      "inputs": [
        {
          "indexed": false,
          "internalType": "address",
          "name": "buyer",
          "type": "address"
        },
        {
          "indexed": false,
          "internalType": "uint256",
          "name": "tokenId",
          "type": "uint256"
        }
      ],
      "name": "NewBuyer",
      "type": "event"
    },
    {
      "anonymous": false,
      "inputs": [
        {
          "indexed": false,
          "internalType": "address",
          "name": "owner",
          "type": "address"
        },
        {
          "indexed": false,
          "internalType": "uint256",
          "name": "tokenId",
          "type": "uint256"
        }
      ],
      "name": "NewToken",
      "type": "event"
    },
    {
      "inputs": [
        {
          "internalType": "uint256",
          "name": "price",
          "type": "uint256"
        },
        {
          "internalType": "uint256",
          "name": "royaltyPrice",
          "type": "uint256"
        },
        {
          "internalType": "string",
          "name": "projectHash",
          "type": "string"
        },
        {
          "internalType": "uint256[]",
          "name": "components",
          "type": "uint256[]"
        }
      ],
      "name": "mintToken",
      "outputs": [],
      "stateMutability": "nonpayable",
      "type": "function"
    },
    {
      "inputs": [
        {
          "internalType": "uint256",
          "name": "tokenId",
          "type": "uint256"
        }
      ],
      "name": "buyToken",
      "outputs": [],
      "stateMutability": "payable",
      "type": "function",
      "payable": true
    }
  ],
  "bytecode": "0x608060405234801561001057600080fd5b506040516104cd3803806104cd83398101604081905261002f9161007c565b600080546001600160a01b039384166001600160a01b031991821617909155600180549290931691161790556100af565b80516001600160a01b038116811461007757600080fd5b919050565b6000806040838503121561008f57600080fd5b61009883610060565b91506100a660208401610060565b90509250929050565b61040f806100be6000396000f3fe6080604052600436106100295760003560e01c80632cbb195c1461002e5780632d296bf114610050575b600080fd5b34801561003a57600080fd5b5061004e61004936600461022d565b610063565b005b61004e61005e3660046102dd565b610127565b6000805460405163cb9d741560e01b81526001600160a01b039091169063cb9d7415906100a09033908b908b908b908b908b908b906004016102f6565b6020604051808303816000875af11580156100bf573d6000803e3d6000fd5b505050506040513d601f19601f820116820180604052508101906100e39190610377565b90507f275a11e033325e9b28a23131fcc7e243a49bb38beb686051976dd8c8899d9a3c3382604051610116929190610390565b60405180910390a150505050505050565b6001546040516304e9dae560e01b8152600481018390523360248201523460448201526000916001600160a01b0316906304e9dae5906064016020604051808303816000875af115801561017f573d6000803e3d6000fd5b505050506040513d601f19601f820116820180604052508101906101a391906103a9565b90507f144b3e2e4fd7dd40eb36ed87220ac31dbf840e8fcac4c2307981b514c3d28aaa81836040516101d6929190610390565b60405180910390a15050565b60008083601f8401126101f457600080fd5b5081356001600160401b0381111561020b57600080fd5b6020830191508360208260051b850101111561022657600080fd5b9250929050565b6000806000806000806080878903121561024657600080fd5b863595506020870135945060408701356001600160401b038082111561026b57600080fd5b818901915089601f83011261027f57600080fd5b81358181111561028e57600080fd5b8a60208285010111156102a057600080fd5b6020830196508095505060608901359150808211156102be57600080fd5b506102cb89828a016101e2565b979a9699509497509295939492505050565b6000602082840312156102ef57600080fd5b5035919050565b60018060a01b038816815286602082015285604082015260a060608201528360a0820152838560c0830137600060c08583018101829052601f19601f8701168301838103820160808501529081018490526001600160fb1b0384111561035b57600080fd5b8360051b808660e08401370160e0019998505050505050505050565b60006020828403121561038957600080fd5b5051919050565b6001600160a01b03929092168252602082015260400190565b6000602082840312156103bb57600080fd5b81516001600160a01b03811681146103d257600080fd5b939250505056fea2646970667358221220d5c1160c105d0c6beda43f77af8773b2554615cd444cd4ac6c32972d1bbc022e64736f6c63430008130033",
  "immutableReferences": {},
  "source": "// SPDX-License-Identifier: MIT\npragma solidity ^0.8.19;\n\nimport './ProjectNFT.sol';\nimport './AccessSmartContract.sol';\n\ncontract Master {\n  ProjectNFT private projectNFT;\n  AccessSmartContract private accessContract;\n\n  event NewToken(address owner, uint256 tokenId);\n  event NewBuyer(address buyer, uint256 tokenId);\n\n  constructor(address projectNFTAddress, address accessContractAddress) {\n    projectNFT = ProjectNFT(projectNFTAddress);\n    accessContract = AccessSmartContract(accessContractAddress);\n  }\n\n  function mintToken(\n    uint256 price,\n    uint256 royaltyPrice,\n    string calldata projectHash,\n    uint256[] calldata components\n  ) public {\n    //TODO: check if the caller is authorized?\n\n    uint256 tokenId = projectNFT.mintToken(msg.sender, price, royaltyPrice, projectHash, components);\n\n    emit NewToken(msg.sender, tokenId);\n  }\n\n  function buyToken(uint256 tokenId) payable public {\n    address buyerAddress = accessContract.buyProject(tokenId, msg.sender, msg.value);\n\n    emit NewBuyer(buyerAddress, tokenId);\n  }\n}\n",
  "sourcePath": "/home/matteo/Projects/Uni/blockchain-project/contracts/Master.sol",
  "compiler": {
    "name": "solc",
    "version": "0.8.19+commit.7dd6d404.Emscripten.clang"
  },
  "schemaVersion": "3.4.13",
  "updatedAt": "2023-06-27T17:11:57.432Z",
  "networkType": "ethereum",
  "devdoc": {
    "kind": "dev",
    "methods": {},
    "version": 1
  },
  "userdoc": {
    "kind": "user",
    "methods": {},
    "version": 1
  }
}