{
  "contractName": "Master",
  "abi": [
    {
      "inputs": [
        {
          "internalType": "address",
          "name": "projectNFTAddress",
          "type": "address"
        },
        {
          "internalType": "address",
          "name": "accessContractAddress",
          "type": "address"
        }
      ],
      "stateMutability": "nonpayable",
      "type": "constructor"
    },
    {
      "anonymous": false,
      "inputs": [
        {
          "indexed": false,
          "internalType": "address",
          "name": "owner",
          "type": "address"
        },
        {
          "indexed": false,
          "internalType": "uint256",
          "name": "tokenId",
          "type": "uint256"
        }
      ],
      "name": "NewToken",
      "type": "event"
    },
    {
      "inputs": [
        {
          "internalType": "uint256",
          "name": "price",
          "type": "uint256"
        },
        {
          "internalType": "uint256",
          "name": "royaltyPrice",
          "type": "uint256"
        },
        {
          "internalType": "string",
          "name": "projectHash",
          "type": "string"
        },
        {
          "internalType": "uint256[]",
          "name": "components",
          "type": "uint256[]"
        }
      ],
      "name": "mintToken",
      "outputs": [],
      "stateMutability": "nonpayable",
      "type": "function"
    },
    {
      "inputs": [],
      "name": "buyToken",
      "outputs": [],
      "stateMutability": "nonpayable",
      "type": "function"
    }
  ],
  "bytecode": "0x608060405234801561001057600080fd5b5060405161068f38038061068f8339818101604052810190610032919061011d565b816000806101000a81548173ffffffffffffffffffffffffffffffffffffffff021916908373ffffffffffffffffffffffffffffffffffffffff16021790555080600160006101000a81548173ffffffffffffffffffffffffffffffffffffffff021916908373ffffffffffffffffffffffffffffffffffffffff160217905550505061015d565b600080fd5b600073ffffffffffffffffffffffffffffffffffffffff82169050919050565b60006100ea826100bf565b9050919050565b6100fa816100df565b811461010557600080fd5b50565b600081519050610117816100f1565b92915050565b60008060408385031215610134576101336100ba565b5b600061014285828601610108565b925050602061015385828601610108565b9150509250929050565b6105238061016c6000396000f3fe608060405234801561001057600080fd5b50600436106100365760003560e01c80632cbb195c1461003b578063a482171914610057575b600080fd5b6100556004803603810190610050919061024d565b610061565b005b61005f610150565b005b60008060009054906101000a900473ffffffffffffffffffffffffffffffffffffffff1673ffffffffffffffffffffffffffffffffffffffff1663cb9d7415338989898989896040518863ffffffff1660e01b81526004016100c9979695949392919061041d565b6020604051808303816000875af11580156100e8573d6000803e3d6000fd5b505050506040513d601f19601f8201168201806040525081019061010c9190610497565b90507f275a11e033325e9b28a23131fcc7e243a49bb38beb686051976dd8c8899d9a3c338260405161013f9291906104c4565b60405180910390a150505050505050565b565b600080fd5b600080fd5b6000819050919050565b61016f8161015c565b811461017a57600080fd5b50565b60008135905061018c81610166565b92915050565b600080fd5b600080fd5b600080fd5b60008083601f8401126101b7576101b6610192565b5b8235905067ffffffffffffffff8111156101d4576101d3610197565b5b6020830191508360018202830111156101f0576101ef61019c565b5b9250929050565b60008083601f84011261020d5761020c610192565b5b8235905067ffffffffffffffff81111561022a57610229610197565b5b6020830191508360208202830111156102465761024561019c565b5b9250929050565b6000806000806000806080878903121561026a57610269610152565b5b600061027889828a0161017d565b965050602061028989828a0161017d565b955050604087013567ffffffffffffffff8111156102aa576102a9610157565b5b6102b689828a016101a1565b9450945050606087013567ffffffffffffffff8111156102d9576102d8610157565b5b6102e589828a016101f7565b92509250509295509295509295565b600073ffffffffffffffffffffffffffffffffffffffff82169050919050565b600061031f826102f4565b9050919050565b61032f81610314565b82525050565b61033e8161015c565b82525050565b600082825260208201905092915050565b82818337600083830152505050565b6000601f19601f8301169050919050565b60006103818385610344565b935061038e838584610355565b61039783610364565b840190509392505050565b600082825260208201905092915050565b600080fd5b82818337505050565b60006103cd83856103a2565b93507f07ffffffffffffffffffffffffffffffffffffffffffffffffffffffffffffff831115610400576103ff6103b3565b5b6020830292506104118385846103b8565b82840190509392505050565b600060a082019050610432600083018a610326565b61043f6020830189610335565b61044c6040830188610335565b818103606083015261045f818688610375565b905081810360808301526104748184866103c1565b905098975050505050505050565b60008151905061049181610166565b92915050565b6000602082840312156104ad576104ac610152565b5b60006104bb84828501610482565b91505092915050565b60006040820190506104d96000830185610326565b6104e66020830184610335565b939250505056fea264697066735822122085c50691106853b0b8c8a7cec66848100ea77c9c4d762bcf0a49fc0f013bfc7864736f6c63430008130033",
  "immutableReferences": {},
  "source": "// SPDX-License-Identifier: MIT\npragma solidity ^0.8.19;\n\nimport './ProjectNFT.sol';\nimport './AccessSmartContract.sol';\n\ncontract Master {\n  ProjectNFT private projectNFT;\n  AccessSmartContract private accessContract;\n\n  event NewToken(address owner, uint256 tokenId);\n\n  constructor(address projectNFTAddress, address accessContractAddress) {\n    projectNFT = ProjectNFT(projectNFTAddress);\n    accessContract = AccessSmartContract(accessContractAddress);\n  }\n\n  function mintToken(\n    uint256 price,\n    uint256 royaltyPrice,\n    string calldata projectHash,\n    uint256[] calldata components\n  ) public {\n    //TODO: check if the caller is authorized?\n\n    uint256 tokenId = projectNFT.mintToken(msg.sender, price, royaltyPrice, projectHash, components);\n\n    emit NewToken(msg.sender, tokenId);\n  }\n\n  function buyToken() public {\n    // TODO\n  }\n}\n",
  "sourcePath": "/home/matteo/Projects/Uni/blockchain-project/contracts/Master.sol",
  "compiler": {
    "name": "solc",
    "version": "0.8.19+commit.7dd6d404.Emscripten.clang"
  },
  "schemaVersion": "3.4.13",
  "updatedAt": "2023-06-26T09:31:00.676Z",
  "networkType": "ethereum",
  "devdoc": {
    "kind": "dev",
    "methods": {},
    "version": 1
  },
  "userdoc": {
    "kind": "user",
    "methods": {},
    "version": 1
  }
}