{
  "contractName": "Master",
  "abi": [
    {
      "inputs": [
        {
          "internalType": "address",
          "name": "projectNFTAddress",
          "type": "address"
        },
        {
          "internalType": "address",
          "name": "accessContractAddress",
          "type": "address"
        }
      ],
      "stateMutability": "nonpayable",
      "type": "constructor"
    },
    {
      "inputs": [
        {
          "internalType": "uint256",
          "name": "price",
          "type": "uint256"
        },
        {
          "internalType": "uint256",
          "name": "royaltyPrice",
          "type": "uint256"
        },
        {
          "internalType": "string",
          "name": "projectHash",
          "type": "string"
        },
        {
          "internalType": "uint256[]",
          "name": "components",
          "type": "uint256[]"
        }
      ],
      "name": "mintToken",
      "outputs": [
        {
          "internalType": "uint256",
          "name": "",
          "type": "uint256"
        }
      ],
      "stateMutability": "nonpayable",
      "type": "function"
    },
    {
      "inputs": [],
      "name": "buyToken",
      "outputs": [],
      "stateMutability": "nonpayable",
      "type": "function"
    }
  ],
  "bytecode": "0x608060405234801561001057600080fd5b506040516106613803806106618339818101604052810190610032919061011d565b816000806101000a81548173ffffffffffffffffffffffffffffffffffffffff021916908373ffffffffffffffffffffffffffffffffffffffff16021790555080600160006101000a81548173ffffffffffffffffffffffffffffffffffffffff021916908373ffffffffffffffffffffffffffffffffffffffff160217905550505061015d565b600080fd5b600073ffffffffffffffffffffffffffffffffffffffff82169050919050565b60006100ea826100bf565b9050919050565b6100fa816100df565b811461010557600080fd5b50565b600081519050610117816100f1565b92915050565b60008060408385031215610134576101336100ba565b5b600061014285828601610108565b925050602061015385828601610108565b9150509250929050565b6104f58061016c6000396000f3fe608060405234801561001057600080fd5b50600436106100365760003560e01c80632cbb195c1461003b578063a48217191461006b575b600080fd5b6100556004803603810190610050919061022d565b610075565b60405161006291906102e3565b60405180910390f35b610073610130565b005b60008060008054906101000a900473ffffffffffffffffffffffffffffffffffffffff1673ffffffffffffffffffffffffffffffffffffffff1663cb9d7415338a8a8a8a8a8a6040518863ffffffff1660e01b81526004016100dd9796959493929190610418565b6020604051808303816000875af11580156100fc573d6000803e3d6000fd5b505050506040513d601f19601f820116820180604052508101906101209190610492565b9050809150509695505050505050565b565b600080fd5b600080fd5b6000819050919050565b61014f8161013c565b811461015a57600080fd5b50565b60008135905061016c81610146565b92915050565b600080fd5b600080fd5b600080fd5b60008083601f84011261019757610196610172565b5b8235905067ffffffffffffffff8111156101b4576101b3610177565b5b6020830191508360018202830111156101d0576101cf61017c565b5b9250929050565b60008083601f8401126101ed576101ec610172565b5b8235905067ffffffffffffffff81111561020a57610209610177565b5b6020830191508360208202830111156102265761022561017c565b5b9250929050565b6000806000806000806080878903121561024a57610249610132565b5b600061025889828a0161015d565b965050602061026989828a0161015d565b955050604087013567ffffffffffffffff81111561028a57610289610137565b5b61029689828a01610181565b9450945050606087013567ffffffffffffffff8111156102b9576102b8610137565b5b6102c589828a016101d7565b92509250509295509295509295565b6102dd8161013c565b82525050565b60006020820190506102f860008301846102d4565b92915050565b600073ffffffffffffffffffffffffffffffffffffffff82169050919050565b6000610329826102fe565b9050919050565b6103398161031e565b82525050565b600082825260208201905092915050565b82818337600083830152505050565b6000601f19601f8301169050919050565b600061037c838561033f565b9350610389838584610350565b6103928361035f565b840190509392505050565b600082825260208201905092915050565b600080fd5b82818337505050565b60006103c8838561039d565b93507f07ffffffffffffffffffffffffffffffffffffffffffffffffffffffffffffff8311156103fb576103fa6103ae565b5b60208302925061040c8385846103b3565b82840190509392505050565b600060a08201905061042d600083018a610330565b61043a60208301896102d4565b61044760408301886102d4565b818103606083015261045a818688610370565b9050818103608083015261046f8184866103bc565b905098975050505050505050565b60008151905061048c81610146565b92915050565b6000602082840312156104a8576104a7610132565b5b60006104b68482850161047d565b9150509291505056fea2646970667358221220f2689104d74f538f289379746b4af2f5d5d9fe55fa1af9e47bcbd33425b0b1e764736f6c63430008130033",
  "immutableReferences": {},
  "source": "// SPDX-License-Identifier: MIT\npragma solidity ^0.8.19;\n\nimport './ProjectNFT.sol';\nimport './AccessSmartContract.sol';\n\ncontract Master {\n  ProjectNFT private projectNFT;\n  AccessSmartContract private accessContract;\n\n  constructor(address projectNFTAddress, address accessContractAddress) {\n    projectNFT = ProjectNFT(projectNFTAddress);\n    accessContract = AccessSmartContract(accessContractAddress);\n  }\n\n  function mintToken(\n    uint256 price,\n    uint256 royaltyPrice,\n    string calldata projectHash,\n    uint256[] calldata components\n  ) public returns (uint256) {\n    //TODO: check if the caller is authorized?\n\n    uint256 tokenId = projectNFT.mintToken(msg.sender, price, royaltyPrice, projectHash, components);\n\n    return tokenId;\n  }\n\n  function buyToken() public {\n    // TODO\n  }\n}\n",
  "sourcePath": "/home/matteo/Projects/Uni/blockchain-project/contracts/Master.sol",
  "compiler": {
    "name": "solc",
    "version": "0.8.19+commit.7dd6d404.Emscripten.clang"
  },
  "schemaVersion": "3.4.13",
  "updatedAt": "2023-06-25T09:46:48.162Z",
  "networkType": "ethereum",
  "devdoc": {
    "kind": "dev",
    "methods": {},
    "version": 1
  },
  "userdoc": {
    "kind": "user",
    "methods": {},
    "version": 1
  }
}