{
  "contractName": "Master",
  "abi": [
    {
      "inputs": [
        {
          "internalType": "address",
          "name": "_contractAddress",
          "type": "address"
        }
      ],
      "stateMutability": "nonpayable",
      "type": "constructor"
    },
    {
      "inputs": [],
      "name": "projectNFTAddress",
      "outputs": [
        {
          "internalType": "address",
          "name": "",
          "type": "address"
        }
      ],
      "stateMutability": "view",
      "type": "function"
    },
    {
      "inputs": [
        {
          "internalType": "string",
          "name": "uri",
          "type": "string"
        },
        {
          "internalType": "uint256",
          "name": "price",
          "type": "uint256"
        }
      ],
      "name": "mintToken",
      "outputs": [
        {
          "internalType": "bool",
          "name": "",
          "type": "bool"
        }
      ],
      "stateMutability": "nonpayable",
      "type": "function"
    }
  ],
  "bytecode": "0x608060405234801561001057600080fd5b506040516107a23803806107a2833981810160405281019061003291906100db565b806000806101000a81548173ffffffffffffffffffffffffffffffffffffffff021916908373ffffffffffffffffffffffffffffffffffffffff16021790555050610108565b600080fd5b600073ffffffffffffffffffffffffffffffffffffffff82169050919050565b60006100a88261007d565b9050919050565b6100b88161009d565b81146100c357600080fd5b50565b6000815190506100d5816100af565b92915050565b6000602082840312156100f1576100f0610078565b5b60006100ff848285016100c6565b91505092915050565b61068b806101176000396000f3fe608060405234801561001057600080fd5b50600436106100365760003560e01c806390cc0f0f1461003b578063c046372c14610059575b600080fd5b610043610089565b604051610050919061025c565b60405180910390f35b610073600480360381019061006e9190610407565b6100ad565b604051610080919061047e565b60405180910390f35b60008054906101000a900473ffffffffffffffffffffffffffffffffffffffff1681565b60008060008060009054906101000a900473ffffffffffffffffffffffffffffffffffffffff1673ffffffffffffffffffffffffffffffffffffffff163386866040516024016100ff93929190610527565b6040516020818303038152906040527f264b3fa0000000000000000000000000000000000000000000000000000000007bffffffffffffffffffffffffffffffffffffffffffffffffffffffff19166020820180517bffffffffffffffffffffffffffffffffffffffffffffffffffffffff838183161783525050505060405161018991906105ac565b6000604051808303816000865af19150503d80600081146101c6576040519150601f19603f3d011682016040523d82523d6000602084013e6101cb565b606091505b509150915081610210576040517f08c379a000000000000000000000000000000000000000000000000000000000815260040161020790610635565b60405180910390fd5b819250505092915050565b600073ffffffffffffffffffffffffffffffffffffffff82169050919050565b60006102468261021b565b9050919050565b6102568161023b565b82525050565b6000602082019050610271600083018461024d565b92915050565b6000604051905090565b600080fd5b600080fd5b600080fd5b600080fd5b6000601f19601f8301169050919050565b7f4e487b7100000000000000000000000000000000000000000000000000000000600052604160045260246000fd5b6102de82610295565b810181811067ffffffffffffffff821117156102fd576102fc6102a6565b5b80604052505050565b6000610310610277565b905061031c82826102d5565b919050565b600067ffffffffffffffff82111561033c5761033b6102a6565b5b61034582610295565b9050602081019050919050565b82818337600083830152505050565b600061037461036f84610321565b610306565b9050828152602081018484840111156103905761038f610290565b5b61039b848285610352565b509392505050565b600082601f8301126103b8576103b761028b565b5b81356103c8848260208601610361565b91505092915050565b6000819050919050565b6103e4816103d1565b81146103ef57600080fd5b50565b600081359050610401816103db565b92915050565b6000806040838503121561041e5761041d610281565b5b600083013567ffffffffffffffff81111561043c5761043b610286565b5b610448858286016103a3565b9250506020610459858286016103f2565b9150509250929050565b60008115159050919050565b61047881610463565b82525050565b6000602082019050610493600083018461046f565b92915050565b600081519050919050565b600082825260208201905092915050565b60005b838110156104d35780820151818401526020810190506104b8565b60008484015250505050565b60006104ea82610499565b6104f481856104a4565b93506105048185602086016104b5565b61050d81610295565b840191505092915050565b610521816103d1565b82525050565b600060608201905061053c600083018661024d565b818103602083015261054e81856104df565b905061055d6040830184610518565b949350505050565b600081519050919050565b600081905092915050565b600061058682610565565b6105908185610570565b93506105a08185602086016104b5565b80840191505092915050565b60006105b8828461057b565b915081905092915050565b7f4661696c656420746f2063616c6c206d696e74546f6b656e206f6e204465736960008201527f676e65724e465400000000000000000000000000000000000000000000000000602082015250565b600061061f6027836104a4565b915061062a826105c3565b604082019050919050565b6000602082019050818103600083015261064e81610612565b905091905056fea2646970667358221220e152c0e49602da607b60b64b4d70a027dd3e338678b7bb3dafb5d49df5b5ae3b64736f6c63430008130033",
  "immutableReferences": {},
  "source": "// SPDX-License-Identifier: MIT\npragma solidity ^0.8.19;\n\nimport \"./ProjectNFT.sol\";\n\ncontract Master {\n    address public projectNFTAddress;\n\n    constructor(address _contractAddress) {\n        projectNFTAddress = _contractAddress;\n    }\n\n    //from the address of the contract A, we can call the function mintToken\n    function mintToken(string memory uri, uint256 price) public returns (bool){ //aggiungere hash\n        //TODO: check if the caller is authorized\n        \n        (bool success, bytes memory result) = projectNFTAddress.call(abi.encodeWithSignature(\"mintToken(address,string, uint256)\", msg.sender, uri, price));\n        require(success, \"Failed to call mintToken on DesignerNFT\");\n        //address sender = abi.decode(result, (address));\n\n        return success;\n    }\n\n}\n",
  "sourcePath": "/home/matteo/Projects/Uni/blockchain-project/contracts/Master.sol",
  "compiler": {
    "name": "solc",
    "version": "0.8.19+commit.7dd6d404.Emscripten.clang"
  },
  "schemaVersion": "3.4.13",
  "updatedAt": "2023-06-21T12:59:28.983Z",
  "devdoc": {
    "kind": "dev",
    "methods": {},
    "version": 1
  },
  "userdoc": {
    "kind": "user",
    "methods": {},
    "version": 1
  }
}