{
  "contractName": "Master",
  "abi": [
    {
      "inputs": [
        {
          "internalType": "address",
          "name": "projectNFTAddress",
          "type": "address"
        },
        {
          "internalType": "address",
          "name": "accessContractAddress",
          "type": "address"
        }
      ],
      "stateMutability": "nonpayable",
      "type": "constructor"
    },
    {
      "inputs": [
        {
          "internalType": "uint256",
          "name": "price",
          "type": "uint256"
        },
        {
          "internalType": "uint256",
          "name": "royaltyPrice",
          "type": "uint256"
        },
        {
          "internalType": "string",
          "name": "projectHash",
          "type": "string"
        },
        {
          "internalType": "uint256[]",
          "name": "components",
          "type": "uint256[]"
        }
      ],
      "name": "mintToken",
      "outputs": [
        {
          "internalType": "uint256",
          "name": "",
          "type": "uint256"
        }
      ],
      "stateMutability": "nonpayable",
      "type": "function"
    }
  ],
  "bytecode": "0x608060405234801561001057600080fd5b5060405161064a38038061064a8339818101604052810190610032919061011d565b816000806101000a81548173ffffffffffffffffffffffffffffffffffffffff021916908373ffffffffffffffffffffffffffffffffffffffff16021790555080600160006101000a81548173ffffffffffffffffffffffffffffffffffffffff021916908373ffffffffffffffffffffffffffffffffffffffff160217905550505061015d565b600080fd5b600073ffffffffffffffffffffffffffffffffffffffff82169050919050565b60006100ea826100bf565b9050919050565b6100fa816100df565b811461010557600080fd5b50565b600081519050610117816100f1565b92915050565b60008060408385031215610134576101336100ba565b5b600061014285828601610108565b925050602061015385828601610108565b9150509250929050565b6104de8061016c6000396000f3fe608060405234801561001057600080fd5b506004361061002b5760003560e01c80632cbb195c14610030575b600080fd5b61004a60048036038101906100459190610216565b610060565b60405161005791906102cc565b60405180910390f35b60008060008054906101000a900473ffffffffffffffffffffffffffffffffffffffff1673ffffffffffffffffffffffffffffffffffffffff1663cb9d7415338a8a8a8a8a8a6040518863ffffffff1660e01b81526004016100c89796959493929190610401565b6020604051808303816000875af11580156100e7573d6000803e3d6000fd5b505050506040513d601f19601f8201168201806040525081019061010b919061047b565b9050809150509695505050505050565b600080fd5b600080fd5b6000819050919050565b61013881610125565b811461014357600080fd5b50565b6000813590506101558161012f565b92915050565b600080fd5b600080fd5b600080fd5b60008083601f8401126101805761017f61015b565b5b8235905067ffffffffffffffff81111561019d5761019c610160565b5b6020830191508360018202830111156101b9576101b8610165565b5b9250929050565b60008083601f8401126101d6576101d561015b565b5b8235905067ffffffffffffffff8111156101f3576101f2610160565b5b60208301915083602082028301111561020f5761020e610165565b5b9250929050565b600080600080600080608087890312156102335761023261011b565b5b600061024189828a01610146565b965050602061025289828a01610146565b955050604087013567ffffffffffffffff81111561027357610272610120565b5b61027f89828a0161016a565b9450945050606087013567ffffffffffffffff8111156102a2576102a1610120565b5b6102ae89828a016101c0565b92509250509295509295509295565b6102c681610125565b82525050565b60006020820190506102e160008301846102bd565b92915050565b600073ffffffffffffffffffffffffffffffffffffffff82169050919050565b6000610312826102e7565b9050919050565b61032281610307565b82525050565b600082825260208201905092915050565b82818337600083830152505050565b6000601f19601f8301169050919050565b60006103658385610328565b9350610372838584610339565b61037b83610348565b840190509392505050565b600082825260208201905092915050565b600080fd5b82818337505050565b60006103b18385610386565b93507f07ffffffffffffffffffffffffffffffffffffffffffffffffffffffffffffff8311156103e4576103e3610397565b5b6020830292506103f583858461039c565b82840190509392505050565b600060a082019050610416600083018a610319565b61042360208301896102bd565b61043060408301886102bd565b8181036060830152610443818688610359565b905081810360808301526104588184866103a5565b905098975050505050505050565b6000815190506104758161012f565b92915050565b6000602082840312156104915761049061011b565b5b600061049f84828501610466565b9150509291505056fea2646970667358221220e63e3636b12ee00d0b744e61ef3fe289c35a90eb5f9cb8f4f123043c3b66a89664736f6c63430008130033",
  "immutableReferences": {},
  "source": "// SPDX-License-Identifier: MIT\npragma solidity ^0.8.19;\n\nimport './ProjectNFT.sol';\nimport './AccessSmartContract.sol';\n\ncontract Master {\n  ProjectNFT private projectNFT;\n  AccessSmartContract private accessContract;\n\n  constructor(address projectNFTAddress, address accessContractAddress) {\n    projectNFT = ProjectNFT(projectNFTAddress);\n    accessContract = AccessSmartContract(accessContractAddress);\n  }\n\n  function mintToken(\n    uint256 price,\n    uint256 royaltyPrice,\n    string calldata projectHash,\n    uint256[] calldata components\n  ) public returns (uint256) {\n    //TODO: check if the caller is authorized?\n\n    uint256 tokenId = projectNFT.mintToken(msg.sender, price, royaltyPrice, projectHash, components);\n\n    return tokenId;\n  }\n}\n",
  "sourcePath": "/home/matteo/Projects/Uni/blockchain-project/contracts/Master.sol",
  "compiler": {
    "name": "solc",
    "version": "0.8.19+commit.7dd6d404.Emscripten.clang"
  },
  "schemaVersion": "3.4.13",
  "updatedAt": "2023-06-22T13:21:20.868Z",
  "networkType": "ethereum",
  "devdoc": {
    "kind": "dev",
    "methods": {},
    "version": 1
  },
  "userdoc": {
    "kind": "user",
    "methods": {},
    "version": 1
  }
}