{
  "contractName": "Master",
  "abi": [
    {
      "inputs": [
        {
          "internalType": "address",
          "name": "_contractAddress",
          "type": "address"
        }
      ],
      "stateMutability": "nonpayable",
      "type": "constructor"
    },
    {
      "inputs": [],
      "name": "projectNFTAddress",
      "outputs": [
        {
          "internalType": "address",
          "name": "",
          "type": "address"
        }
      ],
      "stateMutability": "view",
      "type": "function",
      "constant": true
    },
    {
      "inputs": [
        {
          "internalType": "uint256",
          "name": "price",
          "type": "uint256"
        },
        {
          "internalType": "uint256",
          "name": "royaltyPrice",
          "type": "uint256"
        },
        {
          "internalType": "string",
          "name": "projectHash",
          "type": "string"
        },
        {
          "internalType": "uint256[]",
          "name": "components",
          "type": "uint256[]"
        }
      ],
      "name": "mintToken",
      "outputs": [
        {
          "internalType": "bool",
          "name": "",
          "type": "bool"
        }
      ],
      "stateMutability": "nonpayable",
      "type": "function"
    }
  ],
  "bytecode": "0x608060405234801561001057600080fd5b5060405161080f38038061080f833981810160405281019061003291906100db565b806000806101000a81548173ffffffffffffffffffffffffffffffffffffffff021916908373ffffffffffffffffffffffffffffffffffffffff16021790555050610108565b600080fd5b600073ffffffffffffffffffffffffffffffffffffffff82169050919050565b60006100a88261007d565b9050919050565b6100b88161009d565b81146100c357600080fd5b50565b6000815190506100d5816100af565b92915050565b6000602082840312156100f1576100f0610078565b5b60006100ff848285016100c6565b91505092915050565b6106f8806101176000396000f3fe608060405234801561001057600080fd5b50600436106100365760003560e01c80632cbb195c1461003b57806390cc0f0f1461006b575b600080fd5b61005560048036038101906100509190610322565b610089565b60405161006291906103e4565b60405180910390f35b610073610203565b6040516100809190610440565b60405180910390f35b60008060008060009054906101000a900473ffffffffffffffffffffffffffffffffffffffff1673ffffffffffffffffffffffffffffffffffffffff16338a8a8a8a8a8a6040516024016100e39796959493929190610543565b6040516020818303038152906040527f98555444000000000000000000000000000000000000000000000000000000007bffffffffffffffffffffffffffffffffffffffffffffffffffffffff19166020820180517bffffffffffffffffffffffffffffffffffffffffffffffffffffffff838183161783525050505060405161016d9190610619565b6000604051808303816000865af19150503d80600081146101aa576040519150601f19603f3d011682016040523d82523d6000602084013e6101af565b606091505b5091509150816101f4576040517f08c379a00000000000000000000000000000000000000000000000000000000081526004016101eb906106a2565b60405180910390fd5b81925050509695505050505050565b60008054906101000a900473ffffffffffffffffffffffffffffffffffffffff1681565b600080fd5b600080fd5b6000819050919050565b61024481610231565b811461024f57600080fd5b50565b6000813590506102618161023b565b92915050565b600080fd5b600080fd5b600080fd5b60008083601f84011261028c5761028b610267565b5b8235905067ffffffffffffffff8111156102a9576102a861026c565b5b6020830191508360018202830111156102c5576102c4610271565b5b9250929050565b60008083601f8401126102e2576102e1610267565b5b8235905067ffffffffffffffff8111156102ff576102fe61026c565b5b60208301915083602082028301111561031b5761031a610271565b5b9250929050565b6000806000806000806080878903121561033f5761033e610227565b5b600061034d89828a01610252565b965050602061035e89828a01610252565b955050604087013567ffffffffffffffff81111561037f5761037e61022c565b5b61038b89828a01610276565b9450945050606087013567ffffffffffffffff8111156103ae576103ad61022c565b5b6103ba89828a016102cc565b92509250509295509295509295565b60008115159050919050565b6103de816103c9565b82525050565b60006020820190506103f960008301846103d5565b92915050565b600073ffffffffffffffffffffffffffffffffffffffff82169050919050565b600061042a826103ff565b9050919050565b61043a8161041f565b82525050565b60006020820190506104556000830184610431565b92915050565b61046481610231565b82525050565b600082825260208201905092915050565b82818337600083830152505050565b6000601f19601f8301169050919050565b60006104a7838561046a565b93506104b483858461047b565b6104bd8361048a565b840190509392505050565b600082825260208201905092915050565b600080fd5b82818337505050565b60006104f383856104c8565b93507f07ffffffffffffffffffffffffffffffffffffffffffffffffffffffffffffff831115610526576105256104d9565b5b6020830292506105378385846104de565b82840190509392505050565b600060a082019050610558600083018a610431565b610565602083018961045b565b610572604083018861045b565b818103606083015261058581868861049b565b9050818103608083015261059a8184866104e7565b905098975050505050505050565b600081519050919050565b600081905092915050565b60005b838110156105dc5780820151818401526020810190506105c1565b60008484015250505050565b60006105f3826105a8565b6105fd81856105b3565b935061060d8185602086016105be565b80840191505092915050565b600061062582846105e8565b915081905092915050565b7f4661696c656420746f2063616c6c206d696e74546f6b656e206f6e204465736960008201527f676e65724e465400000000000000000000000000000000000000000000000000602082015250565b600061068c60278361046a565b915061069782610630565b604082019050919050565b600060208201905081810360008301526106bb8161067f565b905091905056fea2646970667358221220be2c88389cf06688c542643c914eb9bb11c602856486d8e464f67d4ebf2121f364736f6c63430008130033",
  "immutableReferences": {},
  "source": "// SPDX-License-Identifier: MIT\npragma solidity ^0.8.19;\n\nimport './ProjectNFT.sol';\n\ncontract Master {\n  address public projectNFTAddress;\n\n  constructor(address _contractAddress) {\n    projectNFTAddress = _contractAddress;\n  }\n\n  //from the address of the contract A, we can call the function mintToken\n  function mintToken(\n    uint256 price,\n    uint256 royaltyPrice,\n    string calldata projectHash,\n    uint256[] calldata components\n  ) public returns (bool) {\n    //aggiungere hash\n    //TODO: check if the caller is authorized\n\n    (bool success, bytes memory result) = projectNFTAddress.call(\n      abi.encodeWithSignature('mintToken(address, uint256, uint256, string, uint256[])',\n       msg.sender, price, royaltyPrice, projectHash, components)\n    );\n    require(success, 'Failed to call mintToken on DesignerNFT');\n    //address sender = abi.decode(result, (address));\n\n    return success;\n  }\n}\n",
  "sourcePath": "/home/matteo/Projects/Uni/blockchain-project/contracts/Master.sol",
  "compiler": {
    "name": "solc",
    "version": "0.8.19+commit.7dd6d404.Emscripten.clang"
  },
  "schemaVersion": "3.4.13",
  "updatedAt": "2023-06-21T16:22:54.925Z",
  "networkType": "ethereum",
  "devdoc": {
    "kind": "dev",
    "methods": {},
    "version": 1
  },
  "userdoc": {
    "kind": "user",
    "methods": {},
    "version": 1
  }
}