{
  "contractName": "Master",
  "abi": [
    {
      "inputs": [
        {
          "internalType": "address",
          "name": "_contractAddress",
          "type": "address"
        }
      ],
      "stateMutability": "nonpayable",
      "type": "constructor"
    },
    {
      "inputs": [],
      "name": "projectNFTAddress",
      "outputs": [
        {
          "internalType": "address",
          "name": "",
          "type": "address"
        }
      ],
      "stateMutability": "view",
      "type": "function"
    },
    {
      "inputs": [
        {
          "internalType": "string",
          "name": "uri",
          "type": "string"
        },
        {
          "internalType": "uint256",
          "name": "price",
          "type": "uint256"
        },
        {
          "internalType": "uint256",
          "name": "royaltyPrice",
          "type": "uint256"
        },
        {
          "internalType": "string",
          "name": "projectHash",
          "type": "string"
        },
        {
          "internalType": "uint256[]",
          "name": "components",
          "type": "uint256[]"
        }
      ],
      "name": "mintToken",
      "outputs": [
        {
          "internalType": "bool",
          "name": "",
          "type": "bool"
        }
      ],
      "stateMutability": "nonpayable",
      "type": "function"
    }
  ],
  "bytecode": "0x608060405234801561001057600080fd5b50604051610861380380610861833981810160405281019061003291906100db565b806000806101000a81548173ffffffffffffffffffffffffffffffffffffffff021916908373ffffffffffffffffffffffffffffffffffffffff16021790555050610108565b600080fd5b600073ffffffffffffffffffffffffffffffffffffffff82169050919050565b60006100a88261007d565b9050919050565b6100b88161009d565b81146100c357600080fd5b50565b6000815190506100d5816100af565b92915050565b6000602082840312156100f1576100f0610078565b5b60006100ff848285016100c6565b91505092915050565b61074a806101176000396000f3fe608060405234801561001057600080fd5b50600436106100365760003560e01c80632d59e0161461003b57806390cc0f0f1461006b575b600080fd5b61005560048036038101906100509190610328565b610089565b604051610062919061041f565b60405180910390f35b610073610209565b604051610080919061047b565b60405180910390f35b60008060008060009054906101000a900473ffffffffffffffffffffffffffffffffffffffff1673ffffffffffffffffffffffffffffffffffffffff16338c8c8c8c8c8c8c8c6040516024016100e79998979695949392919061057e565b6040516020818303038152906040527f6e6ec516000000000000000000000000000000000000000000000000000000007bffffffffffffffffffffffffffffffffffffffffffffffffffffffff19166020820180517bffffffffffffffffffffffffffffffffffffffffffffffffffffffff8381831617835250505050604051610171919061066b565b6000604051808303816000865af19150503d80600081146101ae576040519150601f19603f3d011682016040523d82523d6000602084013e6101b3565b606091505b5091509150816101f8576040517f08c379a00000000000000000000000000000000000000000000000000000000081526004016101ef906106f4565b60405180910390fd5b819250505098975050505050505050565b60008054906101000a900473ffffffffffffffffffffffffffffffffffffffff1681565b600080fd5b600080fd5b600080fd5b600080fd5b600080fd5b60008083601f84011261025c5761025b610237565b5b8235905067ffffffffffffffff8111156102795761027861023c565b5b60208301915083600182028301111561029557610294610241565b5b9250929050565b6000819050919050565b6102af8161029c565b81146102ba57600080fd5b50565b6000813590506102cc816102a6565b92915050565b60008083601f8401126102e8576102e7610237565b5b8235905067ffffffffffffffff8111156103055761030461023c565b5b60208301915083602082028301111561032157610320610241565b5b9250929050565b60008060008060008060008060a0898b0312156103485761034761022d565b5b600089013567ffffffffffffffff81111561036657610365610232565b5b6103728b828c01610246565b985098505060206103858b828c016102bd565b96505060406103968b828c016102bd565b955050606089013567ffffffffffffffff8111156103b7576103b6610232565b5b6103c38b828c01610246565b9450945050608089013567ffffffffffffffff8111156103e6576103e5610232565b5b6103f28b828c016102d2565b92509250509295985092959890939650565b60008115159050919050565b61041981610404565b82525050565b60006020820190506104346000830184610410565b92915050565b600073ffffffffffffffffffffffffffffffffffffffff82169050919050565b60006104658261043a565b9050919050565b6104758161045a565b82525050565b6000602082019050610490600083018461046c565b92915050565b600082825260208201905092915050565b82818337600083830152505050565b6000601f19601f8301169050919050565b60006104d38385610496565b93506104e08385846104a7565b6104e9836104b6565b840190509392505050565b6104fd8161029c565b82525050565b600082825260208201905092915050565b600080fd5b82818337505050565b600061052e8385610503565b93507f07ffffffffffffffffffffffffffffffffffffffffffffffffffffffffffffff83111561056157610560610514565b5b602083029250610572838584610519565b82840190509392505050565b600060c082019050610593600083018c61046c565b81810360208301526105a6818a8c6104c7565b90506105b560408301896104f4565b6105c260608301886104f4565b81810360808301526105d58186886104c7565b905081810360a08301526105ea818486610522565b90509a9950505050505050505050565b600081519050919050565b600081905092915050565b60005b8381101561062e578082015181840152602081019050610613565b60008484015250505050565b6000610645826105fa565b61064f8185610605565b935061065f818560208601610610565b80840191505092915050565b6000610677828461063a565b915081905092915050565b7f4661696c656420746f2063616c6c206d696e74546f6b656e206f6e204465736960008201527f676e65724e465400000000000000000000000000000000000000000000000000602082015250565b60006106de602783610496565b91506106e982610682565b604082019050919050565b6000602082019050818103600083015261070d816106d1565b905091905056fea264697066735822122037ef946413509ddac0e05bbcce4ae383311655746f14c8f35094022ab300e26864736f6c63430008130033",
  "immutableReferences": {},
  "source": "// SPDX-License-Identifier: MIT\npragma solidity ^0.8.19;\n\nimport './ProjectNFT.sol';\n\ncontract Master {\n  address public projectNFTAddress;\n\n  constructor(address _contractAddress) {\n    projectNFTAddress = _contractAddress;\n  }\n\n  //from the address of the contract A, we can call the function mintToken\n  function mintToken(\n    string calldata uri,\n    uint256 price,\n    uint256 royaltyPrice,\n    string calldata projectHash,\n    uint256[] calldata components\n  ) public returns (bool) {\n    //aggiungere hash\n    //TODO: check if the caller is authorized\n\n    (bool success, bytes memory result) = projectNFTAddress.call(\n      abi.encodeWithSignature('mintToken(address, string, uint256, uint256, string, uint256[])',\n       msg.sender, uri, price, royaltyPrice, projectHash, components)\n    );\n    require(success, 'Failed to call mintToken on DesignerNFT');\n    //address sender = abi.decode(result, (address));\n\n    return success;\n  }\n}\n",
  "sourcePath": "/home/matteo/Projects/Uni/blockchain-project/contracts/Master.sol",
  "compiler": {
    "name": "solc",
    "version": "0.8.19+commit.7dd6d404.Emscripten.clang"
  },
  "schemaVersion": "3.4.13",
  "updatedAt": "2023-06-21T14:23:10.783Z",
  "devdoc": {
    "kind": "dev",
    "methods": {},
    "version": 1
  },
  "userdoc": {
    "kind": "user",
    "methods": {},
    "version": 1
  }
}