{
  "contractName": "Master",
  "abi": [
    {
      "inputs": [
        {
          "internalType": "address",
          "name": "_contractAddress",
          "type": "address"
        }
      ],
      "stateMutability": "nonpayable",
      "type": "constructor"
    },
    {
      "inputs": [],
      "name": "projectNFTAddress",
      "outputs": [
        {
          "internalType": "address",
          "name": "",
          "type": "address"
        }
      ],
      "stateMutability": "view",
      "type": "function",
      "constant": true
    },
    {
      "inputs": [
        {
          "internalType": "uint256",
          "name": "price",
          "type": "uint256"
        },
        {
          "internalType": "uint256",
          "name": "royaltyPrice",
          "type": "uint256"
        },
        {
          "internalType": "string",
          "name": "projectHash",
          "type": "string"
        },
        {
          "internalType": "uint256[]",
          "name": "components",
          "type": "uint256[]"
        }
      ],
      "name": "mintToken",
      "outputs": [
        {
          "internalType": "bool",
          "name": "",
          "type": "bool"
        }
      ],
      "stateMutability": "nonpayable",
      "type": "function"
    }
  ],
  "bytecode": "0x608060405234801561001057600080fd5b506040516106d93803806106d98339818101604052810190610032919061013c565b806000806101000a81548173ffffffffffffffffffffffffffffffffffffffff021916908373ffffffffffffffffffffffffffffffffffffffff16021790555060008054906101000a900473ffffffffffffffffffffffffffffffffffffffff16600160006101000a81548173ffffffffffffffffffffffffffffffffffffffff021916908373ffffffffffffffffffffffffffffffffffffffff16021790555050610169565b600080fd5b600073ffffffffffffffffffffffffffffffffffffffff82169050919050565b6000610109826100de565b9050919050565b610119816100fe565b811461012457600080fd5b50565b60008151905061013681610110565b92915050565b600060208284031215610152576101516100d9565b5b600061016084828501610127565b91505092915050565b610561806101786000396000f3fe608060405234801561001057600080fd5b50600436106100365760003560e01c80632cbb195c1461003b57806390cc0f0f1461006b575b600080fd5b61005560048036038101906100509190610263565b610089565b6040516100629190610325565b60405180910390f35b610073610144565b6040516100809190610381565b60405180910390f35b6000600160009054906101000a900473ffffffffffffffffffffffffffffffffffffffff1673ffffffffffffffffffffffffffffffffffffffff1663cb9d7415338989898989896040518863ffffffff1660e01b81526004016100f29796959493929190610484565b6020604051808303816000875af1158015610111573d6000803e3d6000fd5b505050506040513d601f19601f8201168201806040525081019061013591906104fe565b50600190509695505050505050565b60008054906101000a900473ffffffffffffffffffffffffffffffffffffffff1681565b600080fd5b600080fd5b6000819050919050565b61018581610172565b811461019057600080fd5b50565b6000813590506101a28161017c565b92915050565b600080fd5b600080fd5b600080fd5b60008083601f8401126101cd576101cc6101a8565b5b8235905067ffffffffffffffff8111156101ea576101e96101ad565b5b602083019150836001820283011115610206576102056101b2565b5b9250929050565b60008083601f840112610223576102226101a8565b5b8235905067ffffffffffffffff8111156102405761023f6101ad565b5b60208301915083602082028301111561025c5761025b6101b2565b5b9250929050565b600080600080600080608087890312156102805761027f610168565b5b600061028e89828a01610193565b965050602061029f89828a01610193565b955050604087013567ffffffffffffffff8111156102c0576102bf61016d565b5b6102cc89828a016101b7565b9450945050606087013567ffffffffffffffff8111156102ef576102ee61016d565b5b6102fb89828a0161020d565b92509250509295509295509295565b60008115159050919050565b61031f8161030a565b82525050565b600060208201905061033a6000830184610316565b92915050565b600073ffffffffffffffffffffffffffffffffffffffff82169050919050565b600061036b82610340565b9050919050565b61037b81610360565b82525050565b60006020820190506103966000830184610372565b92915050565b6103a581610172565b82525050565b600082825260208201905092915050565b82818337600083830152505050565b6000601f19601f8301169050919050565b60006103e883856103ab565b93506103f58385846103bc565b6103fe836103cb565b840190509392505050565b600082825260208201905092915050565b600080fd5b82818337505050565b60006104348385610409565b93507f07ffffffffffffffffffffffffffffffffffffffffffffffffffffffffffffff8311156104675761046661041a565b5b60208302925061047883858461041f565b82840190509392505050565b600060a082019050610499600083018a610372565b6104a6602083018961039c565b6104b3604083018861039c565b81810360608301526104c68186886103dc565b905081810360808301526104db818486610428565b905098975050505050505050565b6000815190506104f88161017c565b92915050565b60006020828403121561051457610513610168565b5b6000610522848285016104e9565b9150509291505056fea264697066735822122048dea7840ef1e5ed9c1be469e4c00b0ac0c27a8b4c4e18a01b610f18b0e1527764736f6c63430008130033",
  "immutableReferences": {},
  "source": "// SPDX-License-Identifier: MIT\npragma solidity ^0.8.19;\n\nimport './ProjectNFT.sol';\n\ncontract Master {\n  address public projectNFTAddress;\n  ProjectNFT private projectNFT;\n\n  constructor(address _contractAddress) {\n    projectNFTAddress = _contractAddress;\n    projectNFT = ProjectNFT(projectNFTAddress);\n  }\n\n  //from the address of the contract A, we can call the function mintToken\n  function mintToken(\n    uint256 price,\n    uint256 royaltyPrice,\n    string calldata projectHash,\n    uint256[] calldata components\n  ) public returns (bool) {\n    //aggiungere hash\n    //TODO: check if the caller is authorized\n\n    projectNFT.mintToken(msg.sender, price, royaltyPrice, projectHash, components);\n\n    /*\n    (bool success, bytes memory result) = projectNFTAddress.call(\n      abi.encodeWithSignature('mintToken(address, uint256, uint256, string, uint256[])',\n       msg.sender, price, royaltyPrice, projectHash, components)\n    );\n    require(success, 'Failed to call mintToken on DesignerNFT');\n    //address sender = abi.decode(result, (address));\n    */\n\n    return true;\n  }\n}\n",
  "sourcePath": "/home/matteo/Projects/Uni/blockchain-project/contracts/Master.sol",
  "compiler": {
    "name": "solc",
    "version": "0.8.19+commit.7dd6d404.Emscripten.clang"
  },
  "schemaVersion": "3.4.13",
  "updatedAt": "2023-06-21T16:43:49.327Z",
  "networkType": "ethereum",
  "devdoc": {
    "kind": "dev",
    "methods": {},
    "version": 1
  },
  "userdoc": {
    "kind": "user",
    "methods": {},
    "version": 1
  }
}