{
  "contractName": "ProjectNFT",
  "abi": [
    {
      "inputs": [
        {
          "internalType": "address payable",
          "name": "platformAddress",
          "type": "address"
        },
        {
          "internalType": "string",
          "name": "host_machine_ip",
          "type": "string"
        },
        {
          "internalType": "address",
          "name": "oracle",
          "type": "address"
        },
        {
          "internalType": "string",
          "name": "jobId_1",
          "type": "string"
        },
        {
          "internalType": "string",
          "name": "jobId_2",
          "type": "string"
        }
      ],
      "stateMutability": "nonpayable",
      "type": "constructor"
    },
    {
      "anonymous": false,
      "inputs": [
        {
          "indexed": true,
          "internalType": "address",
          "name": "owner",
          "type": "address"
        },
        {
          "indexed": true,
          "internalType": "address",
          "name": "approved",
          "type": "address"
        },
        {
          "indexed": true,
          "internalType": "uint256",
          "name": "tokenId",
          "type": "uint256"
        }
      ],
      "name": "Approval",
      "type": "event"
    },
    {
      "anonymous": false,
      "inputs": [
        {
          "indexed": true,
          "internalType": "address",
          "name": "owner",
          "type": "address"
        },
        {
          "indexed": true,
          "internalType": "address",
          "name": "operator",
          "type": "address"
        },
        {
          "indexed": false,
          "internalType": "bool",
          "name": "approved",
          "type": "bool"
        }
      ],
      "name": "ApprovalForAll",
      "type": "event"
    },
    {
      "anonymous": false,
      "inputs": [
        {
          "indexed": false,
          "internalType": "uint256",
          "name": "_fromTokenId",
          "type": "uint256"
        },
        {
          "indexed": false,
          "internalType": "uint256",
          "name": "_toTokenId",
          "type": "uint256"
        }
      ],
      "name": "BatchMetadataUpdate",
      "type": "event"
    },
    {
      "anonymous": false,
      "inputs": [
        {
          "indexed": true,
          "internalType": "bytes32",
          "name": "id",
          "type": "bytes32"
        }
      ],
      "name": "ChainlinkCancelled",
      "type": "event"
    },
    {
      "anonymous": false,
      "inputs": [
        {
          "indexed": true,
          "internalType": "bytes32",
          "name": "id",
          "type": "bytes32"
        }
      ],
      "name": "ChainlinkFulfilled",
      "type": "event"
    },
    {
      "anonymous": false,
      "inputs": [
        {
          "indexed": true,
          "internalType": "bytes32",
          "name": "id",
          "type": "bytes32"
        }
      ],
      "name": "ChainlinkRequested",
      "type": "event"
    },
    {
      "anonymous": false,
      "inputs": [
        {
          "indexed": false,
          "internalType": "uint256",
          "name": "_tokenId",
          "type": "uint256"
        }
      ],
      "name": "MetadataUpdate",
      "type": "event"
    },
    {
      "anonymous": false,
      "inputs": [
        {
          "indexed": true,
          "internalType": "address",
          "name": "from",
          "type": "address"
        },
        {
          "indexed": true,
          "internalType": "address",
          "name": "to",
          "type": "address"
        }
      ],
      "name": "OwnershipTransferRequested",
      "type": "event"
    },
    {
      "anonymous": false,
      "inputs": [
        {
          "indexed": true,
          "internalType": "address",
          "name": "from",
          "type": "address"
        },
        {
          "indexed": true,
          "internalType": "address",
          "name": "to",
          "type": "address"
        }
      ],
      "name": "OwnershipTransferred",
      "type": "event"
    },
    {
      "anonymous": false,
      "inputs": [
        {
          "indexed": true,
          "internalType": "uint256",
          "name": "tokenId",
          "type": "uint256"
        },
        {
          "indexed": false,
          "internalType": "string",
          "name": "success",
          "type": "string"
        }
      ],
      "name": "RequestConfirmMintingFulfilled",
      "type": "event"
    },
    {
      "anonymous": false,
      "inputs": [
        {
          "indexed": true,
          "internalType": "uint256",
          "name": "tokenId",
          "type": "uint256"
        },
        {
          "indexed": false,
          "internalType": "string",
          "name": "success",
          "type": "string"
        }
      ],
      "name": "RequestUpdateFulfilled",
      "type": "event"
    },
    {
      "anonymous": false,
      "inputs": [
        {
          "indexed": true,
          "internalType": "address",
          "name": "from",
          "type": "address"
        },
        {
          "indexed": true,
          "internalType": "address",
          "name": "to",
          "type": "address"
        },
        {
          "indexed": true,
          "internalType": "uint256",
          "name": "tokenId",
          "type": "uint256"
        }
      ],
      "name": "Transfer",
      "type": "event"
    },
    {
      "inputs": [],
      "name": "_base_url_1",
      "outputs": [
        {
          "internalType": "string",
          "name": "",
          "type": "string"
        }
      ],
      "stateMutability": "view",
      "type": "function",
      "constant": true
    },
    {
      "inputs": [],
      "name": "_base_url_2",
      "outputs": [
        {
          "internalType": "string",
          "name": "",
          "type": "string"
        }
      ],
      "stateMutability": "view",
      "type": "function",
      "constant": true
    },
    {
      "inputs": [],
      "name": "acceptOwnership",
      "outputs": [],
      "stateMutability": "nonpayable",
      "type": "function"
    },
    {
      "inputs": [
        {
          "internalType": "address",
          "name": "to",
          "type": "address"
        },
        {
          "internalType": "uint256",
          "name": "tokenId",
          "type": "uint256"
        }
      ],
      "name": "approve",
      "outputs": [],
      "stateMutability": "nonpayable",
      "type": "function"
    },
    {
      "inputs": [
        {
          "internalType": "address",
          "name": "owner",
          "type": "address"
        }
      ],
      "name": "balanceOf",
      "outputs": [
        {
          "internalType": "uint256",
          "name": "",
          "type": "uint256"
        }
      ],
      "stateMutability": "view",
      "type": "function",
      "constant": true
    },
    {
      "inputs": [
        {
          "internalType": "bytes32",
          "name": "_requestId",
          "type": "bytes32"
        },
        {
          "internalType": "uint256",
          "name": "_payment",
          "type": "uint256"
        },
        {
          "internalType": "bytes4",
          "name": "_callbackFunctionId",
          "type": "bytes4"
        },
        {
          "internalType": "uint256",
          "name": "_expiration",
          "type": "uint256"
        }
      ],
      "name": "cancelRequest",
      "outputs": [],
      "stateMutability": "nonpayable",
      "type": "function"
    },
    {
      "inputs": [
        {
          "internalType": "bytes32",
          "name": "_requestId",
          "type": "bytes32"
        },
        {
          "internalType": "uint256",
          "name": "_tokenId",
          "type": "uint256"
        },
        {
          "internalType": "string",
          "name": "_success",
          "type": "string"
        }
      ],
      "name": "fulfillConfirmMinting",
      "outputs": [],
      "stateMutability": "nonpayable",
      "type": "function"
    },
    {
      "inputs": [
        {
          "internalType": "bytes32",
          "name": "_requestId",
          "type": "bytes32"
        },
        {
          "internalType": "uint256",
          "name": "_tokenId",
          "type": "uint256"
        },
        {
          "internalType": "string",
          "name": "_success",
          "type": "string"
        }
      ],
      "name": "fulfillRequestUpdate",
      "outputs": [],
      "stateMutability": "nonpayable",
      "type": "function"
    },
    {
      "inputs": [
        {
          "internalType": "uint256",
          "name": "tokenId",
          "type": "uint256"
        }
      ],
      "name": "getApproved",
      "outputs": [
        {
          "internalType": "address",
          "name": "",
          "type": "address"
        }
      ],
      "stateMutability": "view",
      "type": "function",
      "constant": true
    },
    {
      "inputs": [],
      "name": "getChainlinkToken",
      "outputs": [
        {
          "internalType": "address",
          "name": "",
          "type": "address"
        }
      ],
      "stateMutability": "view",
      "type": "function",
      "constant": true
    },
    {
      "inputs": [
        {
          "internalType": "address",
          "name": "owner",
          "type": "address"
        },
        {
          "internalType": "address",
          "name": "operator",
          "type": "address"
        }
      ],
      "name": "isApprovedForAll",
      "outputs": [
        {
          "internalType": "bool",
          "name": "",
          "type": "bool"
        }
      ],
      "stateMutability": "view",
      "type": "function",
      "constant": true
    },
    {
      "inputs": [],
      "name": "name",
      "outputs": [
        {
          "internalType": "string",
          "name": "",
          "type": "string"
        }
      ],
      "stateMutability": "view",
      "type": "function",
      "constant": true
    },
    {
      "inputs": [],
      "name": "owner",
      "outputs": [
        {
          "internalType": "address",
          "name": "",
          "type": "address"
        }
      ],
      "stateMutability": "view",
      "type": "function",
      "constant": true
    },
    {
      "inputs": [
        {
          "internalType": "uint256",
          "name": "tokenId",
          "type": "uint256"
        }
      ],
      "name": "ownerOf",
      "outputs": [
        {
          "internalType": "address",
          "name": "",
          "type": "address"
        }
      ],
      "stateMutability": "view",
      "type": "function",
      "constant": true
    },
    {
      "inputs": [
        {
          "internalType": "uint256",
          "name": "_tokenId",
          "type": "uint256"
        },
        {
          "internalType": "string",
          "name": "_key",
          "type": "string"
        },
        {
          "internalType": "address",
          "name": "_assignee",
          "type": "address"
        }
      ],
      "name": "requestUpdate",
      "outputs": [],
      "stateMutability": "nonpayable",
      "type": "function"
    },
    {
      "inputs": [
        {
          "internalType": "address",
          "name": "from",
          "type": "address"
        },
        {
          "internalType": "address",
          "name": "to",
          "type": "address"
        },
        {
          "internalType": "uint256",
          "name": "tokenId",
          "type": "uint256"
        }
      ],
      "name": "safeTransferFrom",
      "outputs": [],
      "stateMutability": "nonpayable",
      "type": "function"
    },
    {
      "inputs": [
        {
          "internalType": "address",
          "name": "from",
          "type": "address"
        },
        {
          "internalType": "address",
          "name": "to",
          "type": "address"
        },
        {
          "internalType": "uint256",
          "name": "tokenId",
          "type": "uint256"
        },
        {
          "internalType": "bytes",
          "name": "data",
          "type": "bytes"
        }
      ],
      "name": "safeTransferFrom",
      "outputs": [],
      "stateMutability": "nonpayable",
      "type": "function"
    },
    {
      "inputs": [
        {
          "internalType": "address",
          "name": "operator",
          "type": "address"
        },
        {
          "internalType": "bool",
          "name": "approved",
          "type": "bool"
        }
      ],
      "name": "setApprovalForAll",
      "outputs": [],
      "stateMutability": "nonpayable",
      "type": "function"
    },
    {
      "inputs": [
        {
          "internalType": "bytes4",
          "name": "interfaceId",
          "type": "bytes4"
        }
      ],
      "name": "supportsInterface",
      "outputs": [
        {
          "internalType": "bool",
          "name": "",
          "type": "bool"
        }
      ],
      "stateMutability": "view",
      "type": "function",
      "constant": true
    },
    {
      "inputs": [],
      "name": "symbol",
      "outputs": [
        {
          "internalType": "string",
          "name": "",
          "type": "string"
        }
      ],
      "stateMutability": "view",
      "type": "function",
      "constant": true
    },
    {
      "inputs": [
        {
          "internalType": "uint256",
          "name": "tokenId",
          "type": "uint256"
        }
      ],
      "name": "tokenURI",
      "outputs": [
        {
          "internalType": "string",
          "name": "",
          "type": "string"
        }
      ],
      "stateMutability": "view",
      "type": "function",
      "constant": true
    },
    {
      "inputs": [
        {
          "internalType": "address",
          "name": "from",
          "type": "address"
        },
        {
          "internalType": "address",
          "name": "to",
          "type": "address"
        },
        {
          "internalType": "uint256",
          "name": "tokenId",
          "type": "uint256"
        }
      ],
      "name": "transferFrom",
      "outputs": [],
      "stateMutability": "nonpayable",
      "type": "function"
    },
    {
      "inputs": [
        {
          "internalType": "address",
          "name": "to",
          "type": "address"
        }
      ],
      "name": "transferOwnership",
      "outputs": [],
      "stateMutability": "nonpayable",
      "type": "function"
    },
    {
      "inputs": [],
      "name": "withdrawLink",
      "outputs": [],
      "stateMutability": "nonpayable",
      "type": "function"
    },
    {
      "inputs": [
        {
          "internalType": "address",
          "name": "sender",
          "type": "address"
        },
        {
          "internalType": "uint256",
          "name": "price",
          "type": "uint256"
        },
        {
          "internalType": "uint256",
          "name": "royaltyPrice",
          "type": "uint256"
        },
        {
          "internalType": "string",
          "name": "projectHash",
          "type": "string"
        },
        {
          "internalType": "uint256[]",
          "name": "components",
          "type": "uint256[]"
        }
      ],
      "name": "mintToken",
      "outputs": [
        {
          "internalType": "uint256",
          "name": "",
          "type": "uint256"
        }
      ],
      "stateMutability": "nonpayable",
      "type": "function"
    },
    {
      "inputs": [
        {
          "internalType": "uint256",
          "name": "tokenId",
          "type": "uint256"
        }
      ],
      "name": "getTokenPrice",
      "outputs": [
        {
          "internalType": "uint256",
          "name": "",
          "type": "uint256"
        }
      ],
      "stateMutability": "view",
      "type": "function",
      "constant": true
    },
    {
      "inputs": [
        {
          "internalType": "uint256",
          "name": "tokenId",
          "type": "uint256"
        }
      ],
      "name": "getTokenRoyaltyPrice",
      "outputs": [
        {
          "internalType": "uint256",
          "name": "",
          "type": "uint256"
        }
      ],
      "stateMutability": "view",
      "type": "function",
      "constant": true
    },
    {
      "inputs": [
        {
          "internalType": "uint256",
          "name": "tokenId",
          "type": "uint256"
        }
      ],
      "name": "getProjectHash",
      "outputs": [
        {
          "internalType": "string",
          "name": "",
          "type": "string"
        }
      ],
      "stateMutability": "view",
      "type": "function",
      "constant": true
    },
    {
      "inputs": [
        {
          "internalType": "uint256",
          "name": "tokenId",
          "type": "uint256"
        }
      ],
      "name": "getTokenComponents",
      "outputs": [
        {
          "internalType": "uint256[]",
          "name": "",
          "type": "uint256[]"
        }
      ],
      "stateMutability": "view",
      "type": "function",
      "constant": true
    },
    {
      "inputs": [
        {
          "internalType": "uint256",
          "name": "tokenId",
          "type": "uint256"
        },
        {
          "internalType": "address",
          "name": "buyerProject",
          "type": "address"
        }
      ],
      "name": "getTokenBuyPrice",
      "outputs": [
        {
          "internalType": "uint256",
          "name": "",
          "type": "uint256"
        }
      ],
      "stateMutability": "view",
      "type": "function",
      "constant": true
    },
    {
      "inputs": [
        {
          "internalType": "uint256",
          "name": "tokenId",
          "type": "uint256"
        },
        {
          "internalType": "uint256",
          "name": "amount",
          "type": "uint256"
        },
        {
          "internalType": "address",
          "name": "buyerProject",
          "type": "address"
        }
      ],
      "name": "transferPayment",
      "outputs": [],
      "stateMutability": "nonpayable",
      "type": "function"
    }
  ],
  "bytecode": "0x6001600b5560c06040526007608090815266687474703a2f2f60c81b60a052600f906200002d9082620003a4565b506040805180820190915260128152713a333030302f6170692f76312f6e6674732f60701b6020820152601090620000669082620003a4565b503480156200007457600080fd5b5060405162003f1338038062003f13833981016040819052620000979162000538565b83838383338060006040518060400160405280600a815260200169141c9bda9958dd13919560b21b815250604051806040016040528060048152602001631413919560e21b8152508160009081620000f09190620003a4565b506001620000ff8282620003a4565b5050506001600160a01b0382166200015e5760405162461bcd60e51b815260206004820152601860248201527f43616e6e6f7420736574206f776e657220746f207a65726f000000000000000060448201526064015b60405180910390fd5b600d80546001600160a01b0319166001600160a01b03848116919091179091558116156200019157620001918162000231565b505050620001b973779877a7b0d9e8603169ddbd7836e478b4624789620002dd60201b60201c565b6011620001c78582620003a4565b50601280546001600160a01b0319166001600160a01b0385161790556013620001f18382620003a4565b506014620002008282620003a4565b5050601680546001600160a01b0319166001600160a01b03999099169890981790975550620005f595505050505050565b336001600160a01b038216036200028b5760405162461bcd60e51b815260206004820152601760248201527f43616e6e6f74207472616e7366657220746f2073656c66000000000000000000604482015260640162000155565b600e80546001600160a01b0319166001600160a01b03838116918217909255600d54604051919216907fed8889f560326eb138920d842192f0eb3dd22b4f139c87a2c57538e05bae127890600090a350565b600980546001600160a01b0319166001600160a01b0392909216919091179055565b634e487b7160e01b600052604160045260246000fd5b600181811c908216806200032a57607f821691505b6020821081036200034b57634e487b7160e01b600052602260045260246000fd5b50919050565b601f8211156200039f57600081815260208120601f850160051c810160208610156200037a5750805b601f850160051c820191505b818110156200039b5782815560010162000386565b5050505b505050565b81516001600160401b03811115620003c057620003c0620002ff565b620003d881620003d1845462000315565b8462000351565b602080601f831160018114620004105760008415620003f75750858301515b600019600386901b1c1916600185901b1785556200039b565b600085815260208120601f198616915b82811015620004415788860151825594840194600190910190840162000420565b5085821015620004605787850151600019600388901b60f8161c191681555b5050505050600190811b01905550565b6001600160a01b03811681146200048657600080fd5b50565b600082601f8301126200049b57600080fd5b81516001600160401b0380821115620004b857620004b8620002ff565b604051601f8301601f19908116603f01168101908282118183101715620004e357620004e3620002ff565b816040528381526020925086838588010111156200050057600080fd5b600091505b8382101562000524578582018301518183018401529082019062000505565b600093810190920192909252949350505050565b600080600080600060a086880312156200055157600080fd5b85516200055e8162000470565b60208701519095506001600160401b03808211156200057c57600080fd5b6200058a89838a0162000489565b9550604088015191506200059e8262000470565b606088015191945080821115620005b457600080fd5b620005c289838a0162000489565b93506080880151915080821115620005d957600080fd5b50620005e88882890162000489565b9150509295509295909350565b61390e80620006056000396000f3fe608060405234801561001057600080fd5b50600436106101755760003560e01c806301ffc9a71461017a5780630396e210146101a257806306fdde03146101b7578063081812fc146101cc578063095ea7b3146101ec578063118c66c7146101ff578063165d35e11461021257806323b872dd1461021a57806342842e0e1461022d57806351bb446f146102405780636352211e1461024857806370a082311461025b57806379ba50971461027c5780637d8eeac9146102845780638da5cb5b1461028c5780638dc654a21461029d57806395d89b41146102a5578063a082dfc2146102ad578063a22cb465146102cd578063b88d4fde146102e0578063c16849fc146102f3578063c317058014610306578063c457fb3714610319578063c739acb01461032c578063c87b56dd1461033f578063cb9d741514610352578063e29a5e8e14610365578063e985e9c514610378578063ec65d0f81461038b578063f2fde38b1461039e578063f3ebb3f1146103b1575b600080fd5b61018d610188366004612b8b565b6103c4565b60405190151581526020015b60405180910390f35b6101b56101b0366004612bc4565b6103ef565b005b6101bf61079e565b6040516101999190612c49565b6101df6101da366004612c5c565b610830565b6040516101999190612c75565b6101b56101fa366004612c89565b610857565b6101bf61020d366004612c5c565b61096c565b6101df610a18565b6101b5610228366004612cb3565b610a27565b6101b561023b366004612cb3565b610a58565b6101bf610a73565b6101df610256366004612c5c565b610b01565b61026e610269366004612cef565b610b35565b604051908152602001610199565b6101b5610bbb565b6101bf610c69565b600d546001600160a01b03166101df565b6101b5610c76565b6101bf610dba565b6102c06102bb366004612c5c565b610dc9565b6040516101999190612d0a565b6101b56102db366004612d5c565b610e36565b6101b56102ee366004612e1e565b610e45565b61026e610301366004612e99565b610e7d565b6101b5610314366004612ee5565b610fc9565b61026e610327366004612c5c565b611070565b61026e61033a366004612c5c565b61108e565b6101bf61034d366004612c5c565b6110af565b61026e610360366004612f7f565b6111bf565b6101b5610373366004613040565b61144f565b61018d61038636600461308d565b6116f8565b6101b56103993660046130b7565b611726565b6101b56103ac366004612cef565b61173a565b6101b56103bf366004612ee5565b61174b565b60006001600160e01b03198216632483248360e11b14806103e957506103e9826117e4565b92915050565b6103f883611834565b60006104048483610e7d565b9050808310156104665760405162461bcd60e51b815260206004820152602260248201527f50617920616d6f756e74206973206e6f74207072696365206f662070726f6a6560448201526118dd60f21b60648201526084015b60405180910390fd5b600061047185610b01565b90506104956040518060600160405280602c815260200161388d602c913985611880565b6104c46040518060400160405280600d81526020016c02830bcb4b7339037bbb732b91609d1b815250826118c5565b806001600160a01b0316836001600160a01b0316146105d2576000858152601760205260408082205490516001600160a01b0384169282156108fc02929190818181858888f19350505050158015610520573d6000803e3d6000fd5b5060008581526017602052604090205461053a908561310c565b6016546000878152601760205260409020549195506001600160a01b0316906108fc9060649061056b90600561311f565b610575919061314c565b6040518115909202916000818181858888f1935050505015801561059d573d6000803e3d6000fd5b506000858152601760205260409020546064906105bb90600561311f565b6105c5919061314c565b6105cf908561310c565b93505b60005b60008681526017602052604090206003015481101561079657600086815260176020526040812060030180548390811061061157610611613160565b90600052602060002001549050600061062982610b01565b90506106676040518060400160405280601a81526020017902830bcb4b7339037bbb732b91037b31031b7b6b837b732b73a160351b815250826118c5565b806001600160a01b0316866001600160a01b031614610781576000828152601760205260408082206001015490516001600160a01b0384169282156108fc02929190818181858888f193505050501580156106c6573d6000803e3d6000fd5b506000828152601760205260409020600101546106e3908861310c565b6016546000848152601760205260409020600101549198506001600160a01b0316906108fc9060649061071790600561311f565b610721919061314c565b6040518115909202916000818181858888f19350505050158015610749573d6000803e3d6000fd5b5060008281526017602052604090206001015460649061076a90600561311f565b610774919061314c565b61077e908861310c565b96505b5050808061078e90613176565b9150506105d5565b505050505050565b6060600080546107ad9061318f565b80601f01602080910402602001604051908101604052809291908181526020018280546107d99061318f565b80156108265780601f106107fb57610100808354040283529160200191610826565b820191906000526020600020905b81548152906001019060200180831161080957829003601f168201915b5050505050905090565b600061083b8261190a565b506000908152600460205260409020546001600160a01b031690565b600061086282610b01565b9050806001600160a01b0316836001600160a01b0316036108cf5760405162461bcd60e51b815260206004820152602160248201527f4552433732313a20617070726f76616c20746f2063757272656e74206f776e656044820152603960f91b606482015260840161045d565b336001600160a01b03821614806108eb57506108eb81336116f8565b61095d5760405162461bcd60e51b815260206004820152603d60248201527f4552433732313a20617070726f76652063616c6c6572206973206e6f7420746f60448201527f6b656e206f776e6572206f7220617070726f76656420666f7220616c6c000000606482015260840161045d565b610967838361192f565b505050565b606061097782611834565b600082815260176020526040902060020180546109939061318f565b80601f01602080910402602001604051908101604052809291908181526020018280546109bf9061318f565b8015610a0c5780601f106109e157610100808354040283529160200191610a0c565b820191906000526020600020905b8154815290600101906020018083116109ef57829003601f168201915b50505050509050919050565b6000610a2261199d565b905090565b610a3133826119ac565b610a4d5760405162461bcd60e51b815260040161045d906131c3565b610967838383611a0a565b61096783838360405180602001604052806000815250610e45565b60108054610a809061318f565b80601f0160208091040260200160405190810160405280929190818152602001828054610aac9061318f565b8015610af95780601f10610ace57610100808354040283529160200191610af9565b820191906000526020600020905b815481529060010190602001808311610adc57829003601f168201915b505050505081565b600080610b0d83611b5c565b90506001600160a01b0381166103e95760405162461bcd60e51b815260040161045d90613210565b60006001600160a01b038216610b9f5760405162461bcd60e51b815260206004820152602960248201527f4552433732313a2061646472657373207a65726f206973206e6f7420612076616044820152683634b21037bbb732b960b91b606482015260840161045d565b506001600160a01b031660009081526003602052604090205490565b600e546001600160a01b03163314610c0e5760405162461bcd60e51b815260206004820152601660248201527526bab9ba10313290383937b837b9b2b21037bbb732b960511b604482015260640161045d565b600d80546001600160a01b031980821633908117909355600e805490911690556040516001600160a01b03909116919082907f8be0079c531659141344cd1fd0a4f28419497f9722a3daafe3b4186f6b6457e090600090a350565b600f8054610a809061318f565b610c7e611b77565b6000610c8861199d565b9050806001600160a01b031663a9059cbb33836001600160a01b03166370a08231306040518263ffffffff1660e01b8152600401610cc69190612c75565b602060405180830381865afa158015610ce3573d6000803e3d6000fd5b505050506040513d601f19601f82011682018060405250810190610d079190613242565b6040516001600160e01b031960e085901b1681526001600160a01b03909216600483015260248201526044016020604051808303816000875af1158015610d52573d6000803e3d6000fd5b505050506040513d601f19601f82011682018060405250810190610d76919061325b565b610db75760405162461bcd60e51b81526020600482015260126024820152712ab730b13632903a37903a3930b739b332b960711b604482015260640161045d565b50565b6060600180546107ad9061318f565b6060610dd482611834565b60008281526017602090815260409182902060030180548351818402810184019094528084529091830182828015610a0c57602002820191906000526020600020905b815481526020019060010190808311610e175750505050509050919050565b610e41338383611bcc565b5050565b610e4f33836119ac565b610e6b5760405162461bcd60e51b815260040161045d906131c3565b610e7784848484611c96565b50505050565b6000610e8883611834565b6000610e9384610b01565b6001600160a01b0316836001600160a01b031603610eb357506000610eeb565b610ebc84611070565b90506064610ec985611070565b610ed490600561311f565b610ede919061314c565b610ee89082613278565b90505b60005b600085815260176020526040902060030154811015610fc1576000858152601760205260408120600301805483908110610f2a57610f2a613160565b90600052602060002001549050610f4081610b01565b6001600160a01b0316856001600160a01b031614610fae57600081815260176020526040902060010154610f749084613278565b600082815260176020526040902060010154909350606490610f9790600561311f565b610fa1919061314c565b610fab9084613278565b92505b5080610fb981613176565b915050610eee565b509392505050565b6000838152600c602052604090205483906001600160a01b031633146110015760405162461bcd60e51b815260040161045d9061328b565b6000818152600c602052604080822080546001600160a01b03191690555182916000805160206138b983398151915291a2827f6129a239e5984bc053e8951cfba690c7a08b8022ad7a5a7579033a9952b248fe836040516110629190612c49565b60405180910390a250505050565b600061107b82611834565b5060009081526017602052604090205490565b600061109982611834565b5060009081526017602052604090206001015490565b60606110ba8261190a565b600082815260066020526040812080546110d39061318f565b80601f01602080910402602001604051908101604052809291908181526020018280546110ff9061318f565b801561114c5780601f106111215761010080835404028352916020019161114c565b820191906000526020600020905b81548152906001019060200180831161112f57829003601f168201915b50505050509050600061116a60408051602081019091526000815290565b9050805160000361117c575092915050565b8151156111ae5780826040516020016111969291906132d3565b60405160208183030381529060405292505050919050565b6111b784611cc9565b949350505050565b6000601885856040516111d3929190613302565b9081526040519081900360200190205460ff161561122c5760405162461bcd60e51b815260206004820152601660248201527550726f6a65637420616c72656164792065786973747360501b604482015260640161045d565b60005b828110156112a85760155484848381811061124c5761124c613160565b90506020020135106112965760405162461bcd60e51b815260206004820152601360248201527210dbdb5c1bdb995b9d081b9bdd081d985b1a59606a1b604482015260640161045d565b806112a081613176565b91505061122f565b506112b7601580546001019055565b60006112c260155490565b90506112ce8982611d3d565b6000600f601160106040516020016112e893929190613385565b604051602081830303815290604052905060008161130584611e38565b6040516020016113169291906132d3565b60405160208183030381529060405290506113318382611eca565b60405180608001604052808b81526020018a815260200189898080601f01602080910402602001604051908101604052809392919081815260200183838082843760009201919091525050509082525060408051602089810282810182019093528982529283019290918a918a918291850190849080828437600092018290525093909452505085815260176020908152604091829020845181559084015160018201559083015190915060028201906113eb90826133e9565b5060608201518051611407916003840191602090910190612ac6565b5090505060016018898960405161141f929190613302565b908152604051908190036020019020805491151560ff199092169190911790555090915050979650505050505050565b611457611b77565b60405164313abcb2b960d91b6020820152602501604051602081830303815290604052805190602001208260405160200161149291906134a8565b60405160208183030381529060405280519060200120148061150957506040516b36b0b73ab330b1ba3ab932b960a11b6020820152602c0160405160208183030381529060405280519060200120826040516020016114f191906134a8565b60405160208183030381529060405280519060200120145b6115415760405162461bcd60e51b815260206004820152600960248201526857726f6e67206b657960b81b604482015260640161045d565b60006115e76115d9601480546115569061318f565b80601f01602080910402602001604051908101604052809291908181526020018280546115829061318f565b80156115cf5780601f106115a4576101008083540402835291602001916115cf565b820191906000526020600020905b8154815290600101906020018083116115b257829003601f168201915b5050505050611f86565b3063f3ebb3f160e01b611fa5565b9050611642604051806040016040528060038152602001621d5c9b60ea1b815250600f6011601061161789611e38565b60405160200161162a94939291906134c4565b60408051601f19818403018152919052839190611fca565b61168860405180604001604052806004815260200163626f647960e01b81525084611677856001600160a01b03166014611fe8565b60405160200161162a9291906134fd565b6116bc604051806040016040528060078152602001661d1bdad95b925960ca1b8152506116b486611e38565b839190611fca565b6012546116f1906001600160a01b031682600a6116e2670de0b6b3a7640000600161311f565b6116ec919061314c565b612183565b5050505050565b6001600160a01b03918216600090815260056020908152604080832093909416825291909152205460ff1690565b61172e611b77565b610e7784848484612216565b611742611b77565b610db7816122e8565b6000838152600c602052604090205483906001600160a01b031633146117835760405162461bcd60e51b815260040161045d9061328b565b6000818152600c602052604080822080546001600160a01b03191690555182916000805160206138b983398151915291a2827feaa591fcda712a906726d0782957af336b2f5168567d3d30445ab864b1c36898836040516110629190612c49565b60006001600160e01b031982166380ac58cd60e01b148061181557506001600160e01b03198216635b5e139f60e01b145b806103e957506301ffc9a760e01b6001600160e01b03198316146103e9565b61183d8161238c565b610db75760405162461bcd60e51b8152602060048201526014602482015273151bdad95b88191bd95cc81b9bdd08195e1a5cdd60621b604482015260640161045d565b610e418282604051602401611896929190613559565b60408051601f198184030181529190526020810180516001600160e01b0316632d839cb360e21b1790526123a9565b610e4182826040516024016118db92919061357b565b60408051601f198184030181529190526020810180516001600160e01b031663319af33360e01b1790526123a9565b6119138161238c565b610db75760405162461bcd60e51b815260040161045d90613210565b600081815260046020526040902080546001600160a01b0319166001600160a01b038416908117909155819061196482610b01565b6001600160a01b03167f8c5be1e5ebec7d5bd14f71427d1e84f3dd0314c0f7b2291e5b200ac8c7c3b92560405160405180910390a45050565b6009546001600160a01b031690565b6000806119b883610b01565b9050806001600160a01b0316846001600160a01b031614806119df57506119df81856116f8565b806111b75750836001600160a01b03166119f884610830565b6001600160a01b031614949350505050565b826001600160a01b0316611a1d82610b01565b6001600160a01b031614611a435760405162461bcd60e51b815260040161045d906135a5565b6001600160a01b038216611aa55760405162461bcd60e51b8152602060048201526024808201527f4552433732313a207472616e7366657220746f20746865207a65726f206164646044820152637265737360e01b606482015260840161045d565b826001600160a01b0316611ab882610b01565b6001600160a01b031614611ade5760405162461bcd60e51b815260040161045d906135a5565b600081815260046020908152604080832080546001600160a01b03199081169091556001600160a01b03878116808652600385528386208054600019019055908716808652838620805460010190558686526002909452828520805490921684179091559051849360008051602061386d83398151915291a4505050565b6000908152600260205260409020546001600160a01b031690565b600d546001600160a01b03163314611bca5760405162461bcd60e51b815260206004820152601660248201527527b7363c9031b0b63630b1363290313c9037bbb732b960511b604482015260640161045d565b565b816001600160a01b0316836001600160a01b031603611c295760405162461bcd60e51b815260206004820152601960248201527822a9219b99189d1030b8383937bb32903a379031b0b63632b960391b604482015260640161045d565b6001600160a01b03838116600081815260056020908152604080832094871680845294825291829020805460ff191686151590811790915591519182527f17307eab39ab6107e8899845ad3d59bd9653f200f220920489ca2b5937696c31910160405180910390a3505050565b611ca1848484611a0a565b611cad848484846123cb565b610e775760405162461bcd60e51b815260040161045d906135ea565b6060611cd48261190a565b6000611ceb60408051602081019091526000815290565b90506000815111611d0b5760405180602001604052806000815250611d36565b80611d1584611e38565b604051602001611d269291906132d3565b6040516020818303038152906040525b9392505050565b6001600160a01b038216611d935760405162461bcd60e51b815260206004820181905260248201527f4552433732313a206d696e7420746f20746865207a65726f2061646472657373604482015260640161045d565b611d9c8161238c565b15611db95760405162461bcd60e51b815260040161045d9061363c565b611dc28161238c565b15611ddf5760405162461bcd60e51b815260040161045d9061363c565b6001600160a01b038216600081815260036020908152604080832080546001019055848352600290915280822080546001600160a01b03191684179055518392919060008051602061386d833981519152908290a45050565b60606000611e45836124cc565b60010190506000816001600160401b03811115611e6457611e64612d93565b6040519080825280601f01601f191660200182016040528015611e8e576020820181803683370190505b5090508181016020015b600019016f181899199a1a9b1b9c1cb0b131b232b360811b600a86061a8153600a8504945084611e9857509392505050565b611ed38261238c565b611f365760405162461bcd60e51b815260206004820152602e60248201527f45524337323155524953746f726167653a2055524920736574206f66206e6f6e60448201526d32bc34b9ba32b73a103a37b5b2b760911b606482015260840161045d565b6000828152600660205260409020611f4e82826133e9565b506040518281527ff8e1a15aba9398e019f0b49df1a4fde98ee17ae345cb5f6b5e2c27f5033e8ce79060200160405180910390a15050565b805160009082908203611f9c5750600092915050565b50506020015190565b611fad612b11565b611fb5612b11565b611fc1818686866125a2565b95945050505050565b6080830151611fd990836125df565b608083015161096790826125df565b60606000611ff783600261311f565b612002906002613278565b6001600160401b0381111561201957612019612d93565b6040519080825280601f01601f191660200182016040528015612043576020820181803683370190505b509050600360fc1b8160008151811061205e5761205e613160565b60200101906001600160f81b031916908160001a905350600f60fb1b8160018151811061208d5761208d613160565b60200101906001600160f81b031916908160001a90535060006120b184600261311f565b6120bc906001613278565b90505b6001811115612134576f181899199a1a9b1b9c1cb0b131b232b360811b85600f16601081106120f0576120f0613160565b1a60f81b82828151811061210657612106613160565b60200101906001600160f81b031916908160001a90535060049490941c9361212d81613672565b90506120bf565b508315611d365760405162461bcd60e51b815260206004820181905260248201527f537472696e67733a20686578206c656e67746820696e73756666696369656e74604482015260640161045d565b600b54600090612194816001613278565b600b55835160408086015160808701515191516000936320214ca360e11b936121cc9386938493923092918a91600191602401613689565b60408051601f198184030181529190526020810180516001600160e01b03166001600160e01b031990931692909217909152905061220c868386846125f6565b9695505050505050565b6000848152600c602052604080822080546001600160a01b0319811690915590516001600160a01b039091169186917fe1fe3afa0f7f761ff0a8b89086790efd5140d2907ebd5b7ff6bfcb5e075fd4c59190a2604051636ee4d55360e01b815260048101869052602481018590526001600160e01b031984166044820152606481018390526001600160a01b03821690636ee4d55390608401600060405180830381600087803b1580156122c957600080fd5b505af11580156122dd573d6000803e3d6000fd5b505050505050505050565b336001600160a01b0382160361233a5760405162461bcd60e51b815260206004820152601760248201527621b0b73737ba103a3930b739b332b9103a379039b2b63360491b604482015260640161045d565b600e80546001600160a01b0319166001600160a01b03838116918217909255600d54604051919216907fed8889f560326eb138920d842192f0eb3dd22b4f139c87a2c57538e05bae127890600090a350565b60008061239883611b5c565b6001600160a01b0316141592915050565b80516a636f6e736f6c652e6c6f6790602083016000808383865afa5050505050565b60006001600160a01b0384163b156124c157604051630a85bd0160e11b81526001600160a01b0385169063150b7a029061240f9033908990889088906004016136f1565b6020604051808303816000875af192505050801561244a575060408051601f3d908101601f1916820190925261244791810190613724565b60015b6124a7573d808015612478576040519150601f19603f3d011682016040523d82523d6000602084013e61247d565b606091505b50805160000361249f5760405162461bcd60e51b815260040161045d906135ea565b805181602001fd5b6001600160e01b031916630a85bd0160e11b1490506111b7565b506001949350505050565b60008072184f03e93ff9f4daa797ed6e38ed64bf6a1f0160401b831061250b5772184f03e93ff9f4daa797ed6e38ed64bf6a1f0160401b830492506040015b6904ee2d6d415b85acef8160201b8310612535576904ee2d6d415b85acef8160201b830492506020015b662386f26fc10000831061255357662386f26fc10000830492506010015b6305f5e100831061256b576305f5e100830492506008015b612710831061257f57612710830492506004015b60648310612591576064830492506002015b600a83106103e95760010192915050565b6125aa612b11565b6125ba856080015161010061274f565b50509183526001600160a01b031660208301526001600160e01b031916604082015290565b6125ec82600383516127a7565b61096782826128ae565b6040516001600160601b03193060601b1660208201526034810184905260009060540160408051808303601f1901815282825280516020918201206000818152600c90925291812080546001600160a01b0319166001600160a01b038a1617905590925082917fb5e6e01e79f91267dc17b4e6314d5d4d03593d2ceee0fbb452b750bd70ea5af99190a2600954604051630200057560e51b81526001600160a01b0390911690634000aea0906126b490889087908790600401613741565b6020604051808303816000875af11580156126d3573d6000803e3d6000fd5b505050506040513d601f19601f820116820180604052508101906126f7919061325b565b6111b75760405162461bcd60e51b815260206004820152602360248201527f756e61626c6520746f207472616e73666572416e6443616c6c20746f206f7261604482015262636c6560e81b606482015260840161045d565b612757612b46565b612762602083613768565b1561278a57612772602083613768565b61277d90602061310c565b6127879083613278565b91505b506020828101829052604080518085526000815290920101905290565b6017816001600160401b0316116127cb57610e778360e0600585901b1683176128c8565b60ff816001600160401b031611612807576127f1836018611fe0600586901b16176128c8565b50610e77836001600160401b03831660016128e0565b61ffff816001600160401b0316116128445761282e836019611fe0600586901b16176128c8565b50610e77836001600160401b03831660026128e0565b63ffffffff816001600160401b0316116128835761286d83601a611fe0600586901b16176128c8565b50610e77836001600160401b03831660046128e0565b61289883601b611fe0600586901b16176128c8565b50610e77836001600160401b03831660086128e0565b6128b6612b46565b611d36838460000151518485516128f9565b6128d0612b46565b611d3683846000015151846129d6565b6128e8612b46565b6111b7848560000151518585612a24565b612901612b46565b825182111561290f57600080fd5b602085015161291e8386613278565b111561295157612951856129418760200151878661293c9190613278565b612a98565b61294c90600261311f565b612aaf565b6000808651805187602083010193508088870111156129705787860182525b505050602084015b602084106129b0578051825261298f602083613278565b915061299c602082613278565b90506129a960208561310c565b9350612978565b51815160001960208690036101000a019081169019919091161790525083949350505050565b6129de612b46565b836020015183106129fe576129fe848560200151600261294c919061311f565b8351805160208583010184815350808503612a1a576001810182525b5093949350505050565b612a2c612b46565b6020850151612a3b8584613278565b1115612a4f57612a4f856129418685613278565b60006001612a5f84610100613860565b612a69919061310c565b9050855183868201018583198251161781525080518487011115612a8d5783860181525b509495945050505050565b600081831115612aa95750816103e9565b50919050565b8151612abb838361274f565b50610e7783826128ae565b828054828255906000526020600020908101928215612b01579160200282015b82811115612b01578251825591602001919060010190612ae6565b50612b0d929150612b60565b5090565b6040805160a081018252600080825260208201819052918101829052606081019190915260808101612b41612b46565b905290565b604051806040016040528060608152602001600081525090565b5b80821115612b0d5760008155600101612b61565b6001600160e01b031981168114610db757600080fd5b600060208284031215612b9d57600080fd5b8135611d3681612b75565b80356001600160a01b0381168114612bbf57600080fd5b919050565b600080600060608486031215612bd957600080fd5b8335925060208401359150612bf060408501612ba8565b90509250925092565b60005b83811015612c14578181015183820152602001612bfc565b50506000910152565b60008151808452612c35816020860160208601612bf9565b601f01601f19169290920160200192915050565b602081526000611d366020830184612c1d565b600060208284031215612c6e57600080fd5b5035919050565b6001600160a01b0391909116815260200190565b60008060408385031215612c9c57600080fd5b612ca583612ba8565b946020939093013593505050565b600080600060608486031215612cc857600080fd5b612cd184612ba8565b9250612cdf60208501612ba8565b9150604084013590509250925092565b600060208284031215612d0157600080fd5b611d3682612ba8565b6020808252825182820181905260009190848201906040850190845b81811015612d4257835183529284019291840191600101612d26565b50909695505050505050565b8015158114610db757600080fd5b60008060408385031215612d6f57600080fd5b612d7883612ba8565b91506020830135612d8881612d4e565b809150509250929050565b634e487b7160e01b600052604160045260246000fd5b60006001600160401b0380841115612dc357612dc3612d93565b604051601f8501601f19908116603f01168101908282118183101715612deb57612deb612d93565b81604052809350858152868686011115612e0457600080fd5b858560208301376000602087830101525050509392505050565b60008060008060808587031215612e3457600080fd5b612e3d85612ba8565b9350612e4b60208601612ba8565b92506040850135915060608501356001600160401b03811115612e6d57600080fd5b8501601f81018713612e7e57600080fd5b612e8d87823560208401612da9565b91505092959194509250565b60008060408385031215612eac57600080fd5b82359150612ebc60208401612ba8565b90509250929050565b600082601f830112612ed657600080fd5b611d3683833560208501612da9565b600080600060608486031215612efa57600080fd5b833592506020840135915060408401356001600160401b03811115612f1e57600080fd5b612f2a86828701612ec5565b9150509250925092565b60008083601f840112612f4657600080fd5b5081356001600160401b03811115612f5d57600080fd5b6020830191508360208260051b8501011115612f7857600080fd5b9250929050565b600080600080600080600060a0888a031215612f9a57600080fd5b612fa388612ba8565b9650602088013595506040880135945060608801356001600160401b0380821115612fcd57600080fd5b818a0191508a601f830112612fe157600080fd5b813581811115612ff057600080fd5b8b602082850101111561300257600080fd5b6020830196508095505060808a013591508082111561302057600080fd5b5061302d8a828b01612f34565b989b979a50959850939692959293505050565b60008060006060848603121561305557600080fd5b8335925060208401356001600160401b0381111561307257600080fd5b61307e86828701612ec5565b925050612bf060408501612ba8565b600080604083850312156130a057600080fd5b6130a983612ba8565b9150612ebc60208401612ba8565b600080600080608085870312156130cd57600080fd5b843593506020850135925060408501356130e681612b75565b9396929550929360600135925050565b634e487b7160e01b600052601160045260246000fd5b818103818111156103e9576103e96130f6565b80820281158282048414176103e9576103e96130f6565b634e487b7160e01b600052601260045260246000fd5b60008261315b5761315b613136565b500490565b634e487b7160e01b600052603260045260246000fd5b600060018201613188576131886130f6565b5060010190565b600181811c908216806131a357607f821691505b602082108103612aa957634e487b7160e01b600052602260045260246000fd5b6020808252602d908201527f4552433732313a2063616c6c6572206973206e6f7420746f6b656e206f776e6560408201526c1c881bdc88185c1c1c9bdd9959609a1b606082015260800190565b602080825260189082015277115490cdcc8c4e881a5b9d985b1a59081d1bdad95b88125160421b604082015260600190565b60006020828403121561325457600080fd5b5051919050565b60006020828403121561326d57600080fd5b8151611d3681612d4e565b808201808211156103e9576103e96130f6565b60208082526028908201527f536f75726365206d75737420626520746865206f7261636c65206f6620746865604082015267081c995c5d595cdd60c21b606082015260800190565b600083516132e5818460208801612bf9565b8351908301906132f9818360208801612bf9565b01949350505050565b8183823760009101908152919050565b6000815461331f8161318f565b60018281168015613337576001811461334c5761337b565b60ff198416875282151583028701945061337b565b8560005260208060002060005b858110156133725781548a820152908401908201613359565b50505082870194505b5050505092915050565b6000611fc161339d6133978488613312565b86613312565b84613312565b601f82111561096757600081815260208120601f850160051c810160208610156133ca5750805b601f850160051c820191505b81811015610796578281556001016133d6565b81516001600160401b0381111561340257613402612d93565b61341681613410845461318f565b846133a3565b602080601f83116001811461344b57600084156134335750858301515b600019600386901b1c1916600185901b178555610796565b600085815260208120601f198616915b8281101561347a5788860151825594840194600190910190840161345b565b50858210156134985787850151600019600388901b60f8161c191681555b5050505050600190811b01905550565b600082516134ba818460208701612bf9565b9190910192915050565b60006134e26134dc6134d68489613312565b87613312565b85613312565b83516134f2818360208801612bf9565b019695505050505050565b613d9160f11b8152825160009061351b816002850160208801612bf9565b62111d1160e91b600291840191820152835161353e816005840160208801612bf9565b61227d60f01b60059290910191820152600701949350505050565b60408152600061356c6040830185612c1d565b90508260208301529392505050565b60408152600061358e6040830185612c1d565b905060018060a01b03831660208301529392505050565b60208082526025908201527f4552433732313a207472616e736665722066726f6d20696e636f72726563742060408201526437bbb732b960d91b606082015260800190565b60208082526032908201527f4552433732313a207472616e7366657220746f206e6f6e20455243373231526560408201527131b2b4bb32b91034b6b83632b6b2b73a32b960711b606082015260800190565b6020808252601c908201527b115490cdcc8c4e881d1bdad95b88185b1c9958591e481b5a5b9d195960221b604082015260600190565b600081613681576136816130f6565b506000190190565b6001600160a01b0389811682526020820189905260408201889052861660608201526001600160e01b03198516608082015260a0810184905260c0810183905261010060e082018190526000906136e283820185612c1d565b9b9a5050505050505050505050565b6001600160a01b038581168252841660208201526040810183905260806060820181905260009061220c90830184612c1d565b60006020828403121561373657600080fd5b8151611d3681612b75565b60018060a01b0384168152826020820152606060408201526000611fc16060830184612c1d565b60008261377757613777613136565b500690565b600181815b808511156137b757816000190482111561379d5761379d6130f6565b808516156137aa57918102915b93841c9390800290613781565b509250929050565b6000826137ce575060016103e9565b816137db575060006103e9565b81600181146137f157600281146137fb57613817565b60019150506103e9565b60ff84111561380c5761380c6130f6565b50506001821b6103e9565b5060208310610133831016604e8410600b841016171561383a575081810a6103e9565b613844838361377c565b8060001904821115613858576138586130f6565b029392505050565b6000611d3683836137bf56feddf252ad1be2c89b69c2b068fc378daa952ba7f163c4a11628f55a4df523b3ef436865636b73207061737365642077696c6c20737461727420706179696e672066726f6d20616d6f756e74207cc135e0cebb02c3480ae5d74d377283180a2601f8f644edf7987b009316c63aa2646970667358221220b8925e975ccac560f25f3e1194925f3065ca5771bd2e462481b2a8b9bb69a9a664736f6c63430008130033",
  "immutableReferences": {},
  "source": "// SPDX-License-Identifier: MIT\npragma solidity ^0.8.18;\n\nimport '@openzeppelin/contracts/utils/Counters.sol';\nimport '@openzeppelin/contracts/token/ERC721/ERC721.sol';\nimport '@openzeppelin/contracts/token/ERC721/extensions/ERC721URIStorage.sol';\n\nimport \"truffle/Console.sol\";\n\nimport \"./CustomChainlinkClient.sol\";\n\n\ncontract ProjectNFT is ERC721URIStorage, CustomChainlinkClient {\n    \n    using Counters for Counters.Counter;\n     \n    Counters.Counter private tokenCounter;\n\n    address payable _platformAddress; //where to pay commissions\n\n    struct TokenInfo {\n       uint256 price;\n       uint256 royaltyPrice;\n       string projectHash;\n       uint256[] components;\n    }\n\n    mapping(uint256 => TokenInfo) private _tokenInfos;\n\n    // Map to check hashes are unique\n    mapping(string => bool) private _hashes;\n\n    constructor(address payable platformAddress, string memory host_machine_ip, address oracle, string memory jobId_1, string memory jobId_2) ERC721('ProjectNFT', 'PNFT') CustomChainlinkClient(host_machine_ip, oracle, jobId_1, jobId_2)  {\n      _platformAddress = platformAddress;\n    }\n\n    function mintToken(\n        address sender,\n        uint256 price,\n        uint256 royaltyPrice,\n        string calldata projectHash,\n        uint256[] calldata components\n    ) public returns (uint256) {\n        // Check NFT parameters:\n\n        // Check hash is unique\n        require(!_hashes[projectHash], 'Project already exists');\n\n        // Check components exists\n        for (uint i = 0; i < components.length; i++) {\n            require(components[i] < tokenCounter.current(), 'Component not valid');\n        }\n\n        tokenCounter.increment();\n\n        uint256 newItemId = tokenCounter.current();\n       \n        // Mint new token (openzeppelin)\n        _mint(sender, newItemId);\n\n        // Build uri from base + tokenId\n        string memory baseUri = string.concat(_base_url_1, _host_machine_ip, _base_url_2);\n        string memory uri = string.concat(baseUri, Strings.toString(newItemId));\n        _setTokenURI(newItemId, uri);\n\n        // Set NFT parameters\n        _tokenInfos[newItemId] = TokenInfo(price, royaltyPrice, projectHash, components);\n        _hashes[projectHash] = true;\n\n        //requestConfirmMinting(newItemId, projectHash);\n\n        return newItemId;\n        \n    }\n\n    function tokenIdCheck(uint256 tokenId) private view{\n        require(_exists(tokenId), 'Token does not exist');\n    }\n\n    function getTokenPrice(uint256 tokenId) public view returns (uint256) {\n        tokenIdCheck(tokenId);\n        return _tokenInfos[tokenId].price;\n    }\n\n    function getTokenRoyaltyPrice(uint256 tokenId) public view returns (uint256) {\n        tokenIdCheck(tokenId);\n        return _tokenInfos[tokenId].royaltyPrice;\n    }\n\n    function getProjectHash(uint256 tokenId) public view returns (string memory) {\n        tokenIdCheck(tokenId);\n        return _tokenInfos[tokenId].projectHash;\n    }\n\n    function getTokenComponents(uint256 tokenId) public view returns (uint256[] memory) {\n        tokenIdCheck(tokenId);\n        return _tokenInfos[tokenId].components;\n    }\n\n    function getTokenBuyPrice(uint256 tokenId, address buyerProject) public view returns (uint256) {\n        tokenIdCheck(tokenId);\n        \n        uint256 amount;\n        if(buyerProject==ownerOf(tokenId)){ //buyer and token owner are the same\n            amount = 0;\n        } else {\n            amount = getTokenPrice(tokenId);\n            amount = amount + (getTokenPrice(tokenId)*5/100); //commissions\n        }\n\n        for (uint256 i=0; i < _tokenInfos[tokenId].components.length; i++) {\n            uint256 componentTokenId = _tokenInfos[tokenId].components[i];\n\n            if(buyerProject != ownerOf(componentTokenId)){ //buyer and component owner are NOT the same\n                amount = amount + _tokenInfos[componentTokenId].royaltyPrice; //royalties\n                amount = amount + (_tokenInfos[componentTokenId].royaltyPrice*5/100); //commissions\n            }\n        }\n\n        return amount;\n    }\n\n    \n    function transferPayment(uint256 tokenId, uint256 amount, address buyerProject) public {\n        tokenIdCheck(tokenId);\n\n        uint256 amountToPay = getTokenBuyPrice(tokenId,buyerProject);\n        require(amount >= amountToPay, 'Pay amount is not price of project');\n\n        address payable owner = payable(ownerOf(tokenId));\n\n        console.log(\"Checks passed will start paying from amount \", amount);\n\n        console.log(\"Paying owner \", owner);\n\n        if(buyerProject != owner){\n            owner.transfer(_tokenInfos[tokenId].price);\n            amount = amount - _tokenInfos[tokenId].price;\n\n            _platformAddress.transfer(_tokenInfos[tokenId].price*5/100);\n            amount = amount - (_tokenInfos[tokenId].price*5/100);\n        }\n\n        for (uint256 i=0; i < _tokenInfos[tokenId].components.length; i++) {\n            uint256 componentTokenId = _tokenInfos[tokenId].components[i];\n            address payable componentOwner = payable(ownerOf(componentTokenId));\n\n            console.log(\"Paying owner of component \", componentOwner);\n\n            if(buyerProject != componentOwner){\n            componentOwner.transfer(_tokenInfos[componentTokenId].royaltyPrice);\n            amount = amount - _tokenInfos[componentTokenId].royaltyPrice;\n\n            _platformAddress.transfer(_tokenInfos[componentTokenId].royaltyPrice*5/100);\n            amount = amount - (_tokenInfos[componentTokenId].royaltyPrice*5/100);\n            }\n        }\n    }\n\n}\n",
  "sourcePath": "/home/matteo/Projects/Uni/blockchain-project/contracts/ProjectNFT.sol",
  "compiler": {
    "name": "solc",
    "version": "0.8.19+commit.7dd6d404.Emscripten.clang"
  },
  "schemaVersion": "3.4.13",
  "updatedAt": "2023-06-27T17:11:57.423Z",
  "networkType": "ethereum",
  "devdoc": {
    "events": {
      "Approval(address,address,uint256)": {
        "details": "Emitted when `owner` enables `approved` to manage the `tokenId` token."
      },
      "ApprovalForAll(address,address,bool)": {
        "details": "Emitted when `owner` enables or disables (`approved`) `operator` to manage all of its assets."
      },
      "BatchMetadataUpdate(uint256,uint256)": {
        "details": "This event emits when the metadata of a range of tokens is changed. So that the third-party platforms such as NFT market could timely update the images and related attributes of the NFTs."
      },
      "MetadataUpdate(uint256)": {
        "details": "This event emits when the metadata of a token is changed. So that the third-party platforms such as NFT market could timely update the images and related attributes of the NFT."
      },
      "Transfer(address,address,uint256)": {
        "details": "Emitted when `tokenId` token is transferred from `from` to `to`."
      }
    },
    "kind": "dev",
    "methods": {
      "approve(address,uint256)": {
        "details": "See {IERC721-approve}."
      },
      "balanceOf(address)": {
        "details": "See {IERC721-balanceOf}."
      },
      "getApproved(uint256)": {
        "details": "See {IERC721-getApproved}."
      },
      "isApprovedForAll(address,address)": {
        "details": "See {IERC721-isApprovedForAll}."
      },
      "name()": {
        "details": "See {IERC721Metadata-name}."
      },
      "ownerOf(uint256)": {
        "details": "See {IERC721-ownerOf}."
      },
      "safeTransferFrom(address,address,uint256)": {
        "details": "See {IERC721-safeTransferFrom}."
      },
      "safeTransferFrom(address,address,uint256,bytes)": {
        "details": "See {IERC721-safeTransferFrom}."
      },
      "setApprovalForAll(address,bool)": {
        "details": "See {IERC721-setApprovalForAll}."
      },
      "supportsInterface(bytes4)": {
        "details": "See {IERC165-supportsInterface}"
      },
      "symbol()": {
        "details": "See {IERC721Metadata-symbol}."
      },
      "tokenURI(uint256)": {
        "details": "See {IERC721Metadata-tokenURI}."
      },
      "transferFrom(address,address,uint256)": {
        "details": "See {IERC721-transferFrom}."
      }
    },
    "version": 1
  },
  "userdoc": {
    "kind": "user",
    "methods": {
      "acceptOwnership()": {
        "notice": "Allows an ownership transfer to be completed by the recipient."
      },
      "owner()": {
        "notice": "Get the current owner"
      },
      "transferOwnership(address)": {
        "notice": "Allows an owner to begin transferring ownership to a new address, pending."
      }
    },
    "version": 1
  }
}