{
  "contractName": "ProjectNFT",
  "abi": [
    {
      "inputs": [
        {
          "internalType": "address payable",
          "name": "_pluginAddress",
          "type": "address"
        }
      ],
      "stateMutability": "nonpayable",
      "type": "constructor"
    },
    {
      "anonymous": false,
      "inputs": [
        {
          "indexed": true,
          "internalType": "address",
          "name": "owner",
          "type": "address"
        },
        {
          "indexed": true,
          "internalType": "address",
          "name": "approved",
          "type": "address"
        },
        {
          "indexed": true,
          "internalType": "uint256",
          "name": "tokenId",
          "type": "uint256"
        }
      ],
      "name": "Approval",
      "type": "event"
    },
    {
      "anonymous": false,
      "inputs": [
        {
          "indexed": true,
          "internalType": "address",
          "name": "owner",
          "type": "address"
        },
        {
          "indexed": true,
          "internalType": "address",
          "name": "operator",
          "type": "address"
        },
        {
          "indexed": false,
          "internalType": "bool",
          "name": "approved",
          "type": "bool"
        }
      ],
      "name": "ApprovalForAll",
      "type": "event"
    },
    {
      "anonymous": false,
      "inputs": [
        {
          "indexed": false,
          "internalType": "uint256",
          "name": "_fromTokenId",
          "type": "uint256"
        },
        {
          "indexed": false,
          "internalType": "uint256",
          "name": "_toTokenId",
          "type": "uint256"
        }
      ],
      "name": "BatchMetadataUpdate",
      "type": "event"
    },
    {
      "anonymous": false,
      "inputs": [
        {
          "indexed": false,
          "internalType": "uint256",
          "name": "_tokenId",
          "type": "uint256"
        }
      ],
      "name": "MetadataUpdate",
      "type": "event"
    },
    {
      "anonymous": false,
      "inputs": [
        {
          "indexed": true,
          "internalType": "address",
          "name": "from",
          "type": "address"
        },
        {
          "indexed": true,
          "internalType": "address",
          "name": "to",
          "type": "address"
        },
        {
          "indexed": true,
          "internalType": "uint256",
          "name": "tokenId",
          "type": "uint256"
        }
      ],
      "name": "Transfer",
      "type": "event"
    },
    {
      "inputs": [
        {
          "internalType": "address",
          "name": "to",
          "type": "address"
        },
        {
          "internalType": "uint256",
          "name": "tokenId",
          "type": "uint256"
        }
      ],
      "name": "approve",
      "outputs": [],
      "stateMutability": "nonpayable",
      "type": "function"
    },
    {
      "inputs": [
        {
          "internalType": "address",
          "name": "owner",
          "type": "address"
        }
      ],
      "name": "balanceOf",
      "outputs": [
        {
          "internalType": "uint256",
          "name": "",
          "type": "uint256"
        }
      ],
      "stateMutability": "view",
      "type": "function",
      "constant": true
    },
    {
      "inputs": [
        {
          "internalType": "uint256",
          "name": "tokenId",
          "type": "uint256"
        }
      ],
      "name": "getApproved",
      "outputs": [
        {
          "internalType": "address",
          "name": "",
          "type": "address"
        }
      ],
      "stateMutability": "view",
      "type": "function",
      "constant": true
    },
    {
      "inputs": [
        {
          "internalType": "address",
          "name": "owner",
          "type": "address"
        },
        {
          "internalType": "address",
          "name": "operator",
          "type": "address"
        }
      ],
      "name": "isApprovedForAll",
      "outputs": [
        {
          "internalType": "bool",
          "name": "",
          "type": "bool"
        }
      ],
      "stateMutability": "view",
      "type": "function",
      "constant": true
    },
    {
      "inputs": [],
      "name": "name",
      "outputs": [
        {
          "internalType": "string",
          "name": "",
          "type": "string"
        }
      ],
      "stateMutability": "view",
      "type": "function",
      "constant": true
    },
    {
      "inputs": [
        {
          "internalType": "uint256",
          "name": "tokenId",
          "type": "uint256"
        }
      ],
      "name": "ownerOf",
      "outputs": [
        {
          "internalType": "address",
          "name": "",
          "type": "address"
        }
      ],
      "stateMutability": "view",
      "type": "function",
      "constant": true
    },
    {
      "inputs": [
        {
          "internalType": "address",
          "name": "from",
          "type": "address"
        },
        {
          "internalType": "address",
          "name": "to",
          "type": "address"
        },
        {
          "internalType": "uint256",
          "name": "tokenId",
          "type": "uint256"
        }
      ],
      "name": "safeTransferFrom",
      "outputs": [],
      "stateMutability": "nonpayable",
      "type": "function"
    },
    {
      "inputs": [
        {
          "internalType": "address",
          "name": "from",
          "type": "address"
        },
        {
          "internalType": "address",
          "name": "to",
          "type": "address"
        },
        {
          "internalType": "uint256",
          "name": "tokenId",
          "type": "uint256"
        },
        {
          "internalType": "bytes",
          "name": "data",
          "type": "bytes"
        }
      ],
      "name": "safeTransferFrom",
      "outputs": [],
      "stateMutability": "nonpayable",
      "type": "function"
    },
    {
      "inputs": [
        {
          "internalType": "address",
          "name": "operator",
          "type": "address"
        },
        {
          "internalType": "bool",
          "name": "approved",
          "type": "bool"
        }
      ],
      "name": "setApprovalForAll",
      "outputs": [],
      "stateMutability": "nonpayable",
      "type": "function"
    },
    {
      "inputs": [
        {
          "internalType": "bytes4",
          "name": "interfaceId",
          "type": "bytes4"
        }
      ],
      "name": "supportsInterface",
      "outputs": [
        {
          "internalType": "bool",
          "name": "",
          "type": "bool"
        }
      ],
      "stateMutability": "view",
      "type": "function",
      "constant": true
    },
    {
      "inputs": [],
      "name": "symbol",
      "outputs": [
        {
          "internalType": "string",
          "name": "",
          "type": "string"
        }
      ],
      "stateMutability": "view",
      "type": "function",
      "constant": true
    },
    {
      "inputs": [],
      "name": "tokenCounter",
      "outputs": [
        {
          "internalType": "uint256",
          "name": "",
          "type": "uint256"
        }
      ],
      "stateMutability": "view",
      "type": "function",
      "constant": true
    },
    {
      "inputs": [
        {
          "internalType": "uint256",
          "name": "tokenId",
          "type": "uint256"
        }
      ],
      "name": "tokenURI",
      "outputs": [
        {
          "internalType": "string",
          "name": "",
          "type": "string"
        }
      ],
      "stateMutability": "view",
      "type": "function",
      "constant": true
    },
    {
      "inputs": [
        {
          "internalType": "address",
          "name": "from",
          "type": "address"
        },
        {
          "internalType": "address",
          "name": "to",
          "type": "address"
        },
        {
          "internalType": "uint256",
          "name": "tokenId",
          "type": "uint256"
        }
      ],
      "name": "transferFrom",
      "outputs": [],
      "stateMutability": "nonpayable",
      "type": "function"
    },
    {
      "inputs": [
        {
          "internalType": "address",
          "name": "sender",
          "type": "address"
        },
        {
          "internalType": "uint256",
          "name": "price",
          "type": "uint256"
        },
        {
          "internalType": "uint256",
          "name": "royaltyPrice",
          "type": "uint256"
        },
        {
          "internalType": "string",
          "name": "projectHash",
          "type": "string"
        },
        {
          "internalType": "uint256[]",
          "name": "components",
          "type": "uint256[]"
        }
      ],
      "name": "mintToken",
      "outputs": [
        {
          "internalType": "uint256",
          "name": "",
          "type": "uint256"
        }
      ],
      "stateMutability": "nonpayable",
      "type": "function"
    },
    {
      "inputs": [
        {
          "internalType": "uint256",
          "name": "tokenId",
          "type": "uint256"
        }
      ],
      "name": "getTokenPrice",
      "outputs": [
        {
          "internalType": "uint256",
          "name": "",
          "type": "uint256"
        }
      ],
      "stateMutability": "view",
      "type": "function",
      "constant": true
    },
    {
      "inputs": [
        {
          "internalType": "uint256",
          "name": "tokenId",
          "type": "uint256"
        }
      ],
      "name": "getTokenRoyaltyPrice",
      "outputs": [
        {
          "internalType": "uint256",
          "name": "",
          "type": "uint256"
        }
      ],
      "stateMutability": "view",
      "type": "function",
      "constant": true
    },
    {
      "inputs": [
        {
          "internalType": "uint256",
          "name": "tokenId",
          "type": "uint256"
        },
        {
          "internalType": "address",
          "name": "buyerProject",
          "type": "address"
        }
      ],
      "name": "getTokenBuyPrice",
      "outputs": [
        {
          "internalType": "uint256",
          "name": "",
          "type": "uint256"
        }
      ],
      "stateMutability": "view",
      "type": "function",
      "constant": true
    },
    {
      "inputs": [
        {
          "internalType": "uint256",
          "name": "tokenId",
          "type": "uint256"
        }
      ],
      "name": "getProjectHash",
      "outputs": [
        {
          "internalType": "string",
          "name": "",
          "type": "string"
        }
      ],
      "stateMutability": "view",
      "type": "function",
      "constant": true
    },
    {
      "inputs": [
        {
          "internalType": "uint256",
          "name": "tokenId",
          "type": "uint256"
        }
      ],
      "name": "getTokenComponents",
      "outputs": [
        {
          "internalType": "uint256[]",
          "name": "",
          "type": "uint256[]"
        }
      ],
      "stateMutability": "view",
      "type": "function",
      "constant": true
    },
    {
      "inputs": [
        {
          "internalType": "uint256",
          "name": "tokenId",
          "type": "uint256"
        },
        {
          "internalType": "uint256",
          "name": "amount",
          "type": "uint256"
        },
        {
          "internalType": "address",
          "name": "buyerProject",
          "type": "address"
        }
      ],
      "name": "transferPayment",
      "outputs": [],
      "stateMutability": "nonpayable",
      "type": "function"
    }
  ],
  "bytecode": "0x60806040523480156200001157600080fd5b506040516200429838038062004298833981810160405281019062000037919062000183565b6040518060400160405280600b81526020017f44657369676e65724e46540000000000000000000000000000000000000000008152506040518060400160405280600481526020017f444e4654000000000000000000000000000000000000000000000000000000008152508160009081620000b491906200042f565b508060019081620000c691906200042f565b50505080600860006101000a81548173ffffffffffffffffffffffffffffffffffffffff021916908373ffffffffffffffffffffffffffffffffffffffff16021790555060016007819055505062000516565b600080fd5b600073ffffffffffffffffffffffffffffffffffffffff82169050919050565b60006200014b826200011e565b9050919050565b6200015d816200013e565b81146200016957600080fd5b50565b6000815190506200017d8162000152565b92915050565b6000602082840312156200019c576200019b62000119565b5b6000620001ac848285016200016c565b91505092915050565b600081519050919050565b7f4e487b7100000000000000000000000000000000000000000000000000000000600052604160045260246000fd5b7f4e487b7100000000000000000000000000000000000000000000000000000000600052602260045260246000fd5b600060028204905060018216806200023757607f821691505b6020821081036200024d576200024c620001ef565b5b50919050565b60008190508160005260206000209050919050565b60006020601f8301049050919050565b600082821b905092915050565b600060088302620002b77fffffffffffffffffffffffffffffffffffffffffffffffffffffffffffffffff8262000278565b620002c3868362000278565b95508019841693508086168417925050509392505050565b6000819050919050565b6000819050919050565b6000620003106200030a6200030484620002db565b620002e5565b620002db565b9050919050565b6000819050919050565b6200032c83620002ef565b620003446200033b8262000317565b84845462000285565b825550505050565b600090565b6200035b6200034c565b6200036881848462000321565b505050565b5b8181101562000390576200038460008262000351565b6001810190506200036e565b5050565b601f821115620003df57620003a98162000253565b620003b48462000268565b81016020851015620003c4578190505b620003dc620003d38562000268565b8301826200036d565b50505b505050565b600082821c905092915050565b60006200040460001984600802620003e4565b1980831691505092915050565b60006200041f8383620003f1565b9150826002028217905092915050565b6200043a82620001b5565b67ffffffffffffffff811115620004565762000455620001c0565b5b6200046282546200021e565b6200046f82828562000394565b600060209050601f831160018114620004a7576000841562000492578287015190505b6200049e858262000411565b8655506200050e565b601f198416620004b78662000253565b60005b82811015620004e157848901518255600182019150602085019450602081019050620004ba565b86831015620005015784890151620004fd601f891682620003f1565b8355505b6001600288020188555050505b505050505050565b613d7280620005266000396000f3fe608060405234801561001057600080fd5b50600436106101375760003560e01c806395d89b41116100b8578063c457fb371161007c578063c457fb3714610370578063c739acb0146103a0578063c87b56dd146103d0578063cb9d741514610400578063d082e38114610430578063e985e9c51461044e57610137565b806395d89b41146102ba578063a082dfc2146102d8578063a22cb46514610308578063b88d4fde14610324578063c16849fc1461034057610137565b8063118c66c7116100ff578063118c66c7146101f257806323b872dd1461022257806342842e0e1461023e5780636352211e1461025a57806370a082311461028a57610137565b806301ffc9a71461013c5780630396e2101461016c57806306fdde0314610188578063081812fc146101a6578063095ea7b3146101d6575b600080fd5b610156600480360381019061015191906125e3565b61047e565b604051610163919061262b565b60405180910390f35b610186600480360381019061018191906126da565b6104df565b005b6101906108f7565b60405161019d91906127bd565b60405180910390f35b6101c060048036038101906101bb91906127df565b610989565b6040516101cd919061281b565b60405180910390f35b6101f060048036038101906101eb9190612836565b6109cf565b005b61020c600480360381019061020791906127df565b610ae6565b60405161021991906127bd565b60405180910390f35b61023c60048036038101906102379190612876565b610bcf565b005b61025860048036038101906102539190612876565b610c2f565b005b610274600480360381019061026f91906127df565b610c4f565b604051610281919061281b565b60405180910390f35b6102a4600480360381019061029f91906128c9565b610cd5565b6040516102b19190612905565b60405180910390f35b6102c2610d8c565b6040516102cf91906127bd565b60405180910390f35b6102f260048036038101906102ed91906127df565b610e1e565b6040516102ff91906129de565b60405180910390f35b610322600480360381019061031d9190612a2c565b610ecd565b005b61033e60048036038101906103399190612ba1565b610ee3565b005b61035a60048036038101906103559190612c24565b610f45565b6040516103679190612905565b60405180910390f35b61038a600480360381019061038591906127df565b611115565b6040516103979190612905565b60405180910390f35b6103ba60048036038101906103b591906127df565b611176565b6040516103c79190612905565b60405180910390f35b6103ea60048036038101906103e591906127df565b6111d7565b6040516103f791906127bd565b60405180910390f35b61041a60048036038101906104159190612d1a565b6112e9565b6040516104279190612905565b60405180910390f35b610438611530565b6040516104459190612905565b60405180910390f35b61046860048036038101906104639190612dd6565b611536565b604051610475919061262b565b60405180910390f35b6000634906490660e01b7bffffffffffffffffffffffffffffffffffffffffffffffffffffffff1916827bffffffffffffffffffffffffffffffffffffffffffffffffffffffff191614806104d857506104d7826115ca565b5b9050919050565b6007548310610523576040517f08c379a000000000000000000000000000000000000000000000000000000000815260040161051a90612e62565b60405180910390fd5b600061052f8483610f45565b9050808314610573576040517f08c379a000000000000000000000000000000000000000000000000000000000815260040161056a90612ef4565b60405180910390fd5b600061057e85610c4f565b90508073ffffffffffffffffffffffffffffffffffffffff168373ffffffffffffffffffffffffffffffffffffffff16146106fc578073ffffffffffffffffffffffffffffffffffffffff166108fc60096000888152602001908152602001600020549081150290604051600060405180830381858888f1935050505015801561060c573d6000803e3d6000fd5b5060096000868152602001908152602001600020548461062c9190612f43565b9350600860009054906101000a900473ffffffffffffffffffffffffffffffffffffffff1673ffffffffffffffffffffffffffffffffffffffff166108fc60646005600960008a81526020019081526020016000205461068c9190612f77565b6106969190612fe8565b9081150290604051600060405180830381858888f193505050501580156106c1573d6000803e3d6000fd5b506064600560096000888152602001908152602001600020546106e49190612f77565b6106ee9190612fe8565b846106f99190612f43565b93505b60005b600c6000878152602001908152602001600020805490508110156108ef576000600c6000888152602001908152602001600020828154811061074457610743613019565b5b90600052602060002001549050600061075c82610c4f565b90508073ffffffffffffffffffffffffffffffffffffffff168673ffffffffffffffffffffffffffffffffffffffff16146108da578073ffffffffffffffffffffffffffffffffffffffff166108fc600a6000858152602001908152602001600020549081150290604051600060405180830381858888f193505050501580156107ea573d6000803e3d6000fd5b50600a6000838152602001908152602001600020548761080a9190612f43565b9650600860009054906101000a900473ffffffffffffffffffffffffffffffffffffffff1673ffffffffffffffffffffffffffffffffffffffff166108fc60646005600a60008781526020019081526020016000205461086a9190612f77565b6108749190612fe8565b9081150290604051600060405180830381858888f1935050505015801561089f573d6000803e3d6000fd5b5060646005600a6000858152602001908152602001600020546108c29190612f77565b6108cc9190612fe8565b876108d79190612f43565b96505b505080806108e790613048565b9150506106ff565b505050505050565b606060008054610906906130bf565b80601f0160208091040260200160405190810160405280929190818152602001828054610932906130bf565b801561097f5780601f106109545761010080835404028352916020019161097f565b820191906000526020600020905b81548152906001019060200180831161096257829003601f168201915b5050505050905090565b6000610994826116ac565b6004600083815260200190815260200160002060009054906101000a900473ffffffffffffffffffffffffffffffffffffffff169050919050565b60006109da82610c4f565b90508073ffffffffffffffffffffffffffffffffffffffff168373ffffffffffffffffffffffffffffffffffffffff1603610a4a576040517f08c379a0000000000000000000000000000000000000000000000000000000008152600401610a4190613162565b60405180910390fd5b8073ffffffffffffffffffffffffffffffffffffffff16610a696116f7565b73ffffffffffffffffffffffffffffffffffffffff161480610a985750610a9781610a926116f7565b611536565b5b610ad7576040517f08c379a0000000000000000000000000000000000000000000000000000000008152600401610ace906131f4565b60405180910390fd5b610ae183836116ff565b505050565b60606007548210610b2c576040517f08c379a0000000000000000000000000000000000000000000000000000000008152600401610b2390612e62565b60405180910390fd5b600b60008381526020019081526020016000208054610b4a906130bf565b80601f0160208091040260200160405190810160405280929190818152602001828054610b76906130bf565b8015610bc35780601f10610b9857610100808354040283529160200191610bc3565b820191906000526020600020905b815481529060010190602001808311610ba657829003601f168201915b50505050509050919050565b610be0610bda6116f7565b826117b8565b610c1f576040517f08c379a0000000000000000000000000000000000000000000000000000000008152600401610c1690613286565b60405180910390fd5b610c2a83838361184d565b505050565b610c4a83838360405180602001604052806000815250610ee3565b505050565b600080610c5b83611b46565b9050600073ffffffffffffffffffffffffffffffffffffffff168173ffffffffffffffffffffffffffffffffffffffff1603610ccc576040517f08c379a0000000000000000000000000000000000000000000000000000000008152600401610cc3906132f2565b60405180910390fd5b80915050919050565b60008073ffffffffffffffffffffffffffffffffffffffff168273ffffffffffffffffffffffffffffffffffffffff1603610d45576040517f08c379a0000000000000000000000000000000000000000000000000000000008152600401610d3c90613384565b60405180910390fd5b600360008373ffffffffffffffffffffffffffffffffffffffff1673ffffffffffffffffffffffffffffffffffffffff168152602001908152602001600020549050919050565b606060018054610d9b906130bf565b80601f0160208091040260200160405190810160405280929190818152602001828054610dc7906130bf565b8015610e145780601f10610de957610100808354040283529160200191610e14565b820191906000526020600020905b815481529060010190602001808311610df757829003601f168201915b5050505050905090565b60606007548210610e64576040517f08c379a0000000000000000000000000000000000000000000000000000000008152600401610e5b90612e62565b60405180910390fd5b600c6000838152602001908152602001600020805480602002602001604051908101604052809291908181526020018280548015610ec157602002820191906000526020600020905b815481526020019060010190808311610ead575b50505050509050919050565b610edf610ed86116f7565b8383611b83565b5050565b610ef4610eee6116f7565b836117b8565b610f33576040517f08c379a0000000000000000000000000000000000000000000000000000000008152600401610f2a90613286565b60405180910390fd5b610f3f84848484611cef565b50505050565b60006007548310610f8b576040517f08c379a0000000000000000000000000000000000000000000000000000000008152600401610f8290612e62565b60405180910390fd5b6000610f9684610c4f565b73ffffffffffffffffffffffffffffffffffffffff168373ffffffffffffffffffffffffffffffffffffffff1603610fd1576000905061100b565b610fda84611115565b905060646005610fe986611115565b610ff39190612f77565b610ffd9190612fe8565b8161100891906133a4565b90505b60005b600c60008681526020019081526020016000208054905081101561110a576000600c6000878152602001908152602001600020828154811061105357611052613019565b5b9060005260206000200154905061106981610c4f565b73ffffffffffffffffffffffffffffffffffffffff168573ffffffffffffffffffffffffffffffffffffffff16146110f657600a600082815260200190815260200160002054836110ba91906133a4565b925060646005600a6000848152602001908152602001600020546110de9190612f77565b6110e89190612fe8565b836110f391906133a4565b92505b50808061110290613048565b91505061100e565b508091505092915050565b6000600754821061115b576040517f08c379a000000000000000000000000000000000000000000000000000000000815260040161115290612e62565b60405180910390fd5b60096000838152602001908152602001600020549050919050565b600060075482106111bc576040517f08c379a00000000000000000000000000000000000000000000000000000000081526004016111b390612e62565b60405180910390fd5b600a6000838152602001908152602001600020549050919050565b60606111e2826116ac565b6000600660008481526020019081526020016000208054611202906130bf565b80601f016020809104026020016040519081016040528092919081815260200182805461122e906130bf565b801561127b5780601f106112505761010080835404028352916020019161127b565b820191906000526020600020905b81548152906001019060200180831161125e57829003601f168201915b50505050509050600061128c611d4b565b905060008151036112a15781925050506112e4565b6000825111156112d65780826040516020016112be929190613414565b604051602081830303815290604052925050506112e4565b6112df84611d62565b925050505b919050565b6000600d85856040516112fd92919061345d565b908152602001604051809103902060009054906101000a900460ff1615611359576040517f08c379a0000000000000000000000000000000000000000000000000000000008152600401611350906134e8565b60405180910390fd5b60005b838390508110156113d75760075484848381811061137d5761137c613019565b5b90506020020135106113c4576040517f08c379a00000000000000000000000000000000000000000000000000000000081526004016113bb90613554565b60405180910390fd5b80806113cf90613048565b91505061135c565b50600060075490506113e98982611dca565b60006040518060400160405280601481526020017f6c6f63616c686f73743a333030302f6e6674732f000000000000000000000000815250905060008161142f84611fe7565b604051602001611440929190613414565b604051602081830303815290604052905061145b83826120b5565b89600960008581526020019081526020016000208190555088600a6000858152602001908152602001600020819055508787600b600086815260200190815260200160002091826114ad92919061372b565b506001600d89896040516114c292919061345d565b908152602001604051809103902060006101000a81548160ff0219169083151502179055508585600c6000868152602001908152602001600020919061150992919061250d565b50600160075461151991906133a4565b600781905550829350505050979650505050505050565b60075481565b6000600560008473ffffffffffffffffffffffffffffffffffffffff1673ffffffffffffffffffffffffffffffffffffffff16815260200190815260200160002060008373ffffffffffffffffffffffffffffffffffffffff1673ffffffffffffffffffffffffffffffffffffffff16815260200190815260200160002060009054906101000a900460ff16905092915050565b60007f80ac58cd000000000000000000000000000000000000000000000000000000007bffffffffffffffffffffffffffffffffffffffffffffffffffffffff1916827bffffffffffffffffffffffffffffffffffffffffffffffffffffffff1916148061169557507f5b5e139f000000000000000000000000000000000000000000000000000000007bffffffffffffffffffffffffffffffffffffffffffffffffffffffff1916827bffffffffffffffffffffffffffffffffffffffffffffffffffffffff1916145b806116a557506116a482612159565b5b9050919050565b6116b5816121c3565b6116f4576040517f08c379a00000000000000000000000000000000000000000000000000000000081526004016116eb906132f2565b60405180910390fd5b50565b600033905090565b816004600083815260200190815260200160002060006101000a81548173ffffffffffffffffffffffffffffffffffffffff021916908373ffffffffffffffffffffffffffffffffffffffff160217905550808273ffffffffffffffffffffffffffffffffffffffff1661177283610c4f565b73ffffffffffffffffffffffffffffffffffffffff167f8c5be1e5ebec7d5bd14f71427d1e84f3dd0314c0f7b2291e5b200ac8c7c3b92560405160405180910390a45050565b6000806117c483610c4f565b90508073ffffffffffffffffffffffffffffffffffffffff168473ffffffffffffffffffffffffffffffffffffffff16148061180657506118058185611536565b5b8061184457508373ffffffffffffffffffffffffffffffffffffffff1661182c84610989565b73ffffffffffffffffffffffffffffffffffffffff16145b91505092915050565b8273ffffffffffffffffffffffffffffffffffffffff1661186d82610c4f565b73ffffffffffffffffffffffffffffffffffffffff16146118c3576040517f08c379a00000000000000000000000000000000000000000000000000000000081526004016118ba9061386d565b60405180910390fd5b600073ffffffffffffffffffffffffffffffffffffffff168273ffffffffffffffffffffffffffffffffffffffff1603611932576040517f08c379a0000000000000000000000000000000000000000000000000000000008152600401611929906138ff565b60405180910390fd5b61193f8383836001612204565b8273ffffffffffffffffffffffffffffffffffffffff1661195f82610c4f565b73ffffffffffffffffffffffffffffffffffffffff16146119b5576040517f08c379a00000000000000000000000000000000000000000000000000000000081526004016119ac9061386d565b60405180910390fd5b6004600082815260200190815260200160002060006101000a81549073ffffffffffffffffffffffffffffffffffffffff02191690556001600360008573ffffffffffffffffffffffffffffffffffffffff1673ffffffffffffffffffffffffffffffffffffffff168152602001908152602001600020600082825403925050819055506001600360008473ffffffffffffffffffffffffffffffffffffffff1673ffffffffffffffffffffffffffffffffffffffff16815260200190815260200160002060008282540192505081905550816002600083815260200190815260200160002060006101000a81548173ffffffffffffffffffffffffffffffffffffffff021916908373ffffffffffffffffffffffffffffffffffffffff160217905550808273ffffffffffffffffffffffffffffffffffffffff168473ffffffffffffffffffffffffffffffffffffffff167fddf252ad1be2c89b69c2b068fc378daa952ba7f163c4a11628f55a4df523b3ef60405160405180910390a4611b41838383600161220a565b505050565b60006002600083815260200190815260200160002060009054906101000a900473ffffffffffffffffffffffffffffffffffffffff169050919050565b8173ffffffffffffffffffffffffffffffffffffffff168373ffffffffffffffffffffffffffffffffffffffff1603611bf1576040517f08c379a0000000000000000000000000000000000000000000000000000000008152600401611be89061396b565b60405180910390fd5b80600560008573ffffffffffffffffffffffffffffffffffffffff1673ffffffffffffffffffffffffffffffffffffffff16815260200190815260200160002060008473ffffffffffffffffffffffffffffffffffffffff1673ffffffffffffffffffffffffffffffffffffffff16815260200190815260200160002060006101000a81548160ff0219169083151502179055508173ffffffffffffffffffffffffffffffffffffffff168373ffffffffffffffffffffffffffffffffffffffff167f17307eab39ab6107e8899845ad3d59bd9653f200f220920489ca2b5937696c3183604051611ce2919061262b565b60405180910390a3505050565b611cfa84848461184d565b611d0684848484612210565b611d45576040517f08c379a0000000000000000000000000000000000000000000000000000000008152600401611d3c906139fd565b60405180910390fd5b50505050565b606060405180602001604052806000815250905090565b6060611d6d826116ac565b6000611d77611d4b565b90506000815111611d975760405180602001604052806000815250611dc2565b80611da184611fe7565b604051602001611db2929190613414565b6040516020818303038152906040525b915050919050565b600073ffffffffffffffffffffffffffffffffffffffff168273ffffffffffffffffffffffffffffffffffffffff1603611e39576040517f08c379a0000000000000000000000000000000000000000000000000000000008152600401611e3090613a69565b60405180910390fd5b611e42816121c3565b15611e82576040517f08c379a0000000000000000000000000000000000000000000000000000000008152600401611e7990613ad5565b60405180910390fd5b611e90600083836001612204565b611e99816121c3565b15611ed9576040517f08c379a0000000000000000000000000000000000000000000000000000000008152600401611ed090613ad5565b60405180910390fd5b6001600360008473ffffffffffffffffffffffffffffffffffffffff1673ffffffffffffffffffffffffffffffffffffffff16815260200190815260200160002060008282540192505081905550816002600083815260200190815260200160002060006101000a81548173ffffffffffffffffffffffffffffffffffffffff021916908373ffffffffffffffffffffffffffffffffffffffff160217905550808273ffffffffffffffffffffffffffffffffffffffff16600073ffffffffffffffffffffffffffffffffffffffff167fddf252ad1be2c89b69c2b068fc378daa952ba7f163c4a11628f55a4df523b3ef60405160405180910390a4611fe360008383600161220a565b5050565b606060006001611ff684612397565b01905060008167ffffffffffffffff81111561201557612014612a76565b5b6040519080825280601f01601f1916602001820160405280156120475781602001600182028036833780820191505090505b509050600082602001820190505b6001156120aa578080600190039150507f3031323334353637383961626364656600000000000000000000000000000000600a86061a8153600a858161209e5761209d612fb9565b5b04945060008503612055575b819350505050919050565b6120be826121c3565b6120fd576040517f08c379a00000000000000000000000000000000000000000000000000000000081526004016120f490613b67565b60405180910390fd5b8060066000848152602001908152602001600020908161211d9190613b87565b507ff8e1a15aba9398e019f0b49df1a4fde98ee17ae345cb5f6b5e2c27f5033e8ce78260405161214d9190612905565b60405180910390a15050565b60007f01ffc9a7000000000000000000000000000000000000000000000000000000007bffffffffffffffffffffffffffffffffffffffffffffffffffffffff1916827bffffffffffffffffffffffffffffffffffffffffffffffffffffffff1916149050919050565b60008073ffffffffffffffffffffffffffffffffffffffff166121e583611b46565b73ffffffffffffffffffffffffffffffffffffffff1614159050919050565b50505050565b50505050565b60006122318473ffffffffffffffffffffffffffffffffffffffff166124ea565b1561238a578373ffffffffffffffffffffffffffffffffffffffff1663150b7a0261225a6116f7565b8786866040518563ffffffff1660e01b815260040161227c9493929190613cae565b6020604051808303816000875af19250505080156122b857506040513d601f19601f820116820180604052508101906122b59190613d0f565b60015b61233a573d80600081146122e8576040519150601f19603f3d011682016040523d82523d6000602084013e6122ed565b606091505b506000815103612332576040517f08c379a0000000000000000000000000000000000000000000000000000000008152600401612329906139fd565b60405180910390fd5b805181602001fd5b63150b7a0260e01b7bffffffffffffffffffffffffffffffffffffffffffffffffffffffff1916817bffffffffffffffffffffffffffffffffffffffffffffffffffffffff19161491505061238f565b600190505b949350505050565b600080600090507a184f03e93ff9f4daa797ed6e38ed64bf6a1f01000000000000000083106123f5577a184f03e93ff9f4daa797ed6e38ed64bf6a1f01000000000000000083816123eb576123ea612fb9565b5b0492506040810190505b6d04ee2d6d415b85acef81000000008310612432576d04ee2d6d415b85acef8100000000838161242857612427612fb9565b5b0492506020810190505b662386f26fc10000831061246157662386f26fc10000838161245757612456612fb9565b5b0492506010810190505b6305f5e100831061248a576305f5e10083816124805761247f612fb9565b5b0492506008810190505b61271083106124af5761271083816124a5576124a4612fb9565b5b0492506004810190505b606483106124d257606483816124c8576124c7612fb9565b5b0492506002810190505b600a83106124e1576001810190505b80915050919050565b6000808273ffffffffffffffffffffffffffffffffffffffff163b119050919050565b828054828255906000526020600020908101928215612549579160200282015b8281111561254857823582559160200191906001019061252d565b5b509050612556919061255a565b5090565b5b8082111561257357600081600090555060010161255b565b5090565b6000604051905090565b600080fd5b600080fd5b60007fffffffff0000000000000000000000000000000000000000000000000000000082169050919050565b6125c08161258b565b81146125cb57600080fd5b50565b6000813590506125dd816125b7565b92915050565b6000602082840312156125f9576125f8612581565b5b6000612607848285016125ce565b91505092915050565b60008115159050919050565b61262581612610565b82525050565b6000602082019050612640600083018461261c565b92915050565b6000819050919050565b61265981612646565b811461266457600080fd5b50565b60008135905061267681612650565b92915050565b600073ffffffffffffffffffffffffffffffffffffffff82169050919050565b60006126a78261267c565b9050919050565b6126b78161269c565b81146126c257600080fd5b50565b6000813590506126d4816126ae565b92915050565b6000806000606084860312156126f3576126f2612581565b5b600061270186828701612667565b935050602061271286828701612667565b9250506040612723868287016126c5565b9150509250925092565b600081519050919050565b600082825260208201905092915050565b60005b8381101561276757808201518184015260208101905061274c565b60008484015250505050565b6000601f19601f8301169050919050565b600061278f8261272d565b6127998185612738565b93506127a9818560208601612749565b6127b281612773565b840191505092915050565b600060208201905081810360008301526127d78184612784565b905092915050565b6000602082840312156127f5576127f4612581565b5b600061280384828501612667565b91505092915050565b6128158161269c565b82525050565b6000602082019050612830600083018461280c565b92915050565b6000806040838503121561284d5761284c612581565b5b600061285b858286016126c5565b925050602061286c85828601612667565b9150509250929050565b60008060006060848603121561288f5761288e612581565b5b600061289d868287016126c5565b93505060206128ae868287016126c5565b92505060406128bf86828701612667565b9150509250925092565b6000602082840312156128df576128de612581565b5b60006128ed848285016126c5565b91505092915050565b6128ff81612646565b82525050565b600060208201905061291a60008301846128f6565b92915050565b600081519050919050565b600082825260208201905092915050565b6000819050602082019050919050565b61295581612646565b82525050565b6000612967838361294c565b60208301905092915050565b6000602082019050919050565b600061298b82612920565b612995818561292b565b93506129a08361293c565b8060005b838110156129d15781516129b8888261295b565b97506129c383612973565b9250506001810190506129a4565b5085935050505092915050565b600060208201905081810360008301526129f88184612980565b905092915050565b612a0981612610565b8114612a1457600080fd5b50565b600081359050612a2681612a00565b92915050565b60008060408385031215612a4357612a42612581565b5b6000612a51858286016126c5565b9250506020612a6285828601612a17565b9150509250929050565b600080fd5b600080fd5b7f4e487b7100000000000000000000000000000000000000000000000000000000600052604160045260246000fd5b612aae82612773565b810181811067ffffffffffffffff82111715612acd57612acc612a76565b5b80604052505050565b6000612ae0612577565b9050612aec8282612aa5565b919050565b600067ffffffffffffffff821115612b0c57612b0b612a76565b5b612b1582612773565b9050602081019050919050565b82818337600083830152505050565b6000612b44612b3f84612af1565b612ad6565b905082815260208101848484011115612b6057612b5f612a71565b5b612b6b848285612b22565b509392505050565b600082601f830112612b8857612b87612a6c565b5b8135612b98848260208601612b31565b91505092915050565b60008060008060808587031215612bbb57612bba612581565b5b6000612bc9878288016126c5565b9450506020612bda878288016126c5565b9350506040612beb87828801612667565b925050606085013567ffffffffffffffff811115612c0c57612c0b612586565b5b612c1887828801612b73565b91505092959194509250565b60008060408385031215612c3b57612c3a612581565b5b6000612c4985828601612667565b9250506020612c5a858286016126c5565b9150509250929050565b600080fd5b600080fd5b60008083601f840112612c8457612c83612a6c565b5b8235905067ffffffffffffffff811115612ca157612ca0612c64565b5b602083019150836001820283011115612cbd57612cbc612c69565b5b9250929050565b60008083601f840112612cda57612cd9612a6c565b5b8235905067ffffffffffffffff811115612cf757612cf6612c64565b5b602083019150836020820283011115612d1357612d12612c69565b5b9250929050565b600080600080600080600060a0888a031215612d3957612d38612581565b5b6000612d478a828b016126c5565b9750506020612d588a828b01612667565b9650506040612d698a828b01612667565b955050606088013567ffffffffffffffff811115612d8a57612d89612586565b5b612d968a828b01612c6e565b9450945050608088013567ffffffffffffffff811115612db957612db8612586565b5b612dc58a828b01612cc4565b925092505092959891949750929550565b60008060408385031215612ded57612dec612581565b5b6000612dfb858286016126c5565b9250506020612e0c858286016126c5565b9150509250929050565b7f546f6b656e2077697468207468697320696420646f6573206e6f742065786974600082015250565b6000612e4c602083612738565b9150612e5782612e16565b602082019050919050565b60006020820190508181036000830152612e7b81612e3f565b9050919050565b7f50617920616d6f756e74206973206e6f74207072696365206f662070726f6a6560008201527f6374000000000000000000000000000000000000000000000000000000000000602082015250565b6000612ede602283612738565b9150612ee982612e82565b604082019050919050565b60006020820190508181036000830152612f0d81612ed1565b9050919050565b7f4e487b7100000000000000000000000000000000000000000000000000000000600052601160045260246000fd5b6000612f4e82612646565b9150612f5983612646565b9250828203905081811115612f7157612f70612f14565b5b92915050565b6000612f8282612646565b9150612f8d83612646565b9250828202612f9b81612646565b91508282048414831517612fb257612fb1612f14565b5b5092915050565b7f4e487b7100000000000000000000000000000000000000000000000000000000600052601260045260246000fd5b6000612ff382612646565b9150612ffe83612646565b92508261300e5761300d612fb9565b5b828204905092915050565b7f4e487b7100000000000000000000000000000000000000000000000000000000600052603260045260246000fd5b600061305382612646565b91507fffffffffffffffffffffffffffffffffffffffffffffffffffffffffffffffff820361308557613084612f14565b5b600182019050919050565b7f4e487b7100000000000000000000000000000000000000000000000000000000600052602260045260246000fd5b600060028204905060018216806130d757607f821691505b6020821081036130ea576130e9613090565b5b50919050565b7f4552433732313a20617070726f76616c20746f2063757272656e74206f776e6560008201527f7200000000000000000000000000000000000000000000000000000000000000602082015250565b600061314c602183612738565b9150613157826130f0565b604082019050919050565b6000602082019050818103600083015261317b8161313f565b9050919050565b7f4552433732313a20617070726f76652063616c6c6572206973206e6f7420746f60008201527f6b656e206f776e6572206f7220617070726f76656420666f7220616c6c000000602082015250565b60006131de603d83612738565b91506131e982613182565b604082019050919050565b6000602082019050818103600083015261320d816131d1565b9050919050565b7f4552433732313a2063616c6c6572206973206e6f7420746f6b656e206f776e6560008201527f72206f7220617070726f76656400000000000000000000000000000000000000602082015250565b6000613270602d83612738565b915061327b82613214565b604082019050919050565b6000602082019050818103600083015261329f81613263565b9050919050565b7f4552433732313a20696e76616c696420746f6b656e2049440000000000000000600082015250565b60006132dc601883612738565b91506132e7826132a6565b602082019050919050565b6000602082019050818103600083015261330b816132cf565b9050919050565b7f4552433732313a2061646472657373207a65726f206973206e6f74206120766160008201527f6c6964206f776e65720000000000000000000000000000000000000000000000602082015250565b600061336e602983612738565b915061337982613312565b604082019050919050565b6000602082019050818103600083015261339d81613361565b9050919050565b60006133af82612646565b91506133ba83612646565b92508282019050808211156133d2576133d1612f14565b5b92915050565b600081905092915050565b60006133ee8261272d565b6133f881856133d8565b9350613408818560208601612749565b80840191505092915050565b600061342082856133e3565b915061342c82846133e3565b91508190509392505050565b600061344483856133d8565b9350613451838584612b22565b82840190509392505050565b600061346a828486613438565b91508190509392505050565b7f412070726f6a65637420776974682074686973206861736820616c726561647960008201527f2065786973747300000000000000000000000000000000000000000000000000602082015250565b60006134d2602783612738565b91506134dd82613476565b604082019050919050565b60006020820190508181036000830152613501816134c5565b9050919050565b7f436f6d706f6e656e74206973206e6f7420612076616c69642070726f6a656374600082015250565b600061353e602083612738565b915061354982613508565b602082019050919050565b6000602082019050818103600083015261356d81613531565b9050919050565b600082905092915050565b60008190508160005260206000209050919050565b60006020601f8301049050919050565b600082821b905092915050565b6000600883026135e17fffffffffffffffffffffffffffffffffffffffffffffffffffffffffffffffff826135a4565b6135eb86836135a4565b95508019841693508086168417925050509392505050565b6000819050919050565b600061362861362361361e84612646565b613603565b612646565b9050919050565b6000819050919050565b6136428361360d565b61365661364e8261362f565b8484546135b1565b825550505050565b600090565b61366b61365e565b613676818484613639565b505050565b5b8181101561369a5761368f600082613663565b60018101905061367c565b5050565b601f8211156136df576136b08161357f565b6136b984613594565b810160208510156136c8578190505b6136dc6136d485613594565b83018261367b565b50505b505050565b600082821c905092915050565b6000613702600019846008026136e4565b1980831691505092915050565b600061371b83836136f1565b9150826002028217905092915050565b6137358383613574565b67ffffffffffffffff81111561374e5761374d612a76565b5b61375882546130bf565b61376382828561369e565b6000601f8311600181146137925760008415613780578287013590505b61378a858261370f565b8655506137f2565b601f1984166137a08661357f565b60005b828110156137c8578489013582556001820191506020850194506020810190506137a3565b868310156137e557848901356137e1601f8916826136f1565b8355505b6001600288020188555050505b50505050505050565b7f4552433732313a207472616e736665722066726f6d20696e636f72726563742060008201527f6f776e6572000000000000000000000000000000000000000000000000000000602082015250565b6000613857602583612738565b9150613862826137fb565b604082019050919050565b600060208201905081810360008301526138868161384a565b9050919050565b7f4552433732313a207472616e7366657220746f20746865207a65726f2061646460008201527f7265737300000000000000000000000000000000000000000000000000000000602082015250565b60006138e9602483612738565b91506138f48261388d565b604082019050919050565b60006020820190508181036000830152613918816138dc565b9050919050565b7f4552433732313a20617070726f766520746f2063616c6c657200000000000000600082015250565b6000613955601983612738565b91506139608261391f565b602082019050919050565b6000602082019050818103600083015261398481613948565b9050919050565b7f4552433732313a207472616e7366657220746f206e6f6e20455243373231526560008201527f63656976657220696d706c656d656e7465720000000000000000000000000000602082015250565b60006139e7603283612738565b91506139f28261398b565b604082019050919050565b60006020820190508181036000830152613a16816139da565b9050919050565b7f4552433732313a206d696e7420746f20746865207a65726f2061646472657373600082015250565b6000613a53602083612738565b9150613a5e82613a1d565b602082019050919050565b60006020820190508181036000830152613a8281613a46565b9050919050565b7f4552433732313a20746f6b656e20616c7265616479206d696e74656400000000600082015250565b6000613abf601c83612738565b9150613aca82613a89565b602082019050919050565b60006020820190508181036000830152613aee81613ab2565b9050919050565b7f45524337323155524953746f726167653a2055524920736574206f66206e6f6e60008201527f6578697374656e7420746f6b656e000000000000000000000000000000000000602082015250565b6000613b51602e83612738565b9150613b5c82613af5565b604082019050919050565b60006020820190508181036000830152613b8081613b44565b9050919050565b613b908261272d565b67ffffffffffffffff811115613ba957613ba8612a76565b5b613bb382546130bf565b613bbe82828561369e565b600060209050601f831160018114613bf15760008415613bdf578287015190505b613be9858261370f565b865550613c51565b601f198416613bff8661357f565b60005b82811015613c2757848901518255600182019150602085019450602081019050613c02565b86831015613c445784890151613c40601f8916826136f1565b8355505b6001600288020188555050505b505050505050565b600081519050919050565b600082825260208201905092915050565b6000613c8082613c59565b613c8a8185613c64565b9350613c9a818560208601612749565b613ca381612773565b840191505092915050565b6000608082019050613cc3600083018761280c565b613cd0602083018661280c565b613cdd60408301856128f6565b8181036060830152613cef8184613c75565b905095945050505050565b600081519050613d09816125b7565b92915050565b600060208284031215613d2557613d24612581565b5b6000613d3384828501613cfa565b9150509291505056fea2646970667358221220c3bee1a3a65291e661325197cf4ca591cb91ea1f7c586dca7f073da0fa83bd0664736f6c63430008130033",
  "immutableReferences": {},
  "source": "// SPDX-License-Identifier: MIT\npragma solidity ^0.8.18;\n\nimport '@openzeppelin/contracts/utils/Counters.sol';\nimport '@openzeppelin/contracts/token/ERC721/ERC721.sol';\nimport '@openzeppelin/contracts/token/ERC721/extensions/ERC721URIStorage.sol';\n\ncontract ProjectNFT is ERC721URIStorage {\n  uint256 public tokenCounter;\n  address payable pluginAddress; //where to pay commissions\n\n  // Maps tokenId to project's price\n  mapping(uint256 => uint256) private _tokenIdToPrice;\n\n  // Maps tokenId to royalty price\n  mapping(uint256 => uint256) private _tokenIdToRoyaltyPrice;\n\n  // Maps tokenId to hash of project\n  mapping(uint256 => string) private _tokenIdToHash;\n\n  // Maps tokenId to list of components of project\n  mapping(uint256 => uint256[]) private _tokenIdToComponents;\n\n  // Map to check hashes are unique\n  mapping(string => bool) private _hashes;\n\n  constructor(address payable _pluginAddress) ERC721('DesignerNFT', 'DNFT') {\n    pluginAddress = _pluginAddress;\n    tokenCounter = 1;\n  }\n\n  function mintToken(\n    address sender,\n    uint256 price,\n    uint256 royaltyPrice,\n    string calldata projectHash,\n    uint256[] calldata components\n  ) public returns (uint256) {\n    // Check NFT parameters:\n    \n    // Check hash is unique\n    require(!_hashes[projectHash], 'A project with this hash already exists');\n\n    // Check components exists\n    for (uint i = 0; i < components.length; i++) {\n      require(components[i] < tokenCounter, 'Component is not a valid project');\n    }\n    \n    // Get NFT id\n    uint256 newItemId = tokenCounter;\n\n    // Mint new token (openzeppelin)\n    _mint(sender, newItemId);\n\n    // Build uri from base + tokenId\n    string memory baseUri = \"localhost:3000/nfts/\";\n    string memory uri = string.concat(baseUri, Strings.toString(newItemId));\n    _setTokenURI(newItemId, uri);\n\n    // Set NFT parameters\n    _tokenIdToPrice[newItemId] = price;\n    _tokenIdToRoyaltyPrice[newItemId] = royaltyPrice;\n    _tokenIdToHash[newItemId] = projectHash;\n    _hashes[projectHash] = true;\n    _tokenIdToComponents[newItemId] = components;\n\n    // Increment token counter\n    tokenCounter = tokenCounter + 1;\n\n    return newItemId;\n  }\n\n  function getTokenPrice(uint256 tokenId) public view returns (uint256) {\n    require(tokenId < tokenCounter, 'Token with this id does not exit');\n    return _tokenIdToPrice[tokenId];\n  }\n\n  function getTokenRoyaltyPrice(uint256 tokenId) public view returns (uint256) {\n    require(tokenId < tokenCounter, 'Token with this id does not exit');\n    return _tokenIdToRoyaltyPrice[tokenId];\n  }\n\n  /*\n  //OBSOLETED to avoid to pay if sender is also owner\n  //assuming all the subcomponents already present in the project given (maybe is the best idea)\n  function getTokenBuyPrice(uint256 tokenId) public view returns (uint256) {\n    require(tokenId < tokenCounter, 'Token with this id does not exit');\n\n    // Return token buy price plus royalties of all its components\n    uint256 total = 0;\n    total = total + _tokenIdToPrice[tokenId];\n    for (uint256 i=0; i < _tokenIdToComponents[tokenId].length; i++) {\n      total = total + _tokenIdToPrice[_tokenIdToComponents[tokenId][i]];\n    }\n    return total;\n  } */\n\n  function getTokenBuyPrice(uint256 tokenId, address buyerProject) public view returns (uint256) {\n    require(tokenId < tokenCounter, 'Token with this id does not exit');\n    \n    uint256 amount;\n    if(buyerProject==ownerOf(tokenId)){ //buyer and token owner are the same\n      amount = 0;\n    } else {\n      amount = getTokenPrice(tokenId);\n      amount = amount + (getTokenPrice(tokenId)*5/100); //commissions\n    }\n\n    for (uint256 i=0; i < _tokenIdToComponents[tokenId].length; i++) {\n      uint256 componentTokenId = _tokenIdToComponents[tokenId][i];\n\n      if(buyerProject != ownerOf(componentTokenId)){ //buyer and component owner are NOT the same\n        amount = amount + _tokenIdToRoyaltyPrice[componentTokenId];\n        amount = amount + (_tokenIdToRoyaltyPrice[componentTokenId]*5/100); //commissions\n      }\n    }\n\n    return amount;\n  }\n\n  function getProjectHash(uint256 tokenId) public view returns (string memory) {\n    require(tokenId < tokenCounter, 'Token with this id does not exit');\n    return _tokenIdToHash[tokenId];\n  }\n\n  function getTokenComponents(uint256 tokenId) public view returns (uint256[] memory) {\n    require(tokenId < tokenCounter, 'Token with this id does not exit');\n    return _tokenIdToComponents[tokenId];\n  }\n\n  function transferPayment(uint256 tokenId, uint256 amount, address buyerProject) public {\n    require(tokenId < tokenCounter, 'Token with this id does not exit');\n\n    uint256 amountToPay = getTokenBuyPrice(tokenId,buyerProject);\n    require(amount == amountToPay, 'Pay amount is not price of project');\n\n    address payable owner = payable(ownerOf(tokenId));\n\n    if(buyerProject != owner){\n      owner.transfer(_tokenIdToPrice[tokenId]);\n      amount = amount - _tokenIdToPrice[tokenId];\n\n      pluginAddress.transfer(_tokenIdToPrice[tokenId]*5/100); //commissions\n      amount = amount - (_tokenIdToPrice[tokenId]*5/100);\n    }\n\n    for (uint256 i=0; i < _tokenIdToComponents[tokenId].length; i++) {\n      uint256 componentTokenId = _tokenIdToComponents[tokenId][i];\n      address payable componentOwner = payable(ownerOf(componentTokenId));\n\n      if(buyerProject != componentOwner){\n        componentOwner.transfer(_tokenIdToRoyaltyPrice[componentTokenId]);\n        amount = amount - _tokenIdToRoyaltyPrice[componentTokenId];\n\n        pluginAddress.transfer(_tokenIdToRoyaltyPrice[componentTokenId]*5/100);\n        amount = amount - (_tokenIdToRoyaltyPrice[componentTokenId]*5/100);\n      }\n    }\n  }\n\n}",
  "sourcePath": "/home/matteo/Projects/Uni/blockchain-project/contracts/ProjectNFT.sol",
  "compiler": {
    "name": "solc",
    "version": "0.8.19+commit.7dd6d404.Emscripten.clang"
  },
  "schemaVersion": "3.4.13",
  "updatedAt": "2023-06-27T12:36:15.960Z",
  "networkType": "ethereum",
  "devdoc": {
    "events": {
      "Approval(address,address,uint256)": {
        "details": "Emitted when `owner` enables `approved` to manage the `tokenId` token."
      },
      "ApprovalForAll(address,address,bool)": {
        "details": "Emitted when `owner` enables or disables (`approved`) `operator` to manage all of its assets."
      },
      "BatchMetadataUpdate(uint256,uint256)": {
        "details": "This event emits when the metadata of a range of tokens is changed. So that the third-party platforms such as NFT market could timely update the images and related attributes of the NFTs."
      },
      "MetadataUpdate(uint256)": {
        "details": "This event emits when the metadata of a token is changed. So that the third-party platforms such as NFT market could timely update the images and related attributes of the NFT."
      },
      "Transfer(address,address,uint256)": {
        "details": "Emitted when `tokenId` token is transferred from `from` to `to`."
      }
    },
    "kind": "dev",
    "methods": {
      "approve(address,uint256)": {
        "details": "See {IERC721-approve}."
      },
      "balanceOf(address)": {
        "details": "See {IERC721-balanceOf}."
      },
      "getApproved(uint256)": {
        "details": "See {IERC721-getApproved}."
      },
      "isApprovedForAll(address,address)": {
        "details": "See {IERC721-isApprovedForAll}."
      },
      "name()": {
        "details": "See {IERC721Metadata-name}."
      },
      "ownerOf(uint256)": {
        "details": "See {IERC721-ownerOf}."
      },
      "safeTransferFrom(address,address,uint256)": {
        "details": "See {IERC721-safeTransferFrom}."
      },
      "safeTransferFrom(address,address,uint256,bytes)": {
        "details": "See {IERC721-safeTransferFrom}."
      },
      "setApprovalForAll(address,bool)": {
        "details": "See {IERC721-setApprovalForAll}."
      },
      "supportsInterface(bytes4)": {
        "details": "See {IERC165-supportsInterface}"
      },
      "symbol()": {
        "details": "See {IERC721Metadata-symbol}."
      },
      "tokenURI(uint256)": {
        "details": "See {IERC721Metadata-tokenURI}."
      },
      "transferFrom(address,address,uint256)": {
        "details": "See {IERC721-transferFrom}."
      }
    },
    "version": 1
  },
  "userdoc": {
    "kind": "user",
    "methods": {},
    "version": 1
  }
}