{
  "contractName": "ProjectNFT",
  "abi": [
    {
      "inputs": [
        {
          "internalType": "address payable",
          "name": "platformAddress",
          "type": "address"
        },
        {
          "internalType": "string",
          "name": "host_machine_ip",
          "type": "string"
        },
        {
          "internalType": "address",
          "name": "oracle",
          "type": "address"
        },
        {
          "internalType": "string",
          "name": "jobId_1",
          "type": "string"
        },
        {
          "internalType": "string",
          "name": "jobId_2",
          "type": "string"
        }
      ],
      "stateMutability": "nonpayable",
      "type": "constructor"
    },
    {
      "anonymous": false,
      "inputs": [
        {
          "indexed": true,
          "internalType": "address",
          "name": "owner",
          "type": "address"
        },
        {
          "indexed": true,
          "internalType": "address",
          "name": "approved",
          "type": "address"
        },
        {
          "indexed": true,
          "internalType": "uint256",
          "name": "tokenId",
          "type": "uint256"
        }
      ],
      "name": "Approval",
      "type": "event"
    },
    {
      "anonymous": false,
      "inputs": [
        {
          "indexed": true,
          "internalType": "address",
          "name": "owner",
          "type": "address"
        },
        {
          "indexed": true,
          "internalType": "address",
          "name": "operator",
          "type": "address"
        },
        {
          "indexed": false,
          "internalType": "bool",
          "name": "approved",
          "type": "bool"
        }
      ],
      "name": "ApprovalForAll",
      "type": "event"
    },
    {
      "anonymous": false,
      "inputs": [
        {
          "indexed": false,
          "internalType": "uint256",
          "name": "_fromTokenId",
          "type": "uint256"
        },
        {
          "indexed": false,
          "internalType": "uint256",
          "name": "_toTokenId",
          "type": "uint256"
        }
      ],
      "name": "BatchMetadataUpdate",
      "type": "event"
    },
    {
      "anonymous": false,
      "inputs": [
        {
          "indexed": true,
          "internalType": "bytes32",
          "name": "id",
          "type": "bytes32"
        }
      ],
      "name": "ChainlinkCancelled",
      "type": "event"
    },
    {
      "anonymous": false,
      "inputs": [
        {
          "indexed": true,
          "internalType": "bytes32",
          "name": "id",
          "type": "bytes32"
        }
      ],
      "name": "ChainlinkFulfilled",
      "type": "event"
    },
    {
      "anonymous": false,
      "inputs": [
        {
          "indexed": true,
          "internalType": "bytes32",
          "name": "id",
          "type": "bytes32"
        }
      ],
      "name": "ChainlinkRequested",
      "type": "event"
    },
    {
      "anonymous": false,
      "inputs": [
        {
          "indexed": false,
          "internalType": "uint256",
          "name": "_tokenId",
          "type": "uint256"
        }
      ],
      "name": "MetadataUpdate",
      "type": "event"
    },
    {
      "anonymous": false,
      "inputs": [
        {
          "indexed": true,
          "internalType": "address",
          "name": "from",
          "type": "address"
        },
        {
          "indexed": true,
          "internalType": "address",
          "name": "to",
          "type": "address"
        }
      ],
      "name": "OwnershipTransferRequested",
      "type": "event"
    },
    {
      "anonymous": false,
      "inputs": [
        {
          "indexed": true,
          "internalType": "address",
          "name": "from",
          "type": "address"
        },
        {
          "indexed": true,
          "internalType": "address",
          "name": "to",
          "type": "address"
        }
      ],
      "name": "OwnershipTransferred",
      "type": "event"
    },
    {
      "anonymous": false,
      "inputs": [
        {
          "indexed": true,
          "internalType": "uint256",
          "name": "tokenId",
          "type": "uint256"
        },
        {
          "indexed": false,
          "internalType": "string",
          "name": "success",
          "type": "string"
        }
      ],
      "name": "RequestConfirmMintingFulfilled",
      "type": "event"
    },
    {
      "anonymous": false,
      "inputs": [
        {
          "indexed": true,
          "internalType": "uint256",
          "name": "tokenId",
          "type": "uint256"
        },
        {
          "indexed": false,
          "internalType": "string",
          "name": "success",
          "type": "string"
        }
      ],
      "name": "RequestUpdateFulfilled",
      "type": "event"
    },
    {
      "anonymous": false,
      "inputs": [
        {
          "indexed": true,
          "internalType": "address",
          "name": "from",
          "type": "address"
        },
        {
          "indexed": true,
          "internalType": "address",
          "name": "to",
          "type": "address"
        },
        {
          "indexed": true,
          "internalType": "uint256",
          "name": "tokenId",
          "type": "uint256"
        }
      ],
      "name": "Transfer",
      "type": "event"
    },
    {
      "inputs": [],
      "name": "_base_url_1",
      "outputs": [
        {
          "internalType": "string",
          "name": "",
          "type": "string"
        }
      ],
      "stateMutability": "view",
      "type": "function"
    },
    {
      "inputs": [],
      "name": "_base_url_2",
      "outputs": [
        {
          "internalType": "string",
          "name": "",
          "type": "string"
        }
      ],
      "stateMutability": "view",
      "type": "function"
    },
    {
      "inputs": [],
      "name": "acceptOwnership",
      "outputs": [],
      "stateMutability": "nonpayable",
      "type": "function"
    },
    {
      "inputs": [
        {
          "internalType": "address",
          "name": "to",
          "type": "address"
        },
        {
          "internalType": "uint256",
          "name": "tokenId",
          "type": "uint256"
        }
      ],
      "name": "approve",
      "outputs": [],
      "stateMutability": "nonpayable",
      "type": "function"
    },
    {
      "inputs": [
        {
          "internalType": "address",
          "name": "owner",
          "type": "address"
        }
      ],
      "name": "balanceOf",
      "outputs": [
        {
          "internalType": "uint256",
          "name": "",
          "type": "uint256"
        }
      ],
      "stateMutability": "view",
      "type": "function"
    },
    {
      "inputs": [
        {
          "internalType": "bytes32",
          "name": "_requestId",
          "type": "bytes32"
        },
        {
          "internalType": "uint256",
          "name": "_payment",
          "type": "uint256"
        },
        {
          "internalType": "bytes4",
          "name": "_callbackFunctionId",
          "type": "bytes4"
        },
        {
          "internalType": "uint256",
          "name": "_expiration",
          "type": "uint256"
        }
      ],
      "name": "cancelRequest",
      "outputs": [],
      "stateMutability": "nonpayable",
      "type": "function"
    },
    {
      "inputs": [
        {
          "internalType": "bytes32",
          "name": "_requestId",
          "type": "bytes32"
        },
        {
          "internalType": "uint256",
          "name": "_tokenId",
          "type": "uint256"
        },
        {
          "internalType": "string",
          "name": "_success",
          "type": "string"
        }
      ],
      "name": "fulfillConfirmMinting",
      "outputs": [],
      "stateMutability": "nonpayable",
      "type": "function"
    },
    {
      "inputs": [
        {
          "internalType": "bytes32",
          "name": "_requestId",
          "type": "bytes32"
        },
        {
          "internalType": "uint256",
          "name": "_tokenId",
          "type": "uint256"
        },
        {
          "internalType": "string",
          "name": "_success",
          "type": "string"
        }
      ],
      "name": "fulfillRequestUpdate",
      "outputs": [],
      "stateMutability": "nonpayable",
      "type": "function"
    },
    {
      "inputs": [
        {
          "internalType": "uint256",
          "name": "tokenId",
          "type": "uint256"
        }
      ],
      "name": "getApproved",
      "outputs": [
        {
          "internalType": "address",
          "name": "",
          "type": "address"
        }
      ],
      "stateMutability": "view",
      "type": "function"
    },
    {
      "inputs": [],
      "name": "getChainlinkToken",
      "outputs": [
        {
          "internalType": "address",
          "name": "",
          "type": "address"
        }
      ],
      "stateMutability": "view",
      "type": "function"
    },
    {
      "inputs": [
        {
          "internalType": "address",
          "name": "owner",
          "type": "address"
        },
        {
          "internalType": "address",
          "name": "operator",
          "type": "address"
        }
      ],
      "name": "isApprovedForAll",
      "outputs": [
        {
          "internalType": "bool",
          "name": "",
          "type": "bool"
        }
      ],
      "stateMutability": "view",
      "type": "function"
    },
    {
      "inputs": [],
      "name": "name",
      "outputs": [
        {
          "internalType": "string",
          "name": "",
          "type": "string"
        }
      ],
      "stateMutability": "view",
      "type": "function"
    },
    {
      "inputs": [],
      "name": "owner",
      "outputs": [
        {
          "internalType": "address",
          "name": "",
          "type": "address"
        }
      ],
      "stateMutability": "view",
      "type": "function"
    },
    {
      "inputs": [
        {
          "internalType": "uint256",
          "name": "tokenId",
          "type": "uint256"
        }
      ],
      "name": "ownerOf",
      "outputs": [
        {
          "internalType": "address",
          "name": "",
          "type": "address"
        }
      ],
      "stateMutability": "view",
      "type": "function"
    },
    {
      "inputs": [
        {
          "internalType": "uint256",
          "name": "_tokenId",
          "type": "uint256"
        },
        {
          "internalType": "string",
          "name": "_key",
          "type": "string"
        },
        {
          "internalType": "address",
          "name": "_assignee",
          "type": "address"
        }
      ],
      "name": "requestUpdate",
      "outputs": [],
      "stateMutability": "nonpayable",
      "type": "function"
    },
    {
      "inputs": [
        {
          "internalType": "address",
          "name": "from",
          "type": "address"
        },
        {
          "internalType": "address",
          "name": "to",
          "type": "address"
        },
        {
          "internalType": "uint256",
          "name": "tokenId",
          "type": "uint256"
        }
      ],
      "name": "safeTransferFrom",
      "outputs": [],
      "stateMutability": "nonpayable",
      "type": "function"
    },
    {
      "inputs": [
        {
          "internalType": "address",
          "name": "from",
          "type": "address"
        },
        {
          "internalType": "address",
          "name": "to",
          "type": "address"
        },
        {
          "internalType": "uint256",
          "name": "tokenId",
          "type": "uint256"
        },
        {
          "internalType": "bytes",
          "name": "data",
          "type": "bytes"
        }
      ],
      "name": "safeTransferFrom",
      "outputs": [],
      "stateMutability": "nonpayable",
      "type": "function"
    },
    {
      "inputs": [
        {
          "internalType": "address",
          "name": "operator",
          "type": "address"
        },
        {
          "internalType": "bool",
          "name": "approved",
          "type": "bool"
        }
      ],
      "name": "setApprovalForAll",
      "outputs": [],
      "stateMutability": "nonpayable",
      "type": "function"
    },
    {
      "inputs": [
        {
          "internalType": "bytes4",
          "name": "interfaceId",
          "type": "bytes4"
        }
      ],
      "name": "supportsInterface",
      "outputs": [
        {
          "internalType": "bool",
          "name": "",
          "type": "bool"
        }
      ],
      "stateMutability": "view",
      "type": "function"
    },
    {
      "inputs": [],
      "name": "symbol",
      "outputs": [
        {
          "internalType": "string",
          "name": "",
          "type": "string"
        }
      ],
      "stateMutability": "view",
      "type": "function"
    },
    {
      "inputs": [
        {
          "internalType": "uint256",
          "name": "tokenId",
          "type": "uint256"
        }
      ],
      "name": "tokenURI",
      "outputs": [
        {
          "internalType": "string",
          "name": "",
          "type": "string"
        }
      ],
      "stateMutability": "view",
      "type": "function"
    },
    {
      "inputs": [
        {
          "internalType": "address",
          "name": "from",
          "type": "address"
        },
        {
          "internalType": "address",
          "name": "to",
          "type": "address"
        },
        {
          "internalType": "uint256",
          "name": "tokenId",
          "type": "uint256"
        }
      ],
      "name": "transferFrom",
      "outputs": [],
      "stateMutability": "nonpayable",
      "type": "function"
    },
    {
      "inputs": [
        {
          "internalType": "address",
          "name": "to",
          "type": "address"
        }
      ],
      "name": "transferOwnership",
      "outputs": [],
      "stateMutability": "nonpayable",
      "type": "function"
    },
    {
      "inputs": [],
      "name": "withdrawLink",
      "outputs": [],
      "stateMutability": "nonpayable",
      "type": "function"
    },
    {
      "inputs": [
        {
          "internalType": "address",
          "name": "sender",
          "type": "address"
        },
        {
          "internalType": "uint256",
          "name": "price",
          "type": "uint256"
        },
        {
          "internalType": "uint256",
          "name": "royaltyPrice",
          "type": "uint256"
        },
        {
          "internalType": "string",
          "name": "projectHash",
          "type": "string"
        },
        {
          "internalType": "uint256[]",
          "name": "components",
          "type": "uint256[]"
        }
      ],
      "name": "mintToken",
      "outputs": [
        {
          "internalType": "uint256",
          "name": "",
          "type": "uint256"
        }
      ],
      "stateMutability": "nonpayable",
      "type": "function"
    },
    {
      "inputs": [
        {
          "internalType": "uint256",
          "name": "tokenId",
          "type": "uint256"
        }
      ],
      "name": "getTokenPrice",
      "outputs": [
        {
          "internalType": "uint256",
          "name": "",
          "type": "uint256"
        }
      ],
      "stateMutability": "view",
      "type": "function"
    },
    {
      "inputs": [
        {
          "internalType": "uint256",
          "name": "tokenId",
          "type": "uint256"
        }
      ],
      "name": "getTokenRoyaltyPrice",
      "outputs": [
        {
          "internalType": "uint256",
          "name": "",
          "type": "uint256"
        }
      ],
      "stateMutability": "view",
      "type": "function"
    },
    {
      "inputs": [
        {
          "internalType": "uint256",
          "name": "tokenId",
          "type": "uint256"
        }
      ],
      "name": "getProjectHash",
      "outputs": [
        {
          "internalType": "string",
          "name": "",
          "type": "string"
        }
      ],
      "stateMutability": "view",
      "type": "function"
    },
    {
      "inputs": [
        {
          "internalType": "uint256",
          "name": "tokenId",
          "type": "uint256"
        }
      ],
      "name": "getTokenComponents",
      "outputs": [
        {
          "internalType": "uint256[]",
          "name": "",
          "type": "uint256[]"
        }
      ],
      "stateMutability": "view",
      "type": "function"
    },
    {
      "inputs": [
        {
          "internalType": "uint256",
          "name": "tokenId",
          "type": "uint256"
        },
        {
          "internalType": "address",
          "name": "buyerProject",
          "type": "address"
        }
      ],
      "name": "getTokenBuyPrice",
      "outputs": [
        {
          "internalType": "uint256",
          "name": "",
          "type": "uint256"
        }
      ],
      "stateMutability": "view",
      "type": "function"
    },
    {
      "inputs": [
        {
          "internalType": "uint256",
          "name": "tokenId",
          "type": "uint256"
        },
        {
          "internalType": "uint256",
          "name": "amount",
          "type": "uint256"
        },
        {
          "internalType": "address",
          "name": "buyerProject",
          "type": "address"
        }
      ],
      "name": "transferPayment",
      "outputs": [],
      "stateMutability": "nonpayable",
      "type": "function"
    }
  ],
  "bytecode": "0x6001600b5560c06040526007608090815266687474703a2f2f60c81b60a052600f906200002d9082620003a4565b506040805180820190915260128152713a333030302f6170692f76312f6e6674732f60701b6020820152601090620000669082620003a4565b503480156200007457600080fd5b5060405162003eca38038062003eca833981016040819052620000979162000538565b83838383338060006040518060400160405280600a815260200169141c9bda9958dd13919560b21b815250604051806040016040528060048152602001631413919560e21b8152508160009081620000f09190620003a4565b506001620000ff8282620003a4565b5050506001600160a01b0382166200015e5760405162461bcd60e51b815260206004820152601860248201527f43616e6e6f7420736574206f776e657220746f207a65726f000000000000000060448201526064015b60405180910390fd5b600d80546001600160a01b0319166001600160a01b03848116919091179091558116156200019157620001918162000231565b505050620001b973779877a7b0d9e8603169ddbd7836e478b4624789620002dd60201b60201c565b6011620001c78582620003a4565b50601280546001600160a01b0319166001600160a01b0385161790556013620001f18382620003a4565b506014620002008282620003a4565b5050601680546001600160a01b0319166001600160a01b03999099169890981790975550620005f595505050505050565b336001600160a01b038216036200028b5760405162461bcd60e51b815260206004820152601760248201527f43616e6e6f74207472616e7366657220746f2073656c66000000000000000000604482015260640162000155565b600e80546001600160a01b0319166001600160a01b03838116918217909255600d54604051919216907fed8889f560326eb138920d842192f0eb3dd22b4f139c87a2c57538e05bae127890600090a350565b600980546001600160a01b0319166001600160a01b0392909216919091179055565b634e487b7160e01b600052604160045260246000fd5b600181811c908216806200032a57607f821691505b6020821081036200034b57634e487b7160e01b600052602260045260246000fd5b50919050565b601f8211156200039f57600081815260208120601f850160051c810160208610156200037a5750805b601f850160051c820191505b818110156200039b5782815560010162000386565b5050505b505050565b81516001600160401b03811115620003c057620003c0620002ff565b620003d881620003d1845462000315565b8462000351565b602080601f831160018114620004105760008415620003f75750858301515b600019600386901b1c1916600185901b1785556200039b565b600085815260208120601f198616915b82811015620004415788860151825594840194600190910190840162000420565b5085821015620004605787850151600019600388901b60f8161c191681555b5050505050600190811b01905550565b6001600160a01b03811681146200048657600080fd5b50565b600082601f8301126200049b57600080fd5b81516001600160401b0380821115620004b857620004b8620002ff565b604051601f8301601f19908116603f01168101908282118183101715620004e357620004e3620002ff565b816040528381526020925086838588010111156200050057600080fd5b600091505b8382101562000524578582018301518183018401529082019062000505565b600093810190920192909252949350505050565b600080600080600060a086880312156200055157600080fd5b85516200055e8162000470565b60208701519095506001600160401b03808211156200057c57600080fd5b6200058a89838a0162000489565b9550604088015191506200059e8262000470565b606088015191945080821115620005b457600080fd5b620005c289838a0162000489565b93506080880151915080821115620005d957600080fd5b50620005e88882890162000489565b9150509295509295909350565b6138c580620006056000396000f3fe608060405234801561001057600080fd5b50600436106101755760003560e01c806301ffc9a71461017a5780630396e210146101a257806306fdde03146101b7578063081812fc146101cc578063095ea7b3146101ec578063118c66c7146101ff578063165d35e11461021257806323b872dd1461021a57806342842e0e1461022d57806351bb446f146102405780636352211e1461024857806370a082311461025b57806379ba50971461027c5780637d8eeac9146102845780638da5cb5b1461028c5780638dc654a21461029d57806395d89b41146102a5578063a082dfc2146102ad578063a22cb465146102cd578063b88d4fde146102e0578063c16849fc146102f3578063c317058014610306578063c457fb3714610319578063c739acb01461032c578063c87b56dd1461033f578063cb9d741514610352578063e29a5e8e14610365578063e985e9c514610378578063ec65d0f81461038b578063f2fde38b1461039e578063f3ebb3f1146103b1575b600080fd5b61018d610188366004612b7b565b6103c4565b60405190151581526020015b60405180910390f35b6101b56101b0366004612bb4565b6103ef565b005b6101bf610711565b6040516101999190612c39565b6101df6101da366004612c4c565b6107a3565b6040516101999190612c65565b6101b56101fa366004612c79565b6107ca565b6101bf61020d366004612c4c565b6108df565b6101df61098b565b6101b5610228366004612ca3565b61099a565b6101b561023b366004612ca3565b6109cb565b6101bf6109e6565b6101df610256366004612c4c565b610a74565b61026e610269366004612cdf565b610aa8565b604051908152602001610199565b6101b5610b2e565b6101bf610bdc565b600d546001600160a01b03166101df565b6101b5610be9565b6101bf610d2d565b6102c06102bb366004612c4c565b610d3c565b6040516101999190612cfa565b6101b56102db366004612d4c565b610da9565b6101b56102ee366004612e0e565b610db8565b61026e610301366004612e89565b610df0565b6101b5610314366004612ed5565b610f3c565b61026e610327366004612c4c565b610fe3565b61026e61033a366004612c4c565b611001565b6101bf61034d366004612c4c565b611022565b61026e610360366004612f6f565b611132565b6101b5610373366004613030565b6113fa565b61018d61038636600461307d565b6116a3565b6101b56103993660046130a7565b6116d1565b6101b56103ac366004612cdf565b6116e5565b6101b56103bf366004612ed5565b6116f6565b60006001600160e01b03198216632483248360e11b14806103e957506103e98261178f565b92915050565b6103f8836117df565b60006104048483610df0565b9050808310156104665760405162461bcd60e51b815260206004820152602260248201527f50617920616d6f756e74206973206e6f74207072696365206f662070726f6a6560448201526118dd60f21b60648201526084015b60405180910390fd5b600061047185610a74565b9050806001600160a01b0316836001600160a01b031614610581576000858152601760205260408082205490516001600160a01b0384169282156108fc02929190818181858888f193505050501580156104cf573d6000803e3d6000fd5b506000858152601760205260409020546104e990856130fc565b6016546000878152601760205260409020549195506001600160a01b0316906108fc9060649061051a90600561310f565b610524919061313c565b6040518115909202916000818181858888f1935050505015801561054c573d6000803e3d6000fd5b5060008581526017602052604090205460649061056a90600561310f565b610574919061313c565b61057e90856130fc565b93505b60005b6000868152601760205260409020600301548110156107095760008681526017602052604081206003018054839081106105c0576105c0613150565b9060005260206000200154905060006105d882610a74565b9050806001600160a01b0316866001600160a01b0316146106f4576000828152601760205260408082206001015490516001600160a01b0384169282156108fc02929190818181858888f19350505050158015610639573d6000803e3d6000fd5b5060008281526017602052604090206001015461065690886130fc565b6016546000848152601760205260409020600101549198506001600160a01b0316906108fc9060649061068a90600561310f565b610694919061313c565b6040518115909202916000818181858888f193505050501580156106bc573d6000803e3d6000fd5b506000828152601760205260409020600101546064906106dd90600561310f565b6106e7919061313c565b6106f190886130fc565b96505b5050808061070190613166565b915050610584565b505050505050565b6060600080546107209061317f565b80601f016020809104026020016040519081016040528092919081815260200182805461074c9061317f565b80156107995780601f1061076e57610100808354040283529160200191610799565b820191906000526020600020905b81548152906001019060200180831161077c57829003601f168201915b5050505050905090565b60006107ae8261182b565b506000908152600460205260409020546001600160a01b031690565b60006107d582610a74565b9050806001600160a01b0316836001600160a01b0316036108425760405162461bcd60e51b815260206004820152602160248201527f4552433732313a20617070726f76616c20746f2063757272656e74206f776e656044820152603960f91b606482015260840161045d565b336001600160a01b038216148061085e575061085e81336116a3565b6108d05760405162461bcd60e51b815260206004820152603d60248201527f4552433732313a20617070726f76652063616c6c6572206973206e6f7420746f60448201527f6b656e206f776e6572206f7220617070726f76656420666f7220616c6c000000606482015260840161045d565b6108da8383611850565b505050565b60606108ea826117df565b600082815260176020526040902060020180546109069061317f565b80601f01602080910402602001604051908101604052809291908181526020018280546109329061317f565b801561097f5780601f106109545761010080835404028352916020019161097f565b820191906000526020600020905b81548152906001019060200180831161096257829003601f168201915b50505050509050919050565b60006109956118be565b905090565b6109a433826118cd565b6109c05760405162461bcd60e51b815260040161045d906131b3565b6108da83838361192b565b6108da83838360405180602001604052806000815250610db8565b601080546109f39061317f565b80601f0160208091040260200160405190810160405280929190818152602001828054610a1f9061317f565b8015610a6c5780601f10610a4157610100808354040283529160200191610a6c565b820191906000526020600020905b815481529060010190602001808311610a4f57829003601f168201915b505050505081565b600080610a8083611a7d565b90506001600160a01b0381166103e95760405162461bcd60e51b815260040161045d90613200565b60006001600160a01b038216610b125760405162461bcd60e51b815260206004820152602960248201527f4552433732313a2061646472657373207a65726f206973206e6f7420612076616044820152683634b21037bbb732b960b91b606482015260840161045d565b506001600160a01b031660009081526003602052604090205490565b600e546001600160a01b03163314610b815760405162461bcd60e51b815260206004820152601660248201527526bab9ba10313290383937b837b9b2b21037bbb732b960511b604482015260640161045d565b600d80546001600160a01b031980821633908117909355600e805490911690556040516001600160a01b03909116919082907f8be0079c531659141344cd1fd0a4f28419497f9722a3daafe3b4186f6b6457e090600090a350565b600f80546109f39061317f565b610bf1611a98565b6000610bfb6118be565b9050806001600160a01b031663a9059cbb33836001600160a01b03166370a08231306040518263ffffffff1660e01b8152600401610c399190612c65565b602060405180830381865afa158015610c56573d6000803e3d6000fd5b505050506040513d601f19601f82011682018060405250810190610c7a9190613232565b6040516001600160e01b031960e085901b1681526001600160a01b03909216600483015260248201526044016020604051808303816000875af1158015610cc5573d6000803e3d6000fd5b505050506040513d601f19601f82011682018060405250810190610ce9919061324b565b610d2a5760405162461bcd60e51b81526020600482015260126024820152712ab730b13632903a37903a3930b739b332b960711b604482015260640161045d565b50565b6060600180546107209061317f565b6060610d47826117df565b6000828152601760209081526040918290206003018054835181840281018401909452808452909183018282801561097f57602002820191906000526020600020905b815481526020019060010190808311610d8a5750505050509050919050565b610db4338383611aed565b5050565b610dc233836118cd565b610dde5760405162461bcd60e51b815260040161045d906131b3565b610dea84848484611bb7565b50505050565b6000610dfb836117df565b6000610e0684610a74565b6001600160a01b0316836001600160a01b031603610e2657506000610e5e565b610e2f84610fe3565b90506064610e3c85610fe3565b610e4790600561310f565b610e51919061313c565b610e5b9082613268565b90505b60005b600085815260176020526040902060030154811015610f34576000858152601760205260408120600301805483908110610e9d57610e9d613150565b90600052602060002001549050610eb381610a74565b6001600160a01b0316856001600160a01b031614610f2157600081815260176020526040902060010154610ee79084613268565b600082815260176020526040902060010154909350606490610f0a90600561310f565b610f14919061313c565b610f1e9084613268565b92505b5080610f2c81613166565b915050610e61565b509392505050565b6000838152600c602052604090205483906001600160a01b03163314610f745760405162461bcd60e51b815260040161045d9061327b565b6000818152600c602052604080822080546001600160a01b031916905551829160008051602061387083398151915291a2827f6129a239e5984bc053e8951cfba690c7a08b8022ad7a5a7579033a9952b248fe83604051610fd59190612c39565b60405180910390a250505050565b6000610fee826117df565b5060009081526017602052604090205490565b600061100c826117df565b5060009081526017602052604090206001015490565b606061102d8261182b565b600082815260066020526040812080546110469061317f565b80601f01602080910402602001604051908101604052809291908181526020018280546110729061317f565b80156110bf5780601f10611094576101008083540402835291602001916110bf565b820191906000526020600020905b8154815290600101906020018083116110a257829003601f168201915b5050505050905060006110dd60408051602081019091526000815290565b905080516000036110ef575092915050565b8151156111215780826040516020016111099291906132c3565b60405160208183030381529060405292505050919050565b61112a84611bea565b949350505050565b6000601885856040516111469291906132f2565b9081526040519081900360200190205460ff161561119f5760405162461bcd60e51b815260206004820152601660248201527550726f6a65637420616c72656164792065786973747360501b604482015260640161045d565b60005b8281101561121b576015548484838181106111bf576111bf613150565b90506020020135106112095760405162461bcd60e51b815260206004820152601360248201527210dbdb5c1bdb995b9d081b9bdd081d985b1a59606a1b604482015260640161045d565b8061121381613166565b9150506111a2565b5061122a601580546001019055565b600061123560155490565b90506112418982611c5e565b6000600f6011601060405160200161125b93929190613375565b604051602081830303815290604052905060008161127884611d59565b6040516020016112899291906132c3565b60405160208183030381529060405290506112a48382611deb565b60405180608001604052808b81526020018a815260200189898080601f01602080910402602001604051908101604052809392919081815260200183838082843760009201919091525050509082525060408051602089810282810182019093528982529283019290918a918a9182918501908490808284376000920182905250939094525050858152601760209081526040918290208451815590840151600182015590830151909150600282019061135e90826133d9565b506060820151805161137a916003840191602090910190612ab6565b509050506001601889896040516113929291906132f2565b9081526040805160209281900383018120805460ff191694151594909417909355601f8a0182900482028301820190528882526113eb9185918b908b9081908401838280828437600092019190915250611ea792505050565b50909998505050505050505050565b611402611a98565b60405164313abcb2b960d91b6020820152602501604051602081830303815290604052805190602001208260405160200161143d9190613498565b6040516020818303038152906040528051906020012014806114b457506040516b36b0b73ab330b1ba3ab932b960a11b6020820152602c01604051602081830303815290604052805190602001208260405160200161149c9190613498565b60405160208183030381529060405280519060200120145b6114ec5760405162461bcd60e51b815260206004820152600960248201526857726f6e67206b657960b81b604482015260640161045d565b6000611592611584601480546115019061317f565b80601f016020809104026020016040519081016040528092919081815260200182805461152d9061317f565b801561157a5780601f1061154f5761010080835404028352916020019161157a565b820191906000526020600020905b81548152906001019060200180831161155d57829003601f168201915b5050505050611f98565b3063f3ebb3f160e01b611fb7565b90506115ed604051806040016040528060038152602001621d5c9b60ea1b815250600f601160106115c289611d59565b6040516020016115d594939291906134b4565b60408051601f19818403018152919052839190611fdc565b61163360405180604001604052806004815260200163626f647960e01b81525084611622856001600160a01b03166014611ffa565b6040516020016115d59291906134ed565b611667604051806040016040528060078152602001661d1bdad95b925960ca1b81525061165f86611d59565b839190611fdc565b60125461169c906001600160a01b031682600a61168d670de0b6b3a7640000600161310f565b611697919061313c565b612195565b5050505050565b6001600160a01b03918216600090815260056020908152604080832093909416825291909152205460ff1690565b6116d9611a98565b610dea84848484612228565b6116ed611a98565b610d2a816122fa565b6000838152600c602052604090205483906001600160a01b0316331461172e5760405162461bcd60e51b815260040161045d9061327b565b6000818152600c602052604080822080546001600160a01b031916905551829160008051602061387083398151915291a2827feaa591fcda712a906726d0782957af336b2f5168567d3d30445ab864b1c3689883604051610fd59190612c39565b60006001600160e01b031982166380ac58cd60e01b14806117c057506001600160e01b03198216635b5e139f60e01b145b806103e957506301ffc9a760e01b6001600160e01b03198316146103e9565b6117e88161239e565b610d2a5760405162461bcd60e51b8152602060048201526014602482015273151bdad95b88191bd95cc81b9bdd08195e1a5cdd60621b604482015260640161045d565b6118348161239e565b610d2a5760405162461bcd60e51b815260040161045d90613200565b600081815260046020526040902080546001600160a01b0319166001600160a01b038416908117909155819061188582610a74565b6001600160a01b03167f8c5be1e5ebec7d5bd14f71427d1e84f3dd0314c0f7b2291e5b200ac8c7c3b92560405160405180910390a45050565b6009546001600160a01b031690565b6000806118d983610a74565b9050806001600160a01b0316846001600160a01b03161480611900575061190081856116a3565b8061112a5750836001600160a01b0316611919846107a3565b6001600160a01b031614949350505050565b826001600160a01b031661193e82610a74565b6001600160a01b0316146119645760405162461bcd60e51b815260040161045d90613549565b6001600160a01b0382166119c65760405162461bcd60e51b8152602060048201526024808201527f4552433732313a207472616e7366657220746f20746865207a65726f206164646044820152637265737360e01b606482015260840161045d565b826001600160a01b03166119d982610a74565b6001600160a01b0316146119ff5760405162461bcd60e51b815260040161045d90613549565b600081815260046020908152604080832080546001600160a01b03199081169091556001600160a01b03878116808652600385528386208054600019019055908716808652838620805460010190558686526002909452828520805490921684179091559051849360008051602061385083398151915291a4505050565b6000908152600260205260409020546001600160a01b031690565b600d546001600160a01b03163314611aeb5760405162461bcd60e51b815260206004820152601660248201527527b7363c9031b0b63630b1363290313c9037bbb732b960511b604482015260640161045d565b565b816001600160a01b0316836001600160a01b031603611b4a5760405162461bcd60e51b815260206004820152601960248201527822a9219b99189d1030b8383937bb32903a379031b0b63632b960391b604482015260640161045d565b6001600160a01b03838116600081815260056020908152604080832094871680845294825291829020805460ff191686151590811790915591519182527f17307eab39ab6107e8899845ad3d59bd9653f200f220920489ca2b5937696c31910160405180910390a3505050565b611bc284848461192b565b611bce848484846123bb565b610dea5760405162461bcd60e51b815260040161045d9061358e565b6060611bf58261182b565b6000611c0c60408051602081019091526000815290565b90506000815111611c2c5760405180602001604052806000815250611c57565b80611c3684611d59565b604051602001611c479291906132c3565b6040516020818303038152906040525b9392505050565b6001600160a01b038216611cb45760405162461bcd60e51b815260206004820181905260248201527f4552433732313a206d696e7420746f20746865207a65726f2061646472657373604482015260640161045d565b611cbd8161239e565b15611cda5760405162461bcd60e51b815260040161045d906135e0565b611ce38161239e565b15611d005760405162461bcd60e51b815260040161045d906135e0565b6001600160a01b038216600081815260036020908152604080832080546001019055848352600290915280822080546001600160a01b031916841790555183929190600080516020613850833981519152908290a45050565b60606000611d66836124bc565b60010190506000816001600160401b03811115611d8557611d85612d83565b6040519080825280601f01601f191660200182016040528015611daf576020820181803683370190505b5090508181016020015b600019016f181899199a1a9b1b9c1cb0b131b232b360811b600a86061a8153600a8504945084611db957509392505050565b611df48261239e565b611e575760405162461bcd60e51b815260206004820152602e60248201527f45524337323155524953746f726167653a2055524920736574206f66206e6f6e60448201526d32bc34b9ba32b73a103a37b5b2b760911b606482015260840161045d565b6000828152600660205260409020611e6f82826133d9565b506040518281527ff8e1a15aba9398e019f0b49df1a4fde98ee17ae345cb5f6b5e2c27f5033e8ce79060200160405180910390a15050565b611eaf611a98565b6000611ed2611ec4601380546115019061317f565b306301862e0b60e71b611fb7565b9050611f0d604051806040016040528060038152602001621d5c9b60ea1b815250600f60116010866040516020016115d594939291906134b4565b611f4660405180604001604052806004815260200163626f647960e01b815250611f3685611d59565b6040516020016115d59190613616565b611f72604051806040016040528060078152602001661d1bdad95b925960ca1b81525061165f85611d59565b601254610dea906001600160a01b031682600a61168d670de0b6b3a7640000600161310f565b805160009082908203611fae5750600092915050565b50506020015190565b611fbf612b01565b611fc7612b01565b611fd381868686612592565b95945050505050565b6080830151611feb90836125cf565b60808301516108da90826125cf565b6060600061200983600261310f565b612014906002613268565b6001600160401b0381111561202b5761202b612d83565b6040519080825280601f01601f191660200182016040528015612055576020820181803683370190505b509050600360fc1b8160008151811061207057612070613150565b60200101906001600160f81b031916908160001a905350600f60fb1b8160018151811061209f5761209f613150565b60200101906001600160f81b031916908160001a90535060006120c384600261310f565b6120ce906001613268565b90505b6001811115612146576f181899199a1a9b1b9c1cb0b131b232b360811b85600f166010811061210257612102613150565b1a60f81b82828151811061211857612118613150565b60200101906001600160f81b031916908160001a90535060049490941c9361213f81613655565b90506120d1565b508315611c575760405162461bcd60e51b815260206004820181905260248201527f537472696e67733a20686578206c656e67746820696e73756666696369656e74604482015260640161045d565b600b546000906121a6816001613268565b600b55835160408086015160808701515191516000936320214ca360e11b936121de9386938493923092918a9160019160240161366c565b60408051601f198184030181529190526020810180516001600160e01b03166001600160e01b031990931692909217909152905061221e868386846125e6565b9695505050505050565b6000848152600c602052604080822080546001600160a01b0319811690915590516001600160a01b039091169186917fe1fe3afa0f7f761ff0a8b89086790efd5140d2907ebd5b7ff6bfcb5e075fd4c59190a2604051636ee4d55360e01b815260048101869052602481018590526001600160e01b031984166044820152606481018390526001600160a01b03821690636ee4d55390608401600060405180830381600087803b1580156122db57600080fd5b505af11580156122ef573d6000803e3d6000fd5b505050505050505050565b336001600160a01b0382160361234c5760405162461bcd60e51b815260206004820152601760248201527621b0b73737ba103a3930b739b332b9103a379039b2b63360491b604482015260640161045d565b600e80546001600160a01b0319166001600160a01b03838116918217909255600d54604051919216907fed8889f560326eb138920d842192f0eb3dd22b4f139c87a2c57538e05bae127890600090a350565b6000806123aa83611a7d565b6001600160a01b0316141592915050565b60006001600160a01b0384163b156124b157604051630a85bd0160e11b81526001600160a01b0385169063150b7a02906123ff9033908990889088906004016136d4565b6020604051808303816000875af192505050801561243a575060408051601f3d908101601f1916820190925261243791810190613707565b60015b612497573d808015612468576040519150601f19603f3d011682016040523d82523d6000602084013e61246d565b606091505b50805160000361248f5760405162461bcd60e51b815260040161045d9061358e565b805181602001fd5b6001600160e01b031916630a85bd0160e11b14905061112a565b506001949350505050565b60008072184f03e93ff9f4daa797ed6e38ed64bf6a1f0160401b83106124fb5772184f03e93ff9f4daa797ed6e38ed64bf6a1f0160401b830492506040015b6904ee2d6d415b85acef8160201b8310612525576904ee2d6d415b85acef8160201b830492506020015b662386f26fc10000831061254357662386f26fc10000830492506010015b6305f5e100831061255b576305f5e100830492506008015b612710831061256f57612710830492506004015b60648310612581576064830492506002015b600a83106103e95760010192915050565b61259a612b01565b6125aa856080015161010061273f565b50509183526001600160a01b031660208301526001600160e01b031916604082015290565b6125dc8260038351612797565b6108da828261289e565b6040516001600160601b03193060601b1660208201526034810184905260009060540160408051808303601f1901815282825280516020918201206000818152600c90925291812080546001600160a01b0319166001600160a01b038a1617905590925082917fb5e6e01e79f91267dc17b4e6314d5d4d03593d2ceee0fbb452b750bd70ea5af99190a2600954604051630200057560e51b81526001600160a01b0390911690634000aea0906126a490889087908790600401613724565b6020604051808303816000875af11580156126c3573d6000803e3d6000fd5b505050506040513d601f19601f820116820180604052508101906126e7919061324b565b61112a5760405162461bcd60e51b815260206004820152602360248201527f756e61626c6520746f207472616e73666572416e6443616c6c20746f206f7261604482015262636c6560e81b606482015260840161045d565b612747612b36565b61275260208361374b565b1561277a5761276260208361374b565b61276d9060206130fc565b6127779083613268565b91505b506020828101829052604080518085526000815290920101905290565b6017816001600160401b0316116127bb57610dea8360e0600585901b1683176128b8565b60ff816001600160401b0316116127f7576127e1836018611fe0600586901b16176128b8565b50610dea836001600160401b03831660016128d0565b61ffff816001600160401b0316116128345761281e836019611fe0600586901b16176128b8565b50610dea836001600160401b03831660026128d0565b63ffffffff816001600160401b0316116128735761285d83601a611fe0600586901b16176128b8565b50610dea836001600160401b03831660046128d0565b61288883601b611fe0600586901b16176128b8565b50610dea836001600160401b03831660086128d0565b6128a6612b36565b611c57838460000151518485516128e9565b6128c0612b36565b611c5783846000015151846129c6565b6128d8612b36565b61112a848560000151518585612a14565b6128f1612b36565b82518211156128ff57600080fd5b602085015161290e8386613268565b111561294157612941856129318760200151878661292c9190613268565b612a88565b61293c90600261310f565b612a9f565b6000808651805187602083010193508088870111156129605787860182525b505050602084015b602084106129a0578051825261297f602083613268565b915061298c602082613268565b90506129996020856130fc565b9350612968565b51815160001960208690036101000a019081169019919091161790525083949350505050565b6129ce612b36565b836020015183106129ee576129ee848560200151600261293c919061310f565b8351805160208583010184815350808503612a0a576001810182525b5093949350505050565b612a1c612b36565b6020850151612a2b8584613268565b1115612a3f57612a3f856129318685613268565b60006001612a4f84610100613843565b612a5991906130fc565b9050855183868201018583198251161781525080518487011115612a7d5783860181525b509495945050505050565b600081831115612a995750816103e9565b50919050565b8151612aab838361273f565b50610dea838261289e565b828054828255906000526020600020908101928215612af1579160200282015b82811115612af1578251825591602001919060010190612ad6565b50612afd929150612b50565b5090565b6040805160a081018252600080825260208201819052918101829052606081019190915260808101612b31612b36565b905290565b604051806040016040528060608152602001600081525090565b5b80821115612afd5760008155600101612b51565b6001600160e01b031981168114610d2a57600080fd5b600060208284031215612b8d57600080fd5b8135611c5781612b65565b80356001600160a01b0381168114612baf57600080fd5b919050565b600080600060608486031215612bc957600080fd5b8335925060208401359150612be060408501612b98565b90509250925092565b60005b83811015612c04578181015183820152602001612bec565b50506000910152565b60008151808452612c25816020860160208601612be9565b601f01601f19169290920160200192915050565b602081526000611c576020830184612c0d565b600060208284031215612c5e57600080fd5b5035919050565b6001600160a01b0391909116815260200190565b60008060408385031215612c8c57600080fd5b612c9583612b98565b946020939093013593505050565b600080600060608486031215612cb857600080fd5b612cc184612b98565b9250612ccf60208501612b98565b9150604084013590509250925092565b600060208284031215612cf157600080fd5b611c5782612b98565b6020808252825182820181905260009190848201906040850190845b81811015612d3257835183529284019291840191600101612d16565b50909695505050505050565b8015158114610d2a57600080fd5b60008060408385031215612d5f57600080fd5b612d6883612b98565b91506020830135612d7881612d3e565b809150509250929050565b634e487b7160e01b600052604160045260246000fd5b60006001600160401b0380841115612db357612db3612d83565b604051601f8501601f19908116603f01168101908282118183101715612ddb57612ddb612d83565b81604052809350858152868686011115612df457600080fd5b858560208301376000602087830101525050509392505050565b60008060008060808587031215612e2457600080fd5b612e2d85612b98565b9350612e3b60208601612b98565b92506040850135915060608501356001600160401b03811115612e5d57600080fd5b8501601f81018713612e6e57600080fd5b612e7d87823560208401612d99565b91505092959194509250565b60008060408385031215612e9c57600080fd5b82359150612eac60208401612b98565b90509250929050565b600082601f830112612ec657600080fd5b611c5783833560208501612d99565b600080600060608486031215612eea57600080fd5b833592506020840135915060408401356001600160401b03811115612f0e57600080fd5b612f1a86828701612eb5565b9150509250925092565b60008083601f840112612f3657600080fd5b5081356001600160401b03811115612f4d57600080fd5b6020830191508360208260051b8501011115612f6857600080fd5b9250929050565b600080600080600080600060a0888a031215612f8a57600080fd5b612f9388612b98565b9650602088013595506040880135945060608801356001600160401b0380821115612fbd57600080fd5b818a0191508a601f830112612fd157600080fd5b813581811115612fe057600080fd5b8b6020828501011115612ff257600080fd5b6020830196508095505060808a013591508082111561301057600080fd5b5061301d8a828b01612f24565b989b979a50959850939692959293505050565b60008060006060848603121561304557600080fd5b8335925060208401356001600160401b0381111561306257600080fd5b61306e86828701612eb5565b925050612be060408501612b98565b6000806040838503121561309057600080fd5b61309983612b98565b9150612eac60208401612b98565b600080600080608085870312156130bd57600080fd5b843593506020850135925060408501356130d681612b65565b9396929550929360600135925050565b634e487b7160e01b600052601160045260246000fd5b818103818111156103e9576103e96130e6565b80820281158282048414176103e9576103e96130e6565b634e487b7160e01b600052601260045260246000fd5b60008261314b5761314b613126565b500490565b634e487b7160e01b600052603260045260246000fd5b600060018201613178576131786130e6565b5060010190565b600181811c9082168061319357607f821691505b602082108103612a9957634e487b7160e01b600052602260045260246000fd5b6020808252602d908201527f4552433732313a2063616c6c6572206973206e6f7420746f6b656e206f776e6560408201526c1c881bdc88185c1c1c9bdd9959609a1b606082015260800190565b602080825260189082015277115490cdcc8c4e881a5b9d985b1a59081d1bdad95b88125160421b604082015260600190565b60006020828403121561324457600080fd5b5051919050565b60006020828403121561325d57600080fd5b8151611c5781612d3e565b808201808211156103e9576103e96130e6565b60208082526028908201527f536f75726365206d75737420626520746865206f7261636c65206f6620746865604082015267081c995c5d595cdd60c21b606082015260800190565b600083516132d5818460208801612be9565b8351908301906132e9818360208801612be9565b01949350505050565b8183823760009101908152919050565b6000815461330f8161317f565b60018281168015613327576001811461333c5761336b565b60ff198416875282151583028701945061336b565b8560005260208060002060005b858110156133625781548a820152908401908201613349565b50505082870194505b5050505092915050565b6000611fd361338d6133878488613302565b86613302565b84613302565b601f8211156108da57600081815260208120601f850160051c810160208610156133ba5750805b601f850160051c820191505b81811015610709578281556001016133c6565b81516001600160401b038111156133f2576133f2612d83565b61340681613400845461317f565b84613393565b602080601f83116001811461343b57600084156134235750858301515b600019600386901b1c1916600185901b178555610709565b600085815260208120601f198616915b8281101561346a5788860151825594840194600190910190840161344b565b50858210156134885787850151600019600388901b60f8161c191681555b5050505050600190811b01905550565b600082516134aa818460208701612be9565b9190910192915050565b60006134d26134cc6134c68489613302565b87613302565b85613302565b83516134e2818360208801612be9565b019695505050505050565b613d9160f11b8152825160009061350b816002850160208801612be9565b62111d1160e91b600291840191820152835161352e816005840160208801612be9565b61227d60f01b60059290910191820152600701949350505050565b60208082526025908201527f4552433732313a207472616e736665722066726f6d20696e636f72726563742060408201526437bbb732b960d91b606082015260800190565b60208082526032908201527f4552433732313a207472616e7366657220746f206e6f6e20455243373231526560408201527131b2b4bb32b91034b6b83632b6b2b73a32b960711b606082015260800190565b6020808252601c908201527b115490cdcc8c4e881d1bdad95b88185b1c9958591e481b5a5b9d195960221b604082015260600190565b6a3d913a37b5b2b724b2111d60a91b8152815160009061363d81600b850160208701612be9565b607d60f81b600b939091019283015250600c01919050565b600081613664576136646130e6565b506000190190565b6001600160a01b0389811682526020820189905260408201889052861660608201526001600160e01b03198516608082015260a0810184905260c0810183905261010060e082018190526000906136c583820185612c0d565b9b9a5050505050505050505050565b6001600160a01b038581168252841660208201526040810183905260806060820181905260009061221e90830184612c0d565b60006020828403121561371957600080fd5b8151611c5781612b65565b60018060a01b0384168152826020820152606060408201526000611fd36060830184612c0d565b60008261375a5761375a613126565b500690565b600181815b8085111561379a578160001904821115613780576137806130e6565b8085161561378d57918102915b93841c9390800290613764565b509250929050565b6000826137b1575060016103e9565b816137be575060006103e9565b81600181146137d457600281146137de576137fa565b60019150506103e9565b60ff8411156137ef576137ef6130e6565b50506001821b6103e9565b5060208310610133831016604e8410600b841016171561381d575081810a6103e9565b613827838361375f565b806000190482111561383b5761383b6130e6565b029392505050565b6000611c5783836137a256feddf252ad1be2c89b69c2b068fc378daa952ba7f163c4a11628f55a4df523b3ef7cc135e0cebb02c3480ae5d74d377283180a2601f8f644edf7987b009316c63aa26469706673582212205217b41d3338a7fa634a701e65fd7f14adff26ddd819959d5f5a27e6c09a728064736f6c63430008130033",
  "immutableReferences": {},
  "source": "// SPDX-License-Identifier: MIT\npragma solidity ^0.8.18;\n\nimport '@openzeppelin/contracts/utils/Counters.sol';\nimport '@openzeppelin/contracts/token/ERC721/ERC721.sol';\nimport '@openzeppelin/contracts/token/ERC721/extensions/ERC721URIStorage.sol';\n\nimport \"./CustomChainlinkClient.sol\";\n\n\ncontract ProjectNFT is ERC721URIStorage, CustomChainlinkClient {\n    \n    using Counters for Counters.Counter;\n     \n    Counters.Counter private tokenCounter;\n\n    address payable _platformAddress; //where to pay commissions\n\n    struct TokenInfo {\n       uint256 price;\n       uint256 royaltyPrice;\n       string projectHash;\n       uint256[] components;\n    }\n\n    mapping(uint256 => TokenInfo) private _tokenInfos;\n\n    // Map to check hashes are unique\n    mapping(string => bool) private _hashes;\n\n    constructor(address payable platformAddress, string memory host_machine_ip, address oracle, string memory jobId_1, string memory jobId_2) ERC721('ProjectNFT', 'PNFT') CustomChainlinkClient(host_machine_ip, oracle, jobId_1, jobId_2)  {\n      _platformAddress = platformAddress;\n    }\n\n    function mintToken(\n        address sender,\n        uint256 price,\n        uint256 royaltyPrice,\n        string calldata projectHash,\n        uint256[] calldata components\n    ) public returns (uint256) {\n        // Check NFT parameters:\n\n        // Check hash is unique\n        require(!_hashes[projectHash], 'Project already exists');\n\n        // Check components exists\n        for (uint i = 0; i < components.length; i++) {\n            require(components[i] < tokenCounter.current(), 'Component not valid');\n        }\n\n        tokenCounter.increment();\n\n        uint256 newItemId = tokenCounter.current();\n       \n        // Mint new token (openzeppelin)\n        _mint(sender, newItemId);\n\n        // Build uri from base + tokenId\n        string memory baseUri = string.concat(_base_url_1, _host_machine_ip, _base_url_2);\n        string memory uri = string.concat(baseUri, Strings.toString(newItemId));\n        _setTokenURI(newItemId, uri);\n\n        // Set NFT parameters\n        _tokenInfos[newItemId] = TokenInfo(price, royaltyPrice, projectHash, components);\n        _hashes[projectHash] = true;\n\n        requestConfirmMinting(newItemId, projectHash);\n\n        return newItemId;\n        \n    }\n\n    function tokenIdCheck(uint256 tokenId) private view{\n        require(_exists(tokenId), 'Token does not exist');\n    }\n\n    function getTokenPrice(uint256 tokenId) public view returns (uint256) {\n        tokenIdCheck(tokenId);\n        return _tokenInfos[tokenId].price;\n    }\n\n    function getTokenRoyaltyPrice(uint256 tokenId) public view returns (uint256) {\n        tokenIdCheck(tokenId);\n        return _tokenInfos[tokenId].royaltyPrice;\n    }\n\n    function getProjectHash(uint256 tokenId) public view returns (string memory) {\n        tokenIdCheck(tokenId);\n        return _tokenInfos[tokenId].projectHash;\n    }\n\n    function getTokenComponents(uint256 tokenId) public view returns (uint256[] memory) {\n        tokenIdCheck(tokenId);\n        return _tokenInfos[tokenId].components;\n    }\n\n    function getTokenBuyPrice(uint256 tokenId, address buyerProject) public view returns (uint256) {\n        tokenIdCheck(tokenId);\n        \n        uint256 amount;\n        if(buyerProject==ownerOf(tokenId)){ //buyer and token owner are the same\n            amount = 0;\n        } else {\n            amount = getTokenPrice(tokenId);\n            amount = amount + (getTokenPrice(tokenId)*5/100); //commissions\n        }\n\n        for (uint256 i=0; i < _tokenInfos[tokenId].components.length; i++) {\n            uint256 componentTokenId = _tokenInfos[tokenId].components[i];\n\n            if(buyerProject != ownerOf(componentTokenId)){ //buyer and component owner are NOT the same\n                amount = amount + _tokenInfos[componentTokenId].royaltyPrice; //royalties\n                amount = amount + (_tokenInfos[componentTokenId].royaltyPrice*5/100); //commissions\n            }\n        }\n\n        return amount;\n    }\n\n    \n    function transferPayment(uint256 tokenId, uint256 amount, address buyerProject) public {\n        tokenIdCheck(tokenId);\n\n        uint256 amountToPay = getTokenBuyPrice(tokenId,buyerProject);\n        require(amount >= amountToPay, 'Pay amount is not price of project');\n\n        address payable owner = payable(ownerOf(tokenId));\n\n        if(buyerProject != owner){\n            owner.transfer(_tokenInfos[tokenId].price);\n            amount = amount - _tokenInfos[tokenId].price;\n\n            _platformAddress.transfer(_tokenInfos[tokenId].price*5/100);\n            amount = amount - (_tokenInfos[tokenId].price*5/100);\n        }\n\n        for (uint256 i=0; i < _tokenInfos[tokenId].components.length; i++) {\n            uint256 componentTokenId = _tokenInfos[tokenId].components[i];\n            address payable componentOwner = payable(ownerOf(componentTokenId));\n\n            if(buyerProject != componentOwner){\n            componentOwner.transfer(_tokenInfos[componentTokenId].royaltyPrice);\n            amount = amount - _tokenInfos[componentTokenId].royaltyPrice;\n\n            _platformAddress.transfer(_tokenInfos[componentTokenId].royaltyPrice*5/100);\n            amount = amount - (_tokenInfos[componentTokenId].royaltyPrice*5/100);\n            }\n        }\n    }\n\n}\n",
  "sourcePath": "/Users/leonardovicentini/Desktop/Magistrale/Blockchain/blockchain-project/contracts/ProjectNFT.sol",
  "compiler": {
    "name": "solc",
    "version": "0.8.19+commit.7dd6d404.Emscripten.clang"
  },
  "schemaVersion": "3.4.13",
  "updatedAt": "2023-06-27T14:44:06.200Z",
  "devdoc": {
    "events": {
      "Approval(address,address,uint256)": {
        "details": "Emitted when `owner` enables `approved` to manage the `tokenId` token."
      },
      "ApprovalForAll(address,address,bool)": {
        "details": "Emitted when `owner` enables or disables (`approved`) `operator` to manage all of its assets."
      },
      "BatchMetadataUpdate(uint256,uint256)": {
        "details": "This event emits when the metadata of a range of tokens is changed. So that the third-party platforms such as NFT market could timely update the images and related attributes of the NFTs."
      },
      "MetadataUpdate(uint256)": {
        "details": "This event emits when the metadata of a token is changed. So that the third-party platforms such as NFT market could timely update the images and related attributes of the NFT."
      },
      "Transfer(address,address,uint256)": {
        "details": "Emitted when `tokenId` token is transferred from `from` to `to`."
      }
    },
    "kind": "dev",
    "methods": {
      "approve(address,uint256)": {
        "details": "See {IERC721-approve}."
      },
      "balanceOf(address)": {
        "details": "See {IERC721-balanceOf}."
      },
      "getApproved(uint256)": {
        "details": "See {IERC721-getApproved}."
      },
      "isApprovedForAll(address,address)": {
        "details": "See {IERC721-isApprovedForAll}."
      },
      "name()": {
        "details": "See {IERC721Metadata-name}."
      },
      "ownerOf(uint256)": {
        "details": "See {IERC721-ownerOf}."
      },
      "safeTransferFrom(address,address,uint256)": {
        "details": "See {IERC721-safeTransferFrom}."
      },
      "safeTransferFrom(address,address,uint256,bytes)": {
        "details": "See {IERC721-safeTransferFrom}."
      },
      "setApprovalForAll(address,bool)": {
        "details": "See {IERC721-setApprovalForAll}."
      },
      "supportsInterface(bytes4)": {
        "details": "See {IERC165-supportsInterface}"
      },
      "symbol()": {
        "details": "See {IERC721Metadata-symbol}."
      },
      "tokenURI(uint256)": {
        "details": "See {IERC721Metadata-tokenURI}."
      },
      "transferFrom(address,address,uint256)": {
        "details": "See {IERC721-transferFrom}."
      }
    },
    "version": 1
  },
  "userdoc": {
    "kind": "user",
    "methods": {
      "acceptOwnership()": {
        "notice": "Allows an ownership transfer to be completed by the recipient."
      },
      "owner()": {
        "notice": "Get the current owner"
      },
      "transferOwnership(address)": {
        "notice": "Allows an owner to begin transferring ownership to a new address, pending."
      }
    },
    "version": 1
  }
}