{
  "contractName": "ProjectNFT",
  "abi": [
    {
      "inputs": [],
      "stateMutability": "nonpayable",
      "type": "constructor"
    },
    {
      "anonymous": false,
      "inputs": [
        {
          "indexed": true,
          "internalType": "address",
          "name": "owner",
          "type": "address"
        },
        {
          "indexed": true,
          "internalType": "address",
          "name": "approved",
          "type": "address"
        },
        {
          "indexed": true,
          "internalType": "uint256",
          "name": "tokenId",
          "type": "uint256"
        }
      ],
      "name": "Approval",
      "type": "event"
    },
    {
      "anonymous": false,
      "inputs": [
        {
          "indexed": true,
          "internalType": "address",
          "name": "owner",
          "type": "address"
        },
        {
          "indexed": true,
          "internalType": "address",
          "name": "operator",
          "type": "address"
        },
        {
          "indexed": false,
          "internalType": "bool",
          "name": "approved",
          "type": "bool"
        }
      ],
      "name": "ApprovalForAll",
      "type": "event"
    },
    {
      "anonymous": false,
      "inputs": [
        {
          "indexed": false,
          "internalType": "uint256",
          "name": "_fromTokenId",
          "type": "uint256"
        },
        {
          "indexed": false,
          "internalType": "uint256",
          "name": "_toTokenId",
          "type": "uint256"
        }
      ],
      "name": "BatchMetadataUpdate",
      "type": "event"
    },
    {
      "anonymous": false,
      "inputs": [
        {
          "indexed": false,
          "internalType": "uint256",
          "name": "_tokenId",
          "type": "uint256"
        }
      ],
      "name": "MetadataUpdate",
      "type": "event"
    },
    {
      "anonymous": false,
      "inputs": [
        {
          "indexed": true,
          "internalType": "address",
          "name": "from",
          "type": "address"
        },
        {
          "indexed": true,
          "internalType": "address",
          "name": "to",
          "type": "address"
        },
        {
          "indexed": true,
          "internalType": "uint256",
          "name": "tokenId",
          "type": "uint256"
        }
      ],
      "name": "Transfer",
      "type": "event"
    },
    {
      "inputs": [
        {
          "internalType": "address",
          "name": "to",
          "type": "address"
        },
        {
          "internalType": "uint256",
          "name": "tokenId",
          "type": "uint256"
        }
      ],
      "name": "approve",
      "outputs": [],
      "stateMutability": "nonpayable",
      "type": "function"
    },
    {
      "inputs": [
        {
          "internalType": "address",
          "name": "owner",
          "type": "address"
        }
      ],
      "name": "balanceOf",
      "outputs": [
        {
          "internalType": "uint256",
          "name": "",
          "type": "uint256"
        }
      ],
      "stateMutability": "view",
      "type": "function"
    },
    {
      "inputs": [
        {
          "internalType": "uint256",
          "name": "tokenId",
          "type": "uint256"
        }
      ],
      "name": "getApproved",
      "outputs": [
        {
          "internalType": "address",
          "name": "",
          "type": "address"
        }
      ],
      "stateMutability": "view",
      "type": "function"
    },
    {
      "inputs": [
        {
          "internalType": "address",
          "name": "owner",
          "type": "address"
        },
        {
          "internalType": "address",
          "name": "operator",
          "type": "address"
        }
      ],
      "name": "isApprovedForAll",
      "outputs": [
        {
          "internalType": "bool",
          "name": "",
          "type": "bool"
        }
      ],
      "stateMutability": "view",
      "type": "function"
    },
    {
      "inputs": [],
      "name": "name",
      "outputs": [
        {
          "internalType": "string",
          "name": "",
          "type": "string"
        }
      ],
      "stateMutability": "view",
      "type": "function"
    },
    {
      "inputs": [
        {
          "internalType": "uint256",
          "name": "tokenId",
          "type": "uint256"
        }
      ],
      "name": "ownerOf",
      "outputs": [
        {
          "internalType": "address",
          "name": "",
          "type": "address"
        }
      ],
      "stateMutability": "view",
      "type": "function"
    },
    {
      "inputs": [
        {
          "internalType": "address",
          "name": "from",
          "type": "address"
        },
        {
          "internalType": "address",
          "name": "to",
          "type": "address"
        },
        {
          "internalType": "uint256",
          "name": "tokenId",
          "type": "uint256"
        }
      ],
      "name": "safeTransferFrom",
      "outputs": [],
      "stateMutability": "nonpayable",
      "type": "function"
    },
    {
      "inputs": [
        {
          "internalType": "address",
          "name": "from",
          "type": "address"
        },
        {
          "internalType": "address",
          "name": "to",
          "type": "address"
        },
        {
          "internalType": "uint256",
          "name": "tokenId",
          "type": "uint256"
        },
        {
          "internalType": "bytes",
          "name": "data",
          "type": "bytes"
        }
      ],
      "name": "safeTransferFrom",
      "outputs": [],
      "stateMutability": "nonpayable",
      "type": "function"
    },
    {
      "inputs": [
        {
          "internalType": "address",
          "name": "operator",
          "type": "address"
        },
        {
          "internalType": "bool",
          "name": "approved",
          "type": "bool"
        }
      ],
      "name": "setApprovalForAll",
      "outputs": [],
      "stateMutability": "nonpayable",
      "type": "function"
    },
    {
      "inputs": [
        {
          "internalType": "bytes4",
          "name": "interfaceId",
          "type": "bytes4"
        }
      ],
      "name": "supportsInterface",
      "outputs": [
        {
          "internalType": "bool",
          "name": "",
          "type": "bool"
        }
      ],
      "stateMutability": "view",
      "type": "function"
    },
    {
      "inputs": [],
      "name": "symbol",
      "outputs": [
        {
          "internalType": "string",
          "name": "",
          "type": "string"
        }
      ],
      "stateMutability": "view",
      "type": "function"
    },
    {
      "inputs": [],
      "name": "tokenCounter",
      "outputs": [
        {
          "internalType": "uint256",
          "name": "",
          "type": "uint256"
        }
      ],
      "stateMutability": "view",
      "type": "function"
    },
    {
      "inputs": [
        {
          "internalType": "uint256",
          "name": "tokenId",
          "type": "uint256"
        }
      ],
      "name": "tokenURI",
      "outputs": [
        {
          "internalType": "string",
          "name": "",
          "type": "string"
        }
      ],
      "stateMutability": "view",
      "type": "function"
    },
    {
      "inputs": [
        {
          "internalType": "address",
          "name": "from",
          "type": "address"
        },
        {
          "internalType": "address",
          "name": "to",
          "type": "address"
        },
        {
          "internalType": "uint256",
          "name": "tokenId",
          "type": "uint256"
        }
      ],
      "name": "transferFrom",
      "outputs": [],
      "stateMutability": "nonpayable",
      "type": "function"
    },
    {
      "inputs": [
        {
          "internalType": "address",
          "name": "sender",
          "type": "address"
        },
        {
          "internalType": "uint256",
          "name": "price",
          "type": "uint256"
        },
        {
          "internalType": "uint256",
          "name": "royaltyPrice",
          "type": "uint256"
        },
        {
          "internalType": "string",
          "name": "projectHash",
          "type": "string"
        },
        {
          "internalType": "uint256[]",
          "name": "components",
          "type": "uint256[]"
        }
      ],
      "name": "mintToken",
      "outputs": [
        {
          "internalType": "uint256",
          "name": "",
          "type": "uint256"
        }
      ],
      "stateMutability": "nonpayable",
      "type": "function"
    },
    {
      "inputs": [
        {
          "internalType": "uint256",
          "name": "tokenId",
          "type": "uint256"
        },
        {
          "internalType": "uint256",
          "name": "price",
          "type": "uint256"
        },
        {
          "internalType": "uint256",
          "name": "royaltyPrice",
          "type": "uint256"
        }
      ],
      "name": "setTokenPrice",
      "outputs": [],
      "stateMutability": "nonpayable",
      "type": "function"
    },
    {
      "inputs": [
        {
          "internalType": "uint256",
          "name": "tokenId",
          "type": "uint256"
        }
      ],
      "name": "getTokenPrice",
      "outputs": [
        {
          "internalType": "uint256",
          "name": "",
          "type": "uint256"
        }
      ],
      "stateMutability": "view",
      "type": "function"
    },
    {
      "inputs": [
        {
          "internalType": "uint256",
          "name": "tokenId",
          "type": "uint256"
        },
        {
          "internalType": "string",
          "name": "hash",
          "type": "string"
        }
      ],
      "name": "setTokenHash",
      "outputs": [],
      "stateMutability": "nonpayable",
      "type": "function"
    },
    {
      "inputs": [
        {
          "internalType": "uint256",
          "name": "tokenId",
          "type": "uint256"
        },
        {
          "internalType": "uint256[]",
          "name": "components",
          "type": "uint256[]"
        }
      ],
      "name": "setTokenComponents",
      "outputs": [],
      "stateMutability": "nonpayable",
      "type": "function"
    }
  ],
  "bytecode": "0x60806040523480156200001157600080fd5b506040518060400160405280600b81526020017f44657369676e65724e46540000000000000000000000000000000000000000008152506040518060400160405280600481526020017f444e46540000000000000000000000000000000000000000000000000000000081525081600090816200008f91906200032c565b508060019081620000a191906200032c565b505050600160078190555062000413565b600081519050919050565b7f4e487b7100000000000000000000000000000000000000000000000000000000600052604160045260246000fd5b7f4e487b7100000000000000000000000000000000000000000000000000000000600052602260045260246000fd5b600060028204905060018216806200013457607f821691505b6020821081036200014a5762000149620000ec565b5b50919050565b60008190508160005260206000209050919050565b60006020601f8301049050919050565b600082821b905092915050565b600060088302620001b47fffffffffffffffffffffffffffffffffffffffffffffffffffffffffffffffff8262000175565b620001c0868362000175565b95508019841693508086168417925050509392505050565b6000819050919050565b6000819050919050565b60006200020d620002076200020184620001d8565b620001e2565b620001d8565b9050919050565b6000819050919050565b6200022983620001ec565b62000241620002388262000214565b84845462000182565b825550505050565b600090565b6200025862000249565b620002658184846200021e565b505050565b5b818110156200028d57620002816000826200024e565b6001810190506200026b565b5050565b601f821115620002dc57620002a68162000150565b620002b18462000165565b81016020851015620002c1578190505b620002d9620002d08562000165565b8301826200026a565b50505b505050565b600082821c905092915050565b60006200030160001984600802620002e1565b1980831691505092915050565b60006200031c8383620002ee565b9150826002028217905092915050565b6200033782620000b2565b67ffffffffffffffff811115620003535762000352620000bd565b5b6200035f82546200011b565b6200036c82828562000291565b600060209050601f831160018114620003a457600084156200038f578287015190505b6200039b85826200030e565b8655506200040b565b601f198416620003b48662000150565b60005b82811015620003de57848901518255600182019150602085019450602081019050620003b7565b86831015620003fe5784890151620003fa601f891682620002ee565b8355505b6001600288020188555050505b505050505050565b61321580620004236000396000f3fe608060405234801561001057600080fd5b50600436106101215760003560e01c806395d89b41116100ad578063c457fb3711610071578063c457fb3714610302578063c87b56dd14610332578063cb9d741514610362578063d082e38114610392578063e985e9c5146103b057610121565b806395d89b4114610274578063a22cb46514610292578063abbd8ee5146102ae578063b88d4fde146102ca578063bca2b941146102e657610121565b806323b872dd116100f457806323b872dd146101c057806342842e0e146101dc5780636352211e146101f857806370a082311461022857806390ede32b1461025857610121565b806301ffc9a71461012657806306fdde0314610156578063081812fc14610174578063095ea7b3146101a4575b600080fd5b610140600480360381019061013b9190611d5b565b6103e0565b60405161014d9190611da3565b60405180910390f35b61015e610441565b60405161016b9190611e4e565b60405180910390f35b61018e60048036038101906101899190611ea6565b6104d3565b60405161019b9190611f14565b60405180910390f35b6101be60048036038101906101b99190611f5b565b610519565b005b6101da60048036038101906101d59190611f9b565b610630565b005b6101f660048036038101906101f19190611f9b565b610690565b005b610212600480360381019061020d9190611ea6565b6106b0565b60405161021f9190611f14565b60405180910390f35b610242600480360381019061023d9190611fee565b610736565b60405161024f919061202a565b60405180910390f35b610272600480360381019061026d91906120aa565b6107ed565b005b61027c6108a7565b6040516102899190611e4e565b60405180910390f35b6102ac60048036038101906102a79190612136565b610939565b005b6102c860048036038101906102c391906121cc565b61094f565b005b6102e460048036038101906102df919061235c565b6109c0565b005b61030060048036038101906102fb91906123df565b610a22565b005b61031c60048036038101906103179190611ea6565b610aa0565b604051610329919061202a565b60405180910390f35b61034c60048036038101906103479190611ea6565b610acb565b6040516103599190611e4e565b60405180910390f35b61037c60048036038101906103779190612432565b610bdd565b604051610389919061202a565b60405180910390f35b61039a610ca8565b6040516103a7919061202a565b60405180910390f35b6103ca60048036038101906103c591906124ee565b610cae565b6040516103d79190611da3565b60405180910390f35b6000634906490660e01b7bffffffffffffffffffffffffffffffffffffffffffffffffffffffff1916827bffffffffffffffffffffffffffffffffffffffffffffffffffffffff1916148061043a575061043982610d42565b5b9050919050565b6060600080546104509061255d565b80601f016020809104026020016040519081016040528092919081815260200182805461047c9061255d565b80156104c95780601f1061049e576101008083540402835291602001916104c9565b820191906000526020600020905b8154815290600101906020018083116104ac57829003601f168201915b5050505050905090565b60006104de82610e24565b6004600083815260200190815260200160002060009054906101000a900473ffffffffffffffffffffffffffffffffffffffff169050919050565b6000610524826106b0565b90508073ffffffffffffffffffffffffffffffffffffffff168373ffffffffffffffffffffffffffffffffffffffff1603610594576040517f08c379a000000000000000000000000000000000000000000000000000000000815260040161058b90612600565b60405180910390fd5b8073ffffffffffffffffffffffffffffffffffffffff166105b3610e6f565b73ffffffffffffffffffffffffffffffffffffffff1614806105e257506105e1816105dc610e6f565b610cae565b5b610621576040517f08c379a000000000000000000000000000000000000000000000000000000000815260040161061890612692565b60405180910390fd5b61062b8383610e77565b505050565b61064161063b610e6f565b82610f30565b610680576040517f08c379a000000000000000000000000000000000000000000000000000000000815260040161067790612724565b60405180910390fd5b61068b838383610fc5565b505050565b6106ab838383604051806020016040528060008152506109c0565b505050565b6000806106bc836112be565b9050600073ffffffffffffffffffffffffffffffffffffffff168173ffffffffffffffffffffffffffffffffffffffff160361072d576040517f08c379a000000000000000000000000000000000000000000000000000000000815260040161072490612790565b60405180910390fd5b80915050919050565b60008073ffffffffffffffffffffffffffffffffffffffff168273ffffffffffffffffffffffffffffffffffffffff16036107a6576040517f08c379a000000000000000000000000000000000000000000000000000000000815260040161079d90612822565b60405180910390fd5b600360008373ffffffffffffffffffffffffffffffffffffffff1673ffffffffffffffffffffffffffffffffffffffff168152602001908152602001600020549050919050565b6107f73384610f30565b610836576040517f08c379a000000000000000000000000000000000000000000000000000000000815260040161082d9061288e565b60405180910390fd5b60005b8282905081101561087e5760075483838381811061085a576108596128ae565b5b905060200201351061086b57600080fd5b80806108769061290c565b915050610839565b508181600b600086815260200190815260200160002091906108a1929190611c85565b50505050565b6060600180546108b69061255d565b80601f01602080910402602001604051908101604052809291908181526020018280546108e29061255d565b801561092f5780601f106109045761010080835404028352916020019161092f565b820191906000526020600020905b81548152906001019060200180831161091257829003601f168201915b5050505050905090565b61094b610944610e6f565b83836112fb565b5050565b6109593384610f30565b610998576040517f08c379a000000000000000000000000000000000000000000000000000000000815260040161098f9061288e565b60405180910390fd5b8181600a600086815260200190815260200160002091826109ba929190612b0b565b50505050565b6109d16109cb610e6f565b83610f30565b610a10576040517f08c379a0000000000000000000000000000000000000000000000000000000008152600401610a0790612724565b60405180910390fd5b610a1c84848484611467565b50505050565b610a2c3384610f30565b610a6b576040517f08c379a0000000000000000000000000000000000000000000000000000000008152600401610a629061288e565b60405180910390fd5b816008600085815260200190815260200160002081905550806009600085815260200190815260200160002081905550505050565b60006007548210610ab057600080fd5b60086000838152602001908152602001600020549050919050565b6060610ad682610e24565b6000600660008481526020019081526020016000208054610af69061255d565b80601f0160208091040260200160405190810160405280929190818152602001828054610b229061255d565b8015610b6f5780601f10610b4457610100808354040283529160200191610b6f565b820191906000526020600020905b815481529060010190602001808311610b5257829003601f168201915b505050505090506000610b806114c3565b90506000815103610b95578192505050610bd8565b600082511115610bca578082604051602001610bb2929190612c17565b60405160208183030381529060405292505050610bd8565b610bd3846114da565b925050505b919050565b6000806007549050610bef8982611542565b60006040518060400160405280601481526020017f6c6f63616c686f73743a333030302f6e6674732f0000000000000000000000008152509050600081610c358461175f565b604051602001610c46929190612c17565b6040516020818303038152906040529050610c61838261182d565b6001600754610c709190612c3b565b600781905550610c8183898961094f565b610c8c838b8b610a22565b610c978387876107ed565b829350505050979650505050505050565b60075481565b6000600560008473ffffffffffffffffffffffffffffffffffffffff1673ffffffffffffffffffffffffffffffffffffffff16815260200190815260200160002060008373ffffffffffffffffffffffffffffffffffffffff1673ffffffffffffffffffffffffffffffffffffffff16815260200190815260200160002060009054906101000a900460ff16905092915050565b60007f80ac58cd000000000000000000000000000000000000000000000000000000007bffffffffffffffffffffffffffffffffffffffffffffffffffffffff1916827bffffffffffffffffffffffffffffffffffffffffffffffffffffffff19161480610e0d57507f5b5e139f000000000000000000000000000000000000000000000000000000007bffffffffffffffffffffffffffffffffffffffffffffffffffffffff1916827bffffffffffffffffffffffffffffffffffffffffffffffffffffffff1916145b80610e1d5750610e1c826118d1565b5b9050919050565b610e2d8161193b565b610e6c576040517f08c379a0000000000000000000000000000000000000000000000000000000008152600401610e6390612790565b60405180910390fd5b50565b600033905090565b816004600083815260200190815260200160002060006101000a81548173ffffffffffffffffffffffffffffffffffffffff021916908373ffffffffffffffffffffffffffffffffffffffff160217905550808273ffffffffffffffffffffffffffffffffffffffff16610eea836106b0565b73ffffffffffffffffffffffffffffffffffffffff167f8c5be1e5ebec7d5bd14f71427d1e84f3dd0314c0f7b2291e5b200ac8c7c3b92560405160405180910390a45050565b600080610f3c836106b0565b90508073ffffffffffffffffffffffffffffffffffffffff168473ffffffffffffffffffffffffffffffffffffffff161480610f7e5750610f7d8185610cae565b5b80610fbc57508373ffffffffffffffffffffffffffffffffffffffff16610fa4846104d3565b73ffffffffffffffffffffffffffffffffffffffff16145b91505092915050565b8273ffffffffffffffffffffffffffffffffffffffff16610fe5826106b0565b73ffffffffffffffffffffffffffffffffffffffff161461103b576040517f08c379a000000000000000000000000000000000000000000000000000000000815260040161103290612ce1565b60405180910390fd5b600073ffffffffffffffffffffffffffffffffffffffff168273ffffffffffffffffffffffffffffffffffffffff16036110aa576040517f08c379a00000000000000000000000000000000000000000000000000000000081526004016110a190612d73565b60405180910390fd5b6110b7838383600161197c565b8273ffffffffffffffffffffffffffffffffffffffff166110d7826106b0565b73ffffffffffffffffffffffffffffffffffffffff161461112d576040517f08c379a000000000000000000000000000000000000000000000000000000000815260040161112490612ce1565b60405180910390fd5b6004600082815260200190815260200160002060006101000a81549073ffffffffffffffffffffffffffffffffffffffff02191690556001600360008573ffffffffffffffffffffffffffffffffffffffff1673ffffffffffffffffffffffffffffffffffffffff168152602001908152602001600020600082825403925050819055506001600360008473ffffffffffffffffffffffffffffffffffffffff1673ffffffffffffffffffffffffffffffffffffffff16815260200190815260200160002060008282540192505081905550816002600083815260200190815260200160002060006101000a81548173ffffffffffffffffffffffffffffffffffffffff021916908373ffffffffffffffffffffffffffffffffffffffff160217905550808273ffffffffffffffffffffffffffffffffffffffff168473ffffffffffffffffffffffffffffffffffffffff167fddf252ad1be2c89b69c2b068fc378daa952ba7f163c4a11628f55a4df523b3ef60405160405180910390a46112b98383836001611982565b505050565b60006002600083815260200190815260200160002060009054906101000a900473ffffffffffffffffffffffffffffffffffffffff169050919050565b8173ffffffffffffffffffffffffffffffffffffffff168373ffffffffffffffffffffffffffffffffffffffff1603611369576040517f08c379a000000000000000000000000000000000000000000000000000000000815260040161136090612ddf565b60405180910390fd5b80600560008573ffffffffffffffffffffffffffffffffffffffff1673ffffffffffffffffffffffffffffffffffffffff16815260200190815260200160002060008473ffffffffffffffffffffffffffffffffffffffff1673ffffffffffffffffffffffffffffffffffffffff16815260200190815260200160002060006101000a81548160ff0219169083151502179055508173ffffffffffffffffffffffffffffffffffffffff168373ffffffffffffffffffffffffffffffffffffffff167f17307eab39ab6107e8899845ad3d59bd9653f200f220920489ca2b5937696c318360405161145a9190611da3565b60405180910390a3505050565b611472848484610fc5565b61147e84848484611988565b6114bd576040517f08c379a00000000000000000000000000000000000000000000000000000000081526004016114b490612e71565b60405180910390fd5b50505050565b606060405180602001604052806000815250905090565b60606114e582610e24565b60006114ef6114c3565b9050600081511161150f576040518060200160405280600081525061153a565b806115198461175f565b60405160200161152a929190612c17565b6040516020818303038152906040525b915050919050565b600073ffffffffffffffffffffffffffffffffffffffff168273ffffffffffffffffffffffffffffffffffffffff16036115b1576040517f08c379a00000000000000000000000000000000000000000000000000000000081526004016115a890612edd565b60405180910390fd5b6115ba8161193b565b156115fa576040517f08c379a00000000000000000000000000000000000000000000000000000000081526004016115f190612f49565b60405180910390fd5b61160860008383600161197c565b6116118161193b565b15611651576040517f08c379a000000000000000000000000000000000000000000000000000000000815260040161164890612f49565b60405180910390fd5b6001600360008473ffffffffffffffffffffffffffffffffffffffff1673ffffffffffffffffffffffffffffffffffffffff16815260200190815260200160002060008282540192505081905550816002600083815260200190815260200160002060006101000a81548173ffffffffffffffffffffffffffffffffffffffff021916908373ffffffffffffffffffffffffffffffffffffffff160217905550808273ffffffffffffffffffffffffffffffffffffffff16600073ffffffffffffffffffffffffffffffffffffffff167fddf252ad1be2c89b69c2b068fc378daa952ba7f163c4a11628f55a4df523b3ef60405160405180910390a461175b600083836001611982565b5050565b60606000600161176e84611b0f565b01905060008167ffffffffffffffff81111561178d5761178c612231565b5b6040519080825280601f01601f1916602001820160405280156117bf5781602001600182028036833780820191505090505b509050600082602001820190505b600115611822578080600190039150507f3031323334353637383961626364656600000000000000000000000000000000600a86061a8153600a858161181657611815612f69565b5b049450600085036117cd575b819350505050919050565b6118368261193b565b611875576040517f08c379a000000000000000000000000000000000000000000000000000000000815260040161186c9061300a565b60405180910390fd5b80600660008481526020019081526020016000209081611895919061302a565b507ff8e1a15aba9398e019f0b49df1a4fde98ee17ae345cb5f6b5e2c27f5033e8ce7826040516118c5919061202a565b60405180910390a15050565b60007f01ffc9a7000000000000000000000000000000000000000000000000000000007bffffffffffffffffffffffffffffffffffffffffffffffffffffffff1916827bffffffffffffffffffffffffffffffffffffffffffffffffffffffff1916149050919050565b60008073ffffffffffffffffffffffffffffffffffffffff1661195d836112be565b73ffffffffffffffffffffffffffffffffffffffff1614159050919050565b50505050565b50505050565b60006119a98473ffffffffffffffffffffffffffffffffffffffff16611c62565b15611b02578373ffffffffffffffffffffffffffffffffffffffff1663150b7a026119d2610e6f565b8786866040518563ffffffff1660e01b81526004016119f49493929190613151565b6020604051808303816000875af1925050508015611a3057506040513d601f19601f82011682018060405250810190611a2d91906131b2565b60015b611ab2573d8060008114611a60576040519150601f19603f3d011682016040523d82523d6000602084013e611a65565b606091505b506000815103611aaa576040517f08c379a0000000000000000000000000000000000000000000000000000000008152600401611aa190612e71565b60405180910390fd5b805181602001fd5b63150b7a0260e01b7bffffffffffffffffffffffffffffffffffffffffffffffffffffffff1916817bffffffffffffffffffffffffffffffffffffffffffffffffffffffff191614915050611b07565b600190505b949350505050565b600080600090507a184f03e93ff9f4daa797ed6e38ed64bf6a1f0100000000000000008310611b6d577a184f03e93ff9f4daa797ed6e38ed64bf6a1f0100000000000000008381611b6357611b62612f69565b5b0492506040810190505b6d04ee2d6d415b85acef81000000008310611baa576d04ee2d6d415b85acef81000000008381611ba057611b9f612f69565b5b0492506020810190505b662386f26fc100008310611bd957662386f26fc100008381611bcf57611bce612f69565b5b0492506010810190505b6305f5e1008310611c02576305f5e1008381611bf857611bf7612f69565b5b0492506008810190505b6127108310611c27576127108381611c1d57611c1c612f69565b5b0492506004810190505b60648310611c4a5760648381611c4057611c3f612f69565b5b0492506002810190505b600a8310611c59576001810190505b80915050919050565b6000808273ffffffffffffffffffffffffffffffffffffffff163b119050919050565b828054828255906000526020600020908101928215611cc1579160200282015b82811115611cc0578235825591602001919060010190611ca5565b5b509050611cce9190611cd2565b5090565b5b80821115611ceb576000816000905550600101611cd3565b5090565b6000604051905090565b600080fd5b600080fd5b60007fffffffff0000000000000000000000000000000000000000000000000000000082169050919050565b611d3881611d03565b8114611d4357600080fd5b50565b600081359050611d5581611d2f565b92915050565b600060208284031215611d7157611d70611cf9565b5b6000611d7f84828501611d46565b91505092915050565b60008115159050919050565b611d9d81611d88565b82525050565b6000602082019050611db86000830184611d94565b92915050565b600081519050919050565b600082825260208201905092915050565b60005b83811015611df8578082015181840152602081019050611ddd565b60008484015250505050565b6000601f19601f8301169050919050565b6000611e2082611dbe565b611e2a8185611dc9565b9350611e3a818560208601611dda565b611e4381611e04565b840191505092915050565b60006020820190508181036000830152611e688184611e15565b905092915050565b6000819050919050565b611e8381611e70565b8114611e8e57600080fd5b50565b600081359050611ea081611e7a565b92915050565b600060208284031215611ebc57611ebb611cf9565b5b6000611eca84828501611e91565b91505092915050565b600073ffffffffffffffffffffffffffffffffffffffff82169050919050565b6000611efe82611ed3565b9050919050565b611f0e81611ef3565b82525050565b6000602082019050611f296000830184611f05565b92915050565b611f3881611ef3565b8114611f4357600080fd5b50565b600081359050611f5581611f2f565b92915050565b60008060408385031215611f7257611f71611cf9565b5b6000611f8085828601611f46565b9250506020611f9185828601611e91565b9150509250929050565b600080600060608486031215611fb457611fb3611cf9565b5b6000611fc286828701611f46565b9350506020611fd386828701611f46565b9250506040611fe486828701611e91565b9150509250925092565b60006020828403121561200457612003611cf9565b5b600061201284828501611f46565b91505092915050565b61202481611e70565b82525050565b600060208201905061203f600083018461201b565b92915050565b600080fd5b600080fd5b600080fd5b60008083601f84011261206a57612069612045565b5b8235905067ffffffffffffffff8111156120875761208661204a565b5b6020830191508360208202830111156120a3576120a261204f565b5b9250929050565b6000806000604084860312156120c3576120c2611cf9565b5b60006120d186828701611e91565b935050602084013567ffffffffffffffff8111156120f2576120f1611cfe565b5b6120fe86828701612054565b92509250509250925092565b61211381611d88565b811461211e57600080fd5b50565b6000813590506121308161210a565b92915050565b6000806040838503121561214d5761214c611cf9565b5b600061215b85828601611f46565b925050602061216c85828601612121565b9150509250929050565b60008083601f84011261218c5761218b612045565b5b8235905067ffffffffffffffff8111156121a9576121a861204a565b5b6020830191508360018202830111156121c5576121c461204f565b5b9250929050565b6000806000604084860312156121e5576121e4611cf9565b5b60006121f386828701611e91565b935050602084013567ffffffffffffffff81111561221457612213611cfe565b5b61222086828701612176565b92509250509250925092565b600080fd5b7f4e487b7100000000000000000000000000000000000000000000000000000000600052604160045260246000fd5b61226982611e04565b810181811067ffffffffffffffff8211171561228857612287612231565b5b80604052505050565b600061229b611cef565b90506122a78282612260565b919050565b600067ffffffffffffffff8211156122c7576122c6612231565b5b6122d082611e04565b9050602081019050919050565b82818337600083830152505050565b60006122ff6122fa846122ac565b612291565b90508281526020810184848401111561231b5761231a61222c565b5b6123268482856122dd565b509392505050565b600082601f83011261234357612342612045565b5b81356123538482602086016122ec565b91505092915050565b6000806000806080858703121561237657612375611cf9565b5b600061238487828801611f46565b945050602061239587828801611f46565b93505060406123a687828801611e91565b925050606085013567ffffffffffffffff8111156123c7576123c6611cfe565b5b6123d38782880161232e565b91505092959194509250565b6000806000606084860312156123f8576123f7611cf9565b5b600061240686828701611e91565b935050602061241786828701611e91565b925050604061242886828701611e91565b9150509250925092565b600080600080600080600060a0888a03121561245157612450611cf9565b5b600061245f8a828b01611f46565b97505060206124708a828b01611e91565b96505060406124818a828b01611e91565b955050606088013567ffffffffffffffff8111156124a2576124a1611cfe565b5b6124ae8a828b01612176565b9450945050608088013567ffffffffffffffff8111156124d1576124d0611cfe565b5b6124dd8a828b01612054565b925092505092959891949750929550565b6000806040838503121561250557612504611cf9565b5b600061251385828601611f46565b925050602061252485828601611f46565b9150509250929050565b7f4e487b7100000000000000000000000000000000000000000000000000000000600052602260045260246000fd5b6000600282049050600182168061257557607f821691505b6020821081036125885761258761252e565b5b50919050565b7f4552433732313a20617070726f76616c20746f2063757272656e74206f776e6560008201527f7200000000000000000000000000000000000000000000000000000000000000602082015250565b60006125ea602183611dc9565b91506125f58261258e565b604082019050919050565b60006020820190508181036000830152612619816125dd565b9050919050565b7f4552433732313a20617070726f76652063616c6c6572206973206e6f7420746f60008201527f6b656e206f776e6572206f7220617070726f76656420666f7220616c6c000000602082015250565b600061267c603d83611dc9565b915061268782612620565b604082019050919050565b600060208201905081810360008301526126ab8161266f565b9050919050565b7f4552433732313a2063616c6c6572206973206e6f7420746f6b656e206f776e6560008201527f72206f7220617070726f76656400000000000000000000000000000000000000602082015250565b600061270e602d83611dc9565b9150612719826126b2565b604082019050919050565b6000602082019050818103600083015261273d81612701565b9050919050565b7f4552433732313a20696e76616c696420746f6b656e2049440000000000000000600082015250565b600061277a601883611dc9565b915061278582612744565b602082019050919050565b600060208201905081810360008301526127a98161276d565b9050919050565b7f4552433732313a2061646472657373207a65726f206973206e6f74206120766160008201527f6c6964206f776e65720000000000000000000000000000000000000000000000602082015250565b600061280c602983611dc9565b9150612817826127b0565b604082019050919050565b6000602082019050818103600083015261283b816127ff565b9050919050565b7f43616c6c6572206973206e6f74206f776e6572206e6f7220617070726f766564600082015250565b6000612878602083611dc9565b915061288382612842565b602082019050919050565b600060208201905081810360008301526128a78161286b565b9050919050565b7f4e487b7100000000000000000000000000000000000000000000000000000000600052603260045260246000fd5b7f4e487b7100000000000000000000000000000000000000000000000000000000600052601160045260246000fd5b600061291782611e70565b91507fffffffffffffffffffffffffffffffffffffffffffffffffffffffffffffffff8203612949576129486128dd565b5b600182019050919050565b600082905092915050565b60008190508160005260206000209050919050565b60006020601f8301049050919050565b600082821b905092915050565b6000600883026129c17fffffffffffffffffffffffffffffffffffffffffffffffffffffffffffffffff82612984565b6129cb8683612984565b95508019841693508086168417925050509392505050565b6000819050919050565b6000612a08612a036129fe84611e70565b6129e3565b611e70565b9050919050565b6000819050919050565b612a22836129ed565b612a36612a2e82612a0f565b848454612991565b825550505050565b600090565b612a4b612a3e565b612a56818484612a19565b505050565b5b81811015612a7a57612a6f600082612a43565b600181019050612a5c565b5050565b601f821115612abf57612a908161295f565b612a9984612974565b81016020851015612aa8578190505b612abc612ab485612974565b830182612a5b565b50505b505050565b600082821c905092915050565b6000612ae260001984600802612ac4565b1980831691505092915050565b6000612afb8383612ad1565b9150826002028217905092915050565b612b158383612954565b67ffffffffffffffff811115612b2e57612b2d612231565b5b612b38825461255d565b612b43828285612a7e565b6000601f831160018114612b725760008415612b60578287013590505b612b6a8582612aef565b865550612bd2565b601f198416612b808661295f565b60005b82811015612ba857848901358255600182019150602085019450602081019050612b83565b86831015612bc55784890135612bc1601f891682612ad1565b8355505b6001600288020188555050505b50505050505050565b600081905092915050565b6000612bf182611dbe565b612bfb8185612bdb565b9350612c0b818560208601611dda565b80840191505092915050565b6000612c238285612be6565b9150612c2f8284612be6565b91508190509392505050565b6000612c4682611e70565b9150612c5183611e70565b9250828201905080821115612c6957612c686128dd565b5b92915050565b7f4552433732313a207472616e736665722066726f6d20696e636f72726563742060008201527f6f776e6572000000000000000000000000000000000000000000000000000000602082015250565b6000612ccb602583611dc9565b9150612cd682612c6f565b604082019050919050565b60006020820190508181036000830152612cfa81612cbe565b9050919050565b7f4552433732313a207472616e7366657220746f20746865207a65726f2061646460008201527f7265737300000000000000000000000000000000000000000000000000000000602082015250565b6000612d5d602483611dc9565b9150612d6882612d01565b604082019050919050565b60006020820190508181036000830152612d8c81612d50565b9050919050565b7f4552433732313a20617070726f766520746f2063616c6c657200000000000000600082015250565b6000612dc9601983611dc9565b9150612dd482612d93565b602082019050919050565b60006020820190508181036000830152612df881612dbc565b9050919050565b7f4552433732313a207472616e7366657220746f206e6f6e20455243373231526560008201527f63656976657220696d706c656d656e7465720000000000000000000000000000602082015250565b6000612e5b603283611dc9565b9150612e6682612dff565b604082019050919050565b60006020820190508181036000830152612e8a81612e4e565b9050919050565b7f4552433732313a206d696e7420746f20746865207a65726f2061646472657373600082015250565b6000612ec7602083611dc9565b9150612ed282612e91565b602082019050919050565b60006020820190508181036000830152612ef681612eba565b9050919050565b7f4552433732313a20746f6b656e20616c7265616479206d696e74656400000000600082015250565b6000612f33601c83611dc9565b9150612f3e82612efd565b602082019050919050565b60006020820190508181036000830152612f6281612f26565b9050919050565b7f4e487b7100000000000000000000000000000000000000000000000000000000600052601260045260246000fd5b7f45524337323155524953746f726167653a2055524920736574206f66206e6f6e60008201527f6578697374656e7420746f6b656e000000000000000000000000000000000000602082015250565b6000612ff4602e83611dc9565b9150612fff82612f98565b604082019050919050565b6000602082019050818103600083015261302381612fe7565b9050919050565b61303382611dbe565b67ffffffffffffffff81111561304c5761304b612231565b5b613056825461255d565b613061828285612a7e565b600060209050601f8311600181146130945760008415613082578287015190505b61308c8582612aef565b8655506130f4565b601f1984166130a28661295f565b60005b828110156130ca578489015182556001820191506020850194506020810190506130a5565b868310156130e757848901516130e3601f891682612ad1565b8355505b6001600288020188555050505b505050505050565b600081519050919050565b600082825260208201905092915050565b6000613123826130fc565b61312d8185613107565b935061313d818560208601611dda565b61314681611e04565b840191505092915050565b60006080820190506131666000830187611f05565b6131736020830186611f05565b613180604083018561201b565b81810360608301526131928184613118565b905095945050505050565b6000815190506131ac81611d2f565b92915050565b6000602082840312156131c8576131c7611cf9565b5b60006131d68482850161319d565b9150509291505056fea2646970667358221220ac7cab5e06a01c4474babb4fd52b9301072b367c91d43966fa24166aeb68428764736f6c63430008130033",
  "immutableReferences": {},
  "source": "// SPDX-License-Identifier: MIT\npragma solidity ^0.8.19;\n\nimport '../node_modules/@openzeppelin/contracts/utils/Counters.sol';\nimport '../node_modules/@openzeppelin/contracts/token/ERC721/ERC721.sol';\nimport '../node_modules/@openzeppelin/contracts/token/ERC721/extensions/ERC721URIStorage.sol';\n\ncontract ProjectNFT is ERC721URIStorage {\n  uint256 public tokenCounter;\n\n  // Maps tokenId to project's price\n  mapping(uint256 => uint256) private tokenIdToPrice;\n\n  // Maps tokenId to royalty price\n  mapping(uint256 => uint256) private tokenIdToRoyaltyPrice;\n\n  // Maps tokenId to hash of project\n  mapping(uint256 => string) private tokenIdToHash;\n\n  // Maps tokenId to list of components of project\n  mapping(uint256 => uint256[]) private tokenIdToComponents;\n\n  constructor() ERC721('DesignerNFT', 'DNFT') {\n    tokenCounter = 1;\n  }\n\n  function mintToken(\n    address sender,\n    uint256 price,\n    uint256 royaltyPrice,\n    string calldata projectHash,\n    uint256[] calldata components\n  ) public returns (uint256) {\n    //base_uri\n\n    uint256 newItemId = tokenCounter;\n\n    _mint(sender, newItemId);\n\n    //uri = base_uri + newItemId\n    string memory baseUri = \"localhost:3000/nfts/\";\n    string memory uri = string.concat(baseUri, Strings.toString(newItemId));\n    _setTokenURI(newItemId, uri);\n\n    tokenCounter = tokenCounter + 1;\n\n    setTokenHash(newItemId, projectHash);\n    setTokenPrice(newItemId, price, royaltyPrice);\n    setTokenComponents(newItemId, components);\n\n    return newItemId;\n  }\n\n  function setTokenPrice(uint256 tokenId, uint256 price, uint256 royaltyPrice) public {\n    require(_isApprovedOrOwner(msg.sender, tokenId), 'Caller is not owner nor approved');\n    tokenIdToPrice[tokenId] = price;\n    tokenIdToRoyaltyPrice[tokenId] = royaltyPrice;\n  }\n\n  function getTokenPrice(uint256 tokenId) public view returns (uint256) {\n    require(tokenId < tokenCounter);\n    return tokenIdToPrice[tokenId];\n  }\n\n  function setTokenHash(uint256 tokenId, string calldata hash) public {\n    require(_isApprovedOrOwner(msg.sender, tokenId), 'Caller is not owner nor approved');\n    tokenIdToHash[tokenId] = hash;\n  }\n\n  function setTokenComponents(uint256 tokenId, uint256[] calldata components) public {\n    require(_isApprovedOrOwner(msg.sender, tokenId), 'Caller is not owner nor approved');\n    // Check components exists\n    for (uint i = 0; i < components.length; i++) {\n        require(components[i] < tokenCounter);\n    }\n    tokenIdToComponents[tokenId] = components;\n  }\n\n\n}\n",
  "sourcePath": "/home/matteo/Projects/Uni/blockchain-project/contracts/ProjectNFT.sol",
  "compiler": {
    "name": "solc",
    "version": "0.8.19+commit.7dd6d404.Emscripten.clang"
  },
  "schemaVersion": "3.4.13",
  "updatedAt": "2023-06-21T14:23:10.788Z",
  "devdoc": {
    "events": {
      "Approval(address,address,uint256)": {
        "details": "Emitted when `owner` enables `approved` to manage the `tokenId` token."
      },
      "ApprovalForAll(address,address,bool)": {
        "details": "Emitted when `owner` enables or disables (`approved`) `operator` to manage all of its assets."
      },
      "BatchMetadataUpdate(uint256,uint256)": {
        "details": "This event emits when the metadata of a range of tokens is changed. So that the third-party platforms such as NFT market could timely update the images and related attributes of the NFTs."
      },
      "MetadataUpdate(uint256)": {
        "details": "This event emits when the metadata of a token is changed. So that the third-party platforms such as NFT market could timely update the images and related attributes of the NFT."
      },
      "Transfer(address,address,uint256)": {
        "details": "Emitted when `tokenId` token is transferred from `from` to `to`."
      }
    },
    "kind": "dev",
    "methods": {
      "approve(address,uint256)": {
        "details": "See {IERC721-approve}."
      },
      "balanceOf(address)": {
        "details": "See {IERC721-balanceOf}."
      },
      "getApproved(uint256)": {
        "details": "See {IERC721-getApproved}."
      },
      "isApprovedForAll(address,address)": {
        "details": "See {IERC721-isApprovedForAll}."
      },
      "name()": {
        "details": "See {IERC721Metadata-name}."
      },
      "ownerOf(uint256)": {
        "details": "See {IERC721-ownerOf}."
      },
      "safeTransferFrom(address,address,uint256)": {
        "details": "See {IERC721-safeTransferFrom}."
      },
      "safeTransferFrom(address,address,uint256,bytes)": {
        "details": "See {IERC721-safeTransferFrom}."
      },
      "setApprovalForAll(address,bool)": {
        "details": "See {IERC721-setApprovalForAll}."
      },
      "supportsInterface(bytes4)": {
        "details": "See {IERC165-supportsInterface}"
      },
      "symbol()": {
        "details": "See {IERC721Metadata-symbol}."
      },
      "tokenURI(uint256)": {
        "details": "See {IERC721Metadata-tokenURI}."
      },
      "transferFrom(address,address,uint256)": {
        "details": "See {IERC721-transferFrom}."
      }
    },
    "version": 1
  },
  "userdoc": {
    "kind": "user",
    "methods": {},
    "version": 1
  }
}