{
  "contractName": "ProjectNFT",
  "abi": [
    {
      "inputs": [],
      "stateMutability": "nonpayable",
      "type": "constructor"
    },
    {
      "anonymous": false,
      "inputs": [
        {
          "indexed": true,
          "internalType": "address",
          "name": "owner",
          "type": "address"
        },
        {
          "indexed": true,
          "internalType": "address",
          "name": "approved",
          "type": "address"
        },
        {
          "indexed": true,
          "internalType": "uint256",
          "name": "tokenId",
          "type": "uint256"
        }
      ],
      "name": "Approval",
      "type": "event"
    },
    {
      "anonymous": false,
      "inputs": [
        {
          "indexed": true,
          "internalType": "address",
          "name": "owner",
          "type": "address"
        },
        {
          "indexed": true,
          "internalType": "address",
          "name": "operator",
          "type": "address"
        },
        {
          "indexed": false,
          "internalType": "bool",
          "name": "approved",
          "type": "bool"
        }
      ],
      "name": "ApprovalForAll",
      "type": "event"
    },
    {
      "anonymous": false,
      "inputs": [
        {
          "indexed": false,
          "internalType": "uint256",
          "name": "_fromTokenId",
          "type": "uint256"
        },
        {
          "indexed": false,
          "internalType": "uint256",
          "name": "_toTokenId",
          "type": "uint256"
        }
      ],
      "name": "BatchMetadataUpdate",
      "type": "event"
    },
    {
      "anonymous": false,
      "inputs": [
        {
          "indexed": false,
          "internalType": "uint256",
          "name": "_tokenId",
          "type": "uint256"
        }
      ],
      "name": "MetadataUpdate",
      "type": "event"
    },
    {
      "anonymous": false,
      "inputs": [
        {
          "indexed": true,
          "internalType": "address",
          "name": "from",
          "type": "address"
        },
        {
          "indexed": true,
          "internalType": "address",
          "name": "to",
          "type": "address"
        },
        {
          "indexed": true,
          "internalType": "uint256",
          "name": "tokenId",
          "type": "uint256"
        }
      ],
      "name": "Transfer",
      "type": "event"
    },
    {
      "inputs": [
        {
          "internalType": "address",
          "name": "to",
          "type": "address"
        },
        {
          "internalType": "uint256",
          "name": "tokenId",
          "type": "uint256"
        }
      ],
      "name": "approve",
      "outputs": [],
      "stateMutability": "nonpayable",
      "type": "function"
    },
    {
      "inputs": [
        {
          "internalType": "address",
          "name": "owner",
          "type": "address"
        }
      ],
      "name": "balanceOf",
      "outputs": [
        {
          "internalType": "uint256",
          "name": "",
          "type": "uint256"
        }
      ],
      "stateMutability": "view",
      "type": "function",
      "constant": true
    },
    {
      "inputs": [
        {
          "internalType": "uint256",
          "name": "tokenId",
          "type": "uint256"
        }
      ],
      "name": "getApproved",
      "outputs": [
        {
          "internalType": "address",
          "name": "",
          "type": "address"
        }
      ],
      "stateMutability": "view",
      "type": "function",
      "constant": true
    },
    {
      "inputs": [
        {
          "internalType": "address",
          "name": "owner",
          "type": "address"
        },
        {
          "internalType": "address",
          "name": "operator",
          "type": "address"
        }
      ],
      "name": "isApprovedForAll",
      "outputs": [
        {
          "internalType": "bool",
          "name": "",
          "type": "bool"
        }
      ],
      "stateMutability": "view",
      "type": "function",
      "constant": true
    },
    {
      "inputs": [],
      "name": "name",
      "outputs": [
        {
          "internalType": "string",
          "name": "",
          "type": "string"
        }
      ],
      "stateMutability": "view",
      "type": "function",
      "constant": true
    },
    {
      "inputs": [
        {
          "internalType": "uint256",
          "name": "tokenId",
          "type": "uint256"
        }
      ],
      "name": "ownerOf",
      "outputs": [
        {
          "internalType": "address",
          "name": "",
          "type": "address"
        }
      ],
      "stateMutability": "view",
      "type": "function",
      "constant": true
    },
    {
      "inputs": [
        {
          "internalType": "address",
          "name": "from",
          "type": "address"
        },
        {
          "internalType": "address",
          "name": "to",
          "type": "address"
        },
        {
          "internalType": "uint256",
          "name": "tokenId",
          "type": "uint256"
        }
      ],
      "name": "safeTransferFrom",
      "outputs": [],
      "stateMutability": "nonpayable",
      "type": "function"
    },
    {
      "inputs": [
        {
          "internalType": "address",
          "name": "from",
          "type": "address"
        },
        {
          "internalType": "address",
          "name": "to",
          "type": "address"
        },
        {
          "internalType": "uint256",
          "name": "tokenId",
          "type": "uint256"
        },
        {
          "internalType": "bytes",
          "name": "data",
          "type": "bytes"
        }
      ],
      "name": "safeTransferFrom",
      "outputs": [],
      "stateMutability": "nonpayable",
      "type": "function"
    },
    {
      "inputs": [
        {
          "internalType": "address",
          "name": "operator",
          "type": "address"
        },
        {
          "internalType": "bool",
          "name": "approved",
          "type": "bool"
        }
      ],
      "name": "setApprovalForAll",
      "outputs": [],
      "stateMutability": "nonpayable",
      "type": "function"
    },
    {
      "inputs": [
        {
          "internalType": "bytes4",
          "name": "interfaceId",
          "type": "bytes4"
        }
      ],
      "name": "supportsInterface",
      "outputs": [
        {
          "internalType": "bool",
          "name": "",
          "type": "bool"
        }
      ],
      "stateMutability": "view",
      "type": "function",
      "constant": true
    },
    {
      "inputs": [],
      "name": "symbol",
      "outputs": [
        {
          "internalType": "string",
          "name": "",
          "type": "string"
        }
      ],
      "stateMutability": "view",
      "type": "function",
      "constant": true
    },
    {
      "inputs": [],
      "name": "tokenCounter",
      "outputs": [
        {
          "internalType": "uint256",
          "name": "",
          "type": "uint256"
        }
      ],
      "stateMutability": "view",
      "type": "function",
      "constant": true
    },
    {
      "inputs": [
        {
          "internalType": "uint256",
          "name": "tokenId",
          "type": "uint256"
        }
      ],
      "name": "tokenURI",
      "outputs": [
        {
          "internalType": "string",
          "name": "",
          "type": "string"
        }
      ],
      "stateMutability": "view",
      "type": "function",
      "constant": true
    },
    {
      "inputs": [
        {
          "internalType": "address",
          "name": "from",
          "type": "address"
        },
        {
          "internalType": "address",
          "name": "to",
          "type": "address"
        },
        {
          "internalType": "uint256",
          "name": "tokenId",
          "type": "uint256"
        }
      ],
      "name": "transferFrom",
      "outputs": [],
      "stateMutability": "nonpayable",
      "type": "function"
    },
    {
      "inputs": [
        {
          "internalType": "address",
          "name": "sender",
          "type": "address"
        },
        {
          "internalType": "uint256",
          "name": "price",
          "type": "uint256"
        },
        {
          "internalType": "uint256",
          "name": "royaltyPrice",
          "type": "uint256"
        },
        {
          "internalType": "string",
          "name": "projectHash",
          "type": "string"
        },
        {
          "internalType": "uint256[]",
          "name": "components",
          "type": "uint256[]"
        }
      ],
      "name": "mintToken",
      "outputs": [
        {
          "internalType": "uint256",
          "name": "",
          "type": "uint256"
        }
      ],
      "stateMutability": "nonpayable",
      "type": "function"
    },
    {
      "inputs": [
        {
          "internalType": "uint256",
          "name": "tokenId",
          "type": "uint256"
        }
      ],
      "name": "getTokenPrice",
      "outputs": [
        {
          "internalType": "uint256",
          "name": "",
          "type": "uint256"
        }
      ],
      "stateMutability": "view",
      "type": "function",
      "constant": true
    },
    {
      "inputs": [
        {
          "internalType": "uint256",
          "name": "tokenId",
          "type": "uint256"
        }
      ],
      "name": "getTokenRoyaltyPrice",
      "outputs": [
        {
          "internalType": "uint256",
          "name": "",
          "type": "uint256"
        }
      ],
      "stateMutability": "view",
      "type": "function",
      "constant": true
    },
    {
      "inputs": [
        {
          "internalType": "uint256",
          "name": "tokenId",
          "type": "uint256"
        }
      ],
      "name": "getTokenBuyPrice",
      "outputs": [
        {
          "internalType": "uint256",
          "name": "",
          "type": "uint256"
        }
      ],
      "stateMutability": "view",
      "type": "function",
      "constant": true
    },
    {
      "inputs": [
        {
          "internalType": "uint256",
          "name": "tokenId",
          "type": "uint256"
        }
      ],
      "name": "getProjectHash",
      "outputs": [
        {
          "internalType": "string",
          "name": "",
          "type": "string"
        }
      ],
      "stateMutability": "view",
      "type": "function",
      "constant": true
    },
    {
      "inputs": [
        {
          "internalType": "uint256",
          "name": "tokenId",
          "type": "uint256"
        }
      ],
      "name": "getTokenComponents",
      "outputs": [
        {
          "internalType": "uint256[]",
          "name": "",
          "type": "uint256[]"
        }
      ],
      "stateMutability": "view",
      "type": "function",
      "constant": true
    }
  ],
  "bytecode": "0x60806040523480156200001157600080fd5b506040518060400160405280600b81526020017f44657369676e65724e46540000000000000000000000000000000000000000008152506040518060400160405280600481526020017f444e46540000000000000000000000000000000000000000000000000000000081525081600090816200008f91906200032c565b508060019081620000a191906200032c565b505050600160078190555062000413565b600081519050919050565b7f4e487b7100000000000000000000000000000000000000000000000000000000600052604160045260246000fd5b7f4e487b7100000000000000000000000000000000000000000000000000000000600052602260045260246000fd5b600060028204905060018216806200013457607f821691505b6020821081036200014a5762000149620000ec565b5b50919050565b60008190508160005260206000209050919050565b60006020601f8301049050919050565b600082821b905092915050565b600060088302620001b47fffffffffffffffffffffffffffffffffffffffffffffffffffffffffffffffff8262000175565b620001c0868362000175565b95508019841693508086168417925050509392505050565b6000819050919050565b6000819050919050565b60006200020d620002076200020184620001d8565b620001e2565b620001d8565b9050919050565b6000819050919050565b6200022983620001ec565b62000241620002388262000214565b84845462000182565b825550505050565b600090565b6200025862000249565b620002658184846200021e565b505050565b5b818110156200028d57620002816000826200024e565b6001810190506200026b565b5050565b601f821115620002dc57620002a68162000150565b620002b18462000165565b81016020851015620002c1578190505b620002d9620002d08562000165565b8301826200026a565b50505b505050565b600082821c905092915050565b60006200030160001984600802620002e1565b1980831691505092915050565b60006200031c8383620002ee565b9150826002028217905092915050565b6200033782620000b2565b67ffffffffffffffff811115620003535762000352620000bd565b5b6200035f82546200011b565b6200036c82828562000291565b600060209050601f831160018114620003a457600084156200038f578287015190505b6200039b85826200030e565b8655506200040b565b601f198416620003b48662000150565b60005b82811015620003de57848901518255600182019150602085019450602081019050620003b7565b86831015620003fe5784890151620003fa601f891682620002ee565b8355505b6001600288020188555050505b505050505050565b61351480620004236000396000f3fe608060405234801561001057600080fd5b506004361061012c5760003560e01c806395d89b41116100ad578063c739acb011610071578063c739acb014610379578063c87b56dd146103a9578063cb9d7415146103d9578063d082e38114610409578063e985e9c5146104275761012c565b806395d89b41146102c3578063a082dfc2146102e1578063a22cb46514610311578063b88d4fde1461032d578063c457fb37146103495761012c565b806323b872dd116100f457806323b872dd146101fb57806342842e0e1461021757806351bbee6f146102335780636352211e1461026357806370a08231146102935761012c565b806301ffc9a71461013157806306fdde0314610161578063081812fc1461017f578063095ea7b3146101af578063118c66c7146101cb575b600080fd5b61014b60048036038101906101469190611fbd565b610457565b6040516101589190612005565b60405180910390f35b6101696104b8565b60405161017691906120b0565b60405180910390f35b61019960048036038101906101949190612108565b61054a565b6040516101a69190612176565b60405180910390f35b6101c960048036038101906101c491906121bd565b610590565b005b6101e560048036038101906101e09190612108565b6106a7565b6040516101f291906120b0565b60405180910390f35b610215600480360381019061021091906121fd565b61075a565b005b610231600480360381019061022c91906121fd565b6107ba565b005b61024d60048036038101906102489190612108565b6107da565b60405161025a919061225f565b60405180910390f35b61027d60048036038101906102789190612108565b61089b565b60405161028a9190612176565b60405180910390f35b6102ad60048036038101906102a8919061227a565b610921565b6040516102ba919061225f565b60405180910390f35b6102cb6109d8565b6040516102d891906120b0565b60405180910390f35b6102fb60048036038101906102f69190612108565b610a6a565b6040516103089190612365565b60405180910390f35b61032b600480360381019061032691906123b3565b610ae3565b005b61034760048036038101906103429190612528565b610af9565b005b610363600480360381019061035e9190612108565b610b5b565b604051610370919061225f565b60405180910390f35b610393600480360381019061038e9190612108565b610b86565b6040516103a0919061225f565b60405180910390f35b6103c360048036038101906103be9190612108565b610bb1565b6040516103d091906120b0565b60405180910390f35b6103f360048036038101906103ee9190612661565b610cc3565b604051610400919061225f565b60405180910390f35b610411610f0a565b60405161041e919061225f565b60405180910390f35b610441600480360381019061043c919061271d565b610f10565b60405161044e9190612005565b60405180910390f35b6000634906490660e01b7bffffffffffffffffffffffffffffffffffffffffffffffffffffffff1916827bffffffffffffffffffffffffffffffffffffffffffffffffffffffff191614806104b157506104b082610fa4565b5b9050919050565b6060600080546104c79061278c565b80601f01602080910402602001604051908101604052809291908181526020018280546104f39061278c565b80156105405780601f1061051557610100808354040283529160200191610540565b820191906000526020600020905b81548152906001019060200180831161052357829003601f168201915b5050505050905090565b600061055582611086565b6004600083815260200190815260200160002060009054906101000a900473ffffffffffffffffffffffffffffffffffffffff169050919050565b600061059b8261089b565b90508073ffffffffffffffffffffffffffffffffffffffff168373ffffffffffffffffffffffffffffffffffffffff160361060b576040517f08c379a00000000000000000000000000000000000000000000000000000000081526004016106029061282f565b60405180910390fd5b8073ffffffffffffffffffffffffffffffffffffffff1661062a6110d1565b73ffffffffffffffffffffffffffffffffffffffff1614806106595750610658816106536110d1565b610f10565b5b610698576040517f08c379a000000000000000000000000000000000000000000000000000000000815260040161068f906128c1565b60405180910390fd5b6106a283836110d9565b505050565b606060075482106106b757600080fd5b600a600083815260200190815260200160002080546106d59061278c565b80601f01602080910402602001604051908101604052809291908181526020018280546107019061278c565b801561074e5780601f106107235761010080835404028352916020019161074e565b820191906000526020600020905b81548152906001019060200180831161073157829003601f168201915b50505050509050919050565b61076b6107656110d1565b82611192565b6107aa576040517f08c379a00000000000000000000000000000000000000000000000000000000081526004016107a190612953565b60405180910390fd5b6107b5838383611227565b505050565b6107d583838360405180602001604052806000815250610af9565b505050565b600060075482106107ea57600080fd5b600060086000848152602001908152602001600020548161080b91906129a2565b905060005b600b6000858152602001908152602001600020805490508110156108915760086000600b60008781526020019081526020016000208381548110610857576108566129d6565b5b90600052602060002001548152602001908152602001600020548261087c91906129a2565b9150808061088990612a05565b915050610810565b5080915050919050565b6000806108a783611520565b9050600073ffffffffffffffffffffffffffffffffffffffff168173ffffffffffffffffffffffffffffffffffffffff1603610918576040517f08c379a000000000000000000000000000000000000000000000000000000000815260040161090f90612a99565b60405180910390fd5b80915050919050565b60008073ffffffffffffffffffffffffffffffffffffffff168273ffffffffffffffffffffffffffffffffffffffff1603610991576040517f08c379a000000000000000000000000000000000000000000000000000000000815260040161098890612b2b565b60405180910390fd5b600360008373ffffffffffffffffffffffffffffffffffffffff1673ffffffffffffffffffffffffffffffffffffffff168152602001908152602001600020549050919050565b6060600180546109e79061278c565b80601f0160208091040260200160405190810160405280929190818152602001828054610a139061278c565b8015610a605780601f10610a3557610100808354040283529160200191610a60565b820191906000526020600020905b815481529060010190602001808311610a4357829003601f168201915b5050505050905090565b60606007548210610a7a57600080fd5b600b6000838152602001908152602001600020805480602002602001604051908101604052809291908181526020018280548015610ad757602002820191906000526020600020905b815481526020019060010190808311610ac3575b50505050509050919050565b610af5610aee6110d1565b838361155d565b5050565b610b0a610b046110d1565b83611192565b610b49576040517f08c379a0000000000000000000000000000000000000000000000000000000008152600401610b4090612953565b60405180910390fd5b610b55848484846116c9565b50505050565b60006007548210610b6b57600080fd5b60086000838152602001908152602001600020549050919050565b60006007548210610b9657600080fd5b60096000838152602001908152602001600020549050919050565b6060610bbc82611086565b6000600660008481526020019081526020016000208054610bdc9061278c565b80601f0160208091040260200160405190810160405280929190818152602001828054610c089061278c565b8015610c555780601f10610c2a57610100808354040283529160200191610c55565b820191906000526020600020905b815481529060010190602001808311610c3857829003601f168201915b505050505090506000610c66611725565b90506000815103610c7b578192505050610cbe565b600082511115610cb0578082604051602001610c98929190612b87565b60405160208183030381529060405292505050610cbe565b610cb98461173c565b925050505b919050565b6000600c8585604051610cd7929190612bd0565b908152602001604051809103902060009054906101000a900460ff1615610d33576040517f08c379a0000000000000000000000000000000000000000000000000000000008152600401610d2a90612c5b565b60405180910390fd5b60005b83839050811015610db157600754848483818110610d5757610d566129d6565b5b9050602002013510610d9e576040517f08c379a0000000000000000000000000000000000000000000000000000000008152600401610d9590612cc7565b60405180910390fd5b8080610da990612a05565b915050610d36565b5060006007549050610dc389826117a4565b60006040518060400160405280601481526020017f6c6f63616c686f73743a333030302f6e6674732f0000000000000000000000008152509050600081610e09846119c1565b604051602001610e1a929190612b87565b6040516020818303038152906040529050610e358382611a8f565b8960086000858152602001908152602001600020819055508860096000858152602001908152602001600020819055508787600a60008681526020019081526020016000209182610e87929190612e9e565b506001600c8989604051610e9c929190612bd0565b908152602001604051809103902060006101000a81548160ff0219169083151502179055508585600b60008681526020019081526020016000209190610ee3929190611ee7565b506001600754610ef391906129a2565b600781905550829350505050979650505050505050565b60075481565b6000600560008473ffffffffffffffffffffffffffffffffffffffff1673ffffffffffffffffffffffffffffffffffffffff16815260200190815260200160002060008373ffffffffffffffffffffffffffffffffffffffff1673ffffffffffffffffffffffffffffffffffffffff16815260200190815260200160002060009054906101000a900460ff16905092915050565b60007f80ac58cd000000000000000000000000000000000000000000000000000000007bffffffffffffffffffffffffffffffffffffffffffffffffffffffff1916827bffffffffffffffffffffffffffffffffffffffffffffffffffffffff1916148061106f57507f5b5e139f000000000000000000000000000000000000000000000000000000007bffffffffffffffffffffffffffffffffffffffffffffffffffffffff1916827bffffffffffffffffffffffffffffffffffffffffffffffffffffffff1916145b8061107f575061107e82611b33565b5b9050919050565b61108f81611b9d565b6110ce576040517f08c379a00000000000000000000000000000000000000000000000000000000081526004016110c590612a99565b60405180910390fd5b50565b600033905090565b816004600083815260200190815260200160002060006101000a81548173ffffffffffffffffffffffffffffffffffffffff021916908373ffffffffffffffffffffffffffffffffffffffff160217905550808273ffffffffffffffffffffffffffffffffffffffff1661114c8361089b565b73ffffffffffffffffffffffffffffffffffffffff167f8c5be1e5ebec7d5bd14f71427d1e84f3dd0314c0f7b2291e5b200ac8c7c3b92560405160405180910390a45050565b60008061119e8361089b565b90508073ffffffffffffffffffffffffffffffffffffffff168473ffffffffffffffffffffffffffffffffffffffff1614806111e057506111df8185610f10565b5b8061121e57508373ffffffffffffffffffffffffffffffffffffffff166112068461054a565b73ffffffffffffffffffffffffffffffffffffffff16145b91505092915050565b8273ffffffffffffffffffffffffffffffffffffffff166112478261089b565b73ffffffffffffffffffffffffffffffffffffffff161461129d576040517f08c379a000000000000000000000000000000000000000000000000000000000815260040161129490612fe0565b60405180910390fd5b600073ffffffffffffffffffffffffffffffffffffffff168273ffffffffffffffffffffffffffffffffffffffff160361130c576040517f08c379a000000000000000000000000000000000000000000000000000000000815260040161130390613072565b60405180910390fd5b6113198383836001611bde565b8273ffffffffffffffffffffffffffffffffffffffff166113398261089b565b73ffffffffffffffffffffffffffffffffffffffff161461138f576040517f08c379a000000000000000000000000000000000000000000000000000000000815260040161138690612fe0565b60405180910390fd5b6004600082815260200190815260200160002060006101000a81549073ffffffffffffffffffffffffffffffffffffffff02191690556001600360008573ffffffffffffffffffffffffffffffffffffffff1673ffffffffffffffffffffffffffffffffffffffff168152602001908152602001600020600082825403925050819055506001600360008473ffffffffffffffffffffffffffffffffffffffff1673ffffffffffffffffffffffffffffffffffffffff16815260200190815260200160002060008282540192505081905550816002600083815260200190815260200160002060006101000a81548173ffffffffffffffffffffffffffffffffffffffff021916908373ffffffffffffffffffffffffffffffffffffffff160217905550808273ffffffffffffffffffffffffffffffffffffffff168473ffffffffffffffffffffffffffffffffffffffff167fddf252ad1be2c89b69c2b068fc378daa952ba7f163c4a11628f55a4df523b3ef60405160405180910390a461151b8383836001611be4565b505050565b60006002600083815260200190815260200160002060009054906101000a900473ffffffffffffffffffffffffffffffffffffffff169050919050565b8173ffffffffffffffffffffffffffffffffffffffff168373ffffffffffffffffffffffffffffffffffffffff16036115cb576040517f08c379a00000000000000000000000000000000000000000000000000000000081526004016115c2906130de565b60405180910390fd5b80600560008573ffffffffffffffffffffffffffffffffffffffff1673ffffffffffffffffffffffffffffffffffffffff16815260200190815260200160002060008473ffffffffffffffffffffffffffffffffffffffff1673ffffffffffffffffffffffffffffffffffffffff16815260200190815260200160002060006101000a81548160ff0219169083151502179055508173ffffffffffffffffffffffffffffffffffffffff168373ffffffffffffffffffffffffffffffffffffffff167f17307eab39ab6107e8899845ad3d59bd9653f200f220920489ca2b5937696c31836040516116bc9190612005565b60405180910390a3505050565b6116d4848484611227565b6116e084848484611bea565b61171f576040517f08c379a000000000000000000000000000000000000000000000000000000000815260040161171690613170565b60405180910390fd5b50505050565b606060405180602001604052806000815250905090565b606061174782611086565b6000611751611725565b90506000815111611771576040518060200160405280600081525061179c565b8061177b846119c1565b60405160200161178c929190612b87565b6040516020818303038152906040525b915050919050565b600073ffffffffffffffffffffffffffffffffffffffff168273ffffffffffffffffffffffffffffffffffffffff1603611813576040517f08c379a000000000000000000000000000000000000000000000000000000000815260040161180a906131dc565b60405180910390fd5b61181c81611b9d565b1561185c576040517f08c379a000000000000000000000000000000000000000000000000000000000815260040161185390613248565b60405180910390fd5b61186a600083836001611bde565b61187381611b9d565b156118b3576040517f08c379a00000000000000000000000000000000000000000000000000000000081526004016118aa90613248565b60405180910390fd5b6001600360008473ffffffffffffffffffffffffffffffffffffffff1673ffffffffffffffffffffffffffffffffffffffff16815260200190815260200160002060008282540192505081905550816002600083815260200190815260200160002060006101000a81548173ffffffffffffffffffffffffffffffffffffffff021916908373ffffffffffffffffffffffffffffffffffffffff160217905550808273ffffffffffffffffffffffffffffffffffffffff16600073ffffffffffffffffffffffffffffffffffffffff167fddf252ad1be2c89b69c2b068fc378daa952ba7f163c4a11628f55a4df523b3ef60405160405180910390a46119bd600083836001611be4565b5050565b6060600060016119d084611d71565b01905060008167ffffffffffffffff8111156119ef576119ee6123fd565b5b6040519080825280601f01601f191660200182016040528015611a215781602001600182028036833780820191505090505b509050600082602001820190505b600115611a84578080600190039150507f3031323334353637383961626364656600000000000000000000000000000000600a86061a8153600a8581611a7857611a77613268565b5b04945060008503611a2f575b819350505050919050565b611a9882611b9d565b611ad7576040517f08c379a0000000000000000000000000000000000000000000000000000000008152600401611ace90613309565b60405180910390fd5b80600660008481526020019081526020016000209081611af79190613329565b507ff8e1a15aba9398e019f0b49df1a4fde98ee17ae345cb5f6b5e2c27f5033e8ce782604051611b27919061225f565b60405180910390a15050565b60007f01ffc9a7000000000000000000000000000000000000000000000000000000007bffffffffffffffffffffffffffffffffffffffffffffffffffffffff1916827bffffffffffffffffffffffffffffffffffffffffffffffffffffffff1916149050919050565b60008073ffffffffffffffffffffffffffffffffffffffff16611bbf83611520565b73ffffffffffffffffffffffffffffffffffffffff1614159050919050565b50505050565b50505050565b6000611c0b8473ffffffffffffffffffffffffffffffffffffffff16611ec4565b15611d64578373ffffffffffffffffffffffffffffffffffffffff1663150b7a02611c346110d1565b8786866040518563ffffffff1660e01b8152600401611c569493929190613450565b6020604051808303816000875af1925050508015611c9257506040513d601f19601f82011682018060405250810190611c8f91906134b1565b60015b611d14573d8060008114611cc2576040519150601f19603f3d011682016040523d82523d6000602084013e611cc7565b606091505b506000815103611d0c576040517f08c379a0000000000000000000000000000000000000000000000000000000008152600401611d0390613170565b60405180910390fd5b805181602001fd5b63150b7a0260e01b7bffffffffffffffffffffffffffffffffffffffffffffffffffffffff1916817bffffffffffffffffffffffffffffffffffffffffffffffffffffffff191614915050611d69565b600190505b949350505050565b600080600090507a184f03e93ff9f4daa797ed6e38ed64bf6a1f0100000000000000008310611dcf577a184f03e93ff9f4daa797ed6e38ed64bf6a1f0100000000000000008381611dc557611dc4613268565b5b0492506040810190505b6d04ee2d6d415b85acef81000000008310611e0c576d04ee2d6d415b85acef81000000008381611e0257611e01613268565b5b0492506020810190505b662386f26fc100008310611e3b57662386f26fc100008381611e3157611e30613268565b5b0492506010810190505b6305f5e1008310611e64576305f5e1008381611e5a57611e59613268565b5b0492506008810190505b6127108310611e89576127108381611e7f57611e7e613268565b5b0492506004810190505b60648310611eac5760648381611ea257611ea1613268565b5b0492506002810190505b600a8310611ebb576001810190505b80915050919050565b6000808273ffffffffffffffffffffffffffffffffffffffff163b119050919050565b828054828255906000526020600020908101928215611f23579160200282015b82811115611f22578235825591602001919060010190611f07565b5b509050611f309190611f34565b5090565b5b80821115611f4d576000816000905550600101611f35565b5090565b6000604051905090565b600080fd5b600080fd5b60007fffffffff0000000000000000000000000000000000000000000000000000000082169050919050565b611f9a81611f65565b8114611fa557600080fd5b50565b600081359050611fb781611f91565b92915050565b600060208284031215611fd357611fd2611f5b565b5b6000611fe184828501611fa8565b91505092915050565b60008115159050919050565b611fff81611fea565b82525050565b600060208201905061201a6000830184611ff6565b92915050565b600081519050919050565b600082825260208201905092915050565b60005b8381101561205a57808201518184015260208101905061203f565b60008484015250505050565b6000601f19601f8301169050919050565b600061208282612020565b61208c818561202b565b935061209c81856020860161203c565b6120a581612066565b840191505092915050565b600060208201905081810360008301526120ca8184612077565b905092915050565b6000819050919050565b6120e5816120d2565b81146120f057600080fd5b50565b600081359050612102816120dc565b92915050565b60006020828403121561211e5761211d611f5b565b5b600061212c848285016120f3565b91505092915050565b600073ffffffffffffffffffffffffffffffffffffffff82169050919050565b600061216082612135565b9050919050565b61217081612155565b82525050565b600060208201905061218b6000830184612167565b92915050565b61219a81612155565b81146121a557600080fd5b50565b6000813590506121b781612191565b92915050565b600080604083850312156121d4576121d3611f5b565b5b60006121e2858286016121a8565b92505060206121f3858286016120f3565b9150509250929050565b60008060006060848603121561221657612215611f5b565b5b6000612224868287016121a8565b9350506020612235868287016121a8565b9250506040612246868287016120f3565b9150509250925092565b612259816120d2565b82525050565b60006020820190506122746000830184612250565b92915050565b6000602082840312156122905761228f611f5b565b5b600061229e848285016121a8565b91505092915050565b600081519050919050565b600082825260208201905092915050565b6000819050602082019050919050565b6122dc816120d2565b82525050565b60006122ee83836122d3565b60208301905092915050565b6000602082019050919050565b6000612312826122a7565b61231c81856122b2565b9350612327836122c3565b8060005b8381101561235857815161233f88826122e2565b975061234a836122fa565b92505060018101905061232b565b5085935050505092915050565b6000602082019050818103600083015261237f8184612307565b905092915050565b61239081611fea565b811461239b57600080fd5b50565b6000813590506123ad81612387565b92915050565b600080604083850312156123ca576123c9611f5b565b5b60006123d8858286016121a8565b92505060206123e98582860161239e565b9150509250929050565b600080fd5b600080fd5b7f4e487b7100000000000000000000000000000000000000000000000000000000600052604160045260246000fd5b61243582612066565b810181811067ffffffffffffffff82111715612454576124536123fd565b5b80604052505050565b6000612467611f51565b9050612473828261242c565b919050565b600067ffffffffffffffff821115612493576124926123fd565b5b61249c82612066565b9050602081019050919050565b82818337600083830152505050565b60006124cb6124c684612478565b61245d565b9050828152602081018484840111156124e7576124e66123f8565b5b6124f28482856124a9565b509392505050565b600082601f83011261250f5761250e6123f3565b5b813561251f8482602086016124b8565b91505092915050565b6000806000806080858703121561254257612541611f5b565b5b6000612550878288016121a8565b9450506020612561878288016121a8565b9350506040612572878288016120f3565b925050606085013567ffffffffffffffff81111561259357612592611f60565b5b61259f878288016124fa565b91505092959194509250565b600080fd5b600080fd5b60008083601f8401126125cb576125ca6123f3565b5b8235905067ffffffffffffffff8111156125e8576125e76125ab565b5b602083019150836001820283011115612604576126036125b0565b5b9250929050565b60008083601f840112612621576126206123f3565b5b8235905067ffffffffffffffff81111561263e5761263d6125ab565b5b60208301915083602082028301111561265a576126596125b0565b5b9250929050565b600080600080600080600060a0888a0312156126805761267f611f5b565b5b600061268e8a828b016121a8565b975050602061269f8a828b016120f3565b96505060406126b08a828b016120f3565b955050606088013567ffffffffffffffff8111156126d1576126d0611f60565b5b6126dd8a828b016125b5565b9450945050608088013567ffffffffffffffff811115612700576126ff611f60565b5b61270c8a828b0161260b565b925092505092959891949750929550565b6000806040838503121561273457612733611f5b565b5b6000612742858286016121a8565b9250506020612753858286016121a8565b9150509250929050565b7f4e487b7100000000000000000000000000000000000000000000000000000000600052602260045260246000fd5b600060028204905060018216806127a457607f821691505b6020821081036127b7576127b661275d565b5b50919050565b7f4552433732313a20617070726f76616c20746f2063757272656e74206f776e6560008201527f7200000000000000000000000000000000000000000000000000000000000000602082015250565b600061281960218361202b565b9150612824826127bd565b604082019050919050565b600060208201905081810360008301526128488161280c565b9050919050565b7f4552433732313a20617070726f76652063616c6c6572206973206e6f7420746f60008201527f6b656e206f776e6572206f7220617070726f76656420666f7220616c6c000000602082015250565b60006128ab603d8361202b565b91506128b68261284f565b604082019050919050565b600060208201905081810360008301526128da8161289e565b9050919050565b7f4552433732313a2063616c6c6572206973206e6f7420746f6b656e206f776e6560008201527f72206f7220617070726f76656400000000000000000000000000000000000000602082015250565b600061293d602d8361202b565b9150612948826128e1565b604082019050919050565b6000602082019050818103600083015261296c81612930565b9050919050565b7f4e487b7100000000000000000000000000000000000000000000000000000000600052601160045260246000fd5b60006129ad826120d2565b91506129b8836120d2565b92508282019050808211156129d0576129cf612973565b5b92915050565b7f4e487b7100000000000000000000000000000000000000000000000000000000600052603260045260246000fd5b6000612a10826120d2565b91507fffffffffffffffffffffffffffffffffffffffffffffffffffffffffffffffff8203612a4257612a41612973565b5b600182019050919050565b7f4552433732313a20696e76616c696420746f6b656e2049440000000000000000600082015250565b6000612a8360188361202b565b9150612a8e82612a4d565b602082019050919050565b60006020820190508181036000830152612ab281612a76565b9050919050565b7f4552433732313a2061646472657373207a65726f206973206e6f74206120766160008201527f6c6964206f776e65720000000000000000000000000000000000000000000000602082015250565b6000612b1560298361202b565b9150612b2082612ab9565b604082019050919050565b60006020820190508181036000830152612b4481612b08565b9050919050565b600081905092915050565b6000612b6182612020565b612b6b8185612b4b565b9350612b7b81856020860161203c565b80840191505092915050565b6000612b938285612b56565b9150612b9f8284612b56565b91508190509392505050565b6000612bb78385612b4b565b9350612bc48385846124a9565b82840190509392505050565b6000612bdd828486612bab565b91508190509392505050565b7f412070726f6a65637420776974682074686973206861736820616c726561647960008201527f2065786973747300000000000000000000000000000000000000000000000000602082015250565b6000612c4560278361202b565b9150612c5082612be9565b604082019050919050565b60006020820190508181036000830152612c7481612c38565b9050919050565b7f436f6d706f6e656e74206973206e6f7420612076616c69642070726f6a656374600082015250565b6000612cb160208361202b565b9150612cbc82612c7b565b602082019050919050565b60006020820190508181036000830152612ce081612ca4565b9050919050565b600082905092915050565b60008190508160005260206000209050919050565b60006020601f8301049050919050565b600082821b905092915050565b600060088302612d547fffffffffffffffffffffffffffffffffffffffffffffffffffffffffffffffff82612d17565b612d5e8683612d17565b95508019841693508086168417925050509392505050565b6000819050919050565b6000612d9b612d96612d91846120d2565b612d76565b6120d2565b9050919050565b6000819050919050565b612db583612d80565b612dc9612dc182612da2565b848454612d24565b825550505050565b600090565b612dde612dd1565b612de9818484612dac565b505050565b5b81811015612e0d57612e02600082612dd6565b600181019050612def565b5050565b601f821115612e5257612e2381612cf2565b612e2c84612d07565b81016020851015612e3b578190505b612e4f612e4785612d07565b830182612dee565b50505b505050565b600082821c905092915050565b6000612e7560001984600802612e57565b1980831691505092915050565b6000612e8e8383612e64565b9150826002028217905092915050565b612ea88383612ce7565b67ffffffffffffffff811115612ec157612ec06123fd565b5b612ecb825461278c565b612ed6828285612e11565b6000601f831160018114612f055760008415612ef3578287013590505b612efd8582612e82565b865550612f65565b601f198416612f1386612cf2565b60005b82811015612f3b57848901358255600182019150602085019450602081019050612f16565b86831015612f585784890135612f54601f891682612e64565b8355505b6001600288020188555050505b50505050505050565b7f4552433732313a207472616e736665722066726f6d20696e636f72726563742060008201527f6f776e6572000000000000000000000000000000000000000000000000000000602082015250565b6000612fca60258361202b565b9150612fd582612f6e565b604082019050919050565b60006020820190508181036000830152612ff981612fbd565b9050919050565b7f4552433732313a207472616e7366657220746f20746865207a65726f2061646460008201527f7265737300000000000000000000000000000000000000000000000000000000602082015250565b600061305c60248361202b565b915061306782613000565b604082019050919050565b6000602082019050818103600083015261308b8161304f565b9050919050565b7f4552433732313a20617070726f766520746f2063616c6c657200000000000000600082015250565b60006130c860198361202b565b91506130d382613092565b602082019050919050565b600060208201905081810360008301526130f7816130bb565b9050919050565b7f4552433732313a207472616e7366657220746f206e6f6e20455243373231526560008201527f63656976657220696d706c656d656e7465720000000000000000000000000000602082015250565b600061315a60328361202b565b9150613165826130fe565b604082019050919050565b600060208201905081810360008301526131898161314d565b9050919050565b7f4552433732313a206d696e7420746f20746865207a65726f2061646472657373600082015250565b60006131c660208361202b565b91506131d182613190565b602082019050919050565b600060208201905081810360008301526131f5816131b9565b9050919050565b7f4552433732313a20746f6b656e20616c7265616479206d696e74656400000000600082015250565b6000613232601c8361202b565b915061323d826131fc565b602082019050919050565b6000602082019050818103600083015261326181613225565b9050919050565b7f4e487b7100000000000000000000000000000000000000000000000000000000600052601260045260246000fd5b7f45524337323155524953746f726167653a2055524920736574206f66206e6f6e60008201527f6578697374656e7420746f6b656e000000000000000000000000000000000000602082015250565b60006132f3602e8361202b565b91506132fe82613297565b604082019050919050565b60006020820190508181036000830152613322816132e6565b9050919050565b61333282612020565b67ffffffffffffffff81111561334b5761334a6123fd565b5b613355825461278c565b613360828285612e11565b600060209050601f8311600181146133935760008415613381578287015190505b61338b8582612e82565b8655506133f3565b601f1984166133a186612cf2565b60005b828110156133c9578489015182556001820191506020850194506020810190506133a4565b868310156133e657848901516133e2601f891682612e64565b8355505b6001600288020188555050505b505050505050565b600081519050919050565b600082825260208201905092915050565b6000613422826133fb565b61342c8185613406565b935061343c81856020860161203c565b61344581612066565b840191505092915050565b60006080820190506134656000830187612167565b6134726020830186612167565b61347f6040830185612250565b81810360608301526134918184613417565b905095945050505050565b6000815190506134ab81611f91565b92915050565b6000602082840312156134c7576134c6611f5b565b5b60006134d58482850161349c565b9150509291505056fea26469706673582212201c975aafcc0fab9457166c8b776a535c4de1fcd77228cf0dd1fbe37d41b5a84a64736f6c63430008130033",
  "immutableReferences": {},
  "source": "// SPDX-License-Identifier: MIT\npragma solidity ^0.8.18;\n\nimport '@openzeppelin/contracts/utils/Counters.sol';\nimport '@openzeppelin/contracts/token/ERC721/ERC721.sol';\nimport '@openzeppelin/contracts/token/ERC721/extensions/ERC721URIStorage.sol';\n\ncontract ProjectNFT is ERC721URIStorage {\n  uint256 public tokenCounter;\n\n  // Maps tokenId to project's price\n  mapping(uint256 => uint256) private _tokenIdToPrice;\n\n  // Maps tokenId to royalty price\n  mapping(uint256 => uint256) private _tokenIdToRoyaltyPrice;\n\n  // Maps tokenId to hash of project\n  mapping(uint256 => string) private _tokenIdToHash;\n\n  // Maps tokenId to list of components of project\n  mapping(uint256 => uint256[]) private _tokenIdToComponents;\n\n  // Map to check hashes are unique\n  mapping(string => bool) private _hashes;\n\n  constructor() ERC721('DesignerNFT', 'DNFT') {\n    tokenCounter = 1;\n  }\n\n  function mintToken(\n    address sender,\n    uint256 price,\n    uint256 royaltyPrice,\n    string calldata projectHash,\n    uint256[] calldata components\n  ) public returns (uint256) {\n    // Check NFT parameters:\n    \n    // Check hash is unique\n    require(!_hashes[projectHash], 'A project with this hash already exists');\n\n    // Check components exists\n    for (uint i = 0; i < components.length; i++) {\n      require(components[i] < tokenCounter, 'Component is not a valid project');\n    }\n    \n    // Get NFT id\n    uint256 newItemId = tokenCounter;\n\n    // Mint new token (openzeppelin)\n    _mint(sender, newItemId);\n\n    // Build uri from base + tokenId\n    string memory baseUri = \"localhost:3000/nfts/\";\n    string memory uri = string.concat(baseUri, Strings.toString(newItemId));\n    _setTokenURI(newItemId, uri);\n\n    // Set NFT parameters\n    _tokenIdToPrice[newItemId] = price;\n    _tokenIdToRoyaltyPrice[newItemId] = royaltyPrice;\n    _tokenIdToHash[newItemId] = projectHash;\n    _hashes[projectHash] = true;\n    _tokenIdToComponents[newItemId] = components;\n\n    // Increment token counter\n    tokenCounter = tokenCounter + 1;\n\n    return newItemId;\n  }\n\n  function getTokenPrice(uint256 tokenId) public view returns (uint256) {\n    require(tokenId < tokenCounter);\n    return _tokenIdToPrice[tokenId];\n  }\n\n  function getTokenRoyaltyPrice(uint256 tokenId) public view returns (uint256) {\n    require(tokenId < tokenCounter);\n    return _tokenIdToRoyaltyPrice[tokenId];\n  }\n\n  function getTokenBuyPrice(uint256 tokenId) public view returns (uint256) {\n    require(tokenId < tokenCounter);\n\n    // Return token buy price plus royalties of all its components\n    uint256 total = 0;\n    total = total + _tokenIdToPrice[tokenId];\n    for (uint256 i=0; i < _tokenIdToComponents[tokenId].length; i++) {\n      total = total + _tokenIdToPrice[_tokenIdToComponents[tokenId][i]];\n    }\n    return total;\n  }\n\n  function getProjectHash(uint256 tokenId) public view returns (string memory) {\n    require(tokenId < tokenCounter);\n    return _tokenIdToHash[tokenId];\n  }\n\n  function getTokenComponents(uint256 tokenId) public view returns (uint256[] memory) {\n    require(tokenId < tokenCounter);\n    return _tokenIdToComponents[tokenId];\n  }\n\n}\n",
  "sourcePath": "/home/matteo/Projects/Uni/blockchain-project/contracts/ProjectNFT.sol",
  "compiler": {
    "name": "solc",
    "version": "0.8.19+commit.7dd6d404.Emscripten.clang"
  },
  "schemaVersion": "3.4.13",
  "updatedAt": "2023-06-22T13:04:34.132Z",
  "networkType": "ethereum",
  "devdoc": {
    "events": {
      "Approval(address,address,uint256)": {
        "details": "Emitted when `owner` enables `approved` to manage the `tokenId` token."
      },
      "ApprovalForAll(address,address,bool)": {
        "details": "Emitted when `owner` enables or disables (`approved`) `operator` to manage all of its assets."
      },
      "BatchMetadataUpdate(uint256,uint256)": {
        "details": "This event emits when the metadata of a range of tokens is changed. So that the third-party platforms such as NFT market could timely update the images and related attributes of the NFTs."
      },
      "MetadataUpdate(uint256)": {
        "details": "This event emits when the metadata of a token is changed. So that the third-party platforms such as NFT market could timely update the images and related attributes of the NFT."
      },
      "Transfer(address,address,uint256)": {
        "details": "Emitted when `tokenId` token is transferred from `from` to `to`."
      }
    },
    "kind": "dev",
    "methods": {
      "approve(address,uint256)": {
        "details": "See {IERC721-approve}."
      },
      "balanceOf(address)": {
        "details": "See {IERC721-balanceOf}."
      },
      "getApproved(uint256)": {
        "details": "See {IERC721-getApproved}."
      },
      "isApprovedForAll(address,address)": {
        "details": "See {IERC721-isApprovedForAll}."
      },
      "name()": {
        "details": "See {IERC721Metadata-name}."
      },
      "ownerOf(uint256)": {
        "details": "See {IERC721-ownerOf}."
      },
      "safeTransferFrom(address,address,uint256)": {
        "details": "See {IERC721-safeTransferFrom}."
      },
      "safeTransferFrom(address,address,uint256,bytes)": {
        "details": "See {IERC721-safeTransferFrom}."
      },
      "setApprovalForAll(address,bool)": {
        "details": "See {IERC721-setApprovalForAll}."
      },
      "supportsInterface(bytes4)": {
        "details": "See {IERC165-supportsInterface}"
      },
      "symbol()": {
        "details": "See {IERC721Metadata-symbol}."
      },
      "tokenURI(uint256)": {
        "details": "See {IERC721Metadata-tokenURI}."
      },
      "transferFrom(address,address,uint256)": {
        "details": "See {IERC721-transferFrom}."
      }
    },
    "version": 1
  },
  "userdoc": {
    "kind": "user",
    "methods": {},
    "version": 1
  }
}