{
  "contractName": "ProjectNFT",
  "abi": [
    {
      "inputs": [],
      "stateMutability": "nonpayable",
      "type": "constructor"
    },
    {
      "anonymous": false,
      "inputs": [
        {
          "indexed": true,
          "internalType": "address",
          "name": "owner",
          "type": "address"
        },
        {
          "indexed": true,
          "internalType": "address",
          "name": "approved",
          "type": "address"
        },
        {
          "indexed": true,
          "internalType": "uint256",
          "name": "tokenId",
          "type": "uint256"
        }
      ],
      "name": "Approval",
      "type": "event"
    },
    {
      "anonymous": false,
      "inputs": [
        {
          "indexed": true,
          "internalType": "address",
          "name": "owner",
          "type": "address"
        },
        {
          "indexed": true,
          "internalType": "address",
          "name": "operator",
          "type": "address"
        },
        {
          "indexed": false,
          "internalType": "bool",
          "name": "approved",
          "type": "bool"
        }
      ],
      "name": "ApprovalForAll",
      "type": "event"
    },
    {
      "anonymous": false,
      "inputs": [
        {
          "indexed": false,
          "internalType": "uint256",
          "name": "_fromTokenId",
          "type": "uint256"
        },
        {
          "indexed": false,
          "internalType": "uint256",
          "name": "_toTokenId",
          "type": "uint256"
        }
      ],
      "name": "BatchMetadataUpdate",
      "type": "event"
    },
    {
      "anonymous": false,
      "inputs": [
        {
          "indexed": false,
          "internalType": "uint256",
          "name": "_tokenId",
          "type": "uint256"
        }
      ],
      "name": "MetadataUpdate",
      "type": "event"
    },
    {
      "anonymous": false,
      "inputs": [
        {
          "indexed": true,
          "internalType": "address",
          "name": "from",
          "type": "address"
        },
        {
          "indexed": true,
          "internalType": "address",
          "name": "to",
          "type": "address"
        },
        {
          "indexed": true,
          "internalType": "uint256",
          "name": "tokenId",
          "type": "uint256"
        }
      ],
      "name": "Transfer",
      "type": "event"
    },
    {
      "inputs": [
        {
          "internalType": "address",
          "name": "to",
          "type": "address"
        },
        {
          "internalType": "uint256",
          "name": "tokenId",
          "type": "uint256"
        }
      ],
      "name": "approve",
      "outputs": [],
      "stateMutability": "nonpayable",
      "type": "function"
    },
    {
      "inputs": [
        {
          "internalType": "address",
          "name": "owner",
          "type": "address"
        }
      ],
      "name": "balanceOf",
      "outputs": [
        {
          "internalType": "uint256",
          "name": "",
          "type": "uint256"
        }
      ],
      "stateMutability": "view",
      "type": "function",
      "constant": true
    },
    {
      "inputs": [
        {
          "internalType": "uint256",
          "name": "tokenId",
          "type": "uint256"
        }
      ],
      "name": "getApproved",
      "outputs": [
        {
          "internalType": "address",
          "name": "",
          "type": "address"
        }
      ],
      "stateMutability": "view",
      "type": "function",
      "constant": true
    },
    {
      "inputs": [
        {
          "internalType": "address",
          "name": "owner",
          "type": "address"
        },
        {
          "internalType": "address",
          "name": "operator",
          "type": "address"
        }
      ],
      "name": "isApprovedForAll",
      "outputs": [
        {
          "internalType": "bool",
          "name": "",
          "type": "bool"
        }
      ],
      "stateMutability": "view",
      "type": "function",
      "constant": true
    },
    {
      "inputs": [],
      "name": "name",
      "outputs": [
        {
          "internalType": "string",
          "name": "",
          "type": "string"
        }
      ],
      "stateMutability": "view",
      "type": "function",
      "constant": true
    },
    {
      "inputs": [
        {
          "internalType": "uint256",
          "name": "tokenId",
          "type": "uint256"
        }
      ],
      "name": "ownerOf",
      "outputs": [
        {
          "internalType": "address",
          "name": "",
          "type": "address"
        }
      ],
      "stateMutability": "view",
      "type": "function",
      "constant": true
    },
    {
      "inputs": [
        {
          "internalType": "address",
          "name": "from",
          "type": "address"
        },
        {
          "internalType": "address",
          "name": "to",
          "type": "address"
        },
        {
          "internalType": "uint256",
          "name": "tokenId",
          "type": "uint256"
        }
      ],
      "name": "safeTransferFrom",
      "outputs": [],
      "stateMutability": "nonpayable",
      "type": "function"
    },
    {
      "inputs": [
        {
          "internalType": "address",
          "name": "from",
          "type": "address"
        },
        {
          "internalType": "address",
          "name": "to",
          "type": "address"
        },
        {
          "internalType": "uint256",
          "name": "tokenId",
          "type": "uint256"
        },
        {
          "internalType": "bytes",
          "name": "data",
          "type": "bytes"
        }
      ],
      "name": "safeTransferFrom",
      "outputs": [],
      "stateMutability": "nonpayable",
      "type": "function"
    },
    {
      "inputs": [
        {
          "internalType": "address",
          "name": "operator",
          "type": "address"
        },
        {
          "internalType": "bool",
          "name": "approved",
          "type": "bool"
        }
      ],
      "name": "setApprovalForAll",
      "outputs": [],
      "stateMutability": "nonpayable",
      "type": "function"
    },
    {
      "inputs": [
        {
          "internalType": "bytes4",
          "name": "interfaceId",
          "type": "bytes4"
        }
      ],
      "name": "supportsInterface",
      "outputs": [
        {
          "internalType": "bool",
          "name": "",
          "type": "bool"
        }
      ],
      "stateMutability": "view",
      "type": "function",
      "constant": true
    },
    {
      "inputs": [],
      "name": "symbol",
      "outputs": [
        {
          "internalType": "string",
          "name": "",
          "type": "string"
        }
      ],
      "stateMutability": "view",
      "type": "function",
      "constant": true
    },
    {
      "inputs": [],
      "name": "tokenCounter",
      "outputs": [
        {
          "internalType": "uint256",
          "name": "",
          "type": "uint256"
        }
      ],
      "stateMutability": "view",
      "type": "function",
      "constant": true
    },
    {
      "inputs": [
        {
          "internalType": "uint256",
          "name": "tokenId",
          "type": "uint256"
        }
      ],
      "name": "tokenURI",
      "outputs": [
        {
          "internalType": "string",
          "name": "",
          "type": "string"
        }
      ],
      "stateMutability": "view",
      "type": "function",
      "constant": true
    },
    {
      "inputs": [
        {
          "internalType": "address",
          "name": "from",
          "type": "address"
        },
        {
          "internalType": "address",
          "name": "to",
          "type": "address"
        },
        {
          "internalType": "uint256",
          "name": "tokenId",
          "type": "uint256"
        }
      ],
      "name": "transferFrom",
      "outputs": [],
      "stateMutability": "nonpayable",
      "type": "function"
    },
    {
      "inputs": [
        {
          "internalType": "address",
          "name": "sender",
          "type": "address"
        },
        {
          "internalType": "uint256",
          "name": "price",
          "type": "uint256"
        },
        {
          "internalType": "uint256",
          "name": "royaltyPrice",
          "type": "uint256"
        },
        {
          "internalType": "string",
          "name": "projectHash",
          "type": "string"
        },
        {
          "internalType": "uint256[]",
          "name": "components",
          "type": "uint256[]"
        }
      ],
      "name": "mintToken",
      "outputs": [
        {
          "internalType": "uint256",
          "name": "",
          "type": "uint256"
        }
      ],
      "stateMutability": "nonpayable",
      "type": "function"
    },
    {
      "inputs": [
        {
          "internalType": "uint256",
          "name": "tokenId",
          "type": "uint256"
        }
      ],
      "name": "getTokenPrice",
      "outputs": [
        {
          "internalType": "uint256",
          "name": "",
          "type": "uint256"
        }
      ],
      "stateMutability": "view",
      "type": "function",
      "constant": true
    },
    {
      "inputs": [
        {
          "internalType": "uint256",
          "name": "tokenId",
          "type": "uint256"
        }
      ],
      "name": "getTokenRoyaltyPrice",
      "outputs": [
        {
          "internalType": "uint256",
          "name": "",
          "type": "uint256"
        }
      ],
      "stateMutability": "view",
      "type": "function",
      "constant": true
    },
    {
      "inputs": [
        {
          "internalType": "uint256",
          "name": "tokenId",
          "type": "uint256"
        }
      ],
      "name": "getTokenBuyPrice",
      "outputs": [
        {
          "internalType": "uint256",
          "name": "",
          "type": "uint256"
        }
      ],
      "stateMutability": "view",
      "type": "function",
      "constant": true
    },
    {
      "inputs": [
        {
          "internalType": "uint256",
          "name": "tokenId",
          "type": "uint256"
        }
      ],
      "name": "getProjectHash",
      "outputs": [
        {
          "internalType": "string",
          "name": "",
          "type": "string"
        }
      ],
      "stateMutability": "view",
      "type": "function",
      "constant": true
    },
    {
      "inputs": [
        {
          "internalType": "uint256",
          "name": "tokenId",
          "type": "uint256"
        }
      ],
      "name": "getTokenComponents",
      "outputs": [
        {
          "internalType": "uint256[]",
          "name": "",
          "type": "uint256[]"
        }
      ],
      "stateMutability": "view",
      "type": "function",
      "constant": true
    },
    {
      "inputs": [
        {
          "internalType": "uint256",
          "name": "tokenId",
          "type": "uint256"
        },
        {
          "internalType": "uint256",
          "name": "amount",
          "type": "uint256"
        }
      ],
      "name": "transferPayment",
      "outputs": [],
      "stateMutability": "nonpayable",
      "type": "function"
    }
  ],
  "bytecode": "0x60806040523480156200001157600080fd5b506040518060400160405280600b81526020017f44657369676e65724e46540000000000000000000000000000000000000000008152506040518060400160405280600481526020017f444e46540000000000000000000000000000000000000000000000000000000081525081600090816200008f91906200032c565b508060019081620000a191906200032c565b505050600160078190555062000413565b600081519050919050565b7f4e487b7100000000000000000000000000000000000000000000000000000000600052604160045260246000fd5b7f4e487b7100000000000000000000000000000000000000000000000000000000600052602260045260246000fd5b600060028204905060018216806200013457607f821691505b6020821081036200014a5762000149620000ec565b5b50919050565b60008190508160005260206000209050919050565b60006020601f8301049050919050565b600082821b905092915050565b600060088302620001b47fffffffffffffffffffffffffffffffffffffffffffffffffffffffffffffffff8262000175565b620001c0868362000175565b95508019841693508086168417925050509392505050565b6000819050919050565b6000819050919050565b60006200020d620002076200020184620001d8565b620001e2565b620001d8565b9050919050565b6000819050919050565b6200022983620001ec565b62000241620002388262000214565b84845462000182565b825550505050565b600090565b6200025862000249565b620002658184846200021e565b505050565b5b818110156200028d57620002816000826200024e565b6001810190506200026b565b5050565b601f821115620002dc57620002a68162000150565b620002b18462000165565b81016020851015620002c1578190505b620002d9620002d08562000165565b8301826200026a565b50505b505050565b600082821c905092915050565b60006200030160001984600802620002e1565b1980831691505092915050565b60006200031c8383620002ee565b9150826002028217905092915050565b6200033782620000b2565b67ffffffffffffffff811115620003535762000352620000bd565b5b6200035f82546200011b565b6200036c82828562000291565b600060209050601f831160018114620003a457600084156200038f578287015190505b6200039b85826200030e565b8655506200040b565b601f198416620003b48662000150565b60005b82811015620003de57848901518255600182019150602085019450602081019050620003b7565b86831015620003fe5784890151620003fa601f891682620002ee565b8355505b6001600288020188555050505b505050505050565b61362680620004236000396000f3fe608060405234801561001057600080fd5b50600436106101375760003560e01c806370a08231116100b8578063c457fb371161007c578063c457fb3714610370578063c739acb0146103a0578063c87b56dd146103d0578063cb9d741514610400578063d082e38114610430578063e985e9c51461044e57610137565b806370a08231146102ba57806395d89b41146102ea578063a082dfc214610308578063a22cb46514610338578063b88d4fde1461035457610137565b8063118c66c7116100ff578063118c66c7146101f257806323b872dd1461022257806342842e0e1461023e57806351bbee6f1461025a5780636352211e1461028a57610137565b806301ffc9a71461013c57806306fdde031461016c578063081812fc1461018a578063095ea7b3146101ba578063096e9be7146101d6575b600080fd5b6101566004803603810190610151919061205b565b61047e565b60405161016391906120a3565b60405180910390f35b6101746104df565b604051610181919061214e565b60405180910390f35b6101a4600480360381019061019f91906121a6565b610571565b6040516101b19190612214565b60405180910390f35b6101d460048036038101906101cf919061225b565b6105b7565b005b6101f060048036038101906101eb919061229b565b6106ce565b005b61020c600480360381019061020791906121a6565b610745565b604051610219919061214e565b60405180910390f35b61023c600480360381019061023791906122db565b6107f8565b005b610258600480360381019061025391906122db565b610858565b005b610274600480360381019061026f91906121a6565b610878565b604051610281919061233d565b60405180910390f35b6102a4600480360381019061029f91906121a6565b610939565b6040516102b19190612214565b60405180910390f35b6102d460048036038101906102cf9190612358565b6109bf565b6040516102e1919061233d565b60405180910390f35b6102f2610a76565b6040516102ff919061214e565b60405180910390f35b610322600480360381019061031d91906121a6565b610b08565b60405161032f9190612443565b60405180910390f35b610352600480360381019061034d9190612491565b610b81565b005b61036e60048036038101906103699190612606565b610b97565b005b61038a600480360381019061038591906121a6565b610bf9565b604051610397919061233d565b60405180910390f35b6103ba60048036038101906103b591906121a6565b610c24565b6040516103c7919061233d565b60405180910390f35b6103ea60048036038101906103e591906121a6565b610c4f565b6040516103f7919061214e565b60405180910390f35b61041a6004803603810190610415919061273f565b610d61565b604051610427919061233d565b60405180910390f35b610438610fa8565b604051610445919061233d565b60405180910390f35b610468600480360381019061046391906127fb565b610fae565b60405161047591906120a3565b60405180910390f35b6000634906490660e01b7bffffffffffffffffffffffffffffffffffffffffffffffffffffffff1916827bffffffffffffffffffffffffffffffffffffffffffffffffffffffff191614806104d857506104d782611042565b5b9050919050565b6060600080546104ee9061286a565b80601f016020809104026020016040519081016040528092919081815260200182805461051a9061286a565b80156105675780601f1061053c57610100808354040283529160200191610567565b820191906000526020600020905b81548152906001019060200180831161054a57829003601f168201915b5050505050905090565b600061057c82611124565b6004600083815260200190815260200160002060009054906101000a900473ffffffffffffffffffffffffffffffffffffffff169050919050565b60006105c282610939565b90508073ffffffffffffffffffffffffffffffffffffffff168373ffffffffffffffffffffffffffffffffffffffff1603610632576040517f08c379a00000000000000000000000000000000000000000000000000000000081526004016106299061290d565b60405180910390fd5b8073ffffffffffffffffffffffffffffffffffffffff1661065161116f565b73ffffffffffffffffffffffffffffffffffffffff161480610680575061067f8161067a61116f565b610fae565b5b6106bf576040517f08c379a00000000000000000000000000000000000000000000000000000000081526004016106b69061299f565b60405180910390fd5b6106c98383611177565b505050565b60006106d983610939565b90508073ffffffffffffffffffffffffffffffffffffffff166108fc60086000868152602001908152602001600020548461071491906129ee565b9081150290604051600060405180830381858888f1935050505015801561073f573d6000803e3d6000fd5b50505050565b6060600754821061075557600080fd5b600a600083815260200190815260200160002080546107739061286a565b80601f016020809104026020016040519081016040528092919081815260200182805461079f9061286a565b80156107ec5780601f106107c1576101008083540402835291602001916107ec565b820191906000526020600020905b8154815290600101906020018083116107cf57829003601f168201915b50505050509050919050565b61080961080361116f565b82611230565b610848576040517f08c379a000000000000000000000000000000000000000000000000000000000815260040161083f90612a94565b60405180910390fd5b6108538383836112c5565b505050565b61087383838360405180602001604052806000815250610b97565b505050565b6000600754821061088857600080fd5b60006008600084815260200190815260200160002054816108a99190612ab4565b905060005b600b60008581526020019081526020016000208054905081101561092f5760086000600b600087815260200190815260200160002083815481106108f5576108f4612ae8565b5b90600052602060002001548152602001908152602001600020548261091a9190612ab4565b9150808061092790612b17565b9150506108ae565b5080915050919050565b600080610945836115be565b9050600073ffffffffffffffffffffffffffffffffffffffff168173ffffffffffffffffffffffffffffffffffffffff16036109b6576040517f08c379a00000000000000000000000000000000000000000000000000000000081526004016109ad90612bab565b60405180910390fd5b80915050919050565b60008073ffffffffffffffffffffffffffffffffffffffff168273ffffffffffffffffffffffffffffffffffffffff1603610a2f576040517f08c379a0000000000000000000000000000000000000000000000000000000008152600401610a2690612c3d565b60405180910390fd5b600360008373ffffffffffffffffffffffffffffffffffffffff1673ffffffffffffffffffffffffffffffffffffffff168152602001908152602001600020549050919050565b606060018054610a859061286a565b80601f0160208091040260200160405190810160405280929190818152602001828054610ab19061286a565b8015610afe5780601f10610ad357610100808354040283529160200191610afe565b820191906000526020600020905b815481529060010190602001808311610ae157829003601f168201915b5050505050905090565b60606007548210610b1857600080fd5b600b6000838152602001908152602001600020805480602002602001604051908101604052809291908181526020018280548015610b7557602002820191906000526020600020905b815481526020019060010190808311610b61575b50505050509050919050565b610b93610b8c61116f565b83836115fb565b5050565b610ba8610ba261116f565b83611230565b610be7576040517f08c379a0000000000000000000000000000000000000000000000000000000008152600401610bde90612a94565b60405180910390fd5b610bf384848484611767565b50505050565b60006007548210610c0957600080fd5b60086000838152602001908152602001600020549050919050565b60006007548210610c3457600080fd5b60096000838152602001908152602001600020549050919050565b6060610c5a82611124565b6000600660008481526020019081526020016000208054610c7a9061286a565b80601f0160208091040260200160405190810160405280929190818152602001828054610ca69061286a565b8015610cf35780601f10610cc857610100808354040283529160200191610cf3565b820191906000526020600020905b815481529060010190602001808311610cd657829003601f168201915b505050505090506000610d046117c3565b90506000815103610d19578192505050610d5c565b600082511115610d4e578082604051602001610d36929190612c99565b60405160208183030381529060405292505050610d5c565b610d57846117da565b925050505b919050565b6000600c8585604051610d75929190612ce2565b908152602001604051809103902060009054906101000a900460ff1615610dd1576040517f08c379a0000000000000000000000000000000000000000000000000000000008152600401610dc890612d6d565b60405180910390fd5b60005b83839050811015610e4f57600754848483818110610df557610df4612ae8565b5b9050602002013510610e3c576040517f08c379a0000000000000000000000000000000000000000000000000000000008152600401610e3390612dd9565b60405180910390fd5b8080610e4790612b17565b915050610dd4565b5060006007549050610e618982611842565b60006040518060400160405280601481526020017f6c6f63616c686f73743a333030302f6e6674732f0000000000000000000000008152509050600081610ea784611a5f565b604051602001610eb8929190612c99565b6040516020818303038152906040529050610ed38382611b2d565b8960086000858152602001908152602001600020819055508860096000858152602001908152602001600020819055508787600a60008681526020019081526020016000209182610f25929190612fb0565b506001600c8989604051610f3a929190612ce2565b908152602001604051809103902060006101000a81548160ff0219169083151502179055508585600b60008681526020019081526020016000209190610f81929190611f85565b506001600754610f919190612ab4565b600781905550829350505050979650505050505050565b60075481565b6000600560008473ffffffffffffffffffffffffffffffffffffffff1673ffffffffffffffffffffffffffffffffffffffff16815260200190815260200160002060008373ffffffffffffffffffffffffffffffffffffffff1673ffffffffffffffffffffffffffffffffffffffff16815260200190815260200160002060009054906101000a900460ff16905092915050565b60007f80ac58cd000000000000000000000000000000000000000000000000000000007bffffffffffffffffffffffffffffffffffffffffffffffffffffffff1916827bffffffffffffffffffffffffffffffffffffffffffffffffffffffff1916148061110d57507f5b5e139f000000000000000000000000000000000000000000000000000000007bffffffffffffffffffffffffffffffffffffffffffffffffffffffff1916827bffffffffffffffffffffffffffffffffffffffffffffffffffffffff1916145b8061111d575061111c82611bd1565b5b9050919050565b61112d81611c3b565b61116c576040517f08c379a000000000000000000000000000000000000000000000000000000000815260040161116390612bab565b60405180910390fd5b50565b600033905090565b816004600083815260200190815260200160002060006101000a81548173ffffffffffffffffffffffffffffffffffffffff021916908373ffffffffffffffffffffffffffffffffffffffff160217905550808273ffffffffffffffffffffffffffffffffffffffff166111ea83610939565b73ffffffffffffffffffffffffffffffffffffffff167f8c5be1e5ebec7d5bd14f71427d1e84f3dd0314c0f7b2291e5b200ac8c7c3b92560405160405180910390a45050565b60008061123c83610939565b90508073ffffffffffffffffffffffffffffffffffffffff168473ffffffffffffffffffffffffffffffffffffffff16148061127e575061127d8185610fae565b5b806112bc57508373ffffffffffffffffffffffffffffffffffffffff166112a484610571565b73ffffffffffffffffffffffffffffffffffffffff16145b91505092915050565b8273ffffffffffffffffffffffffffffffffffffffff166112e582610939565b73ffffffffffffffffffffffffffffffffffffffff161461133b576040517f08c379a0000000000000000000000000000000000000000000000000000000008152600401611332906130f2565b60405180910390fd5b600073ffffffffffffffffffffffffffffffffffffffff168273ffffffffffffffffffffffffffffffffffffffff16036113aa576040517f08c379a00000000000000000000000000000000000000000000000000000000081526004016113a190613184565b60405180910390fd5b6113b78383836001611c7c565b8273ffffffffffffffffffffffffffffffffffffffff166113d782610939565b73ffffffffffffffffffffffffffffffffffffffff161461142d576040517f08c379a0000000000000000000000000000000000000000000000000000000008152600401611424906130f2565b60405180910390fd5b6004600082815260200190815260200160002060006101000a81549073ffffffffffffffffffffffffffffffffffffffff02191690556001600360008573ffffffffffffffffffffffffffffffffffffffff1673ffffffffffffffffffffffffffffffffffffffff168152602001908152602001600020600082825403925050819055506001600360008473ffffffffffffffffffffffffffffffffffffffff1673ffffffffffffffffffffffffffffffffffffffff16815260200190815260200160002060008282540192505081905550816002600083815260200190815260200160002060006101000a81548173ffffffffffffffffffffffffffffffffffffffff021916908373ffffffffffffffffffffffffffffffffffffffff160217905550808273ffffffffffffffffffffffffffffffffffffffff168473ffffffffffffffffffffffffffffffffffffffff167fddf252ad1be2c89b69c2b068fc378daa952ba7f163c4a11628f55a4df523b3ef60405160405180910390a46115b98383836001611c82565b505050565b60006002600083815260200190815260200160002060009054906101000a900473ffffffffffffffffffffffffffffffffffffffff169050919050565b8173ffffffffffffffffffffffffffffffffffffffff168373ffffffffffffffffffffffffffffffffffffffff1603611669576040517f08c379a0000000000000000000000000000000000000000000000000000000008152600401611660906131f0565b60405180910390fd5b80600560008573ffffffffffffffffffffffffffffffffffffffff1673ffffffffffffffffffffffffffffffffffffffff16815260200190815260200160002060008473ffffffffffffffffffffffffffffffffffffffff1673ffffffffffffffffffffffffffffffffffffffff16815260200190815260200160002060006101000a81548160ff0219169083151502179055508173ffffffffffffffffffffffffffffffffffffffff168373ffffffffffffffffffffffffffffffffffffffff167f17307eab39ab6107e8899845ad3d59bd9653f200f220920489ca2b5937696c318360405161175a91906120a3565b60405180910390a3505050565b6117728484846112c5565b61177e84848484611c88565b6117bd576040517f08c379a00000000000000000000000000000000000000000000000000000000081526004016117b490613282565b60405180910390fd5b50505050565b606060405180602001604052806000815250905090565b60606117e582611124565b60006117ef6117c3565b9050600081511161180f576040518060200160405280600081525061183a565b8061181984611a5f565b60405160200161182a929190612c99565b6040516020818303038152906040525b915050919050565b600073ffffffffffffffffffffffffffffffffffffffff168273ffffffffffffffffffffffffffffffffffffffff16036118b1576040517f08c379a00000000000000000000000000000000000000000000000000000000081526004016118a8906132ee565b60405180910390fd5b6118ba81611c3b565b156118fa576040517f08c379a00000000000000000000000000000000000000000000000000000000081526004016118f19061335a565b60405180910390fd5b611908600083836001611c7c565b61191181611c3b565b15611951576040517f08c379a00000000000000000000000000000000000000000000000000000000081526004016119489061335a565b60405180910390fd5b6001600360008473ffffffffffffffffffffffffffffffffffffffff1673ffffffffffffffffffffffffffffffffffffffff16815260200190815260200160002060008282540192505081905550816002600083815260200190815260200160002060006101000a81548173ffffffffffffffffffffffffffffffffffffffff021916908373ffffffffffffffffffffffffffffffffffffffff160217905550808273ffffffffffffffffffffffffffffffffffffffff16600073ffffffffffffffffffffffffffffffffffffffff167fddf252ad1be2c89b69c2b068fc378daa952ba7f163c4a11628f55a4df523b3ef60405160405180910390a4611a5b600083836001611c82565b5050565b606060006001611a6e84611e0f565b01905060008167ffffffffffffffff811115611a8d57611a8c6124db565b5b6040519080825280601f01601f191660200182016040528015611abf5781602001600182028036833780820191505090505b509050600082602001820190505b600115611b22578080600190039150507f3031323334353637383961626364656600000000000000000000000000000000600a86061a8153600a8581611b1657611b1561337a565b5b04945060008503611acd575b819350505050919050565b611b3682611c3b565b611b75576040517f08c379a0000000000000000000000000000000000000000000000000000000008152600401611b6c9061341b565b60405180910390fd5b80600660008481526020019081526020016000209081611b95919061343b565b507ff8e1a15aba9398e019f0b49df1a4fde98ee17ae345cb5f6b5e2c27f5033e8ce782604051611bc5919061233d565b60405180910390a15050565b60007f01ffc9a7000000000000000000000000000000000000000000000000000000007bffffffffffffffffffffffffffffffffffffffffffffffffffffffff1916827bffffffffffffffffffffffffffffffffffffffffffffffffffffffff1916149050919050565b60008073ffffffffffffffffffffffffffffffffffffffff16611c5d836115be565b73ffffffffffffffffffffffffffffffffffffffff1614159050919050565b50505050565b50505050565b6000611ca98473ffffffffffffffffffffffffffffffffffffffff16611f62565b15611e02578373ffffffffffffffffffffffffffffffffffffffff1663150b7a02611cd261116f565b8786866040518563ffffffff1660e01b8152600401611cf49493929190613562565b6020604051808303816000875af1925050508015611d3057506040513d601f19601f82011682018060405250810190611d2d91906135c3565b60015b611db2573d8060008114611d60576040519150601f19603f3d011682016040523d82523d6000602084013e611d65565b606091505b506000815103611daa576040517f08c379a0000000000000000000000000000000000000000000000000000000008152600401611da190613282565b60405180910390fd5b805181602001fd5b63150b7a0260e01b7bffffffffffffffffffffffffffffffffffffffffffffffffffffffff1916817bffffffffffffffffffffffffffffffffffffffffffffffffffffffff191614915050611e07565b600190505b949350505050565b600080600090507a184f03e93ff9f4daa797ed6e38ed64bf6a1f0100000000000000008310611e6d577a184f03e93ff9f4daa797ed6e38ed64bf6a1f0100000000000000008381611e6357611e6261337a565b5b0492506040810190505b6d04ee2d6d415b85acef81000000008310611eaa576d04ee2d6d415b85acef81000000008381611ea057611e9f61337a565b5b0492506020810190505b662386f26fc100008310611ed957662386f26fc100008381611ecf57611ece61337a565b5b0492506010810190505b6305f5e1008310611f02576305f5e1008381611ef857611ef761337a565b5b0492506008810190505b6127108310611f27576127108381611f1d57611f1c61337a565b5b0492506004810190505b60648310611f4a5760648381611f4057611f3f61337a565b5b0492506002810190505b600a8310611f59576001810190505b80915050919050565b6000808273ffffffffffffffffffffffffffffffffffffffff163b119050919050565b828054828255906000526020600020908101928215611fc1579160200282015b82811115611fc0578235825591602001919060010190611fa5565b5b509050611fce9190611fd2565b5090565b5b80821115611feb576000816000905550600101611fd3565b5090565b6000604051905090565b600080fd5b600080fd5b60007fffffffff0000000000000000000000000000000000000000000000000000000082169050919050565b61203881612003565b811461204357600080fd5b50565b6000813590506120558161202f565b92915050565b60006020828403121561207157612070611ff9565b5b600061207f84828501612046565b91505092915050565b60008115159050919050565b61209d81612088565b82525050565b60006020820190506120b86000830184612094565b92915050565b600081519050919050565b600082825260208201905092915050565b60005b838110156120f85780820151818401526020810190506120dd565b60008484015250505050565b6000601f19601f8301169050919050565b6000612120826120be565b61212a81856120c9565b935061213a8185602086016120da565b61214381612104565b840191505092915050565b600060208201905081810360008301526121688184612115565b905092915050565b6000819050919050565b61218381612170565b811461218e57600080fd5b50565b6000813590506121a08161217a565b92915050565b6000602082840312156121bc576121bb611ff9565b5b60006121ca84828501612191565b91505092915050565b600073ffffffffffffffffffffffffffffffffffffffff82169050919050565b60006121fe826121d3565b9050919050565b61220e816121f3565b82525050565b60006020820190506122296000830184612205565b92915050565b612238816121f3565b811461224357600080fd5b50565b6000813590506122558161222f565b92915050565b6000806040838503121561227257612271611ff9565b5b600061228085828601612246565b925050602061229185828601612191565b9150509250929050565b600080604083850312156122b2576122b1611ff9565b5b60006122c085828601612191565b92505060206122d185828601612191565b9150509250929050565b6000806000606084860312156122f4576122f3611ff9565b5b600061230286828701612246565b935050602061231386828701612246565b925050604061232486828701612191565b9150509250925092565b61233781612170565b82525050565b6000602082019050612352600083018461232e565b92915050565b60006020828403121561236e5761236d611ff9565b5b600061237c84828501612246565b91505092915050565b600081519050919050565b600082825260208201905092915050565b6000819050602082019050919050565b6123ba81612170565b82525050565b60006123cc83836123b1565b60208301905092915050565b6000602082019050919050565b60006123f082612385565b6123fa8185612390565b9350612405836123a1565b8060005b8381101561243657815161241d88826123c0565b9750612428836123d8565b925050600181019050612409565b5085935050505092915050565b6000602082019050818103600083015261245d81846123e5565b905092915050565b61246e81612088565b811461247957600080fd5b50565b60008135905061248b81612465565b92915050565b600080604083850312156124a8576124a7611ff9565b5b60006124b685828601612246565b92505060206124c78582860161247c565b9150509250929050565b600080fd5b600080fd5b7f4e487b7100000000000000000000000000000000000000000000000000000000600052604160045260246000fd5b61251382612104565b810181811067ffffffffffffffff82111715612532576125316124db565b5b80604052505050565b6000612545611fef565b9050612551828261250a565b919050565b600067ffffffffffffffff821115612571576125706124db565b5b61257a82612104565b9050602081019050919050565b82818337600083830152505050565b60006125a96125a484612556565b61253b565b9050828152602081018484840111156125c5576125c46124d6565b5b6125d0848285612587565b509392505050565b600082601f8301126125ed576125ec6124d1565b5b81356125fd848260208601612596565b91505092915050565b600080600080608085870312156126205761261f611ff9565b5b600061262e87828801612246565b945050602061263f87828801612246565b935050604061265087828801612191565b925050606085013567ffffffffffffffff81111561267157612670611ffe565b5b61267d878288016125d8565b91505092959194509250565b600080fd5b600080fd5b60008083601f8401126126a9576126a86124d1565b5b8235905067ffffffffffffffff8111156126c6576126c5612689565b5b6020830191508360018202830111156126e2576126e161268e565b5b9250929050565b60008083601f8401126126ff576126fe6124d1565b5b8235905067ffffffffffffffff81111561271c5761271b612689565b5b6020830191508360208202830111156127385761273761268e565b5b9250929050565b600080600080600080600060a0888a03121561275e5761275d611ff9565b5b600061276c8a828b01612246565b975050602061277d8a828b01612191565b965050604061278e8a828b01612191565b955050606088013567ffffffffffffffff8111156127af576127ae611ffe565b5b6127bb8a828b01612693565b9450945050608088013567ffffffffffffffff8111156127de576127dd611ffe565b5b6127ea8a828b016126e9565b925092505092959891949750929550565b6000806040838503121561281257612811611ff9565b5b600061282085828601612246565b925050602061283185828601612246565b9150509250929050565b7f4e487b7100000000000000000000000000000000000000000000000000000000600052602260045260246000fd5b6000600282049050600182168061288257607f821691505b6020821081036128955761289461283b565b5b50919050565b7f4552433732313a20617070726f76616c20746f2063757272656e74206f776e6560008201527f7200000000000000000000000000000000000000000000000000000000000000602082015250565b60006128f76021836120c9565b91506129028261289b565b604082019050919050565b60006020820190508181036000830152612926816128ea565b9050919050565b7f4552433732313a20617070726f76652063616c6c6572206973206e6f7420746f60008201527f6b656e206f776e6572206f7220617070726f76656420666f7220616c6c000000602082015250565b6000612989603d836120c9565b91506129948261292d565b604082019050919050565b600060208201905081810360008301526129b88161297c565b9050919050565b7f4e487b7100000000000000000000000000000000000000000000000000000000600052601160045260246000fd5b60006129f982612170565b9150612a0483612170565b9250828203905081811115612a1c57612a1b6129bf565b5b92915050565b7f4552433732313a2063616c6c6572206973206e6f7420746f6b656e206f776e6560008201527f72206f7220617070726f76656400000000000000000000000000000000000000602082015250565b6000612a7e602d836120c9565b9150612a8982612a22565b604082019050919050565b60006020820190508181036000830152612aad81612a71565b9050919050565b6000612abf82612170565b9150612aca83612170565b9250828201905080821115612ae257612ae16129bf565b5b92915050565b7f4e487b7100000000000000000000000000000000000000000000000000000000600052603260045260246000fd5b6000612b2282612170565b91507fffffffffffffffffffffffffffffffffffffffffffffffffffffffffffffffff8203612b5457612b536129bf565b5b600182019050919050565b7f4552433732313a20696e76616c696420746f6b656e2049440000000000000000600082015250565b6000612b956018836120c9565b9150612ba082612b5f565b602082019050919050565b60006020820190508181036000830152612bc481612b88565b9050919050565b7f4552433732313a2061646472657373207a65726f206973206e6f74206120766160008201527f6c6964206f776e65720000000000000000000000000000000000000000000000602082015250565b6000612c276029836120c9565b9150612c3282612bcb565b604082019050919050565b60006020820190508181036000830152612c5681612c1a565b9050919050565b600081905092915050565b6000612c73826120be565b612c7d8185612c5d565b9350612c8d8185602086016120da565b80840191505092915050565b6000612ca58285612c68565b9150612cb18284612c68565b91508190509392505050565b6000612cc98385612c5d565b9350612cd6838584612587565b82840190509392505050565b6000612cef828486612cbd565b91508190509392505050565b7f412070726f6a65637420776974682074686973206861736820616c726561647960008201527f2065786973747300000000000000000000000000000000000000000000000000602082015250565b6000612d576027836120c9565b9150612d6282612cfb565b604082019050919050565b60006020820190508181036000830152612d8681612d4a565b9050919050565b7f436f6d706f6e656e74206973206e6f7420612076616c69642070726f6a656374600082015250565b6000612dc36020836120c9565b9150612dce82612d8d565b602082019050919050565b60006020820190508181036000830152612df281612db6565b9050919050565b600082905092915050565b60008190508160005260206000209050919050565b60006020601f8301049050919050565b600082821b905092915050565b600060088302612e667fffffffffffffffffffffffffffffffffffffffffffffffffffffffffffffffff82612e29565b612e708683612e29565b95508019841693508086168417925050509392505050565b6000819050919050565b6000612ead612ea8612ea384612170565b612e88565b612170565b9050919050565b6000819050919050565b612ec783612e92565b612edb612ed382612eb4565b848454612e36565b825550505050565b600090565b612ef0612ee3565b612efb818484612ebe565b505050565b5b81811015612f1f57612f14600082612ee8565b600181019050612f01565b5050565b601f821115612f6457612f3581612e04565b612f3e84612e19565b81016020851015612f4d578190505b612f61612f5985612e19565b830182612f00565b50505b505050565b600082821c905092915050565b6000612f8760001984600802612f69565b1980831691505092915050565b6000612fa08383612f76565b9150826002028217905092915050565b612fba8383612df9565b67ffffffffffffffff811115612fd357612fd26124db565b5b612fdd825461286a565b612fe8828285612f23565b6000601f8311600181146130175760008415613005578287013590505b61300f8582612f94565b865550613077565b601f19841661302586612e04565b60005b8281101561304d57848901358255600182019150602085019450602081019050613028565b8683101561306a5784890135613066601f891682612f76565b8355505b6001600288020188555050505b50505050505050565b7f4552433732313a207472616e736665722066726f6d20696e636f72726563742060008201527f6f776e6572000000000000000000000000000000000000000000000000000000602082015250565b60006130dc6025836120c9565b91506130e782613080565b604082019050919050565b6000602082019050818103600083015261310b816130cf565b9050919050565b7f4552433732313a207472616e7366657220746f20746865207a65726f2061646460008201527f7265737300000000000000000000000000000000000000000000000000000000602082015250565b600061316e6024836120c9565b915061317982613112565b604082019050919050565b6000602082019050818103600083015261319d81613161565b9050919050565b7f4552433732313a20617070726f766520746f2063616c6c657200000000000000600082015250565b60006131da6019836120c9565b91506131e5826131a4565b602082019050919050565b60006020820190508181036000830152613209816131cd565b9050919050565b7f4552433732313a207472616e7366657220746f206e6f6e20455243373231526560008201527f63656976657220696d706c656d656e7465720000000000000000000000000000602082015250565b600061326c6032836120c9565b915061327782613210565b604082019050919050565b6000602082019050818103600083015261329b8161325f565b9050919050565b7f4552433732313a206d696e7420746f20746865207a65726f2061646472657373600082015250565b60006132d86020836120c9565b91506132e3826132a2565b602082019050919050565b60006020820190508181036000830152613307816132cb565b9050919050565b7f4552433732313a20746f6b656e20616c7265616479206d696e74656400000000600082015250565b6000613344601c836120c9565b915061334f8261330e565b602082019050919050565b6000602082019050818103600083015261337381613337565b9050919050565b7f4e487b7100000000000000000000000000000000000000000000000000000000600052601260045260246000fd5b7f45524337323155524953746f726167653a2055524920736574206f66206e6f6e60008201527f6578697374656e7420746f6b656e000000000000000000000000000000000000602082015250565b6000613405602e836120c9565b9150613410826133a9565b604082019050919050565b60006020820190508181036000830152613434816133f8565b9050919050565b613444826120be565b67ffffffffffffffff81111561345d5761345c6124db565b5b613467825461286a565b613472828285612f23565b600060209050601f8311600181146134a55760008415613493578287015190505b61349d8582612f94565b865550613505565b601f1984166134b386612e04565b60005b828110156134db578489015182556001820191506020850194506020810190506134b6565b868310156134f857848901516134f4601f891682612f76565b8355505b6001600288020188555050505b505050505050565b600081519050919050565b600082825260208201905092915050565b60006135348261350d565b61353e8185613518565b935061354e8185602086016120da565b61355781612104565b840191505092915050565b60006080820190506135776000830187612205565b6135846020830186612205565b613591604083018561232e565b81810360608301526135a38184613529565b905095945050505050565b6000815190506135bd8161202f565b92915050565b6000602082840312156135d9576135d8611ff9565b5b60006135e7848285016135ae565b9150509291505056fea264697066735822122086f2b2ca89228d4b1a4eec203ffb154601cfb62b864da4902683b5157a5bc91c64736f6c63430008130033",
  "immutableReferences": {},
  "source": "// SPDX-License-Identifier: MIT\npragma solidity ^0.8.18;\n\nimport '@openzeppelin/contracts/utils/Counters.sol';\nimport '@openzeppelin/contracts/token/ERC721/ERC721.sol';\nimport '@openzeppelin/contracts/token/ERC721/extensions/ERC721URIStorage.sol';\n\ncontract ProjectNFT is ERC721URIStorage {\n  uint256 public tokenCounter;\n\n  // Maps tokenId to project's price\n  mapping(uint256 => uint256) private _tokenIdToPrice;\n\n  // Maps tokenId to royalty price\n  mapping(uint256 => uint256) private _tokenIdToRoyaltyPrice;\n\n  // Maps tokenId to hash of project\n  mapping(uint256 => string) private _tokenIdToHash;\n\n  // Maps tokenId to list of components of project\n  mapping(uint256 => uint256[]) private _tokenIdToComponents;\n\n  // Map to check hashes are unique\n  mapping(string => bool) private _hashes;\n\n  constructor() ERC721('DesignerNFT', 'DNFT') {\n    tokenCounter = 1;\n  }\n\n  function mintToken(\n    address sender,\n    uint256 price,\n    uint256 royaltyPrice,\n    string calldata projectHash,\n    uint256[] calldata components\n  ) public returns (uint256) {\n    // Check NFT parameters:\n    \n    // Check hash is unique\n    require(!_hashes[projectHash], 'A project with this hash already exists');\n\n    // Check components exists\n    for (uint i = 0; i < components.length; i++) {\n      require(components[i] < tokenCounter, 'Component is not a valid project');\n    }\n    \n    // Get NFT id\n    uint256 newItemId = tokenCounter;\n\n    // Mint new token (openzeppelin)\n    _mint(sender, newItemId);\n\n    // Build uri from base + tokenId\n    string memory baseUri = \"localhost:3000/nfts/\";\n    string memory uri = string.concat(baseUri, Strings.toString(newItemId));\n    _setTokenURI(newItemId, uri);\n\n    // Set NFT parameters\n    _tokenIdToPrice[newItemId] = price;\n    _tokenIdToRoyaltyPrice[newItemId] = royaltyPrice;\n    _tokenIdToHash[newItemId] = projectHash;\n    _hashes[projectHash] = true;\n    _tokenIdToComponents[newItemId] = components;\n\n    // Increment token counter\n    tokenCounter = tokenCounter + 1;\n\n    return newItemId;\n  }\n\n  function getTokenPrice(uint256 tokenId) public view returns (uint256) {\n    require(tokenId < tokenCounter);\n    return _tokenIdToPrice[tokenId];\n  }\n\n  function getTokenRoyaltyPrice(uint256 tokenId) public view returns (uint256) {\n    require(tokenId < tokenCounter);\n    return _tokenIdToRoyaltyPrice[tokenId];\n  }\n\n  function getTokenBuyPrice(uint256 tokenId) public view returns (uint256) {\n    require(tokenId < tokenCounter);\n\n    // Return token buy price plus royalties of all its components\n    uint256 total = 0;\n    total = total + _tokenIdToPrice[tokenId];\n    for (uint256 i=0; i < _tokenIdToComponents[tokenId].length; i++) {\n      total = total + _tokenIdToPrice[_tokenIdToComponents[tokenId][i]];\n    }\n    return total;\n  }\n\n  function getProjectHash(uint256 tokenId) public view returns (string memory) {\n    require(tokenId < tokenCounter);\n    return _tokenIdToHash[tokenId];\n  }\n\n  function getTokenComponents(uint256 tokenId) public view returns (uint256[] memory) {\n    require(tokenId < tokenCounter);\n    return _tokenIdToComponents[tokenId];\n  }\n\n  function transferPayment(uint256 tokenId, uint256 amount) public {\n    // TODO transfer ether to poject owner (price) and components owners (royalty price) from amount\n    // TODO needs requires\n    address payable owner = payable(ownerOf(tokenId));\n    owner.transfer(amount - _tokenIdToPrice[tokenId]);\n\n    // TODO similarly needs to pay owners of components\n  }\n\n}\n",
  "sourcePath": "/home/matteo/Projects/Uni/blockchain-project/contracts/ProjectNFT.sol",
  "compiler": {
    "name": "solc",
    "version": "0.8.19+commit.7dd6d404.Emscripten.clang"
  },
  "schemaVersion": "3.4.13",
  "updatedAt": "2023-06-22T13:21:20.857Z",
  "networkType": "ethereum",
  "devdoc": {
    "events": {
      "Approval(address,address,uint256)": {
        "details": "Emitted when `owner` enables `approved` to manage the `tokenId` token."
      },
      "ApprovalForAll(address,address,bool)": {
        "details": "Emitted when `owner` enables or disables (`approved`) `operator` to manage all of its assets."
      },
      "BatchMetadataUpdate(uint256,uint256)": {
        "details": "This event emits when the metadata of a range of tokens is changed. So that the third-party platforms such as NFT market could timely update the images and related attributes of the NFTs."
      },
      "MetadataUpdate(uint256)": {
        "details": "This event emits when the metadata of a token is changed. So that the third-party platforms such as NFT market could timely update the images and related attributes of the NFT."
      },
      "Transfer(address,address,uint256)": {
        "details": "Emitted when `tokenId` token is transferred from `from` to `to`."
      }
    },
    "kind": "dev",
    "methods": {
      "approve(address,uint256)": {
        "details": "See {IERC721-approve}."
      },
      "balanceOf(address)": {
        "details": "See {IERC721-balanceOf}."
      },
      "getApproved(uint256)": {
        "details": "See {IERC721-getApproved}."
      },
      "isApprovedForAll(address,address)": {
        "details": "See {IERC721-isApprovedForAll}."
      },
      "name()": {
        "details": "See {IERC721Metadata-name}."
      },
      "ownerOf(uint256)": {
        "details": "See {IERC721-ownerOf}."
      },
      "safeTransferFrom(address,address,uint256)": {
        "details": "See {IERC721-safeTransferFrom}."
      },
      "safeTransferFrom(address,address,uint256,bytes)": {
        "details": "See {IERC721-safeTransferFrom}."
      },
      "setApprovalForAll(address,bool)": {
        "details": "See {IERC721-setApprovalForAll}."
      },
      "supportsInterface(bytes4)": {
        "details": "See {IERC165-supportsInterface}"
      },
      "symbol()": {
        "details": "See {IERC721Metadata-symbol}."
      },
      "tokenURI(uint256)": {
        "details": "See {IERC721Metadata-tokenURI}."
      },
      "transferFrom(address,address,uint256)": {
        "details": "See {IERC721-transferFrom}."
      }
    },
    "version": 1
  },
  "userdoc": {
    "kind": "user",
    "methods": {},
    "version": 1
  }
}