{
  "contractName": "ProjectNFT",
  "abi": [
    {
      "inputs": [],
      "stateMutability": "nonpayable",
      "type": "constructor"
    },
    {
      "anonymous": false,
      "inputs": [
        {
          "indexed": true,
          "internalType": "address",
          "name": "owner",
          "type": "address"
        },
        {
          "indexed": true,
          "internalType": "address",
          "name": "approved",
          "type": "address"
        },
        {
          "indexed": true,
          "internalType": "uint256",
          "name": "tokenId",
          "type": "uint256"
        }
      ],
      "name": "Approval",
      "type": "event"
    },
    {
      "anonymous": false,
      "inputs": [
        {
          "indexed": true,
          "internalType": "address",
          "name": "owner",
          "type": "address"
        },
        {
          "indexed": true,
          "internalType": "address",
          "name": "operator",
          "type": "address"
        },
        {
          "indexed": false,
          "internalType": "bool",
          "name": "approved",
          "type": "bool"
        }
      ],
      "name": "ApprovalForAll",
      "type": "event"
    },
    {
      "anonymous": false,
      "inputs": [
        {
          "indexed": false,
          "internalType": "uint256",
          "name": "_fromTokenId",
          "type": "uint256"
        },
        {
          "indexed": false,
          "internalType": "uint256",
          "name": "_toTokenId",
          "type": "uint256"
        }
      ],
      "name": "BatchMetadataUpdate",
      "type": "event"
    },
    {
      "anonymous": false,
      "inputs": [
        {
          "indexed": false,
          "internalType": "uint256",
          "name": "_tokenId",
          "type": "uint256"
        }
      ],
      "name": "MetadataUpdate",
      "type": "event"
    },
    {
      "anonymous": false,
      "inputs": [
        {
          "indexed": true,
          "internalType": "address",
          "name": "from",
          "type": "address"
        },
        {
          "indexed": true,
          "internalType": "address",
          "name": "to",
          "type": "address"
        },
        {
          "indexed": true,
          "internalType": "uint256",
          "name": "tokenId",
          "type": "uint256"
        }
      ],
      "name": "Transfer",
      "type": "event"
    },
    {
      "inputs": [
        {
          "internalType": "address",
          "name": "to",
          "type": "address"
        },
        {
          "internalType": "uint256",
          "name": "tokenId",
          "type": "uint256"
        }
      ],
      "name": "approve",
      "outputs": [],
      "stateMutability": "nonpayable",
      "type": "function"
    },
    {
      "inputs": [
        {
          "internalType": "address",
          "name": "owner",
          "type": "address"
        }
      ],
      "name": "balanceOf",
      "outputs": [
        {
          "internalType": "uint256",
          "name": "",
          "type": "uint256"
        }
      ],
      "stateMutability": "view",
      "type": "function",
      "constant": true
    },
    {
      "inputs": [
        {
          "internalType": "uint256",
          "name": "tokenId",
          "type": "uint256"
        }
      ],
      "name": "getApproved",
      "outputs": [
        {
          "internalType": "address",
          "name": "",
          "type": "address"
        }
      ],
      "stateMutability": "view",
      "type": "function",
      "constant": true
    },
    {
      "inputs": [
        {
          "internalType": "address",
          "name": "owner",
          "type": "address"
        },
        {
          "internalType": "address",
          "name": "operator",
          "type": "address"
        }
      ],
      "name": "isApprovedForAll",
      "outputs": [
        {
          "internalType": "bool",
          "name": "",
          "type": "bool"
        }
      ],
      "stateMutability": "view",
      "type": "function",
      "constant": true
    },
    {
      "inputs": [],
      "name": "name",
      "outputs": [
        {
          "internalType": "string",
          "name": "",
          "type": "string"
        }
      ],
      "stateMutability": "view",
      "type": "function",
      "constant": true
    },
    {
      "inputs": [
        {
          "internalType": "uint256",
          "name": "tokenId",
          "type": "uint256"
        }
      ],
      "name": "ownerOf",
      "outputs": [
        {
          "internalType": "address",
          "name": "",
          "type": "address"
        }
      ],
      "stateMutability": "view",
      "type": "function",
      "constant": true
    },
    {
      "inputs": [
        {
          "internalType": "address",
          "name": "from",
          "type": "address"
        },
        {
          "internalType": "address",
          "name": "to",
          "type": "address"
        },
        {
          "internalType": "uint256",
          "name": "tokenId",
          "type": "uint256"
        }
      ],
      "name": "safeTransferFrom",
      "outputs": [],
      "stateMutability": "nonpayable",
      "type": "function"
    },
    {
      "inputs": [
        {
          "internalType": "address",
          "name": "from",
          "type": "address"
        },
        {
          "internalType": "address",
          "name": "to",
          "type": "address"
        },
        {
          "internalType": "uint256",
          "name": "tokenId",
          "type": "uint256"
        },
        {
          "internalType": "bytes",
          "name": "data",
          "type": "bytes"
        }
      ],
      "name": "safeTransferFrom",
      "outputs": [],
      "stateMutability": "nonpayable",
      "type": "function"
    },
    {
      "inputs": [
        {
          "internalType": "address",
          "name": "operator",
          "type": "address"
        },
        {
          "internalType": "bool",
          "name": "approved",
          "type": "bool"
        }
      ],
      "name": "setApprovalForAll",
      "outputs": [],
      "stateMutability": "nonpayable",
      "type": "function"
    },
    {
      "inputs": [
        {
          "internalType": "bytes4",
          "name": "interfaceId",
          "type": "bytes4"
        }
      ],
      "name": "supportsInterface",
      "outputs": [
        {
          "internalType": "bool",
          "name": "",
          "type": "bool"
        }
      ],
      "stateMutability": "view",
      "type": "function",
      "constant": true
    },
    {
      "inputs": [],
      "name": "symbol",
      "outputs": [
        {
          "internalType": "string",
          "name": "",
          "type": "string"
        }
      ],
      "stateMutability": "view",
      "type": "function",
      "constant": true
    },
    {
      "inputs": [],
      "name": "tokenCounter",
      "outputs": [
        {
          "internalType": "uint256",
          "name": "",
          "type": "uint256"
        }
      ],
      "stateMutability": "view",
      "type": "function",
      "constant": true
    },
    {
      "inputs": [
        {
          "internalType": "uint256",
          "name": "tokenId",
          "type": "uint256"
        }
      ],
      "name": "tokenURI",
      "outputs": [
        {
          "internalType": "string",
          "name": "",
          "type": "string"
        }
      ],
      "stateMutability": "view",
      "type": "function",
      "constant": true
    },
    {
      "inputs": [
        {
          "internalType": "address",
          "name": "from",
          "type": "address"
        },
        {
          "internalType": "address",
          "name": "to",
          "type": "address"
        },
        {
          "internalType": "uint256",
          "name": "tokenId",
          "type": "uint256"
        }
      ],
      "name": "transferFrom",
      "outputs": [],
      "stateMutability": "nonpayable",
      "type": "function"
    },
    {
      "inputs": [
        {
          "internalType": "address",
          "name": "sender",
          "type": "address"
        },
        {
          "internalType": "uint256",
          "name": "price",
          "type": "uint256"
        },
        {
          "internalType": "uint256",
          "name": "royaltyPrice",
          "type": "uint256"
        },
        {
          "internalType": "string",
          "name": "projectHash",
          "type": "string"
        },
        {
          "internalType": "uint256[]",
          "name": "components",
          "type": "uint256[]"
        }
      ],
      "name": "mintToken",
      "outputs": [
        {
          "internalType": "uint256",
          "name": "",
          "type": "uint256"
        }
      ],
      "stateMutability": "nonpayable",
      "type": "function"
    },
    {
      "inputs": [
        {
          "internalType": "uint256",
          "name": "tokenId",
          "type": "uint256"
        }
      ],
      "name": "getTokenPrice",
      "outputs": [
        {
          "internalType": "uint256",
          "name": "",
          "type": "uint256"
        }
      ],
      "stateMutability": "view",
      "type": "function",
      "constant": true
    },
    {
      "inputs": [
        {
          "internalType": "uint256",
          "name": "tokenId",
          "type": "uint256"
        }
      ],
      "name": "getTokenRoyaltyPrice",
      "outputs": [
        {
          "internalType": "uint256",
          "name": "",
          "type": "uint256"
        }
      ],
      "stateMutability": "view",
      "type": "function",
      "constant": true
    },
    {
      "inputs": [
        {
          "internalType": "uint256",
          "name": "tokenId",
          "type": "uint256"
        }
      ],
      "name": "getTokenBuyPrice",
      "outputs": [
        {
          "internalType": "uint256",
          "name": "",
          "type": "uint256"
        }
      ],
      "stateMutability": "view",
      "type": "function",
      "constant": true
    },
    {
      "inputs": [
        {
          "internalType": "uint256",
          "name": "tokenId",
          "type": "uint256"
        }
      ],
      "name": "getProjectHash",
      "outputs": [
        {
          "internalType": "string",
          "name": "",
          "type": "string"
        }
      ],
      "stateMutability": "view",
      "type": "function",
      "constant": true
    },
    {
      "inputs": [
        {
          "internalType": "uint256",
          "name": "tokenId",
          "type": "uint256"
        }
      ],
      "name": "getTokenComponents",
      "outputs": [
        {
          "internalType": "uint256[]",
          "name": "",
          "type": "uint256[]"
        }
      ],
      "stateMutability": "view",
      "type": "function",
      "constant": true
    },
    {
      "inputs": [
        {
          "internalType": "uint256",
          "name": "tokenId",
          "type": "uint256"
        },
        {
          "internalType": "uint256",
          "name": "amount",
          "type": "uint256"
        }
      ],
      "name": "transferPayment",
      "outputs": [],
      "stateMutability": "nonpayable",
      "type": "function"
    }
  ],
  "bytecode": "0x60806040523480156200001157600080fd5b506040518060400160405280600b81526020017f44657369676e65724e46540000000000000000000000000000000000000000008152506040518060400160405280600481526020017f444e46540000000000000000000000000000000000000000000000000000000081525081600090816200008f91906200032c565b508060019081620000a191906200032c565b505050600160078190555062000413565b600081519050919050565b7f4e487b7100000000000000000000000000000000000000000000000000000000600052604160045260246000fd5b7f4e487b7100000000000000000000000000000000000000000000000000000000600052602260045260246000fd5b600060028204905060018216806200013457607f821691505b6020821081036200014a5762000149620000ec565b5b50919050565b60008190508160005260206000209050919050565b60006020601f8301049050919050565b600082821b905092915050565b600060088302620001b47fffffffffffffffffffffffffffffffffffffffffffffffffffffffffffffffff8262000175565b620001c0868362000175565b95508019841693508086168417925050509392505050565b6000819050919050565b6000819050919050565b60006200020d620002076200020184620001d8565b620001e2565b620001d8565b9050919050565b6000819050919050565b6200022983620001ec565b62000241620002388262000214565b84845462000182565b825550505050565b600090565b6200025862000249565b620002658184846200021e565b505050565b5b818110156200028d57620002816000826200024e565b6001810190506200026b565b5050565b601f821115620002dc57620002a68162000150565b620002b18462000165565b81016020851015620002c1578190505b620002d9620002d08562000165565b8301826200026a565b50505b505050565b600082821c905092915050565b60006200030160001984600802620002e1565b1980831691505092915050565b60006200031c8383620002ee565b9150826002028217905092915050565b6200033782620000b2565b67ffffffffffffffff811115620003535762000352620000bd565b5b6200035f82546200011b565b6200036c82828562000291565b600060209050601f831160018114620003a457600084156200038f578287015190505b6200039b85826200030e565b8655506200040b565b601f198416620003b48662000150565b60005b82811015620003de57848901518255600182019150602085019450602081019050620003b7565b86831015620003fe5784890151620003fa601f891682620002ee565b8355505b6001600288020188555050505b505050505050565b6139df80620004236000396000f3fe608060405234801561001057600080fd5b50600436106101375760003560e01c806370a08231116100b8578063c457fb371161007c578063c457fb3714610370578063c739acb0146103a0578063c87b56dd146103d0578063cb9d741514610400578063d082e38114610430578063e985e9c51461044e57610137565b806370a08231146102ba57806395d89b41146102ea578063a082dfc214610308578063a22cb46514610338578063b88d4fde1461035457610137565b8063118c66c7116100ff578063118c66c7146101f257806323b872dd1461022257806342842e0e1461023e57806351bbee6f1461025a5780636352211e1461028a57610137565b806301ffc9a71461013c57806306fdde031461016c578063081812fc1461018a578063095ea7b3146101ba578063096e9be7146101d6575b600080fd5b61015660048036038101906101519190612316565b61047e565b604051610163919061235e565b60405180910390f35b6101746104df565b6040516101819190612409565b60405180910390f35b6101a4600480360381019061019f9190612461565b610571565b6040516101b191906124cf565b60405180910390f35b6101d460048036038101906101cf9190612516565b6105b7565b005b6101f060048036038101906101eb9190612556565b6106ce565b005b61020c60048036038101906102079190612461565b6108f2565b6040516102199190612409565b60405180910390f35b61023c60048036038101906102379190612596565b6109db565b005b61025860048036038101906102539190612596565b610a3b565b005b610274600480360381019061026f9190612461565b610a5b565b60405161028191906125f8565b60405180910390f35b6102a4600480360381019061029f9190612461565b610b52565b6040516102b191906124cf565b60405180910390f35b6102d460048036038101906102cf9190612613565b610bd8565b6040516102e191906125f8565b60405180910390f35b6102f2610c8f565b6040516102ff9190612409565b60405180910390f35b610322600480360381019061031d9190612461565b610d21565b60405161032f91906126fe565b60405180910390f35b610352600480360381019061034d919061274c565b610dd0565b005b61036e600480360381019061036991906128c1565b610de6565b005b61038a60048036038101906103859190612461565b610e48565b60405161039791906125f8565b60405180910390f35b6103ba60048036038101906103b59190612461565b610ea9565b6040516103c791906125f8565b60405180910390f35b6103ea60048036038101906103e59190612461565b610f0a565b6040516103f79190612409565b60405180910390f35b61041a600480360381019061041591906129fa565b61101c565b60405161042791906125f8565b60405180910390f35b610438611263565b60405161044591906125f8565b60405180910390f35b61046860048036038101906104639190612ab6565b611269565b604051610475919061235e565b60405180910390f35b6000634906490660e01b7bffffffffffffffffffffffffffffffffffffffffffffffffffffffff1916827bffffffffffffffffffffffffffffffffffffffffffffffffffffffff191614806104d857506104d7826112fd565b5b9050919050565b6060600080546104ee90612b25565b80601f016020809104026020016040519081016040528092919081815260200182805461051a90612b25565b80156105675780601f1061053c57610100808354040283529160200191610567565b820191906000526020600020905b81548152906001019060200180831161054a57829003601f168201915b5050505050905090565b600061057c826113df565b6004600083815260200190815260200160002060009054906101000a900473ffffffffffffffffffffffffffffffffffffffff169050919050565b60006105c282610b52565b90508073ffffffffffffffffffffffffffffffffffffffff168373ffffffffffffffffffffffffffffffffffffffff1603610632576040517f08c379a000000000000000000000000000000000000000000000000000000000815260040161062990612bc8565b60405180910390fd5b8073ffffffffffffffffffffffffffffffffffffffff1661065161142a565b73ffffffffffffffffffffffffffffffffffffffff161480610680575061067f8161067a61142a565b611269565b5b6106bf576040517f08c379a00000000000000000000000000000000000000000000000000000000081526004016106b690612c5a565b60405180910390fd5b6106c98383611432565b505050565b6007548210610712576040517f08c379a000000000000000000000000000000000000000000000000000000000815260040161070990612cc6565b60405180910390fd5b61071b82610e48565b811461075c576040517f08c379a000000000000000000000000000000000000000000000000000000000815260040161075390612d58565b60405180910390fd5b600061076783610b52565b90508073ffffffffffffffffffffffffffffffffffffffff166108fc6008600086815260200190815260200160002054846107a29190612da7565b9081150290604051600060405180830381858888f193505050501580156107cd573d6000803e3d6000fd5b506008600084815260200190815260200160002054826107ed9190612da7565b915060005b600b6000858152602001908152602001600020805490508110156108ec576000600b6000868152602001908152602001600020828154811061083757610836612ddb565b5b90600052602060002001549050600061084f82610b52565b90508073ffffffffffffffffffffffffffffffffffffffff166108fc60096000858152602001908152602001600020548761088a9190612da7565b9081150290604051600060405180830381858888f193505050501580156108b5573d6000803e3d6000fd5b506009600083815260200190815260200160002054856108d59190612da7565b9450505080806108e490612e0a565b9150506107f2565b50505050565b60606007548210610938576040517f08c379a000000000000000000000000000000000000000000000000000000000815260040161092f90612cc6565b60405180910390fd5b600a6000838152602001908152602001600020805461095690612b25565b80601f016020809104026020016040519081016040528092919081815260200182805461098290612b25565b80156109cf5780601f106109a4576101008083540402835291602001916109cf565b820191906000526020600020905b8154815290600101906020018083116109b257829003601f168201915b50505050509050919050565b6109ec6109e661142a565b826114eb565b610a2b576040517f08c379a0000000000000000000000000000000000000000000000000000000008152600401610a2290612ec4565b60405180910390fd5b610a36838383611580565b505050565b610a5683838360405180602001604052806000815250610de6565b505050565b60006007548210610aa1576040517f08c379a0000000000000000000000000000000000000000000000000000000008152600401610a9890612cc6565b60405180910390fd5b6000600860008481526020019081526020016000205481610ac29190612ee4565b905060005b600b600085815260200190815260200160002080549050811015610b485760086000600b60008781526020019081526020016000208381548110610b0e57610b0d612ddb565b5b906000526020600020015481526020019081526020016000205482610b339190612ee4565b91508080610b4090612e0a565b915050610ac7565b5080915050919050565b600080610b5e83611879565b9050600073ffffffffffffffffffffffffffffffffffffffff168173ffffffffffffffffffffffffffffffffffffffff1603610bcf576040517f08c379a0000000000000000000000000000000000000000000000000000000008152600401610bc690612f64565b60405180910390fd5b80915050919050565b60008073ffffffffffffffffffffffffffffffffffffffff168273ffffffffffffffffffffffffffffffffffffffff1603610c48576040517f08c379a0000000000000000000000000000000000000000000000000000000008152600401610c3f90612ff6565b60405180910390fd5b600360008373ffffffffffffffffffffffffffffffffffffffff1673ffffffffffffffffffffffffffffffffffffffff168152602001908152602001600020549050919050565b606060018054610c9e90612b25565b80601f0160208091040260200160405190810160405280929190818152602001828054610cca90612b25565b8015610d175780601f10610cec57610100808354040283529160200191610d17565b820191906000526020600020905b815481529060010190602001808311610cfa57829003601f168201915b5050505050905090565b60606007548210610d67576040517f08c379a0000000000000000000000000000000000000000000000000000000008152600401610d5e90612cc6565b60405180910390fd5b600b6000838152602001908152602001600020805480602002602001604051908101604052809291908181526020018280548015610dc457602002820191906000526020600020905b815481526020019060010190808311610db0575b50505050509050919050565b610de2610ddb61142a565b83836118b6565b5050565b610df7610df161142a565b836114eb565b610e36576040517f08c379a0000000000000000000000000000000000000000000000000000000008152600401610e2d90612ec4565b60405180910390fd5b610e4284848484611a22565b50505050565b60006007548210610e8e576040517f08c379a0000000000000000000000000000000000000000000000000000000008152600401610e8590612cc6565b60405180910390fd5b60086000838152602001908152602001600020549050919050565b60006007548210610eef576040517f08c379a0000000000000000000000000000000000000000000000000000000008152600401610ee690612cc6565b60405180910390fd5b60096000838152602001908152602001600020549050919050565b6060610f15826113df565b6000600660008481526020019081526020016000208054610f3590612b25565b80601f0160208091040260200160405190810160405280929190818152602001828054610f6190612b25565b8015610fae5780601f10610f8357610100808354040283529160200191610fae565b820191906000526020600020905b815481529060010190602001808311610f9157829003601f168201915b505050505090506000610fbf611a7e565b90506000815103610fd4578192505050611017565b600082511115611009578082604051602001610ff1929190613052565b60405160208183030381529060405292505050611017565b61101284611a95565b925050505b919050565b6000600c858560405161103092919061309b565b908152602001604051809103902060009054906101000a900460ff161561108c576040517f08c379a000000000000000000000000000000000000000000000000000000000815260040161108390613126565b60405180910390fd5b60005b8383905081101561110a576007548484838181106110b0576110af612ddb565b5b90506020020135106110f7576040517f08c379a00000000000000000000000000000000000000000000000000000000081526004016110ee90613192565b60405180910390fd5b808061110290612e0a565b91505061108f565b506000600754905061111c8982611afd565b60006040518060400160405280601481526020017f6c6f63616c686f73743a333030302f6e6674732f000000000000000000000000815250905060008161116284611d1a565b604051602001611173929190613052565b604051602081830303815290604052905061118e8382611de8565b8960086000858152602001908152602001600020819055508860096000858152602001908152602001600020819055508787600a600086815260200190815260200160002091826111e0929190613369565b506001600c89896040516111f592919061309b565b908152602001604051809103902060006101000a81548160ff0219169083151502179055508585600b6000868152602001908152602001600020919061123c929190612240565b50600160075461124c9190612ee4565b600781905550829350505050979650505050505050565b60075481565b6000600560008473ffffffffffffffffffffffffffffffffffffffff1673ffffffffffffffffffffffffffffffffffffffff16815260200190815260200160002060008373ffffffffffffffffffffffffffffffffffffffff1673ffffffffffffffffffffffffffffffffffffffff16815260200190815260200160002060009054906101000a900460ff16905092915050565b60007f80ac58cd000000000000000000000000000000000000000000000000000000007bffffffffffffffffffffffffffffffffffffffffffffffffffffffff1916827bffffffffffffffffffffffffffffffffffffffffffffffffffffffff191614806113c857507f5b5e139f000000000000000000000000000000000000000000000000000000007bffffffffffffffffffffffffffffffffffffffffffffffffffffffff1916827bffffffffffffffffffffffffffffffffffffffffffffffffffffffff1916145b806113d857506113d782611e8c565b5b9050919050565b6113e881611ef6565b611427576040517f08c379a000000000000000000000000000000000000000000000000000000000815260040161141e90612f64565b60405180910390fd5b50565b600033905090565b816004600083815260200190815260200160002060006101000a81548173ffffffffffffffffffffffffffffffffffffffff021916908373ffffffffffffffffffffffffffffffffffffffff160217905550808273ffffffffffffffffffffffffffffffffffffffff166114a583610b52565b73ffffffffffffffffffffffffffffffffffffffff167f8c5be1e5ebec7d5bd14f71427d1e84f3dd0314c0f7b2291e5b200ac8c7c3b92560405160405180910390a45050565b6000806114f783610b52565b90508073ffffffffffffffffffffffffffffffffffffffff168473ffffffffffffffffffffffffffffffffffffffff16148061153957506115388185611269565b5b8061157757508373ffffffffffffffffffffffffffffffffffffffff1661155f84610571565b73ffffffffffffffffffffffffffffffffffffffff16145b91505092915050565b8273ffffffffffffffffffffffffffffffffffffffff166115a082610b52565b73ffffffffffffffffffffffffffffffffffffffff16146115f6576040517f08c379a00000000000000000000000000000000000000000000000000000000081526004016115ed906134ab565b60405180910390fd5b600073ffffffffffffffffffffffffffffffffffffffff168273ffffffffffffffffffffffffffffffffffffffff1603611665576040517f08c379a000000000000000000000000000000000000000000000000000000000815260040161165c9061353d565b60405180910390fd5b6116728383836001611f37565b8273ffffffffffffffffffffffffffffffffffffffff1661169282610b52565b73ffffffffffffffffffffffffffffffffffffffff16146116e8576040517f08c379a00000000000000000000000000000000000000000000000000000000081526004016116df906134ab565b60405180910390fd5b6004600082815260200190815260200160002060006101000a81549073ffffffffffffffffffffffffffffffffffffffff02191690556001600360008573ffffffffffffffffffffffffffffffffffffffff1673ffffffffffffffffffffffffffffffffffffffff168152602001908152602001600020600082825403925050819055506001600360008473ffffffffffffffffffffffffffffffffffffffff1673ffffffffffffffffffffffffffffffffffffffff16815260200190815260200160002060008282540192505081905550816002600083815260200190815260200160002060006101000a81548173ffffffffffffffffffffffffffffffffffffffff021916908373ffffffffffffffffffffffffffffffffffffffff160217905550808273ffffffffffffffffffffffffffffffffffffffff168473ffffffffffffffffffffffffffffffffffffffff167fddf252ad1be2c89b69c2b068fc378daa952ba7f163c4a11628f55a4df523b3ef60405160405180910390a46118748383836001611f3d565b505050565b60006002600083815260200190815260200160002060009054906101000a900473ffffffffffffffffffffffffffffffffffffffff169050919050565b8173ffffffffffffffffffffffffffffffffffffffff168373ffffffffffffffffffffffffffffffffffffffff1603611924576040517f08c379a000000000000000000000000000000000000000000000000000000000815260040161191b906135a9565b60405180910390fd5b80600560008573ffffffffffffffffffffffffffffffffffffffff1673ffffffffffffffffffffffffffffffffffffffff16815260200190815260200160002060008473ffffffffffffffffffffffffffffffffffffffff1673ffffffffffffffffffffffffffffffffffffffff16815260200190815260200160002060006101000a81548160ff0219169083151502179055508173ffffffffffffffffffffffffffffffffffffffff168373ffffffffffffffffffffffffffffffffffffffff167f17307eab39ab6107e8899845ad3d59bd9653f200f220920489ca2b5937696c3183604051611a15919061235e565b60405180910390a3505050565b611a2d848484611580565b611a3984848484611f43565b611a78576040517f08c379a0000000000000000000000000000000000000000000000000000000008152600401611a6f9061363b565b60405180910390fd5b50505050565b606060405180602001604052806000815250905090565b6060611aa0826113df565b6000611aaa611a7e565b90506000815111611aca5760405180602001604052806000815250611af5565b80611ad484611d1a565b604051602001611ae5929190613052565b6040516020818303038152906040525b915050919050565b600073ffffffffffffffffffffffffffffffffffffffff168273ffffffffffffffffffffffffffffffffffffffff1603611b6c576040517f08c379a0000000000000000000000000000000000000000000000000000000008152600401611b63906136a7565b60405180910390fd5b611b7581611ef6565b15611bb5576040517f08c379a0000000000000000000000000000000000000000000000000000000008152600401611bac90613713565b60405180910390fd5b611bc3600083836001611f37565b611bcc81611ef6565b15611c0c576040517f08c379a0000000000000000000000000000000000000000000000000000000008152600401611c0390613713565b60405180910390fd5b6001600360008473ffffffffffffffffffffffffffffffffffffffff1673ffffffffffffffffffffffffffffffffffffffff16815260200190815260200160002060008282540192505081905550816002600083815260200190815260200160002060006101000a81548173ffffffffffffffffffffffffffffffffffffffff021916908373ffffffffffffffffffffffffffffffffffffffff160217905550808273ffffffffffffffffffffffffffffffffffffffff16600073ffffffffffffffffffffffffffffffffffffffff167fddf252ad1be2c89b69c2b068fc378daa952ba7f163c4a11628f55a4df523b3ef60405160405180910390a4611d16600083836001611f3d565b5050565b606060006001611d29846120ca565b01905060008167ffffffffffffffff811115611d4857611d47612796565b5b6040519080825280601f01601f191660200182016040528015611d7a5781602001600182028036833780820191505090505b509050600082602001820190505b600115611ddd578080600190039150507f3031323334353637383961626364656600000000000000000000000000000000600a86061a8153600a8581611dd157611dd0613733565b5b04945060008503611d88575b819350505050919050565b611df182611ef6565b611e30576040517f08c379a0000000000000000000000000000000000000000000000000000000008152600401611e27906137d4565b60405180910390fd5b80600660008481526020019081526020016000209081611e5091906137f4565b507ff8e1a15aba9398e019f0b49df1a4fde98ee17ae345cb5f6b5e2c27f5033e8ce782604051611e8091906125f8565b60405180910390a15050565b60007f01ffc9a7000000000000000000000000000000000000000000000000000000007bffffffffffffffffffffffffffffffffffffffffffffffffffffffff1916827bffffffffffffffffffffffffffffffffffffffffffffffffffffffff1916149050919050565b60008073ffffffffffffffffffffffffffffffffffffffff16611f1883611879565b73ffffffffffffffffffffffffffffffffffffffff1614159050919050565b50505050565b50505050565b6000611f648473ffffffffffffffffffffffffffffffffffffffff1661221d565b156120bd578373ffffffffffffffffffffffffffffffffffffffff1663150b7a02611f8d61142a565b8786866040518563ffffffff1660e01b8152600401611faf949392919061391b565b6020604051808303816000875af1925050508015611feb57506040513d601f19601f82011682018060405250810190611fe8919061397c565b60015b61206d573d806000811461201b576040519150601f19603f3d011682016040523d82523d6000602084013e612020565b606091505b506000815103612065576040517f08c379a000000000000000000000000000000000000000000000000000000000815260040161205c9061363b565b60405180910390fd5b805181602001fd5b63150b7a0260e01b7bffffffffffffffffffffffffffffffffffffffffffffffffffffffff1916817bffffffffffffffffffffffffffffffffffffffffffffffffffffffff1916149150506120c2565b600190505b949350505050565b600080600090507a184f03e93ff9f4daa797ed6e38ed64bf6a1f0100000000000000008310612128577a184f03e93ff9f4daa797ed6e38ed64bf6a1f010000000000000000838161211e5761211d613733565b5b0492506040810190505b6d04ee2d6d415b85acef81000000008310612165576d04ee2d6d415b85acef8100000000838161215b5761215a613733565b5b0492506020810190505b662386f26fc10000831061219457662386f26fc10000838161218a57612189613733565b5b0492506010810190505b6305f5e10083106121bd576305f5e10083816121b3576121b2613733565b5b0492506008810190505b61271083106121e25761271083816121d8576121d7613733565b5b0492506004810190505b6064831061220557606483816121fb576121fa613733565b5b0492506002810190505b600a8310612214576001810190505b80915050919050565b6000808273ffffffffffffffffffffffffffffffffffffffff163b119050919050565b82805482825590600052602060002090810192821561227c579160200282015b8281111561227b578235825591602001919060010190612260565b5b509050612289919061228d565b5090565b5b808211156122a657600081600090555060010161228e565b5090565b6000604051905090565b600080fd5b600080fd5b60007fffffffff0000000000000000000000000000000000000000000000000000000082169050919050565b6122f3816122be565b81146122fe57600080fd5b50565b600081359050612310816122ea565b92915050565b60006020828403121561232c5761232b6122b4565b5b600061233a84828501612301565b91505092915050565b60008115159050919050565b61235881612343565b82525050565b6000602082019050612373600083018461234f565b92915050565b600081519050919050565b600082825260208201905092915050565b60005b838110156123b3578082015181840152602081019050612398565b60008484015250505050565b6000601f19601f8301169050919050565b60006123db82612379565b6123e58185612384565b93506123f5818560208601612395565b6123fe816123bf565b840191505092915050565b6000602082019050818103600083015261242381846123d0565b905092915050565b6000819050919050565b61243e8161242b565b811461244957600080fd5b50565b60008135905061245b81612435565b92915050565b600060208284031215612477576124766122b4565b5b60006124858482850161244c565b91505092915050565b600073ffffffffffffffffffffffffffffffffffffffff82169050919050565b60006124b98261248e565b9050919050565b6124c9816124ae565b82525050565b60006020820190506124e460008301846124c0565b92915050565b6124f3816124ae565b81146124fe57600080fd5b50565b600081359050612510816124ea565b92915050565b6000806040838503121561252d5761252c6122b4565b5b600061253b85828601612501565b925050602061254c8582860161244c565b9150509250929050565b6000806040838503121561256d5761256c6122b4565b5b600061257b8582860161244c565b925050602061258c8582860161244c565b9150509250929050565b6000806000606084860312156125af576125ae6122b4565b5b60006125bd86828701612501565b93505060206125ce86828701612501565b92505060406125df8682870161244c565b9150509250925092565b6125f28161242b565b82525050565b600060208201905061260d60008301846125e9565b92915050565b600060208284031215612629576126286122b4565b5b600061263784828501612501565b91505092915050565b600081519050919050565b600082825260208201905092915050565b6000819050602082019050919050565b6126758161242b565b82525050565b6000612687838361266c565b60208301905092915050565b6000602082019050919050565b60006126ab82612640565b6126b5818561264b565b93506126c08361265c565b8060005b838110156126f15781516126d8888261267b565b97506126e383612693565b9250506001810190506126c4565b5085935050505092915050565b6000602082019050818103600083015261271881846126a0565b905092915050565b61272981612343565b811461273457600080fd5b50565b60008135905061274681612720565b92915050565b60008060408385031215612763576127626122b4565b5b600061277185828601612501565b925050602061278285828601612737565b9150509250929050565b600080fd5b600080fd5b7f4e487b7100000000000000000000000000000000000000000000000000000000600052604160045260246000fd5b6127ce826123bf565b810181811067ffffffffffffffff821117156127ed576127ec612796565b5b80604052505050565b60006128006122aa565b905061280c82826127c5565b919050565b600067ffffffffffffffff82111561282c5761282b612796565b5b612835826123bf565b9050602081019050919050565b82818337600083830152505050565b600061286461285f84612811565b6127f6565b9050828152602081018484840111156128805761287f612791565b5b61288b848285612842565b509392505050565b600082601f8301126128a8576128a761278c565b5b81356128b8848260208601612851565b91505092915050565b600080600080608085870312156128db576128da6122b4565b5b60006128e987828801612501565b94505060206128fa87828801612501565b935050604061290b8782880161244c565b925050606085013567ffffffffffffffff81111561292c5761292b6122b9565b5b61293887828801612893565b91505092959194509250565b600080fd5b600080fd5b60008083601f8401126129645761296361278c565b5b8235905067ffffffffffffffff81111561298157612980612944565b5b60208301915083600182028301111561299d5761299c612949565b5b9250929050565b60008083601f8401126129ba576129b961278c565b5b8235905067ffffffffffffffff8111156129d7576129d6612944565b5b6020830191508360208202830111156129f3576129f2612949565b5b9250929050565b600080600080600080600060a0888a031215612a1957612a186122b4565b5b6000612a278a828b01612501565b9750506020612a388a828b0161244c565b9650506040612a498a828b0161244c565b955050606088013567ffffffffffffffff811115612a6a57612a696122b9565b5b612a768a828b0161294e565b9450945050608088013567ffffffffffffffff811115612a9957612a986122b9565b5b612aa58a828b016129a4565b925092505092959891949750929550565b60008060408385031215612acd57612acc6122b4565b5b6000612adb85828601612501565b9250506020612aec85828601612501565b9150509250929050565b7f4e487b7100000000000000000000000000000000000000000000000000000000600052602260045260246000fd5b60006002820490506001821680612b3d57607f821691505b602082108103612b5057612b4f612af6565b5b50919050565b7f4552433732313a20617070726f76616c20746f2063757272656e74206f776e6560008201527f7200000000000000000000000000000000000000000000000000000000000000602082015250565b6000612bb2602183612384565b9150612bbd82612b56565b604082019050919050565b60006020820190508181036000830152612be181612ba5565b9050919050565b7f4552433732313a20617070726f76652063616c6c6572206973206e6f7420746f60008201527f6b656e206f776e6572206f7220617070726f76656420666f7220616c6c000000602082015250565b6000612c44603d83612384565b9150612c4f82612be8565b604082019050919050565b60006020820190508181036000830152612c7381612c37565b9050919050565b7f546f6b656e2077697468207468697320696420646f6573206e6f742065786974600082015250565b6000612cb0602083612384565b9150612cbb82612c7a565b602082019050919050565b60006020820190508181036000830152612cdf81612ca3565b9050919050565b7f50617920616d6f756e74206973206e6f74207072696365206f662070726f6a6560008201527f6374000000000000000000000000000000000000000000000000000000000000602082015250565b6000612d42602283612384565b9150612d4d82612ce6565b604082019050919050565b60006020820190508181036000830152612d7181612d35565b9050919050565b7f4e487b7100000000000000000000000000000000000000000000000000000000600052601160045260246000fd5b6000612db28261242b565b9150612dbd8361242b565b9250828203905081811115612dd557612dd4612d78565b5b92915050565b7f4e487b7100000000000000000000000000000000000000000000000000000000600052603260045260246000fd5b6000612e158261242b565b91507fffffffffffffffffffffffffffffffffffffffffffffffffffffffffffffffff8203612e4757612e46612d78565b5b600182019050919050565b7f4552433732313a2063616c6c6572206973206e6f7420746f6b656e206f776e6560008201527f72206f7220617070726f76656400000000000000000000000000000000000000602082015250565b6000612eae602d83612384565b9150612eb982612e52565b604082019050919050565b60006020820190508181036000830152612edd81612ea1565b9050919050565b6000612eef8261242b565b9150612efa8361242b565b9250828201905080821115612f1257612f11612d78565b5b92915050565b7f4552433732313a20696e76616c696420746f6b656e2049440000000000000000600082015250565b6000612f4e601883612384565b9150612f5982612f18565b602082019050919050565b60006020820190508181036000830152612f7d81612f41565b9050919050565b7f4552433732313a2061646472657373207a65726f206973206e6f74206120766160008201527f6c6964206f776e65720000000000000000000000000000000000000000000000602082015250565b6000612fe0602983612384565b9150612feb82612f84565b604082019050919050565b6000602082019050818103600083015261300f81612fd3565b9050919050565b600081905092915050565b600061302c82612379565b6130368185613016565b9350613046818560208601612395565b80840191505092915050565b600061305e8285613021565b915061306a8284613021565b91508190509392505050565b60006130828385613016565b935061308f838584612842565b82840190509392505050565b60006130a8828486613076565b91508190509392505050565b7f412070726f6a65637420776974682074686973206861736820616c726561647960008201527f2065786973747300000000000000000000000000000000000000000000000000602082015250565b6000613110602783612384565b915061311b826130b4565b604082019050919050565b6000602082019050818103600083015261313f81613103565b9050919050565b7f436f6d706f6e656e74206973206e6f7420612076616c69642070726f6a656374600082015250565b600061317c602083612384565b915061318782613146565b602082019050919050565b600060208201905081810360008301526131ab8161316f565b9050919050565b600082905092915050565b60008190508160005260206000209050919050565b60006020601f8301049050919050565b600082821b905092915050565b60006008830261321f7fffffffffffffffffffffffffffffffffffffffffffffffffffffffffffffffff826131e2565b61322986836131e2565b95508019841693508086168417925050509392505050565b6000819050919050565b600061326661326161325c8461242b565b613241565b61242b565b9050919050565b6000819050919050565b6132808361324b565b61329461328c8261326d565b8484546131ef565b825550505050565b600090565b6132a961329c565b6132b4818484613277565b505050565b5b818110156132d8576132cd6000826132a1565b6001810190506132ba565b5050565b601f82111561331d576132ee816131bd565b6132f7846131d2565b81016020851015613306578190505b61331a613312856131d2565b8301826132b9565b50505b505050565b600082821c905092915050565b600061334060001984600802613322565b1980831691505092915050565b6000613359838361332f565b9150826002028217905092915050565b61337383836131b2565b67ffffffffffffffff81111561338c5761338b612796565b5b6133968254612b25565b6133a18282856132dc565b6000601f8311600181146133d057600084156133be578287013590505b6133c8858261334d565b865550613430565b601f1984166133de866131bd565b60005b82811015613406578489013582556001820191506020850194506020810190506133e1565b86831015613423578489013561341f601f89168261332f565b8355505b6001600288020188555050505b50505050505050565b7f4552433732313a207472616e736665722066726f6d20696e636f72726563742060008201527f6f776e6572000000000000000000000000000000000000000000000000000000602082015250565b6000613495602583612384565b91506134a082613439565b604082019050919050565b600060208201905081810360008301526134c481613488565b9050919050565b7f4552433732313a207472616e7366657220746f20746865207a65726f2061646460008201527f7265737300000000000000000000000000000000000000000000000000000000602082015250565b6000613527602483612384565b9150613532826134cb565b604082019050919050565b600060208201905081810360008301526135568161351a565b9050919050565b7f4552433732313a20617070726f766520746f2063616c6c657200000000000000600082015250565b6000613593601983612384565b915061359e8261355d565b602082019050919050565b600060208201905081810360008301526135c281613586565b9050919050565b7f4552433732313a207472616e7366657220746f206e6f6e20455243373231526560008201527f63656976657220696d706c656d656e7465720000000000000000000000000000602082015250565b6000613625603283612384565b9150613630826135c9565b604082019050919050565b6000602082019050818103600083015261365481613618565b9050919050565b7f4552433732313a206d696e7420746f20746865207a65726f2061646472657373600082015250565b6000613691602083612384565b915061369c8261365b565b602082019050919050565b600060208201905081810360008301526136c081613684565b9050919050565b7f4552433732313a20746f6b656e20616c7265616479206d696e74656400000000600082015250565b60006136fd601c83612384565b9150613708826136c7565b602082019050919050565b6000602082019050818103600083015261372c816136f0565b9050919050565b7f4e487b7100000000000000000000000000000000000000000000000000000000600052601260045260246000fd5b7f45524337323155524953746f726167653a2055524920736574206f66206e6f6e60008201527f6578697374656e7420746f6b656e000000000000000000000000000000000000602082015250565b60006137be602e83612384565b91506137c982613762565b604082019050919050565b600060208201905081810360008301526137ed816137b1565b9050919050565b6137fd82612379565b67ffffffffffffffff81111561381657613815612796565b5b6138208254612b25565b61382b8282856132dc565b600060209050601f83116001811461385e576000841561384c578287015190505b613856858261334d565b8655506138be565b601f19841661386c866131bd565b60005b828110156138945784890151825560018201915060208501945060208101905061386f565b868310156138b157848901516138ad601f89168261332f565b8355505b6001600288020188555050505b505050505050565b600081519050919050565b600082825260208201905092915050565b60006138ed826138c6565b6138f781856138d1565b9350613907818560208601612395565b613910816123bf565b840191505092915050565b600060808201905061393060008301876124c0565b61393d60208301866124c0565b61394a60408301856125e9565b818103606083015261395c81846138e2565b905095945050505050565b600081519050613976816122ea565b92915050565b600060208284031215613992576139916122b4565b5b60006139a084828501613967565b9150509291505056fea26469706673582212204c61c1ff46f24728cf1d48a01e07fc0b59ea0aebd65315bdfde3482be797f4a864736f6c63430008130033",
  "immutableReferences": {},
  "source": "// SPDX-License-Identifier: MIT\npragma solidity ^0.8.18;\n\nimport '@openzeppelin/contracts/utils/Counters.sol';\nimport '@openzeppelin/contracts/token/ERC721/ERC721.sol';\nimport '@openzeppelin/contracts/token/ERC721/extensions/ERC721URIStorage.sol';\n\ncontract ProjectNFT is ERC721URIStorage {\n  uint256 public tokenCounter;\n\n  // Maps tokenId to project's price\n  mapping(uint256 => uint256) private _tokenIdToPrice;\n\n  // Maps tokenId to royalty price\n  mapping(uint256 => uint256) private _tokenIdToRoyaltyPrice;\n\n  // Maps tokenId to hash of project\n  mapping(uint256 => string) private _tokenIdToHash;\n\n  // Maps tokenId to list of components of project\n  mapping(uint256 => uint256[]) private _tokenIdToComponents;\n\n  // Map to check hashes are unique\n  mapping(string => bool) private _hashes;\n\n  constructor() ERC721('DesignerNFT', 'DNFT') {\n    tokenCounter = 1;\n  }\n\n  function mintToken(\n    address sender,\n    uint256 price,\n    uint256 royaltyPrice,\n    string calldata projectHash,\n    uint256[] calldata components\n  ) public returns (uint256) {\n    // Check NFT parameters:\n    \n    // Check hash is unique\n    require(!_hashes[projectHash], 'A project with this hash already exists');\n\n    // Check components exists\n    for (uint i = 0; i < components.length; i++) {\n      require(components[i] < tokenCounter, 'Component is not a valid project');\n    }\n    \n    // Get NFT id\n    uint256 newItemId = tokenCounter;\n\n    // Mint new token (openzeppelin)\n    _mint(sender, newItemId);\n\n    // Build uri from base + tokenId\n    string memory baseUri = \"localhost:3000/nfts/\";\n    string memory uri = string.concat(baseUri, Strings.toString(newItemId));\n    _setTokenURI(newItemId, uri);\n\n    // Set NFT parameters\n    _tokenIdToPrice[newItemId] = price;\n    _tokenIdToRoyaltyPrice[newItemId] = royaltyPrice;\n    _tokenIdToHash[newItemId] = projectHash;\n    _hashes[projectHash] = true;\n    _tokenIdToComponents[newItemId] = components;\n\n    // Increment token counter\n    tokenCounter = tokenCounter + 1;\n\n    return newItemId;\n  }\n\n  function getTokenPrice(uint256 tokenId) public view returns (uint256) {\n    require(tokenId < tokenCounter, 'Token with this id does not exit');\n    return _tokenIdToPrice[tokenId];\n  }\n\n  function getTokenRoyaltyPrice(uint256 tokenId) public view returns (uint256) {\n    require(tokenId < tokenCounter, 'Token with this id does not exit');\n    return _tokenIdToRoyaltyPrice[tokenId];\n  }\n\n  //assuming all the subcomponents already present in the project given (maybe is the best idea)\n  function getTokenBuyPrice(uint256 tokenId) public view returns (uint256) {\n    require(tokenId < tokenCounter, 'Token with this id does not exit');\n\n    // Return token buy price plus royalties of all its components\n    uint256 total = 0;\n    total = total + _tokenIdToPrice[tokenId];\n    for (uint256 i=0; i < _tokenIdToComponents[tokenId].length; i++) {\n      total = total + _tokenIdToPrice[_tokenIdToComponents[tokenId][i]];\n    }\n    return total;\n  }\n\n  /*\n    //ALTERNATIVE 1, assuming not all the components already present, components cascade must to be a tree\n    function getTokenBuyPrice(uint256 tokenId) public view returns (uint256) {\n      require(tokenId < tokenCounter, 'Token with this id does not exit');\n  \n      // Return token buy price plus royalties of all its components\n      uint256 total = 0;\n      total = total + _tokenIdToPrice[tokenId];\n\n      for (uint256 i=0; i < _tokenIdToComponents[tokenId].length; i++) {\n        total = total + getTokenBuyPrice(_tokenIdToComponents[tokenId][i]);\n      }\n\n      return total;\n    }\n\n    //ALTERNATIVE 2, assuming not all the components already present, components cascade can have cycles\n    function computeAllComponents(uint256 tokenId, uint256[] memory components) public view returns (uint256[] memory) {\n        if(components.length==0){\n            uint256[] memory singleComponentArray = new uint256[](1);\n            singleComponentArray[0] = tokenId;\n            return singleComponentArray;\n        }else{\n            for(uint256 i=0; i<components.length; i++){\n                //TO FIX\n                components = unionComponentsArrays(components,computeAllComponents(components[i], _tokenIdToComponents[components[i]]));\n            }\n            return components;\n        }\n    }\n\n    function unionComponentsArrays(uint256[] memory array1, uint256[] memory array2) public pure returns (uint256[] memory) {\n        uint256[] memory result = new uint256[](array1.length + array2.length);\n        uint256 i;\n        uint256 j;\n        uint256 k;\n        for (i = 0; i < array1.length; i++) {\n            result[k++] = array1[i];\n        }\n        for (j = 0; j < array2.length; j++) {\n            bool found = false;\n            for (i = 0; i < array1.length; i++) {\n                if (array2[j] == array1[i]) {\n                    found = true;\n                    break;\n                }\n            }\n            if (!found) {\n                result[k++] = array2[j];\n            }\n        }\n        uint256[] memory resizedResult = new uint256[](k);\n        for (i = 0; i < k; i++) {\n            resizedResult[i] = result[i];\n        }\n        return resizedResult;\n    }\n\n  }\n  */\n\n  function getProjectHash(uint256 tokenId) public view returns (string memory) {\n    require(tokenId < tokenCounter, 'Token with this id does not exit');\n    return _tokenIdToHash[tokenId];\n  }\n\n  function getTokenComponents(uint256 tokenId) public view returns (uint256[] memory) {\n    require(tokenId < tokenCounter, 'Token with this id does not exit');\n    return _tokenIdToComponents[tokenId];\n  }\n\n  function transferPayment(uint256 tokenId, uint256 amount) public {\n    require(tokenId < tokenCounter, 'Token with this id does not exit');\n    require(amount == getTokenPrice(tokenId), 'Pay amount is not price of project');\n\n    address payable owner = payable(ownerOf(tokenId));\n    owner.transfer(amount - _tokenIdToPrice[tokenId]);\n    amount = amount - _tokenIdToPrice[tokenId];\n\n    for (uint256 i=0; i < _tokenIdToComponents[tokenId].length; i++) {\n      uint256 componentTokenId = _tokenIdToComponents[tokenId][i];\n      address payable componentOwner = payable(ownerOf(componentTokenId));\n      componentOwner.transfer(amount - _tokenIdToRoyaltyPrice[componentTokenId]);\n      amount = amount - _tokenIdToRoyaltyPrice[componentTokenId];\n    }\n  }\n\n}\n",
  "sourcePath": "/home/matteo/Projects/Uni/blockchain-project/contracts/ProjectNFT.sol",
  "compiler": {
    "name": "solc",
    "version": "0.8.19+commit.7dd6d404.Emscripten.clang"
  },
  "schemaVersion": "3.4.13",
  "updatedAt": "2023-06-25T09:46:48.154Z",
  "networkType": "ethereum",
  "devdoc": {
    "events": {
      "Approval(address,address,uint256)": {
        "details": "Emitted when `owner` enables `approved` to manage the `tokenId` token."
      },
      "ApprovalForAll(address,address,bool)": {
        "details": "Emitted when `owner` enables or disables (`approved`) `operator` to manage all of its assets."
      },
      "BatchMetadataUpdate(uint256,uint256)": {
        "details": "This event emits when the metadata of a range of tokens is changed. So that the third-party platforms such as NFT market could timely update the images and related attributes of the NFTs."
      },
      "MetadataUpdate(uint256)": {
        "details": "This event emits when the metadata of a token is changed. So that the third-party platforms such as NFT market could timely update the images and related attributes of the NFT."
      },
      "Transfer(address,address,uint256)": {
        "details": "Emitted when `tokenId` token is transferred from `from` to `to`."
      }
    },
    "kind": "dev",
    "methods": {
      "approve(address,uint256)": {
        "details": "See {IERC721-approve}."
      },
      "balanceOf(address)": {
        "details": "See {IERC721-balanceOf}."
      },
      "getApproved(uint256)": {
        "details": "See {IERC721-getApproved}."
      },
      "isApprovedForAll(address,address)": {
        "details": "See {IERC721-isApprovedForAll}."
      },
      "name()": {
        "details": "See {IERC721Metadata-name}."
      },
      "ownerOf(uint256)": {
        "details": "See {IERC721-ownerOf}."
      },
      "safeTransferFrom(address,address,uint256)": {
        "details": "See {IERC721-safeTransferFrom}."
      },
      "safeTransferFrom(address,address,uint256,bytes)": {
        "details": "See {IERC721-safeTransferFrom}."
      },
      "setApprovalForAll(address,bool)": {
        "details": "See {IERC721-setApprovalForAll}."
      },
      "supportsInterface(bytes4)": {
        "details": "See {IERC165-supportsInterface}"
      },
      "symbol()": {
        "details": "See {IERC721Metadata-symbol}."
      },
      "tokenURI(uint256)": {
        "details": "See {IERC721Metadata-tokenURI}."
      },
      "transferFrom(address,address,uint256)": {
        "details": "See {IERC721-transferFrom}."
      }
    },
    "version": 1
  },
  "userdoc": {
    "kind": "user",
    "methods": {},
    "version": 1
  }
}