{
  "contractName": "ProjectNFT",
  "abi": [
    {
      "inputs": [
        {
          "internalType": "string",
          "name": "host_machine_ip",
          "type": "string"
        },
        {
          "internalType": "address",
          "name": "oracle",
          "type": "address"
        },
        {
          "internalType": "string",
          "name": "jobId",
          "type": "string"
        }
      ],
      "stateMutability": "nonpayable",
      "type": "constructor"
    },
    {
      "anonymous": false,
      "inputs": [
        {
          "indexed": true,
          "internalType": "address",
          "name": "owner",
          "type": "address"
        },
        {
          "indexed": true,
          "internalType": "address",
          "name": "approved",
          "type": "address"
        },
        {
          "indexed": true,
          "internalType": "uint256",
          "name": "tokenId",
          "type": "uint256"
        }
      ],
      "name": "Approval",
      "type": "event"
    },
    {
      "anonymous": false,
      "inputs": [
        {
          "indexed": true,
          "internalType": "address",
          "name": "owner",
          "type": "address"
        },
        {
          "indexed": true,
          "internalType": "address",
          "name": "operator",
          "type": "address"
        },
        {
          "indexed": false,
          "internalType": "bool",
          "name": "approved",
          "type": "bool"
        }
      ],
      "name": "ApprovalForAll",
      "type": "event"
    },
    {
      "anonymous": false,
      "inputs": [
        {
          "indexed": false,
          "internalType": "uint256",
          "name": "_fromTokenId",
          "type": "uint256"
        },
        {
          "indexed": false,
          "internalType": "uint256",
          "name": "_toTokenId",
          "type": "uint256"
        }
      ],
      "name": "BatchMetadataUpdate",
      "type": "event"
    },
    {
      "anonymous": false,
      "inputs": [
        {
          "indexed": true,
          "internalType": "bytes32",
          "name": "id",
          "type": "bytes32"
        }
      ],
      "name": "ChainlinkCancelled",
      "type": "event"
    },
    {
      "anonymous": false,
      "inputs": [
        {
          "indexed": true,
          "internalType": "bytes32",
          "name": "id",
          "type": "bytes32"
        }
      ],
      "name": "ChainlinkFulfilled",
      "type": "event"
    },
    {
      "anonymous": false,
      "inputs": [
        {
          "indexed": true,
          "internalType": "bytes32",
          "name": "id",
          "type": "bytes32"
        }
      ],
      "name": "ChainlinkRequested",
      "type": "event"
    },
    {
      "anonymous": false,
      "inputs": [
        {
          "indexed": false,
          "internalType": "uint256",
          "name": "_tokenId",
          "type": "uint256"
        }
      ],
      "name": "MetadataUpdate",
      "type": "event"
    },
    {
      "anonymous": false,
      "inputs": [
        {
          "indexed": true,
          "internalType": "address",
          "name": "from",
          "type": "address"
        },
        {
          "indexed": true,
          "internalType": "address",
          "name": "to",
          "type": "address"
        }
      ],
      "name": "OwnershipTransferRequested",
      "type": "event"
    },
    {
      "anonymous": false,
      "inputs": [
        {
          "indexed": true,
          "internalType": "address",
          "name": "from",
          "type": "address"
        },
        {
          "indexed": true,
          "internalType": "address",
          "name": "to",
          "type": "address"
        }
      ],
      "name": "OwnershipTransferred",
      "type": "event"
    },
    {
      "anonymous": false,
      "inputs": [
        {
          "indexed": true,
          "internalType": "uint256",
          "name": "tokenId",
          "type": "uint256"
        },
        {
          "indexed": false,
          "internalType": "string",
          "name": "success",
          "type": "string"
        }
      ],
      "name": "RequestConfirmMintingFulfilled",
      "type": "event"
    },
    {
      "anonymous": false,
      "inputs": [
        {
          "indexed": true,
          "internalType": "uint256",
          "name": "tokenId",
          "type": "uint256"
        },
        {
          "indexed": false,
          "internalType": "string",
          "name": "success",
          "type": "string"
        }
      ],
      "name": "RequestUpdateFulfilled",
      "type": "event"
    },
    {
      "anonymous": false,
      "inputs": [
        {
          "indexed": true,
          "internalType": "address",
          "name": "from",
          "type": "address"
        },
        {
          "indexed": true,
          "internalType": "address",
          "name": "to",
          "type": "address"
        },
        {
          "indexed": true,
          "internalType": "uint256",
          "name": "tokenId",
          "type": "uint256"
        }
      ],
      "name": "Transfer",
      "type": "event"
    },
    {
      "inputs": [],
      "name": "_base_url_1",
      "outputs": [
        {
          "internalType": "string",
          "name": "",
          "type": "string"
        }
      ],
      "stateMutability": "view",
      "type": "function"
    },
    {
      "inputs": [],
      "name": "_base_url_2",
      "outputs": [
        {
          "internalType": "string",
          "name": "",
          "type": "string"
        }
      ],
      "stateMutability": "view",
      "type": "function"
    },
    {
      "inputs": [],
      "name": "acceptOwnership",
      "outputs": [],
      "stateMutability": "nonpayable",
      "type": "function"
    },
    {
      "inputs": [
        {
          "internalType": "address",
          "name": "to",
          "type": "address"
        },
        {
          "internalType": "uint256",
          "name": "tokenId",
          "type": "uint256"
        }
      ],
      "name": "approve",
      "outputs": [],
      "stateMutability": "nonpayable",
      "type": "function"
    },
    {
      "inputs": [
        {
          "internalType": "address",
          "name": "owner",
          "type": "address"
        }
      ],
      "name": "balanceOf",
      "outputs": [
        {
          "internalType": "uint256",
          "name": "",
          "type": "uint256"
        }
      ],
      "stateMutability": "view",
      "type": "function"
    },
    {
      "inputs": [
        {
          "internalType": "bytes32",
          "name": "_requestId",
          "type": "bytes32"
        },
        {
          "internalType": "uint256",
          "name": "_payment",
          "type": "uint256"
        },
        {
          "internalType": "bytes4",
          "name": "_callbackFunctionId",
          "type": "bytes4"
        },
        {
          "internalType": "uint256",
          "name": "_expiration",
          "type": "uint256"
        }
      ],
      "name": "cancelRequest",
      "outputs": [],
      "stateMutability": "nonpayable",
      "type": "function"
    },
    {
      "inputs": [
        {
          "internalType": "bytes32",
          "name": "_requestId",
          "type": "bytes32"
        },
        {
          "internalType": "uint256",
          "name": "_tokenId",
          "type": "uint256"
        },
        {
          "internalType": "string",
          "name": "_success",
          "type": "string"
        }
      ],
      "name": "fulfillConfirmMinting",
      "outputs": [],
      "stateMutability": "nonpayable",
      "type": "function"
    },
    {
      "inputs": [
        {
          "internalType": "bytes32",
          "name": "_requestId",
          "type": "bytes32"
        },
        {
          "internalType": "uint256",
          "name": "_tokenId",
          "type": "uint256"
        },
        {
          "internalType": "string",
          "name": "_success",
          "type": "string"
        }
      ],
      "name": "fulfillRequestUpdate",
      "outputs": [],
      "stateMutability": "nonpayable",
      "type": "function"
    },
    {
      "inputs": [
        {
          "internalType": "uint256",
          "name": "tokenId",
          "type": "uint256"
        }
      ],
      "name": "getApproved",
      "outputs": [
        {
          "internalType": "address",
          "name": "",
          "type": "address"
        }
      ],
      "stateMutability": "view",
      "type": "function"
    },
    {
      "inputs": [],
      "name": "getChainlinkToken",
      "outputs": [
        {
          "internalType": "address",
          "name": "",
          "type": "address"
        }
      ],
      "stateMutability": "view",
      "type": "function"
    },
    {
      "inputs": [
        {
          "internalType": "address",
          "name": "owner",
          "type": "address"
        },
        {
          "internalType": "address",
          "name": "operator",
          "type": "address"
        }
      ],
      "name": "isApprovedForAll",
      "outputs": [
        {
          "internalType": "bool",
          "name": "",
          "type": "bool"
        }
      ],
      "stateMutability": "view",
      "type": "function"
    },
    {
      "inputs": [],
      "name": "name",
      "outputs": [
        {
          "internalType": "string",
          "name": "",
          "type": "string"
        }
      ],
      "stateMutability": "view",
      "type": "function"
    },
    {
      "inputs": [],
      "name": "owner",
      "outputs": [
        {
          "internalType": "address",
          "name": "",
          "type": "address"
        }
      ],
      "stateMutability": "view",
      "type": "function"
    },
    {
      "inputs": [
        {
          "internalType": "uint256",
          "name": "tokenId",
          "type": "uint256"
        }
      ],
      "name": "ownerOf",
      "outputs": [
        {
          "internalType": "address",
          "name": "",
          "type": "address"
        }
      ],
      "stateMutability": "view",
      "type": "function"
    },
    {
      "inputs": [
        {
          "internalType": "uint256",
          "name": "_tokenId",
          "type": "uint256"
        },
        {
          "internalType": "string",
          "name": "_key",
          "type": "string"
        },
        {
          "internalType": "address",
          "name": "_assignee",
          "type": "address"
        }
      ],
      "name": "requestUpdate",
      "outputs": [],
      "stateMutability": "nonpayable",
      "type": "function"
    },
    {
      "inputs": [
        {
          "internalType": "address",
          "name": "from",
          "type": "address"
        },
        {
          "internalType": "address",
          "name": "to",
          "type": "address"
        },
        {
          "internalType": "uint256",
          "name": "tokenId",
          "type": "uint256"
        }
      ],
      "name": "safeTransferFrom",
      "outputs": [],
      "stateMutability": "nonpayable",
      "type": "function"
    },
    {
      "inputs": [
        {
          "internalType": "address",
          "name": "from",
          "type": "address"
        },
        {
          "internalType": "address",
          "name": "to",
          "type": "address"
        },
        {
          "internalType": "uint256",
          "name": "tokenId",
          "type": "uint256"
        },
        {
          "internalType": "bytes",
          "name": "data",
          "type": "bytes"
        }
      ],
      "name": "safeTransferFrom",
      "outputs": [],
      "stateMutability": "nonpayable",
      "type": "function"
    },
    {
      "inputs": [
        {
          "internalType": "address",
          "name": "operator",
          "type": "address"
        },
        {
          "internalType": "bool",
          "name": "approved",
          "type": "bool"
        }
      ],
      "name": "setApprovalForAll",
      "outputs": [],
      "stateMutability": "nonpayable",
      "type": "function"
    },
    {
      "inputs": [
        {
          "internalType": "bytes4",
          "name": "interfaceId",
          "type": "bytes4"
        }
      ],
      "name": "supportsInterface",
      "outputs": [
        {
          "internalType": "bool",
          "name": "",
          "type": "bool"
        }
      ],
      "stateMutability": "view",
      "type": "function"
    },
    {
      "inputs": [],
      "name": "symbol",
      "outputs": [
        {
          "internalType": "string",
          "name": "",
          "type": "string"
        }
      ],
      "stateMutability": "view",
      "type": "function"
    },
    {
      "inputs": [
        {
          "internalType": "uint256",
          "name": "tokenId",
          "type": "uint256"
        }
      ],
      "name": "tokenURI",
      "outputs": [
        {
          "internalType": "string",
          "name": "",
          "type": "string"
        }
      ],
      "stateMutability": "view",
      "type": "function"
    },
    {
      "inputs": [
        {
          "internalType": "address",
          "name": "from",
          "type": "address"
        },
        {
          "internalType": "address",
          "name": "to",
          "type": "address"
        },
        {
          "internalType": "uint256",
          "name": "tokenId",
          "type": "uint256"
        }
      ],
      "name": "transferFrom",
      "outputs": [],
      "stateMutability": "nonpayable",
      "type": "function"
    },
    {
      "inputs": [
        {
          "internalType": "address",
          "name": "to",
          "type": "address"
        }
      ],
      "name": "transferOwnership",
      "outputs": [],
      "stateMutability": "nonpayable",
      "type": "function"
    },
    {
      "inputs": [],
      "name": "withdrawLink",
      "outputs": [],
      "stateMutability": "nonpayable",
      "type": "function"
    },
    {
      "inputs": [
        {
          "internalType": "address",
          "name": "sender",
          "type": "address"
        },
        {
          "internalType": "uint256",
          "name": "price",
          "type": "uint256"
        },
        {
          "internalType": "uint256",
          "name": "royaltyPrice",
          "type": "uint256"
        },
        {
          "internalType": "string",
          "name": "projectHash",
          "type": "string"
        },
        {
          "internalType": "uint256[]",
          "name": "components",
          "type": "uint256[]"
        }
      ],
      "name": "mintToken",
      "outputs": [
        {
          "internalType": "uint256",
          "name": "",
          "type": "uint256"
        }
      ],
      "stateMutability": "nonpayable",
      "type": "function"
    },
    {
      "inputs": [
        {
          "internalType": "uint256",
          "name": "tokenId",
          "type": "uint256"
        }
      ],
      "name": "getTokenPrice",
      "outputs": [
        {
          "internalType": "uint256",
          "name": "",
          "type": "uint256"
        }
      ],
      "stateMutability": "view",
      "type": "function"
    },
    {
      "inputs": [
        {
          "internalType": "uint256",
          "name": "tokenId",
          "type": "uint256"
        }
      ],
      "name": "getTokenRoyaltyPrice",
      "outputs": [
        {
          "internalType": "uint256",
          "name": "",
          "type": "uint256"
        }
      ],
      "stateMutability": "view",
      "type": "function"
    },
    {
      "inputs": [
        {
          "internalType": "uint256",
          "name": "tokenId",
          "type": "uint256"
        }
      ],
      "name": "getTokenBuyPrice",
      "outputs": [
        {
          "internalType": "uint256",
          "name": "",
          "type": "uint256"
        }
      ],
      "stateMutability": "view",
      "type": "function"
    },
    {
      "inputs": [
        {
          "internalType": "uint256",
          "name": "tokenId",
          "type": "uint256"
        }
      ],
      "name": "getProjectHash",
      "outputs": [
        {
          "internalType": "string",
          "name": "",
          "type": "string"
        }
      ],
      "stateMutability": "view",
      "type": "function"
    },
    {
      "inputs": [
        {
          "internalType": "uint256",
          "name": "tokenId",
          "type": "uint256"
        }
      ],
      "name": "getTokenComponents",
      "outputs": [
        {
          "internalType": "uint256[]",
          "name": "",
          "type": "uint256[]"
        }
      ],
      "stateMutability": "view",
      "type": "function"
    },
    {
      "inputs": [
        {
          "internalType": "uint256",
          "name": "tokenId",
          "type": "uint256"
        },
        {
          "internalType": "uint256",
          "name": "amount",
          "type": "uint256"
        }
      ],
      "name": "transferPayment",
      "outputs": [],
      "stateMutability": "nonpayable",
      "type": "function"
    }
  ],
  "bytecode": "0x60806040526001600b556040518060400160405280600781526020017f687474703a2f2f00000000000000000000000000000000000000000000000000815250600f90816200004f9190620006e5565b506040518060400160405280601281526020017f3a333030302f6170692f76312f6e6674732f000000000000000000000000000081525060109081620000969190620006e5565b50348015620000a457600080fd5b5060405162006e6e38038062006e6e8339818101604052810190620000ca919062000995565b828282338060006040518060400160405280600a81526020017f50726f6a6563744e4654000000000000000000000000000000000000000000008152506040518060400160405280600481526020017f504e46540000000000000000000000000000000000000000000000000000000081525081600090816200014e9190620006e5565b508060019081620001609190620006e5565b505050600073ffffffffffffffffffffffffffffffffffffffff168273ffffffffffffffffffffffffffffffffffffffff1603620001d5576040517f08c379a0000000000000000000000000000000000000000000000000000000008152600401620001cc9062000a90565b60405180910390fd5b81600d60006101000a81548173ffffffffffffffffffffffffffffffffffffffff021916908373ffffffffffffffffffffffffffffffffffffffff160217905550600073ffffffffffffffffffffffffffffffffffffffff168173ffffffffffffffffffffffffffffffffffffffff16146200025d576200025c81620002f660201b60201c565b5b5050506200028573779877a7b0d9e8603169ddbd7836e478b46247896200042760201b60201c565b8260119081620002969190620006e5565b5081601260006101000a81548173ffffffffffffffffffffffffffffffffffffffff021916908373ffffffffffffffffffffffffffffffffffffffff1602179055508060139081620002e99190620006e5565b5050505050505062000b24565b3373ffffffffffffffffffffffffffffffffffffffff168173ffffffffffffffffffffffffffffffffffffffff160362000367576040517f08c379a00000000000000000000000000000000000000000000000000000000081526004016200035e9062000b02565b60405180910390fd5b80600e60006101000a81548173ffffffffffffffffffffffffffffffffffffffff021916908373ffffffffffffffffffffffffffffffffffffffff1602179055508073ffffffffffffffffffffffffffffffffffffffff16600d60009054906101000a900473ffffffffffffffffffffffffffffffffffffffff1673ffffffffffffffffffffffffffffffffffffffff167fed8889f560326eb138920d842192f0eb3dd22b4f139c87a2c57538e05bae127860405160405180910390a350565b80600960006101000a81548173ffffffffffffffffffffffffffffffffffffffff021916908373ffffffffffffffffffffffffffffffffffffffff16021790555050565b600081519050919050565b7f4e487b7100000000000000000000000000000000000000000000000000000000600052604160045260246000fd5b7f4e487b7100000000000000000000000000000000000000000000000000000000600052602260045260246000fd5b60006002820490506001821680620004ed57607f821691505b602082108103620005035762000502620004a5565b5b50919050565b60008190508160005260206000209050919050565b60006020601f8301049050919050565b600082821b905092915050565b6000600883026200056d7fffffffffffffffffffffffffffffffffffffffffffffffffffffffffffffffff826200052e565b6200057986836200052e565b95508019841693508086168417925050509392505050565b6000819050919050565b6000819050919050565b6000620005c6620005c0620005ba8462000591565b6200059b565b62000591565b9050919050565b6000819050919050565b620005e283620005a5565b620005fa620005f182620005cd565b8484546200053b565b825550505050565b600090565b6200061162000602565b6200061e818484620005d7565b505050565b5b8181101562000646576200063a60008262000607565b60018101905062000624565b5050565b601f82111562000695576200065f8162000509565b6200066a846200051e565b810160208510156200067a578190505b6200069262000689856200051e565b83018262000623565b50505b505050565b600082821c905092915050565b6000620006ba600019846008026200069a565b1980831691505092915050565b6000620006d58383620006a7565b9150826002028217905092915050565b620006f0826200046b565b67ffffffffffffffff8111156200070c576200070b62000476565b5b620007188254620004d4565b620007258282856200064a565b600060209050601f8311600181146200075d576000841562000748578287015190505b620007548582620006c7565b865550620007c4565b601f1984166200076d8662000509565b60005b82811015620007975784890151825560018201915060208501945060208101905062000770565b86831015620007b75784890151620007b3601f891682620006a7565b8355505b6001600288020188555050505b505050505050565b6000604051905090565b600080fd5b600080fd5b600080fd5b600080fd5b6000601f19601f8301169050919050565b6200080682620007ea565b810181811067ffffffffffffffff8211171562000828576200082762000476565b5b80604052505050565b60006200083d620007cc565b90506200084b8282620007fb565b919050565b600067ffffffffffffffff8211156200086e576200086d62000476565b5b6200087982620007ea565b9050602081019050919050565b60005b83811015620008a657808201518184015260208101905062000889565b60008484015250505050565b6000620008c9620008c38462000850565b62000831565b905082815260208101848484011115620008e857620008e7620007e5565b5b620008f584828562000886565b509392505050565b600082601f830112620009155762000914620007e0565b5b815162000927848260208601620008b2565b91505092915050565b600073ffffffffffffffffffffffffffffffffffffffff82169050919050565b60006200095d8262000930565b9050919050565b6200096f8162000950565b81146200097b57600080fd5b50565b6000815190506200098f8162000964565b92915050565b600080600060608486031215620009b157620009b0620007d6565b5b600084015167ffffffffffffffff811115620009d257620009d1620007db565b5b620009e086828701620008fd565b9350506020620009f3868287016200097e565b925050604084015167ffffffffffffffff81111562000a175762000a16620007db565b5b62000a2586828701620008fd565b9150509250925092565b600082825260208201905092915050565b7f43616e6e6f7420736574206f776e657220746f207a65726f0000000000000000600082015250565b600062000a7860188362000a2f565b915062000a858262000a40565b602082019050919050565b6000602082019050818103600083015262000aab8162000a69565b9050919050565b7f43616e6e6f74207472616e7366657220746f2073656c66000000000000000000600082015250565b600062000aea60178362000a2f565b915062000af78262000ab2565b602082019050919050565b6000602082019050818103600083015262000b1d8162000adb565b9050919050565b61633a8062000b346000396000f3fe608060405234801561001057600080fd5b50600436106101e55760003560e01c80638da5cb5b1161010f578063c739acb0116100a2578063e985e9c511610071578063e985e9c5146105a2578063ec65d0f8146105d2578063f2fde38b146105ee578063f3ebb3f11461060a576101e5565b8063c739acb0146104f6578063c87b56dd14610526578063cb9d741514610556578063e29a5e8e14610586576101e5565b8063a22cb465116100de578063a22cb46514610472578063b88d4fde1461048e578063c3170580146104aa578063c457fb37146104c6576101e5565b80638da5cb5b146103fc5780638dc654a21461041a57806395d89b4114610424578063a082dfc214610442576101e5565b806323b872dd116101875780636352211e116101565780636352211e1461037457806370a08231146103a457806379ba5097146103d45780637d8eeac9146103de576101e5565b806323b872dd146102ee57806342842e0e1461030a57806351bb446f1461032657806351bbee6f14610344576101e5565b8063095ea7b3116101c3578063095ea7b314610268578063096e9be714610284578063118c66c7146102a0578063165d35e1146102d0576101e5565b806301ffc9a7146101ea57806306fdde031461021a578063081812fc14610238575b600080fd5b61020460048036038101906101ff9190613f02565b610626565b6040516102119190613f4a565b60405180910390f35b610222610687565b60405161022f9190613ff5565b60405180910390f35b610252600480360381019061024d919061404d565b610719565b60405161025f91906140bb565b60405180910390f35b610282600480360381019061027d9190614102565b61075f565b005b61029e60048036038101906102999190614142565b610876565b005b6102ba60048036038101906102b5919061404d565b610a71565b6040516102c79190613ff5565b60405180910390f35b6102d8610b22565b6040516102e591906140bb565b60405180910390f35b61030860048036038101906103039190614182565b610b31565b005b610324600480360381019061031f9190614182565b610b91565b005b61032e610bb1565b60405161033b9190613ff5565b60405180910390f35b61035e6004803603810190610359919061404d565b610c3f565b60405161036b91906141e4565b60405180910390f35b61038e6004803603810190610389919061404d565b610d07565b60405161039b91906140bb565b60405180910390f35b6103be60048036038101906103b991906141ff565b610d8d565b6040516103cb91906141e4565b60405180910390f35b6103dc610e44565b005b6103e6610fdb565b6040516103f39190613ff5565b60405180910390f35b610404611069565b60405161041191906140bb565b60405180910390f35b610422611093565b005b61042c6111e0565b6040516104399190613ff5565b60405180910390f35b61045c6004803603810190610457919061404d565b611272565b60405161046991906142ea565b60405180910390f35b61048c60048036038101906104879190614338565b6112e9565b005b6104a860048036038101906104a391906144ad565b6112ff565b005b6104c460048036038101906104bf9190614607565b611361565b005b6104e060048036038101906104db919061404d565b6114a4565b6040516104ed91906141e4565b60405180910390f35b610510600480360381019061050b919061404d565b6114cd565b60405161051d91906141e4565b60405180910390f35b610540600480360381019061053b919061404d565b6114f6565b60405161054d9190613ff5565b60405180910390f35b610570600480360381019061056b919061472c565b611608565b60405161057d91906141e4565b60405180910390f35b6105a0600480360381019061059b91906147e8565b61191e565b005b6105bc60048036038101906105b79190614857565b611c51565b6040516105c99190613f4a565b60405180910390f35b6105ec60048036038101906105e79190614897565b611ce5565b005b610608600480360381019061060391906141ff565b611cff565b005b610624600480360381019061061f9190614607565b611d13565b005b6000634906490660e01b7bffffffffffffffffffffffffffffffffffffffffffffffffffffffff1916827bffffffffffffffffffffffffffffffffffffffffffffffffffffffff19161480610680575061067f82611e56565b5b9050919050565b6060600080546106969061492d565b80601f01602080910402602001604051908101604052809291908181526020018280546106c29061492d565b801561070f5780601f106106e45761010080835404028352916020019161070f565b820191906000526020600020905b8154815290600101906020018083116106f257829003601f168201915b5050505050905090565b600061072482611f38565b6004600083815260200190815260200160002060009054906101000a900473ffffffffffffffffffffffffffffffffffffffff169050919050565b600061076a82610d07565b90508073ffffffffffffffffffffffffffffffffffffffff168373ffffffffffffffffffffffffffffffffffffffff16036107da576040517f08c379a00000000000000000000000000000000000000000000000000000000081526004016107d1906149d0565b60405180910390fd5b8073ffffffffffffffffffffffffffffffffffffffff166107f9611f83565b73ffffffffffffffffffffffffffffffffffffffff161480610828575061082781610822611f83565b611c51565b5b610867576040517f08c379a000000000000000000000000000000000000000000000000000000000815260040161085e90614a62565b60405180910390fd5b6108718383611f8b565b505050565b61087f82612044565b610888826114a4565b81146108c9576040517f08c379a00000000000000000000000000000000000000000000000000000000081526004016108c090614af4565b60405180910390fd5b60006108d483610d07565b90508073ffffffffffffffffffffffffffffffffffffffff166108fc6015600086815260200190815260200160002060000154846109129190614b43565b9081150290604051600060405180830381858888f1935050505015801561093d573d6000803e3d6000fd5b506015600084815260200190815260200160002060000154826109609190614b43565b915060005b6015600085815260200190815260200160002060030180549050811015610a6b5760006015600086815260200190815260200160002060030182815481106109b0576109af614b77565b5b9060005260206000200154905060006109c882610d07565b90508073ffffffffffffffffffffffffffffffffffffffff166108fc601560008581526020019081526020016000206001015487610a069190614b43565b9081150290604051600060405180830381858888f19350505050158015610a31573d6000803e3d6000fd5b50601560008381526020019081526020016000206001015485610a549190614b43565b945050508080610a6390614ba6565b915050610965565b50505050565b6060610a7c82612044565b601560008381526020019081526020016000206002018054610a9d9061492d565b80601f0160208091040260200160405190810160405280929190818152602001828054610ac99061492d565b8015610b165780601f10610aeb57610100808354040283529160200191610b16565b820191906000526020600020905b815481529060010190602001808311610af957829003601f168201915b50505050509050919050565b6000610b2c612092565b905090565b610b42610b3c611f83565b826120bc565b610b81576040517f08c379a0000000000000000000000000000000000000000000000000000000008152600401610b7890614c60565b60405180910390fd5b610b8c838383612151565b505050565b610bac838383604051806020016040528060008152506112ff565b505050565b60108054610bbe9061492d565b80601f0160208091040260200160405190810160405280929190818152602001828054610bea9061492d565b8015610c375780601f10610c0c57610100808354040283529160200191610c37565b820191906000526020600020905b815481529060010190602001808311610c1a57829003601f168201915b505050505081565b6000610c4a82612044565b6000601560008481526020019081526020016000206000015481610c6e9190614c80565b905060005b6015600085815260200190815260200160002060030180549050811015610cfd5760156000601560008781526020019081526020016000206003018381548110610cc057610cbf614b77565b5b906000526020600020015481526020019081526020016000206001015482610ce89190614c80565b91508080610cf590614ba6565b915050610c73565b5080915050919050565b600080610d138361244a565b9050600073ffffffffffffffffffffffffffffffffffffffff168173ffffffffffffffffffffffffffffffffffffffff1603610d84576040517f08c379a0000000000000000000000000000000000000000000000000000000008152600401610d7b90614d00565b60405180910390fd5b80915050919050565b60008073ffffffffffffffffffffffffffffffffffffffff168273ffffffffffffffffffffffffffffffffffffffff1603610dfd576040517f08c379a0000000000000000000000000000000000000000000000000000000008152600401610df490614d92565b60405180910390fd5b600360008373ffffffffffffffffffffffffffffffffffffffff1673ffffffffffffffffffffffffffffffffffffffff168152602001908152602001600020549050919050565b600e60009054906101000a900473ffffffffffffffffffffffffffffffffffffffff1673ffffffffffffffffffffffffffffffffffffffff163373ffffffffffffffffffffffffffffffffffffffff1614610ed4576040517f08c379a0000000000000000000000000000000000000000000000000000000008152600401610ecb90614dfe565b60405180910390fd5b6000600d60009054906101000a900473ffffffffffffffffffffffffffffffffffffffff16905033600d60006101000a81548173ffffffffffffffffffffffffffffffffffffffff021916908373ffffffffffffffffffffffffffffffffffffffff1602179055506000600e60006101000a81548173ffffffffffffffffffffffffffffffffffffffff021916908373ffffffffffffffffffffffffffffffffffffffff1602179055503373ffffffffffffffffffffffffffffffffffffffff168173ffffffffffffffffffffffffffffffffffffffff167f8be0079c531659141344cd1fd0a4f28419497f9722a3daafe3b4186f6b6457e060405160405180910390a350565b600f8054610fe89061492d565b80601f01602080910402602001604051908101604052809291908181526020018280546110149061492d565b80156110615780601f1061103657610100808354040283529160200191611061565b820191906000526020600020905b81548152906001019060200180831161104457829003601f168201915b505050505081565b6000600d60009054906101000a900473ffffffffffffffffffffffffffffffffffffffff16905090565b61109b612487565b60006110a5612092565b90508073ffffffffffffffffffffffffffffffffffffffff1663a9059cbb338373ffffffffffffffffffffffffffffffffffffffff166370a08231306040518263ffffffff1660e01b81526004016110fd91906140bb565b602060405180830381865afa15801561111a573d6000803e3d6000fd5b505050506040513d601f19601f8201168201806040525081019061113e9190614e33565b6040518363ffffffff1660e01b815260040161115b929190614e60565b6020604051808303816000875af115801561117a573d6000803e3d6000fd5b505050506040513d601f19601f8201168201806040525081019061119e9190614e9e565b6111dd576040517f08c379a00000000000000000000000000000000000000000000000000000000081526004016111d490614f17565b60405180910390fd5b50565b6060600180546111ef9061492d565b80601f016020809104026020016040519081016040528092919081815260200182805461121b9061492d565b80156112685780601f1061123d57610100808354040283529160200191611268565b820191906000526020600020905b81548152906001019060200180831161124b57829003601f168201915b5050505050905090565b606061127d82612044565b601560008381526020019081526020016000206003018054806020026020016040519081016040528092919081815260200182805480156112dd57602002820191906000526020600020905b8154815260200190600101908083116112c9575b50505050509050919050565b6112fb6112f4611f83565b8383612519565b5050565b61131061130a611f83565b836120bc565b61134f576040517f08c379a000000000000000000000000000000000000000000000000000000000815260040161134690614c60565b60405180910390fd5b61135b84848484612685565b50505050565b82600c600082815260200190815260200160002060009054906101000a900473ffffffffffffffffffffffffffffffffffffffff1673ffffffffffffffffffffffffffffffffffffffff163373ffffffffffffffffffffffffffffffffffffffff1614611403576040517f08c379a00000000000000000000000000000000000000000000000000000000081526004016113fa90614fa9565b60405180910390fd5b600c600082815260200190815260200160002060006101000a81549073ffffffffffffffffffffffffffffffffffffffff0219169055807f7cc135e0cebb02c3480ae5d74d377283180a2601f8f644edf7987b009316c63a60405160405180910390a2827f6129a239e5984bc053e8951cfba690c7a08b8022ad7a5a7579033a9952b248fe836040516114969190613ff5565b60405180910390a250505050565b60006114af82612044565b60156000838152602001908152602001600020600001549050919050565b60006114d882612044565b60156000838152602001908152602001600020600101549050919050565b606061150182611f38565b60006006600084815260200190815260200160002080546115219061492d565b80601f016020809104026020016040519081016040528092919081815260200182805461154d9061492d565b801561159a5780601f1061156f5761010080835404028352916020019161159a565b820191906000526020600020905b81548152906001019060200180831161157d57829003601f168201915b5050505050905060006115ab6126e1565b905060008151036115c0578192505050611603565b6000825111156115f55780826040516020016115dd929190615005565b60405160208183030381529060405292505050611603565b6115fe846126f8565b925050505b919050565b60006016858560405161161c92919061504e565b908152602001604051809103902060009054906101000a900460ff1615611678576040517f08c379a000000000000000000000000000000000000000000000000000000000815260040161166f906150b3565b60405180910390fd5b60005b838390508110156116fd576116906014612760565b8484838181106116a3576116a2614b77565b5b90506020020135106116ea576040517f08c379a00000000000000000000000000000000000000000000000000000000081526004016116e19061511f565b60405180910390fd5b80806116f590614ba6565b91505061167b565b50611708601461276e565b60006117146014612760565b90506117208982612784565b6000600f6011601060405160200161173a939291906151d7565b6040516020818303038152906040529050600081611757846129a1565b604051602001611768929190615005565b60405160208183030381529060405290506117838382612a6f565b60405180608001604052808b81526020018a815260200189898080601f016020809104026020016040519081016040528093929190818152602001838380828437600081840152601f19601f820116905080830192505050505050508152602001878780806020026020016040519081016040528093929190818152602001838360200280828437600081840152601f19601f820116905080830192505050505050508152506015600085815260200190815260200160002060008201518160000155602082015181600101556040820151816002019081611865919061539f565b506060820151816003019080519060200190611882929190613da5565b5090505060016016898960405161189a92919061504e565b908152602001604051809103902060006101000a81548160ff02191690831515021790555061190d8389898080601f016020809104026020016040519081016040528093929190818152602001838380828437600081840152601f19601f82011690508083019250505050505050612b13565b829350505050979650505050505050565b611926612487565b604051602001611935906154bd565b604051602081830303815290604052805190602001208260405160200161195c91906154d2565b6040516020818303038152906040528051906020012014806119c7575060405160200161198890615535565b60405160208183030381529060405280519060200120826040516020016119af91906154d2565b60405160208183030381529060405280519060200120145b611a06576040517f08c379a00000000000000000000000000000000000000000000000000000000081526004016119fd90615596565b60405180910390fd5b6000611aac611a9e60138054611a1b9061492d565b80601f0160208091040260200160405190810160405280929190818152602001828054611a479061492d565b8015611a945780601f10611a6957610100808354040283529160200191611a94565b820191906000526020600020905b815481529060010190602001808311611a7757829003601f168201915b5050505050612d4b565b3063f3ebb3f160e01b612d74565b9050611b206040518060400160405280600381526020017f75726c0000000000000000000000000000000000000000000000000000000000815250600f6011601088604051602001611b0194939291906155d7565b60405160208183030381529060405283612da59092919063ffffffff16565b611bab6040518060400160405280600481526020017f626f64790000000000000000000000000000000000000000000000000000000081525084611b7b8573ffffffffffffffffffffffffffffffffffffffff166014612dd8565b604051602001611b8c9291906156fd565b60405160208183030381529060405283612da59092919063ffffffff16565b611bfd6040518060400160405280600781526020017f746f6b656e496400000000000000000000000000000000000000000000000000815250611bed866129a1565b83612da59092919063ffffffff16565b611c4a601260009054906101000a900473ffffffffffffffffffffffffffffffffffffffff1682600a670de0b6b3a76400006001611c3b9190615742565b611c4591906157b3565b613014565b5050505050565b6000600560008473ffffffffffffffffffffffffffffffffffffffff1673ffffffffffffffffffffffffffffffffffffffff16815260200190815260200160002060008373ffffffffffffffffffffffffffffffffffffffff1673ffffffffffffffffffffffffffffffffffffffff16815260200190815260200160002060009054906101000a900460ff16905092915050565b611ced612487565b611cf9848484846130e0565b50505050565b611d07612487565b611d10816131f3565b50565b82600c600082815260200190815260200160002060009054906101000a900473ffffffffffffffffffffffffffffffffffffffff1673ffffffffffffffffffffffffffffffffffffffff163373ffffffffffffffffffffffffffffffffffffffff1614611db5576040517f08c379a0000000000000000000000000000000000000000000000000000000008152600401611dac90614fa9565b60405180910390fd5b600c600082815260200190815260200160002060006101000a81549073ffffffffffffffffffffffffffffffffffffffff0219169055807f7cc135e0cebb02c3480ae5d74d377283180a2601f8f644edf7987b009316c63a60405160405180910390a2827feaa591fcda712a906726d0782957af336b2f5168567d3d30445ab864b1c3689883604051611e489190613ff5565b60405180910390a250505050565b60007f80ac58cd000000000000000000000000000000000000000000000000000000007bffffffffffffffffffffffffffffffffffffffffffffffffffffffff1916827bffffffffffffffffffffffffffffffffffffffffffffffffffffffff19161480611f2157507f5b5e139f000000000000000000000000000000000000000000000000000000007bffffffffffffffffffffffffffffffffffffffffffffffffffffffff1916827bffffffffffffffffffffffffffffffffffffffffffffffffffffffff1916145b80611f315750611f3082613321565b5b9050919050565b611f418161338b565b611f80576040517f08c379a0000000000000000000000000000000000000000000000000000000008152600401611f7790614d00565b60405180910390fd5b50565b600033905090565b816004600083815260200190815260200160002060006101000a81548173ffffffffffffffffffffffffffffffffffffffff021916908373ffffffffffffffffffffffffffffffffffffffff160217905550808273ffffffffffffffffffffffffffffffffffffffff16611ffe83610d07565b73ffffffffffffffffffffffffffffffffffffffff167f8c5be1e5ebec7d5bd14f71427d1e84f3dd0314c0f7b2291e5b200ac8c7c3b92560405160405180910390a45050565b61204e6014612760565b811061208f576040517f08c379a000000000000000000000000000000000000000000000000000000000815260040161208690615830565b60405180910390fd5b50565b6000600960009054906101000a900473ffffffffffffffffffffffffffffffffffffffff16905090565b6000806120c883610d07565b90508073ffffffffffffffffffffffffffffffffffffffff168473ffffffffffffffffffffffffffffffffffffffff16148061210a57506121098185611c51565b5b8061214857508373ffffffffffffffffffffffffffffffffffffffff1661213084610719565b73ffffffffffffffffffffffffffffffffffffffff16145b91505092915050565b8273ffffffffffffffffffffffffffffffffffffffff1661217182610d07565b73ffffffffffffffffffffffffffffffffffffffff16146121c7576040517f08c379a00000000000000000000000000000000000000000000000000000000081526004016121be906158c2565b60405180910390fd5b600073ffffffffffffffffffffffffffffffffffffffff168273ffffffffffffffffffffffffffffffffffffffff1603612236576040517f08c379a000000000000000000000000000000000000000000000000000000000815260040161222d90615954565b60405180910390fd5b61224383838360016133cc565b8273ffffffffffffffffffffffffffffffffffffffff1661226382610d07565b73ffffffffffffffffffffffffffffffffffffffff16146122b9576040517f08c379a00000000000000000000000000000000000000000000000000000000081526004016122b0906158c2565b60405180910390fd5b6004600082815260200190815260200160002060006101000a81549073ffffffffffffffffffffffffffffffffffffffff02191690556001600360008573ffffffffffffffffffffffffffffffffffffffff1673ffffffffffffffffffffffffffffffffffffffff168152602001908152602001600020600082825403925050819055506001600360008473ffffffffffffffffffffffffffffffffffffffff1673ffffffffffffffffffffffffffffffffffffffff16815260200190815260200160002060008282540192505081905550816002600083815260200190815260200160002060006101000a81548173ffffffffffffffffffffffffffffffffffffffff021916908373ffffffffffffffffffffffffffffffffffffffff160217905550808273ffffffffffffffffffffffffffffffffffffffff168473ffffffffffffffffffffffffffffffffffffffff167fddf252ad1be2c89b69c2b068fc378daa952ba7f163c4a11628f55a4df523b3ef60405160405180910390a461244583838360016133d2565b505050565b60006002600083815260200190815260200160002060009054906101000a900473ffffffffffffffffffffffffffffffffffffffff169050919050565b600d60009054906101000a900473ffffffffffffffffffffffffffffffffffffffff1673ffffffffffffffffffffffffffffffffffffffff163373ffffffffffffffffffffffffffffffffffffffff1614612517576040517f08c379a000000000000000000000000000000000000000000000000000000000815260040161250e906159c0565b60405180910390fd5b565b8173ffffffffffffffffffffffffffffffffffffffff168373ffffffffffffffffffffffffffffffffffffffff1603612587576040517f08c379a000000000000000000000000000000000000000000000000000000000815260040161257e90615a2c565b60405180910390fd5b80600560008573ffffffffffffffffffffffffffffffffffffffff1673ffffffffffffffffffffffffffffffffffffffff16815260200190815260200160002060008473ffffffffffffffffffffffffffffffffffffffff1673ffffffffffffffffffffffffffffffffffffffff16815260200190815260200160002060006101000a81548160ff0219169083151502179055508173ffffffffffffffffffffffffffffffffffffffff168373ffffffffffffffffffffffffffffffffffffffff167f17307eab39ab6107e8899845ad3d59bd9653f200f220920489ca2b5937696c31836040516126789190613f4a565b60405180910390a3505050565b612690848484612151565b61269c848484846133d8565b6126db576040517f08c379a00000000000000000000000000000000000000000000000000000000081526004016126d290615abe565b60405180910390fd5b50505050565b606060405180602001604052806000815250905090565b606061270382611f38565b600061270d6126e1565b9050600081511161272d5760405180602001604052806000815250612758565b80612737846129a1565b604051602001612748929190615005565b6040516020818303038152906040525b915050919050565b600081600001549050919050565b6001816000016000828254019250508190555050565b600073ffffffffffffffffffffffffffffffffffffffff168273ffffffffffffffffffffffffffffffffffffffff16036127f3576040517f08c379a00000000000000000000000000000000000000000000000000000000081526004016127ea90615b2a565b60405180910390fd5b6127fc8161338b565b1561283c576040517f08c379a000000000000000000000000000000000000000000000000000000000815260040161283390615b96565b60405180910390fd5b61284a6000838360016133cc565b6128538161338b565b15612893576040517f08c379a000000000000000000000000000000000000000000000000000000000815260040161288a90615b96565b60405180910390fd5b6001600360008473ffffffffffffffffffffffffffffffffffffffff1673ffffffffffffffffffffffffffffffffffffffff16815260200190815260200160002060008282540192505081905550816002600083815260200190815260200160002060006101000a81548173ffffffffffffffffffffffffffffffffffffffff021916908373ffffffffffffffffffffffffffffffffffffffff160217905550808273ffffffffffffffffffffffffffffffffffffffff16600073ffffffffffffffffffffffffffffffffffffffff167fddf252ad1be2c89b69c2b068fc378daa952ba7f163c4a11628f55a4df523b3ef60405160405180910390a461299d6000838360016133d2565b5050565b6060600060016129b08461355f565b01905060008167ffffffffffffffff8111156129cf576129ce614382565b5b6040519080825280601f01601f191660200182016040528015612a015781602001600182028036833780820191505090505b509050600082602001820190505b600115612a64578080600190039150507f3031323334353637383961626364656600000000000000000000000000000000600a86061a8153600a8581612a5857612a57615784565b5b04945060008503612a0f575b819350505050919050565b612a788261338b565b612ab7576040517f08c379a0000000000000000000000000000000000000000000000000000000008152600401612aae90615c28565b60405180910390fd5b80600660008481526020019081526020016000209081612ad7919061539f565b507ff8e1a15aba9398e019f0b49df1a4fde98ee17ae345cb5f6b5e2c27f5033e8ce782604051612b0791906141e4565b60405180910390a15050565b612b1b612487565b6000612bc1612bb360138054612b309061492d565b80601f0160208091040260200160405190810160405280929190818152602001828054612b5c9061492d565b8015612ba95780601f10612b7e57610100808354040283529160200191612ba9565b820191906000526020600020905b815481529060010190602001808311612b8c57829003601f168201915b5050505050612d4b565b3063c317058060e01b612d74565b9050612c356040518060400160405280600381526020017f75726c0000000000000000000000000000000000000000000000000000000000815250600f6011601086604051602001612c169493929190615c48565b60405160208183030381529060405283612da59092919063ffffffff16565b612ca66040518060400160405280600481526020017f626f647900000000000000000000000000000000000000000000000000000000815250612c77856129a1565b604051602001612c879190615cd2565b60405160208183030381529060405283612da59092919063ffffffff16565b612cf86040518060400160405280600781526020017f746f6b656e496400000000000000000000000000000000000000000000000000815250612ce8856129a1565b83612da59092919063ffffffff16565b612d45601260009054906101000a900473ffffffffffffffffffffffffffffffffffffffff1682600a670de0b6b3a76400006001612d369190615742565b612d4091906157b3565b613014565b50505050565b6000808290506000815103612d66576000801b915050612d6f565b60208301519150505b919050565b612d7c613df2565b612d84613df2565b612d9b858585846136b2909392919063ffffffff16565b9150509392505050565b612dbc82846080015161376290919063ffffffff16565b612dd381846080015161376290919063ffffffff16565b505050565b606060006002836002612deb9190615742565b612df59190614c80565b67ffffffffffffffff811115612e0e57612e0d614382565b5b6040519080825280601f01601f191660200182016040528015612e405781602001600182028036833780820191505090505b5090507f300000000000000000000000000000000000000000000000000000000000000081600081518110612e7857612e77614b77565b5b60200101907effffffffffffffffffffffffffffffffffffffffffffffffffffffffffffff1916908160001a9053507f780000000000000000000000000000000000000000000000000000000000000081600181518110612edc57612edb614b77565b5b60200101907effffffffffffffffffffffffffffffffffffffffffffffffffffffffffffff1916908160001a90535060006001846002612f1c9190615742565b612f269190614c80565b90505b6001811115612fc6577f3031323334353637383961626364656600000000000000000000000000000000600f861660108110612f6857612f67614b77565b5b1a60f81b828281518110612f7f57612f7e614b77565b5b60200101907effffffffffffffffffffffffffffffffffffffffffffffffffffffffffffff1916908160001a905350600485901c945080612fbf90615cff565b9050612f29565b506000841461300a576040517f08c379a000000000000000000000000000000000000000000000000000000000815260040161300190615d74565b60405180910390fd5b8091505092915050565b600080600b5490506001816130299190614c80565b600b819055506000634042994660e01b60008087600001513089604001518760018c608001516000015160405160240161306a989796959493929190615e07565b604051602081830303815290604052907bffffffffffffffffffffffffffffffffffffffffffffffffffffffff19166020820180517bffffffffffffffffffffffffffffffffffffffffffffffffffffffff838183161783525050505090506130d586838684613787565b925050509392505050565b6000600c600086815260200190815260200160002060009054906101000a900473ffffffffffffffffffffffffffffffffffffffff169050600c600086815260200190815260200160002060006101000a81549073ffffffffffffffffffffffffffffffffffffffff0219169055847fe1fe3afa0f7f761ff0a8b89086790efd5140d2907ebd5b7ff6bfcb5e075fd4c560405160405180910390a28073ffffffffffffffffffffffffffffffffffffffff16636ee4d553868686866040518563ffffffff1660e01b81526004016131ba9493929190615e8c565b600060405180830381600087803b1580156131d457600080fd5b505af11580156131e8573d6000803e3d6000fd5b505050505050505050565b3373ffffffffffffffffffffffffffffffffffffffff168173ffffffffffffffffffffffffffffffffffffffff1603613261576040517f08c379a000000000000000000000000000000000000000000000000000000000815260040161325890615f1d565b60405180910390fd5b80600e60006101000a81548173ffffffffffffffffffffffffffffffffffffffff021916908373ffffffffffffffffffffffffffffffffffffffff1602179055508073ffffffffffffffffffffffffffffffffffffffff16600d60009054906101000a900473ffffffffffffffffffffffffffffffffffffffff1673ffffffffffffffffffffffffffffffffffffffff167fed8889f560326eb138920d842192f0eb3dd22b4f139c87a2c57538e05bae127860405160405180910390a350565b60007f01ffc9a7000000000000000000000000000000000000000000000000000000007bffffffffffffffffffffffffffffffffffffffffffffffffffffffff1916827bffffffffffffffffffffffffffffffffffffffffffffffffffffffff1916149050919050565b60008073ffffffffffffffffffffffffffffffffffffffff166133ad8361244a565b73ffffffffffffffffffffffffffffffffffffffff1614159050919050565b50505050565b50505050565b60006133f98473ffffffffffffffffffffffffffffffffffffffff1661391c565b15613552578373ffffffffffffffffffffffffffffffffffffffff1663150b7a02613422611f83565b8786866040518563ffffffff1660e01b81526004016134449493929190615f3d565b6020604051808303816000875af192505050801561348057506040513d601f19601f8201168201806040525081019061347d9190615f9e565b60015b613502573d80600081146134b0576040519150601f19603f3d011682016040523d82523d6000602084013e6134b5565b606091505b5060008151036134fa576040517f08c379a00000000000000000000000000000000000000000000000000000000081526004016134f190615abe565b60405180910390fd5b805181602001fd5b63150b7a0260e01b7bffffffffffffffffffffffffffffffffffffffffffffffffffffffff1916817bffffffffffffffffffffffffffffffffffffffffffffffffffffffff191614915050613557565b600190505b949350505050565b600080600090507a184f03e93ff9f4daa797ed6e38ed64bf6a1f01000000000000000083106135bd577a184f03e93ff9f4daa797ed6e38ed64bf6a1f01000000000000000083816135b3576135b2615784565b5b0492506040810190505b6d04ee2d6d415b85acef810000000083106135fa576d04ee2d6d415b85acef810000000083816135f0576135ef615784565b5b0492506020810190505b662386f26fc10000831061362957662386f26fc10000838161361f5761361e615784565b5b0492506010810190505b6305f5e1008310613652576305f5e100838161364857613647615784565b5b0492506008810190505b612710831061367757612710838161366d5761366c615784565b5b0492506004810190505b6064831061369a57606483816136905761368f615784565b5b0492506002810190505b600a83106136a9576001810190505b80915050919050565b6136ba613df2565b6136ca856080015161010061393f565b508385600001818152505082856020019073ffffffffffffffffffffffffffffffffffffffff16908173ffffffffffffffffffffffffffffffffffffffff16815250508185604001907bffffffffffffffffffffffffffffffffffffffffffffffffffffffff191690817bffffffffffffffffffffffffffffffffffffffffffffffffffffffff191681525050849050949350505050565b61376f82600383516139a9565b6137828183613b2e90919063ffffffff16565b505050565b6000308460405160200161379c929190616059565b60405160208183030381529060405280519060200120905084600c600083815260200190815260200160002060006101000a81548173ffffffffffffffffffffffffffffffffffffffff021916908373ffffffffffffffffffffffffffffffffffffffff160217905550807fb5e6e01e79f91267dc17b4e6314d5d4d03593d2ceee0fbb452b750bd70ea5af960405160405180910390a2600960009054906101000a900473ffffffffffffffffffffffffffffffffffffffff1673ffffffffffffffffffffffffffffffffffffffff16634000aea08685856040518463ffffffff1660e01b815260040161389293929190616085565b6020604051808303816000875af11580156138b1573d6000803e3d6000fd5b505050506040513d601f19601f820116820180604052508101906138d59190614e9e565b613914576040517f08c379a000000000000000000000000000000000000000000000000000000000815260040161390b90616135565b60405180910390fd5b949350505050565b6000808273ffffffffffffffffffffffffffffffffffffffff163b119050919050565b613947613e5f565b60006020836139569190616155565b14613982576020826139689190616155565b60206139749190614b43565b8261397f9190614c80565b91505b81836020018181525050604051808452600081528281016020016040525082905092915050565b60178167ffffffffffffffff16116139e0576139da8160058460ff16901b60ff161784613b5090919063ffffffff16565b50613b29565b60ff8167ffffffffffffffff1611613a3657613a0f601860058460ff16901b1784613b5090919063ffffffff16565b50613a308167ffffffffffffffff16600185613b709092919063ffffffff16565b50613b28565b61ffff8167ffffffffffffffff1611613a8d57613a66601960058460ff16901b1784613b5090919063ffffffff16565b50613a878167ffffffffffffffff16600285613b709092919063ffffffff16565b50613b27565b63ffffffff8167ffffffffffffffff1611613ae657613abf601a60058460ff16901b1784613b5090919063ffffffff16565b50613ae08167ffffffffffffffff16600485613b709092919063ffffffff16565b50613b26565b613b03601b60058460ff16901b1784613b5090919063ffffffff16565b50613b248167ffffffffffffffff16600885613b709092919063ffffffff16565b505b5b5b5b505050565b613b36613e5f565b613b4883846000015151848551613b92565b905092915050565b613b58613e5f565b613b688384600001515184613c81565b905092915050565b613b78613e5f565b613b89848560000151518585613cd7565b90509392505050565b613b9a613e5f565b8251821115613ba857600080fd5b84602001518285613bb99190614c80565b1115613bee57613bed856002613bde88602001518887613bd99190614c80565b613d65565b613be89190615742565b613d81565b5b600080865180518760208301019350808887011115613c0d5787860182525b60208701925050505b60208410613c545780518252602082613c2f9190614c80565b9150602081613c3e9190614c80565b9050602084613c4d9190614b43565b9350613c16565b60006001856020036101000a03905080198251168184511681811785525050508692505050949350505050565b613c89613e5f565b83602001518310613caf57613cae8460028660200151613ca99190615742565b613d81565b5b83518051602085830101848153818603613cca576001820183525b5050508390509392505050565b613cdf613e5f565b84602001518483613cf09190614c80565b1115613d1857613d178560028685613d089190614c80565b613d129190615742565b613d81565b5b6000600183610100613d2a91906162b9565b613d349190614b43565b90508551838682010185831982511617815281518588011115613d575784870182525b505085915050949350505050565b600081831115613d7757829050613d7b565b8190505b92915050565b600082600001519050613d94838361393f565b50613d9f8382613b2e565b50505050565b828054828255906000526020600020908101928215613de1579160200282015b82811115613de0578251825591602001919060010190613dc5565b5b509050613dee9190613e79565b5090565b6040518060a0016040528060008019168152602001600073ffffffffffffffffffffffffffffffffffffffff16815260200160007bffffffffffffffffffffffffffffffffffffffffffffffffffffffff1916815260200160008152602001613e59613e5f565b81525090565b604051806040016040528060608152602001600081525090565b5b80821115613e92576000816000905550600101613e7a565b5090565b6000604051905090565b600080fd5b600080fd5b60007fffffffff0000000000000000000000000000000000000000000000000000000082169050919050565b613edf81613eaa565b8114613eea57600080fd5b50565b600081359050613efc81613ed6565b92915050565b600060208284031215613f1857613f17613ea0565b5b6000613f2684828501613eed565b91505092915050565b60008115159050919050565b613f4481613f2f565b82525050565b6000602082019050613f5f6000830184613f3b565b92915050565b600081519050919050565b600082825260208201905092915050565b60005b83811015613f9f578082015181840152602081019050613f84565b60008484015250505050565b6000601f19601f8301169050919050565b6000613fc782613f65565b613fd18185613f70565b9350613fe1818560208601613f81565b613fea81613fab565b840191505092915050565b6000602082019050818103600083015261400f8184613fbc565b905092915050565b6000819050919050565b61402a81614017565b811461403557600080fd5b50565b60008135905061404781614021565b92915050565b60006020828403121561406357614062613ea0565b5b600061407184828501614038565b91505092915050565b600073ffffffffffffffffffffffffffffffffffffffff82169050919050565b60006140a58261407a565b9050919050565b6140b58161409a565b82525050565b60006020820190506140d060008301846140ac565b92915050565b6140df8161409a565b81146140ea57600080fd5b50565b6000813590506140fc816140d6565b92915050565b6000806040838503121561411957614118613ea0565b5b6000614127858286016140ed565b925050602061413885828601614038565b9150509250929050565b6000806040838503121561415957614158613ea0565b5b600061416785828601614038565b925050602061417885828601614038565b9150509250929050565b60008060006060848603121561419b5761419a613ea0565b5b60006141a9868287016140ed565b93505060206141ba868287016140ed565b92505060406141cb86828701614038565b9150509250925092565b6141de81614017565b82525050565b60006020820190506141f960008301846141d5565b92915050565b60006020828403121561421557614214613ea0565b5b6000614223848285016140ed565b91505092915050565b600081519050919050565b600082825260208201905092915050565b6000819050602082019050919050565b61426181614017565b82525050565b60006142738383614258565b60208301905092915050565b6000602082019050919050565b60006142978261422c565b6142a18185614237565b93506142ac83614248565b8060005b838110156142dd5781516142c48882614267565b97506142cf8361427f565b9250506001810190506142b0565b5085935050505092915050565b60006020820190508181036000830152614304818461428c565b905092915050565b61431581613f2f565b811461432057600080fd5b50565b6000813590506143328161430c565b92915050565b6000806040838503121561434f5761434e613ea0565b5b600061435d858286016140ed565b925050602061436e85828601614323565b9150509250929050565b600080fd5b600080fd5b7f4e487b7100000000000000000000000000000000000000000000000000000000600052604160045260246000fd5b6143ba82613fab565b810181811067ffffffffffffffff821117156143d9576143d8614382565b5b80604052505050565b60006143ec613e96565b90506143f882826143b1565b919050565b600067ffffffffffffffff82111561441857614417614382565b5b61442182613fab565b9050602081019050919050565b82818337600083830152505050565b600061445061444b846143fd565b6143e2565b90508281526020810184848401111561446c5761446b61437d565b5b61447784828561442e565b509392505050565b600082601f83011261449457614493614378565b5b81356144a484826020860161443d565b91505092915050565b600080600080608085870312156144c7576144c6613ea0565b5b60006144d5878288016140ed565b94505060206144e6878288016140ed565b93505060406144f787828801614038565b925050606085013567ffffffffffffffff81111561451857614517613ea5565b5b6145248782880161447f565b91505092959194509250565b6000819050919050565b61454381614530565b811461454e57600080fd5b50565b6000813590506145608161453a565b92915050565b600067ffffffffffffffff82111561458157614580614382565b5b61458a82613fab565b9050602081019050919050565b60006145aa6145a584614566565b6143e2565b9050828152602081018484840111156145c6576145c561437d565b5b6145d184828561442e565b509392505050565b600082601f8301126145ee576145ed614378565b5b81356145fe848260208601614597565b91505092915050565b6000806000606084860312156146205761461f613ea0565b5b600061462e86828701614551565b935050602061463f86828701614038565b925050604084013567ffffffffffffffff8111156146605761465f613ea5565b5b61466c868287016145d9565b9150509250925092565b600080fd5b600080fd5b60008083601f84011261469657614695614378565b5b8235905067ffffffffffffffff8111156146b3576146b2614676565b5b6020830191508360018202830111156146cf576146ce61467b565b5b9250929050565b60008083601f8401126146ec576146eb614378565b5b8235905067ffffffffffffffff81111561470957614708614676565b5b6020830191508360208202830111156147255761472461467b565b5b9250929050565b600080600080600080600060a0888a03121561474b5761474a613ea0565b5b60006147598a828b016140ed565b975050602061476a8a828b01614038565b965050604061477b8a828b01614038565b955050606088013567ffffffffffffffff81111561479c5761479b613ea5565b5b6147a88a828b01614680565b9450945050608088013567ffffffffffffffff8111156147cb576147ca613ea5565b5b6147d78a828b016146d6565b925092505092959891949750929550565b60008060006060848603121561480157614800613ea0565b5b600061480f86828701614038565b935050602084013567ffffffffffffffff8111156148305761482f613ea5565b5b61483c868287016145d9565b925050604061484d868287016140ed565b9150509250925092565b6000806040838503121561486e5761486d613ea0565b5b600061487c858286016140ed565b925050602061488d858286016140ed565b9150509250929050565b600080600080608085870312156148b1576148b0613ea0565b5b60006148bf87828801614551565b94505060206148d087828801614038565b93505060406148e187828801613eed565b92505060606148f287828801614038565b91505092959194509250565b7f4e487b7100000000000000000000000000000000000000000000000000000000600052602260045260246000fd5b6000600282049050600182168061494557607f821691505b602082108103614958576149576148fe565b5b50919050565b7f4552433732313a20617070726f76616c20746f2063757272656e74206f776e6560008201527f7200000000000000000000000000000000000000000000000000000000000000602082015250565b60006149ba602183613f70565b91506149c58261495e565b604082019050919050565b600060208201905081810360008301526149e9816149ad565b9050919050565b7f4552433732313a20617070726f76652063616c6c6572206973206e6f7420746f60008201527f6b656e206f776e6572206f7220617070726f76656420666f7220616c6c000000602082015250565b6000614a4c603d83613f70565b9150614a57826149f0565b604082019050919050565b60006020820190508181036000830152614a7b81614a3f565b9050919050565b7f50617920616d6f756e74206973206e6f74207072696365206f662070726f6a6560008201527f6374000000000000000000000000000000000000000000000000000000000000602082015250565b6000614ade602283613f70565b9150614ae982614a82565b604082019050919050565b60006020820190508181036000830152614b0d81614ad1565b9050919050565b7f4e487b7100000000000000000000000000000000000000000000000000000000600052601160045260246000fd5b6000614b4e82614017565b9150614b5983614017565b9250828203905081811115614b7157614b70614b14565b5b92915050565b7f4e487b7100000000000000000000000000000000000000000000000000000000600052603260045260246000fd5b6000614bb182614017565b91507fffffffffffffffffffffffffffffffffffffffffffffffffffffffffffffffff8203614be357614be2614b14565b5b600182019050919050565b7f4552433732313a2063616c6c6572206973206e6f7420746f6b656e206f776e6560008201527f72206f7220617070726f76656400000000000000000000000000000000000000602082015250565b6000614c4a602d83613f70565b9150614c5582614bee565b604082019050919050565b60006020820190508181036000830152614c7981614c3d565b9050919050565b6000614c8b82614017565b9150614c9683614017565b9250828201905080821115614cae57614cad614b14565b5b92915050565b7f4552433732313a20696e76616c696420746f6b656e2049440000000000000000600082015250565b6000614cea601883613f70565b9150614cf582614cb4565b602082019050919050565b60006020820190508181036000830152614d1981614cdd565b9050919050565b7f4552433732313a2061646472657373207a65726f206973206e6f74206120766160008201527f6c6964206f776e65720000000000000000000000000000000000000000000000602082015250565b6000614d7c602983613f70565b9150614d8782614d20565b604082019050919050565b60006020820190508181036000830152614dab81614d6f565b9050919050565b7f4d7573742062652070726f706f736564206f776e657200000000000000000000600082015250565b6000614de8601683613f70565b9150614df382614db2565b602082019050919050565b60006020820190508181036000830152614e1781614ddb565b9050919050565b600081519050614e2d81614021565b92915050565b600060208284031215614e4957614e48613ea0565b5b6000614e5784828501614e1e565b91505092915050565b6000604082019050614e7560008301856140ac565b614e8260208301846141d5565b9392505050565b600081519050614e988161430c565b92915050565b600060208284031215614eb457614eb3613ea0565b5b6000614ec284828501614e89565b91505092915050565b7f556e61626c6520746f207472616e736665720000000000000000000000000000600082015250565b6000614f01601283613f70565b9150614f0c82614ecb565b602082019050919050565b60006020820190508181036000830152614f3081614ef4565b9050919050565b7f536f75726365206d75737420626520746865206f7261636c65206f662074686560008201527f2072657175657374000000000000000000000000000000000000000000000000602082015250565b6000614f93602883613f70565b9150614f9e82614f37565b604082019050919050565b60006020820190508181036000830152614fc281614f86565b9050919050565b600081905092915050565b6000614fdf82613f65565b614fe98185614fc9565b9350614ff9818560208601613f81565b80840191505092915050565b60006150118285614fd4565b915061501d8284614fd4565b91508190509392505050565b60006150358385614fc9565b935061504283858461442e565b82840190509392505050565b600061505b828486615029565b91508190509392505050565b7f50726f6a65637420616c72656164792065786973747300000000000000000000600082015250565b600061509d601683613f70565b91506150a882615067565b602082019050919050565b600060208201905081810360008301526150cc81615090565b9050919050565b7f436f6d706f6e656e74206e6f742076616c696400000000000000000000000000600082015250565b6000615109601383613f70565b9150615114826150d3565b602082019050919050565b60006020820190508181036000830152615138816150fc565b9050919050565b60008190508160005260206000209050919050565b600081546151618161492d565b61516b8186614fc9565b94506001821660008114615186576001811461519b576151ce565b60ff19831686528115158202860193506151ce565b6151a48561513f565b60005b838110156151c6578154818901526001820191506020810190506151a7565b838801955050505b50505092915050565b60006151e38286615154565b91506151ef8285615154565b91506151fb8284615154565b9150819050949350505050565b60006020601f8301049050919050565b600082821b905092915050565b6000600883026152557fffffffffffffffffffffffffffffffffffffffffffffffffffffffffffffffff82615218565b61525f8683615218565b95508019841693508086168417925050509392505050565b6000819050919050565b600061529c61529761529284614017565b615277565b614017565b9050919050565b6000819050919050565b6152b683615281565b6152ca6152c2826152a3565b848454615225565b825550505050565b600090565b6152df6152d2565b6152ea8184846152ad565b505050565b5b8181101561530e576153036000826152d7565b6001810190506152f0565b5050565b601f821115615353576153248161513f565b61532d84615208565b8101602085101561533c578190505b61535061534885615208565b8301826152ef565b50505b505050565b600082821c905092915050565b600061537660001984600802615358565b1980831691505092915050565b600061538f8383615365565b9150826002028217905092915050565b6153a882613f65565b67ffffffffffffffff8111156153c1576153c0614382565b5b6153cb825461492d565b6153d6828285615312565b600060209050601f83116001811461540957600084156153f7578287015190505b6154018582615383565b865550615469565b601f1984166154178661513f565b60005b8281101561543f5784890151825560018201915060208501945060208101905061541a565b8683101561545c5784890151615458601f891682615365565b8355505b6001600288020188555050505b505050505050565b7f6275796572000000000000000000000000000000000000000000000000000000600082015250565b60006154a7600583614fc9565b91506154b282615471565b600582019050919050565b60006154c88261549a565b9150819050919050565b60006154de8284614fd4565b915081905092915050565b7f6d616e7566616374757265720000000000000000000000000000000000000000600082015250565b600061551f600c83614fc9565b915061552a826154e9565b600c82019050919050565b600061554082615512565b9150819050919050565b7f57726f6e67206b65790000000000000000000000000000000000000000000000600082015250565b6000615580600983613f70565b915061558b8261554a565b602082019050919050565b600060208201905081810360008301526155af81615573565b9050919050565b6000819050919050565b6155d16155cc82614017565b6155b6565b82525050565b60006155e38287615154565b91506155ef8286615154565b91506155fb8285615154565b915061560782846155c0565b60208201915081905095945050505050565b7f7b22000000000000000000000000000000000000000000000000000000000000600082015250565b600061564f600283614fc9565b915061565a82615619565b600282019050919050565b7f3a00000000000000000000000000000000000000000000000000000000000000600082015250565b600061569b600183614fc9565b91506156a682615665565b600182019050919050565b7f7d00000000000000000000000000000000000000000000000000000000000000600082015250565b60006156e7600183614fc9565b91506156f2826156b1565b600182019050919050565b600061570882615642565b91506157148285614fd4565b915061571f8261568e565b915061572b8284614fd4565b9150615736826156da565b91508190509392505050565b600061574d82614017565b915061575883614017565b925082820261576681614017565b9150828204841483151761577d5761577c614b14565b5b5092915050565b7f4e487b7100000000000000000000000000000000000000000000000000000000600052601260045260246000fd5b60006157be82614017565b91506157c983614017565b9250826157d9576157d8615784565b5b828204905092915050565b7f546f6b656e20646f6573206e6f74206578697374000000000000000000000000600082015250565b600061581a601483613f70565b9150615825826157e4565b602082019050919050565b600060208201905081810360008301526158498161580d565b9050919050565b7f4552433732313a207472616e736665722066726f6d20696e636f72726563742060008201527f6f776e6572000000000000000000000000000000000000000000000000000000602082015250565b60006158ac602583613f70565b91506158b782615850565b604082019050919050565b600060208201905081810360008301526158db8161589f565b9050919050565b7f4552433732313a207472616e7366657220746f20746865207a65726f2061646460008201527f7265737300000000000000000000000000000000000000000000000000000000602082015250565b600061593e602483613f70565b9150615949826158e2565b604082019050919050565b6000602082019050818103600083015261596d81615931565b9050919050565b7f4f6e6c792063616c6c61626c65206279206f776e657200000000000000000000600082015250565b60006159aa601683613f70565b91506159b582615974565b602082019050919050565b600060208201905081810360008301526159d98161599d565b9050919050565b7f4552433732313a20617070726f766520746f2063616c6c657200000000000000600082015250565b6000615a16601983613f70565b9150615a21826159e0565b602082019050919050565b60006020820190508181036000830152615a4581615a09565b9050919050565b7f4552433732313a207472616e7366657220746f206e6f6e20455243373231526560008201527f63656976657220696d706c656d656e7465720000000000000000000000000000602082015250565b6000615aa8603283613f70565b9150615ab382615a4c565b604082019050919050565b60006020820190508181036000830152615ad781615a9b565b9050919050565b7f4552433732313a206d696e7420746f20746865207a65726f2061646472657373600082015250565b6000615b14602083613f70565b9150615b1f82615ade565b602082019050919050565b60006020820190508181036000830152615b4381615b07565b9050919050565b7f4552433732313a20746f6b656e20616c7265616479206d696e74656400000000600082015250565b6000615b80601c83613f70565b9150615b8b82615b4a565b602082019050919050565b60006020820190508181036000830152615baf81615b73565b9050919050565b7f45524337323155524953746f726167653a2055524920736574206f66206e6f6e60008201527f6578697374656e7420746f6b656e000000000000000000000000000000000000602082015250565b6000615c12602e83613f70565b9150615c1d82615bb6565b604082019050919050565b60006020820190508181036000830152615c4181615c05565b9050919050565b6000615c548287615154565b9150615c608286615154565b9150615c6c8285615154565b9150615c788284614fd4565b915081905095945050505050565b7f7b22746f6b656e4964223a000000000000000000000000000000000000000000600082015250565b6000615cbc600b83614fc9565b9150615cc782615c86565b600b82019050919050565b6000615cdd82615caf565b9150615ce98284614fd4565b9150615cf4826156da565b915081905092915050565b6000615d0a82614017565b915060008203615d1d57615d1c614b14565b5b600182039050919050565b7f537472696e67733a20686578206c656e67746820696e73756666696369656e74600082015250565b6000615d5e602083613f70565b9150615d6982615d28565b602082019050919050565b60006020820190508181036000830152615d8d81615d51565b9050919050565b615d9d81614530565b82525050565b615dac81613eaa565b82525050565b600081519050919050565b600082825260208201905092915050565b6000615dd982615db2565b615de38185615dbd565b9350615df3818560208601613f81565b615dfc81613fab565b840191505092915050565b600061010082019050615e1d600083018b6140ac565b615e2a602083018a6141d5565b615e376040830189615d94565b615e4460608301886140ac565b615e516080830187615da3565b615e5e60a08301866141d5565b615e6b60c08301856141d5565b81810360e0830152615e7d8184615dce565b90509998505050505050505050565b6000608082019050615ea16000830187615d94565b615eae60208301866141d5565b615ebb6040830185615da3565b615ec860608301846141d5565b95945050505050565b7f43616e6e6f74207472616e7366657220746f2073656c66000000000000000000600082015250565b6000615f07601783613f70565b9150615f1282615ed1565b602082019050919050565b60006020820190508181036000830152615f3681615efa565b9050919050565b6000608082019050615f5260008301876140ac565b615f5f60208301866140ac565b615f6c60408301856141d5565b8181036060830152615f7e8184615dce565b905095945050505050565b600081519050615f9881613ed6565b92915050565b600060208284031215615fb457615fb3613ea0565b5b6000615fc284828501615f89565b91505092915050565b6000615fe6615fe1615fdc8461407a565b615277565b61407a565b9050919050565b6000615ff882615fcb565b9050919050565b600061600a82615fed565b9050919050565b60008160601b9050919050565b600061602982616011565b9050919050565b600061603b8261601e565b9050919050565b61605361604e82615fff565b616030565b82525050565b60006160658285616042565b60148201915061607582846155c0565b6020820191508190509392505050565b600060608201905061609a60008301866140ac565b6160a760208301856141d5565b81810360408301526160b98184615dce565b9050949350505050565b7f756e61626c6520746f207472616e73666572416e6443616c6c20746f206f726160008201527f636c650000000000000000000000000000000000000000000000000000000000602082015250565b600061611f602383613f70565b915061612a826160c3565b604082019050919050565b6000602082019050818103600083015261614e81616112565b9050919050565b600061616082614017565b915061616b83614017565b92508261617b5761617a615784565b5b828206905092915050565b60008160011c9050919050565b6000808291508390505b60018511156161dd578086048111156161b9576161b8614b14565b5b60018516156161c85780820291505b80810290506161d685616186565b945061619d565b94509492505050565b6000826161f657600190506162b2565b8161620457600090506162b2565b816001811461621a576002811461622457616253565b60019150506162b2565b60ff84111561623657616235614b14565b5b8360020a91508482111561624d5761624c614b14565b5b506162b2565b5060208310610133831016604e8410600b84101617156162885782820a90508381111561628357616282614b14565b5b6162b2565b6162958484846001616193565b925090508184048111156162ac576162ab614b14565b5b81810290505b9392505050565b60006162c482614017565b91506162cf83614017565b92506162fc7fffffffffffffffffffffffffffffffffffffffffffffffffffffffffffffffff84846161e6565b90509291505056fea2646970667358221220f1cac91e918b946b6689fa553b4edf88bd0e006d2d2ebe4929748693ac3e4a1f64736f6c63430008130033",
  "immutableReferences": {},
  "source": "// SPDX-License-Identifier: MIT\npragma solidity ^0.8.18;\n\nimport '@openzeppelin/contracts/utils/Counters.sol';\nimport '@openzeppelin/contracts/token/ERC721/ERC721.sol';\nimport '@openzeppelin/contracts/token/ERC721/extensions/ERC721URIStorage.sol';\n\nimport \"./CustomChainlinkClient.sol\";\n\ncontract ProjectNFT is ERC721URIStorage, CustomChainlinkClient {\n    \n    using Counters for Counters.Counter;\n     \n    Counters.Counter private tokenCounter;\n\n    struct TokenInfo {\n       uint256 price;\n       uint256 royaltyPrice;\n       string projectHash;\n       uint256[] components;\n    }\n\n    mapping(uint256 => TokenInfo) private _tokenInfos;\n\n    // Map to check hashes are unique\n    mapping(string => bool) private _hashes;\n\n    constructor(string memory host_machine_ip, address oracle, string memory jobId) ERC721('ProjectNFT', 'PNFT') CustomChainlinkClient(host_machine_ip, oracle, jobId)  {\n\n    }\n\n    function mintToken(\n        address sender,\n        uint256 price,\n        uint256 royaltyPrice,\n        string calldata projectHash,\n        uint256[] calldata components\n    ) public returns (uint256) {\n        // Check NFT parameters:\n\n        // Check hash is unique\n        require(!_hashes[projectHash], 'Project already exists');\n\n        // Check components exists\n        for (uint i = 0; i < components.length; i++) {\n            require(components[i] < tokenCounter.current(), 'Component not valid');\n        }\n\n        tokenCounter.increment();\n\n        uint256 newItemId = tokenCounter.current();\n       \n        // Mint new token (openzeppelin)\n        _mint(sender, newItemId);\n\n        // Build uri from base + tokenId\n        string memory baseUri = string.concat(_base_url_1, _host_machine_ip, _base_url_2);\n        string memory uri = string.concat(baseUri, Strings.toString(newItemId));\n        _setTokenURI(newItemId, uri);\n\n        // Set NFT parameters\n        _tokenInfos[newItemId] = TokenInfo(price, royaltyPrice, projectHash, components);\n        _hashes[projectHash] = true;\n\n        requestConfirmMinting(newItemId, projectHash);\n\n        return newItemId;\n        \n    }\n\n    function getTokenPrice(uint256 tokenId) public view returns (uint256) {\n        tokenIdCheck(tokenId);\n        return _tokenInfos[tokenId].price;\n    }\n\n    function getTokenRoyaltyPrice(uint256 tokenId) public view returns (uint256) {\n        tokenIdCheck(tokenId);\n        return _tokenInfos[tokenId].royaltyPrice;\n    }\n\n    //assuming all the subcomponents already present in the project given (maybe is the best idea)\n    function getTokenBuyPrice(uint256 tokenId) public view returns (uint256) {\n        tokenIdCheck(tokenId);\n\n        // Return token buy price plus royalties of all its components\n        uint256 total = 0;\n        total = total + _tokenInfos[tokenId].price;\n        for (uint256 i=0; i < _tokenInfos[tokenId].components.length; i++) {\n            total = total + _tokenInfos[_tokenInfos[tokenId].components[i]].royaltyPrice;\n        }\n        return total;\n    }\n\n    function getProjectHash(uint256 tokenId) public view returns (string memory) {\n        tokenIdCheck(tokenId);\n        return _tokenInfos[tokenId].projectHash;\n    }\n\n    function getTokenComponents(uint256 tokenId) public view returns (uint256[] memory) {\n        tokenIdCheck(tokenId);\n        return _tokenInfos[tokenId].components;\n    }\n\n    function transferPayment(uint256 tokenId, uint256 amount) public {\n        tokenIdCheck(tokenId);\n        require(amount == getTokenPrice(tokenId), 'Pay amount is not price of project');\n\n        address payable owner = payable(ownerOf(tokenId));\n        owner.transfer(amount - _tokenInfos[tokenId].price);\n        amount = amount - _tokenInfos[tokenId].price;\n\n        for (uint256 i=0; i < _tokenInfos[tokenId].components.length; i++) {\n            uint256 componentTokenId = _tokenInfos[tokenId].components[i];\n            address payable componentOwner = payable(ownerOf(componentTokenId));\n            componentOwner.transfer(amount - _tokenInfos[componentTokenId].royaltyPrice);\n            amount = amount - _tokenInfos[componentTokenId].royaltyPrice;\n        }\n    }\n\n    function tokenIdCheck(uint256 tokenId) private view{\n        require(tokenId < tokenCounter.current(), 'Token does not exist');\n    }\n\n}",
  "sourcePath": "/Users/leonardovicentini/Desktop/Magistrale/Blockchain/blockchain-project/contracts/ProjectNFT.sol",
  "compiler": {
    "name": "solc",
    "version": "0.8.19+commit.7dd6d404.Emscripten.clang"
  },
  "schemaVersion": "3.4.13",
  "updatedAt": "2023-06-26T22:14:21.767Z",
  "devdoc": {
    "events": {
      "Approval(address,address,uint256)": {
        "details": "Emitted when `owner` enables `approved` to manage the `tokenId` token."
      },
      "ApprovalForAll(address,address,bool)": {
        "details": "Emitted when `owner` enables or disables (`approved`) `operator` to manage all of its assets."
      },
      "BatchMetadataUpdate(uint256,uint256)": {
        "details": "This event emits when the metadata of a range of tokens is changed. So that the third-party platforms such as NFT market could timely update the images and related attributes of the NFTs."
      },
      "MetadataUpdate(uint256)": {
        "details": "This event emits when the metadata of a token is changed. So that the third-party platforms such as NFT market could timely update the images and related attributes of the NFT."
      },
      "Transfer(address,address,uint256)": {
        "details": "Emitted when `tokenId` token is transferred from `from` to `to`."
      }
    },
    "kind": "dev",
    "methods": {
      "approve(address,uint256)": {
        "details": "See {IERC721-approve}."
      },
      "balanceOf(address)": {
        "details": "See {IERC721-balanceOf}."
      },
      "getApproved(uint256)": {
        "details": "See {IERC721-getApproved}."
      },
      "isApprovedForAll(address,address)": {
        "details": "See {IERC721-isApprovedForAll}."
      },
      "name()": {
        "details": "See {IERC721Metadata-name}."
      },
      "ownerOf(uint256)": {
        "details": "See {IERC721-ownerOf}."
      },
      "safeTransferFrom(address,address,uint256)": {
        "details": "See {IERC721-safeTransferFrom}."
      },
      "safeTransferFrom(address,address,uint256,bytes)": {
        "details": "See {IERC721-safeTransferFrom}."
      },
      "setApprovalForAll(address,bool)": {
        "details": "See {IERC721-setApprovalForAll}."
      },
      "supportsInterface(bytes4)": {
        "details": "See {IERC165-supportsInterface}"
      },
      "symbol()": {
        "details": "See {IERC721Metadata-symbol}."
      },
      "tokenURI(uint256)": {
        "details": "See {IERC721Metadata-tokenURI}."
      },
      "transferFrom(address,address,uint256)": {
        "details": "See {IERC721-transferFrom}."
      }
    },
    "version": 1
  },
  "userdoc": {
    "kind": "user",
    "methods": {
      "acceptOwnership()": {
        "notice": "Allows an ownership transfer to be completed by the recipient."
      },
      "owner()": {
        "notice": "Get the current owner"
      },
      "transferOwnership(address)": {
        "notice": "Allows an owner to begin transferring ownership to a new address, pending."
      }
    },
    "version": 1
  }
}