{
  "contractName": "ProjectNFT",
  "abi": [
    {
      "inputs": [],
      "stateMutability": "nonpayable",
      "type": "constructor"
    },
    {
      "anonymous": false,
      "inputs": [
        {
          "indexed": true,
          "internalType": "address",
          "name": "owner",
          "type": "address"
        },
        {
          "indexed": true,
          "internalType": "address",
          "name": "approved",
          "type": "address"
        },
        {
          "indexed": true,
          "internalType": "uint256",
          "name": "tokenId",
          "type": "uint256"
        }
      ],
      "name": "Approval",
      "type": "event"
    },
    {
      "anonymous": false,
      "inputs": [
        {
          "indexed": true,
          "internalType": "address",
          "name": "owner",
          "type": "address"
        },
        {
          "indexed": true,
          "internalType": "address",
          "name": "operator",
          "type": "address"
        },
        {
          "indexed": false,
          "internalType": "bool",
          "name": "approved",
          "type": "bool"
        }
      ],
      "name": "ApprovalForAll",
      "type": "event"
    },
    {
      "anonymous": false,
      "inputs": [
        {
          "indexed": false,
          "internalType": "uint256",
          "name": "_fromTokenId",
          "type": "uint256"
        },
        {
          "indexed": false,
          "internalType": "uint256",
          "name": "_toTokenId",
          "type": "uint256"
        }
      ],
      "name": "BatchMetadataUpdate",
      "type": "event"
    },
    {
      "anonymous": false,
      "inputs": [
        {
          "indexed": false,
          "internalType": "uint256",
          "name": "_tokenId",
          "type": "uint256"
        }
      ],
      "name": "MetadataUpdate",
      "type": "event"
    },
    {
      "anonymous": false,
      "inputs": [
        {
          "indexed": true,
          "internalType": "address",
          "name": "from",
          "type": "address"
        },
        {
          "indexed": true,
          "internalType": "address",
          "name": "to",
          "type": "address"
        },
        {
          "indexed": true,
          "internalType": "uint256",
          "name": "tokenId",
          "type": "uint256"
        }
      ],
      "name": "Transfer",
      "type": "event"
    },
    {
      "inputs": [
        {
          "internalType": "address",
          "name": "to",
          "type": "address"
        },
        {
          "internalType": "uint256",
          "name": "tokenId",
          "type": "uint256"
        }
      ],
      "name": "approve",
      "outputs": [],
      "stateMutability": "nonpayable",
      "type": "function"
    },
    {
      "inputs": [
        {
          "internalType": "address",
          "name": "owner",
          "type": "address"
        }
      ],
      "name": "balanceOf",
      "outputs": [
        {
          "internalType": "uint256",
          "name": "",
          "type": "uint256"
        }
      ],
      "stateMutability": "view",
      "type": "function",
      "constant": true
    },
    {
      "inputs": [
        {
          "internalType": "uint256",
          "name": "tokenId",
          "type": "uint256"
        }
      ],
      "name": "getApproved",
      "outputs": [
        {
          "internalType": "address",
          "name": "",
          "type": "address"
        }
      ],
      "stateMutability": "view",
      "type": "function",
      "constant": true
    },
    {
      "inputs": [
        {
          "internalType": "address",
          "name": "owner",
          "type": "address"
        },
        {
          "internalType": "address",
          "name": "operator",
          "type": "address"
        }
      ],
      "name": "isApprovedForAll",
      "outputs": [
        {
          "internalType": "bool",
          "name": "",
          "type": "bool"
        }
      ],
      "stateMutability": "view",
      "type": "function",
      "constant": true
    },
    {
      "inputs": [],
      "name": "name",
      "outputs": [
        {
          "internalType": "string",
          "name": "",
          "type": "string"
        }
      ],
      "stateMutability": "view",
      "type": "function",
      "constant": true
    },
    {
      "inputs": [
        {
          "internalType": "uint256",
          "name": "tokenId",
          "type": "uint256"
        }
      ],
      "name": "ownerOf",
      "outputs": [
        {
          "internalType": "address",
          "name": "",
          "type": "address"
        }
      ],
      "stateMutability": "view",
      "type": "function",
      "constant": true
    },
    {
      "inputs": [
        {
          "internalType": "address",
          "name": "from",
          "type": "address"
        },
        {
          "internalType": "address",
          "name": "to",
          "type": "address"
        },
        {
          "internalType": "uint256",
          "name": "tokenId",
          "type": "uint256"
        }
      ],
      "name": "safeTransferFrom",
      "outputs": [],
      "stateMutability": "nonpayable",
      "type": "function"
    },
    {
      "inputs": [
        {
          "internalType": "address",
          "name": "from",
          "type": "address"
        },
        {
          "internalType": "address",
          "name": "to",
          "type": "address"
        },
        {
          "internalType": "uint256",
          "name": "tokenId",
          "type": "uint256"
        },
        {
          "internalType": "bytes",
          "name": "data",
          "type": "bytes"
        }
      ],
      "name": "safeTransferFrom",
      "outputs": [],
      "stateMutability": "nonpayable",
      "type": "function"
    },
    {
      "inputs": [
        {
          "internalType": "address",
          "name": "operator",
          "type": "address"
        },
        {
          "internalType": "bool",
          "name": "approved",
          "type": "bool"
        }
      ],
      "name": "setApprovalForAll",
      "outputs": [],
      "stateMutability": "nonpayable",
      "type": "function"
    },
    {
      "inputs": [
        {
          "internalType": "bytes4",
          "name": "interfaceId",
          "type": "bytes4"
        }
      ],
      "name": "supportsInterface",
      "outputs": [
        {
          "internalType": "bool",
          "name": "",
          "type": "bool"
        }
      ],
      "stateMutability": "view",
      "type": "function",
      "constant": true
    },
    {
      "inputs": [],
      "name": "symbol",
      "outputs": [
        {
          "internalType": "string",
          "name": "",
          "type": "string"
        }
      ],
      "stateMutability": "view",
      "type": "function",
      "constant": true
    },
    {
      "inputs": [],
      "name": "tokenCounter",
      "outputs": [
        {
          "internalType": "uint256",
          "name": "",
          "type": "uint256"
        }
      ],
      "stateMutability": "view",
      "type": "function",
      "constant": true
    },
    {
      "inputs": [
        {
          "internalType": "uint256",
          "name": "tokenId",
          "type": "uint256"
        }
      ],
      "name": "tokenURI",
      "outputs": [
        {
          "internalType": "string",
          "name": "",
          "type": "string"
        }
      ],
      "stateMutability": "view",
      "type": "function",
      "constant": true
    },
    {
      "inputs": [
        {
          "internalType": "address",
          "name": "from",
          "type": "address"
        },
        {
          "internalType": "address",
          "name": "to",
          "type": "address"
        },
        {
          "internalType": "uint256",
          "name": "tokenId",
          "type": "uint256"
        }
      ],
      "name": "transferFrom",
      "outputs": [],
      "stateMutability": "nonpayable",
      "type": "function"
    },
    {
      "inputs": [
        {
          "internalType": "address",
          "name": "sender",
          "type": "address"
        },
        {
          "internalType": "uint256",
          "name": "price",
          "type": "uint256"
        },
        {
          "internalType": "uint256",
          "name": "royaltyPrice",
          "type": "uint256"
        },
        {
          "internalType": "string",
          "name": "projectHash",
          "type": "string"
        },
        {
          "internalType": "uint256[]",
          "name": "components",
          "type": "uint256[]"
        }
      ],
      "name": "mintToken",
      "outputs": [
        {
          "internalType": "uint256",
          "name": "",
          "type": "uint256"
        }
      ],
      "stateMutability": "nonpayable",
      "type": "function"
    },
    {
      "inputs": [
        {
          "internalType": "address",
          "name": "sender",
          "type": "address"
        },
        {
          "internalType": "uint256",
          "name": "tokenId",
          "type": "uint256"
        },
        {
          "internalType": "uint256",
          "name": "price",
          "type": "uint256"
        },
        {
          "internalType": "uint256",
          "name": "royaltyPrice",
          "type": "uint256"
        }
      ],
      "name": "setTokenPrice",
      "outputs": [],
      "stateMutability": "nonpayable",
      "type": "function"
    },
    {
      "inputs": [
        {
          "internalType": "uint256",
          "name": "tokenId",
          "type": "uint256"
        }
      ],
      "name": "getTokenPrice",
      "outputs": [
        {
          "internalType": "uint256",
          "name": "",
          "type": "uint256"
        }
      ],
      "stateMutability": "view",
      "type": "function",
      "constant": true
    },
    {
      "inputs": [
        {
          "internalType": "address",
          "name": "sender",
          "type": "address"
        },
        {
          "internalType": "uint256",
          "name": "tokenId",
          "type": "uint256"
        },
        {
          "internalType": "string",
          "name": "hash",
          "type": "string"
        }
      ],
      "name": "setTokenHash",
      "outputs": [],
      "stateMutability": "nonpayable",
      "type": "function"
    },
    {
      "inputs": [
        {
          "internalType": "address",
          "name": "sender",
          "type": "address"
        },
        {
          "internalType": "uint256",
          "name": "tokenId",
          "type": "uint256"
        },
        {
          "internalType": "uint256[]",
          "name": "components",
          "type": "uint256[]"
        }
      ],
      "name": "setTokenComponents",
      "outputs": [],
      "stateMutability": "nonpayable",
      "type": "function"
    }
  ],
  "bytecode": "0x60806040523480156200001157600080fd5b506040518060400160405280600b81526020017f44657369676e65724e46540000000000000000000000000000000000000000008152506040518060400160405280600481526020017f444e46540000000000000000000000000000000000000000000000000000000081525081600090816200008f91906200032c565b508060019081620000a191906200032c565b505050600160078190555062000413565b600081519050919050565b7f4e487b7100000000000000000000000000000000000000000000000000000000600052604160045260246000fd5b7f4e487b7100000000000000000000000000000000000000000000000000000000600052602260045260246000fd5b600060028204905060018216806200013457607f821691505b6020821081036200014a5762000149620000ec565b5b50919050565b60008190508160005260206000209050919050565b60006020601f8301049050919050565b600082821b905092915050565b600060088302620001b47fffffffffffffffffffffffffffffffffffffffffffffffffffffffffffffffff8262000175565b620001c0868362000175565b95508019841693508086168417925050509392505050565b6000819050919050565b6000819050919050565b60006200020d620002076200020184620001d8565b620001e2565b620001d8565b9050919050565b6000819050919050565b6200022983620001ec565b62000241620002388262000214565b84845462000182565b825550505050565b600090565b6200025862000249565b620002658184846200021e565b505050565b5b818110156200028d57620002816000826200024e565b6001810190506200026b565b5050565b601f821115620002dc57620002a68162000150565b620002b18462000165565b81016020851015620002c1578190505b620002d9620002d08562000165565b8301826200026a565b50505b505050565b600082821c905092915050565b60006200030160001984600802620002e1565b1980831691505092915050565b60006200031c8383620002ee565b9150826002028217905092915050565b6200033782620000b2565b67ffffffffffffffff811115620003535762000352620000bd565b5b6200035f82546200011b565b6200036c82828562000291565b600060209050601f831160018114620003a457600084156200038f578287015190505b6200039b85826200030e565b8655506200040b565b601f198416620003b48662000150565b60005b82811015620003de57848901518255600182019150602085019450602081019050620003b7565b86831015620003fe5784890151620003fa601f891682620002ee565b8355505b6001600288020188555050505b505050505050565b6132de80620004236000396000f3fe608060405234801561001057600080fd5b50600436106101215760003560e01c806385bf0999116100ad578063c87b56dd11610071578063c87b56dd14610316578063cb9d741514610346578063d082e38114610376578063e985e9c514610394578063fb7eae98146103c457610121565b806385bf09991461027457806395d89b4114610290578063a22cb465146102ae578063b88d4fde146102ca578063c457fb37146102e657610121565b806323b872dd116100f457806323b872dd146101c05780632a88c030146101dc57806342842e0e146101f85780636352211e1461021457806370a082311461024457610121565b806301ffc9a71461012657806306fdde0314610156578063081812fc14610174578063095ea7b3146101a4575b600080fd5b610140600480360381019061013b9190611de8565b6103e0565b60405161014d9190611e30565b60405180910390f35b61015e610441565b60405161016b9190611edb565b60405180910390f35b61018e60048036038101906101899190611f33565b6104d3565b60405161019b9190611fa1565b60405180910390f35b6101be60048036038101906101b99190611fe8565b610519565b005b6101da60048036038101906101d59190612028565b610630565b005b6101f660048036038101906101f1919061207b565b610690565b005b610212600480360381019061020d9190612028565b61073c565b005b61022e60048036038101906102299190611f33565b61075c565b60405161023b9190611fa1565b60405180910390f35b61025e600480360381019061025991906120e2565b6107e2565b60405161026b919061211e565b60405180910390f35b61028e6004803603810190610289919061219e565b610899565b005b610298610938565b6040516102a59190611edb565b60405180910390f35b6102c860048036038101906102c3919061223e565b6109ca565b005b6102e460048036038101906102df91906123ae565b6109e0565b005b61030060048036038101906102fb9190611f33565b610a42565b60405161030d919061211e565b60405180910390f35b610330600480360381019061032b9190611f33565b610a6d565b60405161033d9190611edb565b60405180910390f35b610360600480360381019061035b9190612487565b610b7f565b60405161036d919061211e565b60405180910390f35b61037e610c4d565b60405161038b919061211e565b60405180910390f35b6103ae60048036038101906103a99190612543565b610c53565b6040516103bb9190611e30565b60405180910390f35b6103de60048036038101906103d99190612583565b610ce7565b005b6000634906490660e01b7bffffffffffffffffffffffffffffffffffffffffffffffffffffffff1916827bffffffffffffffffffffffffffffffffffffffffffffffffffffffff1916148061043a575061043982610dcf565b5b9050919050565b60606000805461045090612626565b80601f016020809104026020016040519081016040528092919081815260200182805461047c90612626565b80156104c95780601f1061049e576101008083540402835291602001916104c9565b820191906000526020600020905b8154815290600101906020018083116104ac57829003601f168201915b5050505050905090565b60006104de82610eb1565b6004600083815260200190815260200160002060009054906101000a900473ffffffffffffffffffffffffffffffffffffffff169050919050565b60006105248261075c565b90508073ffffffffffffffffffffffffffffffffffffffff168373ffffffffffffffffffffffffffffffffffffffff1603610594576040517f08c379a000000000000000000000000000000000000000000000000000000000815260040161058b906126c9565b60405180910390fd5b8073ffffffffffffffffffffffffffffffffffffffff166105b3610efc565b73ffffffffffffffffffffffffffffffffffffffff1614806105e257506105e1816105dc610efc565b610c53565b5b610621576040517f08c379a00000000000000000000000000000000000000000000000000000000081526004016106189061275b565b60405180910390fd5b61062b8383610f04565b505050565b61064161063b610efc565b82610fbd565b610680576040517f08c379a0000000000000000000000000000000000000000000000000000000008152600401610677906127ed565b60405180910390fd5b61068b838383611052565b505050565b8373ffffffffffffffffffffffffffffffffffffffff166106b08461134b565b73ffffffffffffffffffffffffffffffffffffffff1614610706576040517f08c379a00000000000000000000000000000000000000000000000000000000081526004016106fd90612859565b60405180910390fd5b81600860008581526020019081526020016000208190555080600960008581526020019081526020016000208190555050505050565b610757838383604051806020016040528060008152506109e0565b505050565b6000806107688361134b565b9050600073ffffffffffffffffffffffffffffffffffffffff168173ffffffffffffffffffffffffffffffffffffffff16036107d9576040517f08c379a00000000000000000000000000000000000000000000000000000000081526004016107d0906128c5565b60405180910390fd5b80915050919050565b60008073ffffffffffffffffffffffffffffffffffffffff168273ffffffffffffffffffffffffffffffffffffffff1603610852576040517f08c379a000000000000000000000000000000000000000000000000000000000815260040161084990612957565b60405180910390fd5b600360008373ffffffffffffffffffffffffffffffffffffffff1673ffffffffffffffffffffffffffffffffffffffff168152602001908152602001600020549050919050565b8373ffffffffffffffffffffffffffffffffffffffff166108b98461134b565b73ffffffffffffffffffffffffffffffffffffffff161461090f576040517f08c379a000000000000000000000000000000000000000000000000000000000815260040161090690612859565b60405180910390fd5b8181600a60008681526020019081526020016000209182610931929190612b2e565b5050505050565b60606001805461094790612626565b80601f016020809104026020016040519081016040528092919081815260200182805461097390612626565b80156109c05780601f10610995576101008083540402835291602001916109c0565b820191906000526020600020905b8154815290600101906020018083116109a357829003601f168201915b5050505050905090565b6109dc6109d5610efc565b8383611388565b5050565b6109f16109eb610efc565b83610fbd565b610a30576040517f08c379a0000000000000000000000000000000000000000000000000000000008152600401610a27906127ed565b60405180910390fd5b610a3c848484846114f4565b50505050565b60006007548210610a5257600080fd5b60086000838152602001908152602001600020549050919050565b6060610a7882610eb1565b6000600660008481526020019081526020016000208054610a9890612626565b80601f0160208091040260200160405190810160405280929190818152602001828054610ac490612626565b8015610b115780601f10610ae657610100808354040283529160200191610b11565b820191906000526020600020905b815481529060010190602001808311610af457829003601f168201915b505050505090506000610b22611550565b90506000815103610b37578192505050610b7a565b600082511115610b6c578082604051602001610b54929190612c3a565b60405160208183030381529060405292505050610b7a565b610b7584611567565b925050505b919050565b6000806007549050610b9189826115cf565b60006040518060400160405280601481526020017f6c6f63616c686f73743a333030302f6e6674732f0000000000000000000000008152509050600081610bd7846117ec565b604051602001610be8929190612c3a565b6040516020818303038152906040529050610c0383826118ba565b6001600754610c129190612c8d565b600781905550610c248b848a8a610899565b610c308b848c8c610690565b610c3c8b848888610ce7565b829350505050979650505050505050565b60075481565b6000600560008473ffffffffffffffffffffffffffffffffffffffff1673ffffffffffffffffffffffffffffffffffffffff16815260200190815260200160002060008373ffffffffffffffffffffffffffffffffffffffff1673ffffffffffffffffffffffffffffffffffffffff16815260200190815260200160002060009054906101000a900460ff16905092915050565b8373ffffffffffffffffffffffffffffffffffffffff16610d078461134b565b73ffffffffffffffffffffffffffffffffffffffff1614610d5d576040517f08c379a0000000000000000000000000000000000000000000000000000000008152600401610d5490612859565b60405180910390fd5b60005b82829050811015610da557600754838383818110610d8157610d80612cc1565b5b9050602002013510610d9257600080fd5b8080610d9d90612cf0565b915050610d60565b508181600b60008681526020019081526020016000209190610dc8929190611d12565b5050505050565b60007f80ac58cd000000000000000000000000000000000000000000000000000000007bffffffffffffffffffffffffffffffffffffffffffffffffffffffff1916827bffffffffffffffffffffffffffffffffffffffffffffffffffffffff19161480610e9a57507f5b5e139f000000000000000000000000000000000000000000000000000000007bffffffffffffffffffffffffffffffffffffffffffffffffffffffff1916827bffffffffffffffffffffffffffffffffffffffffffffffffffffffff1916145b80610eaa5750610ea98261195e565b5b9050919050565b610eba816119c8565b610ef9576040517f08c379a0000000000000000000000000000000000000000000000000000000008152600401610ef0906128c5565b60405180910390fd5b50565b600033905090565b816004600083815260200190815260200160002060006101000a81548173ffffffffffffffffffffffffffffffffffffffff021916908373ffffffffffffffffffffffffffffffffffffffff160217905550808273ffffffffffffffffffffffffffffffffffffffff16610f778361075c565b73ffffffffffffffffffffffffffffffffffffffff167f8c5be1e5ebec7d5bd14f71427d1e84f3dd0314c0f7b2291e5b200ac8c7c3b92560405160405180910390a45050565b600080610fc98361075c565b90508073ffffffffffffffffffffffffffffffffffffffff168473ffffffffffffffffffffffffffffffffffffffff16148061100b575061100a8185610c53565b5b8061104957508373ffffffffffffffffffffffffffffffffffffffff16611031846104d3565b73ffffffffffffffffffffffffffffffffffffffff16145b91505092915050565b8273ffffffffffffffffffffffffffffffffffffffff166110728261075c565b73ffffffffffffffffffffffffffffffffffffffff16146110c8576040517f08c379a00000000000000000000000000000000000000000000000000000000081526004016110bf90612daa565b60405180910390fd5b600073ffffffffffffffffffffffffffffffffffffffff168273ffffffffffffffffffffffffffffffffffffffff1603611137576040517f08c379a000000000000000000000000000000000000000000000000000000000815260040161112e90612e3c565b60405180910390fd5b6111448383836001611a09565b8273ffffffffffffffffffffffffffffffffffffffff166111648261075c565b73ffffffffffffffffffffffffffffffffffffffff16146111ba576040517f08c379a00000000000000000000000000000000000000000000000000000000081526004016111b190612daa565b60405180910390fd5b6004600082815260200190815260200160002060006101000a81549073ffffffffffffffffffffffffffffffffffffffff02191690556001600360008573ffffffffffffffffffffffffffffffffffffffff1673ffffffffffffffffffffffffffffffffffffffff168152602001908152602001600020600082825403925050819055506001600360008473ffffffffffffffffffffffffffffffffffffffff1673ffffffffffffffffffffffffffffffffffffffff16815260200190815260200160002060008282540192505081905550816002600083815260200190815260200160002060006101000a81548173ffffffffffffffffffffffffffffffffffffffff021916908373ffffffffffffffffffffffffffffffffffffffff160217905550808273ffffffffffffffffffffffffffffffffffffffff168473ffffffffffffffffffffffffffffffffffffffff167fddf252ad1be2c89b69c2b068fc378daa952ba7f163c4a11628f55a4df523b3ef60405160405180910390a46113468383836001611a0f565b505050565b60006002600083815260200190815260200160002060009054906101000a900473ffffffffffffffffffffffffffffffffffffffff169050919050565b8173ffffffffffffffffffffffffffffffffffffffff168373ffffffffffffffffffffffffffffffffffffffff16036113f6576040517f08c379a00000000000000000000000000000000000000000000000000000000081526004016113ed90612ea8565b60405180910390fd5b80600560008573ffffffffffffffffffffffffffffffffffffffff1673ffffffffffffffffffffffffffffffffffffffff16815260200190815260200160002060008473ffffffffffffffffffffffffffffffffffffffff1673ffffffffffffffffffffffffffffffffffffffff16815260200190815260200160002060006101000a81548160ff0219169083151502179055508173ffffffffffffffffffffffffffffffffffffffff168373ffffffffffffffffffffffffffffffffffffffff167f17307eab39ab6107e8899845ad3d59bd9653f200f220920489ca2b5937696c31836040516114e79190611e30565b60405180910390a3505050565b6114ff848484611052565b61150b84848484611a15565b61154a576040517f08c379a000000000000000000000000000000000000000000000000000000000815260040161154190612f3a565b60405180910390fd5b50505050565b606060405180602001604052806000815250905090565b606061157282610eb1565b600061157c611550565b9050600081511161159c57604051806020016040528060008152506115c7565b806115a6846117ec565b6040516020016115b7929190612c3a565b6040516020818303038152906040525b915050919050565b600073ffffffffffffffffffffffffffffffffffffffff168273ffffffffffffffffffffffffffffffffffffffff160361163e576040517f08c379a000000000000000000000000000000000000000000000000000000000815260040161163590612fa6565b60405180910390fd5b611647816119c8565b15611687576040517f08c379a000000000000000000000000000000000000000000000000000000000815260040161167e90613012565b60405180910390fd5b611695600083836001611a09565b61169e816119c8565b156116de576040517f08c379a00000000000000000000000000000000000000000000000000000000081526004016116d590613012565b60405180910390fd5b6001600360008473ffffffffffffffffffffffffffffffffffffffff1673ffffffffffffffffffffffffffffffffffffffff16815260200190815260200160002060008282540192505081905550816002600083815260200190815260200160002060006101000a81548173ffffffffffffffffffffffffffffffffffffffff021916908373ffffffffffffffffffffffffffffffffffffffff160217905550808273ffffffffffffffffffffffffffffffffffffffff16600073ffffffffffffffffffffffffffffffffffffffff167fddf252ad1be2c89b69c2b068fc378daa952ba7f163c4a11628f55a4df523b3ef60405160405180910390a46117e8600083836001611a0f565b5050565b6060600060016117fb84611b9c565b01905060008167ffffffffffffffff81111561181a57611819612283565b5b6040519080825280601f01601f19166020018201604052801561184c5781602001600182028036833780820191505090505b509050600082602001820190505b6001156118af578080600190039150507f3031323334353637383961626364656600000000000000000000000000000000600a86061a8153600a85816118a3576118a2613032565b5b0494506000850361185a575b819350505050919050565b6118c3826119c8565b611902576040517f08c379a00000000000000000000000000000000000000000000000000000000081526004016118f9906130d3565b60405180910390fd5b8060066000848152602001908152602001600020908161192291906130f3565b507ff8e1a15aba9398e019f0b49df1a4fde98ee17ae345cb5f6b5e2c27f5033e8ce782604051611952919061211e565b60405180910390a15050565b60007f01ffc9a7000000000000000000000000000000000000000000000000000000007bffffffffffffffffffffffffffffffffffffffffffffffffffffffff1916827bffffffffffffffffffffffffffffffffffffffffffffffffffffffff1916149050919050565b60008073ffffffffffffffffffffffffffffffffffffffff166119ea8361134b565b73ffffffffffffffffffffffffffffffffffffffff1614159050919050565b50505050565b50505050565b6000611a368473ffffffffffffffffffffffffffffffffffffffff16611cef565b15611b8f578373ffffffffffffffffffffffffffffffffffffffff1663150b7a02611a5f610efc565b8786866040518563ffffffff1660e01b8152600401611a81949392919061321a565b6020604051808303816000875af1925050508015611abd57506040513d601f19601f82011682018060405250810190611aba919061327b565b60015b611b3f573d8060008114611aed576040519150601f19603f3d011682016040523d82523d6000602084013e611af2565b606091505b506000815103611b37576040517f08c379a0000000000000000000000000000000000000000000000000000000008152600401611b2e90612f3a565b60405180910390fd5b805181602001fd5b63150b7a0260e01b7bffffffffffffffffffffffffffffffffffffffffffffffffffffffff1916817bffffffffffffffffffffffffffffffffffffffffffffffffffffffff191614915050611b94565b600190505b949350505050565b600080600090507a184f03e93ff9f4daa797ed6e38ed64bf6a1f0100000000000000008310611bfa577a184f03e93ff9f4daa797ed6e38ed64bf6a1f0100000000000000008381611bf057611bef613032565b5b0492506040810190505b6d04ee2d6d415b85acef81000000008310611c37576d04ee2d6d415b85acef81000000008381611c2d57611c2c613032565b5b0492506020810190505b662386f26fc100008310611c6657662386f26fc100008381611c5c57611c5b613032565b5b0492506010810190505b6305f5e1008310611c8f576305f5e1008381611c8557611c84613032565b5b0492506008810190505b6127108310611cb4576127108381611caa57611ca9613032565b5b0492506004810190505b60648310611cd75760648381611ccd57611ccc613032565b5b0492506002810190505b600a8310611ce6576001810190505b80915050919050565b6000808273ffffffffffffffffffffffffffffffffffffffff163b119050919050565b828054828255906000526020600020908101928215611d4e579160200282015b82811115611d4d578235825591602001919060010190611d32565b5b509050611d5b9190611d5f565b5090565b5b80821115611d78576000816000905550600101611d60565b5090565b6000604051905090565b600080fd5b600080fd5b60007fffffffff0000000000000000000000000000000000000000000000000000000082169050919050565b611dc581611d90565b8114611dd057600080fd5b50565b600081359050611de281611dbc565b92915050565b600060208284031215611dfe57611dfd611d86565b5b6000611e0c84828501611dd3565b91505092915050565b60008115159050919050565b611e2a81611e15565b82525050565b6000602082019050611e456000830184611e21565b92915050565b600081519050919050565b600082825260208201905092915050565b60005b83811015611e85578082015181840152602081019050611e6a565b60008484015250505050565b6000601f19601f8301169050919050565b6000611ead82611e4b565b611eb78185611e56565b9350611ec7818560208601611e67565b611ed081611e91565b840191505092915050565b60006020820190508181036000830152611ef58184611ea2565b905092915050565b6000819050919050565b611f1081611efd565b8114611f1b57600080fd5b50565b600081359050611f2d81611f07565b92915050565b600060208284031215611f4957611f48611d86565b5b6000611f5784828501611f1e565b91505092915050565b600073ffffffffffffffffffffffffffffffffffffffff82169050919050565b6000611f8b82611f60565b9050919050565b611f9b81611f80565b82525050565b6000602082019050611fb66000830184611f92565b92915050565b611fc581611f80565b8114611fd057600080fd5b50565b600081359050611fe281611fbc565b92915050565b60008060408385031215611fff57611ffe611d86565b5b600061200d85828601611fd3565b925050602061201e85828601611f1e565b9150509250929050565b60008060006060848603121561204157612040611d86565b5b600061204f86828701611fd3565b935050602061206086828701611fd3565b925050604061207186828701611f1e565b9150509250925092565b6000806000806080858703121561209557612094611d86565b5b60006120a387828801611fd3565b94505060206120b487828801611f1e565b93505060406120c587828801611f1e565b92505060606120d687828801611f1e565b91505092959194509250565b6000602082840312156120f8576120f7611d86565b5b600061210684828501611fd3565b91505092915050565b61211881611efd565b82525050565b6000602082019050612133600083018461210f565b92915050565b600080fd5b600080fd5b600080fd5b60008083601f84011261215e5761215d612139565b5b8235905067ffffffffffffffff81111561217b5761217a61213e565b5b60208301915083600182028301111561219757612196612143565b5b9250929050565b600080600080606085870312156121b8576121b7611d86565b5b60006121c687828801611fd3565b94505060206121d787828801611f1e565b935050604085013567ffffffffffffffff8111156121f8576121f7611d8b565b5b61220487828801612148565b925092505092959194509250565b61221b81611e15565b811461222657600080fd5b50565b60008135905061223881612212565b92915050565b6000806040838503121561225557612254611d86565b5b600061226385828601611fd3565b925050602061227485828601612229565b9150509250929050565b600080fd5b7f4e487b7100000000000000000000000000000000000000000000000000000000600052604160045260246000fd5b6122bb82611e91565b810181811067ffffffffffffffff821117156122da576122d9612283565b5b80604052505050565b60006122ed611d7c565b90506122f982826122b2565b919050565b600067ffffffffffffffff82111561231957612318612283565b5b61232282611e91565b9050602081019050919050565b82818337600083830152505050565b600061235161234c846122fe565b6122e3565b90508281526020810184848401111561236d5761236c61227e565b5b61237884828561232f565b509392505050565b600082601f83011261239557612394612139565b5b81356123a584826020860161233e565b91505092915050565b600080600080608085870312156123c8576123c7611d86565b5b60006123d687828801611fd3565b94505060206123e787828801611fd3565b93505060406123f887828801611f1e565b925050606085013567ffffffffffffffff81111561241957612418611d8b565b5b61242587828801612380565b91505092959194509250565b60008083601f84011261244757612446612139565b5b8235905067ffffffffffffffff8111156124645761246361213e565b5b6020830191508360208202830111156124805761247f612143565b5b9250929050565b600080600080600080600060a0888a0312156124a6576124a5611d86565b5b60006124b48a828b01611fd3565b97505060206124c58a828b01611f1e565b96505060406124d68a828b01611f1e565b955050606088013567ffffffffffffffff8111156124f7576124f6611d8b565b5b6125038a828b01612148565b9450945050608088013567ffffffffffffffff81111561252657612525611d8b565b5b6125328a828b01612431565b925092505092959891949750929550565b6000806040838503121561255a57612559611d86565b5b600061256885828601611fd3565b925050602061257985828601611fd3565b9150509250929050565b6000806000806060858703121561259d5761259c611d86565b5b60006125ab87828801611fd3565b94505060206125bc87828801611f1e565b935050604085013567ffffffffffffffff8111156125dd576125dc611d8b565b5b6125e987828801612431565b925092505092959194509250565b7f4e487b7100000000000000000000000000000000000000000000000000000000600052602260045260246000fd5b6000600282049050600182168061263e57607f821691505b602082108103612651576126506125f7565b5b50919050565b7f4552433732313a20617070726f76616c20746f2063757272656e74206f776e6560008201527f7200000000000000000000000000000000000000000000000000000000000000602082015250565b60006126b3602183611e56565b91506126be82612657565b604082019050919050565b600060208201905081810360008301526126e2816126a6565b9050919050565b7f4552433732313a20617070726f76652063616c6c6572206973206e6f7420746f60008201527f6b656e206f776e6572206f7220617070726f76656420666f7220616c6c000000602082015250565b6000612745603d83611e56565b9150612750826126e9565b604082019050919050565b6000602082019050818103600083015261277481612738565b9050919050565b7f4552433732313a2063616c6c6572206973206e6f7420746f6b656e206f776e6560008201527f72206f7220617070726f76656400000000000000000000000000000000000000602082015250565b60006127d7602d83611e56565b91506127e28261277b565b604082019050919050565b60006020820190508181036000830152612806816127ca565b9050919050565b7f43616c6c6572206973206e6f74206f776e657200000000000000000000000000600082015250565b6000612843601383611e56565b915061284e8261280d565b602082019050919050565b6000602082019050818103600083015261287281612836565b9050919050565b7f4552433732313a20696e76616c696420746f6b656e2049440000000000000000600082015250565b60006128af601883611e56565b91506128ba82612879565b602082019050919050565b600060208201905081810360008301526128de816128a2565b9050919050565b7f4552433732313a2061646472657373207a65726f206973206e6f74206120766160008201527f6c6964206f776e65720000000000000000000000000000000000000000000000602082015250565b6000612941602983611e56565b915061294c826128e5565b604082019050919050565b6000602082019050818103600083015261297081612934565b9050919050565b600082905092915050565b60008190508160005260206000209050919050565b60006020601f8301049050919050565b600082821b905092915050565b6000600883026129e47fffffffffffffffffffffffffffffffffffffffffffffffffffffffffffffffff826129a7565b6129ee86836129a7565b95508019841693508086168417925050509392505050565b6000819050919050565b6000612a2b612a26612a2184611efd565b612a06565b611efd565b9050919050565b6000819050919050565b612a4583612a10565b612a59612a5182612a32565b8484546129b4565b825550505050565b600090565b612a6e612a61565b612a79818484612a3c565b505050565b5b81811015612a9d57612a92600082612a66565b600181019050612a7f565b5050565b601f821115612ae257612ab381612982565b612abc84612997565b81016020851015612acb578190505b612adf612ad785612997565b830182612a7e565b50505b505050565b600082821c905092915050565b6000612b0560001984600802612ae7565b1980831691505092915050565b6000612b1e8383612af4565b9150826002028217905092915050565b612b388383612977565b67ffffffffffffffff811115612b5157612b50612283565b5b612b5b8254612626565b612b66828285612aa1565b6000601f831160018114612b955760008415612b83578287013590505b612b8d8582612b12565b865550612bf5565b601f198416612ba386612982565b60005b82811015612bcb57848901358255600182019150602085019450602081019050612ba6565b86831015612be85784890135612be4601f891682612af4565b8355505b6001600288020188555050505b50505050505050565b600081905092915050565b6000612c1482611e4b565b612c1e8185612bfe565b9350612c2e818560208601611e67565b80840191505092915050565b6000612c468285612c09565b9150612c528284612c09565b91508190509392505050565b7f4e487b7100000000000000000000000000000000000000000000000000000000600052601160045260246000fd5b6000612c9882611efd565b9150612ca383611efd565b9250828201905080821115612cbb57612cba612c5e565b5b92915050565b7f4e487b7100000000000000000000000000000000000000000000000000000000600052603260045260246000fd5b6000612cfb82611efd565b91507fffffffffffffffffffffffffffffffffffffffffffffffffffffffffffffffff8203612d2d57612d2c612c5e565b5b600182019050919050565b7f4552433732313a207472616e736665722066726f6d20696e636f72726563742060008201527f6f776e6572000000000000000000000000000000000000000000000000000000602082015250565b6000612d94602583611e56565b9150612d9f82612d38565b604082019050919050565b60006020820190508181036000830152612dc381612d87565b9050919050565b7f4552433732313a207472616e7366657220746f20746865207a65726f2061646460008201527f7265737300000000000000000000000000000000000000000000000000000000602082015250565b6000612e26602483611e56565b9150612e3182612dca565b604082019050919050565b60006020820190508181036000830152612e5581612e19565b9050919050565b7f4552433732313a20617070726f766520746f2063616c6c657200000000000000600082015250565b6000612e92601983611e56565b9150612e9d82612e5c565b602082019050919050565b60006020820190508181036000830152612ec181612e85565b9050919050565b7f4552433732313a207472616e7366657220746f206e6f6e20455243373231526560008201527f63656976657220696d706c656d656e7465720000000000000000000000000000602082015250565b6000612f24603283611e56565b9150612f2f82612ec8565b604082019050919050565b60006020820190508181036000830152612f5381612f17565b9050919050565b7f4552433732313a206d696e7420746f20746865207a65726f2061646472657373600082015250565b6000612f90602083611e56565b9150612f9b82612f5a565b602082019050919050565b60006020820190508181036000830152612fbf81612f83565b9050919050565b7f4552433732313a20746f6b656e20616c7265616479206d696e74656400000000600082015250565b6000612ffc601c83611e56565b915061300782612fc6565b602082019050919050565b6000602082019050818103600083015261302b81612fef565b9050919050565b7f4e487b7100000000000000000000000000000000000000000000000000000000600052601260045260246000fd5b7f45524337323155524953746f726167653a2055524920736574206f66206e6f6e60008201527f6578697374656e7420746f6b656e000000000000000000000000000000000000602082015250565b60006130bd602e83611e56565b91506130c882613061565b604082019050919050565b600060208201905081810360008301526130ec816130b0565b9050919050565b6130fc82611e4b565b67ffffffffffffffff81111561311557613114612283565b5b61311f8254612626565b61312a828285612aa1565b600060209050601f83116001811461315d576000841561314b578287015190505b6131558582612b12565b8655506131bd565b601f19841661316b86612982565b60005b828110156131935784890151825560018201915060208501945060208101905061316e565b868310156131b057848901516131ac601f891682612af4565b8355505b6001600288020188555050505b505050505050565b600081519050919050565b600082825260208201905092915050565b60006131ec826131c5565b6131f681856131d0565b9350613206818560208601611e67565b61320f81611e91565b840191505092915050565b600060808201905061322f6000830187611f92565b61323c6020830186611f92565b613249604083018561210f565b818103606083015261325b81846131e1565b905095945050505050565b60008151905061327581611dbc565b92915050565b60006020828403121561329157613290611d86565b5b600061329f84828501613266565b9150509291505056fea26469706673582212205c9d9c4a30be7b37c08e8e9a219d91b3b7a688282ad322b0ad0284c2a46b86cd64736f6c63430008130033",
  "immutableReferences": {},
  "source": "// SPDX-License-Identifier: MIT\npragma solidity ^0.8.19;\n\nimport '../node_modules/@openzeppelin/contracts/utils/Counters.sol';\nimport '../node_modules/@openzeppelin/contracts/token/ERC721/ERC721.sol';\nimport '../node_modules/@openzeppelin/contracts/token/ERC721/extensions/ERC721URIStorage.sol';\n\ncontract ProjectNFT is ERC721URIStorage {\n  uint256 public tokenCounter;\n\n  // Maps tokenId to project's price\n  mapping(uint256 => uint256) private tokenIdToPrice;\n\n  // Maps tokenId to royalty price\n  mapping(uint256 => uint256) private tokenIdToRoyaltyPrice;\n\n  // Maps tokenId to hash of project\n  mapping(uint256 => string) private tokenIdToHash;\n\n  // Maps tokenId to list of components of project\n  mapping(uint256 => uint256[]) private tokenIdToComponents;\n\n  constructor() ERC721('DesignerNFT', 'DNFT') {\n    tokenCounter = 1;\n  }\n\n  function mintToken(\n    address sender,\n    uint256 price,\n    uint256 royaltyPrice,\n    string calldata projectHash,\n    uint256[] calldata components\n  ) public returns (uint256) {\n    //base_uri\n\n    uint256 newItemId = tokenCounter;\n\n    _mint(sender, newItemId);\n\n    //uri = base_uri + newItemId\n    string memory baseUri = \"localhost:3000/nfts/\";\n    string memory uri = string.concat(baseUri, Strings.toString(newItemId));\n    _setTokenURI(newItemId, uri);\n\n    tokenCounter = tokenCounter + 1;\n\n    setTokenHash(sender, newItemId, projectHash);\n    setTokenPrice(sender, newItemId, price, royaltyPrice);\n    setTokenComponents(sender, newItemId, components);\n\n    return newItemId;\n  }\n\n  function setTokenPrice(address sender, uint256 tokenId, uint256 price, uint256 royaltyPrice) public {\n    require(_ownerOf(tokenId) == sender, 'Caller is not owner');\n    tokenIdToPrice[tokenId] = price;\n    tokenIdToRoyaltyPrice[tokenId] = royaltyPrice;\n  }\n\n  function getTokenPrice(uint256 tokenId) public view returns (uint256) {\n    require(tokenId < tokenCounter);\n    return tokenIdToPrice[tokenId];\n  }\n\n  function setTokenHash(address sender, uint256 tokenId, string calldata hash) public {\n    require(_ownerOf(tokenId) == sender, 'Caller is not owner');\n    tokenIdToHash[tokenId] = hash;\n  }\n\n  function setTokenComponents(address sender, uint256 tokenId, uint256[] calldata components) public {\n    require(_ownerOf(tokenId) == sender, 'Caller is not owner');\n    // Check components exists\n    for (uint i = 0; i < components.length; i++) {\n        require(components[i] < tokenCounter);\n    }\n    tokenIdToComponents[tokenId] = components;\n  }\n\n\n}\n",
  "sourcePath": "/home/matteo/Projects/Uni/blockchain-project/contracts/ProjectNFT.sol",
  "compiler": {
    "name": "solc",
    "version": "0.8.19+commit.7dd6d404.Emscripten.clang"
  },
  "schemaVersion": "3.4.13",
  "updatedAt": "2023-06-21T16:43:49.320Z",
  "networkType": "ethereum",
  "devdoc": {
    "events": {
      "Approval(address,address,uint256)": {
        "details": "Emitted when `owner` enables `approved` to manage the `tokenId` token."
      },
      "ApprovalForAll(address,address,bool)": {
        "details": "Emitted when `owner` enables or disables (`approved`) `operator` to manage all of its assets."
      },
      "BatchMetadataUpdate(uint256,uint256)": {
        "details": "This event emits when the metadata of a range of tokens is changed. So that the third-party platforms such as NFT market could timely update the images and related attributes of the NFTs."
      },
      "MetadataUpdate(uint256)": {
        "details": "This event emits when the metadata of a token is changed. So that the third-party platforms such as NFT market could timely update the images and related attributes of the NFT."
      },
      "Transfer(address,address,uint256)": {
        "details": "Emitted when `tokenId` token is transferred from `from` to `to`."
      }
    },
    "kind": "dev",
    "methods": {
      "approve(address,uint256)": {
        "details": "See {IERC721-approve}."
      },
      "balanceOf(address)": {
        "details": "See {IERC721-balanceOf}."
      },
      "getApproved(uint256)": {
        "details": "See {IERC721-getApproved}."
      },
      "isApprovedForAll(address,address)": {
        "details": "See {IERC721-isApprovedForAll}."
      },
      "name()": {
        "details": "See {IERC721Metadata-name}."
      },
      "ownerOf(uint256)": {
        "details": "See {IERC721-ownerOf}."
      },
      "safeTransferFrom(address,address,uint256)": {
        "details": "See {IERC721-safeTransferFrom}."
      },
      "safeTransferFrom(address,address,uint256,bytes)": {
        "details": "See {IERC721-safeTransferFrom}."
      },
      "setApprovalForAll(address,bool)": {
        "details": "See {IERC721-setApprovalForAll}."
      },
      "supportsInterface(bytes4)": {
        "details": "See {IERC165-supportsInterface}"
      },
      "symbol()": {
        "details": "See {IERC721Metadata-symbol}."
      },
      "tokenURI(uint256)": {
        "details": "See {IERC721Metadata-tokenURI}."
      },
      "transferFrom(address,address,uint256)": {
        "details": "See {IERC721-transferFrom}."
      }
    },
    "version": 1
  },
  "userdoc": {
    "kind": "user",
    "methods": {},
    "version": 1
  }
}