{
  "contractName": "ProjectNFT",
  "abi": [
    {
      "inputs": [],
      "stateMutability": "nonpayable",
      "type": "constructor"
    },
    {
      "anonymous": false,
      "inputs": [
        {
          "indexed": true,
          "internalType": "address",
          "name": "owner",
          "type": "address"
        },
        {
          "indexed": true,
          "internalType": "address",
          "name": "approved",
          "type": "address"
        },
        {
          "indexed": true,
          "internalType": "uint256",
          "name": "tokenId",
          "type": "uint256"
        }
      ],
      "name": "Approval",
      "type": "event"
    },
    {
      "anonymous": false,
      "inputs": [
        {
          "indexed": true,
          "internalType": "address",
          "name": "owner",
          "type": "address"
        },
        {
          "indexed": true,
          "internalType": "address",
          "name": "operator",
          "type": "address"
        },
        {
          "indexed": false,
          "internalType": "bool",
          "name": "approved",
          "type": "bool"
        }
      ],
      "name": "ApprovalForAll",
      "type": "event"
    },
    {
      "anonymous": false,
      "inputs": [
        {
          "indexed": false,
          "internalType": "uint256",
          "name": "_fromTokenId",
          "type": "uint256"
        },
        {
          "indexed": false,
          "internalType": "uint256",
          "name": "_toTokenId",
          "type": "uint256"
        }
      ],
      "name": "BatchMetadataUpdate",
      "type": "event"
    },
    {
      "anonymous": false,
      "inputs": [
        {
          "indexed": false,
          "internalType": "uint256",
          "name": "_tokenId",
          "type": "uint256"
        }
      ],
      "name": "MetadataUpdate",
      "type": "event"
    },
    {
      "anonymous": false,
      "inputs": [
        {
          "indexed": true,
          "internalType": "address",
          "name": "from",
          "type": "address"
        },
        {
          "indexed": true,
          "internalType": "address",
          "name": "to",
          "type": "address"
        },
        {
          "indexed": true,
          "internalType": "uint256",
          "name": "tokenId",
          "type": "uint256"
        }
      ],
      "name": "Transfer",
      "type": "event"
    },
    {
      "inputs": [
        {
          "internalType": "address",
          "name": "to",
          "type": "address"
        },
        {
          "internalType": "uint256",
          "name": "tokenId",
          "type": "uint256"
        }
      ],
      "name": "approve",
      "outputs": [],
      "stateMutability": "nonpayable",
      "type": "function"
    },
    {
      "inputs": [
        {
          "internalType": "address",
          "name": "owner",
          "type": "address"
        }
      ],
      "name": "balanceOf",
      "outputs": [
        {
          "internalType": "uint256",
          "name": "",
          "type": "uint256"
        }
      ],
      "stateMutability": "view",
      "type": "function",
      "constant": true
    },
    {
      "inputs": [
        {
          "internalType": "uint256",
          "name": "tokenId",
          "type": "uint256"
        }
      ],
      "name": "getApproved",
      "outputs": [
        {
          "internalType": "address",
          "name": "",
          "type": "address"
        }
      ],
      "stateMutability": "view",
      "type": "function",
      "constant": true
    },
    {
      "inputs": [
        {
          "internalType": "address",
          "name": "owner",
          "type": "address"
        },
        {
          "internalType": "address",
          "name": "operator",
          "type": "address"
        }
      ],
      "name": "isApprovedForAll",
      "outputs": [
        {
          "internalType": "bool",
          "name": "",
          "type": "bool"
        }
      ],
      "stateMutability": "view",
      "type": "function",
      "constant": true
    },
    {
      "inputs": [],
      "name": "name",
      "outputs": [
        {
          "internalType": "string",
          "name": "",
          "type": "string"
        }
      ],
      "stateMutability": "view",
      "type": "function",
      "constant": true
    },
    {
      "inputs": [
        {
          "internalType": "uint256",
          "name": "tokenId",
          "type": "uint256"
        }
      ],
      "name": "ownerOf",
      "outputs": [
        {
          "internalType": "address",
          "name": "",
          "type": "address"
        }
      ],
      "stateMutability": "view",
      "type": "function",
      "constant": true
    },
    {
      "inputs": [
        {
          "internalType": "address",
          "name": "from",
          "type": "address"
        },
        {
          "internalType": "address",
          "name": "to",
          "type": "address"
        },
        {
          "internalType": "uint256",
          "name": "tokenId",
          "type": "uint256"
        }
      ],
      "name": "safeTransferFrom",
      "outputs": [],
      "stateMutability": "nonpayable",
      "type": "function"
    },
    {
      "inputs": [
        {
          "internalType": "address",
          "name": "from",
          "type": "address"
        },
        {
          "internalType": "address",
          "name": "to",
          "type": "address"
        },
        {
          "internalType": "uint256",
          "name": "tokenId",
          "type": "uint256"
        },
        {
          "internalType": "bytes",
          "name": "data",
          "type": "bytes"
        }
      ],
      "name": "safeTransferFrom",
      "outputs": [],
      "stateMutability": "nonpayable",
      "type": "function"
    },
    {
      "inputs": [
        {
          "internalType": "address",
          "name": "operator",
          "type": "address"
        },
        {
          "internalType": "bool",
          "name": "approved",
          "type": "bool"
        }
      ],
      "name": "setApprovalForAll",
      "outputs": [],
      "stateMutability": "nonpayable",
      "type": "function"
    },
    {
      "inputs": [
        {
          "internalType": "bytes4",
          "name": "interfaceId",
          "type": "bytes4"
        }
      ],
      "name": "supportsInterface",
      "outputs": [
        {
          "internalType": "bool",
          "name": "",
          "type": "bool"
        }
      ],
      "stateMutability": "view",
      "type": "function",
      "constant": true
    },
    {
      "inputs": [],
      "name": "symbol",
      "outputs": [
        {
          "internalType": "string",
          "name": "",
          "type": "string"
        }
      ],
      "stateMutability": "view",
      "type": "function",
      "constant": true
    },
    {
      "inputs": [],
      "name": "tokenCounter",
      "outputs": [
        {
          "internalType": "uint256",
          "name": "",
          "type": "uint256"
        }
      ],
      "stateMutability": "view",
      "type": "function",
      "constant": true
    },
    {
      "inputs": [
        {
          "internalType": "uint256",
          "name": "tokenId",
          "type": "uint256"
        }
      ],
      "name": "tokenURI",
      "outputs": [
        {
          "internalType": "string",
          "name": "",
          "type": "string"
        }
      ],
      "stateMutability": "view",
      "type": "function",
      "constant": true
    },
    {
      "inputs": [
        {
          "internalType": "address",
          "name": "from",
          "type": "address"
        },
        {
          "internalType": "address",
          "name": "to",
          "type": "address"
        },
        {
          "internalType": "uint256",
          "name": "tokenId",
          "type": "uint256"
        }
      ],
      "name": "transferFrom",
      "outputs": [],
      "stateMutability": "nonpayable",
      "type": "function"
    },
    {
      "inputs": [
        {
          "internalType": "address",
          "name": "sender",
          "type": "address"
        },
        {
          "internalType": "uint256",
          "name": "price",
          "type": "uint256"
        },
        {
          "internalType": "uint256",
          "name": "royaltyPrice",
          "type": "uint256"
        },
        {
          "internalType": "string",
          "name": "projectHash",
          "type": "string"
        },
        {
          "internalType": "uint256[]",
          "name": "components",
          "type": "uint256[]"
        }
      ],
      "name": "mintToken",
      "outputs": [
        {
          "internalType": "uint256",
          "name": "",
          "type": "uint256"
        }
      ],
      "stateMutability": "nonpayable",
      "type": "function"
    },
    {
      "inputs": [
        {
          "internalType": "uint256",
          "name": "tokenId",
          "type": "uint256"
        }
      ],
      "name": "getTokenPrice",
      "outputs": [
        {
          "internalType": "uint256",
          "name": "",
          "type": "uint256"
        }
      ],
      "stateMutability": "view",
      "type": "function",
      "constant": true
    },
    {
      "inputs": [
        {
          "internalType": "uint256",
          "name": "tokenId",
          "type": "uint256"
        }
      ],
      "name": "getTokenRoyaltyPrice",
      "outputs": [
        {
          "internalType": "uint256",
          "name": "",
          "type": "uint256"
        }
      ],
      "stateMutability": "view",
      "type": "function",
      "constant": true
    },
    {
      "inputs": [
        {
          "internalType": "uint256",
          "name": "tokenId",
          "type": "uint256"
        }
      ],
      "name": "getTokenBuyPrice",
      "outputs": [
        {
          "internalType": "uint256",
          "name": "",
          "type": "uint256"
        }
      ],
      "stateMutability": "view",
      "type": "function",
      "constant": true
    },
    {
      "inputs": [
        {
          "internalType": "uint256",
          "name": "tokenId",
          "type": "uint256"
        }
      ],
      "name": "getTokenComponents",
      "outputs": [
        {
          "internalType": "uint256[]",
          "name": "",
          "type": "uint256[]"
        }
      ],
      "stateMutability": "view",
      "type": "function",
      "constant": true
    }
  ],
  "bytecode": "0x60806040523480156200001157600080fd5b506040518060400160405280600b81526020017f44657369676e65724e46540000000000000000000000000000000000000000008152506040518060400160405280600481526020017f444e46540000000000000000000000000000000000000000000000000000000081525081600090816200008f91906200032c565b508060019081620000a191906200032c565b505050600160078190555062000413565b600081519050919050565b7f4e487b7100000000000000000000000000000000000000000000000000000000600052604160045260246000fd5b7f4e487b7100000000000000000000000000000000000000000000000000000000600052602260045260246000fd5b600060028204905060018216806200013457607f821691505b6020821081036200014a5762000149620000ec565b5b50919050565b60008190508160005260206000209050919050565b60006020601f8301049050919050565b600082821b905092915050565b600060088302620001b47fffffffffffffffffffffffffffffffffffffffffffffffffffffffffffffffff8262000175565b620001c0868362000175565b95508019841693508086168417925050509392505050565b6000819050919050565b6000819050919050565b60006200020d620002076200020184620001d8565b620001e2565b620001d8565b9050919050565b6000819050919050565b6200022983620001ec565b62000241620002388262000214565b84845462000182565b825550505050565b600090565b6200025862000249565b620002658184846200021e565b505050565b5b818110156200028d57620002816000826200024e565b6001810190506200026b565b5050565b601f821115620002dc57620002a68162000150565b620002b18462000165565b81016020851015620002c1578190505b620002d9620002d08562000165565b8301826200026a565b50505b505050565b600082821c905092915050565b60006200030160001984600802620002e1565b1980831691505092915050565b60006200031c8383620002ee565b9150826002028217905092915050565b6200033782620000b2565b67ffffffffffffffff811115620003535762000352620000bd565b5b6200035f82546200011b565b6200036c82828562000291565b600060209050601f831160018114620003a457600084156200038f578287015190505b6200039b85826200030e565b8655506200040b565b601f198416620003b48662000150565b60005b82811015620003de57848901518255600182019150602085019450602081019050620003b7565b86831015620003fe5784890151620003fa601f891682620002ee565b8355505b6001600288020188555050505b505050505050565b61342680620004236000396000f3fe608060405234801561001057600080fd5b50600436106101215760003560e01c806395d89b41116100ad578063c739acb011610071578063c739acb01461033e578063c87b56dd1461036e578063cb9d74151461039e578063d082e381146103ce578063e985e9c5146103ec57610121565b806395d89b4114610288578063a082dfc2146102a6578063a22cb465146102d6578063b88d4fde146102f2578063c457fb371461030e57610121565b806323b872dd116100f457806323b872dd146101c057806342842e0e146101dc57806351bbee6f146101f85780636352211e1461022857806370a082311461025857610121565b806301ffc9a71461012657806306fdde0314610156578063081812fc14610174578063095ea7b3146101a4575b600080fd5b610140600480360381019061013b9190611ecf565b61041c565b60405161014d9190611f17565b60405180910390f35b61015e61047d565b60405161016b9190611fc2565b60405180910390f35b61018e6004803603810190610189919061201a565b61050f565b60405161019b9190612088565b60405180910390f35b6101be60048036038101906101b991906120cf565b610555565b005b6101da60048036038101906101d5919061210f565b61066c565b005b6101f660048036038101906101f1919061210f565b6106cc565b005b610212600480360381019061020d919061201a565b6106ec565b60405161021f9190612171565b60405180910390f35b610242600480360381019061023d919061201a565b6107ad565b60405161024f9190612088565b60405180910390f35b610272600480360381019061026d919061218c565b610833565b60405161027f9190612171565b60405180910390f35b6102906108ea565b60405161029d9190611fc2565b60405180910390f35b6102c060048036038101906102bb919061201a565b61097c565b6040516102cd9190612277565b60405180910390f35b6102f060048036038101906102eb91906122c5565b6109f5565b005b61030c6004803603810190610307919061243a565b610a0b565b005b6103286004803603810190610323919061201a565b610a6d565b6040516103359190612171565b60405180910390f35b6103586004803603810190610353919061201a565b610a98565b6040516103659190612171565b60405180910390f35b6103886004803603810190610383919061201a565b610ac3565b6040516103959190611fc2565b60405180910390f35b6103b860048036038101906103b39190612573565b610bd5565b6040516103c59190612171565b60405180910390f35b6103d6610e1c565b6040516103e39190612171565b60405180910390f35b6104066004803603810190610401919061262f565b610e22565b6040516104139190611f17565b60405180910390f35b6000634906490660e01b7bffffffffffffffffffffffffffffffffffffffffffffffffffffffff1916827bffffffffffffffffffffffffffffffffffffffffffffffffffffffff19161480610476575061047582610eb6565b5b9050919050565b60606000805461048c9061269e565b80601f01602080910402602001604051908101604052809291908181526020018280546104b89061269e565b80156105055780601f106104da57610100808354040283529160200191610505565b820191906000526020600020905b8154815290600101906020018083116104e857829003601f168201915b5050505050905090565b600061051a82610f98565b6004600083815260200190815260200160002060009054906101000a900473ffffffffffffffffffffffffffffffffffffffff169050919050565b6000610560826107ad565b90508073ffffffffffffffffffffffffffffffffffffffff168373ffffffffffffffffffffffffffffffffffffffff16036105d0576040517f08c379a00000000000000000000000000000000000000000000000000000000081526004016105c790612741565b60405180910390fd5b8073ffffffffffffffffffffffffffffffffffffffff166105ef610fe3565b73ffffffffffffffffffffffffffffffffffffffff16148061061e575061061d81610618610fe3565b610e22565b5b61065d576040517f08c379a0000000000000000000000000000000000000000000000000000000008152600401610654906127d3565b60405180910390fd5b6106678383610feb565b505050565b61067d610677610fe3565b826110a4565b6106bc576040517f08c379a00000000000000000000000000000000000000000000000000000000081526004016106b390612865565b60405180910390fd5b6106c7838383611139565b505050565b6106e783838360405180602001604052806000815250610a0b565b505050565b600060075482106106fc57600080fd5b600060086000848152602001908152602001600020548161071d91906128b4565b905060005b600b6000858152602001908152602001600020805490508110156107a35760086000600b60008781526020019081526020016000208381548110610769576107686128e8565b5b90600052602060002001548152602001908152602001600020548261078e91906128b4565b9150808061079b90612917565b915050610722565b5080915050919050565b6000806107b983611432565b9050600073ffffffffffffffffffffffffffffffffffffffff168173ffffffffffffffffffffffffffffffffffffffff160361082a576040517f08c379a0000000000000000000000000000000000000000000000000000000008152600401610821906129ab565b60405180910390fd5b80915050919050565b60008073ffffffffffffffffffffffffffffffffffffffff168273ffffffffffffffffffffffffffffffffffffffff16036108a3576040517f08c379a000000000000000000000000000000000000000000000000000000000815260040161089a90612a3d565b60405180910390fd5b600360008373ffffffffffffffffffffffffffffffffffffffff1673ffffffffffffffffffffffffffffffffffffffff168152602001908152602001600020549050919050565b6060600180546108f99061269e565b80601f01602080910402602001604051908101604052809291908181526020018280546109259061269e565b80156109725780601f1061094757610100808354040283529160200191610972565b820191906000526020600020905b81548152906001019060200180831161095557829003601f168201915b5050505050905090565b6060600754821061098c57600080fd5b600b60008381526020019081526020016000208054806020026020016040519081016040528092919081815260200182805480156109e957602002820191906000526020600020905b8154815260200190600101908083116109d5575b50505050509050919050565b610a07610a00610fe3565b838361146f565b5050565b610a1c610a16610fe3565b836110a4565b610a5b576040517f08c379a0000000000000000000000000000000000000000000000000000000008152600401610a5290612865565b60405180910390fd5b610a67848484846115db565b50505050565b60006007548210610a7d57600080fd5b60086000838152602001908152602001600020549050919050565b60006007548210610aa857600080fd5b60096000838152602001908152602001600020549050919050565b6060610ace82610f98565b6000600660008481526020019081526020016000208054610aee9061269e565b80601f0160208091040260200160405190810160405280929190818152602001828054610b1a9061269e565b8015610b675780601f10610b3c57610100808354040283529160200191610b67565b820191906000526020600020905b815481529060010190602001808311610b4a57829003601f168201915b505050505090506000610b78611637565b90506000815103610b8d578192505050610bd0565b600082511115610bc2578082604051602001610baa929190612a99565b60405160208183030381529060405292505050610bd0565b610bcb8461164e565b925050505b919050565b6000600c8585604051610be9929190612ae2565b908152602001604051809103902060009054906101000a900460ff1615610c45576040517f08c379a0000000000000000000000000000000000000000000000000000000008152600401610c3c90612b6d565b60405180910390fd5b60005b83839050811015610cc357600754848483818110610c6957610c686128e8565b5b9050602002013510610cb0576040517f08c379a0000000000000000000000000000000000000000000000000000000008152600401610ca790612bd9565b60405180910390fd5b8080610cbb90612917565b915050610c48565b5060006007549050610cd589826116b6565b60006040518060400160405280601481526020017f6c6f63616c686f73743a333030302f6e6674732f0000000000000000000000008152509050600081610d1b846118d3565b604051602001610d2c929190612a99565b6040516020818303038152906040529050610d4783826119a1565b8960086000858152602001908152602001600020819055508860096000858152602001908152602001600020819055508787600a60008681526020019081526020016000209182610d99929190612db0565b506001600c8989604051610dae929190612ae2565b908152602001604051809103902060006101000a81548160ff0219169083151502179055508585600b60008681526020019081526020016000209190610df5929190611df9565b506001600754610e0591906128b4565b600781905550829350505050979650505050505050565b60075481565b6000600560008473ffffffffffffffffffffffffffffffffffffffff1673ffffffffffffffffffffffffffffffffffffffff16815260200190815260200160002060008373ffffffffffffffffffffffffffffffffffffffff1673ffffffffffffffffffffffffffffffffffffffff16815260200190815260200160002060009054906101000a900460ff16905092915050565b60007f80ac58cd000000000000000000000000000000000000000000000000000000007bffffffffffffffffffffffffffffffffffffffffffffffffffffffff1916827bffffffffffffffffffffffffffffffffffffffffffffffffffffffff19161480610f8157507f5b5e139f000000000000000000000000000000000000000000000000000000007bffffffffffffffffffffffffffffffffffffffffffffffffffffffff1916827bffffffffffffffffffffffffffffffffffffffffffffffffffffffff1916145b80610f915750610f9082611a45565b5b9050919050565b610fa181611aaf565b610fe0576040517f08c379a0000000000000000000000000000000000000000000000000000000008152600401610fd7906129ab565b60405180910390fd5b50565b600033905090565b816004600083815260200190815260200160002060006101000a81548173ffffffffffffffffffffffffffffffffffffffff021916908373ffffffffffffffffffffffffffffffffffffffff160217905550808273ffffffffffffffffffffffffffffffffffffffff1661105e836107ad565b73ffffffffffffffffffffffffffffffffffffffff167f8c5be1e5ebec7d5bd14f71427d1e84f3dd0314c0f7b2291e5b200ac8c7c3b92560405160405180910390a45050565b6000806110b0836107ad565b90508073ffffffffffffffffffffffffffffffffffffffff168473ffffffffffffffffffffffffffffffffffffffff1614806110f257506110f18185610e22565b5b8061113057508373ffffffffffffffffffffffffffffffffffffffff166111188461050f565b73ffffffffffffffffffffffffffffffffffffffff16145b91505092915050565b8273ffffffffffffffffffffffffffffffffffffffff16611159826107ad565b73ffffffffffffffffffffffffffffffffffffffff16146111af576040517f08c379a00000000000000000000000000000000000000000000000000000000081526004016111a690612ef2565b60405180910390fd5b600073ffffffffffffffffffffffffffffffffffffffff168273ffffffffffffffffffffffffffffffffffffffff160361121e576040517f08c379a000000000000000000000000000000000000000000000000000000000815260040161121590612f84565b60405180910390fd5b61122b8383836001611af0565b8273ffffffffffffffffffffffffffffffffffffffff1661124b826107ad565b73ffffffffffffffffffffffffffffffffffffffff16146112a1576040517f08c379a000000000000000000000000000000000000000000000000000000000815260040161129890612ef2565b60405180910390fd5b6004600082815260200190815260200160002060006101000a81549073ffffffffffffffffffffffffffffffffffffffff02191690556001600360008573ffffffffffffffffffffffffffffffffffffffff1673ffffffffffffffffffffffffffffffffffffffff168152602001908152602001600020600082825403925050819055506001600360008473ffffffffffffffffffffffffffffffffffffffff1673ffffffffffffffffffffffffffffffffffffffff16815260200190815260200160002060008282540192505081905550816002600083815260200190815260200160002060006101000a81548173ffffffffffffffffffffffffffffffffffffffff021916908373ffffffffffffffffffffffffffffffffffffffff160217905550808273ffffffffffffffffffffffffffffffffffffffff168473ffffffffffffffffffffffffffffffffffffffff167fddf252ad1be2c89b69c2b068fc378daa952ba7f163c4a11628f55a4df523b3ef60405160405180910390a461142d8383836001611af6565b505050565b60006002600083815260200190815260200160002060009054906101000a900473ffffffffffffffffffffffffffffffffffffffff169050919050565b8173ffffffffffffffffffffffffffffffffffffffff168373ffffffffffffffffffffffffffffffffffffffff16036114dd576040517f08c379a00000000000000000000000000000000000000000000000000000000081526004016114d490612ff0565b60405180910390fd5b80600560008573ffffffffffffffffffffffffffffffffffffffff1673ffffffffffffffffffffffffffffffffffffffff16815260200190815260200160002060008473ffffffffffffffffffffffffffffffffffffffff1673ffffffffffffffffffffffffffffffffffffffff16815260200190815260200160002060006101000a81548160ff0219169083151502179055508173ffffffffffffffffffffffffffffffffffffffff168373ffffffffffffffffffffffffffffffffffffffff167f17307eab39ab6107e8899845ad3d59bd9653f200f220920489ca2b5937696c31836040516115ce9190611f17565b60405180910390a3505050565b6115e6848484611139565b6115f284848484611afc565b611631576040517f08c379a000000000000000000000000000000000000000000000000000000000815260040161162890613082565b60405180910390fd5b50505050565b606060405180602001604052806000815250905090565b606061165982610f98565b6000611663611637565b9050600081511161168357604051806020016040528060008152506116ae565b8061168d846118d3565b60405160200161169e929190612a99565b6040516020818303038152906040525b915050919050565b600073ffffffffffffffffffffffffffffffffffffffff168273ffffffffffffffffffffffffffffffffffffffff1603611725576040517f08c379a000000000000000000000000000000000000000000000000000000000815260040161171c906130ee565b60405180910390fd5b61172e81611aaf565b1561176e576040517f08c379a00000000000000000000000000000000000000000000000000000000081526004016117659061315a565b60405180910390fd5b61177c600083836001611af0565b61178581611aaf565b156117c5576040517f08c379a00000000000000000000000000000000000000000000000000000000081526004016117bc9061315a565b60405180910390fd5b6001600360008473ffffffffffffffffffffffffffffffffffffffff1673ffffffffffffffffffffffffffffffffffffffff16815260200190815260200160002060008282540192505081905550816002600083815260200190815260200160002060006101000a81548173ffffffffffffffffffffffffffffffffffffffff021916908373ffffffffffffffffffffffffffffffffffffffff160217905550808273ffffffffffffffffffffffffffffffffffffffff16600073ffffffffffffffffffffffffffffffffffffffff167fddf252ad1be2c89b69c2b068fc378daa952ba7f163c4a11628f55a4df523b3ef60405160405180910390a46118cf600083836001611af6565b5050565b6060600060016118e284611c83565b01905060008167ffffffffffffffff8111156119015761190061230f565b5b6040519080825280601f01601f1916602001820160405280156119335781602001600182028036833780820191505090505b509050600082602001820190505b600115611996578080600190039150507f3031323334353637383961626364656600000000000000000000000000000000600a86061a8153600a858161198a5761198961317a565b5b04945060008503611941575b819350505050919050565b6119aa82611aaf565b6119e9576040517f08c379a00000000000000000000000000000000000000000000000000000000081526004016119e09061321b565b60405180910390fd5b80600660008481526020019081526020016000209081611a09919061323b565b507ff8e1a15aba9398e019f0b49df1a4fde98ee17ae345cb5f6b5e2c27f5033e8ce782604051611a399190612171565b60405180910390a15050565b60007f01ffc9a7000000000000000000000000000000000000000000000000000000007bffffffffffffffffffffffffffffffffffffffffffffffffffffffff1916827bffffffffffffffffffffffffffffffffffffffffffffffffffffffff1916149050919050565b60008073ffffffffffffffffffffffffffffffffffffffff16611ad183611432565b73ffffffffffffffffffffffffffffffffffffffff1614159050919050565b50505050565b50505050565b6000611b1d8473ffffffffffffffffffffffffffffffffffffffff16611dd6565b15611c76578373ffffffffffffffffffffffffffffffffffffffff1663150b7a02611b46610fe3565b8786866040518563ffffffff1660e01b8152600401611b689493929190613362565b6020604051808303816000875af1925050508015611ba457506040513d601f19601f82011682018060405250810190611ba191906133c3565b60015b611c26573d8060008114611bd4576040519150601f19603f3d011682016040523d82523d6000602084013e611bd9565b606091505b506000815103611c1e576040517f08c379a0000000000000000000000000000000000000000000000000000000008152600401611c1590613082565b60405180910390fd5b805181602001fd5b63150b7a0260e01b7bffffffffffffffffffffffffffffffffffffffffffffffffffffffff1916817bffffffffffffffffffffffffffffffffffffffffffffffffffffffff191614915050611c7b565b600190505b949350505050565b600080600090507a184f03e93ff9f4daa797ed6e38ed64bf6a1f0100000000000000008310611ce1577a184f03e93ff9f4daa797ed6e38ed64bf6a1f0100000000000000008381611cd757611cd661317a565b5b0492506040810190505b6d04ee2d6d415b85acef81000000008310611d1e576d04ee2d6d415b85acef81000000008381611d1457611d1361317a565b5b0492506020810190505b662386f26fc100008310611d4d57662386f26fc100008381611d4357611d4261317a565b5b0492506010810190505b6305f5e1008310611d76576305f5e1008381611d6c57611d6b61317a565b5b0492506008810190505b6127108310611d9b576127108381611d9157611d9061317a565b5b0492506004810190505b60648310611dbe5760648381611db457611db361317a565b5b0492506002810190505b600a8310611dcd576001810190505b80915050919050565b6000808273ffffffffffffffffffffffffffffffffffffffff163b119050919050565b828054828255906000526020600020908101928215611e35579160200282015b82811115611e34578235825591602001919060010190611e19565b5b509050611e429190611e46565b5090565b5b80821115611e5f576000816000905550600101611e47565b5090565b6000604051905090565b600080fd5b600080fd5b60007fffffffff0000000000000000000000000000000000000000000000000000000082169050919050565b611eac81611e77565b8114611eb757600080fd5b50565b600081359050611ec981611ea3565b92915050565b600060208284031215611ee557611ee4611e6d565b5b6000611ef384828501611eba565b91505092915050565b60008115159050919050565b611f1181611efc565b82525050565b6000602082019050611f2c6000830184611f08565b92915050565b600081519050919050565b600082825260208201905092915050565b60005b83811015611f6c578082015181840152602081019050611f51565b60008484015250505050565b6000601f19601f8301169050919050565b6000611f9482611f32565b611f9e8185611f3d565b9350611fae818560208601611f4e565b611fb781611f78565b840191505092915050565b60006020820190508181036000830152611fdc8184611f89565b905092915050565b6000819050919050565b611ff781611fe4565b811461200257600080fd5b50565b60008135905061201481611fee565b92915050565b6000602082840312156120305761202f611e6d565b5b600061203e84828501612005565b91505092915050565b600073ffffffffffffffffffffffffffffffffffffffff82169050919050565b600061207282612047565b9050919050565b61208281612067565b82525050565b600060208201905061209d6000830184612079565b92915050565b6120ac81612067565b81146120b757600080fd5b50565b6000813590506120c9816120a3565b92915050565b600080604083850312156120e6576120e5611e6d565b5b60006120f4858286016120ba565b925050602061210585828601612005565b9150509250929050565b60008060006060848603121561212857612127611e6d565b5b6000612136868287016120ba565b9350506020612147868287016120ba565b925050604061215886828701612005565b9150509250925092565b61216b81611fe4565b82525050565b60006020820190506121866000830184612162565b92915050565b6000602082840312156121a2576121a1611e6d565b5b60006121b0848285016120ba565b91505092915050565b600081519050919050565b600082825260208201905092915050565b6000819050602082019050919050565b6121ee81611fe4565b82525050565b600061220083836121e5565b60208301905092915050565b6000602082019050919050565b6000612224826121b9565b61222e81856121c4565b9350612239836121d5565b8060005b8381101561226a57815161225188826121f4565b975061225c8361220c565b92505060018101905061223d565b5085935050505092915050565b600060208201905081810360008301526122918184612219565b905092915050565b6122a281611efc565b81146122ad57600080fd5b50565b6000813590506122bf81612299565b92915050565b600080604083850312156122dc576122db611e6d565b5b60006122ea858286016120ba565b92505060206122fb858286016122b0565b9150509250929050565b600080fd5b600080fd5b7f4e487b7100000000000000000000000000000000000000000000000000000000600052604160045260246000fd5b61234782611f78565b810181811067ffffffffffffffff821117156123665761236561230f565b5b80604052505050565b6000612379611e63565b9050612385828261233e565b919050565b600067ffffffffffffffff8211156123a5576123a461230f565b5b6123ae82611f78565b9050602081019050919050565b82818337600083830152505050565b60006123dd6123d88461238a565b61236f565b9050828152602081018484840111156123f9576123f861230a565b5b6124048482856123bb565b509392505050565b600082601f83011261242157612420612305565b5b81356124318482602086016123ca565b91505092915050565b6000806000806080858703121561245457612453611e6d565b5b6000612462878288016120ba565b9450506020612473878288016120ba565b935050604061248487828801612005565b925050606085013567ffffffffffffffff8111156124a5576124a4611e72565b5b6124b18782880161240c565b91505092959194509250565b600080fd5b600080fd5b60008083601f8401126124dd576124dc612305565b5b8235905067ffffffffffffffff8111156124fa576124f96124bd565b5b602083019150836001820283011115612516576125156124c2565b5b9250929050565b60008083601f84011261253357612532612305565b5b8235905067ffffffffffffffff8111156125505761254f6124bd565b5b60208301915083602082028301111561256c5761256b6124c2565b5b9250929050565b600080600080600080600060a0888a03121561259257612591611e6d565b5b60006125a08a828b016120ba565b97505060206125b18a828b01612005565b96505060406125c28a828b01612005565b955050606088013567ffffffffffffffff8111156125e3576125e2611e72565b5b6125ef8a828b016124c7565b9450945050608088013567ffffffffffffffff81111561261257612611611e72565b5b61261e8a828b0161251d565b925092505092959891949750929550565b6000806040838503121561264657612645611e6d565b5b6000612654858286016120ba565b9250506020612665858286016120ba565b9150509250929050565b7f4e487b7100000000000000000000000000000000000000000000000000000000600052602260045260246000fd5b600060028204905060018216806126b657607f821691505b6020821081036126c9576126c861266f565b5b50919050565b7f4552433732313a20617070726f76616c20746f2063757272656e74206f776e6560008201527f7200000000000000000000000000000000000000000000000000000000000000602082015250565b600061272b602183611f3d565b9150612736826126cf565b604082019050919050565b6000602082019050818103600083015261275a8161271e565b9050919050565b7f4552433732313a20617070726f76652063616c6c6572206973206e6f7420746f60008201527f6b656e206f776e6572206f7220617070726f76656420666f7220616c6c000000602082015250565b60006127bd603d83611f3d565b91506127c882612761565b604082019050919050565b600060208201905081810360008301526127ec816127b0565b9050919050565b7f4552433732313a2063616c6c6572206973206e6f7420746f6b656e206f776e6560008201527f72206f7220617070726f76656400000000000000000000000000000000000000602082015250565b600061284f602d83611f3d565b915061285a826127f3565b604082019050919050565b6000602082019050818103600083015261287e81612842565b9050919050565b7f4e487b7100000000000000000000000000000000000000000000000000000000600052601160045260246000fd5b60006128bf82611fe4565b91506128ca83611fe4565b92508282019050808211156128e2576128e1612885565b5b92915050565b7f4e487b7100000000000000000000000000000000000000000000000000000000600052603260045260246000fd5b600061292282611fe4565b91507fffffffffffffffffffffffffffffffffffffffffffffffffffffffffffffffff820361295457612953612885565b5b600182019050919050565b7f4552433732313a20696e76616c696420746f6b656e2049440000000000000000600082015250565b6000612995601883611f3d565b91506129a08261295f565b602082019050919050565b600060208201905081810360008301526129c481612988565b9050919050565b7f4552433732313a2061646472657373207a65726f206973206e6f74206120766160008201527f6c6964206f776e65720000000000000000000000000000000000000000000000602082015250565b6000612a27602983611f3d565b9150612a32826129cb565b604082019050919050565b60006020820190508181036000830152612a5681612a1a565b9050919050565b600081905092915050565b6000612a7382611f32565b612a7d8185612a5d565b9350612a8d818560208601611f4e565b80840191505092915050565b6000612aa58285612a68565b9150612ab18284612a68565b91508190509392505050565b6000612ac98385612a5d565b9350612ad68385846123bb565b82840190509392505050565b6000612aef828486612abd565b91508190509392505050565b7f412070726f6a65637420776974682074686973206861736820616c726561647960008201527f2065786973747300000000000000000000000000000000000000000000000000602082015250565b6000612b57602783611f3d565b9150612b6282612afb565b604082019050919050565b60006020820190508181036000830152612b8681612b4a565b9050919050565b7f436f6d706f6e656e74206973206e6f7420612076616c69642070726f6a656374600082015250565b6000612bc3602083611f3d565b9150612bce82612b8d565b602082019050919050565b60006020820190508181036000830152612bf281612bb6565b9050919050565b600082905092915050565b60008190508160005260206000209050919050565b60006020601f8301049050919050565b600082821b905092915050565b600060088302612c667fffffffffffffffffffffffffffffffffffffffffffffffffffffffffffffffff82612c29565b612c708683612c29565b95508019841693508086168417925050509392505050565b6000819050919050565b6000612cad612ca8612ca384611fe4565b612c88565b611fe4565b9050919050565b6000819050919050565b612cc783612c92565b612cdb612cd382612cb4565b848454612c36565b825550505050565b600090565b612cf0612ce3565b612cfb818484612cbe565b505050565b5b81811015612d1f57612d14600082612ce8565b600181019050612d01565b5050565b601f821115612d6457612d3581612c04565b612d3e84612c19565b81016020851015612d4d578190505b612d61612d5985612c19565b830182612d00565b50505b505050565b600082821c905092915050565b6000612d8760001984600802612d69565b1980831691505092915050565b6000612da08383612d76565b9150826002028217905092915050565b612dba8383612bf9565b67ffffffffffffffff811115612dd357612dd261230f565b5b612ddd825461269e565b612de8828285612d23565b6000601f831160018114612e175760008415612e05578287013590505b612e0f8582612d94565b865550612e77565b601f198416612e2586612c04565b60005b82811015612e4d57848901358255600182019150602085019450602081019050612e28565b86831015612e6a5784890135612e66601f891682612d76565b8355505b6001600288020188555050505b50505050505050565b7f4552433732313a207472616e736665722066726f6d20696e636f72726563742060008201527f6f776e6572000000000000000000000000000000000000000000000000000000602082015250565b6000612edc602583611f3d565b9150612ee782612e80565b604082019050919050565b60006020820190508181036000830152612f0b81612ecf565b9050919050565b7f4552433732313a207472616e7366657220746f20746865207a65726f2061646460008201527f7265737300000000000000000000000000000000000000000000000000000000602082015250565b6000612f6e602483611f3d565b9150612f7982612f12565b604082019050919050565b60006020820190508181036000830152612f9d81612f61565b9050919050565b7f4552433732313a20617070726f766520746f2063616c6c657200000000000000600082015250565b6000612fda601983611f3d565b9150612fe582612fa4565b602082019050919050565b6000602082019050818103600083015261300981612fcd565b9050919050565b7f4552433732313a207472616e7366657220746f206e6f6e20455243373231526560008201527f63656976657220696d706c656d656e7465720000000000000000000000000000602082015250565b600061306c603283611f3d565b915061307782613010565b604082019050919050565b6000602082019050818103600083015261309b8161305f565b9050919050565b7f4552433732313a206d696e7420746f20746865207a65726f2061646472657373600082015250565b60006130d8602083611f3d565b91506130e3826130a2565b602082019050919050565b60006020820190508181036000830152613107816130cb565b9050919050565b7f4552433732313a20746f6b656e20616c7265616479206d696e74656400000000600082015250565b6000613144601c83611f3d565b915061314f8261310e565b602082019050919050565b6000602082019050818103600083015261317381613137565b9050919050565b7f4e487b7100000000000000000000000000000000000000000000000000000000600052601260045260246000fd5b7f45524337323155524953746f726167653a2055524920736574206f66206e6f6e60008201527f6578697374656e7420746f6b656e000000000000000000000000000000000000602082015250565b6000613205602e83611f3d565b9150613210826131a9565b604082019050919050565b60006020820190508181036000830152613234816131f8565b9050919050565b61324482611f32565b67ffffffffffffffff81111561325d5761325c61230f565b5b613267825461269e565b613272828285612d23565b600060209050601f8311600181146132a55760008415613293578287015190505b61329d8582612d94565b865550613305565b601f1984166132b386612c04565b60005b828110156132db578489015182556001820191506020850194506020810190506132b6565b868310156132f857848901516132f4601f891682612d76565b8355505b6001600288020188555050505b505050505050565b600081519050919050565b600082825260208201905092915050565b60006133348261330d565b61333e8185613318565b935061334e818560208601611f4e565b61335781611f78565b840191505092915050565b60006080820190506133776000830187612079565b6133846020830186612079565b6133916040830185612162565b81810360608301526133a38184613329565b905095945050505050565b6000815190506133bd81611ea3565b92915050565b6000602082840312156133d9576133d8611e6d565b5b60006133e7848285016133ae565b9150509291505056fea26469706673582212204781a12f063a2bb887d6d7bef32b64c935c19177b95bf10dc82bbc20d3cbc64e64736f6c63430008130033",
  "immutableReferences": {},
  "source": "// SPDX-License-Identifier: MIT\npragma solidity ^0.8.19;\n\nimport '../node_modules/@openzeppelin/contracts/utils/Counters.sol';\nimport '../node_modules/@openzeppelin/contracts/token/ERC721/ERC721.sol';\nimport '../node_modules/@openzeppelin/contracts/token/ERC721/extensions/ERC721URIStorage.sol';\n\ncontract ProjectNFT is ERC721URIStorage {\n  uint256 public tokenCounter;\n\n  // Maps tokenId to project's price\n  mapping(uint256 => uint256) private _tokenIdToPrice;\n\n  // Maps tokenId to royalty price\n  mapping(uint256 => uint256) private _tokenIdToRoyaltyPrice;\n\n  // Maps tokenId to hash of project\n  mapping(uint256 => string) private _tokenIdToHash;\n\n  // Maps tokenId to list of components of project\n  mapping(uint256 => uint256[]) private _tokenIdToComponents;\n\n  // Map to check hashes are unique\n  mapping(string => bool) private _hashes;\n\n  constructor() ERC721('DesignerNFT', 'DNFT') {\n    tokenCounter = 1;\n  }\n\n  function mintToken(\n    address sender,\n    uint256 price,\n    uint256 royaltyPrice,\n    string calldata projectHash,\n    uint256[] calldata components\n  ) public returns (uint256) {\n    // Check NFT parameters:\n    \n    // Check hash is unique\n    require(!_hashes[projectHash], 'A project with this hash already exists');\n\n    // Check components exists\n    for (uint i = 0; i < components.length; i++) {\n      require(components[i] < tokenCounter, 'Component is not a valid project');\n    }\n    \n    // Get NFT id\n    uint256 newItemId = tokenCounter;\n\n    // Mint new token (openzeppelin)\n    _mint(sender, newItemId);\n\n    // Build uri from base + tokenId\n    string memory baseUri = \"localhost:3000/nfts/\";\n    string memory uri = string.concat(baseUri, Strings.toString(newItemId));\n    _setTokenURI(newItemId, uri);\n\n    // Set NFT parameters\n    _tokenIdToPrice[newItemId] = price;\n    _tokenIdToRoyaltyPrice[newItemId] = royaltyPrice;\n    _tokenIdToHash[newItemId] = projectHash;\n    _hashes[projectHash] = true;\n    _tokenIdToComponents[newItemId] = components;\n\n    // Increment token counter\n    tokenCounter = tokenCounter + 1;\n\n    return newItemId;\n  }\n\n  function getTokenPrice(uint256 tokenId) public view returns (uint256) {\n    require(tokenId < tokenCounter);\n    return _tokenIdToPrice[tokenId];\n  }\n\n  function getTokenRoyaltyPrice(uint256 tokenId) public view returns (uint256) {\n    require(tokenId < tokenCounter);\n    return _tokenIdToRoyaltyPrice[tokenId];\n  }\n\n  function getTokenBuyPrice(uint256 tokenId) public view returns (uint256) {\n    require(tokenId < tokenCounter);\n\n    // Return token buy price plus royalties of all its components\n    uint256 total = 0;\n    total = total + _tokenIdToPrice[tokenId];\n    for (uint256 i=0; i < _tokenIdToComponents[tokenId].length; i++) {\n      total = total + _tokenIdToPrice[_tokenIdToComponents[tokenId][i]];\n    }\n    return total;\n  }\n\n  function getTokenComponents(uint256 tokenId) public view returns (uint256[] memory) {\n    require(tokenId < tokenCounter);\n    return _tokenIdToComponents[tokenId];\n  }\n\n}\n",
  "sourcePath": "/home/matteo/Projects/Uni/blockchain-project/contracts/ProjectNFT.sol",
  "compiler": {
    "name": "solc",
    "version": "0.8.19+commit.7dd6d404.Emscripten.clang"
  },
  "schemaVersion": "3.4.13",
  "updatedAt": "2023-06-21T18:34:12.669Z",
  "networkType": "ethereum",
  "devdoc": {
    "events": {
      "Approval(address,address,uint256)": {
        "details": "Emitted when `owner` enables `approved` to manage the `tokenId` token."
      },
      "ApprovalForAll(address,address,bool)": {
        "details": "Emitted when `owner` enables or disables (`approved`) `operator` to manage all of its assets."
      },
      "BatchMetadataUpdate(uint256,uint256)": {
        "details": "This event emits when the metadata of a range of tokens is changed. So that the third-party platforms such as NFT market could timely update the images and related attributes of the NFTs."
      },
      "MetadataUpdate(uint256)": {
        "details": "This event emits when the metadata of a token is changed. So that the third-party platforms such as NFT market could timely update the images and related attributes of the NFT."
      },
      "Transfer(address,address,uint256)": {
        "details": "Emitted when `tokenId` token is transferred from `from` to `to`."
      }
    },
    "kind": "dev",
    "methods": {
      "approve(address,uint256)": {
        "details": "See {IERC721-approve}."
      },
      "balanceOf(address)": {
        "details": "See {IERC721-balanceOf}."
      },
      "getApproved(uint256)": {
        "details": "See {IERC721-getApproved}."
      },
      "isApprovedForAll(address,address)": {
        "details": "See {IERC721-isApprovedForAll}."
      },
      "name()": {
        "details": "See {IERC721Metadata-name}."
      },
      "ownerOf(uint256)": {
        "details": "See {IERC721-ownerOf}."
      },
      "safeTransferFrom(address,address,uint256)": {
        "details": "See {IERC721-safeTransferFrom}."
      },
      "safeTransferFrom(address,address,uint256,bytes)": {
        "details": "See {IERC721-safeTransferFrom}."
      },
      "setApprovalForAll(address,bool)": {
        "details": "See {IERC721-setApprovalForAll}."
      },
      "supportsInterface(bytes4)": {
        "details": "See {IERC165-supportsInterface}"
      },
      "symbol()": {
        "details": "See {IERC721Metadata-symbol}."
      },
      "tokenURI(uint256)": {
        "details": "See {IERC721Metadata-tokenURI}."
      },
      "transferFrom(address,address,uint256)": {
        "details": "See {IERC721-transferFrom}."
      }
    },
    "version": 1
  },
  "userdoc": {
    "kind": "user",
    "methods": {},
    "version": 1
  }
}