{
  "contractName": "ProjectNFT",
  "abi": [
    {
      "inputs": [],
      "stateMutability": "nonpayable",
      "type": "constructor"
    },
    {
      "anonymous": false,
      "inputs": [
        {
          "indexed": true,
          "internalType": "address",
          "name": "owner",
          "type": "address"
        },
        {
          "indexed": true,
          "internalType": "address",
          "name": "approved",
          "type": "address"
        },
        {
          "indexed": true,
          "internalType": "uint256",
          "name": "tokenId",
          "type": "uint256"
        }
      ],
      "name": "Approval",
      "type": "event"
    },
    {
      "anonymous": false,
      "inputs": [
        {
          "indexed": true,
          "internalType": "address",
          "name": "owner",
          "type": "address"
        },
        {
          "indexed": true,
          "internalType": "address",
          "name": "operator",
          "type": "address"
        },
        {
          "indexed": false,
          "internalType": "bool",
          "name": "approved",
          "type": "bool"
        }
      ],
      "name": "ApprovalForAll",
      "type": "event"
    },
    {
      "anonymous": false,
      "inputs": [
        {
          "indexed": false,
          "internalType": "uint256",
          "name": "_fromTokenId",
          "type": "uint256"
        },
        {
          "indexed": false,
          "internalType": "uint256",
          "name": "_toTokenId",
          "type": "uint256"
        }
      ],
      "name": "BatchMetadataUpdate",
      "type": "event"
    },
    {
      "anonymous": false,
      "inputs": [
        {
          "indexed": false,
          "internalType": "uint256",
          "name": "_tokenId",
          "type": "uint256"
        }
      ],
      "name": "MetadataUpdate",
      "type": "event"
    },
    {
      "anonymous": false,
      "inputs": [
        {
          "indexed": true,
          "internalType": "address",
          "name": "from",
          "type": "address"
        },
        {
          "indexed": true,
          "internalType": "address",
          "name": "to",
          "type": "address"
        },
        {
          "indexed": true,
          "internalType": "uint256",
          "name": "tokenId",
          "type": "uint256"
        }
      ],
      "name": "Transfer",
      "type": "event"
    },
    {
      "inputs": [
        {
          "internalType": "address",
          "name": "to",
          "type": "address"
        },
        {
          "internalType": "uint256",
          "name": "tokenId",
          "type": "uint256"
        }
      ],
      "name": "approve",
      "outputs": [],
      "stateMutability": "nonpayable",
      "type": "function"
    },
    {
      "inputs": [
        {
          "internalType": "address",
          "name": "owner",
          "type": "address"
        }
      ],
      "name": "balanceOf",
      "outputs": [
        {
          "internalType": "uint256",
          "name": "",
          "type": "uint256"
        }
      ],
      "stateMutability": "view",
      "type": "function"
    },
    {
      "inputs": [
        {
          "internalType": "uint256",
          "name": "tokenId",
          "type": "uint256"
        }
      ],
      "name": "getApproved",
      "outputs": [
        {
          "internalType": "address",
          "name": "",
          "type": "address"
        }
      ],
      "stateMutability": "view",
      "type": "function"
    },
    {
      "inputs": [
        {
          "internalType": "address",
          "name": "owner",
          "type": "address"
        },
        {
          "internalType": "address",
          "name": "operator",
          "type": "address"
        }
      ],
      "name": "isApprovedForAll",
      "outputs": [
        {
          "internalType": "bool",
          "name": "",
          "type": "bool"
        }
      ],
      "stateMutability": "view",
      "type": "function"
    },
    {
      "inputs": [],
      "name": "name",
      "outputs": [
        {
          "internalType": "string",
          "name": "",
          "type": "string"
        }
      ],
      "stateMutability": "view",
      "type": "function"
    },
    {
      "inputs": [
        {
          "internalType": "uint256",
          "name": "tokenId",
          "type": "uint256"
        }
      ],
      "name": "ownerOf",
      "outputs": [
        {
          "internalType": "address",
          "name": "",
          "type": "address"
        }
      ],
      "stateMutability": "view",
      "type": "function"
    },
    {
      "inputs": [
        {
          "internalType": "address",
          "name": "from",
          "type": "address"
        },
        {
          "internalType": "address",
          "name": "to",
          "type": "address"
        },
        {
          "internalType": "uint256",
          "name": "tokenId",
          "type": "uint256"
        }
      ],
      "name": "safeTransferFrom",
      "outputs": [],
      "stateMutability": "nonpayable",
      "type": "function"
    },
    {
      "inputs": [
        {
          "internalType": "address",
          "name": "from",
          "type": "address"
        },
        {
          "internalType": "address",
          "name": "to",
          "type": "address"
        },
        {
          "internalType": "uint256",
          "name": "tokenId",
          "type": "uint256"
        },
        {
          "internalType": "bytes",
          "name": "data",
          "type": "bytes"
        }
      ],
      "name": "safeTransferFrom",
      "outputs": [],
      "stateMutability": "nonpayable",
      "type": "function"
    },
    {
      "inputs": [
        {
          "internalType": "address",
          "name": "operator",
          "type": "address"
        },
        {
          "internalType": "bool",
          "name": "approved",
          "type": "bool"
        }
      ],
      "name": "setApprovalForAll",
      "outputs": [],
      "stateMutability": "nonpayable",
      "type": "function"
    },
    {
      "inputs": [
        {
          "internalType": "bytes4",
          "name": "interfaceId",
          "type": "bytes4"
        }
      ],
      "name": "supportsInterface",
      "outputs": [
        {
          "internalType": "bool",
          "name": "",
          "type": "bool"
        }
      ],
      "stateMutability": "view",
      "type": "function"
    },
    {
      "inputs": [],
      "name": "symbol",
      "outputs": [
        {
          "internalType": "string",
          "name": "",
          "type": "string"
        }
      ],
      "stateMutability": "view",
      "type": "function"
    },
    {
      "inputs": [],
      "name": "tokenCounter",
      "outputs": [
        {
          "internalType": "uint256",
          "name": "",
          "type": "uint256"
        }
      ],
      "stateMutability": "view",
      "type": "function"
    },
    {
      "inputs": [
        {
          "internalType": "uint256",
          "name": "tokenId",
          "type": "uint256"
        }
      ],
      "name": "tokenURI",
      "outputs": [
        {
          "internalType": "string",
          "name": "",
          "type": "string"
        }
      ],
      "stateMutability": "view",
      "type": "function"
    },
    {
      "inputs": [
        {
          "internalType": "address",
          "name": "from",
          "type": "address"
        },
        {
          "internalType": "address",
          "name": "to",
          "type": "address"
        },
        {
          "internalType": "uint256",
          "name": "tokenId",
          "type": "uint256"
        }
      ],
      "name": "transferFrom",
      "outputs": [],
      "stateMutability": "nonpayable",
      "type": "function"
    },
    {
      "inputs": [
        {
          "internalType": "address",
          "name": "sender",
          "type": "address"
        },
        {
          "internalType": "string",
          "name": "uri",
          "type": "string"
        },
        {
          "internalType": "uint256",
          "name": "price",
          "type": "uint256"
        },
        {
          "internalType": "uint256",
          "name": "royaltyPrice",
          "type": "uint256"
        },
        {
          "internalType": "string",
          "name": "projectHash",
          "type": "string"
        },
        {
          "internalType": "uint256[]",
          "name": "components",
          "type": "uint256[]"
        }
      ],
      "name": "mintToken",
      "outputs": [
        {
          "internalType": "uint256",
          "name": "",
          "type": "uint256"
        }
      ],
      "stateMutability": "nonpayable",
      "type": "function"
    },
    {
      "inputs": [
        {
          "internalType": "uint256",
          "name": "tokenId",
          "type": "uint256"
        }
      ],
      "name": "getTokenPrice",
      "outputs": [
        {
          "internalType": "uint256",
          "name": "",
          "type": "uint256"
        }
      ],
      "stateMutability": "view",
      "type": "function"
    },
    {
      "inputs": [
        {
          "internalType": "uint256",
          "name": "tokenId",
          "type": "uint256"
        },
        {
          "internalType": "uint256",
          "name": "price",
          "type": "uint256"
        },
        {
          "internalType": "uint256",
          "name": "royaltyPrice",
          "type": "uint256"
        }
      ],
      "name": "setTokenPrice",
      "outputs": [],
      "stateMutability": "nonpayable",
      "type": "function"
    },
    {
      "inputs": [
        {
          "internalType": "uint256",
          "name": "tokenId",
          "type": "uint256"
        },
        {
          "internalType": "string",
          "name": "hash",
          "type": "string"
        }
      ],
      "name": "setTokenHash",
      "outputs": [],
      "stateMutability": "nonpayable",
      "type": "function"
    },
    {
      "inputs": [
        {
          "internalType": "uint256",
          "name": "tokenId",
          "type": "uint256"
        },
        {
          "internalType": "uint256[]",
          "name": "components",
          "type": "uint256[]"
        }
      ],
      "name": "setTokenComponents",
      "outputs": [],
      "stateMutability": "nonpayable",
      "type": "function"
    }
  ],
  "bytecode": "0x60806040523480156200001157600080fd5b506040518060400160405280600b81526020017f44657369676e65724e46540000000000000000000000000000000000000000008152506040518060400160405280600481526020017f444e46540000000000000000000000000000000000000000000000000000000081525081600090816200008f91906200032c565b508060019081620000a191906200032c565b505050600160078190555062000413565b600081519050919050565b7f4e487b7100000000000000000000000000000000000000000000000000000000600052604160045260246000fd5b7f4e487b7100000000000000000000000000000000000000000000000000000000600052602260045260246000fd5b600060028204905060018216806200013457607f821691505b6020821081036200014a5762000149620000ec565b5b50919050565b60008190508160005260206000209050919050565b60006020601f8301049050919050565b600082821b905092915050565b600060088302620001b47fffffffffffffffffffffffffffffffffffffffffffffffffffffffffffffffff8262000175565b620001c0868362000175565b95508019841693508086168417925050509392505050565b6000819050919050565b6000819050919050565b60006200020d620002076200020184620001d8565b620001e2565b620001d8565b9050919050565b6000819050919050565b6200022983620001ec565b62000241620002388262000214565b84845462000182565b825550505050565b600090565b6200025862000249565b620002658184846200021e565b505050565b5b818110156200028d57620002816000826200024e565b6001810190506200026b565b5050565b601f821115620002dc57620002a68162000150565b620002b18462000165565b81016020851015620002c1578190505b620002d9620002d08562000165565b8301826200026a565b50505b505050565b600082821c905092915050565b60006200030160001984600802620002e1565b1980831691505092915050565b60006200031c8383620002ee565b9150826002028217905092915050565b6200033782620000b2565b67ffffffffffffffff811115620003535762000352620000bd565b5b6200035f82546200011b565b6200036c82828562000291565b600060209050601f831160018114620003a457600084156200038f578287015190505b6200039b85826200030e565b8655506200040b565b601f198416620003b48662000150565b60005b82811015620003de57848901518255600182019150602085019450602081019050620003b7565b86831015620003fe5784890151620003fa601f891682620002ee565b8355505b6001600288020188555050505b505050505050565b61321680620004236000396000f3fe608060405234801561001057600080fd5b50600436106101215760003560e01c806395d89b41116100ad578063c457fb3711610071578063c457fb3714610302578063c87b56dd14610332578063d082e38114610362578063d6ada45f14610380578063e985e9c5146103b057610121565b806395d89b4114610274578063a22cb46514610292578063abbd8ee5146102ae578063b88d4fde146102ca578063bca2b941146102e657610121565b806323b872dd116100f457806323b872dd146101c057806342842e0e146101dc5780636352211e146101f857806370a082311461022857806390ede32b1461025857610121565b806301ffc9a71461012657806306fdde0314610156578063081812fc14610174578063095ea7b3146101a4575b600080fd5b610140600480360381019061013b9190611d29565b6103e0565b60405161014d9190611d71565b60405180910390f35b61015e610441565b60405161016b9190611e1c565b60405180910390f35b61018e60048036038101906101899190611e74565b6104d3565b60405161019b9190611ee2565b60405180910390f35b6101be60048036038101906101b99190611f29565b610519565b005b6101da60048036038101906101d59190611f69565b610630565b005b6101f660048036038101906101f19190611f69565b610690565b005b610212600480360381019061020d9190611e74565b6106b0565b60405161021f9190611ee2565b60405180910390f35b610242600480360381019061023d9190611fbc565b610736565b60405161024f9190611ff8565b60405180910390f35b610272600480360381019061026d9190612078565b6107ed565b005b61027c6108a7565b6040516102899190611e1c565b60405180910390f35b6102ac60048036038101906102a79190612104565b610939565b005b6102c860048036038101906102c3919061219a565b61094f565b005b6102e460048036038101906102df919061232a565b6109c0565b005b61030060048036038101906102fb91906123ad565b610a22565b005b61031c60048036038101906103179190611e74565b610aa0565b6040516103299190611ff8565b60405180910390f35b61034c60048036038101906103479190611e74565b610abd565b6040516103599190611e1c565b60405180910390f35b61036a610bcf565b6040516103779190611ff8565b60405180910390f35b61039a60048036038101906103959190612400565b610bd5565b6040516103a79190611ff8565b60405180910390f35b6103ca60048036038101906103c591906124ef565b610c7c565b6040516103d79190611d71565b60405180910390f35b6000634906490660e01b7bffffffffffffffffffffffffffffffffffffffffffffffffffffffff1916827bffffffffffffffffffffffffffffffffffffffffffffffffffffffff1916148061043a575061043982610d10565b5b9050919050565b6060600080546104509061255e565b80601f016020809104026020016040519081016040528092919081815260200182805461047c9061255e565b80156104c95780601f1061049e576101008083540402835291602001916104c9565b820191906000526020600020905b8154815290600101906020018083116104ac57829003601f168201915b5050505050905090565b60006104de82610df2565b6004600083815260200190815260200160002060009054906101000a900473ffffffffffffffffffffffffffffffffffffffff169050919050565b6000610524826106b0565b90508073ffffffffffffffffffffffffffffffffffffffff168373ffffffffffffffffffffffffffffffffffffffff1603610594576040517f08c379a000000000000000000000000000000000000000000000000000000000815260040161058b90612601565b60405180910390fd5b8073ffffffffffffffffffffffffffffffffffffffff166105b3610e3d565b73ffffffffffffffffffffffffffffffffffffffff1614806105e257506105e1816105dc610e3d565b610c7c565b5b610621576040517f08c379a000000000000000000000000000000000000000000000000000000000815260040161061890612693565b60405180910390fd5b61062b8383610e45565b505050565b61064161063b610e3d565b82610efe565b610680576040517f08c379a000000000000000000000000000000000000000000000000000000000815260040161067790612725565b60405180910390fd5b61068b838383610f93565b505050565b6106ab838383604051806020016040528060008152506109c0565b505050565b6000806106bc8361128c565b9050600073ffffffffffffffffffffffffffffffffffffffff168173ffffffffffffffffffffffffffffffffffffffff160361072d576040517f08c379a000000000000000000000000000000000000000000000000000000000815260040161072490612791565b60405180910390fd5b80915050919050565b60008073ffffffffffffffffffffffffffffffffffffffff168273ffffffffffffffffffffffffffffffffffffffff16036107a6576040517f08c379a000000000000000000000000000000000000000000000000000000000815260040161079d90612823565b60405180910390fd5b600360008373ffffffffffffffffffffffffffffffffffffffff1673ffffffffffffffffffffffffffffffffffffffff168152602001908152602001600020549050919050565b6107f73384610efe565b610836576040517f08c379a000000000000000000000000000000000000000000000000000000000815260040161082d9061288f565b60405180910390fd5b60005b8282905081101561087e5760075483838381811061085a576108596128af565b5b905060200201351061086b57600080fd5b80806108769061290d565b915050610839565b508181600b600086815260200190815260200160002091906108a1929190611c53565b50505050565b6060600180546108b69061255e565b80601f01602080910402602001604051908101604052809291908181526020018280546108e29061255e565b801561092f5780601f106109045761010080835404028352916020019161092f565b820191906000526020600020905b81548152906001019060200180831161091257829003601f168201915b5050505050905090565b61094b610944610e3d565b83836112c9565b5050565b6109593384610efe565b610998576040517f08c379a000000000000000000000000000000000000000000000000000000000815260040161098f9061288f565b60405180910390fd5b8181600a600086815260200190815260200160002091826109ba929190612b0c565b50505050565b6109d16109cb610e3d565b83610efe565b610a10576040517f08c379a0000000000000000000000000000000000000000000000000000000008152600401610a0790612725565b60405180910390fd5b610a1c84848484611435565b50505050565b610a2c3384610efe565b610a6b576040517f08c379a0000000000000000000000000000000000000000000000000000000008152600401610a629061288f565b60405180910390fd5b816008600085815260200190815260200160002081905550806009600085815260200190815260200160002081905550505050565b600060086000838152602001908152602001600020549050919050565b6060610ac882610df2565b6000600660008481526020019081526020016000208054610ae89061255e565b80601f0160208091040260200160405190810160405280929190818152602001828054610b149061255e565b8015610b615780601f10610b3657610100808354040283529160200191610b61565b820191906000526020600020905b815481529060010190602001808311610b4457829003601f168201915b505050505090506000610b72611491565b90506000815103610b87578192505050610bca565b600082511115610bbc578082604051602001610ba4929190612c18565b60405160208183030381529060405292505050610bca565b610bc5846114a8565b925050505b919050565b60075481565b6000806007549050610be78b82611510565b610c35818b8b8080601f016020809104026020016040519081016040528093929190818152602001838380828437600081840152601f19601f8201169050808301925050505050505061172d565b6001600754610c449190612c3c565b600781905550610c5581878761094f565b610c60818989610a22565b610c6b8185856107ed565b809150509998505050505050505050565b6000600560008473ffffffffffffffffffffffffffffffffffffffff1673ffffffffffffffffffffffffffffffffffffffff16815260200190815260200160002060008373ffffffffffffffffffffffffffffffffffffffff1673ffffffffffffffffffffffffffffffffffffffff16815260200190815260200160002060009054906101000a900460ff16905092915050565b60007f80ac58cd000000000000000000000000000000000000000000000000000000007bffffffffffffffffffffffffffffffffffffffffffffffffffffffff1916827bffffffffffffffffffffffffffffffffffffffffffffffffffffffff19161480610ddb57507f5b5e139f000000000000000000000000000000000000000000000000000000007bffffffffffffffffffffffffffffffffffffffffffffffffffffffff1916827bffffffffffffffffffffffffffffffffffffffffffffffffffffffff1916145b80610deb5750610dea826117d1565b5b9050919050565b610dfb8161183b565b610e3a576040517f08c379a0000000000000000000000000000000000000000000000000000000008152600401610e3190612791565b60405180910390fd5b50565b600033905090565b816004600083815260200190815260200160002060006101000a81548173ffffffffffffffffffffffffffffffffffffffff021916908373ffffffffffffffffffffffffffffffffffffffff160217905550808273ffffffffffffffffffffffffffffffffffffffff16610eb8836106b0565b73ffffffffffffffffffffffffffffffffffffffff167f8c5be1e5ebec7d5bd14f71427d1e84f3dd0314c0f7b2291e5b200ac8c7c3b92560405160405180910390a45050565b600080610f0a836106b0565b90508073ffffffffffffffffffffffffffffffffffffffff168473ffffffffffffffffffffffffffffffffffffffff161480610f4c5750610f4b8185610c7c565b5b80610f8a57508373ffffffffffffffffffffffffffffffffffffffff16610f72846104d3565b73ffffffffffffffffffffffffffffffffffffffff16145b91505092915050565b8273ffffffffffffffffffffffffffffffffffffffff16610fb3826106b0565b73ffffffffffffffffffffffffffffffffffffffff1614611009576040517f08c379a000000000000000000000000000000000000000000000000000000000815260040161100090612ce2565b60405180910390fd5b600073ffffffffffffffffffffffffffffffffffffffff168273ffffffffffffffffffffffffffffffffffffffff1603611078576040517f08c379a000000000000000000000000000000000000000000000000000000000815260040161106f90612d74565b60405180910390fd5b611085838383600161187c565b8273ffffffffffffffffffffffffffffffffffffffff166110a5826106b0565b73ffffffffffffffffffffffffffffffffffffffff16146110fb576040517f08c379a00000000000000000000000000000000000000000000000000000000081526004016110f290612ce2565b60405180910390fd5b6004600082815260200190815260200160002060006101000a81549073ffffffffffffffffffffffffffffffffffffffff02191690556001600360008573ffffffffffffffffffffffffffffffffffffffff1673ffffffffffffffffffffffffffffffffffffffff168152602001908152602001600020600082825403925050819055506001600360008473ffffffffffffffffffffffffffffffffffffffff1673ffffffffffffffffffffffffffffffffffffffff16815260200190815260200160002060008282540192505081905550816002600083815260200190815260200160002060006101000a81548173ffffffffffffffffffffffffffffffffffffffff021916908373ffffffffffffffffffffffffffffffffffffffff160217905550808273ffffffffffffffffffffffffffffffffffffffff168473ffffffffffffffffffffffffffffffffffffffff167fddf252ad1be2c89b69c2b068fc378daa952ba7f163c4a11628f55a4df523b3ef60405160405180910390a46112878383836001611882565b505050565b60006002600083815260200190815260200160002060009054906101000a900473ffffffffffffffffffffffffffffffffffffffff169050919050565b8173ffffffffffffffffffffffffffffffffffffffff168373ffffffffffffffffffffffffffffffffffffffff1603611337576040517f08c379a000000000000000000000000000000000000000000000000000000000815260040161132e90612de0565b60405180910390fd5b80600560008573ffffffffffffffffffffffffffffffffffffffff1673ffffffffffffffffffffffffffffffffffffffff16815260200190815260200160002060008473ffffffffffffffffffffffffffffffffffffffff1673ffffffffffffffffffffffffffffffffffffffff16815260200190815260200160002060006101000a81548160ff0219169083151502179055508173ffffffffffffffffffffffffffffffffffffffff168373ffffffffffffffffffffffffffffffffffffffff167f17307eab39ab6107e8899845ad3d59bd9653f200f220920489ca2b5937696c31836040516114289190611d71565b60405180910390a3505050565b611440848484610f93565b61144c84848484611888565b61148b576040517f08c379a000000000000000000000000000000000000000000000000000000000815260040161148290612e72565b60405180910390fd5b50505050565b606060405180602001604052806000815250905090565b60606114b382610df2565b60006114bd611491565b905060008151116114dd5760405180602001604052806000815250611508565b806114e784611a0f565b6040516020016114f8929190612c18565b6040516020818303038152906040525b915050919050565b600073ffffffffffffffffffffffffffffffffffffffff168273ffffffffffffffffffffffffffffffffffffffff160361157f576040517f08c379a000000000000000000000000000000000000000000000000000000000815260040161157690612ede565b60405180910390fd5b6115888161183b565b156115c8576040517f08c379a00000000000000000000000000000000000000000000000000000000081526004016115bf90612f4a565b60405180910390fd5b6115d660008383600161187c565b6115df8161183b565b1561161f576040517f08c379a000000000000000000000000000000000000000000000000000000000815260040161161690612f4a565b60405180910390fd5b6001600360008473ffffffffffffffffffffffffffffffffffffffff1673ffffffffffffffffffffffffffffffffffffffff16815260200190815260200160002060008282540192505081905550816002600083815260200190815260200160002060006101000a81548173ffffffffffffffffffffffffffffffffffffffff021916908373ffffffffffffffffffffffffffffffffffffffff160217905550808273ffffffffffffffffffffffffffffffffffffffff16600073ffffffffffffffffffffffffffffffffffffffff167fddf252ad1be2c89b69c2b068fc378daa952ba7f163c4a11628f55a4df523b3ef60405160405180910390a4611729600083836001611882565b5050565b6117368261183b565b611775576040517f08c379a000000000000000000000000000000000000000000000000000000000815260040161176c90612fdc565b60405180910390fd5b806006600084815260200190815260200160002090816117959190612ffc565b507ff8e1a15aba9398e019f0b49df1a4fde98ee17ae345cb5f6b5e2c27f5033e8ce7826040516117c59190611ff8565b60405180910390a15050565b60007f01ffc9a7000000000000000000000000000000000000000000000000000000007bffffffffffffffffffffffffffffffffffffffffffffffffffffffff1916827bffffffffffffffffffffffffffffffffffffffffffffffffffffffff1916149050919050565b60008073ffffffffffffffffffffffffffffffffffffffff1661185d8361128c565b73ffffffffffffffffffffffffffffffffffffffff1614159050919050565b50505050565b50505050565b60006118a98473ffffffffffffffffffffffffffffffffffffffff16611add565b15611a02578373ffffffffffffffffffffffffffffffffffffffff1663150b7a026118d2610e3d565b8786866040518563ffffffff1660e01b81526004016118f49493929190613123565b6020604051808303816000875af192505050801561193057506040513d601f19601f8201168201806040525081019061192d9190613184565b60015b6119b2573d8060008114611960576040519150601f19603f3d011682016040523d82523d6000602084013e611965565b606091505b5060008151036119aa576040517f08c379a00000000000000000000000000000000000000000000000000000000081526004016119a190612e72565b60405180910390fd5b805181602001fd5b63150b7a0260e01b7bffffffffffffffffffffffffffffffffffffffffffffffffffffffff1916817bffffffffffffffffffffffffffffffffffffffffffffffffffffffff191614915050611a07565b600190505b949350505050565b606060006001611a1e84611b00565b01905060008167ffffffffffffffff811115611a3d57611a3c6121ff565b5b6040519080825280601f01601f191660200182016040528015611a6f5781602001600182028036833780820191505090505b509050600082602001820190505b600115611ad2578080600190039150507f3031323334353637383961626364656600000000000000000000000000000000600a86061a8153600a8581611ac657611ac56131b1565b5b04945060008503611a7d575b819350505050919050565b6000808273ffffffffffffffffffffffffffffffffffffffff163b119050919050565b600080600090507a184f03e93ff9f4daa797ed6e38ed64bf6a1f0100000000000000008310611b5e577a184f03e93ff9f4daa797ed6e38ed64bf6a1f0100000000000000008381611b5457611b536131b1565b5b0492506040810190505b6d04ee2d6d415b85acef81000000008310611b9b576d04ee2d6d415b85acef81000000008381611b9157611b906131b1565b5b0492506020810190505b662386f26fc100008310611bca57662386f26fc100008381611bc057611bbf6131b1565b5b0492506010810190505b6305f5e1008310611bf3576305f5e1008381611be957611be86131b1565b5b0492506008810190505b6127108310611c18576127108381611c0e57611c0d6131b1565b5b0492506004810190505b60648310611c3b5760648381611c3157611c306131b1565b5b0492506002810190505b600a8310611c4a576001810190505b80915050919050565b828054828255906000526020600020908101928215611c8f579160200282015b82811115611c8e578235825591602001919060010190611c73565b5b509050611c9c9190611ca0565b5090565b5b80821115611cb9576000816000905550600101611ca1565b5090565b6000604051905090565b600080fd5b600080fd5b60007fffffffff0000000000000000000000000000000000000000000000000000000082169050919050565b611d0681611cd1565b8114611d1157600080fd5b50565b600081359050611d2381611cfd565b92915050565b600060208284031215611d3f57611d3e611cc7565b5b6000611d4d84828501611d14565b91505092915050565b60008115159050919050565b611d6b81611d56565b82525050565b6000602082019050611d866000830184611d62565b92915050565b600081519050919050565b600082825260208201905092915050565b60005b83811015611dc6578082015181840152602081019050611dab565b60008484015250505050565b6000601f19601f8301169050919050565b6000611dee82611d8c565b611df88185611d97565b9350611e08818560208601611da8565b611e1181611dd2565b840191505092915050565b60006020820190508181036000830152611e368184611de3565b905092915050565b6000819050919050565b611e5181611e3e565b8114611e5c57600080fd5b50565b600081359050611e6e81611e48565b92915050565b600060208284031215611e8a57611e89611cc7565b5b6000611e9884828501611e5f565b91505092915050565b600073ffffffffffffffffffffffffffffffffffffffff82169050919050565b6000611ecc82611ea1565b9050919050565b611edc81611ec1565b82525050565b6000602082019050611ef76000830184611ed3565b92915050565b611f0681611ec1565b8114611f1157600080fd5b50565b600081359050611f2381611efd565b92915050565b60008060408385031215611f4057611f3f611cc7565b5b6000611f4e85828601611f14565b9250506020611f5f85828601611e5f565b9150509250929050565b600080600060608486031215611f8257611f81611cc7565b5b6000611f9086828701611f14565b9350506020611fa186828701611f14565b9250506040611fb286828701611e5f565b9150509250925092565b600060208284031215611fd257611fd1611cc7565b5b6000611fe084828501611f14565b91505092915050565b611ff281611e3e565b82525050565b600060208201905061200d6000830184611fe9565b92915050565b600080fd5b600080fd5b600080fd5b60008083601f84011261203857612037612013565b5b8235905067ffffffffffffffff81111561205557612054612018565b5b6020830191508360208202830111156120715761207061201d565b5b9250929050565b60008060006040848603121561209157612090611cc7565b5b600061209f86828701611e5f565b935050602084013567ffffffffffffffff8111156120c0576120bf611ccc565b5b6120cc86828701612022565b92509250509250925092565b6120e181611d56565b81146120ec57600080fd5b50565b6000813590506120fe816120d8565b92915050565b6000806040838503121561211b5761211a611cc7565b5b600061212985828601611f14565b925050602061213a858286016120ef565b9150509250929050565b60008083601f84011261215a57612159612013565b5b8235905067ffffffffffffffff81111561217757612176612018565b5b6020830191508360018202830111156121935761219261201d565b5b9250929050565b6000806000604084860312156121b3576121b2611cc7565b5b60006121c186828701611e5f565b935050602084013567ffffffffffffffff8111156121e2576121e1611ccc565b5b6121ee86828701612144565b92509250509250925092565b600080fd5b7f4e487b7100000000000000000000000000000000000000000000000000000000600052604160045260246000fd5b61223782611dd2565b810181811067ffffffffffffffff82111715612256576122556121ff565b5b80604052505050565b6000612269611cbd565b9050612275828261222e565b919050565b600067ffffffffffffffff821115612295576122946121ff565b5b61229e82611dd2565b9050602081019050919050565b82818337600083830152505050565b60006122cd6122c88461227a565b61225f565b9050828152602081018484840111156122e9576122e86121fa565b5b6122f48482856122ab565b509392505050565b600082601f83011261231157612310612013565b5b81356123218482602086016122ba565b91505092915050565b6000806000806080858703121561234457612343611cc7565b5b600061235287828801611f14565b945050602061236387828801611f14565b935050604061237487828801611e5f565b925050606085013567ffffffffffffffff81111561239557612394611ccc565b5b6123a1878288016122fc565b91505092959194509250565b6000806000606084860312156123c6576123c5611cc7565b5b60006123d486828701611e5f565b93505060206123e586828701611e5f565b92505060406123f686828701611e5f565b9150509250925092565b600080600080600080600080600060c08a8c03121561242257612421611cc7565b5b60006124308c828d01611f14565b99505060208a013567ffffffffffffffff81111561245157612450611ccc565b5b61245d8c828d01612144565b985098505060406124708c828d01611e5f565b96505060606124818c828d01611e5f565b95505060808a013567ffffffffffffffff8111156124a2576124a1611ccc565b5b6124ae8c828d01612144565b945094505060a08a013567ffffffffffffffff8111156124d1576124d0611ccc565b5b6124dd8c828d01612022565b92509250509295985092959850929598565b6000806040838503121561250657612505611cc7565b5b600061251485828601611f14565b925050602061252585828601611f14565b9150509250929050565b7f4e487b7100000000000000000000000000000000000000000000000000000000600052602260045260246000fd5b6000600282049050600182168061257657607f821691505b6020821081036125895761258861252f565b5b50919050565b7f4552433732313a20617070726f76616c20746f2063757272656e74206f776e6560008201527f7200000000000000000000000000000000000000000000000000000000000000602082015250565b60006125eb602183611d97565b91506125f68261258f565b604082019050919050565b6000602082019050818103600083015261261a816125de565b9050919050565b7f4552433732313a20617070726f76652063616c6c6572206973206e6f7420746f60008201527f6b656e206f776e6572206f7220617070726f76656420666f7220616c6c000000602082015250565b600061267d603d83611d97565b915061268882612621565b604082019050919050565b600060208201905081810360008301526126ac81612670565b9050919050565b7f4552433732313a2063616c6c6572206973206e6f7420746f6b656e206f776e6560008201527f72206f7220617070726f76656400000000000000000000000000000000000000602082015250565b600061270f602d83611d97565b915061271a826126b3565b604082019050919050565b6000602082019050818103600083015261273e81612702565b9050919050565b7f4552433732313a20696e76616c696420746f6b656e2049440000000000000000600082015250565b600061277b601883611d97565b915061278682612745565b602082019050919050565b600060208201905081810360008301526127aa8161276e565b9050919050565b7f4552433732313a2061646472657373207a65726f206973206e6f74206120766160008201527f6c6964206f776e65720000000000000000000000000000000000000000000000602082015250565b600061280d602983611d97565b9150612818826127b1565b604082019050919050565b6000602082019050818103600083015261283c81612800565b9050919050565b7f43616c6c6572206973206e6f74206f776e6572206e6f7220617070726f766564600082015250565b6000612879602083611d97565b915061288482612843565b602082019050919050565b600060208201905081810360008301526128a88161286c565b9050919050565b7f4e487b7100000000000000000000000000000000000000000000000000000000600052603260045260246000fd5b7f4e487b7100000000000000000000000000000000000000000000000000000000600052601160045260246000fd5b600061291882611e3e565b91507fffffffffffffffffffffffffffffffffffffffffffffffffffffffffffffffff820361294a576129496128de565b5b600182019050919050565b600082905092915050565b60008190508160005260206000209050919050565b60006020601f8301049050919050565b600082821b905092915050565b6000600883026129c27fffffffffffffffffffffffffffffffffffffffffffffffffffffffffffffffff82612985565b6129cc8683612985565b95508019841693508086168417925050509392505050565b6000819050919050565b6000612a09612a046129ff84611e3e565b6129e4565b611e3e565b9050919050565b6000819050919050565b612a23836129ee565b612a37612a2f82612a10565b848454612992565b825550505050565b600090565b612a4c612a3f565b612a57818484612a1a565b505050565b5b81811015612a7b57612a70600082612a44565b600181019050612a5d565b5050565b601f821115612ac057612a9181612960565b612a9a84612975565b81016020851015612aa9578190505b612abd612ab585612975565b830182612a5c565b50505b505050565b600082821c905092915050565b6000612ae360001984600802612ac5565b1980831691505092915050565b6000612afc8383612ad2565b9150826002028217905092915050565b612b168383612955565b67ffffffffffffffff811115612b2f57612b2e6121ff565b5b612b39825461255e565b612b44828285612a7f565b6000601f831160018114612b735760008415612b61578287013590505b612b6b8582612af0565b865550612bd3565b601f198416612b8186612960565b60005b82811015612ba957848901358255600182019150602085019450602081019050612b84565b86831015612bc65784890135612bc2601f891682612ad2565b8355505b6001600288020188555050505b50505050505050565b600081905092915050565b6000612bf282611d8c565b612bfc8185612bdc565b9350612c0c818560208601611da8565b80840191505092915050565b6000612c248285612be7565b9150612c308284612be7565b91508190509392505050565b6000612c4782611e3e565b9150612c5283611e3e565b9250828201905080821115612c6a57612c696128de565b5b92915050565b7f4552433732313a207472616e736665722066726f6d20696e636f72726563742060008201527f6f776e6572000000000000000000000000000000000000000000000000000000602082015250565b6000612ccc602583611d97565b9150612cd782612c70565b604082019050919050565b60006020820190508181036000830152612cfb81612cbf565b9050919050565b7f4552433732313a207472616e7366657220746f20746865207a65726f2061646460008201527f7265737300000000000000000000000000000000000000000000000000000000602082015250565b6000612d5e602483611d97565b9150612d6982612d02565b604082019050919050565b60006020820190508181036000830152612d8d81612d51565b9050919050565b7f4552433732313a20617070726f766520746f2063616c6c657200000000000000600082015250565b6000612dca601983611d97565b9150612dd582612d94565b602082019050919050565b60006020820190508181036000830152612df981612dbd565b9050919050565b7f4552433732313a207472616e7366657220746f206e6f6e20455243373231526560008201527f63656976657220696d706c656d656e7465720000000000000000000000000000602082015250565b6000612e5c603283611d97565b9150612e6782612e00565b604082019050919050565b60006020820190508181036000830152612e8b81612e4f565b9050919050565b7f4552433732313a206d696e7420746f20746865207a65726f2061646472657373600082015250565b6000612ec8602083611d97565b9150612ed382612e92565b602082019050919050565b60006020820190508181036000830152612ef781612ebb565b9050919050565b7f4552433732313a20746f6b656e20616c7265616479206d696e74656400000000600082015250565b6000612f34601c83611d97565b9150612f3f82612efe565b602082019050919050565b60006020820190508181036000830152612f6381612f27565b9050919050565b7f45524337323155524953746f726167653a2055524920736574206f66206e6f6e60008201527f6578697374656e7420746f6b656e000000000000000000000000000000000000602082015250565b6000612fc6602e83611d97565b9150612fd182612f6a565b604082019050919050565b60006020820190508181036000830152612ff581612fb9565b9050919050565b61300582611d8c565b67ffffffffffffffff81111561301e5761301d6121ff565b5b613028825461255e565b613033828285612a7f565b600060209050601f8311600181146130665760008415613054578287015190505b61305e8582612af0565b8655506130c6565b601f19841661307486612960565b60005b8281101561309c57848901518255600182019150602085019450602081019050613077565b868310156130b957848901516130b5601f891682612ad2565b8355505b6001600288020188555050505b505050505050565b600081519050919050565b600082825260208201905092915050565b60006130f5826130ce565b6130ff81856130d9565b935061310f818560208601611da8565b61311881611dd2565b840191505092915050565b60006080820190506131386000830187611ed3565b6131456020830186611ed3565b6131526040830185611fe9565b818103606083015261316481846130ea565b905095945050505050565b60008151905061317e81611cfd565b92915050565b60006020828403121561319a57613199611cc7565b5b60006131a88482850161316f565b91505092915050565b7f4e487b7100000000000000000000000000000000000000000000000000000000600052601260045260246000fdfea264697066735822122030d5010e365c2b0812f8361b43414c1f670a54de5e540ee83199c381a970349864736f6c63430008130033",
  "immutableReferences": {},
  "source": "// SPDX-License-Identifier: MIT\npragma solidity ^0.8.19;\n\nimport '../node_modules/@openzeppelin/contracts/utils/Counters.sol';\nimport '../node_modules/@openzeppelin/contracts/token/ERC721/ERC721.sol';\nimport '../node_modules/@openzeppelin/contracts/token/ERC721/extensions/ERC721URIStorage.sol';\n\ncontract ProjectNFT is ERC721URIStorage {\n  uint256 public tokenCounter;\n\n  // Maps tokenId to project's price\n  mapping(uint256 => uint256) private tokenIdToPrice;\n\n  // Maps tokenId to royalty price\n  mapping(uint256 => uint256) private tokenIdToRoyaltyPrice;\n\n  // Maps tokenId to hash of project\n  mapping(uint256 => string) private tokenIdToHash;\n\n  // Maps tokenId to list of components of project\n  mapping(uint256 => uint256[]) private tokenIdToComponents;\n\n  constructor() ERC721('DesignerNFT', 'DNFT') {\n    tokenCounter = 1;\n  }\n\n  function mintToken(\n    address sender,\n    string calldata uri,\n    uint256 price,\n    uint256 royaltyPrice,\n    string calldata projectHash,\n    uint256[] calldata components\n  ) public returns (uint256) {\n    //base_uri\n\n    uint256 newItemId = tokenCounter;\n\n    _mint(sender, newItemId);\n\n    //uri = base_uri + newItemId\n    _setTokenURI(newItemId, uri);\n\n    tokenCounter = tokenCounter + 1;\n\n    setTokenHash(newItemId, projectHash);\n    setTokenPrice(newItemId, price, royaltyPrice);\n    setTokenComponents(newItemId, components);\n\n    return newItemId;\n  }\n\n  function getTokenPrice(uint256 tokenId) public view returns (uint256) {\n    return tokenIdToPrice[tokenId];\n  }\n\n  function setTokenPrice(uint256 tokenId, uint256 price, uint256 royaltyPrice) public {\n    require(_isApprovedOrOwner(msg.sender, tokenId), 'Caller is not owner nor approved');\n    tokenIdToPrice[tokenId] = price;\n    tokenIdToRoyaltyPrice[tokenId] = royaltyPrice;\n  }\n\n  function setTokenHash(uint256 tokenId, string calldata hash) public {\n    require(_isApprovedOrOwner(msg.sender, tokenId), 'Caller is not owner nor approved');\n    tokenIdToHash[tokenId] = hash;\n  }\n\n  function setTokenComponents(uint256 tokenId, uint256[] calldata components) public {\n    require(_isApprovedOrOwner(msg.sender, tokenId), 'Caller is not owner nor approved');\n    // Check components exists\n    for (uint i = 0; i < components.length; i++) {\n        require(components[i] < tokenCounter);\n    }\n    tokenIdToComponents[tokenId] = components;\n  }\n}\n",
  "sourcePath": "/home/matteo/Projects/Uni/blockchain-project/contracts/ProjectNFT.sol",
  "compiler": {
    "name": "solc",
    "version": "0.8.19+commit.7dd6d404.Emscripten.clang"
  },
  "schemaVersion": "3.4.13",
  "updatedAt": "2023-06-21T12:59:28.988Z",
  "devdoc": {
    "events": {
      "Approval(address,address,uint256)": {
        "details": "Emitted when `owner` enables `approved` to manage the `tokenId` token."
      },
      "ApprovalForAll(address,address,bool)": {
        "details": "Emitted when `owner` enables or disables (`approved`) `operator` to manage all of its assets."
      },
      "BatchMetadataUpdate(uint256,uint256)": {
        "details": "This event emits when the metadata of a range of tokens is changed. So that the third-party platforms such as NFT market could timely update the images and related attributes of the NFTs."
      },
      "MetadataUpdate(uint256)": {
        "details": "This event emits when the metadata of a token is changed. So that the third-party platforms such as NFT market could timely update the images and related attributes of the NFT."
      },
      "Transfer(address,address,uint256)": {
        "details": "Emitted when `tokenId` token is transferred from `from` to `to`."
      }
    },
    "kind": "dev",
    "methods": {
      "approve(address,uint256)": {
        "details": "See {IERC721-approve}."
      },
      "balanceOf(address)": {
        "details": "See {IERC721-balanceOf}."
      },
      "getApproved(uint256)": {
        "details": "See {IERC721-getApproved}."
      },
      "isApprovedForAll(address,address)": {
        "details": "See {IERC721-isApprovedForAll}."
      },
      "name()": {
        "details": "See {IERC721Metadata-name}."
      },
      "ownerOf(uint256)": {
        "details": "See {IERC721-ownerOf}."
      },
      "safeTransferFrom(address,address,uint256)": {
        "details": "See {IERC721-safeTransferFrom}."
      },
      "safeTransferFrom(address,address,uint256,bytes)": {
        "details": "See {IERC721-safeTransferFrom}."
      },
      "setApprovalForAll(address,bool)": {
        "details": "See {IERC721-setApprovalForAll}."
      },
      "supportsInterface(bytes4)": {
        "details": "See {IERC165-supportsInterface}"
      },
      "symbol()": {
        "details": "See {IERC721Metadata-symbol}."
      },
      "tokenURI(uint256)": {
        "details": "See {IERC721Metadata-tokenURI}."
      },
      "transferFrom(address,address,uint256)": {
        "details": "See {IERC721-transferFrom}."
      }
    },
    "version": 1
  },
  "userdoc": {
    "kind": "user",
    "methods": {},
    "version": 1
  }
}